{
  "_format": "hh-sol-artifact-1",
  "contractName": "MockUSDC",
  "sourceName": "contracts/MockUSDC.sol",
  "abi": [
    {
      "inputs": [
        {
          "internalType": "address",
          "name": "owner",
          "type": "address"
        }
      ],
      "stateMutability": "nonpayable",
      "type": "constructor"
    },
    {
      "inputs": [
        {
          "internalType": "address",
          "name": "spender",
          "type": "address"
        },
        {
          "internalType": "uint256",
          "name": "allowance",
          "type": "uint256"
        },
        {
          "internalType": "uint256",
          "name": "needed",
          "type": "uint256"
        }
      ],
      "name": "ERC20InsufficientAllowance",
      "type": "error"
    },
    {
      "inputs": [
        {
          "internalType": "address",
          "name": "sender",
          "type": "address"
        },
        {
          "internalType": "uint256",
          "name": "balance",
          "type": "uint256"
        },
        {
          "internalType": "uint256",
          "name": "needed",
          "type": "uint256"
        }
      ],
      "name": "ERC20InsufficientBalance",
      "type": "error"
    },
    {
      "inputs": [
        {
          "internalType": "address",
          "name": "approver",
          "type": "address"
        }
      ],
      "name": "ERC20InvalidApprover",
      "type": "error"
    },
    {
      "inputs": [
        {
          "internalType": "address",
          "name": "receiver",
          "type": "address"
        }
      ],
      "name": "ERC20InvalidReceiver",
      "type": "error"
    },
    {
      "inputs": [
        {
          "internalType": "address",
          "name": "sender",
          "type": "address"
        }
      ],
      "name": "ERC20InvalidSender",
      "type": "error"
    },
    {
      "inputs": [
        {
          "internalType": "address",
          "name": "spender",
          "type": "address"
        }
      ],
      "name": "ERC20InvalidSpender",
      "type": "error"
    },
    {
      "inputs": [
        {
          "internalType": "address",
          "name": "owner",
          "type": "address"
        }
      ],
      "name": "OwnableInvalidOwner",
      "type": "error"
    },
    {
      "inputs": [
        {
          "internalType": "address",
          "name": "account",
          "type": "address"
        }
      ],
      "name": "OwnableUnauthorizedAccount",
      "type": "error"
    },
    {
      "anonymous": false,
      "inputs": [
        {
          "indexed": true,
          "internalType": "address",
          "name": "owner",
          "type": "address"
        },
        {
          "indexed": true,
          "internalType": "address",
          "name": "spender",
          "type": "address"
        },
        {
          "indexed": false,
          "internalType": "uint256",
          "name": "value",
          "type": "uint256"
        }
      ],
      "name": "Approval",
      "type": "event"
    },
    {
      "anonymous": false,
      "inputs": [
        {
          "indexed": true,
          "internalType": "address",
          "name": "previousOwner",
          "type": "address"
        },
        {
          "indexed": true,
          "internalType": "address",
          "name": "newOwner",
          "type": "address"
        }
      ],
      "name": "OwnershipTransferred",
      "type": "event"
    },
    {
      "anonymous": false,
      "inputs": [
        {
          "indexed": true,
          "internalType": "address",
          "name": "from",
          "type": "address"
        },
        {
          "indexed": true,
          "internalType": "address",
          "name": "to",
          "type": "address"
        },
        {
          "indexed": false,
          "internalType": "uint256",
          "name": "value",
          "type": "uint256"
        }
      ],
      "name": "Transfer",
      "type": "event"
    },
    {
      "inputs": [
        {
          "internalType": "address",
          "name": "owner",
          "type": "address"
        },
        {
          "internalType": "address",
          "name": "spender",
          "type": "address"
        }
      ],
      "name": "allowance",
      "outputs": [
        {
          "internalType": "uint256",
          "name": "",
          "type": "uint256"
        }
      ],
      "stateMutability": "view",
      "type": "function"
    },
    {
      "inputs": [
        {
          "internalType": "address",
          "name": "spender",
          "type": "address"
        },
        {
          "internalType": "uint256",
          "name": "value",
          "type": "uint256"
        }
      ],
      "name": "approve",
      "outputs": [
        {
          "internalType": "bool",
          "name": "",
          "type": "bool"
        }
      ],
      "stateMutability": "nonpayable",
      "type": "function"
    },
    {
      "inputs": [
        {
          "internalType": "address",
          "name": "account",
          "type": "address"
        }
      ],
      "name": "balanceOf",
      "outputs": [
        {
          "internalType": "uint256",
          "name": "",
          "type": "uint256"
        }
      ],
      "stateMutability": "view",
      "type": "function"
    },
    {
      "inputs": [],
      "name": "decimals",
      "outputs": [
        {
          "internalType": "uint8",
          "name": "",
          "type": "uint8"
        }
      ],
      "stateMutability": "pure",
      "type": "function"
    },
    {
      "inputs": [
        {
          "internalType": "uint256",
          "name": "amount",
          "type": "uint256"
        }
      ],
      "name": "faucet",
      "outputs": [],
      "stateMutability": "nonpayable",
      "type": "function"
    },
    {
      "inputs": [
        {
          "internalType": "address",
          "name": "to",
          "type": "address"
        },
        {
          "internalType": "uint256",
          "name": "amount",
          "type": "uint256"
        }
      ],
      "name": "mint",
      "outputs": [],
      "stateMutability": "nonpayable",
      "type": "function"
    },
    {
      "inputs": [],
      "name": "name",
      "outputs": [
        {
          "internalType": "string",
          "name": "",
          "type": "string"
        }
      ],
      "stateMutability": "view",
      "type": "function"
    },
    {
      "inputs": [],
      "name": "owner",
      "outputs": [
        {
          "internalType": "address",
          "name": "",
          "type": "address"
        }
      ],
      "stateMutability": "view",
      "type": "function"
    },
    {
      "inputs": [],
      "name": "renounceOwnership",
      "outputs": [],
      "stateMutability": "nonpayable",
      "type": "function"
    },
    {
      "inputs": [],
      "name": "symbol",
      "outputs": [
        {
          "internalType": "string",
          "name": "",
          "type": "string"
        }
      ],
      "stateMutability": "view",
      "type": "function"
    },
    {
      "inputs": [],
      "name": "totalSupply",
      "outputs": [
        {
          "internalType": "uint256",
          "name": "",
          "type": "uint256"
        }
      ],
      "stateMutability": "view",
      "type": "function"
    },
    {
      "inputs": [
        {
          "internalType": "address",
          "name": "to",
          "type": "address"
        },
        {
          "internalType": "uint256",
          "name": "value",
          "type": "uint256"
        }
      ],
      "name": "transfer",
      "outputs": [
        {
          "internalType": "bool",
          "name": "",
          "type": "bool"
        }
      ],
      "stateMutability": "nonpayable",
      "type": "function"
    },
    {
      "inputs": [
        {
          "internalType": "address",
          "name": "from",
          "type": "address"
        },
        {
          "internalType": "address",
          "name": "to",
          "type": "address"
        },
        {
          "internalType": "uint256",
          "name": "value",
          "type": "uint256"
        }
      ],
      "name": "transferFrom",
      "outputs": [
        {
          "internalType": "bool",
          "name": "",
          "type": "bool"
        }
      ],
      "stateMutability": "nonpayable",
      "type": "function"
    },
    {
      "inputs": [
        {
          "internalType": "address",
          "name": "newOwner",
          "type": "address"
        }
      ],
      "name": "transferOwnership",
      "outputs": [],
      "stateMutability": "nonpayable",
      "type": "function"
    }
  ],
  "bytecode": "0x6080346200039a576001600160401b03601f601f1962000cd83881900383810183168601858111878210176200039f578692829160405283396020958691810103126200039a57516001600160a01b039485821694918590036200039a5762000067620003b5565b60088152672aa9a21021b7b4b760c11b8282015262000085620003b5565b94600495868152635553444360e01b84820152825193858511620002a0576003948554946001958681811c911680156200038f575b848210146200037a5790818684931162000324575b508390868311600114620002c157600092620002b5575b505060001982881b1c191690851b1785555b8151958611620002a05787548481811c9116801562000295575b82821014620002805783811162000235575b5080928611600114620001c9575084955090849291600095620001bd575b50501b92600019911b1c19161781555b8115620001a55750600580546001600160a01b03198116831790915560405192167f8be0079c531659141344cd1fd0a4f28419497f9722a3daafe3b4186f6b6457e0600080a36109029081620003d68239f35b602490600060405191631e4fbdf760e01b8352820152fd5b01519350388062000142565b939295859081168860005285600020956000905b898383106200021a5750505010620001ff575b50505050811b01815562000152565b01519060f884600019921b161c1916905538808080620001f0565b858701518955909701969485019488935090810190620001dd565b88600052816000208480890160051c820192848a1062000276575b0160051c019085905b8281106200026957505062000124565b6000815501859062000259565b9250819262000250565b602289634e487b7160e01b6000525260246000fd5b90607f169062000112565b604188634e487b7160e01b6000525260246000fd5b015190503880620000e6565b908a8894169189600052856000209260005b878282106200030d5750508411620002f4575b505050811b018555620000f8565b0151600019838a1b60f8161c19169055388080620002e6565b8385015186558b97909501949384019301620002d3565b90915087600052836000208680850160051c82019286861062000370575b918991869594930160051c01915b82811062000360575050620000cf565b6000815585945089910162000350565b9250819262000342565b60228b634e487b7160e01b6000525260246000fd5b90607f1690620000ba565b600080fd5b634e487b7160e01b600052604160045260246000fd5b60408051919082016001600160401b038111838210176200039f5760405256fe6080604081815260048036101561001557600080fd5b600092833560e01c90816306fdde03146105d357508063095ea7b31461052a57806318160ddd1461050b57806323b872dd14610422578063313ce5671461040657806340c10f19146103d9578063579158971461036757806370a0823114610330578063715018a6146102e25780638da5cb5b146102b957806395d89b41146101b5578063a9059cbb14610184578063dd62ed3e146101375763f2fde38b146100bd57600080fd5b34610133576020366003190112610133576100d66106f5565b906100df6107fb565b6001600160a01b0391821692831561011d575050600580546001600160a01b0319811684179091551660008051602061088d8339815191528380a380f35b51631e4fbdf760e01b8152908101849052602490fd5b8280fd5b505034610180578060031936011261018057806020926101556106f5565b61015d610710565b6001600160a01b0391821683526001865283832091168252845220549051908152f35b5080fd5b5050346101805780600319360112610180576020906101ae6101a46106f5565b6024359033610744565b5160018152f35b5091903461018057816003193601126101805780519082845460018160011c90600183169283156102af575b602093848410811461029c578388529081156102805750600114610248575b505050829003601f01601f19168201926001600160401b0384118385101761023557508291826102319252826106ac565b0390f35b634e487b7160e01b815260418552602490fd5b919250868652828620918387935b83851061026c5750505050830101388080610200565b805488860183015293019284908201610256565b60ff1916878501525050151560051b8401019050388080610200565b634e487b7160e01b895260228a52602489fd5b91607f16916101e1565b50503461018057816003193601126101805760055490516001600160a01b039091168152602090f35b833461032d578060031936011261032d576102fb6107fb565b600580546001600160a01b0319811690915581906001600160a01b031660008051602061088d8339815191528280a380f35b80fd5b5050346101805760203660031901126101805760209181906001600160a01b036103586106f5565b16815280845220549051908152f35b50346101335760203660031901126101335780359164174876e800831161039657836103938433610827565b80f35b906020606492519162461bcd60e51b8352820152601d60248201527f4d6f636b555344433a206d6178203130304b20706572206661756365740000006044820152fd5b5050346101805736600319011261032d576103936103f56106f5565b6103fd6107fb565b60243590610827565b5050346101805781600319360112610180576020905160068152f35b50823461032d57606036600319011261032d5761043d6106f5565b610445610710565b916044359360018060a01b038316808352600160205286832033845260205286832054916000198310610481575b6020886101ae898989610744565b8683106104e95781156104d25733156104bb575082526001602090815286832033845281529186902090859003905582906101ae87610473565b8751634a1406b160e11b8152908101849052602490fd5b875163e602df0560e01b8152908101849052602490fd5b9050610507868851938493637dc7a0d960e11b855233908501610726565b0390fd5b5050346101805781600319360112610180576020906002549051908152f35b50346101335781600319360112610133576105436106f5565b6024359033156105bc576001600160a01b03169182156105a557508083602095338152600187528181208582528752205582519081527f8c5be1e5ebec7d5bd14f71427d1e84f3dd0314c0f7b2291e5b200ac8c7c3b925843392a35160018152f35b8351634a1406b160e11b8152908101859052602490fd5b835163e602df0560e01b8152808401869052602490fd5b84915083346101335782600319360112610133578260035460018160011c90600183169283156106a2575b602093848410811461029c57838852908115610686575060011461064d57505050829003601f01601f19168201926001600160401b0384118385101761023557508291826102319252826106ac565b91925060038652828620918387935b8385106106725750505050830101858080610200565b80548886018301529301928490820161065c565b60ff1916878501525050151560051b8401019050858080610200565b91607f16916105fe565b6020808252825181830181905290939260005b8281106106e157505060409293506000838284010152601f8019910116010190565b8181018601518482016040015285016106bf565b600435906001600160a01b038216820361070b57565b600080fd5b602435906001600160a01b038216820361070b57565b604091949392606082019560018060a01b0316825260208201520152565b916001600160a01b038084169283156107e257169283156107c957600090838252816020526040822054908382106107ac575091604082826000805160206108ad833981519152958760209652828652038282205586815220818154019055604051908152a3565b6105078460405193849363391434e360e21b855260048501610726565b60405163ec442f0560e01b815260006004820152602490fd5b604051634b637e8f60e11b815260006004820152602490fd5b6005546001600160a01b0316330361080f57565b60405163118cdaa760e01b8152336004820152602490fd5b6001600160a01b03169081156107c957600254908082018092116108765760206000805160206108ad8339815191529160009360025584845283825260408420818154019055604051908152a3565b634e487b7160e01b600052601160045260246000fdfe8be0079c531659141344cd1fd0a4f28419497f9722a3daafe3b4186f6b6457e0ddf252ad1be2c89b69c2b068fc378daa952ba7f163c4a11628f55a4df523b3efa264697066735822122038bb4f860285643f0840b8d2a5ef4cf000b7cc15044ad80f5bae16093b4bde9e64736f6c63430008180033",
  "linkReferences": {},
  "deployedLinkReferences": {}
}