{"contracts/IssuraTimelock.sol":{"IssuraTimelock":{"abi":[{"inputs":[{"internalType":"address[]","name":"proposers","type":"address[]"},{"internalType":"address[]","name":"executors","type":"address[]"},{"internalType":"address","name":"admin","type":"address"}],"stateMutability":"nonpayable","type":"constructor"},{"inputs":[],"name":"AccessControlBadConfirmation","type":"error"},{"inputs":[{"internalType":"address","name":"account","type":"address"},{"internalType":"bytes32","name":"neededRole","type":"bytes32"}],"name":"AccessControlUnauthorizedAccount","type":"error"},{"inputs":[],"name":"FailedCall","type":"error"},{"inputs":[{"internalType":"uint256","name":"delay","type":"uint256"},{"internalType":"uint256","name":"minDelay","type":"uint256"}],"name":"TimelockInsufficientDelay","type":"error"},{"inputs":[{"internalType":"uint256","name":"targets","type":"uint256"},{"internalType":"uint256","name":"payloads","type":"uint256"},{"internalType":"uint256","name":"values","type":"uint256"}],"name":"TimelockInvalidOperationLength","type":"error"},{"inputs":[{"internalType":"address","name":"caller","type":"address"}],"name":"TimelockUnauthorizedCaller","type":"error"},{"inputs":[{"internalType":"bytes32","name":"predecessorId","type":"bytes32"}],"name":"TimelockUnexecutedPredecessor","type":"error"},{"inputs":[{"internalType":"bytes32","name":"operationId","type":"bytes32"},{"internalType":"bytes32","name":"expectedStates","type":"bytes32"}],"name":"TimelockUnexpectedOperationState","type":"error"},{"anonymous":false,"inputs":[{"indexed":true,"internalType":"bytes32","name":"id","type":"bytes32"},{"indexed":true,"internalType":"uint256","name":"index","type":"uint256"},{"indexed":false,"internalType":"address","name":"target","type":"address"},{"indexed":false,"internalType":"uint256","name":"value","type":"uint256"},{"indexed":false,"internalType":"bytes","name":"data","type":"bytes"}],"name":"CallExecuted","type":"event"},{"anonymous":false,"inputs":[{"indexed":true,"internalType":"bytes32","name":"id","type":"bytes32"},{"indexed":false,"internalType":"bytes32","name":"salt","type":"bytes32"}],"name":"CallSalt","type":"event"},{"anonymous":false,"inputs":[{"indexed":true,"internalType":"bytes32","name":"id","type":"bytes32"},{"indexed":true,"internalType":"uint256","name":"index","type":"uint256"},{"indexed":false,"internalType":"address","name":"target","type":"address"},{"indexed":false,"internalType":"uint256","name":"value","type":"uint256"},{"indexed":false,"internalType":"bytes","name":"data","type":"bytes"},{"indexed":false,"internalType":"bytes32","name":"predecessor","type":"bytes32"},{"indexed":false,"internalType":"uint256","name":"delay","type":"uint256"}],"name":"CallScheduled","type":"event"},{"anonymous":false,"inputs":[{"indexed":true,"internalType":"bytes32","name":"id","type":"bytes32"}],"name":"Cancelled","type":"event"},{"anonymous":false,"inputs":[{"indexed":false,"internalType":"uint256","name":"oldDuration","type":"uint256"},{"indexed":false,"internalType":"uint256","name":"newDuration","type":"uint256"}],"name":"MinDelayChange","type":"event"},{"anonymous":false,"inputs":[{"indexed":true,"internalType":"bytes32","name":"role","type":"bytes32"},{"indexed":true,"internalType":"bytes32","name":"previousAdminRole","type":"bytes32"},{"indexed":true,"internalType":"bytes32","name":"newAdminRole","type":"bytes32"}],"name":"RoleAdminChanged","type":"event"},{"anonymous":false,"inputs":[{"indexed":true,"internalType":"bytes32","name":"role","type":"bytes32"},{"indexed":true,"internalType":"address","name":"account","type":"address"},{"indexed":true,"internalType":"address","name":"sender","type":"address"}],"name":"RoleGranted","type":"event"},{"anonymous":false,"inputs":[{"indexed":true,"internalType":"bytes32","name":"role","type":"bytes32"},{"indexed":true,"internalType":"address","name":"account","type":"address"},{"indexed":true,"internalType":"address","name":"sender","type":"address"}],"name":"RoleRevoked","type":"event"},{"inputs":[],"name":"CANCELLER_ROLE","outputs":[{"internalType":"bytes32","name":"","type":"bytes32"}],"stateMutability":"view","type":"function"},{"inputs":[],"name":"DEFAULT_ADMIN_ROLE","outputs":[{"internalType":"bytes32","name":"","type":"bytes32"}],"stateMutability":"view","type":"function"},{"inputs":[],"name":"EXECUTOR_ROLE","outputs":[{"internalType":"bytes32","name":"","type":"bytes32"}],"stateMutability":"view","type":"function"},{"inputs":[],"name":"MIN_DELAY","outputs":[{"internalType":"uint256","name":"","type":"uint256"}],"stateMutability":"view","type":"function"},{"inputs":[],"name":"PROPOSER_ROLE","outputs":[{"internalType":"bytes32","name":"","type":"bytes32"}],"stateMutability":"view","type":"function"},{"inputs":[{"internalType":"bytes32","name":"id","type":"bytes32"}],"name":"cancel","outputs":[],"stateMutability":"nonpayable","type":"function"},{"inputs":[{"internalType":"address","name":"target","type":"address"},{"internalType":"uint256","name":"value","type":"uint256"},{"internalType":"bytes","name":"payload","type":"bytes"},{"internalType":"bytes32","name":"predecessor","type":"bytes32"},{"internalType":"bytes32","name":"salt","type":"bytes32"}],"name":"execute","outputs":[],"stateMutability":"payable","type":"function"},{"inputs":[{"internalType":"address[]","name":"targets","type":"address[]"},{"internalType":"uint256[]","name":"values","type":"uint256[]"},{"internalType":"bytes[]","name":"payloads","type":"bytes[]"},{"internalType":"bytes32","name":"predecessor","type":"bytes32"},{"internalType":"bytes32","name":"salt","type":"bytes32"}],"name":"executeBatch","outputs":[],"stateMutability":"payable","type":"function"},{"inputs":[],"name":"getMinDelay","outputs":[{"internalType":"uint256","name":"","type":"uint256"}],"stateMutability":"view","type":"function"},{"inputs":[{"internalType":"bytes32","name":"id","type":"bytes32"}],"name":"getOperationState","outputs":[{"internalType":"enum TimelockController.OperationState","name":"","type":"uint8"}],"stateMutability":"view","type":"function"},{"inputs":[{"internalType":"bytes32","name":"role","type":"bytes32"}],"name":"getRoleAdmin","outputs":[{"internalType":"bytes32","name":"","type":"bytes32"}],"stateMutability":"view","type":"function"},{"inputs":[{"internalType":"bytes32","name":"id","type":"bytes32"}],"name":"getTimestamp","outputs":[{"internalType":"uint256","name":"","type":"uint256"}],"stateMutability":"view","type":"function"},{"inputs":[{"internalType":"bytes32","name":"role","type":"bytes32"},{"internalType":"address","name":"account","type":"address"}],"name":"grantRole","outputs":[],"stateMutability":"nonpayable","type":"function"},{"inputs":[{"internalType":"bytes32","name":"role","type":"bytes32"},{"internalType":"address","name":"account","type":"address"}],"name":"hasRole","outputs":[{"internalType":"bool","name":"","type":"bool"}],"stateMutability":"view","type":"function"},{"inputs":[{"internalType":"address","name":"target","type":"address"},{"internalType":"uint256","name":"value","type":"uint256"},{"internalType":"bytes","name":"data","type":"bytes"},{"internalType":"bytes32","name":"predecessor","type":"bytes32"},{"internalType":"bytes32","name":"salt","type":"bytes32"}],"name":"hashOperation","outputs":[{"internalType":"bytes32","name":"","type":"bytes32"}],"stateMutability":"pure","type":"function"},{"inputs":[{"internalType":"address[]","name":"targets","type":"address[]"},{"internalType":"uint256[]","name":"values","type":"uint256[]"},{"internalType":"bytes[]","name":"payloads","type":"bytes[]"},{"internalType":"bytes32","name":"predecessor","type":"bytes32"},{"internalType":"bytes32","name":"salt","type":"bytes32"}],"name":"hashOperationBatch","outputs":[{"internalType":"bytes32","name":"","type":"bytes32"}],"stateMutability":"pure","type":"function"},{"inputs":[{"internalType":"bytes32","name":"id","type":"bytes32"}],"name":"isOperation","outputs":[{"internalType":"bool","name":"","type":"bool"}],"stateMutability":"view","type":"function"},{"inputs":[{"internalType":"bytes32","name":"id","type":"bytes32"}],"name":"isOperationDone","outputs":[{"internalType":"bool","name":"","type":"bool"}],"stateMutability":"view","type":"function"},{"inputs":[{"internalType":"bytes32","name":"id","type":"bytes32"}],"name":"isOperationPending","outputs":[{"internalType":"bool","name":"","type":"bool"}],"stateMutability":"view","type":"function"},{"inputs":[{"internalType":"bytes32","name":"id","type":"bytes32"}],"name":"isOperationReady","outputs":[{"internalType":"bool","name":"","type":"bool"}],"stateMutability":"view","type":"function"},{"inputs":[{"internalType":"address","name":"","type":"address"},{"internalType":"address","name":"","type":"address"},{"internalType":"uint256[]","name":"","type":"uint256[]"},{"internalType":"uint256[]","name":"","type":"uint256[]"},{"internalType":"bytes","name":"","type":"bytes"}],"name":"onERC1155BatchReceived","outputs":[{"internalType":"bytes4","name":"","type":"bytes4"}],"stateMutability":"nonpayable","type":"function"},{"inputs":[{"internalType":"address","name":"","type":"address"},{"internalType":"address","name":"","type":"address"},{"internalType":"uint256","name":"","type":"uint256"},{"internalType":"uint256","name":"","type":"uint256"},{"internalType":"bytes","name":"","type":"bytes"}],"name":"onERC1155Received","outputs":[{"internalType":"bytes4","name":"","type":"bytes4"}],"stateMutability":"nonpayable","type":"function"},{"inputs":[{"internalType":"address","name":"","type":"address"},{"internalType":"address","name":"","type":"address"},{"internalType":"uint256","name":"","type":"uint256"},{"internalType":"bytes","name":"","type":"bytes"}],"name":"onERC721Received","outputs":[{"internalType":"bytes4","name":"","type":"bytes4"}],"stateMutability":"nonpayable","type":"function"},{"inputs":[{"internalType":"bytes32","name":"role","type":"bytes32"},{"internalType":"address","name":"callerConfirmation","type":"address"}],"name":"renounceRole","outputs":[],"stateMutability":"nonpayable","type":"function"},{"inputs":[{"internalType":"bytes32","name":"role","type":"bytes32"},{"internalType":"address","name":"account","type":"address"}],"name":"revokeRole","outputs":[],"stateMutability":"nonpayable","type":"function"},{"inputs":[{"internalType":"address","name":"target","type":"address"},{"internalType":"uint256","name":"value","type":"uint256"},{"internalType":"bytes","name":"data","type":"bytes"},{"internalType":"bytes32","name":"predecessor","type":"bytes32"},{"internalType":"bytes32","name":"salt","type":"bytes32"},{"internalType":"uint256","name":"delay","type":"uint256"}],"name":"schedule","outputs":[],"stateMutability":"nonpayable","type":"function"},{"inputs":[{"internalType":"address[]","name":"targets","type":"address[]"},{"internalType":"uint256[]","name":"values","type":"uint256[]"},{"internalType":"bytes[]","name":"payloads","type":"bytes[]"},{"internalType":"bytes32","name":"predecessor","type":"bytes32"},{"internalType":"bytes32","name":"salt","type":"bytes32"},{"internalType":"uint256","name":"delay","type":"uint256"}],"name":"scheduleBatch","outputs":[],"stateMutability":"nonpayable","type":"function"},{"inputs":[{"internalType":"bytes4","name":"interfaceId","type":"bytes4"}],"name":"supportsInterface","outputs":[{"internalType":"bool","name":"","type":"bool"}],"stateMutability":"view","type":"function"},{"inputs":[{"internalType":"uint256","name":"newDelay","type":"uint256"}],"name":"updateDelay","outputs":[],"stateMutability":"nonpayable","type":"function"},{"stateMutability":"payable","type":"receive"}],"evm":{"bytecode":{"linkReferences":{},"object":"608060405234620001725762001a5d803803806200001d8162000177565b928339810190606081830312620001725780516001600160401b03908181116200017257836200004f918401620001c8565b92602083015191821162000172576200007160409162000079938501620001c8565b9201620001b3565b91620000853062000266565b506001600160a01b03928084166200015f575b5060005b8151811015620000e45780620000c285620000ba600194866200023b565b5116620002e6565b50620000dc85620000d483866200023b565b511662000388565b50016200009c565b505060005b81518110156200011757806200010f8462000107600194866200023b565b511662000425565b5001620000e9565b7f11c24f4ead16507c69ac467fbd5e4eed5fb5c699626d2cc6d66421df253886d560406202a30080600255815190600082526020820152a160405161157a9081620004c38239f35b6200016a9062000266565b503862000098565b600080fd5b6040519190601f01601f191682016001600160401b038111838210176200019d57604052565b634e487b7160e01b600052604160045260246000fd5b51906001600160a01b03821682036200017257565b81601f8201121562000172578051916020916001600160401b0384116200019d578360051b908380620001fd81850162000177565b80978152019282010192831162000172578301905b82821062000221575050505090565b8380916200022f84620001b3565b81520191019062000212565b8051821015620002505760209160051b010190565b634e487b7160e01b600052603260045260246000fd5b6001600160a01b031660008181527fad3228b676f7d3cd4284a5443f17f1962b36e491b30a40b2405849e597ba5fb5602052604081205490919060ff16620002e257818052816020526040822081835260205260408220600160ff19825416179055339160008051602062001a3d8339815191528180a4600190565b5090565b6001600160a01b031660008181527f3412d5605ac6cd444957cedb533e5dacad6378b4bc819ebe3652188a665066d560205260408120549091907fb09aa5aeb3702cfd50b6b62bc4532604938f21248a27a1d5ca736082b6819cc19060ff166200038357808352826020526040832082845260205260408320600160ff1982541617905560008051602062001a3d833981519152339380a4600190565b505090565b6001600160a01b031660008181527fc3ad33e20b0c56a223ad5104fff154aa010f8715b9c981fd38fdc60a4d1a52fb60205260408120549091907ffd643c72710c63c0180259aba6b2d05451e3591a24e58b62239378085726f7839060ff166200038357808352826020526040832082845260205260408320600160ff1982541617905560008051602062001a3d833981519152339380a4600190565b6001600160a01b031660008181527fdae2aa361dfd1ca020a396615627d436107c35eff9fe7738a3512819782d706960205260408120549091907fd8aa0f3194971a2a116679f7c2090f6939c8d4e01a2a8d7e41d55e5351469e639060ff166200038357808352826020526040832082845260205260408320600160ff1982541617905560008051602062001a3d833981519152339380a460019056fe60406080815260049081361015610020575b5050361561001e57600080fd5b005b600091823560e01c90816301d5062a14610b3357816301ffc9a714610ac057816307bd026514610a9757838263134008d3146109ed5750816313bc9f20146109cd578163150b7a0214610978578163248a9ca31461094e5781632ab0f5291461092e5781632f2ff15d1461090457816331d50750146108e457816336568abe1461089e578163584b153e1461087557816364d62353146108095781637958004c146107c65781638065657f146107a45781638f2a0bb0146106045781638f61f4f5146105c957816391d14854146105835781639f81aed714610565578163a217fddf1461054a578163b08e51c01461050f578163b1c5f427146104e3578163bc197c811461045d578163c4d252f51461038e578163d45c443514610366578163d547741f14610321578163e38335e5146101e3578163f23a6e611461018b575063f27a0c920361001157346101875781600319360112610187576020906002549051908152f35b5080fd5b8284346101e05760a03660031901126101e0576101a6610c11565b506101af610c2c565b50608435906001600160401b0382116101e057506020926101d291369101610d0f565b505163f23a6e6160e01b8152f35b80fd5b90506101ee36610d86565b9098949591939296976000805160206115258339815191528b528a602052858b208b805260205260ff868c20541615610313575b838314801590610309575b6102db575061024561024c918a868a878b888f61105f565b988961132b565b885b818110610262578961025f8a6113e6565b80f35b80808a7fc2617efa69bab66782fa219543714338489c4e9e178271560a91b82c3f612b588a8a6102d26102ba8f988c6102b3828e6102ad8f60019f6102a8918591610fe4565b61100a565b97610fe4565b359561101e565b906102c782828787611391565b8d5194859485610ea6565b0390a30161024e565b85516001624fcdef60e01b031981529081019283526020830185905260408301849052918291506060010390fd5b508483141561022d565b61031c336112a7565b610222565b9190503461036257806003193601126103625761035e91356103596001610346610c2c565b93838752866020528620015433906112fa565b611484565b5080f35b8280fd5b9050346103625760203660031901126103625760209282913581526001845220549051908152f35b91905034610362576020366003190112610362578135917ffd643c72710c63c0180259aba6b2d05451e3591a24e58b62239378085726f7838085528460205282852033865260205260ff83862054161561044257506103ec83610f2a565b156104265750829082825260016020528120557fbaa1eb22f2a492ba1a5fea61b8df4d27c6c8b5f3971e63bb58fa14ff72eedb708280a280f35b826044925191635ead8eb560e01b835282015260066024820152fd5b604492519163e2517d3f60e01b835233908301526024820152fd5b8284346101e05760a03660031901126101e057610478610c11565b50610481610c2c565b506001600160401b0390604435828111610187576104a29036908601610de7565b50606435828111610187576104ba9036908601610de7565b506084359182116101e057506020926104d591369101610d0f565b505163bc197c8160e01b8152f35b505034610187576020906105086104f936610d86565b9695909594919493929361105f565b9051908152f35b505034610187578160031936011261018757602090517ffd643c72710c63c0180259aba6b2d05451e3591a24e58b62239378085726f7838152f35b50503461018757816003193601126101875751908152602090f35b505034610187578160031936011261018757602090516202a3008152f35b9050346103625781600319360112610362578160209360ff926105a4610c2c565b903582528186528282206001600160a01b039091168252855220549151911615158152f35b505034610187578160031936011261018757602090517fb09aa5aeb3702cfd50b6b62bc4532604938f21248a27a1d5ca736082b6819cc18152f35b919050346103625760c0366003190112610362576001600160401b039082358281116107a0576106379036908501610d56565b9360243584811161079c5761064f9036908301610d56565b94604435908111610798576106679036908401610d56565b606493919335906084359760a4359361067f33611224565b818b1480159061078e575b61076057506106a089848489858f8b908e61105f565b996106ab858c61119d565b8a8c5b8a8382106106f4578e838e83816106c3578380f35b7f20fda5fd27a1ea7bf5b9567f143ac5470bb059374a27e8f67cb44f946f6d03879160209151908152a28180808380f35b6001927f4cf4410cc57040e44862ef0f45f3dd5a5e02db8eb8add648d4b0e236f1d07dca8b8b6107558f8c88978f92898f8f8f6107439161073d6102a886809461074a99610fe4565b9a610fe4565b359861101e565b915196879687610e6e565b0390a3018b906106ae565b88516001624fcdef60e01b031981529081018b81526020810184905260408101929092529081906060010390fd5b50828b141561068a565b8780fd5b8680fd5b8480fd5b505034610187576020906105086107ba36610c6f565b94939093929192610f8f565b838334610187576020366003190112610187576107e38335610f53565b905191838210156107f657602083838152f35b634e487b7160e01b815260218452602490fd5b919050346103625760203660031901126103625781359130330361085f57507f11c24f4ead16507c69ac467fbd5e4eed5fb5c699626d2cc6d66421df253886d5906002548151908152836020820152a160025580f35b602491519063e2850c5960e01b82523390820152fd5b8284346101e05760203660031901126101e0575061089560209235610f2a565b90519015158152f35b8383346101875780600319360112610187576108b8610c2c565b90336001600160a01b038316036108d5575061035e919235611484565b5163334bd91960e11b81528390fd5b8284346101e05760203660031901126101e0575061089560209235610f13565b9190503461036257806003193601126103625761035e91356109296001610346610c2c565b611406565b8284346101e05760203660031901126101e0575061089560209235610efb565b90503461036257602036600319011261036257816020936001923581528085522001549051908152f35b8284346101e05760803660031901126101e057610993610c11565b5061099c610c2c565b50606435906001600160401b0382116101e057506020926109bf91369101610d0f565b5051630a85bd0160e11b8152f35b8284346101e05760203660031901126101e0575061089560209235610ecd565b61025f610a6b82610a817fc2617efa69bab66782fa219543714338489c4e9e178271560a91b82c3f612b58610a6289610a2536610c6f565b6000805160206115258339815191528b9a9697939598929a528a602052828b208b805260205260ff838c20541615610a89575b8985858a8a610f8f565b998a988961132b565b610a7783838888611391565b5194859485610ea6565b0390a36113e6565b610a92336112a7565b610a58565b505034610187578160031936011261018757602090516000805160206115258339815191528152f35b90503461036257602036600319011261036257359063ffffffff60e01b82168092036103625760209250630271189760e51b8214918215610b05575b50519015158152f35b909150637965db0b60e01b8114908115610b22575b509038610afc565b6301ffc9a760e01b14905038610b1a565b919050346103625760c036600319011261036257610b4f610c11565b90836024356044356001600160401b038111610362577f4cf4410cc57040e44862ef0f45f3dd5a5e02db8eb8add648d4b0e236f1d07dca95610b9391369101610c42565b95909160643595610bd46084359760a43590610bae33611224565b610bbc8a828d8a8989610f8f565b9a8b97610bc9848a61119d565b8a5196879687610e6e565b0390a381610be0578380f35b7f20fda5fd27a1ea7bf5b9567f143ac5470bb059374a27e8f67cb44f946f6d03879160209151908152a23880808380f35b600435906001600160a01b0382168203610c2757565b600080fd5b602435906001600160a01b0382168203610c2757565b9181601f84011215610c27578235916001600160401b038311610c275760208381860195010111610c2757565b60a0600319820112610c27576004356001600160a01b0381168103610c27579160243591604435906001600160401b038211610c2757610cb191600401610c42565b90916064359060843590565b90601f801991011681019081106001600160401b03821117610cde57604052565b634e487b7160e01b600052604160045260246000fd5b6001600160401b038111610cde57601f01601f191660200190565b81601f82011215610c2757803590610d2682610cf4565b92610d346040519485610cbd565b82845260208383010111610c2757816000926020809301838601378301015290565b9181601f84011215610c27578235916001600160401b038311610c27576020808501948460051b010111610c2757565b9060a0600319830112610c27576001600160401b03600435818111610c275783610db291600401610d56565b93909392602435838111610c275782610dcd91600401610d56565b93909392604435918211610c2757610cb191600401610d56565b81601f82011215610c27578035916020916001600160401b038411610cde578360051b9060405194610e1b85840187610cbd565b85528380860192820101928311610c27578301905b828210610e3e575050505090565b81358152908301908301610e30565b908060209392818452848401376000828201840152601f01601f1916010190565b929093610e9c926080959897969860018060a01b03168552602085015260a0604085015260a0840191610e4d565b9460608201520152565b610eca949260609260018060a01b0316825260208201528160408201520191610e4d565b90565b610ed690610f53565b6004811015610ee55760021490565b634e487b7160e01b600052602160045260246000fd5b610f0490610f53565b6004811015610ee55760031490565b610f1c90610f53565b6004811015610ee557151590565b610f3390610f53565b6004811015610ee55760018114908115610f4b575090565b600291501490565b60005260016020526040600020548015600014610f705750600090565b60018103610f7e5750600390565b421015610f8a57600190565b600290565b94610fc5610fde94959293604051968795602087019960018060a01b03168a52604087015260a0606087015260c0860191610e4d565b91608084015260a083015203601f198101835282610cbd565b51902090565b9190811015610ff45760051b0190565b634e487b7160e01b600052603260045260246000fd5b356001600160a01b0381168103610c275790565b9190811015610ff45760051b81013590601e1981360301821215610c275701908135916001600160401b038311610c27576020018236038113610c27579190565b969294909695919560405196602091828901998060c08b0160a08d525260e08a01919060005b81811061117557505050601f19898203810160408b0152888252976001600160fb1b038111610c27579089969495939897929160051b80928a830137019380888601878703606089015252604085019460408260051b82010195836000925b84841061110c57505050505050610fde9550608084015260a083015203908101835282610cbd565b9193969850919398999496603f198282030184528935601e1984360301811215610c275783018681019190356001600160401b038111610c27578036038313610c275761115e88928392600195610e4d565b9b0194019401918b98969394919a9997959a6110e4565b90919283359060018060a01b038216809203610c275790815285019285019190600101611085565b906111a782610f13565b611204576002548082106111e657504201908142116111d0576000526001602052604060002055565b634e487b7160e01b600052601160045260246000fd5b6044925060405191635433660960e01b835260048301526024820152fd5b604051635ead8eb560e01b81526004810183905260016024820152604490fd5b6001600160a01b031660008181527f3412d5605ac6cd444957cedb533e5dacad6378b4bc819ebe3652188a665066d560205260409020547fb09aa5aeb3702cfd50b6b62bc4532604938f21248a27a1d5ca736082b6819cc19060ff1615611289575050565b604492506040519163e2517d3f60e01b835260048301526024820152fd5b6001600160a01b031660008181527fdae2aa361dfd1ca020a396615627d436107c35eff9fe7738a3512819782d706960205260409020546000805160206115258339815191529060ff1615611289575050565b80600052600060205260406000209160018060a01b0316918260005260205260ff6040600020541615611289575050565b61133481610ecd565b15611372575080151580611362575b61134a5750565b6024906040519063121534c360e31b82526004820152fd5b5061136c81610efb565b15611343565b60449060405190635ead8eb560e01b8252600482015260046024820152fd5b6113db93600093928493826040519384928337810185815203925af13d156113de573d906113be82610cf4565b916113cc6040519384610cbd565b82523d6000602084013e6114f9565b50565b6060906114f9565b6113ef81610ecd565b156113725760005260016020526001604060002055565b9060009180835282602052604083209160018060a01b03169182845260205260ff6040842054161560001461147f57808352826020526040832082845260205260408320600160ff198254161790557f2f8788117e7eff1d82e926ec794901d17c78024a50270940304540a733656f0d339380a4600190565b505090565b9060009180835282602052604083209160018060a01b03169182845260205260ff60408420541660001461147f5780835282602052604083208284526020526040832060ff1981541690557ff6391f5c32d9c69d2a47ea670b442974b53935d1edc7fd64eb21e047a839171b339380a4600190565b909190611522575080511561151057602081519101fd5b60405163d6bda27560e01b8152600490fd5b56fed8aa0f3194971a2a116679f7c2090f6939c8d4e01a2a8d7e41d55e5351469e63a2646970667358221220f5e913c57e4b6723c6663f6ba1a39c2e3726ab91353afc841c20cbb2d357fe3e64736f6c634300081800332f8788117e7eff1d82e926ec794901d17c78024a50270940304540a733656f0d","opcodes":"PUSH1 0x80 PUSH1 0x40 MSTORE CALLVALUE PUSH3 0x172 JUMPI PUSH3 0x1A5D DUP1 CODESIZE SUB DUP1 PUSH3 0x1D DUP2 PUSH3 0x177 JUMP JUMPDEST SWAP3 DUP4 CODECOPY DUP2 ADD SWAP1 PUSH1 0x60 DUP2 DUP4 SUB SLT PUSH3 0x172 JUMPI DUP1 MLOAD PUSH1 0x1 PUSH1 0x1 PUSH1 0x40 SHL SUB SWAP1 DUP2 DUP2 GT PUSH3 0x172 JUMPI DUP4 PUSH3 0x4F SWAP2 DUP5 ADD PUSH3 0x1C8 JUMP JUMPDEST SWAP3 PUSH1 0x20 DUP4 ADD MLOAD SWAP2 DUP3 GT PUSH3 0x172 JUMPI PUSH3 0x71 PUSH1 0x40 SWAP2 PUSH3 0x79 SWAP4 DUP6 ADD PUSH3 0x1C8 JUMP JUMPDEST SWAP3 ADD PUSH3 0x1B3 JUMP JUMPDEST SWAP2 PUSH3 0x85 ADDRESS PUSH3 0x266 JUMP JUMPDEST POP PUSH1 0x1 PUSH1 0x1 PUSH1 0xA0 SHL SUB SWAP3 DUP1 DUP5 AND PUSH3 0x15F JUMPI JUMPDEST POP PUSH1 0x0 JUMPDEST DUP2 MLOAD DUP2 LT ISZERO PUSH3 0xE4 JUMPI DUP1 PUSH3 0xC2 DUP6 PUSH3 0xBA PUSH1 0x1 SWAP5 DUP7 PUSH3 0x23B JUMP JUMPDEST MLOAD AND PUSH3 0x2E6 JUMP JUMPDEST POP PUSH3 0xDC DUP6 PUSH3 0xD4 DUP4 DUP7 PUSH3 0x23B JUMP JUMPDEST MLOAD AND PUSH3 0x388 JUMP JUMPDEST POP ADD PUSH3 0x9C JUMP JUMPDEST POP POP PUSH1 0x0 JUMPDEST DUP2 MLOAD DUP2 LT ISZERO PUSH3 0x117 JUMPI DUP1 PUSH3 0x10F DUP5 PUSH3 0x107 PUSH1 0x1 SWAP5 DUP7 PUSH3 0x23B JUMP JUMPDEST MLOAD AND PUSH3 0x425 JUMP JUMPDEST POP ADD PUSH3 0xE9 JUMP JUMPDEST PUSH32 0x11C24F4EAD16507C69AC467FBD5E4EED5FB5C699626D2CC6D66421DF253886D5 PUSH1 0x40 PUSH3 0x2A300 DUP1 PUSH1 0x2 SSTORE DUP2 MLOAD SWAP1 PUSH1 0x0 DUP3 MSTORE PUSH1 0x20 DUP3 ADD MSTORE LOG1 PUSH1 0x40 MLOAD PUSH2 0x157A SWAP1 DUP2 PUSH3 0x4C3 DUP3 CODECOPY RETURN JUMPDEST PUSH3 0x16A SWAP1 PUSH3 0x266 JUMP JUMPDEST POP CODESIZE PUSH3 0x98 JUMP JUMPDEST PUSH1 0x0 DUP1 REVERT JUMPDEST PUSH1 0x40 MLOAD SWAP2 SWAP1 PUSH1 0x1F ADD PUSH1 0x1F NOT AND DUP3 ADD PUSH1 0x1 PUSH1 0x1 PUSH1 0x40 SHL SUB DUP2 GT DUP4 DUP3 LT OR PUSH3 0x19D JUMPI PUSH1 0x40 MSTORE JUMP JUMPDEST PUSH4 0x4E487B71 PUSH1 0xE0 SHL PUSH1 0x0 MSTORE PUSH1 0x41 PUSH1 0x4 MSTORE PUSH1 0x24 PUSH1 0x0 REVERT JUMPDEST MLOAD SWAP1 PUSH1 0x1 PUSH1 0x1 PUSH1 0xA0 SHL SUB DUP3 AND DUP3 SUB PUSH3 0x172 JUMPI JUMP JUMPDEST DUP2 PUSH1 0x1F DUP3 ADD SLT ISZERO PUSH3 0x172 JUMPI DUP1 MLOAD SWAP2 PUSH1 0x20 SWAP2 PUSH1 0x1 PUSH1 0x1 PUSH1 0x40 SHL SUB DUP5 GT PUSH3 0x19D JUMPI DUP4 PUSH1 0x5 SHL SWAP1 DUP4 DUP1 PUSH3 0x1FD DUP2 DUP6 ADD PUSH3 0x177 JUMP JUMPDEST DUP1 SWAP8 DUP2 MSTORE ADD SWAP3 DUP3 ADD ADD SWAP3 DUP4 GT PUSH3 0x172 JUMPI DUP4 ADD SWAP1 JUMPDEST DUP3 DUP3 LT PUSH3 0x221 JUMPI POP POP POP POP SWAP1 JUMP JUMPDEST DUP4 DUP1 SWAP2 PUSH3 0x22F DUP5 PUSH3 0x1B3 JUMP JUMPDEST DUP2 MSTORE ADD SWAP2 ADD SWAP1 PUSH3 0x212 JUMP JUMPDEST DUP1 MLOAD DUP3 LT ISZERO PUSH3 0x250 JUMPI PUSH1 0x20 SWAP2 PUSH1 0x5 SHL ADD ADD SWAP1 JUMP JUMPDEST PUSH4 0x4E487B71 PUSH1 0xE0 SHL PUSH1 0x0 MSTORE PUSH1 0x32 PUSH1 0x4 MSTORE PUSH1 0x24 PUSH1 0x0 REVERT JUMPDEST PUSH1 0x1 PUSH1 0x1 PUSH1 0xA0 SHL SUB AND PUSH1 0x0 DUP2 DUP2 MSTORE PUSH32 0xAD3228B676F7D3CD4284A5443F17F1962B36E491B30A40B2405849E597BA5FB5 PUSH1 0x20 MSTORE PUSH1 0x40 DUP2 KECCAK256 SLOAD SWAP1 SWAP2 SWAP1 PUSH1 0xFF AND PUSH3 0x2E2 JUMPI DUP2 DUP1 MSTORE DUP2 PUSH1 0x20 MSTORE PUSH1 0x40 DUP3 KECCAK256 DUP2 DUP4 MSTORE PUSH1 0x20 MSTORE PUSH1 0x40 DUP3 KECCAK256 PUSH1 0x1 PUSH1 0xFF NOT DUP3 SLOAD AND OR SWAP1 SSTORE CALLER SWAP2 PUSH1 0x0 DUP1 MLOAD PUSH1 0x20 PUSH3 0x1A3D DUP4 CODECOPY DUP2 MLOAD SWAP2 MSTORE DUP2 DUP1 LOG4 PUSH1 0x1 SWAP1 JUMP JUMPDEST POP SWAP1 JUMP JUMPDEST PUSH1 0x1 PUSH1 0x1 PUSH1 0xA0 SHL SUB AND PUSH1 0x0 DUP2 DUP2 MSTORE PUSH32 0x3412D5605AC6CD444957CEDB533E5DACAD6378B4BC819EBE3652188A665066D5 PUSH1 0x20 MSTORE PUSH1 0x40 DUP2 KECCAK256 SLOAD SWAP1 SWAP2 SWAP1 PUSH32 0xB09AA5AEB3702CFD50B6B62BC4532604938F21248A27A1D5CA736082B6819CC1 SWAP1 PUSH1 0xFF AND PUSH3 0x383 JUMPI DUP1 DUP4 MSTORE DUP3 PUSH1 0x20 MSTORE PUSH1 0x40 DUP4 KECCAK256 DUP3 DUP5 MSTORE PUSH1 0x20 MSTORE PUSH1 0x40 DUP4 KECCAK256 PUSH1 0x1 PUSH1 0xFF NOT DUP3 SLOAD AND OR SWAP1 SSTORE PUSH1 0x0 DUP1 MLOAD PUSH1 0x20 PUSH3 0x1A3D DUP4 CODECOPY DUP2 MLOAD SWAP2 MSTORE CALLER SWAP4 DUP1 LOG4 PUSH1 0x1 SWAP1 JUMP JUMPDEST POP POP SWAP1 JUMP JUMPDEST PUSH1 0x1 PUSH1 0x1 PUSH1 0xA0 SHL SUB AND PUSH1 0x0 DUP2 DUP2 MSTORE PUSH32 0xC3AD33E20B0C56A223AD5104FFF154AA010F8715B9C981FD38FDC60A4D1A52FB PUSH1 0x20 MSTORE PUSH1 0x40 DUP2 KECCAK256 SLOAD SWAP1 SWAP2 SWAP1 PUSH32 0xFD643C72710C63C0180259ABA6B2D05451E3591A24E58B62239378085726F783 SWAP1 PUSH1 0xFF AND PUSH3 0x383 JUMPI DUP1 DUP4 MSTORE DUP3 PUSH1 0x20 MSTORE PUSH1 0x40 DUP4 KECCAK256 DUP3 DUP5 MSTORE PUSH1 0x20 MSTORE PUSH1 0x40 DUP4 KECCAK256 PUSH1 0x1 PUSH1 0xFF NOT DUP3 SLOAD AND OR SWAP1 SSTORE PUSH1 0x0 DUP1 MLOAD PUSH1 0x20 PUSH3 0x1A3D DUP4 CODECOPY DUP2 MLOAD SWAP2 MSTORE CALLER SWAP4 DUP1 LOG4 PUSH1 0x1 SWAP1 JUMP JUMPDEST PUSH1 0x1 PUSH1 0x1 PUSH1 0xA0 SHL SUB AND PUSH1 0x0 DUP2 DUP2 MSTORE PUSH32 0xDAE2AA361DFD1CA020A396615627D436107C35EFF9FE7738A3512819782D7069 PUSH1 0x20 MSTORE PUSH1 0x40 DUP2 KECCAK256 SLOAD SWAP1 SWAP2 SWAP1 PUSH32 0xD8AA0F3194971A2A116679F7C2090F6939C8D4E01A2A8D7E41D55E5351469E63 SWAP1 PUSH1 0xFF AND PUSH3 0x383 JUMPI DUP1 DUP4 MSTORE DUP3 PUSH1 0x20 MSTORE PUSH1 0x40 DUP4 KECCAK256 DUP3 DUP5 MSTORE PUSH1 0x20 MSTORE PUSH1 0x40 DUP4 KECCAK256 PUSH1 0x1 PUSH1 0xFF NOT DUP3 SLOAD AND OR SWAP1 SSTORE PUSH1 0x0 DUP1 MLOAD PUSH1 0x20 PUSH3 0x1A3D DUP4 CODECOPY DUP2 MLOAD SWAP2 MSTORE CALLER SWAP4 DUP1 LOG4 PUSH1 0x1 SWAP1 JUMP INVALID PUSH1 0x40 PUSH1 0x80 DUP2 MSTORE PUSH1 0x4 SWAP1 DUP2 CALLDATASIZE LT ISZERO PUSH2 0x20 JUMPI JUMPDEST POP POP CALLDATASIZE ISZERO PUSH2 0x1E JUMPI PUSH1 0x0 DUP1 REVERT JUMPDEST STOP JUMPDEST PUSH1 0x0 SWAP2 DUP3 CALLDATALOAD PUSH1 0xE0 SHR SWAP1 DUP2 PUSH4 0x1D5062A EQ PUSH2 0xB33 JUMPI DUP2 PUSH4 0x1FFC9A7 EQ PUSH2 0xAC0 JUMPI DUP2 PUSH4 0x7BD0265 EQ PUSH2 0xA97 JUMPI DUP4 DUP3 PUSH4 0x134008D3 EQ PUSH2 0x9ED JUMPI POP DUP2 PUSH4 0x13BC9F20 EQ PUSH2 0x9CD JUMPI DUP2 PUSH4 0x150B7A02 EQ PUSH2 0x978 JUMPI DUP2 PUSH4 0x248A9CA3 EQ PUSH2 0x94E JUMPI DUP2 PUSH4 0x2AB0F529 EQ PUSH2 0x92E JUMPI DUP2 PUSH4 0x2F2FF15D EQ PUSH2 0x904 JUMPI DUP2 PUSH4 0x31D50750 EQ PUSH2 0x8E4 JUMPI DUP2 PUSH4 0x36568ABE EQ PUSH2 0x89E JUMPI DUP2 PUSH4 0x584B153E EQ PUSH2 0x875 JUMPI DUP2 PUSH4 0x64D62353 EQ PUSH2 0x809 JUMPI DUP2 PUSH4 0x7958004C EQ PUSH2 0x7C6 JUMPI DUP2 PUSH4 0x8065657F EQ PUSH2 0x7A4 JUMPI DUP2 PUSH4 0x8F2A0BB0 EQ PUSH2 0x604 JUMPI DUP2 PUSH4 0x8F61F4F5 EQ PUSH2 0x5C9 JUMPI DUP2 PUSH4 0x91D14854 EQ PUSH2 0x583 JUMPI DUP2 PUSH4 0x9F81AED7 EQ PUSH2 0x565 JUMPI DUP2 PUSH4 0xA217FDDF EQ PUSH2 0x54A JUMPI DUP2 PUSH4 0xB08E51C0 EQ PUSH2 0x50F JUMPI DUP2 PUSH4 0xB1C5F427 EQ PUSH2 0x4E3 JUMPI DUP2 PUSH4 0xBC197C81 EQ PUSH2 0x45D JUMPI DUP2 PUSH4 0xC4D252F5 EQ PUSH2 0x38E JUMPI DUP2 PUSH4 0xD45C4435 EQ PUSH2 0x366 JUMPI DUP2 PUSH4 0xD547741F EQ PUSH2 0x321 JUMPI DUP2 PUSH4 0xE38335E5 EQ PUSH2 0x1E3 JUMPI DUP2 PUSH4 0xF23A6E61 EQ PUSH2 0x18B JUMPI POP PUSH4 0xF27A0C92 SUB PUSH2 0x11 JUMPI CALLVALUE PUSH2 0x187 JUMPI DUP2 PUSH1 0x3 NOT CALLDATASIZE ADD SLT PUSH2 0x187 JUMPI PUSH1 0x20 SWAP1 PUSH1 0x2 SLOAD SWAP1 MLOAD SWAP1 DUP2 MSTORE RETURN JUMPDEST POP DUP1 REVERT JUMPDEST DUP3 DUP5 CALLVALUE PUSH2 0x1E0 JUMPI PUSH1 0xA0 CALLDATASIZE PUSH1 0x3 NOT ADD SLT PUSH2 0x1E0 JUMPI PUSH2 0x1A6 PUSH2 0xC11 JUMP JUMPDEST POP PUSH2 0x1AF PUSH2 0xC2C JUMP JUMPDEST POP PUSH1 0x84 CALLDATALOAD SWAP1 PUSH1 0x1 PUSH1 0x1 PUSH1 0x40 SHL SUB DUP3 GT PUSH2 0x1E0 JUMPI POP PUSH1 0x20 SWAP3 PUSH2 0x1D2 SWAP2 CALLDATASIZE SWAP2 ADD PUSH2 0xD0F JUMP JUMPDEST POP MLOAD PUSH4 0xF23A6E61 PUSH1 0xE0 SHL DUP2 MSTORE RETURN JUMPDEST DUP1 REVERT JUMPDEST SWAP1 POP PUSH2 0x1EE CALLDATASIZE PUSH2 0xD86 JUMP JUMPDEST SWAP1 SWAP9 SWAP5 SWAP6 SWAP2 SWAP4 SWAP3 SWAP7 SWAP8 PUSH1 0x0 DUP1 MLOAD PUSH1 0x20 PUSH2 0x1525 DUP4 CODECOPY DUP2 MLOAD SWAP2 MSTORE DUP12 MSTORE DUP11 PUSH1 0x20 MSTORE DUP6 DUP12 KECCAK256 DUP12 DUP1 MSTORE PUSH1 0x20 MSTORE PUSH1 0xFF DUP7 DUP13 KECCAK256 SLOAD AND ISZERO PUSH2 0x313 JUMPI JUMPDEST DUP4 DUP4 EQ DUP1 ISZERO SWAP1 PUSH2 0x309 JUMPI JUMPDEST PUSH2 0x2DB JUMPI POP PUSH2 0x245 PUSH2 0x24C SWAP2 DUP11 DUP7 DUP11 DUP8 DUP12 DUP9 DUP16 PUSH2 0x105F JUMP JUMPDEST SWAP9 DUP10 PUSH2 0x132B JUMP JUMPDEST DUP9 JUMPDEST DUP2 DUP2 LT PUSH2 0x262 JUMPI DUP10 PUSH2 0x25F DUP11 PUSH2 0x13E6 JUMP JUMPDEST DUP1 RETURN JUMPDEST DUP1 DUP1 DUP11 PUSH32 0xC2617EFA69BAB66782FA219543714338489C4E9E178271560A91B82C3F612B58 DUP11 DUP11 PUSH2 0x2D2 PUSH2 0x2BA DUP16 SWAP9 DUP13 PUSH2 0x2B3 DUP3 DUP15 PUSH2 0x2AD DUP16 PUSH1 0x1 SWAP16 PUSH2 0x2A8 SWAP2 DUP6 SWAP2 PUSH2 0xFE4 JUMP JUMPDEST PUSH2 0x100A JUMP JUMPDEST SWAP8 PUSH2 0xFE4 JUMP JUMPDEST CALLDATALOAD SWAP6 PUSH2 0x101E JUMP JUMPDEST SWAP1 PUSH2 0x2C7 DUP3 DUP3 DUP8 DUP8 PUSH2 0x1391 JUMP JUMPDEST DUP14 MLOAD SWAP5 DUP6 SWAP5 DUP6 PUSH2 0xEA6 JUMP JUMPDEST SUB SWAP1 LOG3 ADD PUSH2 0x24E JUMP JUMPDEST DUP6 MLOAD PUSH1 0x1 PUSH3 0x4FCDEF PUSH1 0xE0 SHL SUB NOT DUP2 MSTORE SWAP1 DUP2 ADD SWAP3 DUP4 MSTORE PUSH1 0x20 DUP4 ADD DUP6 SWAP1 MSTORE PUSH1 0x40 DUP4 ADD DUP5 SWAP1 MSTORE SWAP2 DUP3 SWAP2 POP PUSH1 0x60 ADD SUB SWAP1 REVERT JUMPDEST POP DUP5 DUP4 EQ ISZERO PUSH2 0x22D JUMP JUMPDEST PUSH2 0x31C CALLER PUSH2 0x12A7 JUMP JUMPDEST PUSH2 0x222 JUMP JUMPDEST SWAP2 SWAP1 POP CALLVALUE PUSH2 0x362 JUMPI DUP1 PUSH1 0x3 NOT CALLDATASIZE ADD SLT PUSH2 0x362 JUMPI PUSH2 0x35E SWAP2 CALLDATALOAD PUSH2 0x359 PUSH1 0x1 PUSH2 0x346 PUSH2 0xC2C JUMP JUMPDEST SWAP4 DUP4 DUP8 MSTORE DUP7 PUSH1 0x20 MSTORE DUP7 KECCAK256 ADD SLOAD CALLER SWAP1 PUSH2 0x12FA JUMP JUMPDEST PUSH2 0x1484 JUMP JUMPDEST POP DUP1 RETURN JUMPDEST DUP3 DUP1 REVERT JUMPDEST SWAP1 POP CALLVALUE PUSH2 0x362 JUMPI PUSH1 0x20 CALLDATASIZE PUSH1 0x3 NOT ADD SLT PUSH2 0x362 JUMPI PUSH1 0x20 SWAP3 DUP3 SWAP2 CALLDATALOAD DUP2 MSTORE PUSH1 0x1 DUP5 MSTORE KECCAK256 SLOAD SWAP1 MLOAD SWAP1 DUP2 MSTORE RETURN JUMPDEST SWAP2 SWAP1 POP CALLVALUE PUSH2 0x362 JUMPI PUSH1 0x20 CALLDATASIZE PUSH1 0x3 NOT ADD SLT PUSH2 0x362 JUMPI DUP2 CALLDATALOAD SWAP2 PUSH32 0xFD643C72710C63C0180259ABA6B2D05451E3591A24E58B62239378085726F783 DUP1 DUP6 MSTORE DUP5 PUSH1 0x20 MSTORE DUP3 DUP6 KECCAK256 CALLER DUP7 MSTORE PUSH1 0x20 MSTORE PUSH1 0xFF DUP4 DUP7 KECCAK256 SLOAD AND ISZERO PUSH2 0x442 JUMPI POP PUSH2 0x3EC DUP4 PUSH2 0xF2A JUMP JUMPDEST ISZERO PUSH2 0x426 JUMPI POP DUP3 SWAP1 DUP3 DUP3 MSTORE PUSH1 0x1 PUSH1 0x20 MSTORE DUP2 KECCAK256 SSTORE PUSH32 0xBAA1EB22F2A492BA1A5FEA61B8DF4D27C6C8B5F3971E63BB58FA14FF72EEDB70 DUP3 DUP1 LOG2 DUP1 RETURN JUMPDEST DUP3 PUSH1 0x44 SWAP3 MLOAD SWAP2 PUSH4 0x5EAD8EB5 PUSH1 0xE0 SHL DUP4 MSTORE DUP3 ADD MSTORE PUSH1 0x6 PUSH1 0x24 DUP3 ADD MSTORE REVERT JUMPDEST PUSH1 0x44 SWAP3 MLOAD SWAP2 PUSH4 0xE2517D3F PUSH1 0xE0 SHL DUP4 MSTORE CALLER SWAP1 DUP4 ADD MSTORE PUSH1 0x24 DUP3 ADD MSTORE REVERT JUMPDEST DUP3 DUP5 CALLVALUE PUSH2 0x1E0 JUMPI PUSH1 0xA0 CALLDATASIZE PUSH1 0x3 NOT ADD SLT PUSH2 0x1E0 JUMPI PUSH2 0x478 PUSH2 0xC11 JUMP JUMPDEST POP PUSH2 0x481 PUSH2 0xC2C JUMP JUMPDEST POP PUSH1 0x1 PUSH1 0x1 PUSH1 0x40 SHL SUB SWAP1 PUSH1 0x44 CALLDATALOAD DUP3 DUP2 GT PUSH2 0x187 JUMPI PUSH2 0x4A2 SWAP1 CALLDATASIZE SWAP1 DUP7 ADD PUSH2 0xDE7 JUMP JUMPDEST POP PUSH1 0x64 CALLDATALOAD DUP3 DUP2 GT PUSH2 0x187 JUMPI PUSH2 0x4BA SWAP1 CALLDATASIZE SWAP1 DUP7 ADD PUSH2 0xDE7 JUMP JUMPDEST POP PUSH1 0x84 CALLDATALOAD SWAP2 DUP3 GT PUSH2 0x1E0 JUMPI POP PUSH1 0x20 SWAP3 PUSH2 0x4D5 SWAP2 CALLDATASIZE SWAP2 ADD PUSH2 0xD0F JUMP JUMPDEST POP MLOAD PUSH4 0xBC197C81 PUSH1 0xE0 SHL DUP2 MSTORE RETURN JUMPDEST POP POP CALLVALUE PUSH2 0x187 JUMPI PUSH1 0x20 SWAP1 PUSH2 0x508 PUSH2 0x4F9 CALLDATASIZE PUSH2 0xD86 JUMP JUMPDEST SWAP7 SWAP6 SWAP1 SWAP6 SWAP5 SWAP2 SWAP5 SWAP4 SWAP3 SWAP4 PUSH2 0x105F JUMP JUMPDEST SWAP1 MLOAD SWAP1 DUP2 MSTORE RETURN JUMPDEST POP POP CALLVALUE PUSH2 0x187 JUMPI DUP2 PUSH1 0x3 NOT CALLDATASIZE ADD SLT PUSH2 0x187 JUMPI PUSH1 0x20 SWAP1 MLOAD PUSH32 0xFD643C72710C63C0180259ABA6B2D05451E3591A24E58B62239378085726F783 DUP2 MSTORE RETURN JUMPDEST POP POP CALLVALUE PUSH2 0x187 JUMPI DUP2 PUSH1 0x3 NOT CALLDATASIZE ADD SLT PUSH2 0x187 JUMPI MLOAD SWAP1 DUP2 MSTORE PUSH1 0x20 SWAP1 RETURN JUMPDEST POP POP CALLVALUE PUSH2 0x187 JUMPI DUP2 PUSH1 0x3 NOT CALLDATASIZE ADD SLT PUSH2 0x187 JUMPI PUSH1 0x20 SWAP1 MLOAD PUSH3 0x2A300 DUP2 MSTORE RETURN JUMPDEST SWAP1 POP CALLVALUE PUSH2 0x362 JUMPI DUP2 PUSH1 0x3 NOT CALLDATASIZE ADD SLT PUSH2 0x362 JUMPI DUP2 PUSH1 0x20 SWAP4 PUSH1 0xFF SWAP3 PUSH2 0x5A4 PUSH2 0xC2C JUMP JUMPDEST SWAP1 CALLDATALOAD DUP3 MSTORE DUP2 DUP7 MSTORE DUP3 DUP3 KECCAK256 PUSH1 0x1 PUSH1 0x1 PUSH1 0xA0 SHL SUB SWAP1 SWAP2 AND DUP3 MSTORE DUP6 MSTORE KECCAK256 SLOAD SWAP2 MLOAD SWAP2 AND ISZERO ISZERO DUP2 MSTORE RETURN JUMPDEST POP POP CALLVALUE PUSH2 0x187 JUMPI DUP2 PUSH1 0x3 NOT CALLDATASIZE ADD SLT PUSH2 0x187 JUMPI PUSH1 0x20 SWAP1 MLOAD PUSH32 0xB09AA5AEB3702CFD50B6B62BC4532604938F21248A27A1D5CA736082B6819CC1 DUP2 MSTORE RETURN JUMPDEST SWAP2 SWAP1 POP CALLVALUE PUSH2 0x362 JUMPI PUSH1 0xC0 CALLDATASIZE PUSH1 0x3 NOT ADD SLT PUSH2 0x362 JUMPI PUSH1 0x1 PUSH1 0x1 PUSH1 0x40 SHL SUB SWAP1 DUP3 CALLDATALOAD DUP3 DUP2 GT PUSH2 0x7A0 JUMPI PUSH2 0x637 SWAP1 CALLDATASIZE SWAP1 DUP6 ADD PUSH2 0xD56 JUMP JUMPDEST SWAP4 PUSH1 0x24 CALLDATALOAD DUP5 DUP2 GT PUSH2 0x79C JUMPI PUSH2 0x64F SWAP1 CALLDATASIZE SWAP1 DUP4 ADD PUSH2 0xD56 JUMP JUMPDEST SWAP5 PUSH1 0x44 CALLDATALOAD SWAP1 DUP2 GT PUSH2 0x798 JUMPI PUSH2 0x667 SWAP1 CALLDATASIZE SWAP1 DUP5 ADD PUSH2 0xD56 JUMP JUMPDEST PUSH1 0x64 SWAP4 SWAP2 SWAP4 CALLDATALOAD SWAP1 PUSH1 0x84 CALLDATALOAD SWAP8 PUSH1 0xA4 CALLDATALOAD SWAP4 PUSH2 0x67F CALLER PUSH2 0x1224 JUMP JUMPDEST DUP2 DUP12 EQ DUP1 ISZERO SWAP1 PUSH2 0x78E JUMPI JUMPDEST PUSH2 0x760 JUMPI POP PUSH2 0x6A0 DUP10 DUP5 DUP5 DUP10 DUP6 DUP16 DUP12 SWAP1 DUP15 PUSH2 0x105F JUMP JUMPDEST SWAP10 PUSH2 0x6AB DUP6 DUP13 PUSH2 0x119D JUMP JUMPDEST DUP11 DUP13 JUMPDEST DUP11 DUP4 DUP3 LT PUSH2 0x6F4 JUMPI DUP15 DUP4 DUP15 DUP4 DUP2 PUSH2 0x6C3 JUMPI DUP4 DUP1 RETURN JUMPDEST PUSH32 0x20FDA5FD27A1EA7BF5B9567F143AC5470BB059374A27E8F67CB44F946F6D0387 SWAP2 PUSH1 0x20 SWAP2 MLOAD SWAP1 DUP2 MSTORE LOG2 DUP2 DUP1 DUP1 DUP4 DUP1 RETURN JUMPDEST PUSH1 0x1 SWAP3 PUSH32 0x4CF4410CC57040E44862EF0F45F3DD5A5E02DB8EB8ADD648D4B0E236F1D07DCA DUP12 DUP12 PUSH2 0x755 DUP16 DUP13 DUP9 SWAP8 DUP16 SWAP3 DUP10 DUP16 DUP16 DUP16 PUSH2 0x743 SWAP2 PUSH2 0x73D PUSH2 0x2A8 DUP7 DUP1 SWAP5 PUSH2 0x74A SWAP10 PUSH2 0xFE4 JUMP JUMPDEST SWAP11 PUSH2 0xFE4 JUMP JUMPDEST CALLDATALOAD SWAP9 PUSH2 0x101E JUMP JUMPDEST SWAP2 MLOAD SWAP7 DUP8 SWAP7 DUP8 PUSH2 0xE6E JUMP JUMPDEST SUB SWAP1 LOG3 ADD DUP12 SWAP1 PUSH2 0x6AE JUMP JUMPDEST DUP9 MLOAD PUSH1 0x1 PUSH3 0x4FCDEF PUSH1 0xE0 SHL SUB NOT DUP2 MSTORE SWAP1 DUP2 ADD DUP12 DUP2 MSTORE PUSH1 0x20 DUP2 ADD DUP5 SWAP1 MSTORE PUSH1 0x40 DUP2 ADD SWAP3 SWAP1 SWAP3 MSTORE SWAP1 DUP2 SWAP1 PUSH1 0x60 ADD SUB SWAP1 REVERT JUMPDEST POP DUP3 DUP12 EQ ISZERO PUSH2 0x68A JUMP JUMPDEST DUP8 DUP1 REVERT JUMPDEST DUP7 DUP1 REVERT JUMPDEST DUP5 DUP1 REVERT JUMPDEST POP POP CALLVALUE PUSH2 0x187 JUMPI PUSH1 0x20 SWAP1 PUSH2 0x508 PUSH2 0x7BA CALLDATASIZE PUSH2 0xC6F JUMP JUMPDEST SWAP5 SWAP4 SWAP1 SWAP4 SWAP3 SWAP2 SWAP3 PUSH2 0xF8F JUMP JUMPDEST DUP4 DUP4 CALLVALUE PUSH2 0x187 JUMPI PUSH1 0x20 CALLDATASIZE PUSH1 0x3 NOT ADD SLT PUSH2 0x187 JUMPI PUSH2 0x7E3 DUP4 CALLDATALOAD PUSH2 0xF53 JUMP JUMPDEST SWAP1 MLOAD SWAP2 DUP4 DUP3 LT ISZERO PUSH2 0x7F6 JUMPI PUSH1 0x20 DUP4 DUP4 DUP2 MSTORE RETURN JUMPDEST PUSH4 0x4E487B71 PUSH1 0xE0 SHL DUP2 MSTORE PUSH1 0x21 DUP5 MSTORE PUSH1 0x24 SWAP1 REVERT JUMPDEST SWAP2 SWAP1 POP CALLVALUE PUSH2 0x362 JUMPI PUSH1 0x20 CALLDATASIZE PUSH1 0x3 NOT ADD SLT PUSH2 0x362 JUMPI DUP2 CALLDATALOAD SWAP2 ADDRESS CALLER SUB PUSH2 0x85F JUMPI POP PUSH32 0x11C24F4EAD16507C69AC467FBD5E4EED5FB5C699626D2CC6D66421DF253886D5 SWAP1 PUSH1 0x2 SLOAD DUP2 MLOAD SWAP1 DUP2 MSTORE DUP4 PUSH1 0x20 DUP3 ADD MSTORE LOG1 PUSH1 0x2 SSTORE DUP1 RETURN JUMPDEST PUSH1 0x24 SWAP2 MLOAD SWAP1 PUSH4 0xE2850C59 PUSH1 0xE0 SHL DUP3 MSTORE CALLER SWAP1 DUP3 ADD MSTORE REVERT JUMPDEST DUP3 DUP5 CALLVALUE PUSH2 0x1E0 JUMPI PUSH1 0x20 CALLDATASIZE PUSH1 0x3 NOT ADD SLT PUSH2 0x1E0 JUMPI POP PUSH2 0x895 PUSH1 0x20 SWAP3 CALLDATALOAD PUSH2 0xF2A JUMP JUMPDEST SWAP1 MLOAD SWAP1 ISZERO ISZERO DUP2 MSTORE RETURN JUMPDEST DUP4 DUP4 CALLVALUE PUSH2 0x187 JUMPI DUP1 PUSH1 0x3 NOT CALLDATASIZE ADD SLT PUSH2 0x187 JUMPI PUSH2 0x8B8 PUSH2 0xC2C JUMP JUMPDEST SWAP1 CALLER PUSH1 0x1 PUSH1 0x1 PUSH1 0xA0 SHL SUB DUP4 AND SUB PUSH2 0x8D5 JUMPI POP PUSH2 0x35E SWAP2 SWAP3 CALLDATALOAD PUSH2 0x1484 JUMP JUMPDEST MLOAD PUSH4 0x334BD919 PUSH1 0xE1 SHL DUP2 MSTORE DUP4 SWAP1 REVERT JUMPDEST DUP3 DUP5 CALLVALUE PUSH2 0x1E0 JUMPI PUSH1 0x20 CALLDATASIZE PUSH1 0x3 NOT ADD SLT PUSH2 0x1E0 JUMPI POP PUSH2 0x895 PUSH1 0x20 SWAP3 CALLDATALOAD PUSH2 0xF13 JUMP JUMPDEST SWAP2 SWAP1 POP CALLVALUE PUSH2 0x362 JUMPI DUP1 PUSH1 0x3 NOT CALLDATASIZE ADD SLT PUSH2 0x362 JUMPI PUSH2 0x35E SWAP2 CALLDATALOAD PUSH2 0x929 PUSH1 0x1 PUSH2 0x346 PUSH2 0xC2C JUMP JUMPDEST PUSH2 0x1406 JUMP JUMPDEST DUP3 DUP5 CALLVALUE PUSH2 0x1E0 JUMPI PUSH1 0x20 CALLDATASIZE PUSH1 0x3 NOT ADD SLT PUSH2 0x1E0 JUMPI POP PUSH2 0x895 PUSH1 0x20 SWAP3 CALLDATALOAD PUSH2 0xEFB JUMP JUMPDEST SWAP1 POP CALLVALUE PUSH2 0x362 JUMPI PUSH1 0x20 CALLDATASIZE PUSH1 0x3 NOT ADD SLT PUSH2 0x362 JUMPI DUP2 PUSH1 0x20 SWAP4 PUSH1 0x1 SWAP3 CALLDATALOAD DUP2 MSTORE DUP1 DUP6 MSTORE KECCAK256 ADD SLOAD SWAP1 MLOAD SWAP1 DUP2 MSTORE RETURN JUMPDEST DUP3 DUP5 CALLVALUE PUSH2 0x1E0 JUMPI PUSH1 0x80 CALLDATASIZE PUSH1 0x3 NOT ADD SLT PUSH2 0x1E0 JUMPI PUSH2 0x993 PUSH2 0xC11 JUMP JUMPDEST POP PUSH2 0x99C PUSH2 0xC2C JUMP JUMPDEST POP PUSH1 0x64 CALLDATALOAD SWAP1 PUSH1 0x1 PUSH1 0x1 PUSH1 0x40 SHL SUB DUP3 GT PUSH2 0x1E0 JUMPI POP PUSH1 0x20 SWAP3 PUSH2 0x9BF SWAP2 CALLDATASIZE SWAP2 ADD PUSH2 0xD0F JUMP JUMPDEST POP MLOAD PUSH4 0xA85BD01 PUSH1 0xE1 SHL DUP2 MSTORE RETURN JUMPDEST DUP3 DUP5 CALLVALUE PUSH2 0x1E0 JUMPI PUSH1 0x20 CALLDATASIZE PUSH1 0x3 NOT ADD SLT PUSH2 0x1E0 JUMPI POP PUSH2 0x895 PUSH1 0x20 SWAP3 CALLDATALOAD PUSH2 0xECD JUMP JUMPDEST PUSH2 0x25F PUSH2 0xA6B DUP3 PUSH2 0xA81 PUSH32 0xC2617EFA69BAB66782FA219543714338489C4E9E178271560A91B82C3F612B58 PUSH2 0xA62 DUP10 PUSH2 0xA25 CALLDATASIZE PUSH2 0xC6F JUMP JUMPDEST PUSH1 0x0 DUP1 MLOAD PUSH1 0x20 PUSH2 0x1525 DUP4 CODECOPY DUP2 MLOAD SWAP2 MSTORE DUP12 SWAP11 SWAP7 SWAP8 SWAP4 SWAP6 SWAP9 SWAP3 SWAP11 MSTORE DUP11 PUSH1 0x20 MSTORE DUP3 DUP12 KECCAK256 DUP12 DUP1 MSTORE PUSH1 0x20 MSTORE PUSH1 0xFF DUP4 DUP13 KECCAK256 SLOAD AND ISZERO PUSH2 0xA89 JUMPI JUMPDEST DUP10 DUP6 DUP6 DUP11 DUP11 PUSH2 0xF8F JUMP JUMPDEST SWAP10 DUP11 SWAP9 DUP10 PUSH2 0x132B JUMP JUMPDEST PUSH2 0xA77 DUP4 DUP4 DUP9 DUP9 PUSH2 0x1391 JUMP JUMPDEST MLOAD SWAP5 DUP6 SWAP5 DUP6 PUSH2 0xEA6 JUMP JUMPDEST SUB SWAP1 LOG3 PUSH2 0x13E6 JUMP JUMPDEST PUSH2 0xA92 CALLER PUSH2 0x12A7 JUMP JUMPDEST PUSH2 0xA58 JUMP JUMPDEST POP POP CALLVALUE PUSH2 0x187 JUMPI DUP2 PUSH1 0x3 NOT CALLDATASIZE ADD SLT PUSH2 0x187 JUMPI PUSH1 0x20 SWAP1 MLOAD PUSH1 0x0 DUP1 MLOAD PUSH1 0x20 PUSH2 0x1525 DUP4 CODECOPY DUP2 MLOAD SWAP2 MSTORE DUP2 MSTORE RETURN JUMPDEST SWAP1 POP CALLVALUE PUSH2 0x362 JUMPI PUSH1 0x20 CALLDATASIZE PUSH1 0x3 NOT ADD SLT PUSH2 0x362 JUMPI CALLDATALOAD SWAP1 PUSH4 0xFFFFFFFF PUSH1 0xE0 SHL DUP3 AND DUP1 SWAP3 SUB PUSH2 0x362 JUMPI PUSH1 0x20 SWAP3 POP PUSH4 0x2711897 PUSH1 0xE5 SHL DUP3 EQ SWAP2 DUP3 ISZERO PUSH2 0xB05 JUMPI JUMPDEST POP MLOAD SWAP1 ISZERO ISZERO DUP2 MSTORE RETURN JUMPDEST SWAP1 SWAP2 POP PUSH4 0x7965DB0B PUSH1 0xE0 SHL DUP2 EQ SWAP1 DUP2 ISZERO PUSH2 0xB22 JUMPI JUMPDEST POP SWAP1 CODESIZE PUSH2 0xAFC JUMP JUMPDEST PUSH4 0x1FFC9A7 PUSH1 0xE0 SHL EQ SWAP1 POP CODESIZE PUSH2 0xB1A JUMP JUMPDEST SWAP2 SWAP1 POP CALLVALUE PUSH2 0x362 JUMPI PUSH1 0xC0 CALLDATASIZE PUSH1 0x3 NOT ADD SLT PUSH2 0x362 JUMPI PUSH2 0xB4F PUSH2 0xC11 JUMP JUMPDEST SWAP1 DUP4 PUSH1 0x24 CALLDATALOAD PUSH1 0x44 CALLDATALOAD PUSH1 0x1 PUSH1 0x1 PUSH1 0x40 SHL SUB DUP2 GT PUSH2 0x362 JUMPI PUSH32 0x4CF4410CC57040E44862EF0F45F3DD5A5E02DB8EB8ADD648D4B0E236F1D07DCA SWAP6 PUSH2 0xB93 SWAP2 CALLDATASIZE SWAP2 ADD PUSH2 0xC42 JUMP JUMPDEST SWAP6 SWAP1 SWAP2 PUSH1 0x64 CALLDATALOAD SWAP6 PUSH2 0xBD4 PUSH1 0x84 CALLDATALOAD SWAP8 PUSH1 0xA4 CALLDATALOAD SWAP1 PUSH2 0xBAE CALLER PUSH2 0x1224 JUMP JUMPDEST PUSH2 0xBBC DUP11 DUP3 DUP14 DUP11 DUP10 DUP10 PUSH2 0xF8F JUMP JUMPDEST SWAP11 DUP12 SWAP8 PUSH2 0xBC9 DUP5 DUP11 PUSH2 0x119D JUMP JUMPDEST DUP11 MLOAD SWAP7 DUP8 SWAP7 DUP8 PUSH2 0xE6E JUMP JUMPDEST SUB SWAP1 LOG3 DUP2 PUSH2 0xBE0 JUMPI DUP4 DUP1 RETURN JUMPDEST PUSH32 0x20FDA5FD27A1EA7BF5B9567F143AC5470BB059374A27E8F67CB44F946F6D0387 SWAP2 PUSH1 0x20 SWAP2 MLOAD SWAP1 DUP2 MSTORE LOG2 CODESIZE DUP1 DUP1 DUP4 DUP1 RETURN JUMPDEST PUSH1 0x4 CALLDATALOAD SWAP1 PUSH1 0x1 PUSH1 0x1 PUSH1 0xA0 SHL SUB DUP3 AND DUP3 SUB PUSH2 0xC27 JUMPI JUMP JUMPDEST PUSH1 0x0 DUP1 REVERT JUMPDEST PUSH1 0x24 CALLDATALOAD SWAP1 PUSH1 0x1 PUSH1 0x1 PUSH1 0xA0 SHL SUB DUP3 AND DUP3 SUB PUSH2 0xC27 JUMPI JUMP JUMPDEST SWAP2 DUP2 PUSH1 0x1F DUP5 ADD SLT ISZERO PUSH2 0xC27 JUMPI DUP3 CALLDATALOAD SWAP2 PUSH1 0x1 PUSH1 0x1 PUSH1 0x40 SHL SUB DUP4 GT PUSH2 0xC27 JUMPI PUSH1 0x20 DUP4 DUP2 DUP7 ADD SWAP6 ADD ADD GT PUSH2 0xC27 JUMPI JUMP JUMPDEST PUSH1 0xA0 PUSH1 0x3 NOT DUP3 ADD SLT PUSH2 0xC27 JUMPI PUSH1 0x4 CALLDATALOAD PUSH1 0x1 PUSH1 0x1 PUSH1 0xA0 SHL SUB DUP2 AND DUP2 SUB PUSH2 0xC27 JUMPI SWAP2 PUSH1 0x24 CALLDATALOAD SWAP2 PUSH1 0x44 CALLDATALOAD SWAP1 PUSH1 0x1 PUSH1 0x1 PUSH1 0x40 SHL SUB DUP3 GT PUSH2 0xC27 JUMPI PUSH2 0xCB1 SWAP2 PUSH1 0x4 ADD PUSH2 0xC42 JUMP JUMPDEST SWAP1 SWAP2 PUSH1 0x64 CALLDATALOAD SWAP1 PUSH1 0x84 CALLDATALOAD SWAP1 JUMP JUMPDEST SWAP1 PUSH1 0x1F DUP1 NOT SWAP2 ADD AND DUP2 ADD SWAP1 DUP2 LT PUSH1 0x1 PUSH1 0x1 PUSH1 0x40 SHL SUB DUP3 GT OR PUSH2 0xCDE JUMPI PUSH1 0x40 MSTORE JUMP JUMPDEST PUSH4 0x4E487B71 PUSH1 0xE0 SHL PUSH1 0x0 MSTORE PUSH1 0x41 PUSH1 0x4 MSTORE PUSH1 0x24 PUSH1 0x0 REVERT JUMPDEST PUSH1 0x1 PUSH1 0x1 PUSH1 0x40 SHL SUB DUP2 GT PUSH2 0xCDE JUMPI PUSH1 0x1F ADD PUSH1 0x1F NOT AND PUSH1 0x20 ADD SWAP1 JUMP JUMPDEST DUP2 PUSH1 0x1F DUP3 ADD SLT ISZERO PUSH2 0xC27 JUMPI DUP1 CALLDATALOAD SWAP1 PUSH2 0xD26 DUP3 PUSH2 0xCF4 JUMP JUMPDEST SWAP3 PUSH2 0xD34 PUSH1 0x40 MLOAD SWAP5 DUP6 PUSH2 0xCBD JUMP JUMPDEST DUP3 DUP5 MSTORE PUSH1 0x20 DUP4 DUP4 ADD ADD GT PUSH2 0xC27 JUMPI DUP2 PUSH1 0x0 SWAP3 PUSH1 0x20 DUP1 SWAP4 ADD DUP4 DUP7 ADD CALLDATACOPY DUP4 ADD ADD MSTORE SWAP1 JUMP JUMPDEST SWAP2 DUP2 PUSH1 0x1F DUP5 ADD SLT ISZERO PUSH2 0xC27 JUMPI DUP3 CALLDATALOAD SWAP2 PUSH1 0x1 PUSH1 0x1 PUSH1 0x40 SHL SUB DUP4 GT PUSH2 0xC27 JUMPI PUSH1 0x20 DUP1 DUP6 ADD SWAP5 DUP5 PUSH1 0x5 SHL ADD ADD GT PUSH2 0xC27 JUMPI JUMP JUMPDEST SWAP1 PUSH1 0xA0 PUSH1 0x3 NOT DUP4 ADD SLT PUSH2 0xC27 JUMPI PUSH1 0x1 PUSH1 0x1 PUSH1 0x40 SHL SUB PUSH1 0x4 CALLDATALOAD DUP2 DUP2 GT PUSH2 0xC27 JUMPI DUP4 PUSH2 0xDB2 SWAP2 PUSH1 0x4 ADD PUSH2 0xD56 JUMP JUMPDEST SWAP4 SWAP1 SWAP4 SWAP3 PUSH1 0x24 CALLDATALOAD DUP4 DUP2 GT PUSH2 0xC27 JUMPI DUP3 PUSH2 0xDCD SWAP2 PUSH1 0x4 ADD PUSH2 0xD56 JUMP JUMPDEST SWAP4 SWAP1 SWAP4 SWAP3 PUSH1 0x44 CALLDATALOAD SWAP2 DUP3 GT PUSH2 0xC27 JUMPI PUSH2 0xCB1 SWAP2 PUSH1 0x4 ADD PUSH2 0xD56 JUMP JUMPDEST DUP2 PUSH1 0x1F DUP3 ADD SLT ISZERO PUSH2 0xC27 JUMPI DUP1 CALLDATALOAD SWAP2 PUSH1 0x20 SWAP2 PUSH1 0x1 PUSH1 0x1 PUSH1 0x40 SHL SUB DUP5 GT PUSH2 0xCDE JUMPI DUP4 PUSH1 0x5 SHL SWAP1 PUSH1 0x40 MLOAD SWAP5 PUSH2 0xE1B DUP6 DUP5 ADD DUP8 PUSH2 0xCBD JUMP JUMPDEST DUP6 MSTORE DUP4 DUP1 DUP7 ADD SWAP3 DUP3 ADD ADD SWAP3 DUP4 GT PUSH2 0xC27 JUMPI DUP4 ADD SWAP1 JUMPDEST DUP3 DUP3 LT PUSH2 0xE3E JUMPI POP POP POP POP SWAP1 JUMP JUMPDEST DUP2 CALLDATALOAD DUP2 MSTORE SWAP1 DUP4 ADD SWAP1 DUP4 ADD PUSH2 0xE30 JUMP JUMPDEST SWAP1 DUP1 PUSH1 0x20 SWAP4 SWAP3 DUP2 DUP5 MSTORE DUP5 DUP5 ADD CALLDATACOPY PUSH1 0x0 DUP3 DUP3 ADD DUP5 ADD MSTORE PUSH1 0x1F ADD PUSH1 0x1F NOT AND ADD ADD SWAP1 JUMP JUMPDEST SWAP3 SWAP1 SWAP4 PUSH2 0xE9C SWAP3 PUSH1 0x80 SWAP6 SWAP9 SWAP8 SWAP7 SWAP9 PUSH1 0x1 DUP1 PUSH1 0xA0 SHL SUB AND DUP6 MSTORE PUSH1 0x20 DUP6 ADD MSTORE PUSH1 0xA0 PUSH1 0x40 DUP6 ADD MSTORE PUSH1 0xA0 DUP5 ADD SWAP2 PUSH2 0xE4D JUMP JUMPDEST SWAP5 PUSH1 0x60 DUP3 ADD MSTORE ADD MSTORE JUMP JUMPDEST PUSH2 0xECA SWAP5 SWAP3 PUSH1 0x60 SWAP3 PUSH1 0x1 DUP1 PUSH1 0xA0 SHL SUB AND DUP3 MSTORE PUSH1 0x20 DUP3 ADD MSTORE DUP2 PUSH1 0x40 DUP3 ADD MSTORE ADD SWAP2 PUSH2 0xE4D JUMP JUMPDEST SWAP1 JUMP JUMPDEST PUSH2 0xED6 SWAP1 PUSH2 0xF53 JUMP JUMPDEST PUSH1 0x4 DUP2 LT ISZERO PUSH2 0xEE5 JUMPI PUSH1 0x2 EQ SWAP1 JUMP JUMPDEST PUSH4 0x4E487B71 PUSH1 0xE0 SHL PUSH1 0x0 MSTORE PUSH1 0x21 PUSH1 0x4 MSTORE PUSH1 0x24 PUSH1 0x0 REVERT JUMPDEST PUSH2 0xF04 SWAP1 PUSH2 0xF53 JUMP JUMPDEST PUSH1 0x4 DUP2 LT ISZERO PUSH2 0xEE5 JUMPI PUSH1 0x3 EQ SWAP1 JUMP JUMPDEST PUSH2 0xF1C SWAP1 PUSH2 0xF53 JUMP JUMPDEST PUSH1 0x4 DUP2 LT ISZERO PUSH2 0xEE5 JUMPI ISZERO ISZERO SWAP1 JUMP JUMPDEST PUSH2 0xF33 SWAP1 PUSH2 0xF53 JUMP JUMPDEST PUSH1 0x4 DUP2 LT ISZERO PUSH2 0xEE5 JUMPI PUSH1 0x1 DUP2 EQ SWAP1 DUP2 ISZERO PUSH2 0xF4B JUMPI POP SWAP1 JUMP JUMPDEST PUSH1 0x2 SWAP2 POP EQ SWAP1 JUMP JUMPDEST PUSH1 0x0 MSTORE PUSH1 0x1 PUSH1 0x20 MSTORE PUSH1 0x40 PUSH1 0x0 KECCAK256 SLOAD DUP1 ISZERO PUSH1 0x0 EQ PUSH2 0xF70 JUMPI POP PUSH1 0x0 SWAP1 JUMP JUMPDEST PUSH1 0x1 DUP2 SUB PUSH2 0xF7E JUMPI POP PUSH1 0x3 SWAP1 JUMP JUMPDEST TIMESTAMP LT ISZERO PUSH2 0xF8A JUMPI PUSH1 0x1 SWAP1 JUMP JUMPDEST PUSH1 0x2 SWAP1 JUMP JUMPDEST SWAP5 PUSH2 0xFC5 PUSH2 0xFDE SWAP5 SWAP6 SWAP3 SWAP4 PUSH1 0x40 MLOAD SWAP7 DUP8 SWAP6 PUSH1 0x20 DUP8 ADD SWAP10 PUSH1 0x1 DUP1 PUSH1 0xA0 SHL SUB AND DUP11 MSTORE PUSH1 0x40 DUP8 ADD MSTORE PUSH1 0xA0 PUSH1 0x60 DUP8 ADD MSTORE PUSH1 0xC0 DUP7 ADD SWAP2 PUSH2 0xE4D JUMP JUMPDEST SWAP2 PUSH1 0x80 DUP5 ADD MSTORE PUSH1 0xA0 DUP4 ADD MSTORE SUB PUSH1 0x1F NOT DUP2 ADD DUP4 MSTORE DUP3 PUSH2 0xCBD JUMP JUMPDEST MLOAD SWAP1 KECCAK256 SWAP1 JUMP JUMPDEST SWAP2 SWAP1 DUP2 LT ISZERO PUSH2 0xFF4 JUMPI PUSH1 0x5 SHL ADD SWAP1 JUMP JUMPDEST PUSH4 0x4E487B71 PUSH1 0xE0 SHL PUSH1 0x0 MSTORE PUSH1 0x32 PUSH1 0x4 MSTORE PUSH1 0x24 PUSH1 0x0 REVERT JUMPDEST CALLDATALOAD PUSH1 0x1 PUSH1 0x1 PUSH1 0xA0 SHL SUB DUP2 AND DUP2 SUB PUSH2 0xC27 JUMPI SWAP1 JUMP JUMPDEST SWAP2 SWAP1 DUP2 LT ISZERO PUSH2 0xFF4 JUMPI PUSH1 0x5 SHL DUP2 ADD CALLDATALOAD SWAP1 PUSH1 0x1E NOT DUP2 CALLDATASIZE SUB ADD DUP3 SLT ISZERO PUSH2 0xC27 JUMPI ADD SWAP1 DUP2 CALLDATALOAD SWAP2 PUSH1 0x1 PUSH1 0x1 PUSH1 0x40 SHL SUB DUP4 GT PUSH2 0xC27 JUMPI PUSH1 0x20 ADD DUP3 CALLDATASIZE SUB DUP2 SGT PUSH2 0xC27 JUMPI SWAP2 SWAP1 JUMP JUMPDEST SWAP7 SWAP3 SWAP5 SWAP1 SWAP7 SWAP6 SWAP2 SWAP6 PUSH1 0x40 MLOAD SWAP7 PUSH1 0x20 SWAP2 DUP3 DUP10 ADD SWAP10 DUP1 PUSH1 0xC0 DUP12 ADD PUSH1 0xA0 DUP14 MSTORE MSTORE PUSH1 0xE0 DUP11 ADD SWAP2 SWAP1 PUSH1 0x0 JUMPDEST DUP2 DUP2 LT PUSH2 0x1175 JUMPI POP POP POP PUSH1 0x1F NOT DUP10 DUP3 SUB DUP2 ADD PUSH1 0x40 DUP12 ADD MSTORE DUP9 DUP3 MSTORE SWAP8 PUSH1 0x1 PUSH1 0x1 PUSH1 0xFB SHL SUB DUP2 GT PUSH2 0xC27 JUMPI SWAP1 DUP10 SWAP7 SWAP5 SWAP6 SWAP4 SWAP9 SWAP8 SWAP3 SWAP2 PUSH1 0x5 SHL DUP1 SWAP3 DUP11 DUP4 ADD CALLDATACOPY ADD SWAP4 DUP1 DUP9 DUP7 ADD DUP8 DUP8 SUB PUSH1 0x60 DUP10 ADD MSTORE MSTORE PUSH1 0x40 DUP6 ADD SWAP5 PUSH1 0x40 DUP3 PUSH1 0x5 SHL DUP3 ADD ADD SWAP6 DUP4 PUSH1 0x0 SWAP3 JUMPDEST DUP5 DUP5 LT PUSH2 0x110C JUMPI POP POP POP POP POP POP PUSH2 0xFDE SWAP6 POP PUSH1 0x80 DUP5 ADD MSTORE PUSH1 0xA0 DUP4 ADD MSTORE SUB SWAP1 DUP2 ADD DUP4 MSTORE DUP3 PUSH2 0xCBD JUMP JUMPDEST SWAP2 SWAP4 SWAP7 SWAP9 POP SWAP2 SWAP4 SWAP9 SWAP10 SWAP5 SWAP7 PUSH1 0x3F NOT DUP3 DUP3 SUB ADD DUP5 MSTORE DUP10 CALLDATALOAD PUSH1 0x1E NOT DUP5 CALLDATASIZE SUB ADD DUP2 SLT ISZERO PUSH2 0xC27 JUMPI DUP4 ADD DUP7 DUP2 ADD SWAP2 SWAP1 CALLDATALOAD PUSH1 0x1 PUSH1 0x1 PUSH1 0x40 SHL SUB DUP2 GT PUSH2 0xC27 JUMPI DUP1 CALLDATASIZE SUB DUP4 SGT PUSH2 0xC27 JUMPI PUSH2 0x115E DUP9 SWAP3 DUP4 SWAP3 PUSH1 0x1 SWAP6 PUSH2 0xE4D JUMP JUMPDEST SWAP12 ADD SWAP5 ADD SWAP5 ADD SWAP2 DUP12 SWAP9 SWAP7 SWAP4 SWAP5 SWAP2 SWAP11 SWAP10 SWAP8 SWAP6 SWAP11 PUSH2 0x10E4 JUMP JUMPDEST SWAP1 SWAP2 SWAP3 DUP4 CALLDATALOAD SWAP1 PUSH1 0x1 DUP1 PUSH1 0xA0 SHL SUB DUP3 AND DUP1 SWAP3 SUB PUSH2 0xC27 JUMPI SWAP1 DUP2 MSTORE DUP6 ADD SWAP3 DUP6 ADD SWAP2 SWAP1 PUSH1 0x1 ADD PUSH2 0x1085 JUMP JUMPDEST SWAP1 PUSH2 0x11A7 DUP3 PUSH2 0xF13 JUMP JUMPDEST PUSH2 0x1204 JUMPI PUSH1 0x2 SLOAD DUP1 DUP3 LT PUSH2 0x11E6 JUMPI POP TIMESTAMP ADD SWAP1 DUP2 TIMESTAMP GT PUSH2 0x11D0 JUMPI PUSH1 0x0 MSTORE PUSH1 0x1 PUSH1 0x20 MSTORE PUSH1 0x40 PUSH1 0x0 KECCAK256 SSTORE JUMP JUMPDEST PUSH4 0x4E487B71 PUSH1 0xE0 SHL PUSH1 0x0 MSTORE PUSH1 0x11 PUSH1 0x4 MSTORE PUSH1 0x24 PUSH1 0x0 REVERT JUMPDEST PUSH1 0x44 SWAP3 POP PUSH1 0x40 MLOAD SWAP2 PUSH4 0x54336609 PUSH1 0xE0 SHL DUP4 MSTORE PUSH1 0x4 DUP4 ADD MSTORE PUSH1 0x24 DUP3 ADD MSTORE REVERT JUMPDEST PUSH1 0x40 MLOAD PUSH4 0x5EAD8EB5 PUSH1 0xE0 SHL DUP2 MSTORE PUSH1 0x4 DUP2 ADD DUP4 SWAP1 MSTORE PUSH1 0x1 PUSH1 0x24 DUP3 ADD MSTORE PUSH1 0x44 SWAP1 REVERT JUMPDEST PUSH1 0x1 PUSH1 0x1 PUSH1 0xA0 SHL SUB AND PUSH1 0x0 DUP2 DUP2 MSTORE PUSH32 0x3412D5605AC6CD444957CEDB533E5DACAD6378B4BC819EBE3652188A665066D5 PUSH1 0x20 MSTORE PUSH1 0x40 SWAP1 KECCAK256 SLOAD PUSH32 0xB09AA5AEB3702CFD50B6B62BC4532604938F21248A27A1D5CA736082B6819CC1 SWAP1 PUSH1 0xFF AND ISZERO PUSH2 0x1289 JUMPI POP POP JUMP JUMPDEST PUSH1 0x44 SWAP3 POP PUSH1 0x40 MLOAD SWAP2 PUSH4 0xE2517D3F PUSH1 0xE0 SHL DUP4 MSTORE PUSH1 0x4 DUP4 ADD MSTORE PUSH1 0x24 DUP3 ADD MSTORE REVERT JUMPDEST PUSH1 0x1 PUSH1 0x1 PUSH1 0xA0 SHL SUB AND PUSH1 0x0 DUP2 DUP2 MSTORE PUSH32 0xDAE2AA361DFD1CA020A396615627D436107C35EFF9FE7738A3512819782D7069 PUSH1 0x20 MSTORE PUSH1 0x40 SWAP1 KECCAK256 SLOAD PUSH1 0x0 DUP1 MLOAD PUSH1 0x20 PUSH2 0x1525 DUP4 CODECOPY DUP2 MLOAD SWAP2 MSTORE SWAP1 PUSH1 0xFF AND ISZERO PUSH2 0x1289 JUMPI POP POP JUMP JUMPDEST DUP1 PUSH1 0x0 MSTORE PUSH1 0x0 PUSH1 0x20 MSTORE PUSH1 0x40 PUSH1 0x0 KECCAK256 SWAP2 PUSH1 0x1 DUP1 PUSH1 0xA0 SHL SUB AND SWAP2 DUP3 PUSH1 0x0 MSTORE PUSH1 0x20 MSTORE PUSH1 0xFF PUSH1 0x40 PUSH1 0x0 KECCAK256 SLOAD AND ISZERO PUSH2 0x1289 JUMPI POP POP JUMP JUMPDEST PUSH2 0x1334 DUP2 PUSH2 0xECD JUMP JUMPDEST ISZERO PUSH2 0x1372 JUMPI POP DUP1 ISZERO ISZERO DUP1 PUSH2 0x1362 JUMPI JUMPDEST PUSH2 0x134A JUMPI POP JUMP JUMPDEST PUSH1 0x24 SWAP1 PUSH1 0x40 MLOAD SWAP1 PUSH4 0x121534C3 PUSH1 0xE3 SHL DUP3 MSTORE PUSH1 0x4 DUP3 ADD MSTORE REVERT JUMPDEST POP PUSH2 0x136C DUP2 PUSH2 0xEFB JUMP JUMPDEST ISZERO PUSH2 0x1343 JUMP JUMPDEST PUSH1 0x44 SWAP1 PUSH1 0x40 MLOAD SWAP1 PUSH4 0x5EAD8EB5 PUSH1 0xE0 SHL DUP3 MSTORE PUSH1 0x4 DUP3 ADD MSTORE PUSH1 0x4 PUSH1 0x24 DUP3 ADD MSTORE REVERT JUMPDEST PUSH2 0x13DB SWAP4 PUSH1 0x0 SWAP4 SWAP3 DUP5 SWAP4 DUP3 PUSH1 0x40 MLOAD SWAP4 DUP5 SWAP3 DUP4 CALLDATACOPY DUP2 ADD DUP6 DUP2 MSTORE SUB SWAP3 GAS CALL RETURNDATASIZE ISZERO PUSH2 0x13DE JUMPI RETURNDATASIZE SWAP1 PUSH2 0x13BE DUP3 PUSH2 0xCF4 JUMP JUMPDEST SWAP2 PUSH2 0x13CC PUSH1 0x40 MLOAD SWAP4 DUP5 PUSH2 0xCBD JUMP JUMPDEST DUP3 MSTORE RETURNDATASIZE PUSH1 0x0 PUSH1 0x20 DUP5 ADD RETURNDATACOPY PUSH2 0x14F9 JUMP JUMPDEST POP JUMP JUMPDEST PUSH1 0x60 SWAP1 PUSH2 0x14F9 JUMP JUMPDEST PUSH2 0x13EF DUP2 PUSH2 0xECD JUMP JUMPDEST ISZERO PUSH2 0x1372 JUMPI PUSH1 0x0 MSTORE PUSH1 0x1 PUSH1 0x20 MSTORE PUSH1 0x1 PUSH1 0x40 PUSH1 0x0 KECCAK256 SSTORE JUMP JUMPDEST SWAP1 PUSH1 0x0 SWAP2 DUP1 DUP4 MSTORE DUP3 PUSH1 0x20 MSTORE PUSH1 0x40 DUP4 KECCAK256 SWAP2 PUSH1 0x1 DUP1 PUSH1 0xA0 SHL SUB AND SWAP2 DUP3 DUP5 MSTORE PUSH1 0x20 MSTORE PUSH1 0xFF PUSH1 0x40 DUP5 KECCAK256 SLOAD AND ISZERO PUSH1 0x0 EQ PUSH2 0x147F JUMPI DUP1 DUP4 MSTORE DUP3 PUSH1 0x20 MSTORE PUSH1 0x40 DUP4 KECCAK256 DUP3 DUP5 MSTORE PUSH1 0x20 MSTORE PUSH1 0x40 DUP4 KECCAK256 PUSH1 0x1 PUSH1 0xFF NOT DUP3 SLOAD AND OR SWAP1 SSTORE PUSH32 0x2F8788117E7EFF1D82E926EC794901D17C78024A50270940304540A733656F0D CALLER SWAP4 DUP1 LOG4 PUSH1 0x1 SWAP1 JUMP JUMPDEST POP POP SWAP1 JUMP JUMPDEST SWAP1 PUSH1 0x0 SWAP2 DUP1 DUP4 MSTORE DUP3 PUSH1 0x20 MSTORE PUSH1 0x40 DUP4 KECCAK256 SWAP2 PUSH1 0x1 DUP1 PUSH1 0xA0 SHL SUB AND SWAP2 DUP3 DUP5 MSTORE PUSH1 0x20 MSTORE PUSH1 0xFF PUSH1 0x40 DUP5 KECCAK256 SLOAD AND PUSH1 0x0 EQ PUSH2 0x147F JUMPI DUP1 DUP4 MSTORE DUP3 PUSH1 0x20 MSTORE PUSH1 0x40 DUP4 KECCAK256 DUP3 DUP5 MSTORE PUSH1 0x20 MSTORE PUSH1 0x40 DUP4 KECCAK256 PUSH1 0xFF NOT DUP2 SLOAD AND SWAP1 SSTORE PUSH32 0xF6391F5C32D9C69D2A47EA670B442974B53935D1EDC7FD64EB21E047A839171B CALLER SWAP4 DUP1 LOG4 PUSH1 0x1 SWAP1 JUMP JUMPDEST SWAP1 SWAP2 SWAP1 PUSH2 0x1522 JUMPI POP DUP1 MLOAD ISZERO PUSH2 0x1510 JUMPI PUSH1 0x20 DUP2 MLOAD SWAP2 ADD REVERT JUMPDEST PUSH1 0x40 MLOAD PUSH4 0xD6BDA275 PUSH1 0xE0 SHL DUP2 MSTORE PUSH1 0x4 SWAP1 REVERT JUMPDEST JUMP INVALID 0xD8 0xAA 0xF BALANCE SWAP5 SWAP8 BYTE 0x2A GT PUSH7 0x79F7C2090F6939 0xC8 0xD4 0xE0 BYTE 0x2A DUP14 PUSH31 0x41D55E5351469E63A2646970667358221220F5E913C57E4B6723C6663F6BA1 LOG3 SWAP13 0x2E CALLDATACOPY 0x26 0xAB SWAP2 CALLDATALOAD GASPRICE 0xFC DUP5 SHR KECCAK256 0xCB 0xB2 0xD3 JUMPI INVALID RETURNDATACOPY PUSH5 0x736F6C6343 STOP ADDMOD XOR STOP CALLER 0x2F DUP8 DUP9 GT PUSH31 0x7EFF1D82E926EC794901D17C78024A50270940304540A733656F0D00000000 "},"methodIdentifiers":{"CANCELLER_ROLE()":"b08e51c0","DEFAULT_ADMIN_ROLE()":"a217fddf","EXECUTOR_ROLE()":"07bd0265","MIN_DELAY()":"9f81aed7","PROPOSER_ROLE()":"8f61f4f5","cancel(bytes32)":"c4d252f5","execute(address,uint256,bytes,bytes32,bytes32)":"134008d3","executeBatch(address[],uint256[],bytes[],bytes32,bytes32)":"e38335e5","getMinDelay()":"f27a0c92","getOperationState(bytes32)":"7958004c","getRoleAdmin(bytes32)":"248a9ca3","getTimestamp(bytes32)":"d45c4435","grantRole(bytes32,address)":"2f2ff15d","hasRole(bytes32,address)":"91d14854","hashOperation(address,uint256,bytes,bytes32,bytes32)":"8065657f","hashOperationBatch(address[],uint256[],bytes[],bytes32,bytes32)":"b1c5f427","isOperation(bytes32)":"31d50750","isOperationDone(bytes32)":"2ab0f529","isOperationPending(bytes32)":"584b153e","isOperationReady(bytes32)":"13bc9f20","onERC1155BatchReceived(address,address,uint256[],uint256[],bytes)":"bc197c81","onERC1155Received(address,address,uint256,uint256,bytes)":"f23a6e61","onERC721Received(address,address,uint256,bytes)":"150b7a02","renounceRole(bytes32,address)":"36568abe","revokeRole(bytes32,address)":"d547741f","schedule(address,uint256,bytes,bytes32,bytes32,uint256)":"01d5062a","scheduleBatch(address[],uint256[],bytes[],bytes32,bytes32,uint256)":"8f2a0bb0","supportsInterface(bytes4)":"01ffc9a7","updateDelay(uint256)":"64d62353"}}}}}