{"contracts/tokens/ISSToken.sol":{"ISSToken":{"abi":[{"inputs":[{"internalType":"address","name":"admin","type":"address"},{"internalType":"address","name":"liquidityWallet","type":"address"},{"internalType":"address","name":"ecosystemWallet","type":"address"},{"internalType":"address","name":"teamWallet","type":"address"},{"internalType":"address","name":"partnershipWallet","type":"address"}],"stateMutability":"nonpayable","type":"constructor"},{"inputs":[],"name":"AccessControlBadConfirmation","type":"error"},{"inputs":[{"internalType":"address","name":"account","type":"address"},{"internalType":"bytes32","name":"neededRole","type":"bytes32"}],"name":"AccessControlUnauthorizedAccount","type":"error"},{"inputs":[{"internalType":"address","name":"spender","type":"address"},{"internalType":"uint256","name":"allowance","type":"uint256"},{"internalType":"uint256","name":"needed","type":"uint256"}],"name":"ERC20InsufficientAllowance","type":"error"},{"inputs":[{"internalType":"address","name":"sender","type":"address"},{"internalType":"uint256","name":"balance","type":"uint256"},{"internalType":"uint256","name":"needed","type":"uint256"}],"name":"ERC20InsufficientBalance","type":"error"},{"inputs":[{"internalType":"address","name":"approver","type":"address"}],"name":"ERC20InvalidApprover","type":"error"},{"inputs":[{"internalType":"address","name":"receiver","type":"address"}],"name":"ERC20InvalidReceiver","type":"error"},{"inputs":[{"internalType":"address","name":"sender","type":"address"}],"name":"ERC20InvalidSender","type":"error"},{"inputs":[{"internalType":"address","name":"spender","type":"address"}],"name":"ERC20InvalidSpender","type":"error"},{"inputs":[],"name":"ReentrancyGuardReentrantCall","type":"error"},{"anonymous":false,"inputs":[{"indexed":true,"internalType":"address","name":"owner","type":"address"},{"indexed":true,"internalType":"address","name":"spender","type":"address"},{"indexed":false,"internalType":"uint256","name":"value","type":"uint256"}],"name":"Approval","type":"event"},{"anonymous":false,"inputs":[{"indexed":true,"internalType":"address","name":"user","type":"address"},{"indexed":false,"internalType":"uint256","name":"creditAmount","type":"uint256"}],"name":"RewardClaimed","type":"event"},{"anonymous":false,"inputs":[{"indexed":true,"internalType":"bytes32","name":"role","type":"bytes32"},{"indexed":true,"internalType":"bytes32","name":"previousAdminRole","type":"bytes32"},{"indexed":true,"internalType":"bytes32","name":"newAdminRole","type":"bytes32"}],"name":"RoleAdminChanged","type":"event"},{"anonymous":false,"inputs":[{"indexed":true,"internalType":"bytes32","name":"role","type":"bytes32"},{"indexed":true,"internalType":"address","name":"account","type":"address"},{"indexed":true,"internalType":"address","name":"sender","type":"address"}],"name":"RoleGranted","type":"event"},{"anonymous":false,"inputs":[{"indexed":true,"internalType":"bytes32","name":"role","type":"bytes32"},{"indexed":true,"internalType":"address","name":"account","type":"address"},{"indexed":true,"internalType":"address","name":"sender","type":"address"}],"name":"RoleRevoked","type":"event"},{"anonymous":false,"inputs":[{"indexed":true,"internalType":"address","name":"user","type":"address"},{"indexed":true,"internalType":"uint256","name":"amount","type":"uint256"},{"indexed":false,"internalType":"uint48","name":"lockUntil","type":"uint48"}],"name":"Staked","type":"event"},{"anonymous":false,"inputs":[{"indexed":true,"internalType":"address","name":"from","type":"address"},{"indexed":true,"internalType":"uint256","name":"amount","type":"uint256"},{"indexed":false,"internalType":"string","name":"reason","type":"string"}],"name":"TokensBurned","type":"event"},{"anonymous":false,"inputs":[{"indexed":true,"internalType":"address","name":"from","type":"address"},{"indexed":true,"internalType":"address","name":"to","type":"address"},{"indexed":false,"internalType":"uint256","name":"value","type":"uint256"}],"name":"Transfer","type":"event"},{"anonymous":false,"inputs":[{"indexed":true,"internalType":"address","name":"user","type":"address"},{"indexed":true,"internalType":"uint256","name":"amount","type":"uint256"},{"indexed":false,"internalType":"uint256","name":"penalty","type":"uint256"}],"name":"Unstaked","type":"event"},{"anonymous":false,"inputs":[{"indexed":true,"internalType":"address","name":"beneficiary","type":"address"},{"indexed":true,"internalType":"uint256","name":"amount","type":"uint256"}],"name":"VestingClaimed","type":"event"},{"anonymous":false,"inputs":[{"indexed":true,"internalType":"address","name":"beneficiary","type":"address"},{"indexed":false,"internalType":"uint256","name":"total","type":"uint256"},{"indexed":false,"internalType":"uint48","name":"cliffEnd","type":"uint48"},{"indexed":false,"internalType":"uint48","name":"vestEnd","type":"uint48"}],"name":"VestingCreated","type":"event"},{"inputs":[],"name":"BURN_RATE_BPS","outputs":[{"internalType":"uint256","name":"","type":"uint256"}],"stateMutability":"view","type":"function"},{"inputs":[],"name":"DEFAULT_ADMIN_ROLE","outputs":[{"internalType":"bytes32","name":"","type":"bytes32"}],"stateMutability":"view","type":"function"},{"inputs":[],"name":"EARLY_UNSTAKE_PENALTY_BPS","outputs":[{"internalType":"uint256","name":"","type":"uint256"}],"stateMutability":"view","type":"function"},{"inputs":[],"name":"LOCK_12M","outputs":[{"internalType":"uint48","name":"","type":"uint48"}],"stateMutability":"view","type":"function"},{"inputs":[],"name":"LOCK_3M","outputs":[{"internalType":"uint48","name":"","type":"uint48"}],"stateMutability":"view","type":"function"},{"inputs":[],"name":"LOCK_6M","outputs":[{"internalType":"uint48","name":"","type":"uint48"}],"stateMutability":"view","type":"function"},{"inputs":[],"name":"MAX_SUPPLY","outputs":[{"internalType":"uint256","name":"","type":"uint256"}],"stateMutability":"view","type":"function"},{"inputs":[],"name":"PLATFORM_ROLE","outputs":[{"internalType":"bytes32","name":"","type":"bytes32"}],"stateMutability":"view","type":"function"},{"inputs":[],"name":"TIER1_STAKE","outputs":[{"internalType":"uint256","name":"","type":"uint256"}],"stateMutability":"view","type":"function"},{"inputs":[],"name":"TIER2_STAKE","outputs":[{"internalType":"uint256","name":"","type":"uint256"}],"stateMutability":"view","type":"function"},{"inputs":[],"name":"TIER3_STAKE","outputs":[{"internalType":"uint256","name":"","type":"uint256"}],"stateMutability":"view","type":"function"},{"inputs":[{"internalType":"address","name":"owner","type":"address"},{"internalType":"address","name":"spender","type":"address"}],"name":"allowance","outputs":[{"internalType":"uint256","name":"","type":"uint256"}],"stateMutability":"view","type":"function"},{"inputs":[{"internalType":"address","name":"spender","type":"address"},{"internalType":"uint256","name":"value","type":"uint256"}],"name":"approve","outputs":[{"internalType":"bool","name":"","type":"bool"}],"stateMutability":"nonpayable","type":"function"},{"inputs":[{"internalType":"address","name":"account","type":"address"}],"name":"balanceOf","outputs":[{"internalType":"uint256","name":"","type":"uint256"}],"stateMutability":"view","type":"function"},{"inputs":[],"name":"claimVested","outputs":[],"stateMutability":"nonpayable","type":"function"},{"inputs":[],"name":"decimals","outputs":[{"internalType":"uint8","name":"","type":"uint8"}],"stateMutability":"view","type":"function"},{"inputs":[{"internalType":"address","name":"user","type":"address"}],"name":"getFeeDiscount","outputs":[{"internalType":"uint256","name":"discountBps","type":"uint256"}],"stateMutability":"view","type":"function"},{"inputs":[{"internalType":"bytes32","name":"role","type":"bytes32"}],"name":"getRoleAdmin","outputs":[{"internalType":"bytes32","name":"","type":"bytes32"}],"stateMutability":"view","type":"function"},{"inputs":[{"internalType":"address","name":"account","type":"address"}],"name":"grantPlatformRole","outputs":[],"stateMutability":"nonpayable","type":"function"},{"inputs":[{"internalType":"bytes32","name":"role","type":"bytes32"},{"internalType":"address","name":"account","type":"address"}],"name":"grantRole","outputs":[],"stateMutability":"nonpayable","type":"function"},{"inputs":[{"internalType":"address","name":"user","type":"address"}],"name":"hasPriorityAccess","outputs":[{"internalType":"bool","name":"","type":"bool"}],"stateMutability":"view","type":"function"},{"inputs":[{"internalType":"bytes32","name":"role","type":"bytes32"},{"internalType":"address","name":"account","type":"address"}],"name":"hasRole","outputs":[{"internalType":"bool","name":"","type":"bool"}],"stateMutability":"view","type":"function"},{"inputs":[],"name":"name","outputs":[{"internalType":"string","name":"","type":"string"}],"stateMutability":"view","type":"function"},{"inputs":[{"internalType":"address","name":"from","type":"address"},{"internalType":"uint256","name":"amount","type":"uint256"}],"name":"processFeePayment","outputs":[],"stateMutability":"nonpayable","type":"function"},{"inputs":[{"internalType":"bytes32","name":"role","type":"bytes32"},{"internalType":"address","name":"callerConfirmation","type":"address"}],"name":"renounceRole","outputs":[],"stateMutability":"nonpayable","type":"function"},{"inputs":[{"internalType":"bytes32","name":"role","type":"bytes32"},{"internalType":"address","name":"account","type":"address"}],"name":"revokeRole","outputs":[],"stateMutability":"nonpayable","type":"function"},{"inputs":[{"internalType":"uint256","name":"amount","type":"uint256"},{"internalType":"uint48","name":"lockDays","type":"uint48"}],"name":"stake","outputs":[],"stateMutability":"nonpayable","type":"function"},{"inputs":[{"internalType":"address","name":"","type":"address"}],"name":"stakes","outputs":[{"internalType":"uint256","name":"amount","type":"uint256"},{"internalType":"uint48","name":"stakedAt","type":"uint48"},{"internalType":"uint48","name":"lockUntil","type":"uint48"},{"internalType":"uint48","name":"lastReward","type":"uint48"},{"internalType":"bool","name":"active","type":"bool"}],"stateMutability":"view","type":"function"},{"inputs":[{"internalType":"bytes4","name":"interfaceId","type":"bytes4"}],"name":"supportsInterface","outputs":[{"internalType":"bool","name":"","type":"bool"}],"stateMutability":"view","type":"function"},{"inputs":[],"name":"symbol","outputs":[{"internalType":"string","name":"","type":"string"}],"stateMutability":"view","type":"function"},{"inputs":[],"name":"totalStaked","outputs":[{"internalType":"uint256","name":"","type":"uint256"}],"stateMutability":"view","type":"function"},{"inputs":[],"name":"totalSupply","outputs":[{"internalType":"uint256","name":"","type":"uint256"}],"stateMutability":"view","type":"function"},{"inputs":[{"internalType":"address","name":"to","type":"address"},{"internalType":"uint256","name":"value","type":"uint256"}],"name":"transfer","outputs":[{"internalType":"bool","name":"","type":"bool"}],"stateMutability":"nonpayable","type":"function"},{"inputs":[{"internalType":"address","name":"from","type":"address"},{"internalType":"address","name":"to","type":"address"},{"internalType":"uint256","name":"value","type":"uint256"}],"name":"transferFrom","outputs":[{"internalType":"bool","name":"","type":"bool"}],"stateMutability":"nonpayable","type":"function"},{"inputs":[],"name":"unstake","outputs":[],"stateMutability":"nonpayable","type":"function"},{"inputs":[{"internalType":"address","name":"beneficiary","type":"address"}],"name":"vestedAmount","outputs":[{"internalType":"uint256","name":"","type":"uint256"}],"stateMutability":"view","type":"function"},{"inputs":[{"internalType":"address","name":"","type":"address"}],"name":"vestingSchedules","outputs":[{"internalType":"uint256","name":"total","type":"uint256"},{"internalType":"uint256","name":"claimed","type":"uint256"},{"internalType":"uint48","name":"cliffEnd","type":"uint48"},{"internalType":"uint48","name":"vestEnd","type":"uint48"},{"internalType":"bool","name":"active","type":"bool"}],"stateMutability":"view","type":"function"}],"evm":{"bytecode":{"linkReferences":{},"object":"608034620008d557601f6200238d38819003918201601f19168301916001600160401b03831184841017620007915780849260a094604052833981010312620008d5576200004d816200091a565b906200005c602082016200091a565b906200006b604082016200091a565b9062000088608062000080606084016200091a565b92016200091a565b9162000093620008fa565b94601486527f497373757261205574696c69747920546f6b656e0000000000000000000000006020870152620000c8620008fa565b600381526249535360e81b6020820152865190966001600160401b038211620007915760035490600182811c92168015620008ca575b6020831014620008b45781601f84931162000842575b50602090601f8311600114620007b357600092620007a7575b50508160011b916000199060031b1c1916176003555b85516001600160401b03811162000791576004968754600181811c9116801562000786575b60208210146200077157601f811162000724575b50602090601f8311600114620006b257620001c993929160009183620006a6575b50508160011b916000199060031b1c19161787555b6001600655620001c28162000996565b5062000a17565b5030156200063d57600254936a52b7d2dcc80cd2e400000094858101809111620006915760025530600052600060205260406000208581540190556040519485527fddf252ad1be2c89b69c2b068fc378daa952ba7f163c4a11628f55a4df523b3ef9460008660203093a36001600160a01b0316801562000679573060005260006020526040600020546a295be96e640669720000009081811062000655573060005260006020526a295be96e64066971ffffff19016040600020558160005260406000208181540190556040519081528560203092a36001600160a01b031680156200063d57306000526000602052604060002054936a14adf4b7320334b90000009485811062000619573060005260006020526a14adf4b7320334b8ffffff19016040600020558160005260406000208581540190556040519085825260203092a36200032065ffffffffffff42166200092f565b6305a39a8065ffffffffffff620003398142166200092f565b160165ffffffffffff8111620006045765ffffffffffff90816200035c620008da565b936a0c685fa11e01ec6f0000008552600060208601521660408401521660608201526001608082015260018060a01b03821660005260096020526002604060002091805183556020810151600184015565ffffffffffff604082015116906bffffffffffff00000000000083850154926cff00000000000000000000000060806060850151940151151560601b169360018060681b031916179160301b1617179101556000805160206200236d83398151915260606200042465ffffffffffff42166200092f565b9265ffffffffffff6200043981421662000960565b604080516a0c685fa11e01ec6f000000815296831660208801529116908501526001600160a01b031692a26200047765ffffffffffff42166200097b565b65ffffffffffff6200048b81421662000960565b8162000496620008da565b936a084595161401484a0000008552600060208601521660408401521660608201526001608082015260018060a01b0382166000526009602052600260406000208251815560208301516001820155019065ffffffffffff604082015116908254916cff00000000000000000000000060806bffffffffffff000000000000606085015160301b16930151151560601b169260018060681b03191617171790556000805160206200236d83398151915260606200055b65ffffffffffff42166200097b565b9265ffffffffffff6200057081421662000960565b604080516a084595161401484a000000815296831660208801529116908501526001600160a01b031692a230600052600060205260406000205403620005c057604051611892908162000abb8239f35b60649060206040519162461bcd60e51b8352820152601d60248201527f4953533a2076657374696e672062616c616e6365206d69736d617463680000006044820152fd5b601186634e487b7160e01b6000525260246000fd5b86866064926040519263391434e360e21b8452309084015260248301526044820152fd5b60405163ec442f0560e01b8152600081870152602490fd5b60649188916040519263391434e360e21b8452309084015260248301526044820152fd5b60405163ec442f0560e01b8152600081880152602490fd5b601187634e487b7160e01b6000525260246000fd5b0151905038806200019d565b90601f198316918960005260206000209260005b8181106200070b5750916001939185620001c997969410620006f1575b505050811b018755620001b2565b015160001960f88460031b161c19169055388080620006e3565b92936020600181928786015181550195019301620006c6565b886000526020600020601f840160051c8101916020851062000766575b601f0160051c01905b8181106200075957506200017c565b600081556001016200074a565b909150819062000741565b602289634e487b7160e01b6000525260246000fd5b90607f169062000168565b634e487b7160e01b600052604160045260246000fd5b0151905038806200012d565b6003600090815293507fc2575a0e9e593c00f959f8c92f12db2869c3395a3b0502d05e2516446f71f85b91905b601f198416851062000826576001945083601f198116106200080c575b505050811b0160035562000143565b015160001960f88460031b161c19169055388080620007fd565b81810151835560209485019460019093019290910190620007e0565b60036000529091507fc2575a0e9e593c00f959f8c92f12db2869c3395a3b0502d05e2516446f71f85b601f840160051c810160208510620008ac575b90849392915b601f830160051c820181106200089c57505062000114565b6000815585945060010162000884565b50806200087e565b634e487b7160e01b600052602260045260246000fd5b91607f1691620000fe565b600080fd5b6040519060a082016001600160401b038111838210176200079157604052565b60408051919082016001600160401b038111838210176200079157604052565b51906001600160a01b0382168203620008d557565b906301e1338065ffffffffffff809316019182116200094a57565b634e487b7160e01b600052601160045260246000fd5b90630784ce0065ffffffffffff809316019182116200094a57565b906303c2670065ffffffffffff809316019182116200094a57565b6001600160a01b031660008181527f05b8ccbb9d4d8fb16ea74ce3c29a41f1b461fbdaff4714a0d9a8eb05499746bc602052604081205490919060ff1662000a135781805260056020526040822081835260205260408220600160ff1982541617905533916000805160206200234d8339815191528180a4600190565b5090565b6001600160a01b031660008181527f876f28074a6d2b0ec949f62d34618dd94fc26188a75e5665877c78cd325d5c4860205260408120549091907f797343f8d6a29aafeb3aaf0910a8973e0081c60c2f6c1f775cd9f76ea348fc1e9060ff1662000ab55780835260056020526040832082845260205260408320600160ff198254161790556000805160206200234d833981519152339380a4600190565b50509056fe608060408181526004918236101561001657600080fd5b600092833560e01c91826301ffc9a71461125a5750816306fdde0314611163578163095cf1871461113f578163095ea7b31461109557816316934fc41461102257816318160ddd146110035781631f0c148114610fde5781632300f41014610fc157816323b872dd14610eca578163248a9ca314610e9f5781632def662014610d115781632f2ff15d14610ce7578163313ce56714610ccb57816332cb6b0c14610ca557816336568abe14610c5f578163384711cc14610c3957816339293aba14610c1b57816341cf742c14610b6a57816370824c5c14610b2f578163708cfc7b14610b1057816370a0823114610ad957816379492bda14610abc578163817b1cd214610a9d5781638431832314610a7f57816391d1485414610a3857816395d89b4114610933578163a1b146c8146108d3578163a217fddf146108b8578163a9059cbb14610887578163b7fa7cfc1461085a578163c742d093146106f3578163d01c44cd1461058e578163d547741f1461054e578163d6918be114610529578163dd62ed3e146104e0578163fa897ed714610231575063fdb20ccb146101bc57600080fd5b3461022d57602036600319011261022d5760a09160ff9082906001600160a01b036101e56112f6565b16815260096020522091825492600260018201549101549165ffffffffffff9181519586526020860152818316908501528160301c16606084015260601c1615156080820152f35b5080fd5b919050346104dc57806003193601126104dc578135916024803565ffffffffffff918282168083036104d857610265611535565b86156104a3576276a7008114908115610496575b8115610488575b5015610446573387526020936007855260ff6001878a20015460901c1661040f573388528785528686892054106103cf576102bc873033611457565b834216916102ca84846113bb565b9187519160a083019183831067ffffffffffffffff8411176103be575050859492878b7f6e8910ae8080a58abd08134c664ce6d891d2355c172dc66c7a66bb8d9e66a7c9999860016103ad98968e8e978852815282858201978989528201961686528d606082019489865260076080840197858952338352522090518155019451166bffffffffffff0000000000008554945160301b169165ffffffffffff60601b905160601b169260ff60901b9051151560901b16936cffffffffffffffffffffffffff60981b161717171790556103a58860085461144a565b6008556113bb565b9351931683523392a3600160065580f35b634e487b7160e01b8c52604190528afd5b60196064928688519362461bcd60e51b85528401528201527f4953533a20696e73756666696369656e742062616c616e6365000000000000006044820152fd5b60146064928688519362461bcd60e51b8552840152820152734953533a20616c7265616479207374616b696e6760601b6044820152fd5b836018606492602088519362461bcd60e51b85528401528201527f4953533a20696e76616c6964206c6f636b20706572696f6400000000000000006044820152fd5b6301e1338091501438610280565b62ed4e0081149150610279565b855162461bcd60e51b81526020818701526010818401526f1254d4ce881e995c9bc8185b5bdd5b9d60821b6044820152606490fd5b8780fd5b8280fd5b50503461022d578060031936011261022d57806020926104fe6112f6565b610506611311565b6001600160a01b0391821683526001865283832091168252845220549051908152f35b50503461022d578160031936011261022d576020905169021e19e0c9bab24000008152f35b919050346104dc57806003193601126104dc5761058a91356105856001610573611311565b938387526005602052862001546115f7565b611769565b5080f35b9050346104dc57826003193601126104dc576105a8611535565b3383526009602052818320600281015460ff8160601c16156106b05765ffffffffffff1642106106745760016105dd826117e0565b9101916105ec8354809361135f565b938415610639575050826105ff9161144a565b905561060c813330611457565b337f9fe9b7be9d151c7a8b6de49a1312ff27a15096d0d1d12999af85fe4310e0b1258380a3600160065580f35b906020606492519162461bcd60e51b835282015260156024820152744953533a206e6f7468696e6720746f20636c61696d60581b6044820152fd5b506020606492519162461bcd60e51b835282015260166024820152751254d4ce8818db1a5999881b9bdd081c995858da195960521b6044820152fd5b835162461bcd60e51b8152602081850152601860248201527f4953533a206e6f2076657374696e67207363686564756c6500000000000000006044820152606490fd5b9050346104dc57816003193601126104dc5761070d6112f6565b91602435907f797343f8d6a29aafeb3aaf0910a8973e0081c60c2f6c1f775cd9f76ea348fc1e9182865260209260058452828720338852845260ff83882054161561083c57506001600160a01b0385168087528684528287205490949082116107f9576107d0908183029183830414831517156107e657506060926107ca7ffad31924d655455395c87544c8aa1ffdb5a7505a22a3c2e03f28003b6556a75f95936127106a19995957dc185e5b595b9d60aa1b9404983090611457565b6107d48730611558565b600b815193808552840152820152a380f35b634e487b7160e01b885260119052602487fd5b825162461bcd60e51b8152908101849052601960248201527f4953533a20696e73756666696369656e74206665652062616c000000000000006044820152606490fd5b825163e2517d3f60e01b815233818701526024810191909152604490fd5b50503461022d57602036600319011261022d5760209061088061087b6112f6565b6113d5565b9051908152f35b50503461022d578060031936011261022d576020906108b16108a76112f6565b6024359033611457565b5160018152f35b50503461022d578160031936011261022d5751908152602090f35b9050346104dc5760203660031901126104dc576108ee6112f6565b91838052600560205280842033855260205260ff818520541615610916578361058a8461163b565b9083604492519163e2517d3f60e01b835233908301526024820152fd5b83833461022d578160031936011261022d5780519180938054916001908360011c9260018516948515610a2e575b6020958686108114610a1b578589529081156109f7575060011461099f575b61099b8787610991828c0383611327565b51918291826112ad565b0390f35b81529295507f8a35acfbc15ff81a39ae7d344fd709f28e8600b4aa8c65c6b64bfe7fe36bd19b5b8284106109e4575050508261099b9461099192820101948680610980565b80548685018801529286019281016109c6565b60ff19168887015250505050151560051b83010192506109918261099b8680610980565b634e487b7160e01b845260228352602484fd5b93607f1693610961565b9050346104dc57816003193601126104dc578160209360ff92610a59611311565b90358252600586528282206001600160a01b039091168252855220549151911615158152f35b50503461022d578160031936011261022d576020905162ed4e008152f35b50503461022d578160031936011261022d576020906008549051908152f35b50503461022d578160031936011261022d57602090516109c48152f35b50503461022d57602036600319011261022d5760209181906001600160a01b03610b016112f6565b16815280845220549051908152f35b50503461022d578160031936011261022d57602090516301e133808152f35b50503461022d578160031936011261022d57602090517f797343f8d6a29aafeb3aaf0910a8973e0081c60c2f6c1f775cd9f76ea348fc1e8152f35b83833461022d57602036600319011261022d576001600160a01b03610b8d6112f6565b16825260076020528082209160018301549060ff8260901c169384610c05575b5083610bc0575b60208484519015158152f35b9091925065ffffffffffff9062ed4e008242160190828211610bf257506020945081169160301c161015908380610bb4565b634e487b7160e01b815260118652602490fd5b5469021e19e0c9bab24000001115935085610bad565b50503461022d578160031936011261022d57602090516276a7008152f35b50503461022d57602036600319011261022d57602090610880610c5a6112f6565b611382565b83833461022d578060031936011261022d57610c79611311565b90336001600160a01b03831603610c96575061058a919235611769565b5163334bd91960e11b81528390fd5b50503461022d578160031936011261022d57602090516a52b7d2dcc80cd2e40000008152f35b50503461022d578160031936011261022d576020905160128152f35b919050346104dc57806003193601126104dc5761058a9135610d0c6001610573611311565b6116ee565b919050346104dc57826003193601126104dc57610d2c611535565b338352600760205280832090600182019283549260ff8460901c1615610e6557808691549265ffffffffffff839660301c164210610dcb575b50908291610d7686610d8b9561135f565b875460ff60901b19169097555560085461135f565b600855610d99833330611457565b519081527f7fc4727e062e336010f2c282598ef5f14facb3de68cf8195c2f23e1454b2b74e60203392a3600160065580f35b915093506109c490818302918383041483151715610e5257509085612710610d8b930494610df98630611558565b8585516020815260156020820152746561726c795f756e7374616b655f70656e616c747960581b878201527ffad31924d655455395c87544c8aa1ffdb5a7505a22a3c2e03f28003b6556a75f60603392a3909192610d65565b634e487b7160e01b875260119052602486fd5b506020606492519162461bcd60e51b835282015260146024820152734953533a206e6f20616374697665207374616b6560601b6044820152fd5b9050346104dc5760203660031901126104dc5781602093600192358152600585522001549051908152f35b90508234610fbe576060366003190112610fbe57610ee66112f6565b610eee611311565b916044359360018060a01b038316808352600160205286832033845260205286832054916000198310610f2a575b6020886108b1898989611457565b868310610f92578115610f7b573315610f64575082526001602090815286832033845281529186902090859003905582906108b187610f1c565b8751634a1406b160e11b8152908101849052602490fd5b875163e602df0560e01b8152908101849052602490fd5b8751637dc7a0d960e11b8152339181019182526020820193909352604081018790528291506060010390fd5b80fd5b50503461022d578160031936011261022d57602090516107d08152f35b50503461022d578160031936011261022d576020905169010f0cf064dd592000008152f35b50503461022d578160031936011261022d576020906002549051908152f35b50503461022d57602036600319011261022d5760a09160ff9082906001600160a01b0361104d6112f6565b16815260076020522091600183549301549065ffffffffffff9080519485528183166020860152818360301c16908501528160601c16606084015260901c1615156080820152f35b9050346104dc57816003193601126104dc576110af6112f6565b602435903315611128576001600160a01b031691821561111157508083602095338152600187528181208582528752205582519081527f8c5be1e5ebec7d5bd14f71427d1e84f3dd0314c0f7b2291e5b200ac8c7c3b925843392a35160018152f35b8351634a1406b160e11b8152908101859052602490fd5b835163e602df0560e01b8152808401869052602490fd5b50503461022d578160031936011261022d5760209051683635c9adc5dea000008152f35b919050346104dc57826003193601126104dc5780519183600354906001908260011c92600181168015611250575b602095868610821461123d575084885290811561121b57506001146111c2575b61099b8686610991828b0383611327565b929550600383527fc2575a0e9e593c00f959f8c92f12db2869c3395a3b0502d05e2516446f71f85b5b828410611208575050508261099b946109919282010194386111b1565b80548685018801529286019281016111eb565b60ff191687860152505050151560051b83010192506109918261099b386111b1565b634e487b7160e01b845260229052602483fd5b93607f1693611191565b8491346104dc5760203660031901126104dc573563ffffffff60e01b81168091036104dc5760209250637965db0b60e01b811490811561129c575b5015158152f35b6301ffc9a760e01b14905083611295565b6020808252825181830181905290939260005b8281106112e257505060409293506000838284010152601f8019910116010190565b8181018601518482016040015285016112c0565b600435906001600160a01b038216820361130c57565b600080fd5b602435906001600160a01b038216820361130c57565b90601f8019910116810190811067ffffffffffffffff82111761134957604052565b634e487b7160e01b600052604160045260246000fd5b9190820391821161136c57565b634e487b7160e01b600052601160045260246000fd5b6001600160a01b03166000908152600960205260409020600281015460601c60ff16156113b5576113b2906117e0565b90565b50600090565b91909165ffffffffffff8080941691160191821161136c57565b6001600160a01b03166000908152600760205260409020600181015460901c60ff16156113b5575469021e19e0c9bab24000008110156114435769010f0cf064dd5920000081101561143c57683635c9adc5dea00000111561143657600090565b6107d090565b50610dac90565b5061138890565b9190820180921161136c57565b916001600160a01b0380841692831561151c571692831561150357600090838252816020526040822054908382106114d1575091604082827fddf252ad1be2c89b69c2b068fc378daa952ba7f163c4a11628f55a4df523b3ef958760209652828652038282205586815220818154019055604051908152a3565b60405163391434e360e21b81526001600160a01b03919091166004820152602481019190915260448101839052606490fd5b60405163ec442f0560e01b815260006004820152602490fd5b604051634b637e8f60e11b815260006004820152602490fd5b600260065414611546576002600655565b604051633ee5aeb560e01b8152600490fd5b906001600160a01b03821690811561151c57600092828452836020526040842054908282106115c55750817fddf252ad1be2c89b69c2b068fc378daa952ba7f163c4a11628f55a4df523b3ef926020928587528684520360408620558060025403600255604051908152a3565b60405163391434e360e21b81526001600160a01b03919091166004820152602481019190915260448101829052606490fd5b80600052600560205260406000203360005260205260ff604060002054161561161d5750565b6044906040519063e2517d3f60e01b82523360048301526024820152fd5b6001600160a01b031660008181527f876f28074a6d2b0ec949f62d34618dd94fc26188a75e5665877c78cd325d5c4860205260408120549091907f797343f8d6a29aafeb3aaf0910a8973e0081c60c2f6c1f775cd9f76ea348fc1e9060ff166116e95780835260056020526040832082845260205260408320600160ff198254161790557f2f8788117e7eff1d82e926ec794901d17c78024a50270940304540a733656f0d339380a4600190565b505090565b906000918083526005602052604083209160018060a01b03169182845260205260ff604084205416156000146116e95780835260056020526040832082845260205260408320600160ff198254161790557f2f8788117e7eff1d82e926ec794901d17c78024a50270940304540a733656f0d339380a4600190565b906000918083526005602052604083209160018060a01b03169182845260205260ff6040842054166000146116e9578083526005602052604083208284526020526040832060ff1981541690557ff6391f5c32d9c69d2a47ea670b442974b53935d1edc7fd64eb21e047a839171b339380a4600190565b600281015465ffffffffffff8082169182421061185357819060301c16918242101561184c57611810814261135f565b920381811161136c5716915481810291818304149015171561136c578115611836570490565b634e487b7160e01b600052601260045260246000fd5b5050505490565b5050505060009056fea2646970667358221220ab74c01bd734c914d0de6538620b6d7afa2ada1b3c4999560fdac09546f27cf464736f6c634300081800332f8788117e7eff1d82e926ec794901d17c78024a50270940304540a733656f0dad63aeec6e410e2826f7d58fa5587c54d898b72068c46e07d49415d23a71916b","opcodes":"PUSH1 0x80 CALLVALUE PUSH3 0x8D5 JUMPI PUSH1 0x1F PUSH3 0x238D CODESIZE DUP2 SWAP1 SUB SWAP2 DUP3 ADD PUSH1 0x1F NOT AND DUP4 ADD SWAP2 PUSH1 0x1 PUSH1 0x1 PUSH1 0x40 SHL SUB DUP4 GT DUP5 DUP5 LT OR PUSH3 0x791 JUMPI DUP1 DUP5 SWAP3 PUSH1 0xA0 SWAP5 PUSH1 0x40 MSTORE DUP4 CODECOPY DUP2 ADD SUB SLT PUSH3 0x8D5 JUMPI PUSH3 0x4D DUP2 PUSH3 0x91A JUMP JUMPDEST SWAP1 PUSH3 0x5C PUSH1 0x20 DUP3 ADD PUSH3 0x91A JUMP JUMPDEST SWAP1 PUSH3 0x6B PUSH1 0x40 DUP3 ADD PUSH3 0x91A JUMP JUMPDEST SWAP1 PUSH3 0x88 PUSH1 0x80 PUSH3 0x80 PUSH1 0x60 DUP5 ADD PUSH3 0x91A JUMP JUMPDEST SWAP3 ADD PUSH3 0x91A JUMP JUMPDEST SWAP2 PUSH3 0x93 PUSH3 0x8FA JUMP JUMPDEST SWAP5 PUSH1 0x14 DUP7 MSTORE PUSH32 0x497373757261205574696C69747920546F6B656E000000000000000000000000 PUSH1 0x20 DUP8 ADD MSTORE PUSH3 0xC8 PUSH3 0x8FA JUMP JUMPDEST PUSH1 0x3 DUP2 MSTORE PUSH3 0x495353 PUSH1 0xE8 SHL PUSH1 0x20 DUP3 ADD MSTORE DUP7 MLOAD SWAP1 SWAP7 PUSH1 0x1 PUSH1 0x1 PUSH1 0x40 SHL SUB DUP3 GT PUSH3 0x791 JUMPI PUSH1 0x3 SLOAD SWAP1 PUSH1 0x1 DUP3 DUP2 SHR SWAP3 AND DUP1 ISZERO PUSH3 0x8CA JUMPI JUMPDEST PUSH1 0x20 DUP4 LT EQ PUSH3 0x8B4 JUMPI DUP2 PUSH1 0x1F DUP5 SWAP4 GT PUSH3 0x842 JUMPI JUMPDEST POP PUSH1 0x20 SWAP1 PUSH1 0x1F DUP4 GT PUSH1 0x1 EQ PUSH3 0x7B3 JUMPI PUSH1 0x0 SWAP3 PUSH3 0x7A7 JUMPI JUMPDEST POP POP DUP2 PUSH1 0x1 SHL SWAP2 PUSH1 0x0 NOT SWAP1 PUSH1 0x3 SHL SHR NOT AND OR PUSH1 0x3 SSTORE JUMPDEST DUP6 MLOAD PUSH1 0x1 PUSH1 0x1 PUSH1 0x40 SHL SUB DUP2 GT PUSH3 0x791 JUMPI PUSH1 0x4 SWAP7 DUP8 SLOAD PUSH1 0x1 DUP2 DUP2 SHR SWAP2 AND DUP1 ISZERO PUSH3 0x786 JUMPI JUMPDEST PUSH1 0x20 DUP3 LT EQ PUSH3 0x771 JUMPI PUSH1 0x1F DUP2 GT PUSH3 0x724 JUMPI JUMPDEST POP PUSH1 0x20 SWAP1 PUSH1 0x1F DUP4 GT PUSH1 0x1 EQ PUSH3 0x6B2 JUMPI PUSH3 0x1C9 SWAP4 SWAP3 SWAP2 PUSH1 0x0 SWAP2 DUP4 PUSH3 0x6A6 JUMPI JUMPDEST POP POP DUP2 PUSH1 0x1 SHL SWAP2 PUSH1 0x0 NOT SWAP1 PUSH1 0x3 SHL SHR NOT AND OR DUP8 SSTORE JUMPDEST PUSH1 0x1 PUSH1 0x6 SSTORE PUSH3 0x1C2 DUP2 PUSH3 0x996 JUMP JUMPDEST POP PUSH3 0xA17 JUMP JUMPDEST POP ADDRESS ISZERO PUSH3 0x63D JUMPI PUSH1 0x2 SLOAD SWAP4 PUSH11 0x52B7D2DCC80CD2E4000000 SWAP5 DUP6 DUP2 ADD DUP1 SWAP2 GT PUSH3 0x691 JUMPI PUSH1 0x2 SSTORE ADDRESS PUSH1 0x0 MSTORE PUSH1 0x0 PUSH1 0x20 MSTORE PUSH1 0x40 PUSH1 0x0 KECCAK256 DUP6 DUP2 SLOAD ADD SWAP1 SSTORE PUSH1 0x40 MLOAD SWAP5 DUP6 MSTORE PUSH32 0xDDF252AD1BE2C89B69C2B068FC378DAA952BA7F163C4A11628F55A4DF523B3EF SWAP5 PUSH1 0x0 DUP7 PUSH1 0x20 ADDRESS SWAP4 LOG3 PUSH1 0x1 PUSH1 0x1 PUSH1 0xA0 SHL SUB AND DUP1 ISZERO PUSH3 0x679 JUMPI ADDRESS PUSH1 0x0 MSTORE PUSH1 0x0 PUSH1 0x20 MSTORE PUSH1 0x40 PUSH1 0x0 KECCAK256 SLOAD PUSH11 0x295BE96E64066972000000 SWAP1 DUP2 DUP2 LT PUSH3 0x655 JUMPI ADDRESS PUSH1 0x0 MSTORE PUSH1 0x0 PUSH1 0x20 MSTORE PUSH11 0x295BE96E64066971FFFFFF NOT ADD PUSH1 0x40 PUSH1 0x0 KECCAK256 SSTORE DUP2 PUSH1 0x0 MSTORE PUSH1 0x40 PUSH1 0x0 KECCAK256 DUP2 DUP2 SLOAD ADD SWAP1 SSTORE PUSH1 0x40 MLOAD SWAP1 DUP2 MSTORE DUP6 PUSH1 0x20 ADDRESS SWAP3 LOG3 PUSH1 0x1 PUSH1 0x1 PUSH1 0xA0 SHL SUB AND DUP1 ISZERO PUSH3 0x63D JUMPI ADDRESS PUSH1 0x0 MSTORE PUSH1 0x0 PUSH1 0x20 MSTORE PUSH1 0x40 PUSH1 0x0 KECCAK256 SLOAD SWAP4 PUSH11 0x14ADF4B7320334B9000000 SWAP5 DUP6 DUP2 LT PUSH3 0x619 JUMPI ADDRESS PUSH1 0x0 MSTORE PUSH1 0x0 PUSH1 0x20 MSTORE PUSH11 0x14ADF4B7320334B8FFFFFF NOT ADD PUSH1 0x40 PUSH1 0x0 KECCAK256 SSTORE DUP2 PUSH1 0x0 MSTORE PUSH1 0x40 PUSH1 0x0 KECCAK256 DUP6 DUP2 SLOAD ADD SWAP1 SSTORE PUSH1 0x40 MLOAD SWAP1 DUP6 DUP3 MSTORE PUSH1 0x20 ADDRESS SWAP3 LOG3 PUSH3 0x320 PUSH6 0xFFFFFFFFFFFF TIMESTAMP AND PUSH3 0x92F JUMP JUMPDEST PUSH4 0x5A39A80 PUSH6 0xFFFFFFFFFFFF PUSH3 0x339 DUP2 TIMESTAMP AND PUSH3 0x92F JUMP JUMPDEST AND ADD PUSH6 0xFFFFFFFFFFFF DUP2 GT PUSH3 0x604 JUMPI PUSH6 0xFFFFFFFFFFFF SWAP1 DUP2 PUSH3 0x35C PUSH3 0x8DA JUMP JUMPDEST SWAP4 PUSH11 0xC685FA11E01EC6F000000 DUP6 MSTORE PUSH1 0x0 PUSH1 0x20 DUP7 ADD MSTORE AND PUSH1 0x40 DUP5 ADD MSTORE AND PUSH1 0x60 DUP3 ADD MSTORE PUSH1 0x1 PUSH1 0x80 DUP3 ADD MSTORE PUSH1 0x1 DUP1 PUSH1 0xA0 SHL SUB DUP3 AND PUSH1 0x0 MSTORE PUSH1 0x9 PUSH1 0x20 MSTORE PUSH1 0x2 PUSH1 0x40 PUSH1 0x0 KECCAK256 SWAP2 DUP1 MLOAD DUP4 SSTORE PUSH1 0x20 DUP2 ADD MLOAD PUSH1 0x1 DUP5 ADD SSTORE PUSH6 0xFFFFFFFFFFFF PUSH1 0x40 DUP3 ADD MLOAD AND SWAP1 PUSH12 0xFFFFFFFFFFFF000000000000 DUP4 DUP6 ADD SLOAD SWAP3 PUSH13 0xFF000000000000000000000000 PUSH1 0x80 PUSH1 0x60 DUP6 ADD MLOAD SWAP5 ADD MLOAD ISZERO ISZERO PUSH1 0x60 SHL AND SWAP4 PUSH1 0x1 DUP1 PUSH1 0x68 SHL SUB NOT AND OR SWAP2 PUSH1 0x30 SHL AND OR OR SWAP2 ADD SSTORE PUSH1 0x0 DUP1 MLOAD PUSH1 0x20 PUSH3 0x236D DUP4 CODECOPY DUP2 MLOAD SWAP2 MSTORE PUSH1 0x60 PUSH3 0x424 PUSH6 0xFFFFFFFFFFFF TIMESTAMP AND PUSH3 0x92F JUMP JUMPDEST SWAP3 PUSH6 0xFFFFFFFFFFFF PUSH3 0x439 DUP2 TIMESTAMP AND PUSH3 0x960 JUMP JUMPDEST PUSH1 0x40 DUP1 MLOAD PUSH11 0xC685FA11E01EC6F000000 DUP2 MSTORE SWAP7 DUP4 AND PUSH1 0x20 DUP9 ADD MSTORE SWAP2 AND SWAP1 DUP6 ADD MSTORE PUSH1 0x1 PUSH1 0x1 PUSH1 0xA0 SHL SUB AND SWAP3 LOG2 PUSH3 0x477 PUSH6 0xFFFFFFFFFFFF TIMESTAMP AND PUSH3 0x97B JUMP JUMPDEST PUSH6 0xFFFFFFFFFFFF PUSH3 0x48B DUP2 TIMESTAMP AND PUSH3 0x960 JUMP JUMPDEST DUP2 PUSH3 0x496 PUSH3 0x8DA JUMP JUMPDEST SWAP4 PUSH11 0x84595161401484A000000 DUP6 MSTORE PUSH1 0x0 PUSH1 0x20 DUP7 ADD MSTORE AND PUSH1 0x40 DUP5 ADD MSTORE AND PUSH1 0x60 DUP3 ADD MSTORE PUSH1 0x1 PUSH1 0x80 DUP3 ADD MSTORE PUSH1 0x1 DUP1 PUSH1 0xA0 SHL SUB DUP3 AND PUSH1 0x0 MSTORE PUSH1 0x9 PUSH1 0x20 MSTORE PUSH1 0x2 PUSH1 0x40 PUSH1 0x0 KECCAK256 DUP3 MLOAD DUP2 SSTORE PUSH1 0x20 DUP4 ADD MLOAD PUSH1 0x1 DUP3 ADD SSTORE ADD SWAP1 PUSH6 0xFFFFFFFFFFFF PUSH1 0x40 DUP3 ADD MLOAD AND SWAP1 DUP3 SLOAD SWAP2 PUSH13 0xFF000000000000000000000000 PUSH1 0x80 PUSH12 0xFFFFFFFFFFFF000000000000 PUSH1 0x60 DUP6 ADD MLOAD PUSH1 0x30 SHL AND SWAP4 ADD MLOAD ISZERO ISZERO PUSH1 0x60 SHL AND SWAP3 PUSH1 0x1 DUP1 PUSH1 0x68 SHL SUB NOT AND OR OR OR SWAP1 SSTORE PUSH1 0x0 DUP1 MLOAD PUSH1 0x20 PUSH3 0x236D DUP4 CODECOPY DUP2 MLOAD SWAP2 MSTORE PUSH1 0x60 PUSH3 0x55B PUSH6 0xFFFFFFFFFFFF TIMESTAMP AND PUSH3 0x97B JUMP JUMPDEST SWAP3 PUSH6 0xFFFFFFFFFFFF PUSH3 0x570 DUP2 TIMESTAMP AND PUSH3 0x960 JUMP JUMPDEST PUSH1 0x40 DUP1 MLOAD PUSH11 0x84595161401484A000000 DUP2 MSTORE SWAP7 DUP4 AND PUSH1 0x20 DUP9 ADD MSTORE SWAP2 AND SWAP1 DUP6 ADD MSTORE PUSH1 0x1 PUSH1 0x1 PUSH1 0xA0 SHL SUB AND SWAP3 LOG2 ADDRESS PUSH1 0x0 MSTORE PUSH1 0x0 PUSH1 0x20 MSTORE PUSH1 0x40 PUSH1 0x0 KECCAK256 SLOAD SUB PUSH3 0x5C0 JUMPI PUSH1 0x40 MLOAD PUSH2 0x1892 SWAP1 DUP2 PUSH3 0xABB DUP3 CODECOPY RETURN JUMPDEST PUSH1 0x64 SWAP1 PUSH1 0x20 PUSH1 0x40 MLOAD SWAP2 PUSH3 0x461BCD PUSH1 0xE5 SHL DUP4 MSTORE DUP3 ADD MSTORE PUSH1 0x1D PUSH1 0x24 DUP3 ADD MSTORE PUSH32 0x4953533A2076657374696E672062616C616E6365206D69736D61746368000000 PUSH1 0x44 DUP3 ADD MSTORE REVERT JUMPDEST PUSH1 0x11 DUP7 PUSH4 0x4E487B71 PUSH1 0xE0 SHL PUSH1 0x0 MSTORE MSTORE PUSH1 0x24 PUSH1 0x0 REVERT JUMPDEST DUP7 DUP7 PUSH1 0x64 SWAP3 PUSH1 0x40 MLOAD SWAP3 PUSH4 0x391434E3 PUSH1 0xE2 SHL DUP5 MSTORE ADDRESS SWAP1 DUP5 ADD MSTORE PUSH1 0x24 DUP4 ADD MSTORE PUSH1 0x44 DUP3 ADD MSTORE REVERT JUMPDEST PUSH1 0x40 MLOAD PUSH4 0xEC442F05 PUSH1 0xE0 SHL DUP2 MSTORE PUSH1 0x0 DUP2 DUP8 ADD MSTORE PUSH1 0x24 SWAP1 REVERT JUMPDEST PUSH1 0x64 SWAP2 DUP9 SWAP2 PUSH1 0x40 MLOAD SWAP3 PUSH4 0x391434E3 PUSH1 0xE2 SHL DUP5 MSTORE ADDRESS SWAP1 DUP5 ADD MSTORE PUSH1 0x24 DUP4 ADD MSTORE PUSH1 0x44 DUP3 ADD MSTORE REVERT JUMPDEST PUSH1 0x40 MLOAD PUSH4 0xEC442F05 PUSH1 0xE0 SHL DUP2 MSTORE PUSH1 0x0 DUP2 DUP9 ADD MSTORE PUSH1 0x24 SWAP1 REVERT JUMPDEST PUSH1 0x11 DUP8 PUSH4 0x4E487B71 PUSH1 0xE0 SHL PUSH1 0x0 MSTORE MSTORE PUSH1 0x24 PUSH1 0x0 REVERT JUMPDEST ADD MLOAD SWAP1 POP CODESIZE DUP1 PUSH3 0x19D JUMP JUMPDEST SWAP1 PUSH1 0x1F NOT DUP4 AND SWAP2 DUP10 PUSH1 0x0 MSTORE PUSH1 0x20 PUSH1 0x0 KECCAK256 SWAP3 PUSH1 0x0 JUMPDEST DUP2 DUP2 LT PUSH3 0x70B JUMPI POP SWAP2 PUSH1 0x1 SWAP4 SWAP2 DUP6 PUSH3 0x1C9 SWAP8 SWAP7 SWAP5 LT PUSH3 0x6F1 JUMPI JUMPDEST POP POP POP DUP2 SHL ADD DUP8 SSTORE PUSH3 0x1B2 JUMP JUMPDEST ADD MLOAD PUSH1 0x0 NOT PUSH1 0xF8 DUP5 PUSH1 0x3 SHL AND SHR NOT AND SWAP1 SSTORE CODESIZE DUP1 DUP1 PUSH3 0x6E3 JUMP JUMPDEST SWAP3 SWAP4 PUSH1 0x20 PUSH1 0x1 DUP2 SWAP3 DUP8 DUP7 ADD MLOAD DUP2 SSTORE ADD SWAP6 ADD SWAP4 ADD PUSH3 0x6C6 JUMP JUMPDEST DUP9 PUSH1 0x0 MSTORE PUSH1 0x20 PUSH1 0x0 KECCAK256 PUSH1 0x1F DUP5 ADD PUSH1 0x5 SHR DUP2 ADD SWAP2 PUSH1 0x20 DUP6 LT PUSH3 0x766 JUMPI JUMPDEST PUSH1 0x1F ADD PUSH1 0x5 SHR ADD SWAP1 JUMPDEST DUP2 DUP2 LT PUSH3 0x759 JUMPI POP PUSH3 0x17C JUMP JUMPDEST PUSH1 0x0 DUP2 SSTORE PUSH1 0x1 ADD PUSH3 0x74A JUMP JUMPDEST SWAP1 SWAP2 POP DUP2 SWAP1 PUSH3 0x741 JUMP JUMPDEST PUSH1 0x22 DUP10 PUSH4 0x4E487B71 PUSH1 0xE0 SHL PUSH1 0x0 MSTORE MSTORE PUSH1 0x24 PUSH1 0x0 REVERT JUMPDEST SWAP1 PUSH1 0x7F AND SWAP1 PUSH3 0x168 JUMP JUMPDEST PUSH4 0x4E487B71 PUSH1 0xE0 SHL PUSH1 0x0 MSTORE PUSH1 0x41 PUSH1 0x4 MSTORE PUSH1 0x24 PUSH1 0x0 REVERT JUMPDEST ADD MLOAD SWAP1 POP CODESIZE DUP1 PUSH3 0x12D JUMP JUMPDEST PUSH1 0x3 PUSH1 0x0 SWAP1 DUP2 MSTORE SWAP4 POP PUSH32 0xC2575A0E9E593C00F959F8C92F12DB2869C3395A3B0502D05E2516446F71F85B SWAP2 SWAP1 JUMPDEST PUSH1 0x1F NOT DUP5 AND DUP6 LT PUSH3 0x826 JUMPI PUSH1 0x1 SWAP5 POP DUP4 PUSH1 0x1F NOT DUP2 AND LT PUSH3 0x80C JUMPI JUMPDEST POP POP POP DUP2 SHL ADD PUSH1 0x3 SSTORE PUSH3 0x143 JUMP JUMPDEST ADD MLOAD PUSH1 0x0 NOT PUSH1 0xF8 DUP5 PUSH1 0x3 SHL AND SHR NOT AND SWAP1 SSTORE CODESIZE DUP1 DUP1 PUSH3 0x7FD JUMP JUMPDEST DUP2 DUP2 ADD MLOAD DUP4 SSTORE PUSH1 0x20 SWAP5 DUP6 ADD SWAP5 PUSH1 0x1 SWAP1 SWAP4 ADD SWAP3 SWAP1 SWAP2 ADD SWAP1 PUSH3 0x7E0 JUMP JUMPDEST PUSH1 0x3 PUSH1 0x0 MSTORE SWAP1 SWAP2 POP PUSH32 0xC2575A0E9E593C00F959F8C92F12DB2869C3395A3B0502D05E2516446F71F85B PUSH1 0x1F DUP5 ADD PUSH1 0x5 SHR DUP2 ADD PUSH1 0x20 DUP6 LT PUSH3 0x8AC JUMPI JUMPDEST SWAP1 DUP5 SWAP4 SWAP3 SWAP2 JUMPDEST PUSH1 0x1F DUP4 ADD PUSH1 0x5 SHR DUP3 ADD DUP2 LT PUSH3 0x89C JUMPI POP POP PUSH3 0x114 JUMP JUMPDEST PUSH1 0x0 DUP2 SSTORE DUP6 SWAP5 POP PUSH1 0x1 ADD PUSH3 0x884 JUMP JUMPDEST POP DUP1 PUSH3 0x87E JUMP JUMPDEST PUSH4 0x4E487B71 PUSH1 0xE0 SHL PUSH1 0x0 MSTORE PUSH1 0x22 PUSH1 0x4 MSTORE PUSH1 0x24 PUSH1 0x0 REVERT JUMPDEST SWAP2 PUSH1 0x7F AND SWAP2 PUSH3 0xFE JUMP JUMPDEST PUSH1 0x0 DUP1 REVERT JUMPDEST PUSH1 0x40 MLOAD SWAP1 PUSH1 0xA0 DUP3 ADD PUSH1 0x1 PUSH1 0x1 PUSH1 0x40 SHL SUB DUP2 GT DUP4 DUP3 LT OR PUSH3 0x791 JUMPI PUSH1 0x40 MSTORE JUMP JUMPDEST PUSH1 0x40 DUP1 MLOAD SWAP2 SWAP1 DUP3 ADD PUSH1 0x1 PUSH1 0x1 PUSH1 0x40 SHL SUB DUP2 GT DUP4 DUP3 LT OR PUSH3 0x791 JUMPI PUSH1 0x40 MSTORE JUMP JUMPDEST MLOAD SWAP1 PUSH1 0x1 PUSH1 0x1 PUSH1 0xA0 SHL SUB DUP3 AND DUP3 SUB PUSH3 0x8D5 JUMPI JUMP JUMPDEST SWAP1 PUSH4 0x1E13380 PUSH6 0xFFFFFFFFFFFF DUP1 SWAP4 AND ADD SWAP2 DUP3 GT PUSH3 0x94A JUMPI JUMP JUMPDEST PUSH4 0x4E487B71 PUSH1 0xE0 SHL PUSH1 0x0 MSTORE PUSH1 0x11 PUSH1 0x4 MSTORE PUSH1 0x24 PUSH1 0x0 REVERT JUMPDEST SWAP1 PUSH4 0x784CE00 PUSH6 0xFFFFFFFFFFFF DUP1 SWAP4 AND ADD SWAP2 DUP3 GT PUSH3 0x94A JUMPI JUMP JUMPDEST SWAP1 PUSH4 0x3C26700 PUSH6 0xFFFFFFFFFFFF DUP1 SWAP4 AND ADD SWAP2 DUP3 GT PUSH3 0x94A JUMPI JUMP JUMPDEST PUSH1 0x1 PUSH1 0x1 PUSH1 0xA0 SHL SUB AND PUSH1 0x0 DUP2 DUP2 MSTORE PUSH32 0x5B8CCBB9D4D8FB16EA74CE3C29A41F1B461FBDAFF4714A0D9A8EB05499746BC PUSH1 0x20 MSTORE PUSH1 0x40 DUP2 KECCAK256 SLOAD SWAP1 SWAP2 SWAP1 PUSH1 0xFF AND PUSH3 0xA13 JUMPI DUP2 DUP1 MSTORE PUSH1 0x5 PUSH1 0x20 MSTORE PUSH1 0x40 DUP3 KECCAK256 DUP2 DUP4 MSTORE PUSH1 0x20 MSTORE PUSH1 0x40 DUP3 KECCAK256 PUSH1 0x1 PUSH1 0xFF NOT DUP3 SLOAD AND OR SWAP1 SSTORE CALLER SWAP2 PUSH1 0x0 DUP1 MLOAD PUSH1 0x20 PUSH3 0x234D DUP4 CODECOPY DUP2 MLOAD SWAP2 MSTORE DUP2 DUP1 LOG4 PUSH1 0x1 SWAP1 JUMP JUMPDEST POP SWAP1 JUMP JUMPDEST PUSH1 0x1 PUSH1 0x1 PUSH1 0xA0 SHL SUB AND PUSH1 0x0 DUP2 DUP2 MSTORE PUSH32 0x876F28074A6D2B0EC949F62D34618DD94FC26188A75E5665877C78CD325D5C48 PUSH1 0x20 MSTORE PUSH1 0x40 DUP2 KECCAK256 SLOAD SWAP1 SWAP2 SWAP1 PUSH32 0x797343F8D6A29AAFEB3AAF0910A8973E0081C60C2F6C1F775CD9F76EA348FC1E SWAP1 PUSH1 0xFF AND PUSH3 0xAB5 JUMPI DUP1 DUP4 MSTORE PUSH1 0x5 PUSH1 0x20 MSTORE PUSH1 0x40 DUP4 KECCAK256 DUP3 DUP5 MSTORE PUSH1 0x20 MSTORE PUSH1 0x40 DUP4 KECCAK256 PUSH1 0x1 PUSH1 0xFF NOT DUP3 SLOAD AND OR SWAP1 SSTORE PUSH1 0x0 DUP1 MLOAD PUSH1 0x20 PUSH3 0x234D DUP4 CODECOPY DUP2 MLOAD SWAP2 MSTORE CALLER SWAP4 DUP1 LOG4 PUSH1 0x1 SWAP1 JUMP JUMPDEST POP POP SWAP1 JUMP INVALID PUSH1 0x80 PUSH1 0x40 DUP2 DUP2 MSTORE PUSH1 0x4 SWAP2 DUP3 CALLDATASIZE LT ISZERO PUSH2 0x16 JUMPI PUSH1 0x0 DUP1 REVERT JUMPDEST PUSH1 0x0 SWAP3 DUP4 CALLDATALOAD PUSH1 0xE0 SHR SWAP2 DUP3 PUSH4 0x1FFC9A7 EQ PUSH2 0x125A JUMPI POP DUP2 PUSH4 0x6FDDE03 EQ PUSH2 0x1163 JUMPI DUP2 PUSH4 0x95CF187 EQ PUSH2 0x113F JUMPI DUP2 PUSH4 0x95EA7B3 EQ PUSH2 0x1095 JUMPI DUP2 PUSH4 0x16934FC4 EQ PUSH2 0x1022 JUMPI DUP2 PUSH4 0x18160DDD EQ PUSH2 0x1003 JUMPI DUP2 PUSH4 0x1F0C1481 EQ PUSH2 0xFDE JUMPI DUP2 PUSH4 0x2300F410 EQ PUSH2 0xFC1 JUMPI DUP2 PUSH4 0x23B872DD EQ PUSH2 0xECA JUMPI DUP2 PUSH4 0x248A9CA3 EQ PUSH2 0xE9F JUMPI DUP2 PUSH4 0x2DEF6620 EQ PUSH2 0xD11 JUMPI DUP2 PUSH4 0x2F2FF15D EQ PUSH2 0xCE7 JUMPI DUP2 PUSH4 0x313CE567 EQ PUSH2 0xCCB JUMPI DUP2 PUSH4 0x32CB6B0C EQ PUSH2 0xCA5 JUMPI DUP2 PUSH4 0x36568ABE EQ PUSH2 0xC5F JUMPI DUP2 PUSH4 0x384711CC EQ PUSH2 0xC39 JUMPI DUP2 PUSH4 0x39293ABA EQ PUSH2 0xC1B JUMPI DUP2 PUSH4 0x41CF742C EQ PUSH2 0xB6A JUMPI DUP2 PUSH4 0x70824C5C EQ PUSH2 0xB2F JUMPI DUP2 PUSH4 0x708CFC7B EQ PUSH2 0xB10 JUMPI DUP2 PUSH4 0x70A08231 EQ PUSH2 0xAD9 JUMPI DUP2 PUSH4 0x79492BDA EQ PUSH2 0xABC JUMPI DUP2 PUSH4 0x817B1CD2 EQ PUSH2 0xA9D JUMPI DUP2 PUSH4 0x84318323 EQ PUSH2 0xA7F JUMPI DUP2 PUSH4 0x91D14854 EQ PUSH2 0xA38 JUMPI DUP2 PUSH4 0x95D89B41 EQ PUSH2 0x933 JUMPI DUP2 PUSH4 0xA1B146C8 EQ PUSH2 0x8D3 JUMPI DUP2 PUSH4 0xA217FDDF EQ PUSH2 0x8B8 JUMPI DUP2 PUSH4 0xA9059CBB EQ PUSH2 0x887 JUMPI DUP2 PUSH4 0xB7FA7CFC EQ PUSH2 0x85A JUMPI DUP2 PUSH4 0xC742D093 EQ PUSH2 0x6F3 JUMPI DUP2 PUSH4 0xD01C44CD EQ PUSH2 0x58E JUMPI DUP2 PUSH4 0xD547741F EQ PUSH2 0x54E JUMPI DUP2 PUSH4 0xD6918BE1 EQ PUSH2 0x529 JUMPI DUP2 PUSH4 0xDD62ED3E EQ PUSH2 0x4E0 JUMPI DUP2 PUSH4 0xFA897ED7 EQ PUSH2 0x231 JUMPI POP PUSH4 0xFDB20CCB EQ PUSH2 0x1BC JUMPI PUSH1 0x0 DUP1 REVERT JUMPDEST CALLVALUE PUSH2 0x22D JUMPI PUSH1 0x20 CALLDATASIZE PUSH1 0x3 NOT ADD SLT PUSH2 0x22D JUMPI PUSH1 0xA0 SWAP2 PUSH1 0xFF SWAP1 DUP3 SWAP1 PUSH1 0x1 PUSH1 0x1 PUSH1 0xA0 SHL SUB PUSH2 0x1E5 PUSH2 0x12F6 JUMP JUMPDEST AND DUP2 MSTORE PUSH1 0x9 PUSH1 0x20 MSTORE KECCAK256 SWAP2 DUP3 SLOAD SWAP3 PUSH1 0x2 PUSH1 0x1 DUP3 ADD SLOAD SWAP2 ADD SLOAD SWAP2 PUSH6 0xFFFFFFFFFFFF SWAP2 DUP2 MLOAD SWAP6 DUP7 MSTORE PUSH1 0x20 DUP7 ADD MSTORE DUP2 DUP4 AND SWAP1 DUP6 ADD MSTORE DUP2 PUSH1 0x30 SHR AND PUSH1 0x60 DUP5 ADD MSTORE PUSH1 0x60 SHR AND ISZERO ISZERO PUSH1 0x80 DUP3 ADD MSTORE RETURN JUMPDEST POP DUP1 REVERT JUMPDEST SWAP2 SWAP1 POP CALLVALUE PUSH2 0x4DC JUMPI DUP1 PUSH1 0x3 NOT CALLDATASIZE ADD SLT PUSH2 0x4DC JUMPI DUP2 CALLDATALOAD SWAP2 PUSH1 0x24 DUP1 CALLDATALOAD PUSH6 0xFFFFFFFFFFFF SWAP2 DUP3 DUP3 AND DUP1 DUP4 SUB PUSH2 0x4D8 JUMPI PUSH2 0x265 PUSH2 0x1535 JUMP JUMPDEST DUP7 ISZERO PUSH2 0x4A3 JUMPI PUSH3 0x76A700 DUP2 EQ SWAP1 DUP2 ISZERO PUSH2 0x496 JUMPI JUMPDEST DUP2 ISZERO PUSH2 0x488 JUMPI JUMPDEST POP ISZERO PUSH2 0x446 JUMPI CALLER DUP8 MSTORE PUSH1 0x20 SWAP4 PUSH1 0x7 DUP6 MSTORE PUSH1 0xFF PUSH1 0x1 DUP8 DUP11 KECCAK256 ADD SLOAD PUSH1 0x90 SHR AND PUSH2 0x40F JUMPI CALLER DUP9 MSTORE DUP8 DUP6 MSTORE DUP7 DUP7 DUP10 KECCAK256 SLOAD LT PUSH2 0x3CF JUMPI PUSH2 0x2BC DUP8 ADDRESS CALLER PUSH2 0x1457 JUMP JUMPDEST DUP4 TIMESTAMP AND SWAP2 PUSH2 0x2CA DUP5 DUP5 PUSH2 0x13BB JUMP JUMPDEST SWAP2 DUP8 MLOAD SWAP2 PUSH1 0xA0 DUP4 ADD SWAP2 DUP4 DUP4 LT PUSH8 0xFFFFFFFFFFFFFFFF DUP5 GT OR PUSH2 0x3BE JUMPI POP POP DUP6 SWAP5 SWAP3 DUP8 DUP12 PUSH32 0x6E8910AE8080A58ABD08134C664CE6D891D2355C172DC66C7A66BB8D9E66A7C9 SWAP10 SWAP9 PUSH1 0x1 PUSH2 0x3AD SWAP9 SWAP7 DUP15 DUP15 SWAP8 DUP9 MSTORE DUP2 MSTORE DUP3 DUP6 DUP3 ADD SWAP8 DUP10 DUP10 MSTORE DUP3 ADD SWAP7 AND DUP7 MSTORE DUP14 PUSH1 0x60 DUP3 ADD SWAP5 DUP10 DUP7 MSTORE PUSH1 0x7 PUSH1 0x80 DUP5 ADD SWAP8 DUP6 DUP10 MSTORE CALLER DUP4 MSTORE MSTORE KECCAK256 SWAP1 MLOAD DUP2 SSTORE ADD SWAP5 MLOAD AND PUSH12 0xFFFFFFFFFFFF000000000000 DUP6 SLOAD SWAP5 MLOAD PUSH1 0x30 SHL AND SWAP2 PUSH6 0xFFFFFFFFFFFF PUSH1 0x60 SHL SWAP1 MLOAD PUSH1 0x60 SHL AND SWAP3 PUSH1 0xFF PUSH1 0x90 SHL SWAP1 MLOAD ISZERO ISZERO PUSH1 0x90 SHL AND SWAP4 PUSH13 0xFFFFFFFFFFFFFFFFFFFFFFFFFF PUSH1 0x98 SHL AND OR OR OR OR SWAP1 SSTORE PUSH2 0x3A5 DUP9 PUSH1 0x8 SLOAD PUSH2 0x144A JUMP JUMPDEST PUSH1 0x8 SSTORE PUSH2 0x13BB JUMP JUMPDEST SWAP4 MLOAD SWAP4 AND DUP4 MSTORE CALLER SWAP3 LOG3 PUSH1 0x1 PUSH1 0x6 SSTORE DUP1 RETURN JUMPDEST PUSH4 0x4E487B71 PUSH1 0xE0 SHL DUP13 MSTORE PUSH1 0x41 SWAP1 MSTORE DUP11 REVERT JUMPDEST PUSH1 0x19 PUSH1 0x64 SWAP3 DUP7 DUP9 MLOAD SWAP4 PUSH3 0x461BCD PUSH1 0xE5 SHL DUP6 MSTORE DUP5 ADD MSTORE DUP3 ADD MSTORE PUSH32 0x4953533A20696E73756666696369656E742062616C616E636500000000000000 PUSH1 0x44 DUP3 ADD MSTORE REVERT JUMPDEST PUSH1 0x14 PUSH1 0x64 SWAP3 DUP7 DUP9 MLOAD SWAP4 PUSH3 0x461BCD PUSH1 0xE5 SHL DUP6 MSTORE DUP5 ADD MSTORE DUP3 ADD MSTORE PUSH20 0x4953533A20616C7265616479207374616B696E67 PUSH1 0x60 SHL PUSH1 0x44 DUP3 ADD MSTORE REVERT JUMPDEST DUP4 PUSH1 0x18 PUSH1 0x64 SWAP3 PUSH1 0x20 DUP9 MLOAD SWAP4 PUSH3 0x461BCD PUSH1 0xE5 SHL DUP6 MSTORE DUP5 ADD MSTORE DUP3 ADD MSTORE PUSH32 0x4953533A20696E76616C6964206C6F636B20706572696F640000000000000000 PUSH1 0x44 DUP3 ADD MSTORE REVERT JUMPDEST PUSH4 0x1E13380 SWAP2 POP EQ CODESIZE PUSH2 0x280 JUMP JUMPDEST PUSH3 0xED4E00 DUP2 EQ SWAP2 POP PUSH2 0x279 JUMP JUMPDEST DUP6 MLOAD PUSH3 0x461BCD PUSH1 0xE5 SHL DUP2 MSTORE PUSH1 0x20 DUP2 DUP8 ADD MSTORE PUSH1 0x10 DUP2 DUP5 ADD MSTORE PUSH16 0x1254D4CE881E995C9BC8185B5BDD5B9D PUSH1 0x82 SHL PUSH1 0x44 DUP3 ADD MSTORE PUSH1 0x64 SWAP1 REVERT JUMPDEST DUP8 DUP1 REVERT JUMPDEST DUP3 DUP1 REVERT JUMPDEST POP POP CALLVALUE PUSH2 0x22D JUMPI DUP1 PUSH1 0x3 NOT CALLDATASIZE ADD SLT PUSH2 0x22D JUMPI DUP1 PUSH1 0x20 SWAP3 PUSH2 0x4FE PUSH2 0x12F6 JUMP JUMPDEST PUSH2 0x506 PUSH2 0x1311 JUMP JUMPDEST PUSH1 0x1 PUSH1 0x1 PUSH1 0xA0 SHL SUB SWAP2 DUP3 AND DUP4 MSTORE PUSH1 0x1 DUP7 MSTORE DUP4 DUP4 KECCAK256 SWAP2 AND DUP3 MSTORE DUP5 MSTORE KECCAK256 SLOAD SWAP1 MLOAD SWAP1 DUP2 MSTORE RETURN JUMPDEST POP POP CALLVALUE PUSH2 0x22D JUMPI DUP2 PUSH1 0x3 NOT CALLDATASIZE ADD SLT PUSH2 0x22D JUMPI PUSH1 0x20 SWAP1 MLOAD PUSH10 0x21E19E0C9BAB2400000 DUP2 MSTORE RETURN JUMPDEST SWAP2 SWAP1 POP CALLVALUE PUSH2 0x4DC JUMPI DUP1 PUSH1 0x3 NOT CALLDATASIZE ADD SLT PUSH2 0x4DC JUMPI PUSH2 0x58A SWAP2 CALLDATALOAD PUSH2 0x585 PUSH1 0x1 PUSH2 0x573 PUSH2 0x1311 JUMP JUMPDEST SWAP4 DUP4 DUP8 MSTORE PUSH1 0x5 PUSH1 0x20 MSTORE DUP7 KECCAK256 ADD SLOAD PUSH2 0x15F7 JUMP JUMPDEST PUSH2 0x1769 JUMP JUMPDEST POP DUP1 RETURN JUMPDEST SWAP1 POP CALLVALUE PUSH2 0x4DC JUMPI DUP3 PUSH1 0x3 NOT CALLDATASIZE ADD SLT PUSH2 0x4DC JUMPI PUSH2 0x5A8 PUSH2 0x1535 JUMP JUMPDEST CALLER DUP4 MSTORE PUSH1 0x9 PUSH1 0x20 MSTORE DUP2 DUP4 KECCAK256 PUSH1 0x2 DUP2 ADD SLOAD PUSH1 0xFF DUP2 PUSH1 0x60 SHR AND ISZERO PUSH2 0x6B0 JUMPI PUSH6 0xFFFFFFFFFFFF AND TIMESTAMP LT PUSH2 0x674 JUMPI PUSH1 0x1 PUSH2 0x5DD DUP3 PUSH2 0x17E0 JUMP JUMPDEST SWAP2 ADD SWAP2 PUSH2 0x5EC DUP4 SLOAD DUP1 SWAP4 PUSH2 0x135F JUMP JUMPDEST SWAP4 DUP5 ISZERO PUSH2 0x639 JUMPI POP POP DUP3 PUSH2 0x5FF SWAP2 PUSH2 0x144A JUMP JUMPDEST SWAP1 SSTORE PUSH2 0x60C DUP2 CALLER ADDRESS PUSH2 0x1457 JUMP JUMPDEST CALLER PUSH32 0x9FE9B7BE9D151C7A8B6DE49A1312FF27A15096D0D1D12999AF85FE4310E0B125 DUP4 DUP1 LOG3 PUSH1 0x1 PUSH1 0x6 SSTORE DUP1 RETURN JUMPDEST SWAP1 PUSH1 0x20 PUSH1 0x64 SWAP3 MLOAD SWAP2 PUSH3 0x461BCD PUSH1 0xE5 SHL DUP4 MSTORE DUP3 ADD MSTORE PUSH1 0x15 PUSH1 0x24 DUP3 ADD MSTORE PUSH21 0x4953533A206E6F7468696E6720746F20636C61696D PUSH1 0x58 SHL PUSH1 0x44 DUP3 ADD MSTORE REVERT JUMPDEST POP PUSH1 0x20 PUSH1 0x64 SWAP3 MLOAD SWAP2 PUSH3 0x461BCD PUSH1 0xE5 SHL DUP4 MSTORE DUP3 ADD MSTORE PUSH1 0x16 PUSH1 0x24 DUP3 ADD MSTORE PUSH22 0x1254D4CE8818DB1A5999881B9BDD081C995858DA1959 PUSH1 0x52 SHL PUSH1 0x44 DUP3 ADD MSTORE REVERT JUMPDEST DUP4 MLOAD PUSH3 0x461BCD PUSH1 0xE5 SHL DUP2 MSTORE PUSH1 0x20 DUP2 DUP6 ADD MSTORE PUSH1 0x18 PUSH1 0x24 DUP3 ADD MSTORE PUSH32 0x4953533A206E6F2076657374696E67207363686564756C650000000000000000 PUSH1 0x44 DUP3 ADD MSTORE PUSH1 0x64 SWAP1 REVERT JUMPDEST SWAP1 POP CALLVALUE PUSH2 0x4DC JUMPI DUP2 PUSH1 0x3 NOT CALLDATASIZE ADD SLT PUSH2 0x4DC JUMPI PUSH2 0x70D PUSH2 0x12F6 JUMP JUMPDEST SWAP2 PUSH1 0x24 CALLDATALOAD SWAP1 PUSH32 0x797343F8D6A29AAFEB3AAF0910A8973E0081C60C2F6C1F775CD9F76EA348FC1E SWAP2 DUP3 DUP7 MSTORE PUSH1 0x20 SWAP3 PUSH1 0x5 DUP5 MSTORE DUP3 DUP8 KECCAK256 CALLER DUP9 MSTORE DUP5 MSTORE PUSH1 0xFF DUP4 DUP9 KECCAK256 SLOAD AND ISZERO PUSH2 0x83C JUMPI POP PUSH1 0x1 PUSH1 0x1 PUSH1 0xA0 SHL SUB DUP6 AND DUP1 DUP8 MSTORE DUP7 DUP5 MSTORE DUP3 DUP8 KECCAK256 SLOAD SWAP1 SWAP5 SWAP1 DUP3 GT PUSH2 0x7F9 JUMPI PUSH2 0x7D0 SWAP1 DUP2 DUP4 MUL SWAP2 DUP4 DUP4 DIV EQ DUP4 ISZERO OR ISZERO PUSH2 0x7E6 JUMPI POP PUSH1 0x60 SWAP3 PUSH2 0x7CA PUSH32 0xFAD31924D655455395C87544C8AA1FFDB5A7505A22A3C2E03F28003B6556A75F SWAP6 SWAP4 PUSH2 0x2710 PUSH11 0x19995957DC185E5B595B9D PUSH1 0xAA SHL SWAP5 DIV SWAP9 ADDRESS SWAP1 PUSH2 0x1457 JUMP JUMPDEST PUSH2 0x7D4 DUP8 ADDRESS PUSH2 0x1558 JUMP JUMPDEST PUSH1 0xB DUP2 MLOAD SWAP4 DUP1 DUP6 MSTORE DUP5 ADD MSTORE DUP3 ADD MSTORE LOG3 DUP1 RETURN JUMPDEST PUSH4 0x4E487B71 PUSH1 0xE0 SHL DUP9 MSTORE PUSH1 0x11 SWAP1 MSTORE PUSH1 0x24 DUP8 REVERT JUMPDEST DUP3 MLOAD PUSH3 0x461BCD PUSH1 0xE5 SHL DUP2 MSTORE SWAP1 DUP2 ADD DUP5 SWAP1 MSTORE PUSH1 0x19 PUSH1 0x24 DUP3 ADD MSTORE PUSH32 0x4953533A20696E73756666696369656E74206665652062616C00000000000000 PUSH1 0x44 DUP3 ADD MSTORE PUSH1 0x64 SWAP1 REVERT JUMPDEST DUP3 MLOAD PUSH4 0xE2517D3F PUSH1 0xE0 SHL DUP2 MSTORE CALLER DUP2 DUP8 ADD MSTORE PUSH1 0x24 DUP2 ADD SWAP2 SWAP1 SWAP2 MSTORE PUSH1 0x44 SWAP1 REVERT JUMPDEST POP POP CALLVALUE PUSH2 0x22D JUMPI PUSH1 0x20 CALLDATASIZE PUSH1 0x3 NOT ADD SLT PUSH2 0x22D JUMPI PUSH1 0x20 SWAP1 PUSH2 0x880 PUSH2 0x87B PUSH2 0x12F6 JUMP JUMPDEST PUSH2 0x13D5 JUMP JUMPDEST SWAP1 MLOAD SWAP1 DUP2 MSTORE RETURN JUMPDEST POP POP CALLVALUE PUSH2 0x22D JUMPI DUP1 PUSH1 0x3 NOT CALLDATASIZE ADD SLT PUSH2 0x22D JUMPI PUSH1 0x20 SWAP1 PUSH2 0x8B1 PUSH2 0x8A7 PUSH2 0x12F6 JUMP JUMPDEST PUSH1 0x24 CALLDATALOAD SWAP1 CALLER PUSH2 0x1457 JUMP JUMPDEST MLOAD PUSH1 0x1 DUP2 MSTORE RETURN JUMPDEST POP POP CALLVALUE PUSH2 0x22D JUMPI DUP2 PUSH1 0x3 NOT CALLDATASIZE ADD SLT PUSH2 0x22D JUMPI MLOAD SWAP1 DUP2 MSTORE PUSH1 0x20 SWAP1 RETURN JUMPDEST SWAP1 POP CALLVALUE PUSH2 0x4DC JUMPI PUSH1 0x20 CALLDATASIZE PUSH1 0x3 NOT ADD SLT PUSH2 0x4DC JUMPI PUSH2 0x8EE PUSH2 0x12F6 JUMP JUMPDEST SWAP2 DUP4 DUP1 MSTORE PUSH1 0x5 PUSH1 0x20 MSTORE DUP1 DUP5 KECCAK256 CALLER DUP6 MSTORE PUSH1 0x20 MSTORE PUSH1 0xFF DUP2 DUP6 KECCAK256 SLOAD AND ISZERO PUSH2 0x916 JUMPI DUP4 PUSH2 0x58A DUP5 PUSH2 0x163B JUMP JUMPDEST SWAP1 DUP4 PUSH1 0x44 SWAP3 MLOAD SWAP2 PUSH4 0xE2517D3F PUSH1 0xE0 SHL DUP4 MSTORE CALLER SWAP1 DUP4 ADD MSTORE PUSH1 0x24 DUP3 ADD MSTORE REVERT JUMPDEST DUP4 DUP4 CALLVALUE PUSH2 0x22D JUMPI DUP2 PUSH1 0x3 NOT CALLDATASIZE ADD SLT PUSH2 0x22D JUMPI DUP1 MLOAD SWAP2 DUP1 SWAP4 DUP1 SLOAD SWAP2 PUSH1 0x1 SWAP1 DUP4 PUSH1 0x1 SHR SWAP3 PUSH1 0x1 DUP6 AND SWAP5 DUP6 ISZERO PUSH2 0xA2E JUMPI JUMPDEST PUSH1 0x20 SWAP6 DUP7 DUP7 LT DUP2 EQ PUSH2 0xA1B JUMPI DUP6 DUP10 MSTORE SWAP1 DUP2 ISZERO PUSH2 0x9F7 JUMPI POP PUSH1 0x1 EQ PUSH2 0x99F JUMPI JUMPDEST PUSH2 0x99B DUP8 DUP8 PUSH2 0x991 DUP3 DUP13 SUB DUP4 PUSH2 0x1327 JUMP JUMPDEST MLOAD SWAP2 DUP3 SWAP2 DUP3 PUSH2 0x12AD JUMP JUMPDEST SUB SWAP1 RETURN JUMPDEST DUP2 MSTORE SWAP3 SWAP6 POP PUSH32 0x8A35ACFBC15FF81A39AE7D344FD709F28E8600B4AA8C65C6B64BFE7FE36BD19B JUMPDEST DUP3 DUP5 LT PUSH2 0x9E4 JUMPI POP POP POP DUP3 PUSH2 0x99B SWAP5 PUSH2 0x991 SWAP3 DUP3 ADD ADD SWAP5 DUP7 DUP1 PUSH2 0x980 JUMP JUMPDEST DUP1 SLOAD DUP7 DUP6 ADD DUP9 ADD MSTORE SWAP3 DUP7 ADD SWAP3 DUP2 ADD PUSH2 0x9C6 JUMP JUMPDEST PUSH1 0xFF NOT AND DUP9 DUP8 ADD MSTORE POP POP POP POP ISZERO ISZERO PUSH1 0x5 SHL DUP4 ADD ADD SWAP3 POP PUSH2 0x991 DUP3 PUSH2 0x99B DUP7 DUP1 PUSH2 0x980 JUMP JUMPDEST PUSH4 0x4E487B71 PUSH1 0xE0 SHL DUP5 MSTORE PUSH1 0x22 DUP4 MSTORE PUSH1 0x24 DUP5 REVERT JUMPDEST SWAP4 PUSH1 0x7F AND SWAP4 PUSH2 0x961 JUMP JUMPDEST SWAP1 POP CALLVALUE PUSH2 0x4DC JUMPI DUP2 PUSH1 0x3 NOT CALLDATASIZE ADD SLT PUSH2 0x4DC JUMPI DUP2 PUSH1 0x20 SWAP4 PUSH1 0xFF SWAP3 PUSH2 0xA59 PUSH2 0x1311 JUMP JUMPDEST SWAP1 CALLDATALOAD DUP3 MSTORE PUSH1 0x5 DUP7 MSTORE DUP3 DUP3 KECCAK256 PUSH1 0x1 PUSH1 0x1 PUSH1 0xA0 SHL SUB SWAP1 SWAP2 AND DUP3 MSTORE DUP6 MSTORE KECCAK256 SLOAD SWAP2 MLOAD SWAP2 AND ISZERO ISZERO DUP2 MSTORE RETURN JUMPDEST POP POP CALLVALUE PUSH2 0x22D JUMPI DUP2 PUSH1 0x3 NOT CALLDATASIZE ADD SLT PUSH2 0x22D JUMPI PUSH1 0x20 SWAP1 MLOAD PUSH3 0xED4E00 DUP2 MSTORE RETURN JUMPDEST POP POP CALLVALUE PUSH2 0x22D JUMPI DUP2 PUSH1 0x3 NOT CALLDATASIZE ADD SLT PUSH2 0x22D JUMPI PUSH1 0x20 SWAP1 PUSH1 0x8 SLOAD SWAP1 MLOAD SWAP1 DUP2 MSTORE RETURN JUMPDEST POP POP CALLVALUE PUSH2 0x22D JUMPI DUP2 PUSH1 0x3 NOT CALLDATASIZE ADD SLT PUSH2 0x22D JUMPI PUSH1 0x20 SWAP1 MLOAD PUSH2 0x9C4 DUP2 MSTORE RETURN JUMPDEST POP POP CALLVALUE PUSH2 0x22D JUMPI PUSH1 0x20 CALLDATASIZE PUSH1 0x3 NOT ADD SLT PUSH2 0x22D JUMPI PUSH1 0x20 SWAP2 DUP2 SWAP1 PUSH1 0x1 PUSH1 0x1 PUSH1 0xA0 SHL SUB PUSH2 0xB01 PUSH2 0x12F6 JUMP JUMPDEST AND DUP2 MSTORE DUP1 DUP5 MSTORE KECCAK256 SLOAD SWAP1 MLOAD SWAP1 DUP2 MSTORE RETURN JUMPDEST POP POP CALLVALUE PUSH2 0x22D JUMPI DUP2 PUSH1 0x3 NOT CALLDATASIZE ADD SLT PUSH2 0x22D JUMPI PUSH1 0x20 SWAP1 MLOAD PUSH4 0x1E13380 DUP2 MSTORE RETURN JUMPDEST POP POP CALLVALUE PUSH2 0x22D JUMPI DUP2 PUSH1 0x3 NOT CALLDATASIZE ADD SLT PUSH2 0x22D JUMPI PUSH1 0x20 SWAP1 MLOAD PUSH32 0x797343F8D6A29AAFEB3AAF0910A8973E0081C60C2F6C1F775CD9F76EA348FC1E DUP2 MSTORE RETURN JUMPDEST DUP4 DUP4 CALLVALUE PUSH2 0x22D JUMPI PUSH1 0x20 CALLDATASIZE PUSH1 0x3 NOT ADD SLT PUSH2 0x22D JUMPI PUSH1 0x1 PUSH1 0x1 PUSH1 0xA0 SHL SUB PUSH2 0xB8D PUSH2 0x12F6 JUMP JUMPDEST AND DUP3 MSTORE PUSH1 0x7 PUSH1 0x20 MSTORE DUP1 DUP3 KECCAK256 SWAP2 PUSH1 0x1 DUP4 ADD SLOAD SWAP1 PUSH1 0xFF DUP3 PUSH1 0x90 SHR AND SWAP4 DUP5 PUSH2 0xC05 JUMPI JUMPDEST POP DUP4 PUSH2 0xBC0 JUMPI JUMPDEST PUSH1 0x20 DUP5 DUP5 MLOAD SWAP1 ISZERO ISZERO DUP2 MSTORE RETURN JUMPDEST SWAP1 SWAP2 SWAP3 POP PUSH6 0xFFFFFFFFFFFF SWAP1 PUSH3 0xED4E00 DUP3 TIMESTAMP AND ADD SWAP1 DUP3 DUP3 GT PUSH2 0xBF2 JUMPI POP PUSH1 0x20 SWAP5 POP DUP2 AND SWAP2 PUSH1 0x30 SHR AND LT ISZERO SWAP1 DUP4 DUP1 PUSH2 0xBB4 JUMP JUMPDEST PUSH4 0x4E487B71 PUSH1 0xE0 SHL DUP2 MSTORE PUSH1 0x11 DUP7 MSTORE PUSH1 0x24 SWAP1 REVERT JUMPDEST SLOAD PUSH10 0x21E19E0C9BAB2400000 GT ISZERO SWAP4 POP DUP6 PUSH2 0xBAD JUMP JUMPDEST POP POP CALLVALUE PUSH2 0x22D JUMPI DUP2 PUSH1 0x3 NOT CALLDATASIZE ADD SLT PUSH2 0x22D JUMPI PUSH1 0x20 SWAP1 MLOAD PUSH3 0x76A700 DUP2 MSTORE RETURN JUMPDEST POP POP CALLVALUE PUSH2 0x22D JUMPI PUSH1 0x20 CALLDATASIZE PUSH1 0x3 NOT ADD SLT PUSH2 0x22D JUMPI PUSH1 0x20 SWAP1 PUSH2 0x880 PUSH2 0xC5A PUSH2 0x12F6 JUMP JUMPDEST PUSH2 0x1382 JUMP JUMPDEST DUP4 DUP4 CALLVALUE PUSH2 0x22D JUMPI DUP1 PUSH1 0x3 NOT CALLDATASIZE ADD SLT PUSH2 0x22D JUMPI PUSH2 0xC79 PUSH2 0x1311 JUMP JUMPDEST SWAP1 CALLER PUSH1 0x1 PUSH1 0x1 PUSH1 0xA0 SHL SUB DUP4 AND SUB PUSH2 0xC96 JUMPI POP PUSH2 0x58A SWAP2 SWAP3 CALLDATALOAD PUSH2 0x1769 JUMP JUMPDEST MLOAD PUSH4 0x334BD919 PUSH1 0xE1 SHL DUP2 MSTORE DUP4 SWAP1 REVERT JUMPDEST POP POP CALLVALUE PUSH2 0x22D JUMPI DUP2 PUSH1 0x3 NOT CALLDATASIZE ADD SLT PUSH2 0x22D JUMPI PUSH1 0x20 SWAP1 MLOAD PUSH11 0x52B7D2DCC80CD2E4000000 DUP2 MSTORE RETURN JUMPDEST POP POP CALLVALUE PUSH2 0x22D JUMPI DUP2 PUSH1 0x3 NOT CALLDATASIZE ADD SLT PUSH2 0x22D JUMPI PUSH1 0x20 SWAP1 MLOAD PUSH1 0x12 DUP2 MSTORE RETURN JUMPDEST SWAP2 SWAP1 POP CALLVALUE PUSH2 0x4DC JUMPI DUP1 PUSH1 0x3 NOT CALLDATASIZE ADD SLT PUSH2 0x4DC JUMPI PUSH2 0x58A SWAP2 CALLDATALOAD PUSH2 0xD0C PUSH1 0x1 PUSH2 0x573 PUSH2 0x1311 JUMP JUMPDEST PUSH2 0x16EE JUMP JUMPDEST SWAP2 SWAP1 POP CALLVALUE PUSH2 0x4DC JUMPI DUP3 PUSH1 0x3 NOT CALLDATASIZE ADD SLT PUSH2 0x4DC JUMPI PUSH2 0xD2C PUSH2 0x1535 JUMP JUMPDEST CALLER DUP4 MSTORE PUSH1 0x7 PUSH1 0x20 MSTORE DUP1 DUP4 KECCAK256 SWAP1 PUSH1 0x1 DUP3 ADD SWAP3 DUP4 SLOAD SWAP3 PUSH1 0xFF DUP5 PUSH1 0x90 SHR AND ISZERO PUSH2 0xE65 JUMPI DUP1 DUP7 SWAP2 SLOAD SWAP3 PUSH6 0xFFFFFFFFFFFF DUP4 SWAP7 PUSH1 0x30 SHR AND TIMESTAMP LT PUSH2 0xDCB JUMPI JUMPDEST POP SWAP1 DUP3 SWAP2 PUSH2 0xD76 DUP7 PUSH2 0xD8B SWAP6 PUSH2 0x135F JUMP JUMPDEST DUP8 SLOAD PUSH1 0xFF PUSH1 0x90 SHL NOT AND SWAP1 SWAP8 SSTORE SSTORE PUSH1 0x8 SLOAD PUSH2 0x135F JUMP JUMPDEST PUSH1 0x8 SSTORE PUSH2 0xD99 DUP4 CALLER ADDRESS PUSH2 0x1457 JUMP JUMPDEST MLOAD SWAP1 DUP2 MSTORE PUSH32 0x7FC4727E062E336010F2C282598EF5F14FACB3DE68CF8195C2F23E1454B2B74E PUSH1 0x20 CALLER SWAP3 LOG3 PUSH1 0x1 PUSH1 0x6 SSTORE DUP1 RETURN JUMPDEST SWAP2 POP SWAP4 POP PUSH2 0x9C4 SWAP1 DUP2 DUP4 MUL SWAP2 DUP4 DUP4 DIV EQ DUP4 ISZERO OR ISZERO PUSH2 0xE52 JUMPI POP SWAP1 DUP6 PUSH2 0x2710 PUSH2 0xD8B SWAP4 DIV SWAP5 PUSH2 0xDF9 DUP7 ADDRESS PUSH2 0x1558 JUMP JUMPDEST DUP6 DUP6 MLOAD PUSH1 0x20 DUP2 MSTORE PUSH1 0x15 PUSH1 0x20 DUP3 ADD MSTORE PUSH21 0x6561726C795F756E7374616B655F70656E616C7479 PUSH1 0x58 SHL DUP8 DUP3 ADD MSTORE PUSH32 0xFAD31924D655455395C87544C8AA1FFDB5A7505A22A3C2E03F28003B6556A75F PUSH1 0x60 CALLER SWAP3 LOG3 SWAP1 SWAP2 SWAP3 PUSH2 0xD65 JUMP JUMPDEST PUSH4 0x4E487B71 PUSH1 0xE0 SHL DUP8 MSTORE PUSH1 0x11 SWAP1 MSTORE PUSH1 0x24 DUP7 REVERT JUMPDEST POP PUSH1 0x20 PUSH1 0x64 SWAP3 MLOAD SWAP2 PUSH3 0x461BCD PUSH1 0xE5 SHL DUP4 MSTORE DUP3 ADD MSTORE PUSH1 0x14 PUSH1 0x24 DUP3 ADD MSTORE PUSH20 0x4953533A206E6F20616374697665207374616B65 PUSH1 0x60 SHL PUSH1 0x44 DUP3 ADD MSTORE REVERT JUMPDEST SWAP1 POP CALLVALUE PUSH2 0x4DC JUMPI PUSH1 0x20 CALLDATASIZE PUSH1 0x3 NOT ADD SLT PUSH2 0x4DC JUMPI DUP2 PUSH1 0x20 SWAP4 PUSH1 0x1 SWAP3 CALLDATALOAD DUP2 MSTORE PUSH1 0x5 DUP6 MSTORE KECCAK256 ADD SLOAD SWAP1 MLOAD SWAP1 DUP2 MSTORE RETURN JUMPDEST SWAP1 POP DUP3 CALLVALUE PUSH2 0xFBE JUMPI PUSH1 0x60 CALLDATASIZE PUSH1 0x3 NOT ADD SLT PUSH2 0xFBE JUMPI PUSH2 0xEE6 PUSH2 0x12F6 JUMP JUMPDEST PUSH2 0xEEE PUSH2 0x1311 JUMP JUMPDEST SWAP2 PUSH1 0x44 CALLDATALOAD SWAP4 PUSH1 0x1 DUP1 PUSH1 0xA0 SHL SUB DUP4 AND DUP1 DUP4 MSTORE PUSH1 0x1 PUSH1 0x20 MSTORE DUP7 DUP4 KECCAK256 CALLER DUP5 MSTORE PUSH1 0x20 MSTORE DUP7 DUP4 KECCAK256 SLOAD SWAP2 PUSH1 0x0 NOT DUP4 LT PUSH2 0xF2A JUMPI JUMPDEST PUSH1 0x20 DUP9 PUSH2 0x8B1 DUP10 DUP10 DUP10 PUSH2 0x1457 JUMP JUMPDEST DUP7 DUP4 LT PUSH2 0xF92 JUMPI DUP2 ISZERO PUSH2 0xF7B JUMPI CALLER ISZERO PUSH2 0xF64 JUMPI POP DUP3 MSTORE PUSH1 0x1 PUSH1 0x20 SWAP1 DUP2 MSTORE DUP7 DUP4 KECCAK256 CALLER DUP5 MSTORE DUP2 MSTORE SWAP2 DUP7 SWAP1 KECCAK256 SWAP1 DUP6 SWAP1 SUB SWAP1 SSTORE DUP3 SWAP1 PUSH2 0x8B1 DUP8 PUSH2 0xF1C JUMP JUMPDEST DUP8 MLOAD PUSH4 0x4A1406B1 PUSH1 0xE1 SHL DUP2 MSTORE SWAP1 DUP2 ADD DUP5 SWAP1 MSTORE PUSH1 0x24 SWAP1 REVERT JUMPDEST DUP8 MLOAD PUSH4 0xE602DF05 PUSH1 0xE0 SHL DUP2 MSTORE SWAP1 DUP2 ADD DUP5 SWAP1 MSTORE PUSH1 0x24 SWAP1 REVERT JUMPDEST DUP8 MLOAD PUSH4 0x7DC7A0D9 PUSH1 0xE1 SHL DUP2 MSTORE CALLER SWAP2 DUP2 ADD SWAP2 DUP3 MSTORE PUSH1 0x20 DUP3 ADD SWAP4 SWAP1 SWAP4 MSTORE PUSH1 0x40 DUP2 ADD DUP8 SWAP1 MSTORE DUP3 SWAP2 POP PUSH1 0x60 ADD SUB SWAP1 REVERT JUMPDEST DUP1 REVERT JUMPDEST POP POP CALLVALUE PUSH2 0x22D JUMPI DUP2 PUSH1 0x3 NOT CALLDATASIZE ADD SLT PUSH2 0x22D JUMPI PUSH1 0x20 SWAP1 MLOAD PUSH2 0x7D0 DUP2 MSTORE RETURN JUMPDEST POP POP CALLVALUE PUSH2 0x22D JUMPI DUP2 PUSH1 0x3 NOT CALLDATASIZE ADD SLT PUSH2 0x22D JUMPI PUSH1 0x20 SWAP1 MLOAD PUSH10 0x10F0CF064DD59200000 DUP2 MSTORE RETURN JUMPDEST POP POP CALLVALUE PUSH2 0x22D JUMPI DUP2 PUSH1 0x3 NOT CALLDATASIZE ADD SLT PUSH2 0x22D JUMPI PUSH1 0x20 SWAP1 PUSH1 0x2 SLOAD SWAP1 MLOAD SWAP1 DUP2 MSTORE RETURN JUMPDEST POP POP CALLVALUE PUSH2 0x22D JUMPI PUSH1 0x20 CALLDATASIZE PUSH1 0x3 NOT ADD SLT PUSH2 0x22D JUMPI PUSH1 0xA0 SWAP2 PUSH1 0xFF SWAP1 DUP3 SWAP1 PUSH1 0x1 PUSH1 0x1 PUSH1 0xA0 SHL SUB PUSH2 0x104D PUSH2 0x12F6 JUMP JUMPDEST AND DUP2 MSTORE PUSH1 0x7 PUSH1 0x20 MSTORE KECCAK256 SWAP2 PUSH1 0x1 DUP4 SLOAD SWAP4 ADD SLOAD SWAP1 PUSH6 0xFFFFFFFFFFFF SWAP1 DUP1 MLOAD SWAP5 DUP6 MSTORE DUP2 DUP4 AND PUSH1 0x20 DUP7 ADD MSTORE DUP2 DUP4 PUSH1 0x30 SHR AND SWAP1 DUP6 ADD MSTORE DUP2 PUSH1 0x60 SHR AND PUSH1 0x60 DUP5 ADD MSTORE PUSH1 0x90 SHR AND ISZERO ISZERO PUSH1 0x80 DUP3 ADD MSTORE RETURN JUMPDEST SWAP1 POP CALLVALUE PUSH2 0x4DC JUMPI DUP2 PUSH1 0x3 NOT CALLDATASIZE ADD SLT PUSH2 0x4DC JUMPI PUSH2 0x10AF PUSH2 0x12F6 JUMP JUMPDEST PUSH1 0x24 CALLDATALOAD SWAP1 CALLER ISZERO PUSH2 0x1128 JUMPI PUSH1 0x1 PUSH1 0x1 PUSH1 0xA0 SHL SUB AND SWAP2 DUP3 ISZERO PUSH2 0x1111 JUMPI POP DUP1 DUP4 PUSH1 0x20 SWAP6 CALLER DUP2 MSTORE PUSH1 0x1 DUP8 MSTORE DUP2 DUP2 KECCAK256 DUP6 DUP3 MSTORE DUP8 MSTORE KECCAK256 SSTORE DUP3 MLOAD SWAP1 DUP2 MSTORE PUSH32 0x8C5BE1E5EBEC7D5BD14F71427D1E84F3DD0314C0F7B2291E5B200AC8C7C3B925 DUP5 CALLER SWAP3 LOG3 MLOAD PUSH1 0x1 DUP2 MSTORE RETURN JUMPDEST DUP4 MLOAD PUSH4 0x4A1406B1 PUSH1 0xE1 SHL DUP2 MSTORE SWAP1 DUP2 ADD DUP6 SWAP1 MSTORE PUSH1 0x24 SWAP1 REVERT JUMPDEST DUP4 MLOAD PUSH4 0xE602DF05 PUSH1 0xE0 SHL DUP2 MSTORE DUP1 DUP5 ADD DUP7 SWAP1 MSTORE PUSH1 0x24 SWAP1 REVERT JUMPDEST POP POP CALLVALUE PUSH2 0x22D JUMPI DUP2 PUSH1 0x3 NOT CALLDATASIZE ADD SLT PUSH2 0x22D JUMPI PUSH1 0x20 SWAP1 MLOAD PUSH9 0x3635C9ADC5DEA00000 DUP2 MSTORE RETURN JUMPDEST SWAP2 SWAP1 POP CALLVALUE PUSH2 0x4DC JUMPI DUP3 PUSH1 0x3 NOT CALLDATASIZE ADD SLT PUSH2 0x4DC JUMPI DUP1 MLOAD SWAP2 DUP4 PUSH1 0x3 SLOAD SWAP1 PUSH1 0x1 SWAP1 DUP3 PUSH1 0x1 SHR SWAP3 PUSH1 0x1 DUP2 AND DUP1 ISZERO PUSH2 0x1250 JUMPI JUMPDEST PUSH1 0x20 SWAP6 DUP7 DUP7 LT DUP3 EQ PUSH2 0x123D JUMPI POP DUP5 DUP9 MSTORE SWAP1 DUP2 ISZERO PUSH2 0x121B JUMPI POP PUSH1 0x1 EQ PUSH2 0x11C2 JUMPI JUMPDEST PUSH2 0x99B DUP7 DUP7 PUSH2 0x991 DUP3 DUP12 SUB DUP4 PUSH2 0x1327 JUMP JUMPDEST SWAP3 SWAP6 POP PUSH1 0x3 DUP4 MSTORE PUSH32 0xC2575A0E9E593C00F959F8C92F12DB2869C3395A3B0502D05E2516446F71F85B JUMPDEST DUP3 DUP5 LT PUSH2 0x1208 JUMPI POP POP POP DUP3 PUSH2 0x99B SWAP5 PUSH2 0x991 SWAP3 DUP3 ADD ADD SWAP5 CODESIZE PUSH2 0x11B1 JUMP JUMPDEST DUP1 SLOAD DUP7 DUP6 ADD DUP9 ADD MSTORE SWAP3 DUP7 ADD SWAP3 DUP2 ADD PUSH2 0x11EB JUMP JUMPDEST PUSH1 0xFF NOT AND DUP8 DUP7 ADD MSTORE POP POP POP ISZERO ISZERO PUSH1 0x5 SHL DUP4 ADD ADD SWAP3 POP PUSH2 0x991 DUP3 PUSH2 0x99B CODESIZE PUSH2 0x11B1 JUMP JUMPDEST PUSH4 0x4E487B71 PUSH1 0xE0 SHL DUP5 MSTORE PUSH1 0x22 SWAP1 MSTORE PUSH1 0x24 DUP4 REVERT JUMPDEST SWAP4 PUSH1 0x7F AND SWAP4 PUSH2 0x1191 JUMP JUMPDEST DUP5 SWAP2 CALLVALUE PUSH2 0x4DC JUMPI PUSH1 0x20 CALLDATASIZE PUSH1 0x3 NOT ADD SLT PUSH2 0x4DC JUMPI CALLDATALOAD PUSH4 0xFFFFFFFF PUSH1 0xE0 SHL DUP2 AND DUP1 SWAP2 SUB PUSH2 0x4DC JUMPI PUSH1 0x20 SWAP3 POP PUSH4 0x7965DB0B PUSH1 0xE0 SHL DUP2 EQ SWAP1 DUP2 ISZERO PUSH2 0x129C JUMPI JUMPDEST POP ISZERO ISZERO DUP2 MSTORE RETURN JUMPDEST PUSH4 0x1FFC9A7 PUSH1 0xE0 SHL EQ SWAP1 POP DUP4 PUSH2 0x1295 JUMP JUMPDEST PUSH1 0x20 DUP1 DUP3 MSTORE DUP3 MLOAD DUP2 DUP4 ADD DUP2 SWAP1 MSTORE SWAP1 SWAP4 SWAP3 PUSH1 0x0 JUMPDEST DUP3 DUP2 LT PUSH2 0x12E2 JUMPI POP POP PUSH1 0x40 SWAP3 SWAP4 POP PUSH1 0x0 DUP4 DUP3 DUP5 ADD ADD MSTORE PUSH1 0x1F DUP1 NOT SWAP2 ADD AND ADD ADD SWAP1 JUMP JUMPDEST DUP2 DUP2 ADD DUP7 ADD MLOAD DUP5 DUP3 ADD PUSH1 0x40 ADD MSTORE DUP6 ADD PUSH2 0x12C0 JUMP JUMPDEST PUSH1 0x4 CALLDATALOAD SWAP1 PUSH1 0x1 PUSH1 0x1 PUSH1 0xA0 SHL SUB DUP3 AND DUP3 SUB PUSH2 0x130C JUMPI JUMP JUMPDEST PUSH1 0x0 DUP1 REVERT JUMPDEST PUSH1 0x24 CALLDATALOAD SWAP1 PUSH1 0x1 PUSH1 0x1 PUSH1 0xA0 SHL SUB DUP3 AND DUP3 SUB PUSH2 0x130C JUMPI JUMP JUMPDEST SWAP1 PUSH1 0x1F DUP1 NOT SWAP2 ADD AND DUP2 ADD SWAP1 DUP2 LT PUSH8 0xFFFFFFFFFFFFFFFF DUP3 GT OR PUSH2 0x1349 JUMPI PUSH1 0x40 MSTORE JUMP JUMPDEST PUSH4 0x4E487B71 PUSH1 0xE0 SHL PUSH1 0x0 MSTORE PUSH1 0x41 PUSH1 0x4 MSTORE PUSH1 0x24 PUSH1 0x0 REVERT JUMPDEST SWAP2 SWAP1 DUP3 SUB SWAP2 DUP3 GT PUSH2 0x136C JUMPI JUMP JUMPDEST PUSH4 0x4E487B71 PUSH1 0xE0 SHL PUSH1 0x0 MSTORE PUSH1 0x11 PUSH1 0x4 MSTORE PUSH1 0x24 PUSH1 0x0 REVERT JUMPDEST PUSH1 0x1 PUSH1 0x1 PUSH1 0xA0 SHL SUB AND PUSH1 0x0 SWAP1 DUP2 MSTORE PUSH1 0x9 PUSH1 0x20 MSTORE PUSH1 0x40 SWAP1 KECCAK256 PUSH1 0x2 DUP2 ADD SLOAD PUSH1 0x60 SHR PUSH1 0xFF AND ISZERO PUSH2 0x13B5 JUMPI PUSH2 0x13B2 SWAP1 PUSH2 0x17E0 JUMP JUMPDEST SWAP1 JUMP JUMPDEST POP PUSH1 0x0 SWAP1 JUMP JUMPDEST SWAP2 SWAP1 SWAP2 PUSH6 0xFFFFFFFFFFFF DUP1 DUP1 SWAP5 AND SWAP2 AND ADD SWAP2 DUP3 GT PUSH2 0x136C JUMPI JUMP JUMPDEST PUSH1 0x1 PUSH1 0x1 PUSH1 0xA0 SHL SUB AND PUSH1 0x0 SWAP1 DUP2 MSTORE PUSH1 0x7 PUSH1 0x20 MSTORE PUSH1 0x40 SWAP1 KECCAK256 PUSH1 0x1 DUP2 ADD SLOAD PUSH1 0x90 SHR PUSH1 0xFF AND ISZERO PUSH2 0x13B5 JUMPI SLOAD PUSH10 0x21E19E0C9BAB2400000 DUP2 LT ISZERO PUSH2 0x1443 JUMPI PUSH10 0x10F0CF064DD59200000 DUP2 LT ISZERO PUSH2 0x143C JUMPI PUSH9 0x3635C9ADC5DEA00000 GT ISZERO PUSH2 0x1436 JUMPI PUSH1 0x0 SWAP1 JUMP JUMPDEST PUSH2 0x7D0 SWAP1 JUMP JUMPDEST POP PUSH2 0xDAC SWAP1 JUMP JUMPDEST POP PUSH2 0x1388 SWAP1 JUMP JUMPDEST SWAP2 SWAP1 DUP3 ADD DUP1 SWAP3 GT PUSH2 0x136C JUMPI JUMP JUMPDEST SWAP2 PUSH1 0x1 PUSH1 0x1 PUSH1 0xA0 SHL SUB DUP1 DUP5 AND SWAP3 DUP4 ISZERO PUSH2 0x151C JUMPI AND SWAP3 DUP4 ISZERO PUSH2 0x1503 JUMPI PUSH1 0x0 SWAP1 DUP4 DUP3 MSTORE DUP2 PUSH1 0x20 MSTORE PUSH1 0x40 DUP3 KECCAK256 SLOAD SWAP1 DUP4 DUP3 LT PUSH2 0x14D1 JUMPI POP SWAP2 PUSH1 0x40 DUP3 DUP3 PUSH32 0xDDF252AD1BE2C89B69C2B068FC378DAA952BA7F163C4A11628F55A4DF523B3EF SWAP6 DUP8 PUSH1 0x20 SWAP7 MSTORE DUP3 DUP7 MSTORE SUB DUP3 DUP3 KECCAK256 SSTORE DUP7 DUP2 MSTORE KECCAK256 DUP2 DUP2 SLOAD ADD SWAP1 SSTORE PUSH1 0x40 MLOAD SWAP1 DUP2 MSTORE LOG3 JUMP JUMPDEST PUSH1 0x40 MLOAD PUSH4 0x391434E3 PUSH1 0xE2 SHL DUP2 MSTORE PUSH1 0x1 PUSH1 0x1 PUSH1 0xA0 SHL SUB SWAP2 SWAP1 SWAP2 AND PUSH1 0x4 DUP3 ADD MSTORE PUSH1 0x24 DUP2 ADD SWAP2 SWAP1 SWAP2 MSTORE PUSH1 0x44 DUP2 ADD DUP4 SWAP1 MSTORE PUSH1 0x64 SWAP1 REVERT JUMPDEST PUSH1 0x40 MLOAD PUSH4 0xEC442F05 PUSH1 0xE0 SHL DUP2 MSTORE PUSH1 0x0 PUSH1 0x4 DUP3 ADD MSTORE PUSH1 0x24 SWAP1 REVERT JUMPDEST PUSH1 0x40 MLOAD PUSH4 0x4B637E8F PUSH1 0xE1 SHL DUP2 MSTORE PUSH1 0x0 PUSH1 0x4 DUP3 ADD MSTORE PUSH1 0x24 SWAP1 REVERT JUMPDEST PUSH1 0x2 PUSH1 0x6 SLOAD EQ PUSH2 0x1546 JUMPI PUSH1 0x2 PUSH1 0x6 SSTORE JUMP JUMPDEST PUSH1 0x40 MLOAD PUSH4 0x3EE5AEB5 PUSH1 0xE0 SHL DUP2 MSTORE PUSH1 0x4 SWAP1 REVERT JUMPDEST SWAP1 PUSH1 0x1 PUSH1 0x1 PUSH1 0xA0 SHL SUB DUP3 AND SWAP1 DUP2 ISZERO PUSH2 0x151C JUMPI PUSH1 0x0 SWAP3 DUP3 DUP5 MSTORE DUP4 PUSH1 0x20 MSTORE PUSH1 0x40 DUP5 KECCAK256 SLOAD SWAP1 DUP3 DUP3 LT PUSH2 0x15C5 JUMPI POP DUP2 PUSH32 0xDDF252AD1BE2C89B69C2B068FC378DAA952BA7F163C4A11628F55A4DF523B3EF SWAP3 PUSH1 0x20 SWAP3 DUP6 DUP8 MSTORE DUP7 DUP5 MSTORE SUB PUSH1 0x40 DUP7 KECCAK256 SSTORE DUP1 PUSH1 0x2 SLOAD SUB PUSH1 0x2 SSTORE PUSH1 0x40 MLOAD SWAP1 DUP2 MSTORE LOG3 JUMP JUMPDEST PUSH1 0x40 MLOAD PUSH4 0x391434E3 PUSH1 0xE2 SHL DUP2 MSTORE PUSH1 0x1 PUSH1 0x1 PUSH1 0xA0 SHL SUB SWAP2 SWAP1 SWAP2 AND PUSH1 0x4 DUP3 ADD MSTORE PUSH1 0x24 DUP2 ADD SWAP2 SWAP1 SWAP2 MSTORE PUSH1 0x44 DUP2 ADD DUP3 SWAP1 MSTORE PUSH1 0x64 SWAP1 REVERT JUMPDEST DUP1 PUSH1 0x0 MSTORE PUSH1 0x5 PUSH1 0x20 MSTORE PUSH1 0x40 PUSH1 0x0 KECCAK256 CALLER PUSH1 0x0 MSTORE PUSH1 0x20 MSTORE PUSH1 0xFF PUSH1 0x40 PUSH1 0x0 KECCAK256 SLOAD AND ISZERO PUSH2 0x161D JUMPI POP JUMP JUMPDEST PUSH1 0x44 SWAP1 PUSH1 0x40 MLOAD SWAP1 PUSH4 0xE2517D3F PUSH1 0xE0 SHL DUP3 MSTORE CALLER PUSH1 0x4 DUP4 ADD MSTORE PUSH1 0x24 DUP3 ADD MSTORE REVERT JUMPDEST PUSH1 0x1 PUSH1 0x1 PUSH1 0xA0 SHL SUB AND PUSH1 0x0 DUP2 DUP2 MSTORE PUSH32 0x876F28074A6D2B0EC949F62D34618DD94FC26188A75E5665877C78CD325D5C48 PUSH1 0x20 MSTORE PUSH1 0x40 DUP2 KECCAK256 SLOAD SWAP1 SWAP2 SWAP1 PUSH32 0x797343F8D6A29AAFEB3AAF0910A8973E0081C60C2F6C1F775CD9F76EA348FC1E SWAP1 PUSH1 0xFF AND PUSH2 0x16E9 JUMPI DUP1 DUP4 MSTORE PUSH1 0x5 PUSH1 0x20 MSTORE PUSH1 0x40 DUP4 KECCAK256 DUP3 DUP5 MSTORE PUSH1 0x20 MSTORE PUSH1 0x40 DUP4 KECCAK256 PUSH1 0x1 PUSH1 0xFF NOT DUP3 SLOAD AND OR SWAP1 SSTORE PUSH32 0x2F8788117E7EFF1D82E926EC794901D17C78024A50270940304540A733656F0D CALLER SWAP4 DUP1 LOG4 PUSH1 0x1 SWAP1 JUMP JUMPDEST POP POP SWAP1 JUMP JUMPDEST SWAP1 PUSH1 0x0 SWAP2 DUP1 DUP4 MSTORE PUSH1 0x5 PUSH1 0x20 MSTORE PUSH1 0x40 DUP4 KECCAK256 SWAP2 PUSH1 0x1 DUP1 PUSH1 0xA0 SHL SUB AND SWAP2 DUP3 DUP5 MSTORE PUSH1 0x20 MSTORE PUSH1 0xFF PUSH1 0x40 DUP5 KECCAK256 SLOAD AND ISZERO PUSH1 0x0 EQ PUSH2 0x16E9 JUMPI DUP1 DUP4 MSTORE PUSH1 0x5 PUSH1 0x20 MSTORE PUSH1 0x40 DUP4 KECCAK256 DUP3 DUP5 MSTORE PUSH1 0x20 MSTORE PUSH1 0x40 DUP4 KECCAK256 PUSH1 0x1 PUSH1 0xFF NOT DUP3 SLOAD AND OR SWAP1 SSTORE PUSH32 0x2F8788117E7EFF1D82E926EC794901D17C78024A50270940304540A733656F0D CALLER SWAP4 DUP1 LOG4 PUSH1 0x1 SWAP1 JUMP JUMPDEST SWAP1 PUSH1 0x0 SWAP2 DUP1 DUP4 MSTORE PUSH1 0x5 PUSH1 0x20 MSTORE PUSH1 0x40 DUP4 KECCAK256 SWAP2 PUSH1 0x1 DUP1 PUSH1 0xA0 SHL SUB AND SWAP2 DUP3 DUP5 MSTORE PUSH1 0x20 MSTORE PUSH1 0xFF PUSH1 0x40 DUP5 KECCAK256 SLOAD AND PUSH1 0x0 EQ PUSH2 0x16E9 JUMPI DUP1 DUP4 MSTORE PUSH1 0x5 PUSH1 0x20 MSTORE PUSH1 0x40 DUP4 KECCAK256 DUP3 DUP5 MSTORE PUSH1 0x20 MSTORE PUSH1 0x40 DUP4 KECCAK256 PUSH1 0xFF NOT DUP2 SLOAD AND SWAP1 SSTORE PUSH32 0xF6391F5C32D9C69D2A47EA670B442974B53935D1EDC7FD64EB21E047A839171B CALLER SWAP4 DUP1 LOG4 PUSH1 0x1 SWAP1 JUMP JUMPDEST PUSH1 0x2 DUP2 ADD SLOAD PUSH6 0xFFFFFFFFFFFF DUP1 DUP3 AND SWAP2 DUP3 TIMESTAMP LT PUSH2 0x1853 JUMPI DUP2 SWAP1 PUSH1 0x30 SHR AND SWAP2 DUP3 TIMESTAMP LT ISZERO PUSH2 0x184C JUMPI PUSH2 0x1810 DUP2 TIMESTAMP PUSH2 0x135F JUMP JUMPDEST SWAP3 SUB DUP2 DUP2 GT PUSH2 0x136C JUMPI AND SWAP2 SLOAD DUP2 DUP2 MUL SWAP2 DUP2 DUP4 DIV EQ SWAP1 ISZERO OR ISZERO PUSH2 0x136C JUMPI DUP2 ISZERO PUSH2 0x1836 JUMPI DIV SWAP1 JUMP JUMPDEST PUSH4 0x4E487B71 PUSH1 0xE0 SHL PUSH1 0x0 MSTORE PUSH1 0x12 PUSH1 0x4 MSTORE PUSH1 0x24 PUSH1 0x0 REVERT JUMPDEST POP POP POP SLOAD SWAP1 JUMP JUMPDEST POP POP POP POP PUSH1 0x0 SWAP1 JUMP INVALID LOG2 PUSH5 0x6970667358 0x22 SLT KECCAK256 0xAB PUSH21 0xC01BD734C914D0DE6538620B6D7AFA2ADA1B3C4999 JUMP 0xF 0xDA 0xC0 SWAP6 CHAINID CALLCODE PUSH29 0xF464736F6C634300081800332F8788117E7EFF1D82E926EC794901D17C PUSH25 0x24A50270940304540A733656F0DAD63AEEC6E410E2826F7D5 DUP16 0xA5 PC PUSH29 0x54D898B72068C46E07D49415D23A71916B000000000000000000000000 "},"methodIdentifiers":{"BURN_RATE_BPS()":"2300f410","DEFAULT_ADMIN_ROLE()":"a217fddf","EARLY_UNSTAKE_PENALTY_BPS()":"79492bda","LOCK_12M()":"708cfc7b","LOCK_3M()":"39293aba","LOCK_6M()":"84318323","MAX_SUPPLY()":"32cb6b0c","PLATFORM_ROLE()":"70824c5c","TIER1_STAKE()":"095cf187","TIER2_STAKE()":"1f0c1481","TIER3_STAKE()":"d6918be1","allowance(address,address)":"dd62ed3e","approve(address,uint256)":"095ea7b3","balanceOf(address)":"70a08231","claimVested()":"d01c44cd","decimals()":"313ce567","getFeeDiscount(address)":"b7fa7cfc","getRoleAdmin(bytes32)":"248a9ca3","grantPlatformRole(address)":"a1b146c8","grantRole(bytes32,address)":"2f2ff15d","hasPriorityAccess(address)":"41cf742c","hasRole(bytes32,address)":"91d14854","name()":"06fdde03","processFeePayment(address,uint256)":"c742d093","renounceRole(bytes32,address)":"36568abe","revokeRole(bytes32,address)":"d547741f","stake(uint256,uint48)":"fa897ed7","stakes(address)":"16934fc4","supportsInterface(bytes4)":"01ffc9a7","symbol()":"95d89b41","totalStaked()":"817b1cd2","totalSupply()":"18160ddd","transfer(address,uint256)":"a9059cbb","transferFrom(address,address,uint256)":"23b872dd","unstake()":"2def6620","vestedAmount(address)":"384711cc","vestingSchedules(address)":"fdb20ccb"}}}}}