{"contracts/STOFactory.sol":{"STOFactory":{"abi":[{"inputs":[{"internalType":"address","name":"identityRegistry_","type":"address"},{"internalType":"address","name":"usdc_","type":"address"},{"internalType":"address","name":"feeTreasury_","type":"address"},{"internalType":"address","name":"admin","type":"address"},{"internalType":"address","name":"operator","type":"address"}],"stateMutability":"nonpayable","type":"constructor"},{"inputs":[],"name":"AccessControlBadConfirmation","type":"error"},{"inputs":[{"internalType":"address","name":"account","type":"address"},{"internalType":"bytes32","name":"neededRole","type":"bytes32"}],"name":"AccessControlUnauthorizedAccount","type":"error"},{"inputs":[],"name":"ReentrancyGuardReentrantCall","type":"error"},{"anonymous":false,"inputs":[{"indexed":true,"internalType":"uint16","name":"oldBps","type":"uint16"},{"indexed":true,"internalType":"uint16","name":"newBps","type":"uint16"}],"name":"DefaultFeeUpdated","type":"event"},{"anonymous":false,"inputs":[{"indexed":true,"internalType":"address","name":"oldTreasury","type":"address"},{"indexed":true,"internalType":"address","name":"newTreasury","type":"address"}],"name":"FeeTreasuryUpdated","type":"event"},{"anonymous":false,"inputs":[{"indexed":true,"internalType":"bytes32","name":"stoId","type":"bytes32"},{"indexed":true,"internalType":"address","name":"investor","type":"address"},{"indexed":false,"internalType":"uint256","name":"usdcAmount","type":"uint256"},{"indexed":false,"internalType":"uint256","name":"tokens","type":"uint256"}],"name":"InvestmentProcessed","type":"event"},{"anonymous":false,"inputs":[{"indexed":true,"internalType":"bytes32","name":"role","type":"bytes32"},{"indexed":true,"internalType":"bytes32","name":"previousAdminRole","type":"bytes32"},{"indexed":true,"internalType":"bytes32","name":"newAdminRole","type":"bytes32"}],"name":"RoleAdminChanged","type":"event"},{"anonymous":false,"inputs":[{"indexed":true,"internalType":"bytes32","name":"role","type":"bytes32"},{"indexed":true,"internalType":"address","name":"account","type":"address"},{"indexed":true,"internalType":"address","name":"sender","type":"address"}],"name":"RoleGranted","type":"event"},{"anonymous":false,"inputs":[{"indexed":true,"internalType":"bytes32","name":"role","type":"bytes32"},{"indexed":true,"internalType":"address","name":"account","type":"address"},{"indexed":true,"internalType":"address","name":"sender","type":"address"}],"name":"RoleRevoked","type":"event"},{"anonymous":false,"inputs":[{"indexed":true,"internalType":"bytes32","name":"stoId","type":"bytes32"},{"indexed":true,"internalType":"address","name":"tokenAddress","type":"address"},{"indexed":true,"internalType":"address","name":"issuer","type":"address"},{"indexed":false,"internalType":"string","name":"name","type":"string"},{"indexed":false,"internalType":"string","name":"assetType","type":"string"},{"indexed":false,"internalType":"uint256","name":"targetRaise","type":"uint256"}],"name":"STOCreated","type":"event"},{"anonymous":false,"inputs":[{"indexed":true,"internalType":"bytes32","name":"stoId","type":"bytes32"},{"indexed":false,"internalType":"string","name":"reason","type":"string"}],"name":"STODeactivated","type":"event"},{"inputs":[],"name":"COMPLIANCE_ROLE","outputs":[{"internalType":"bytes32","name":"","type":"bytes32"}],"stateMutability":"view","type":"function"},{"inputs":[],"name":"DEFAULT_ADMIN_ROLE","outputs":[{"internalType":"bytes32","name":"","type":"bytes32"}],"stateMutability":"view","type":"function"},{"inputs":[],"name":"OPERATOR_ROLE","outputs":[{"internalType":"bytes32","name":"","type":"bytes32"}],"stateMutability":"view","type":"function"},{"inputs":[{"internalType":"uint256","name":"","type":"uint256"}],"name":"allSTOIds","outputs":[{"internalType":"bytes32","name":"","type":"bytes32"}],"stateMutability":"view","type":"function"},{"inputs":[{"components":[{"internalType":"string","name":"name","type":"string"},{"internalType":"string","name":"symbol","type":"string"},{"internalType":"string","name":"assetType","type":"string"},{"internalType":"uint256","name":"targetRaise","type":"uint256"},{"internalType":"uint256","name":"tokenPrice","type":"uint256"},{"internalType":"uint256","name":"maxSupply","type":"uint256"},{"internalType":"uint256","name":"minInvestment","type":"uint256"},{"internalType":"uint16[]","name":"allowedCountries","type":"uint16[]"},{"internalType":"uint48","name":"closingDate","type":"uint48"},{"internalType":"address","name":"issuer","type":"address"},{"internalType":"address","name":"treasury","type":"address"},{"internalType":"uint16","name":"feeBps","type":"uint16"}],"internalType":"struct ISecurityToken.STOConfig","name":"config","type":"tuple"},{"internalType":"address","name":"complianceOfficer","type":"address"}],"name":"createSTO","outputs":[{"internalType":"bytes32","name":"stoId","type":"bytes32"},{"internalType":"address","name":"tokenAddress","type":"address"}],"stateMutability":"nonpayable","type":"function"},{"inputs":[{"internalType":"bytes32","name":"stoId","type":"bytes32"},{"internalType":"string","name":"reason","type":"string"}],"name":"deactivateSTO","outputs":[],"stateMutability":"nonpayable","type":"function"},{"inputs":[],"name":"defaultFeeBps","outputs":[{"internalType":"uint16","name":"","type":"uint16"}],"stateMutability":"view","type":"function"},{"inputs":[],"name":"feeTreasury","outputs":[{"internalType":"address","name":"","type":"address"}],"stateMutability":"view","type":"function"},{"inputs":[],"name":"getAllSTOIds","outputs":[{"internalType":"bytes32[]","name":"","type":"bytes32[]"}],"stateMutability":"view","type":"function"},{"inputs":[{"internalType":"address","name":"issuer","type":"address"}],"name":"getIssuerSTOs","outputs":[{"internalType":"bytes32[]","name":"","type":"bytes32[]"}],"stateMutability":"view","type":"function"},{"inputs":[{"internalType":"bytes32","name":"role","type":"bytes32"}],"name":"getRoleAdmin","outputs":[{"internalType":"bytes32","name":"","type":"bytes32"}],"stateMutability":"view","type":"function"},{"inputs":[{"internalType":"bytes32","name":"stoId","type":"bytes32"}],"name":"getSTORecord","outputs":[{"components":[{"internalType":"address","name":"tokenAddress","type":"address"},{"internalType":"address","name":"issuer","type":"address"},{"internalType":"string","name":"name","type":"string"},{"internalType":"string","name":"assetType","type":"string"},{"internalType":"uint256","name":"targetRaise","type":"uint256"},{"internalType":"uint48","name":"createdAt","type":"uint48"},{"internalType":"bool","name":"active","type":"bool"}],"internalType":"struct STOFactory.STORecord","name":"","type":"tuple"}],"stateMutability":"view","type":"function"},{"inputs":[{"internalType":"bytes32","name":"role","type":"bytes32"},{"internalType":"address","name":"account","type":"address"}],"name":"grantRole","outputs":[],"stateMutability":"nonpayable","type":"function"},{"inputs":[{"internalType":"bytes32","name":"role","type":"bytes32"},{"internalType":"address","name":"account","type":"address"}],"name":"hasRole","outputs":[{"internalType":"bool","name":"","type":"bool"}],"stateMutability":"view","type":"function"},{"inputs":[],"name":"identityRegistry","outputs":[{"internalType":"address","name":"","type":"address"}],"stateMutability":"view","type":"function"},{"inputs":[{"internalType":"bytes32","name":"stoId","type":"bytes32"},{"internalType":"uint256","name":"usdcAmount","type":"uint256"}],"name":"invest","outputs":[],"stateMutability":"nonpayable","type":"function"},{"inputs":[{"internalType":"address","name":"","type":"address"},{"internalType":"uint256","name":"","type":"uint256"}],"name":"issuerSTOs","outputs":[{"internalType":"bytes32","name":"","type":"bytes32"}],"stateMutability":"view","type":"function"},{"inputs":[{"internalType":"bytes32","name":"role","type":"bytes32"},{"internalType":"address","name":"callerConfirmation","type":"address"}],"name":"renounceRole","outputs":[],"stateMutability":"nonpayable","type":"function"},{"inputs":[{"internalType":"bytes32","name":"role","type":"bytes32"},{"internalType":"address","name":"account","type":"address"}],"name":"revokeRole","outputs":[],"stateMutability":"nonpayable","type":"function"},{"inputs":[{"internalType":"uint16","name":"newBps","type":"uint16"}],"name":"setDefaultFeeBps","outputs":[],"stateMutability":"nonpayable","type":"function"},{"inputs":[{"internalType":"address","name":"newTreasury","type":"address"}],"name":"setFeeTreasury","outputs":[],"stateMutability":"nonpayable","type":"function"},{"inputs":[],"name":"stoCount","outputs":[{"internalType":"uint256","name":"","type":"uint256"}],"stateMutability":"view","type":"function"},{"inputs":[{"internalType":"bytes32","name":"","type":"bytes32"}],"name":"stoRecords","outputs":[{"internalType":"address","name":"tokenAddress","type":"address"},{"internalType":"address","name":"issuer","type":"address"},{"internalType":"string","name":"name","type":"string"},{"internalType":"string","name":"assetType","type":"string"},{"internalType":"uint256","name":"targetRaise","type":"uint256"},{"internalType":"uint48","name":"createdAt","type":"uint48"},{"internalType":"bool","name":"active","type":"bool"}],"stateMutability":"view","type":"function"},{"inputs":[{"internalType":"bytes4","name":"interfaceId","type":"bytes4"}],"name":"supportsInterface","outputs":[{"internalType":"bool","name":"","type":"bool"}],"stateMutability":"view","type":"function"},{"inputs":[],"name":"usdc","outputs":[{"internalType":"address","name":"","type":"address"}],"stateMutability":"view","type":"function"}],"evm":{"bytecode":{"linkReferences":{},"object":"60c0346200011957601f62005f5938819003918201601f19168301916001600160401b038311848410176200011e5780849260a094604052833981010312620001195780620000da62000056620000e19362000134565b620000646020840162000134565b90620000736040850162000134565b90620000906080620000886060880162000134565b960162000134565b92600180556002549160805260a052604b60a11b9160018060a01b03169060018060b01b0319161717600255620000c78362000149565b50620000d383620001c9565b50620001c9565b506200026b565b50604051615c309081620003098239608051818181610b5f0152611880015260a05181818161075c01528181610b90015261152d0152f35b600080fd5b634e487b7160e01b600052604160045260246000fd5b51906001600160a01b03821682036200011957565b6001600160a01b031660008181527fad3228b676f7d3cd4284a5443f17f1962b36e491b30a40b2405849e597ba5fb5602052604081205490919060ff16620001c557818052816020526040822081835260205260408220600160ff19825416179055339160008051602062005f398339815191528180a4600190565b5090565b6001600160a01b031660008181527fee57cd81e84075558e8fcc182a1f4393f91fc97f963a136e66b7f949a62f319f60205260408120549091907f97667070c54ef182b0f5858b034beac1b6f3089aa2d3188bb1e8929f4fa9b9299060ff166200026657808352826020526040832082845260205260408320600160ff1982541617905560008051602062005f39833981519152339380a4600190565b505090565b6001600160a01b031660008181527f335573aa7cafba10a32e2694464d1e7e5294d917876d04d506249fbf84d791af60205260408120549091907f442a94f1a1fac79af32856af2a64f63648cfa2ef3b98610a5bb7cbec4cee69859060ff166200026657808352826020526040832082845260205260408320600160ff1982541617905560008051602062005f39833981519152339380a460019056fe60808060405260043610156200001457600080fd5b600090813560e01c90816301ffc9a714620019a657508063062d3bd714620019695780630927632b14620018af578063134e18f414620018685780631f29d28514620014c85780631fb7a0d4146200144b578063226620e414620013ee578063248a9ca314620013c05780632f2ff15d146200137b57806336568abe146200132c57806337c8233d146200078b5780633e413bee14620007445780634488b652146200067e5780635647ea9814620005ee57806360dc234014620005c3578063687d2be2146200056a5780637fa5dd9a146200043b5780637fffb57f14620002fa57806391d1485414620002ab578063a217fddf146200028d578063a90b2c43146200026d578063bcae25a41462000246578063bfa37e3714620001d6578063d547741f146200018d5763f5b541a6146200014e57600080fd5b346200018a57806003193601126200018a5760206040517f97667070c54ef182b0f5858b034beac1b6f3089aa2d3188bb1e8929f4fa9b9298152f35b80fd5b50346200018a5760403660031901126200018a57620001d2600435620001b262001bc3565b9080845283602052620001cc600160408620015462001d56565b62001dfc565b5080f35b50346200018a5760203660031901126200018a57620001f462001bac565b620001fe62001d1b565b6002546001600160a01b0391821691829082167fb213ad27ce6db647182439e573968415546e6db3ebfb04b3e84d6b0412025d418580a36001600160a01b0319161760025580f35b50346200018a57806003193601126200018a57602061ffff60025460a01c16604051908152f35b50346200018a57806003193601126200018a576020600654604051908152f35b50346200018a57806003193601126200018a57602090604051908152f35b50346200018a5760403660031901126200018a576040620002cb62001bc3565b91600435815280602052209060018060a01b0316600052602052602060ff604060002054166040519015158152f35b50346200018a57602090816003193601126200018a578060409160c08351620003238162001a3d565b82815282868201526060858201526060808201528260808201528260a082015201526004358152600383522090604051916200035f8362001a3d565b80546001600160a01b03908116845260018201548116838501908152906200038a6002840162001a7b565b916040860192835262000421620003a46003860162001a7b565b606088019081526200040d600560048801549760808b0198895201549565ffffffffffff9560a08b0195878916875260ff60c08d019960301c16151589528a826040519d8e9d8e525116908c0152511660408a01525160e060608a015261010089019062001b2c565b9051878203601f1901608089015262001b2c565b935160a0860152511660c084015251151560e08301520390f35b50346200018a5760403660031901126200018a576004356024356001600160401b03808211620005665736602383011215620005665781600401359081116200056657366024828401011162000566573360009081527f335573aa7cafba10a32e2694464d1e7e5294d917876d04d506249fbf84d791af60205260409020547f442a94f1a1fac79af32856af2a64f63648cfa2ef3b98610a5bb7cbec4cee69859060ff1615620005485750907fe67e3fdba1466fbd137ec252326aed7099b019871c05048984523a50dcbd996e9183855260036020526005604086200166ff0000000000001981541690556200054260405192839260208452602460208501920162001cb0565b0390a280f35b6044906040519063e2517d3f60e01b82523360048301526024820152fd5b8380fd5b50346200018a5760203660031901126200018a57600435600554811015620005bf5760209060056000527f036b6384b5eca791c62761152d0c79bb0604c104a5fb6f4eb0703f3154bb3db00154604051908152f35b5080fd5b50346200018a57806003193601126200018a576002546040516001600160a01b039091168152602090f35b50346200018a57602080600319360112620005bf576001600160a01b036200061562001bac565b1682526004602052604082209160405180926020855492838152019483526020832092905b82821062000666576200066285620006558189038262001a59565b6040519182918262001b6e565b0390f35b8354865294850194600193840193909101906200063a565b50346200018a5760203660031901126200018a5761ffff6004358181168082036200073f57620006ad62001d1b565b6101f481116200070257600254928360a01c167f2e547ce9081bc30652d4cf1c91d4734dda23985c1136da3ff9c844624859dffa8580a361ffff60a01b1990911660a09190911b61ffff60a01b161760025580f35b60405162461bcd60e51b815260206004820152601560248201527408cc2c6e8dee4f27440cccaca40e8dede40d0d2ced605b1b6044820152606490fd5b600080fd5b50346200018a57806003193601126200018a576040517f00000000000000000000000000000000000000000000000000000000000000006001600160a01b03168152602090f35b50346200018a57600319604036820112620005bf576001600160401b0360043511620005bf57610180600435360391820112620005bf57620007cc62001bc3565b3360009081527fee57cd81e84075558e8fcc182a1f4393f91fc97f963a136e66b7f949a62f319f60205260409020549092907f97667070c54ef182b0f5858b034beac1b6f3089aa2d3188bb1e8929f4fa9b9299060ff16156200054857506001600160a01b03620008436004356101240162001c32565b1615620012f0576001600160a01b03620008636004356101440162001c32565b1615620012b25760649283600435013515620012775760846004350135156200123d5760a4600435013515620012025761010460043501359265ffffffffffff84168403620011ba574265ffffffffffff85161115620011be576022190160043560e401351215620005bf5760e46004350135600435016004810135906001600160401b038211620005665760248260051b3603910113620011ba57156200117e57620009166101246004350162001c32565b6074620009746200092c60048035018062001c47565b92906006548460405195869360208501986bffffffffffffffffffffffff199060601b1689526034850137820190426034830152605482015203605481018452018262001a59565b519020926040519182613d888101106001600160401b03613d88850111176200116a57613d8862001e73843960a0613d8884015262000a3e62000a0f620009e0620009c460048035018062001c7c565b61018060a0613d888a010152610220613d888901019162001cb0565b620009f660246004350160043560040162001c7c565b613d888801808403609f190160c0909101529062001cb0565b62000a2560446004350160043560040162001c7c565b613d888701808403609f190160e0909101529062001cb0565b6004803580890135613d888701610100810191909152608482013561012082015260a482013561014082015260c48201356101609091015260e4810135019391906001600160401b0390850135116200116657600484013560051b36036024850113620011665790602085949392609f19613d888701820301610180613d88880101526004850135815201926024810190875b60048201358110620011355750505065ffffffffffff16613d8884016101a001526001600160a01b0362000b0b6004356101240162001bda565b16613d8884016101c001526001600160a01b0362000b2f6004356101440162001bda565b166101e0613d888501015261ffff62000b4e6101646004350162001c08565b16613d8884016102008101919091527f00000000000000000000000000000000000000000000000000000000000000006001600160a01b0390811660208301527f00000000000000000000000000000000000000000000000000000000000000008116604083015230606083015291909116608090910152039082f0908115620011295762000be36101246004350162001c32565b62000c4c62000bf760048035018062001c47565b9062000c3f62000c1260446004350160043560040162001c47565b9290936040519662000c248862001a3d565b6001600160a01b038a81168952166020880152369162001cd1565b6040850152369162001cd1565b6060820152846004350135608082015265ffffffffffff421660a0820152600160c082015283825260036020526040822060018060a01b038251166bffffffffffffffffffffffff60a01b9081835416178255600182019060018060a01b036020850151169082541617905560408201518051906001600160401b0382116200103f57819062000ce0600285015462001a00565b601f8111620010d3575b50602090601f83116001146200105f57869262001053575b50508160011b916000199060031b1c19161760028201555b60608201518051906001600160401b0382116200103f5762000d40600384015462001a00565b601f811162000ff5575b50602090601f831160011462000f8057600593929186918362000f74575b50508160011b916000199060031b1c19161760038201555b60808301516004820155019065ffffffffffff60a08201511666ff00000000000060c08454930151151560301b169166ffffffffffffff19161717905560018060a01b0362000dd56101246004350162001c32565b1681526004602052604081208054600160401b81101562000f5e5762000e019160018201815562001bef565b919080549260031b600019938487831b921b1916179055600554600160401b81101562000f5e57600181018060055581101562000f4857849060056000527f036b6384b5eca791c62761152d0c79bb0604c104a5fb6f4eb0703f3154bb3db0015560065491821462000f345750604093600162000eff9201600655837fd4655862b678a4e13232ff183d9921252085cb5570586a3518fa1ec3fc5c472162000eaf6101246004350162001c32565b62000ebf60048035018062001c47565b959062000ef062000edb60446004350160043560040162001c47565b9190928c519960608b5260608b019162001cb0565b9188830360208a015262001cb0565b60043590940135858901526001600160a01b03908116949086169381900390a482519182526001600160a01b03166020820152f35b634e487b7160e01b81526011600452602490fd5b634e487b7160e01b600052603260045260246000fd5b634e487b7160e01b600052604160045260246000fd5b01519050388062000d68565b906003840186526020862091865b601f198516811062000fdc575091839160019360059695601f1981161062000fc2575b505050811b01600382015562000d80565b015160001960f88460031b161c1916905538808062000fb1565b9192602060018192868501518155019401920162000f8e565b60038401865260208620601f840160051c81016020851062001037575b601f830160051c820181106200102a57505062000d4a565b6000815560010162001012565b508062001012565b634e487b7160e01b85526041600452602485fd5b01519050388062000d02565b9250600284018652602086209086935b601f1984168510620010b7576001945083601f198116106200109d575b505050811b01600282015562000d1a565b015160001960f88460031b161c191690553880806200108c565b818101518355602094850194600190930192909101906200106f565b90915060028401865260208620601f840160051c81016020851062001121575b90849392915b601f830160051c820181106200111157505062000cea565b60008155859450600101620010f9565b5080620010f3565b604051903d90823e3d90fd5b919550919293600160208060049361ffff620011518b62001c08565b16815201970192018796959493915062000ad1565b8580fd5b634e487b7160e01b84526041600452602484fd5b60405162461bcd60e51b8152602060048201526015602482015274466163746f72793a206e6f20636f756e747269657360581b60448201528490fd5b8280fd5b60405162461bcd60e51b815260206004820152601d60248201527f466163746f72793a20636c6f73696e67206461746520696e207061737400000060448201528590fd5b60405162461bcd60e51b8152602060048201526014602482015273466163746f72793a207a65726f20737570706c7960601b60448201528490fd5b60405162461bcd60e51b8152602060048201526013602482015272466163746f72793a207a65726f20707269636560681b60448201528490fd5b60405162461bcd60e51b8152602060048201526014602482015273119858dd1bdc9e4e881e995c9bc81d185c99d95d60621b60448201528490fd5b60405162461bcd60e51b8152602060048201526016602482015275466163746f72793a207a65726f20747265617375727960501b6044820152606490fd5b60405162461bcd60e51b81526020600482015260146024820152732330b1ba37b93c9d103d32b9379034b9b9bab2b960611b6044820152606490fd5b50346200018a5760403660031901126200018a576200134a62001bc3565b336001600160a01b038216036200136957620001d29060043562001dfc565b60405163334bd91960e11b8152600490fd5b50346200018a5760403660031901126200018a57620001d2600435620013a062001bc3565b9080845283602052620013ba600160408620015462001d56565b62001d7d565b50346200018a5760203660031901126200018a57600160406020926004358152808452200154604051908152f35b50346200018a5760403660031901126200018a576200140c62001bac565b6001600160a01b03168152600460205260408120805460243592908310156200018a5760206200143d848462001bef565b90546040519160031b1c8152f35b50346200018a57806003193601126200018a57604051600580548083529083526020808301937f036b6384b5eca791c62761152d0c79bb0604c104a5fb6f4eb0703f3154bb3db092915b828210620014b0576200066285620006558189038262001a59565b83548652948501946001938401939091019062001495565b50346200018a5760403660031901126200018a576004359060249182359060026001541462001856576002600155808352602060038152604084209460ff600587015460301c1615620018135785546001600160a01b03969087168015620017d657877f000000000000000000000000000000000000000000000000000000000000000016916040516323b872dd60e01b8152336004820152308582015287604482015285816064818c885af190811562001712578991620017b4575b50156200177057888154169160405163095ea7b360e01b938482526004820152898682015286816044818d895af1801562001743576200174e575b508154604051848152908b166001600160a01b031660048201526024810189905286816044818d895af18015620017435762001721575b50803b156200171d57604051635cdc612360e11b8152336004820152602481018990529089908290604490829084905af180156200171257620016de575b5084929188809a6044939a98999a541693816040519788968795865260048601528401525af18015620016d3576200169f575b506040519384528301527f0b67a854cb62328e56cf5dd468331fb79f5ce30211d7f8e72d51061d4467abf160403393a36001805580f35b620016c390823d8411620016cb575b620016ba818362001a59565b81019062001c18565b503862001668565b503d620016ae565b6040513d85823e3d90fd5b6001600160401b0381999297989911620016ff576040529695948462001635565b634e487b7160e01b825260416004528482fd5b6040513d8b823e3d90fd5b8880fd5b6200173b90873d8911620016cb57620016ba818362001a59565b5038620015f7565b6040513d8c823e3d90fd5b6200176890873d8911620016cb57620016ba818362001a59565b5038620015c0565b60405162461bcd60e51b815260048101869052601d818601527f466163746f72793a2055534443207472616e73666572206661696c65640000006044820152606490fd5b620017cf9150863d8811620016cb57620016ba818362001a59565b3862001585565b60405162461bcd60e51b81526004810185905260168185015275119858dd1bdc9e4e8814d513c81b9bdd08199bdd5b9960521b6044820152606490fd5b9060176064926040519262461bcd60e51b845260048401528201527f466163746f72793a2053544f206e6f74206163746976650000000000000000006044820152fd5b604051633ee5aeb560e01b8152600490fd5b50346200018a57806003193601126200018a576040517f00000000000000000000000000000000000000000000000000000000000000006001600160a01b03168152602090f35b50346200018a5760203660031901126200018a576004358152600360205260409020805460018201546001600160a01b039081169291169060ff620018f76002830162001a7b565b62001946620019096003850162001a7b565b6200193760056004870154960154936040519889988952602089015260e0604089015260e088019062001b2c565b90868203606088015262001b2c565b92608085015265ffffffffffff811660a085015260301c16151560c08301520390f35b50346200018a57806003193601126200018a5760206040517f442a94f1a1fac79af32856af2a64f63648cfa2ef3b98610a5bb7cbec4cee69858152f35b905034620005bf576020366003190112620005bf5760043563ffffffff60e01b8116809103620011ba5760209250637965db0b60e01b8114908115620019ee575b5015158152f35b6301ffc9a760e01b14905038620019e7565b90600182811c9216801562001a32575b602083101462001a1c57565b634e487b7160e01b600052602260045260246000fd5b91607f169162001a10565b60e081019081106001600160401b0382111762000f5e57604052565b90601f801991011681019081106001600160401b0382111762000f5e57604052565b9060405191826000825462001a908162001a00565b9081845260209460019160018116908160001462001b08575060011462001ac5575b50505062001ac39250038362001a59565b565b600090815285812095935091905b81831062001aef57505062001ac3935082010138808062001ab2565b8554888401850152948501948794509183019162001ad3565b9250505062001ac394925060ff191682840152151560051b82010138808062001ab2565b919082519283825260005b84811062001b59575050826000602080949584010152601f8019910116010190565b60208183018101518483018201520162001b37565b602090602060408183019282815285518094520193019160005b82811062001b97575050505090565b83518552938101939281019260010162001b88565b600435906001600160a01b03821682036200073f57565b602435906001600160a01b03821682036200073f57565b35906001600160a01b03821682036200073f57565b805482101562000f485760005260206000200190600090565b359061ffff821682036200073f57565b908160209103126200073f575180151581036200073f5790565b356001600160a01b03811681036200073f5790565b903590601e19813603018212156200073f57018035906001600160401b0382116200073f576020019181360383136200073f57565b9035601e19823603018112156200073f5701602081359101916001600160401b0382116200073f5781360383136200073f57565b908060209392818452848401376000828201840152601f01601f1916010190565b9291926001600160401b03821162000f5e576040519162001cfd601f8201601f19166020018462001a59565b8294818452818301116200073f578281602093846000960137010152565b3360009081527fad3228b676f7d3cd4284a5443f17f1962b36e491b30a40b2405849e597ba5fb5602052604081205460ff1615620005485750565b80600052600060205260406000203360005260205260ff6040600020541615620005485750565b9060009180835282602052604083209160018060a01b03169182845260205260ff6040842054161560001462001df757808352826020526040832082845260205260408320600160ff198254161790557f2f8788117e7eff1d82e926ec794901d17c78024a50270940304540a733656f0d339380a4600190565b505090565b9060009180835282602052604083209160018060a01b03169182845260205260ff60408420541660001462001df75780835282602052604083208284526020526040832060ff1981541690557ff6391f5c32d9c69d2a47ea670b442974b53935d1edc7fd64eb21e047a839171b339380a460019056fe60c06040523462000ba85762003d88803803806200001d8162000bcb565b92833981019060a08183031262000ba85780516001600160401b03811162000ba857610180928382840182031262000ba8576040519384016001600160401b03811185821017620006fd57604052828201516001600160401b03811162000ba857816200008e918486010162000bf1565b8452828201602001516001600160401b03811162000ba85781620000b6918486010162000bf1565b6020850152828201604001516001600160401b03811162000ba85781620000e1918486010162000bf1565b6040850152828201606081810151908601526080808201519086015260a0808201519086015260c0808201519086015260e001516001600160401b03811162000ba85781601f828587010101121562000ba857838301810151916001600160401b038311620006fd578260051b60206200015d81830162000bcb565b80958152019160208285888a010101011162000ba857906020838688010101915b60208185888a01010101831062000bad575050505060e0840152610100818301015165ffffffffffff8116810362000ba857620001f69161016091610100860152620001d06101208286010162000c73565b610120860152620001e76101408286010162000c73565b61014086015283010162000c63565b6101608301526200020a6020820162000c73565b91620002196040830162000c73565b906200023660806200022e6060860162000c73565b940162000c73565b81516020830151815190916001600160401b038211620006fd5760035490600182811c9216801562000b9d575b6020831014620007e75781601f84931162000b4a575b50602090601f831160011462000abb5760009262000aaf575b50508160011b916000199060031b1c1916176003555b8051906001600160401b038211620006fd5760045490600182811c9216801562000aa4575b6020831014620007e75781601f84931162000a51575b50602090601f8311600114620009c257600092620009b6575b50508160011b916000199060031b1c1916176004555b600160075581518051906001600160401b038211620006fd5760085490600182811c92168015620009ab575b6020831014620007e75781601f84931162000969575b50602090601f8311600114620008eb57600092620008df575b50508160011b916000199060031b1c1916176008555b60208201518051906001600160401b038211620006fd5760095490600182811c92168015620008d4575b6020831014620007e75781601f84931162000892575b50602090601f8311600114620008145760009262000808575b50508160011b916000199060031b1c1916176009555b60408201518051906001600160401b038211620006fd57600a5490600182811c92168015620007fd575b6020831014620007e75781601f84931162000799575b50602090601f83116001146200071f5760009262000713575b50508160011b916000199060031b1c191617600a555b6060820151600b556080820151600c5560a0820151600d5560c0820151600e5560e082015180519095906001600160401b038111620006fd57680100000000000000008111620006fd576020600f978854838a55808410620006a9575b50019660005260206000209060005b8160041c8110620006655750600f19811680820362000600575b61010086015160108054610120898101516001600160d01b031990921665ffffffffffff949094169390931760309190911b600160301b600160d01b0316179055610140870151601180546101608a01516001600160b01b03199091166001600160a01b039384161760a091821b61ffff60a01b1617909155818716608052818a169052620005ac918a91620005a5918a6200059b8b620005888762000ca1565b50620005948762000d22565b5062000d22565b5001511662000dc5565b5062000e63565b50604051612e06908162000f028239608051818181610c1b01528181612036015281816122670152818161275e0152612a92015260a051818181610cdc015281816115d6015281816119dd0152611cd90152f35b9760009860005b8184038110620006305750505060041c0195909555620005ac946200059b82620005a5620004e7565b90919960206200065a60019261ffff8e51169085851b60031b9161ffff809116831b921b19161790565b9b0192910162000607565b6000805b6010811062000680575083820155600101620004cd565b8a51909a9160019160209161ffff60048f901b81811b199092169216901b1792019a0162000669565b620006db908a600052836000208b80870160041c820192601e8860011b1680620006e2575b500160041c019062000c88565b38620004be565b60001990818601918254918a0360031b1c16905538620006ce565b634e487b7160e01b600052604160045260246000fd5b0151905038806200044b565b600a600090815260008051602062003d288339815191529350601f198516905b81811062000780575090846001959493921062000766575b505050811b01600a5562000461565b015160001960f88460031b161c1916905538808062000757565b929360206001819287860151815501950193016200073f565b600a600052620007d59060008051602062003d28833981519152601f850160051c81019160208610620007dc575b601f0160051c019062000c88565b3862000432565b9091508190620007c7565b634e487b7160e01b600052602260045260246000fd5b91607f16916200041c565b015190503880620003dc565b60096000908152935060008051602062003d6883398151915291905b601f198416851062000876576001945083601f198116106200085c575b505050811b01600955620003f2565b015160001960f88460031b161c191690553880806200084d565b8181015183556020948501946001909301929091019062000830565b6009600052620008cd9060008051602062003d68833981519152601f850160051c81019160208610620007dc57601f0160051c019062000c88565b38620003c3565b91607f1691620003ad565b0151905038806200036d565b60086000908152935060008051602062003d4883398151915291905b601f19841685106200094d576001945083601f1981161062000933575b505050811b0160085562000383565b015160001960f88460031b161c1916905538808062000924565b8181015183556020948501946001909301929091019062000907565b6008600052620009a49060008051602062003d48833981519152601f850160051c81019160208610620007dc57601f0160051c019062000c88565b3862000354565b91607f16916200033e565b015190503880620002fc565b6004600090815293507f8a35acfbc15ff81a39ae7d344fd709f28e8600b4aa8c65c6b64bfe7fe36bd19b91905b601f198416851062000a35576001945083601f1981161062000a1b575b505050811b0160045562000312565b015160001960f88460031b161c1916905538808062000a0c565b81810151835560209485019460019093019290910190620009ef565b600460005262000a9d907f8a35acfbc15ff81a39ae7d344fd709f28e8600b4aa8c65c6b64bfe7fe36bd19b601f850160051c81019160208610620007dc57601f0160051c019062000c88565b38620002e3565b91607f1691620002cd565b01519050388062000292565b6003600090815293507fc2575a0e9e593c00f959f8c92f12db2869c3395a3b0502d05e2516446f71f85b91905b601f198416851062000b2e576001945083601f1981161062000b14575b505050811b01600355620002a8565b015160001960f88460031b161c1916905538808062000b05565b8181015183556020948501946001909301929091019062000ae8565b600360005262000b96907fc2575a0e9e593c00f959f8c92f12db2869c3395a3b0502d05e2516446f71f85b601f850160051c81019160208610620007dc57601f0160051c019062000c88565b3862000279565b91607f169162000263565b600080fd5b602080809362000bbd8662000c63565b81520193019291506200017e565b6040519190601f01601f191682016001600160401b03811183821017620006fd57604052565b919080601f8401121562000ba85782516001600160401b038111620006fd5760209062000c27601f8201601f1916830162000bcb565b9281845282828701011162000ba85760005b81811062000c4f57508260009394955001015290565b858101830151848201840152820162000c39565b519061ffff8216820362000ba857565b51906001600160a01b038216820362000ba857565b81811062000c94575050565b6000815560010162000c88565b6001600160a01b031660008181527f54cdd369e4e8a8515e52ca72ec816c2101831ad1f18bf44102ed171459c9b4f8602052604081205490919060ff1662000d1e5781805260066020526040822081835260205260408220600160ff19825416179055339160008051602062003d088339815191528180a4600190565b5090565b6001600160a01b031660008181527f84103e4942d70d0389ab910bdcdf181c3e028bc1897fe6797bb191ac79d8088260205260408120549091907f442a94f1a1fac79af32856af2a64f63648cfa2ef3b98610a5bb7cbec4cee69859060ff1662000dc05780835260066020526040832082845260205260408320600160ff1982541617905560008051602062003d08833981519152339380a4600190565b505090565b6001600160a01b031660008181527f702fe919a6a7971e34c596917a48306a624527a41d0aa0fcf43050b6a305324860205260408120549091907f114e74f6ea3bd819998f78687bfcb11b140da08e9b7d222fa9c1f1ba1f2aa1229060ff1662000dc05780835260066020526040832082845260205260408320600160ff1982541617905560008051602062003d08833981519152339380a4600190565b6001600160a01b031660008181527f4448119502453e295a09f7d4e8a6a0575d3624c233f99f59abf0835bf259780a60205260408120549091907fcab5a0bfe0b79d2c4b1c2e02599fa044d115b7511f9659307cb42769509677099060ff1662000dc05780835260066020526040832082845260205260408320600160ff1982541617905560008051602062003d08833981519152339380a460019056fe6080806040526004908136101561001557600080fd5b60003560e01c90816301ffc9a7146124675750806304caa6dd146123cb578063056097ac1461220f578063062d3bd7146121d457806306fdde0314612105578063095ea7b314612065578063134e18f41461202057806318160ddd1461200257806322459e1814611fc757806323b872dd14611ee4578063248a9ca314611eb6578063266565a914611e7c5780632f2ff15d14611e3d578063313ce56714611e2157806336568abe14611ddd5780633ad8b2d714611d085780633e413bee14611cc35780633f4ba83a14611b945780633f89797e14611978578063559d3d4b146119555780635c975abb146119325780636da663551461172a57806370a08231146116f057806382aefa24146116b5578063884a41be1461155a57806391d148541461150d57806395d89b4114611426578063985ffec0146113a9578063a217fddf1461138d578063a4df6c6a146112f9578063a9059cbb146112c8578063ab7294f014611228578063b9b8c24614610b41578063c3f909d4146103fc578063c5c4744c146103de578063d547741f1461039d578063d7e64c001461037f578063dd62ed3e1461032e578063e46638e6146102f4578063e5839836146102b85763e9b2f0ad146101e457600080fd5b346102b35760403660031901126102b3576101fd6125a4565b602435906102096128aa565b60018060a01b031691826000526014602052816040600020541061026f575060207f9bed35cb62ad0dba04f9d5bfee4b5bc91443e77da8a65c4c84834c51bb08b0d6918360005260148252604060002061026482825461270e565b9055604051908152a2005b60649060206040519162461bcd60e51b8352820152601760248201527f53543a20696e73756666696369656e742066726f7a656e0000000000000000006044820152fd5b600080fd5b346102b35760203660031901126102b3576001600160a01b036102d96125a4565b16600052601460205260206040600020541515604051908152f35b346102b35761030b610305366125d0565b9161271b565b9061032a60405192839215158352604060208401526040830190612564565b0390f35b346102b35760403660031901126102b3576103476125a4565b61034f6125ba565b9060018060a01b038091166000526001602052604060002091166000526020526020604060002054604051908152f35b346102b35760003660031901126102b3576020601754604051908152f35b50346102b35760403660031901126102b3576103dc90356103bc6125ba565b908060005260066020526103d7600160406000200154612980565b612cf8565b005b346102b35760003660031901126102b3576020601854604051908152f35b346102b35760003660031901126102b357600061016060405161041e816124f3565b6060815260606020820152606060408201528260608201528260808201528260a08201528260c0820152606060e08201528261010082015282610120820152826101408201520152604051610472816124f3565b604051600854816000610484836124b9565b8083529260018116908115610b225750600114610ac1575b6104a892500382612542565b81526040516009548160006104bc836124b9565b8083529260018116908115610aa25750600114610a41575b6104e092500382612542565b6020820152604051600a548160006104f7836124b9565b8083529260018116908115610a2257506001146109c1575b61051b92500382612542565b6040820152600b546060820152600c546080820152600d5460a0820152600e5460c082015260405180816020600f549283815201600f6000527f8d1108e10bcb7c27dddfc02ed9d693a074039d026cf4ea4240b40f7d581ac802926000905b80600f8301106108d9576106109454918181106108c4575b8181106108ac575b818110610895575b81811061087d575b818110610865575b81811061084d575b818110610835575b81811061081d575b818110610805575b8181106107ed575b8181106107d5575b8181106107bd575b8181106107a5575b81811061078d575b818110610775575b10610767575b500382612542565b60e082015260105465ffffffffffff811661010083015260018060a01b039060301c1661012082015261ffff60115460018060a01b03811661014084015260a01c16610160820152604051602081526106a961069361067d845161018060208601526101a0850190612564565b6020850151848203601f19016040860152612564565b6040840151838203601f19016060850152612564565b60608301516080830152608083015160a083015260a083015160c083015260c083015160e083015260e083015190601f19838203016101008401526020808351928381520192019060005b81811061074d5750505061ffff6101608465ffffffffffff610100869701511661012086015260018060a01b036101208201511661014086015260018060a01b0361014082015116828601520151166101808301520390f35b825161ffff168452602093840193909201916001016106f4565b60f01c815260200185610608565b92602060019161ffff8560e01c168152019301610602565b92602060019161ffff8560d01c1681520193016105fa565b92602060019161ffff8560c01c1681520193016105f2565b92602060019161ffff8560b01c1681520193016105ea565b92602060019161ffff8560a01c1681520193016105e2565b92602060019161ffff8560901c1681520193016105da565b92602060019161ffff8560801c1681520193016105d2565b92602060019161ffff8560701c1681520193016105ca565b92602060019161ffff8560601c1681520193016105c2565b92602060019161ffff8560501c1681520193016105ba565b92602060019161ffff8560401c1681520193016105b2565b92602060019161ffff8560301c1681520193016105aa565b92602060019161ffff85831c1681520193016105a2565b92602060019161ffff8560101c16815201930161059a565b92602060019161ffff85168152019301610592565b916010919350610200600191865461ffff8116825261ffff81861c16602083015261ffff8160201c16604083015261ffff8160301c16606083015261ffff8160401c16608083015261ffff8160501c1660a083015261ffff8160601c1660c083015261ffff8160701c1660e083015261ffff8160801c1661010083015261ffff8160901c1661012083015261ffff8160a01c1661014083015261ffff8160b01c1661016083015261ffff8160c01c1661018083015261ffff8160d01c166101a083015261ffff8160e01c166101c083015260f01c6101e082015201940192018492939161057a565b5090600a6000527fc65a7bb8d6351c1cf70c95a316cc6a92839c986682d98bc35f958f4883f9d2a8906000915b818310610a0657505090602061051b9282010161050f565b60209193508060019154838588010152019101909183926109ee565b6020925061051b94915060ff191682840152151560051b82010161050f565b509060096000527f6e1540171b6c0c960b71a7020d9f60077f6af931a8bbf590da0223dacf75c7af906000915b818310610a865750509060206104e0928201016104d4565b6020919350806001915483858801015201910190918392610a6e565b602092506104e094915060ff191682840152151560051b8201016104d4565b509060086000527ff3f7a9fe364faab93b216da50a3214154f22a0a2b415b23a84c8169e8b636ee3906000915b818310610b065750509060206104a89282010161049c565b6020919350806001915483858801015201910190918392610aee565b602092506104a894915060ff191682840152151560051b82010161049c565b50346102b35760403660031901126102b357610b5b6125a4565b3360009081527f4448119502453e295a09f7d4e8a6a0575d3624c233f99f59abf0835bf259780a6020908152604090912054602480359490917fcab5a0bfe0b79d2c4b1c2e02599fa044d115b7511f9659307cb42769509677099060ff161561120d5750610bc7612d92565b610bcf612d6f565b60ff601254166111d65765ffffffffffff60105416421161119e57604051636c85cf6760e01b81526000828201526001600160a01b0385811682850181905295909391604490868183817f00000000000000000000000000000000000000000000000000000000000000008a165afa908115610fee57600091611181575b501561114057670de0b6b3a764000080890290898204148915171561112c57600c54610c78916126ee565b94600e5486106110ea57610c8e8660025461264b565b600d54106110af57612710610cac61ffff60115460a01c168b6126db565b04610cb7818b61270e565b604080516323b872dd60e01b8152338982019081523060208201529182018d905291937f0000000000000000000000000000000000000000000000000000000000000000811693909290918b908290819060600103816000885af1908115610fee57600091611092575b5015611059576011546040805163a9059cbb60e01b8082529285166001600160a01b03168b820190815260208101949094529193928c91839182910103816000885af1908115610fee5760009161103c575b5015610ffa5791610db4939160008b9460105460301c16916040519687958694859384528d840160209093929193604081019460018060a01b031681520152565b03925af1908115610fee57600091610fc1575b5015610f805750610dd7906129a6565b8415610f6a57610de5612d92565b610df18360025461264b565b600255846000526000845260406000208381540190558460007fddf252ad1be2c89b69c2b068fc378daa952ba7f163c4a11628f55a4df523b3ef86604051878152a3610e3f8660185461264b565b60185584600052601584526040600020805460ff811615610e8e575b87877f8514357b17ccbde354811f827b94585a7ab01b4034aa86a807b7cc2c100b7be88888604051908152a36001600755005b60ff1916600117905560165468010000000000000000811015610f56576001810180601655811015610f425760166000527fd833147d7dc355ba459fc788f669e58cfaf9dc25ddcd0702e87d69c7b51242890180546001600160a01b03191686179055601754916000198314610f2f5750506001016017557f8514357b17ccbde354811f827b94585a7ab01b4034aa86a807b7cc2c100b7be8388080610e5b565b601190634e487b7160e01b600052526000fd5b50634e487b7160e01b600090815260328352fd5b50634e487b7160e01b600090815260418352fd5b9060006040519163ec442f0560e01b8352820152fd5b837f53543a2070726f6365656473207472616e73666572206661696c656400000000606492601c868a6040519562461bcd60e51b8752860152840152820152fd5b610fe19150873d8911610fe7575b610fd98183612542565b810190612633565b38610dc7565b503d610fcf565b6040513d6000823e3d90fd5b60405162461bcd60e51b81528089018b90526017818901527f53543a20666565207472616e73666572206661696c656400000000000000000081870152606490fd5b61105391508b3d8d11610fe757610fd98183612542565b38610d73565b60405162461bcd60e51b81528089018b90526014818901527314d50e881554d110c81c1d5b1b0819985a5b195960621b81870152606490fd5b6110a991508b3d8d11610fe757610fd98183612542565b38610d21565b60405162461bcd60e51b81528086018890526016818601527553543a2065786365656473206d617820737570706c7960501b81840152606490fd5b60405162461bcd60e51b8152808601889052601c818601527f53543a2062656c6f77206d696e696d756d20696e766573746d656e740000000081840152606490fd5b83601186634e487b7160e01b600052526000fd5b837f53543a20696e766573746f72206e6f74207665726966696564000000000000006064926019868a6040519562461bcd60e51b8752860152840152820152fd5b6111989150873d8911610fe757610fd98183612542565b38610c4d565b6014606492846040519362461bcd60e51b85528401528201527314d50e881bd999995c9a5b99c8195e1c1a5c995960621b6044820152fd5b6013606492846040519362461bcd60e51b85528401528201527214d50e881bd999995c9a5b99c818db1bdcd959606a1b6044820152fd5b6044926040519263e2517d3f60e01b84523390840152820152fd5b50346102b35760003660031901126102b357611242612924565b6012549060ff821661128f5760018260ff1916176012557fc566557ce4cb9ae8e7b1ebb1215c266fb3ef7b87e5a726107e9188fd256423fb604060185460025482519182526020820152a1005b60649060206040519162461bcd60e51b8352820152601260248201527114d50e88185b1c9958591e4818db1bdcd95960721b6044820152fd5b346102b35760403660031901126102b3576112ee6112e46125a4565b6024359033612a3e565b602060405160018152f35b346102b35760403660031901126102b3576113126125a4565b7fa065e63c631c86f1b9f66a4a2f63f2093bf1c2168d23290259dbd969e0222a456020602435926113416128aa565b60018060a01b03169283600052600082526113756040600020546014845261136e8360406000205461264b565b111561266e565b8360005260148252604060002061026482825461264b565b346102b35760003660031901126102b357602060405160008152f35b346102b35760203660031901126102b357602061141e6113c76125a4565b670de0b6b3a764000061140a6113f76019549360018060a01b03169384600052601a87526040600020549061270e565b83600052600086526040600020546126db565b0490600052601b835260406000205461264b565b604051908152f35b50346102b35760003660031901126102b3576040519060008282549161144b836124b9565b92838352602094600191866001821691826000146114eb57505060011461148f575b505061147b92500383612542565b61032a604051928284938452830190612564565b8592506000527f8a35acfbc15ff81a39ae7d344fd709f28e8600b4aa8c65c6b64bfe7fe36bd19b906000915b8583106114d357505061147b9350820101388061146d565b805483890185015287945086939092019181016114bb565b925093505061147b94915060ff191682840152151560051b820101388061146d565b50346102b35760403660031901126102b3576115276125ba565b9035600052600660205260406000209060018060a01b0316600052602052602060ff604060002054166040519015158152f35b50346102b35760003660031901126102b357611574612d6f565b61157c612d92565b611585336129a6565b33600052602090601b8252604060002054801561167b57336000818152601b8552604080822091909155805163a9059cbb60e01b8152848101928352602083019390935284918391829101038160007f00000000000000000000000000000000000000000000000000000000000000006001600160a01b03165af1908115610fee5760009161165e575b501561161c576001600755005b6064916040519162461bcd60e51b8352820152601960248201527f53543a20636c61696d207472616e73666572206661696c6564000000000000006044820152fd5b6116759150833d8511610fe757610fd98183612542565b3861160f565b506064916040519162461bcd60e51b8352820152601460248201527353543a206e6f7468696e6720746f20636c61696d60601b6044820152fd5b346102b35760003660031901126102b35760206040517f114e74f6ea3bd819998f78687bfcb11b140da08e9b7d222fa9c1f1ba1f2aa1228152f35b346102b35760203660031901126102b3576001600160a01b036117116125a4565b1660005260006020526020604060002054604051908152f35b50346102b357602090816003193601126102b35767ffffffffffffffff9181358381116102b35761175e9036908401612605565b9290936117696128aa565b831161191d575061177b6013546124b9565b601f81116118cb575b506000601f8311600114611835577f5ae146d76690e2b2fbd484f0af43653eb5fb3983df5b239a0a30422d030a7fa793836118259260009161182a575b508460011b906000198660031b1c1916176013555b6117de612d92565b600160ff1960055416176005557f62e78cea01bee320cd4e420270b5ea74000d11b0c9f74754ebdbfc544b05a25883604051338152a16040519383859485528401916126ba565b0390a1005b9050810135386117c1565b601f198316906013600052600080516020612db18339815191529160005b8181106118b45750917f5ae146d76690e2b2fbd484f0af43653eb5fb3983df5b239a0a30422d030a7fa7959185611825941061189a575b5050600184811b016013556117d6565b820135600019600387901b60f8161c19169055388061188a565b91928460018192868a013581550194019201611853565b6013600052600080516020612db1833981519152601f840160051c810191838510611913575b601f0160051c01905b8181106119075750611784565b600081556001016118fa565b90915081906118f1565b604190634e487b7160e01b6000525260246000fd5b346102b35760003660031901126102b357602060ff600554166040519015158152f35b346102b35760003660031901126102b357602060ff601254166040519015158152f35b50346102b3576020806003193601126102b357813591611996612924565b61199e612d6f565b60025415611b52578215611b1857604080516323b872dd60e01b81523383820190815230602082015291820185905290839082908190606001038160007f00000000000000000000000000000000000000000000000000000000000000006001600160a01b03165af1908115610fee57600091611afb575b5015611ab957670de0b6b3a7640000830290670de0b6b3a763ffff1984830401611aa4577f34fed24cebff9f2f4a855b41130e3120797d67a70a0695599980f6e83215760560608585611a848660025490611a7c611a7483836126ee565b60195461264b565b6019556126ee565b9060405192835282015265ffffffffffff42166040820152a16001600755005b601190634e487b7160e01b6000525260246000fd5b6064916040519162461bcd60e51b8352820152601860248201527f53543a2055534443207472616e73666572206661696c656400000000000000006044820152fd5b611b129150833d8511610fe757610fd98183612542565b38611a16565b6064916040519162461bcd60e51b8352820152601560248201527429aa1d103d32b937903234b9ba3934b13aba34b7b760591b6044820152fd5b6064916040519162461bcd60e51b8352820152601960248201527f53543a206e6f20746f6b656e73206f75747374616e64696e67000000000000006044820152fd5b50346102b35760003660031901126102b3573360009081527f54cdd369e4e8a8515e52ca72ec816c2101831ad1f18bf44102ed171459c9b4f8602052604090205460ff1615611ca457611be86013546124b9565b601f8111611c6c575b5060006013556005549060ff821615611c5d575060ff19166005557f5db9ee0a495bf2e6ff9c91a7834c1ba4fdd244a5e8aa4e537bd38aeae4b073aa6020604051338152a17f3cd348ff56b5e60ffb00b5cc262c0dff28e4741cdf0375413cd4ab8fe440e6aa600080a1005b604051638dfc202b60e01b8152fd5b6013600052601f600080516020612db1833981519152910160051c8101905b818110611c985750611bf1565b60008155600101611c8b565b6044906040519063e2517d3f60e01b8252339082015260006024820152fd5b346102b35760003660031901126102b3576040517f00000000000000000000000000000000000000000000000000000000000000006001600160a01b03168152602090f35b50346102b35760803660031901126102b357611d226125a4565b611d2a6125ba565b606435929060443567ffffffffffffffff85116102b357611d727fbb53097141337c38a36fed7fae913304cd0c540e1200dbb4c8c1cee707f9f2c293611dd896369101612605565b9590611d7c6128aa565b60018060a01b03611dbd8486838a16998a6000526000602052611da683604060002054101561266e565b611daf816129a6565b611db8826129a6565b612a3e565b604051948594855260406020860152169660408401916126ba565b0390a3005b50346102b35760403660031901126102b357611df76125ba565b336001600160a01b03821603611e11576103dc9135612cf8565b5060405163334bd91960e11b8152fd5b346102b35760003660031901126102b357602060405160128152f35b50346102b35760403660031901126102b3576103dc9035611e5c6125ba565b90806000526006602052611e77600160406000200154612980565b612c78565b346102b35760203660031901126102b3576001600160a01b03611e9d6125a4565b1660005260146020526020604060002054604051908152f35b50346102b35760203660031901126102b3573560005260066020526020600160406000200154604051908152f35b50346102b357611ef3366125d0565b9160018060a01b038116806000526001602052604060002033600052602052604060002054946000198610611f2f575b50506112ee9350612a3e565b848610611f9b578115611f83573315611f6b57506112ee9484916000526001602052604060002033600052602052036040600020553880611f23565b602490600060405191634a1406b160e11b8352820152fd5b60249060006040519163e602df0560e01b8352820152fd5b60408051637dc7a0d960e11b815233928101928352602083018890529082018690529081906060010390fd5b346102b35760003660031901126102b35760206040517fcab5a0bfe0b79d2c4b1c2e02599fa044d115b7511f9659307cb42769509677098152f35b346102b35760003660031901126102b3576020600254604051908152f35b346102b35760003660031901126102b3576040517f00000000000000000000000000000000000000000000000000000000000000006001600160a01b03168152602090f35b50346102b35760403660031901126102b35761207f6125a4565b6024359033156120ed576001600160a01b0316918215611f6b5750336000526001602052604060002082600052602052806040600020556040519081527f8c5be1e5ebec7d5bd14f71427d1e84f3dd0314c0f7b2291e5b200ac8c7c3b92560203392a3602060405160018152f35b60405163e602df0560e01b8152600081850152602490fd5b346102b35760003660031901126102b357604051600354600082612128836124b9565b91828252602093600190856001821691826000146121b4575050600114612157575b5061147b92500383612542565b84915060036000527fc2575a0e9e593c00f959f8c92f12db2869c3395a3b0502d05e2516446f71f85b906000915b85831061219c57505061147b93508201018561214a565b80548389018501528794508693909201918101612185565b60ff19168582015261147b95151560051b850101925087915061214a9050565b346102b35760003660031901126102b35760206040517f442a94f1a1fac79af32856af2a64f63648cfa2ef3b98610a5bb7cbec4cee69858152f35b50346102b35760403660031901126102b3576122296125a4565b6122316125ba565b6122396128aa565b60405163b9209e3360e01b81526001600160a01b0382811682860181905294602093909290919084816024817f000000000000000000000000000000000000000000000000000000000000000086165afa908115610fee576000916123ae575b501561236a5784169384600052600084526040600020549283156123265750827f401f439d865a766757ec78675925bd67198d5e78805aa41691b34b5d6a6cbbe694939282611daf6122ea946129a6565b83600052601b82526040600020548560005261230c604060002091825461264b565b905583600052601b825260006040812055604051908152a3005b60405162461bcd60e51b8152908101859052601860248201527f53543a206e6f20746f6b656e7320746f207265636f76657200000000000000006044820152606490fd5b60405162461bcd60e51b8152808401859052601b60248201527f53543a206e65772077616c6c6574206e6f7420766572696669656400000000006044820152606490fd5b6123c59150853d8711610fe757610fd98183612542565b38612299565b346102b35760003660031901126102b3576040516013546000826123ee836124b9565b91828252602093600190856001821691826000146121b457505060011461241c575061147b92500383612542565b8491506013600052600080516020612db1833981519152906000915b85831061244f57505061147b93508201018561214a565b80548389018501528794508693909201918101612438565b82346102b35760203660031901126102b357359063ffffffff60e01b82168092036102b357602091637965db0b60e01b81149081156124a8575b5015158152f35b6301ffc9a760e01b149050836124a1565b90600182811c921680156124e9575b60208310146124d357565b634e487b7160e01b600052602260045260246000fd5b91607f16916124c8565b610180810190811067ffffffffffffffff82111761251057604052565b634e487b7160e01b600052604160045260246000fd5b6040810190811067ffffffffffffffff82111761251057604052565b90601f8019910116810190811067ffffffffffffffff82111761251057604052565b919082519283825260005b848110612590575050826000602080949584010152601f8019910116010190565b60208183018101518483018201520161256f565b600435906001600160a01b03821682036102b357565b602435906001600160a01b03821682036102b357565b60609060031901126102b3576001600160a01b039060043582811681036102b3579160243590811681036102b3579060443590565b9181601f840112156102b35782359167ffffffffffffffff83116102b357602083818601950101116102b357565b908160209103126102b3575180151581036102b35790565b9190820180921161265857565b634e487b7160e01b600052601160045260246000fd5b1561267557565b60405162461bcd60e51b815260206004820152601860248201527f53543a20696e73756666696369656e742062616c616e636500000000000000006044820152606490fd5b908060209392818452848401376000828201840152601f01601f1916010190565b8181029291811591840414171561265857565b81156126f8570490565b634e487b7160e01b600052601260045260246000fd5b9190820391821161265857565b9291909260ff6005541661287b5760408051636c85cf6760e01b81526001600160a01b0383811660048301529586166024820152909460209392909184816044817f000000000000000000000000000000000000000000000000000000000000000087165afa90811561287057600091612853575b50156128175716600052600082526127b584600020546014845285600020549061270e565b106127de5760019280519182019082821067ffffffffffffffff83111761251057526000815290565b7f496e73756666696369656e7420756e66726f7a656e2062616c616e6365000000600093519161280d83612526565b601d835282015290565b5050507f436f6d706c69616e636520636865636b206661696c6564000000000000000000600093519161284983612526565b6017835282015290565b61286a9150853d8711610fe757610fd98183612542565b38612790565b87513d6000823e3d90fd5b50506040516000925061288d81612526565b600d81526c14d513c81a5cc81c185d5cd959609a1b602082015290565b3360009081527f84103e4942d70d0389ab910bdcdf181c3e028bc1897fe6797bb191ac79d8088260205260409020547f442a94f1a1fac79af32856af2a64f63648cfa2ef3b98610a5bb7cbec4cee69859060ff16156129065750565b6044906040519063e2517d3f60e01b82523360048301526024820152fd5b3360009081527f702fe919a6a7971e34c596917a48306a624527a41d0aa0fcf43050b6a305324860205260409020547f114e74f6ea3bd819998f78687bfcb11b140da08e9b7d222fa9c1f1ba1f2aa1229060ff16156129065750565b80600052600660205260406000203360005260205260ff60406000205416156129065750565b6019546001600160a01b039091166000818152601a602052604080822054929390926129d19161270e565b80151580612a2b575b6129ef575b50601954928152601a6020522055565b612a0c670de0b6b3a76400009185845283602052848420546126db565b04838252601b602052612a2383832091825461264b565b9055386129df565b50838252816020528282205415156129da565b92916001600160a01b0391828516918215612c5f57838216938415612c465760408051636c85cf6760e01b81526001600160a01b0389811660048301528516602482015260209491928590829060449082907f0000000000000000000000000000000000000000000000000000000000000000165afa908115612c3b57600091612c1e575b5015612bda57846000526000845282612ae983600020546014875284600020549061270e565b10612b9657612b0090612afb896129a6565b6129a6565b612b08612d92565b8360005260008352806000205496828810612b67575081849596977fddf252ad1be2c89b69c2b068fc378daa952ba7f163c4a11628f55a4df523b3ef9560005260008552038160002055856000528060002082815401905551908152a3565b905163391434e360e21b81526001600160a01b0390911660048201526024810187905260448101829052606490fd5b815162461bcd60e51b815260048101859052601960248201527f53543a20696e73756666696369656e7420756e66726f7a656e000000000000006044820152606490fd5b815162461bcd60e51b815260048101859052601a60248201527f53543a207472616e73666572206e6f7420636f6d706c69616e740000000000006044820152606490fd5b612c359150853d8711610fe757610fd98183612542565b38612ac3565b83513d6000823e3d90fd5b60405163ec442f0560e01b815260006004820152602490fd5b604051634b637e8f60e11b815260006004820152602490fd5b906000918083526006602052604083209160018060a01b03169182845260205260ff60408420541615600014612cf35780835260066020526040832082845260205260408320600160ff198254161790557f2f8788117e7eff1d82e926ec794901d17c78024a50270940304540a733656f0d339380a4600190565b505090565b906000918083526006602052604083209160018060a01b03169182845260205260ff604084205416600014612cf3578083526006602052604083208284526020526040832060ff1981541690557ff6391f5c32d9c69d2a47ea670b442974b53935d1edc7fd64eb21e047a839171b339380a4600190565b600260075414612d80576002600755565b604051633ee5aeb560e01b8152600490fd5b60ff60055416612d9e57565b60405163d93c066560e01b8152600490fdfe66de8ffda797e3de9c05e8fc57b3bf0ec28a930d40b0d285d93c06501cf6a090a2646970667358221220a6ff9d693f9fe94ebded77c99dec7d2c868b91afd7fec88dc2037920fce7732b64736f6c634300081800332f8788117e7eff1d82e926ec794901d17c78024a50270940304540a733656f0dc65a7bb8d6351c1cf70c95a316cc6a92839c986682d98bc35f958f4883f9d2a8f3f7a9fe364faab93b216da50a3214154f22a0a2b415b23a84c8169e8b636ee36e1540171b6c0c960b71a7020d9f60077f6af931a8bbf590da0223dacf75c7afa26469706673582212204155a6807c786b8bfdbc9530c4a99580b95c33a46aacf5715ebe535f0522118964736f6c634300081800332f8788117e7eff1d82e926ec794901d17c78024a50270940304540a733656f0d","opcodes":"PUSH1 0xC0 CALLVALUE PUSH3 0x119 JUMPI PUSH1 0x1F PUSH3 0x5F59 CODESIZE DUP2 SWAP1 SUB SWAP2 DUP3 ADD PUSH1 0x1F NOT AND DUP4 ADD SWAP2 PUSH1 0x1 PUSH1 0x1 PUSH1 0x40 SHL SUB DUP4 GT DUP5 DUP5 LT OR PUSH3 0x11E JUMPI DUP1 DUP5 SWAP3 PUSH1 0xA0 SWAP5 PUSH1 0x40 MSTORE DUP4 CODECOPY DUP2 ADD SUB SLT PUSH3 0x119 JUMPI DUP1 PUSH3 0xDA PUSH3 0x56 PUSH3 0xE1 SWAP4 PUSH3 0x134 JUMP JUMPDEST PUSH3 0x64 PUSH1 0x20 DUP5 ADD PUSH3 0x134 JUMP JUMPDEST SWAP1 PUSH3 0x73 PUSH1 0x40 DUP6 ADD PUSH3 0x134 JUMP JUMPDEST SWAP1 PUSH3 0x90 PUSH1 0x80 PUSH3 0x88 PUSH1 0x60 DUP9 ADD PUSH3 0x134 JUMP JUMPDEST SWAP7 ADD PUSH3 0x134 JUMP JUMPDEST SWAP3 PUSH1 0x1 DUP1 SSTORE PUSH1 0x2 SLOAD SWAP2 PUSH1 0x80 MSTORE PUSH1 0xA0 MSTORE PUSH1 0x4B PUSH1 0xA1 SHL SWAP2 PUSH1 0x1 DUP1 PUSH1 0xA0 SHL SUB AND SWAP1 PUSH1 0x1 DUP1 PUSH1 0xB0 SHL SUB NOT AND OR OR PUSH1 0x2 SSTORE PUSH3 0xC7 DUP4 PUSH3 0x149 JUMP JUMPDEST POP PUSH3 0xD3 DUP4 PUSH3 0x1C9 JUMP JUMPDEST POP PUSH3 0x1C9 JUMP JUMPDEST POP PUSH3 0x26B JUMP JUMPDEST POP PUSH1 0x40 MLOAD PUSH2 0x5C30 SWAP1 DUP2 PUSH3 0x309 DUP3 CODECOPY PUSH1 0x80 MLOAD DUP2 DUP2 DUP2 PUSH2 0xB5F ADD MSTORE PUSH2 0x1880 ADD MSTORE PUSH1 0xA0 MLOAD DUP2 DUP2 DUP2 PUSH2 0x75C ADD MSTORE DUP2 DUP2 PUSH2 0xB90 ADD MSTORE PUSH2 0x152D ADD MSTORE RETURN JUMPDEST PUSH1 0x0 DUP1 REVERT JUMPDEST PUSH4 0x4E487B71 PUSH1 0xE0 SHL PUSH1 0x0 MSTORE PUSH1 0x41 PUSH1 0x4 MSTORE PUSH1 0x24 PUSH1 0x0 REVERT JUMPDEST MLOAD SWAP1 PUSH1 0x1 PUSH1 0x1 PUSH1 0xA0 SHL SUB DUP3 AND DUP3 SUB PUSH3 0x119 JUMPI JUMP JUMPDEST PUSH1 0x1 PUSH1 0x1 PUSH1 0xA0 SHL SUB AND PUSH1 0x0 DUP2 DUP2 MSTORE PUSH32 0xAD3228B676F7D3CD4284A5443F17F1962B36E491B30A40B2405849E597BA5FB5 PUSH1 0x20 MSTORE PUSH1 0x40 DUP2 KECCAK256 SLOAD SWAP1 SWAP2 SWAP1 PUSH1 0xFF AND PUSH3 0x1C5 JUMPI DUP2 DUP1 MSTORE DUP2 PUSH1 0x20 MSTORE PUSH1 0x40 DUP3 KECCAK256 DUP2 DUP4 MSTORE PUSH1 0x20 MSTORE PUSH1 0x40 DUP3 KECCAK256 PUSH1 0x1 PUSH1 0xFF NOT DUP3 SLOAD AND OR SWAP1 SSTORE CALLER SWAP2 PUSH1 0x0 DUP1 MLOAD PUSH1 0x20 PUSH3 0x5F39 DUP4 CODECOPY DUP2 MLOAD SWAP2 MSTORE DUP2 DUP1 LOG4 PUSH1 0x1 SWAP1 JUMP JUMPDEST POP SWAP1 JUMP JUMPDEST PUSH1 0x1 PUSH1 0x1 PUSH1 0xA0 SHL SUB AND PUSH1 0x0 DUP2 DUP2 MSTORE PUSH32 0xEE57CD81E84075558E8FCC182A1F4393F91FC97F963A136E66B7F949A62F319F PUSH1 0x20 MSTORE PUSH1 0x40 DUP2 KECCAK256 SLOAD SWAP1 SWAP2 SWAP1 PUSH32 0x97667070C54EF182B0F5858B034BEAC1B6F3089AA2D3188BB1E8929F4FA9B929 SWAP1 PUSH1 0xFF AND PUSH3 0x266 JUMPI DUP1 DUP4 MSTORE DUP3 PUSH1 0x20 MSTORE PUSH1 0x40 DUP4 KECCAK256 DUP3 DUP5 MSTORE PUSH1 0x20 MSTORE PUSH1 0x40 DUP4 KECCAK256 PUSH1 0x1 PUSH1 0xFF NOT DUP3 SLOAD AND OR SWAP1 SSTORE PUSH1 0x0 DUP1 MLOAD PUSH1 0x20 PUSH3 0x5F39 DUP4 CODECOPY DUP2 MLOAD SWAP2 MSTORE CALLER SWAP4 DUP1 LOG4 PUSH1 0x1 SWAP1 JUMP JUMPDEST POP POP SWAP1 JUMP JUMPDEST PUSH1 0x1 PUSH1 0x1 PUSH1 0xA0 SHL SUB AND PUSH1 0x0 DUP2 DUP2 MSTORE PUSH32 0x335573AA7CAFBA10A32E2694464D1E7E5294D917876D04D506249FBF84D791AF PUSH1 0x20 MSTORE PUSH1 0x40 DUP2 KECCAK256 SLOAD SWAP1 SWAP2 SWAP1 PUSH32 0x442A94F1A1FAC79AF32856AF2A64F63648CFA2EF3B98610A5BB7CBEC4CEE6985 SWAP1 PUSH1 0xFF AND PUSH3 0x266 JUMPI DUP1 DUP4 MSTORE DUP3 PUSH1 0x20 MSTORE PUSH1 0x40 DUP4 KECCAK256 DUP3 DUP5 MSTORE PUSH1 0x20 MSTORE PUSH1 0x40 DUP4 KECCAK256 PUSH1 0x1 PUSH1 0xFF NOT DUP3 SLOAD AND OR SWAP1 SSTORE PUSH1 0x0 DUP1 MLOAD PUSH1 0x20 PUSH3 0x5F39 DUP4 CODECOPY DUP2 MLOAD SWAP2 MSTORE CALLER SWAP4 DUP1 LOG4 PUSH1 0x1 SWAP1 JUMP INVALID PUSH1 0x80 DUP1 PUSH1 0x40 MSTORE PUSH1 0x4 CALLDATASIZE LT ISZERO PUSH3 0x14 JUMPI PUSH1 0x0 DUP1 REVERT JUMPDEST PUSH1 0x0 SWAP1 DUP2 CALLDATALOAD PUSH1 0xE0 SHR SWAP1 DUP2 PUSH4 0x1FFC9A7 EQ PUSH3 0x19A6 JUMPI POP DUP1 PUSH4 0x62D3BD7 EQ PUSH3 0x1969 JUMPI DUP1 PUSH4 0x927632B EQ PUSH3 0x18AF JUMPI DUP1 PUSH4 0x134E18F4 EQ PUSH3 0x1868 JUMPI DUP1 PUSH4 0x1F29D285 EQ PUSH3 0x14C8 JUMPI DUP1 PUSH4 0x1FB7A0D4 EQ PUSH3 0x144B JUMPI DUP1 PUSH4 0x226620E4 EQ PUSH3 0x13EE JUMPI DUP1 PUSH4 0x248A9CA3 EQ PUSH3 0x13C0 JUMPI DUP1 PUSH4 0x2F2FF15D EQ PUSH3 0x137B JUMPI DUP1 PUSH4 0x36568ABE EQ PUSH3 0x132C JUMPI DUP1 PUSH4 0x37C8233D EQ PUSH3 0x78B JUMPI DUP1 PUSH4 0x3E413BEE EQ PUSH3 0x744 JUMPI DUP1 PUSH4 0x4488B652 EQ PUSH3 0x67E JUMPI DUP1 PUSH4 0x5647EA98 EQ PUSH3 0x5EE JUMPI DUP1 PUSH4 0x60DC2340 EQ PUSH3 0x5C3 JUMPI DUP1 PUSH4 0x687D2BE2 EQ PUSH3 0x56A JUMPI DUP1 PUSH4 0x7FA5DD9A EQ PUSH3 0x43B JUMPI DUP1 PUSH4 0x7FFFB57F EQ PUSH3 0x2FA JUMPI DUP1 PUSH4 0x91D14854 EQ PUSH3 0x2AB JUMPI DUP1 PUSH4 0xA217FDDF EQ PUSH3 0x28D JUMPI DUP1 PUSH4 0xA90B2C43 EQ PUSH3 0x26D JUMPI DUP1 PUSH4 0xBCAE25A4 EQ PUSH3 0x246 JUMPI DUP1 PUSH4 0xBFA37E37 EQ PUSH3 0x1D6 JUMPI DUP1 PUSH4 0xD547741F EQ PUSH3 0x18D JUMPI PUSH4 0xF5B541A6 EQ PUSH3 0x14E JUMPI PUSH1 0x0 DUP1 REVERT JUMPDEST CALLVALUE PUSH3 0x18A JUMPI DUP1 PUSH1 0x3 NOT CALLDATASIZE ADD SLT PUSH3 0x18A JUMPI PUSH1 0x20 PUSH1 0x40 MLOAD PUSH32 0x97667070C54EF182B0F5858B034BEAC1B6F3089AA2D3188BB1E8929F4FA9B929 DUP2 MSTORE RETURN JUMPDEST DUP1 REVERT JUMPDEST POP CALLVALUE PUSH3 0x18A JUMPI PUSH1 0x40 CALLDATASIZE PUSH1 0x3 NOT ADD SLT PUSH3 0x18A JUMPI PUSH3 0x1D2 PUSH1 0x4 CALLDATALOAD PUSH3 0x1B2 PUSH3 0x1BC3 JUMP JUMPDEST SWAP1 DUP1 DUP5 MSTORE DUP4 PUSH1 0x20 MSTORE PUSH3 0x1CC PUSH1 0x1 PUSH1 0x40 DUP7 KECCAK256 ADD SLOAD PUSH3 0x1D56 JUMP JUMPDEST PUSH3 0x1DFC JUMP JUMPDEST POP DUP1 RETURN JUMPDEST POP CALLVALUE PUSH3 0x18A JUMPI PUSH1 0x20 CALLDATASIZE PUSH1 0x3 NOT ADD SLT PUSH3 0x18A JUMPI PUSH3 0x1F4 PUSH3 0x1BAC JUMP JUMPDEST PUSH3 0x1FE PUSH3 0x1D1B JUMP JUMPDEST PUSH1 0x2 SLOAD PUSH1 0x1 PUSH1 0x1 PUSH1 0xA0 SHL SUB SWAP2 DUP3 AND SWAP2 DUP3 SWAP1 DUP3 AND PUSH32 0xB213AD27CE6DB647182439E573968415546E6DB3EBFB04B3E84D6B0412025D41 DUP6 DUP1 LOG3 PUSH1 0x1 PUSH1 0x1 PUSH1 0xA0 SHL SUB NOT AND OR PUSH1 0x2 SSTORE DUP1 RETURN JUMPDEST POP CALLVALUE PUSH3 0x18A JUMPI DUP1 PUSH1 0x3 NOT CALLDATASIZE ADD SLT PUSH3 0x18A JUMPI PUSH1 0x20 PUSH2 0xFFFF PUSH1 0x2 SLOAD PUSH1 0xA0 SHR AND PUSH1 0x40 MLOAD SWAP1 DUP2 MSTORE RETURN JUMPDEST POP CALLVALUE PUSH3 0x18A JUMPI DUP1 PUSH1 0x3 NOT CALLDATASIZE ADD SLT PUSH3 0x18A JUMPI PUSH1 0x20 PUSH1 0x6 SLOAD PUSH1 0x40 MLOAD SWAP1 DUP2 MSTORE RETURN JUMPDEST POP CALLVALUE PUSH3 0x18A JUMPI DUP1 PUSH1 0x3 NOT CALLDATASIZE ADD SLT PUSH3 0x18A JUMPI PUSH1 0x20 SWAP1 PUSH1 0x40 MLOAD SWAP1 DUP2 MSTORE RETURN JUMPDEST POP CALLVALUE PUSH3 0x18A JUMPI PUSH1 0x40 CALLDATASIZE PUSH1 0x3 NOT ADD SLT PUSH3 0x18A JUMPI PUSH1 0x40 PUSH3 0x2CB PUSH3 0x1BC3 JUMP JUMPDEST SWAP2 PUSH1 0x4 CALLDATALOAD DUP2 MSTORE DUP1 PUSH1 0x20 MSTORE KECCAK256 SWAP1 PUSH1 0x1 DUP1 PUSH1 0xA0 SHL SUB AND PUSH1 0x0 MSTORE PUSH1 0x20 MSTORE PUSH1 0x20 PUSH1 0xFF PUSH1 0x40 PUSH1 0x0 KECCAK256 SLOAD AND PUSH1 0x40 MLOAD SWAP1 ISZERO ISZERO DUP2 MSTORE RETURN JUMPDEST POP CALLVALUE PUSH3 0x18A JUMPI PUSH1 0x20 SWAP1 DUP2 PUSH1 0x3 NOT CALLDATASIZE ADD SLT PUSH3 0x18A JUMPI DUP1 PUSH1 0x40 SWAP2 PUSH1 0xC0 DUP4 MLOAD PUSH3 0x323 DUP2 PUSH3 0x1A3D JUMP JUMPDEST DUP3 DUP2 MSTORE DUP3 DUP7 DUP3 ADD MSTORE PUSH1 0x60 DUP6 DUP3 ADD MSTORE PUSH1 0x60 DUP1 DUP3 ADD MSTORE DUP3 PUSH1 0x80 DUP3 ADD MSTORE DUP3 PUSH1 0xA0 DUP3 ADD MSTORE ADD MSTORE PUSH1 0x4 CALLDATALOAD DUP2 MSTORE PUSH1 0x3 DUP4 MSTORE KECCAK256 SWAP1 PUSH1 0x40 MLOAD SWAP2 PUSH3 0x35F DUP4 PUSH3 0x1A3D JUMP JUMPDEST DUP1 SLOAD PUSH1 0x1 PUSH1 0x1 PUSH1 0xA0 SHL SUB SWAP1 DUP2 AND DUP5 MSTORE PUSH1 0x1 DUP3 ADD SLOAD DUP2 AND DUP4 DUP6 ADD SWAP1 DUP2 MSTORE SWAP1 PUSH3 0x38A PUSH1 0x2 DUP5 ADD PUSH3 0x1A7B JUMP JUMPDEST SWAP2 PUSH1 0x40 DUP7 ADD SWAP3 DUP4 MSTORE PUSH3 0x421 PUSH3 0x3A4 PUSH1 0x3 DUP7 ADD PUSH3 0x1A7B JUMP JUMPDEST PUSH1 0x60 DUP9 ADD SWAP1 DUP2 MSTORE PUSH3 0x40D PUSH1 0x5 PUSH1 0x4 DUP9 ADD SLOAD SWAP8 PUSH1 0x80 DUP12 ADD SWAP9 DUP10 MSTORE ADD SLOAD SWAP6 PUSH6 0xFFFFFFFFFFFF SWAP6 PUSH1 0xA0 DUP12 ADD SWAP6 DUP8 DUP10 AND DUP8 MSTORE PUSH1 0xFF PUSH1 0xC0 DUP14 ADD SWAP10 PUSH1 0x30 SHR AND ISZERO ISZERO DUP10 MSTORE DUP11 DUP3 PUSH1 0x40 MLOAD SWAP14 DUP15 SWAP14 DUP15 MSTORE MLOAD AND SWAP1 DUP13 ADD MSTORE MLOAD AND PUSH1 0x40 DUP11 ADD MSTORE MLOAD PUSH1 0xE0 PUSH1 0x60 DUP11 ADD MSTORE PUSH2 0x100 DUP10 ADD SWAP1 PUSH3 0x1B2C JUMP JUMPDEST SWAP1 MLOAD DUP8 DUP3 SUB PUSH1 0x1F NOT ADD PUSH1 0x80 DUP10 ADD MSTORE PUSH3 0x1B2C JUMP JUMPDEST SWAP4 MLOAD PUSH1 0xA0 DUP7 ADD MSTORE MLOAD AND PUSH1 0xC0 DUP5 ADD MSTORE MLOAD ISZERO ISZERO PUSH1 0xE0 DUP4 ADD MSTORE SUB SWAP1 RETURN JUMPDEST POP CALLVALUE PUSH3 0x18A JUMPI PUSH1 0x40 CALLDATASIZE PUSH1 0x3 NOT ADD SLT PUSH3 0x18A JUMPI PUSH1 0x4 CALLDATALOAD PUSH1 0x24 CALLDATALOAD PUSH1 0x1 PUSH1 0x1 PUSH1 0x40 SHL SUB DUP1 DUP3 GT PUSH3 0x566 JUMPI CALLDATASIZE PUSH1 0x23 DUP4 ADD SLT ISZERO PUSH3 0x566 JUMPI DUP2 PUSH1 0x4 ADD CALLDATALOAD SWAP1 DUP2 GT PUSH3 0x566 JUMPI CALLDATASIZE PUSH1 0x24 DUP3 DUP5 ADD ADD GT PUSH3 0x566 JUMPI CALLER PUSH1 0x0 SWAP1 DUP2 MSTORE PUSH32 0x335573AA7CAFBA10A32E2694464D1E7E5294D917876D04D506249FBF84D791AF PUSH1 0x20 MSTORE PUSH1 0x40 SWAP1 KECCAK256 SLOAD PUSH32 0x442A94F1A1FAC79AF32856AF2A64F63648CFA2EF3B98610A5BB7CBEC4CEE6985 SWAP1 PUSH1 0xFF AND ISZERO PUSH3 0x548 JUMPI POP SWAP1 PUSH32 0xE67E3FDBA1466FBD137EC252326AED7099B019871C05048984523A50DCBD996E SWAP2 DUP4 DUP6 MSTORE PUSH1 0x3 PUSH1 0x20 MSTORE PUSH1 0x5 PUSH1 0x40 DUP7 KECCAK256 ADD PUSH7 0xFF000000000000 NOT DUP2 SLOAD AND SWAP1 SSTORE PUSH3 0x542 PUSH1 0x40 MLOAD SWAP3 DUP4 SWAP3 PUSH1 0x20 DUP5 MSTORE PUSH1 0x24 PUSH1 0x20 DUP6 ADD SWAP3 ADD PUSH3 0x1CB0 JUMP JUMPDEST SUB SWAP1 LOG2 DUP1 RETURN JUMPDEST PUSH1 0x44 SWAP1 PUSH1 0x40 MLOAD SWAP1 PUSH4 0xE2517D3F PUSH1 0xE0 SHL DUP3 MSTORE CALLER PUSH1 0x4 DUP4 ADD MSTORE PUSH1 0x24 DUP3 ADD MSTORE REVERT JUMPDEST DUP4 DUP1 REVERT JUMPDEST POP CALLVALUE PUSH3 0x18A JUMPI PUSH1 0x20 CALLDATASIZE PUSH1 0x3 NOT ADD SLT PUSH3 0x18A JUMPI PUSH1 0x4 CALLDATALOAD PUSH1 0x5 SLOAD DUP2 LT ISZERO PUSH3 0x5BF JUMPI PUSH1 0x20 SWAP1 PUSH1 0x5 PUSH1 0x0 MSTORE PUSH32 0x36B6384B5ECA791C62761152D0C79BB0604C104A5FB6F4EB0703F3154BB3DB0 ADD SLOAD PUSH1 0x40 MLOAD SWAP1 DUP2 MSTORE RETURN JUMPDEST POP DUP1 REVERT JUMPDEST POP CALLVALUE PUSH3 0x18A JUMPI DUP1 PUSH1 0x3 NOT CALLDATASIZE ADD SLT PUSH3 0x18A JUMPI PUSH1 0x2 SLOAD PUSH1 0x40 MLOAD PUSH1 0x1 PUSH1 0x1 PUSH1 0xA0 SHL SUB SWAP1 SWAP2 AND DUP2 MSTORE PUSH1 0x20 SWAP1 RETURN JUMPDEST POP CALLVALUE PUSH3 0x18A JUMPI PUSH1 0x20 DUP1 PUSH1 0x3 NOT CALLDATASIZE ADD SLT PUSH3 0x5BF JUMPI PUSH1 0x1 PUSH1 0x1 PUSH1 0xA0 SHL SUB PUSH3 0x615 PUSH3 0x1BAC JUMP JUMPDEST AND DUP3 MSTORE PUSH1 0x4 PUSH1 0x20 MSTORE PUSH1 0x40 DUP3 KECCAK256 SWAP2 PUSH1 0x40 MLOAD DUP1 SWAP3 PUSH1 0x20 DUP6 SLOAD SWAP3 DUP4 DUP2 MSTORE ADD SWAP5 DUP4 MSTORE PUSH1 0x20 DUP4 KECCAK256 SWAP3 SWAP1 JUMPDEST DUP3 DUP3 LT PUSH3 0x666 JUMPI PUSH3 0x662 DUP6 PUSH3 0x655 DUP2 DUP10 SUB DUP3 PUSH3 0x1A59 JUMP JUMPDEST PUSH1 0x40 MLOAD SWAP2 DUP3 SWAP2 DUP3 PUSH3 0x1B6E JUMP JUMPDEST SUB SWAP1 RETURN JUMPDEST DUP4 SLOAD DUP7 MSTORE SWAP5 DUP6 ADD SWAP5 PUSH1 0x1 SWAP4 DUP5 ADD SWAP4 SWAP1 SWAP2 ADD SWAP1 PUSH3 0x63A JUMP JUMPDEST POP CALLVALUE PUSH3 0x18A JUMPI PUSH1 0x20 CALLDATASIZE PUSH1 0x3 NOT ADD SLT PUSH3 0x18A JUMPI PUSH2 0xFFFF PUSH1 0x4 CALLDATALOAD DUP2 DUP2 AND DUP1 DUP3 SUB PUSH3 0x73F JUMPI PUSH3 0x6AD PUSH3 0x1D1B JUMP JUMPDEST PUSH2 0x1F4 DUP2 GT PUSH3 0x702 JUMPI PUSH1 0x2 SLOAD SWAP3 DUP4 PUSH1 0xA0 SHR AND PUSH32 0x2E547CE9081BC30652D4CF1C91D4734DDA23985C1136DA3FF9C844624859DFFA DUP6 DUP1 LOG3 PUSH2 0xFFFF PUSH1 0xA0 SHL NOT SWAP1 SWAP2 AND PUSH1 0xA0 SWAP2 SWAP1 SWAP2 SHL PUSH2 0xFFFF PUSH1 0xA0 SHL AND OR PUSH1 0x2 SSTORE DUP1 RETURN JUMPDEST PUSH1 0x40 MLOAD PUSH3 0x461BCD PUSH1 0xE5 SHL DUP2 MSTORE PUSH1 0x20 PUSH1 0x4 DUP3 ADD MSTORE PUSH1 0x15 PUSH1 0x24 DUP3 ADD MSTORE PUSH21 0x8CC2C6E8DEE4F27440CCCACA40E8DEDE40D0D2CED PUSH1 0x5B SHL PUSH1 0x44 DUP3 ADD MSTORE PUSH1 0x64 SWAP1 REVERT JUMPDEST PUSH1 0x0 DUP1 REVERT JUMPDEST POP CALLVALUE PUSH3 0x18A JUMPI DUP1 PUSH1 0x3 NOT CALLDATASIZE ADD SLT PUSH3 0x18A JUMPI PUSH1 0x40 MLOAD PUSH32 0x0 PUSH1 0x1 PUSH1 0x1 PUSH1 0xA0 SHL SUB AND DUP2 MSTORE PUSH1 0x20 SWAP1 RETURN JUMPDEST POP CALLVALUE PUSH3 0x18A JUMPI PUSH1 0x3 NOT PUSH1 0x40 CALLDATASIZE DUP3 ADD SLT PUSH3 0x5BF JUMPI PUSH1 0x1 PUSH1 0x1 PUSH1 0x40 SHL SUB PUSH1 0x4 CALLDATALOAD GT PUSH3 0x5BF JUMPI PUSH2 0x180 PUSH1 0x4 CALLDATALOAD CALLDATASIZE SUB SWAP2 DUP3 ADD SLT PUSH3 0x5BF JUMPI PUSH3 0x7CC PUSH3 0x1BC3 JUMP JUMPDEST CALLER PUSH1 0x0 SWAP1 DUP2 MSTORE PUSH32 0xEE57CD81E84075558E8FCC182A1F4393F91FC97F963A136E66B7F949A62F319F PUSH1 0x20 MSTORE PUSH1 0x40 SWAP1 KECCAK256 SLOAD SWAP1 SWAP3 SWAP1 PUSH32 0x97667070C54EF182B0F5858B034BEAC1B6F3089AA2D3188BB1E8929F4FA9B929 SWAP1 PUSH1 0xFF AND ISZERO PUSH3 0x548 JUMPI POP PUSH1 0x1 PUSH1 0x1 PUSH1 0xA0 SHL SUB PUSH3 0x843 PUSH1 0x4 CALLDATALOAD PUSH2 0x124 ADD PUSH3 0x1C32 JUMP JUMPDEST AND ISZERO PUSH3 0x12F0 JUMPI PUSH1 0x1 PUSH1 0x1 PUSH1 0xA0 SHL SUB PUSH3 0x863 PUSH1 0x4 CALLDATALOAD PUSH2 0x144 ADD PUSH3 0x1C32 JUMP JUMPDEST AND ISZERO PUSH3 0x12B2 JUMPI PUSH1 0x64 SWAP3 DUP4 PUSH1 0x4 CALLDATALOAD ADD CALLDATALOAD ISZERO PUSH3 0x1277 JUMPI PUSH1 0x84 PUSH1 0x4 CALLDATALOAD ADD CALLDATALOAD ISZERO PUSH3 0x123D JUMPI PUSH1 0xA4 PUSH1 0x4 CALLDATALOAD ADD CALLDATALOAD ISZERO PUSH3 0x1202 JUMPI PUSH2 0x104 PUSH1 0x4 CALLDATALOAD ADD CALLDATALOAD SWAP3 PUSH6 0xFFFFFFFFFFFF DUP5 AND DUP5 SUB PUSH3 0x11BA JUMPI TIMESTAMP PUSH6 0xFFFFFFFFFFFF DUP6 AND GT ISZERO PUSH3 0x11BE JUMPI PUSH1 0x22 NOT ADD PUSH1 0x4 CALLDATALOAD PUSH1 0xE4 ADD CALLDATALOAD SLT ISZERO PUSH3 0x5BF JUMPI PUSH1 0xE4 PUSH1 0x4 CALLDATALOAD ADD CALLDATALOAD PUSH1 0x4 CALLDATALOAD ADD PUSH1 0x4 DUP2 ADD CALLDATALOAD SWAP1 PUSH1 0x1 PUSH1 0x1 PUSH1 0x40 SHL SUB DUP3 GT PUSH3 0x566 JUMPI PUSH1 0x24 DUP3 PUSH1 0x5 SHL CALLDATASIZE SUB SWAP2 ADD SGT PUSH3 0x11BA JUMPI ISZERO PUSH3 0x117E JUMPI PUSH3 0x916 PUSH2 0x124 PUSH1 0x4 CALLDATALOAD ADD PUSH3 0x1C32 JUMP JUMPDEST PUSH1 0x74 PUSH3 0x974 PUSH3 0x92C PUSH1 0x4 DUP1 CALLDATALOAD ADD DUP1 PUSH3 0x1C47 JUMP JUMPDEST SWAP3 SWAP1 PUSH1 0x6 SLOAD DUP5 PUSH1 0x40 MLOAD SWAP6 DUP7 SWAP4 PUSH1 0x20 DUP6 ADD SWAP9 PUSH12 0xFFFFFFFFFFFFFFFFFFFFFFFF NOT SWAP1 PUSH1 0x60 SHL AND DUP10 MSTORE PUSH1 0x34 DUP6 ADD CALLDATACOPY DUP3 ADD SWAP1 TIMESTAMP PUSH1 0x34 DUP4 ADD MSTORE PUSH1 0x54 DUP3 ADD MSTORE SUB PUSH1 0x54 DUP2 ADD DUP5 MSTORE ADD DUP3 PUSH3 0x1A59 JUMP JUMPDEST MLOAD SWAP1 KECCAK256 SWAP3 PUSH1 0x40 MLOAD SWAP2 DUP3 PUSH2 0x3D88 DUP2 ADD LT PUSH1 0x1 PUSH1 0x1 PUSH1 0x40 SHL SUB PUSH2 0x3D88 DUP6 ADD GT OR PUSH3 0x116A JUMPI PUSH2 0x3D88 PUSH3 0x1E73 DUP5 CODECOPY PUSH1 0xA0 PUSH2 0x3D88 DUP5 ADD MSTORE PUSH3 0xA3E PUSH3 0xA0F PUSH3 0x9E0 PUSH3 0x9C4 PUSH1 0x4 DUP1 CALLDATALOAD ADD DUP1 PUSH3 0x1C7C JUMP JUMPDEST PUSH2 0x180 PUSH1 0xA0 PUSH2 0x3D88 DUP11 ADD ADD MSTORE PUSH2 0x220 PUSH2 0x3D88 DUP10 ADD ADD SWAP2 PUSH3 0x1CB0 JUMP JUMPDEST PUSH3 0x9F6 PUSH1 0x24 PUSH1 0x4 CALLDATALOAD ADD PUSH1 0x4 CALLDATALOAD PUSH1 0x4 ADD PUSH3 0x1C7C JUMP JUMPDEST PUSH2 0x3D88 DUP9 ADD DUP1 DUP5 SUB PUSH1 0x9F NOT ADD PUSH1 0xC0 SWAP1 SWAP2 ADD MSTORE SWAP1 PUSH3 0x1CB0 JUMP JUMPDEST PUSH3 0xA25 PUSH1 0x44 PUSH1 0x4 CALLDATALOAD ADD PUSH1 0x4 CALLDATALOAD PUSH1 0x4 ADD PUSH3 0x1C7C JUMP JUMPDEST PUSH2 0x3D88 DUP8 ADD DUP1 DUP5 SUB PUSH1 0x9F NOT ADD PUSH1 0xE0 SWAP1 SWAP2 ADD MSTORE SWAP1 PUSH3 0x1CB0 JUMP JUMPDEST PUSH1 0x4 DUP1 CALLDATALOAD DUP1 DUP10 ADD CALLDATALOAD PUSH2 0x3D88 DUP8 ADD PUSH2 0x100 DUP2 ADD SWAP2 SWAP1 SWAP2 MSTORE PUSH1 0x84 DUP3 ADD CALLDATALOAD PUSH2 0x120 DUP3 ADD MSTORE PUSH1 0xA4 DUP3 ADD CALLDATALOAD PUSH2 0x140 DUP3 ADD MSTORE PUSH1 0xC4 DUP3 ADD CALLDATALOAD PUSH2 0x160 SWAP1 SWAP2 ADD MSTORE PUSH1 0xE4 DUP2 ADD CALLDATALOAD ADD SWAP4 SWAP2 SWAP1 PUSH1 0x1 PUSH1 0x1 PUSH1 0x40 SHL SUB SWAP1 DUP6 ADD CALLDATALOAD GT PUSH3 0x1166 JUMPI PUSH1 0x4 DUP5 ADD CALLDATALOAD PUSH1 0x5 SHL CALLDATASIZE SUB PUSH1 0x24 DUP6 ADD SGT PUSH3 0x1166 JUMPI SWAP1 PUSH1 0x20 DUP6 SWAP5 SWAP4 SWAP3 PUSH1 0x9F NOT PUSH2 0x3D88 DUP8 ADD DUP3 SUB ADD PUSH2 0x180 PUSH2 0x3D88 DUP9 ADD ADD MSTORE PUSH1 0x4 DUP6 ADD CALLDATALOAD DUP2 MSTORE ADD SWAP3 PUSH1 0x24 DUP2 ADD SWAP1 DUP8 JUMPDEST PUSH1 0x4 DUP3 ADD CALLDATALOAD DUP2 LT PUSH3 0x1135 JUMPI POP POP POP PUSH6 0xFFFFFFFFFFFF AND PUSH2 0x3D88 DUP5 ADD PUSH2 0x1A0 ADD MSTORE PUSH1 0x1 PUSH1 0x1 PUSH1 0xA0 SHL SUB PUSH3 0xB0B PUSH1 0x4 CALLDATALOAD PUSH2 0x124 ADD PUSH3 0x1BDA JUMP JUMPDEST AND PUSH2 0x3D88 DUP5 ADD PUSH2 0x1C0 ADD MSTORE PUSH1 0x1 PUSH1 0x1 PUSH1 0xA0 SHL SUB PUSH3 0xB2F PUSH1 0x4 CALLDATALOAD PUSH2 0x144 ADD PUSH3 0x1BDA JUMP JUMPDEST AND PUSH2 0x1E0 PUSH2 0x3D88 DUP6 ADD ADD MSTORE PUSH2 0xFFFF PUSH3 0xB4E PUSH2 0x164 PUSH1 0x4 CALLDATALOAD ADD PUSH3 0x1C08 JUMP JUMPDEST AND PUSH2 0x3D88 DUP5 ADD PUSH2 0x200 DUP2 ADD SWAP2 SWAP1 SWAP2 MSTORE PUSH32 0x0 PUSH1 0x1 PUSH1 0x1 PUSH1 0xA0 SHL SUB SWAP1 DUP2 AND PUSH1 0x20 DUP4 ADD MSTORE PUSH32 0x0 DUP2 AND PUSH1 0x40 DUP4 ADD MSTORE ADDRESS PUSH1 0x60 DUP4 ADD MSTORE SWAP2 SWAP1 SWAP2 AND PUSH1 0x80 SWAP1 SWAP2 ADD MSTORE SUB SWAP1 DUP3 CREATE SWAP1 DUP2 ISZERO PUSH3 0x1129 JUMPI PUSH3 0xBE3 PUSH2 0x124 PUSH1 0x4 CALLDATALOAD ADD PUSH3 0x1C32 JUMP JUMPDEST PUSH3 0xC4C PUSH3 0xBF7 PUSH1 0x4 DUP1 CALLDATALOAD ADD DUP1 PUSH3 0x1C47 JUMP JUMPDEST SWAP1 PUSH3 0xC3F PUSH3 0xC12 PUSH1 0x44 PUSH1 0x4 CALLDATALOAD ADD PUSH1 0x4 CALLDATALOAD PUSH1 0x4 ADD PUSH3 0x1C47 JUMP JUMPDEST SWAP3 SWAP1 SWAP4 PUSH1 0x40 MLOAD SWAP7 PUSH3 0xC24 DUP9 PUSH3 0x1A3D JUMP JUMPDEST PUSH1 0x1 PUSH1 0x1 PUSH1 0xA0 SHL SUB DUP11 DUP2 AND DUP10 MSTORE AND PUSH1 0x20 DUP9 ADD MSTORE CALLDATASIZE SWAP2 PUSH3 0x1CD1 JUMP JUMPDEST PUSH1 0x40 DUP6 ADD MSTORE CALLDATASIZE SWAP2 PUSH3 0x1CD1 JUMP JUMPDEST PUSH1 0x60 DUP3 ADD MSTORE DUP5 PUSH1 0x4 CALLDATALOAD ADD CALLDATALOAD PUSH1 0x80 DUP3 ADD MSTORE PUSH6 0xFFFFFFFFFFFF TIMESTAMP AND PUSH1 0xA0 DUP3 ADD MSTORE PUSH1 0x1 PUSH1 0xC0 DUP3 ADD MSTORE DUP4 DUP3 MSTORE PUSH1 0x3 PUSH1 0x20 MSTORE PUSH1 0x40 DUP3 KECCAK256 PUSH1 0x1 DUP1 PUSH1 0xA0 SHL SUB DUP3 MLOAD AND PUSH12 0xFFFFFFFFFFFFFFFFFFFFFFFF PUSH1 0xA0 SHL SWAP1 DUP2 DUP4 SLOAD AND OR DUP3 SSTORE PUSH1 0x1 DUP3 ADD SWAP1 PUSH1 0x1 DUP1 PUSH1 0xA0 SHL SUB PUSH1 0x20 DUP6 ADD MLOAD AND SWAP1 DUP3 SLOAD AND OR SWAP1 SSTORE PUSH1 0x40 DUP3 ADD MLOAD DUP1 MLOAD SWAP1 PUSH1 0x1 PUSH1 0x1 PUSH1 0x40 SHL SUB DUP3 GT PUSH3 0x103F JUMPI DUP2 SWAP1 PUSH3 0xCE0 PUSH1 0x2 DUP6 ADD SLOAD PUSH3 0x1A00 JUMP JUMPDEST PUSH1 0x1F DUP2 GT PUSH3 0x10D3 JUMPI JUMPDEST POP PUSH1 0x20 SWAP1 PUSH1 0x1F DUP4 GT PUSH1 0x1 EQ PUSH3 0x105F JUMPI DUP7 SWAP3 PUSH3 0x1053 JUMPI JUMPDEST POP POP DUP2 PUSH1 0x1 SHL SWAP2 PUSH1 0x0 NOT SWAP1 PUSH1 0x3 SHL SHR NOT AND OR PUSH1 0x2 DUP3 ADD SSTORE JUMPDEST PUSH1 0x60 DUP3 ADD MLOAD DUP1 MLOAD SWAP1 PUSH1 0x1 PUSH1 0x1 PUSH1 0x40 SHL SUB DUP3 GT PUSH3 0x103F JUMPI PUSH3 0xD40 PUSH1 0x3 DUP5 ADD SLOAD PUSH3 0x1A00 JUMP JUMPDEST PUSH1 0x1F DUP2 GT PUSH3 0xFF5 JUMPI JUMPDEST POP PUSH1 0x20 SWAP1 PUSH1 0x1F DUP4 GT PUSH1 0x1 EQ PUSH3 0xF80 JUMPI PUSH1 0x5 SWAP4 SWAP3 SWAP2 DUP7 SWAP2 DUP4 PUSH3 0xF74 JUMPI JUMPDEST POP POP DUP2 PUSH1 0x1 SHL SWAP2 PUSH1 0x0 NOT SWAP1 PUSH1 0x3 SHL SHR NOT AND OR PUSH1 0x3 DUP3 ADD SSTORE JUMPDEST PUSH1 0x80 DUP4 ADD MLOAD PUSH1 0x4 DUP3 ADD SSTORE ADD SWAP1 PUSH6 0xFFFFFFFFFFFF PUSH1 0xA0 DUP3 ADD MLOAD AND PUSH7 0xFF000000000000 PUSH1 0xC0 DUP5 SLOAD SWAP4 ADD MLOAD ISZERO ISZERO PUSH1 0x30 SHL AND SWAP2 PUSH7 0xFFFFFFFFFFFFFF NOT AND OR OR SWAP1 SSTORE PUSH1 0x1 DUP1 PUSH1 0xA0 SHL SUB PUSH3 0xDD5 PUSH2 0x124 PUSH1 0x4 CALLDATALOAD ADD PUSH3 0x1C32 JUMP JUMPDEST AND DUP2 MSTORE PUSH1 0x4 PUSH1 0x20 MSTORE PUSH1 0x40 DUP2 KECCAK256 DUP1 SLOAD PUSH1 0x1 PUSH1 0x40 SHL DUP2 LT ISZERO PUSH3 0xF5E JUMPI PUSH3 0xE01 SWAP2 PUSH1 0x1 DUP3 ADD DUP2 SSTORE PUSH3 0x1BEF JUMP JUMPDEST SWAP2 SWAP1 DUP1 SLOAD SWAP3 PUSH1 0x3 SHL PUSH1 0x0 NOT SWAP4 DUP5 DUP8 DUP4 SHL SWAP3 SHL NOT AND OR SWAP1 SSTORE PUSH1 0x5 SLOAD PUSH1 0x1 PUSH1 0x40 SHL DUP2 LT ISZERO PUSH3 0xF5E JUMPI PUSH1 0x1 DUP2 ADD DUP1 PUSH1 0x5 SSTORE DUP2 LT ISZERO PUSH3 0xF48 JUMPI DUP5 SWAP1 PUSH1 0x5 PUSH1 0x0 MSTORE PUSH32 0x36B6384B5ECA791C62761152D0C79BB0604C104A5FB6F4EB0703F3154BB3DB0 ADD SSTORE PUSH1 0x6 SLOAD SWAP2 DUP3 EQ PUSH3 0xF34 JUMPI POP PUSH1 0x40 SWAP4 PUSH1 0x1 PUSH3 0xEFF SWAP3 ADD PUSH1 0x6 SSTORE DUP4 PUSH32 0xD4655862B678A4E13232FF183D9921252085CB5570586A3518FA1EC3FC5C4721 PUSH3 0xEAF PUSH2 0x124 PUSH1 0x4 CALLDATALOAD ADD PUSH3 0x1C32 JUMP JUMPDEST PUSH3 0xEBF PUSH1 0x4 DUP1 CALLDATALOAD ADD DUP1 PUSH3 0x1C47 JUMP JUMPDEST SWAP6 SWAP1 PUSH3 0xEF0 PUSH3 0xEDB PUSH1 0x44 PUSH1 0x4 CALLDATALOAD ADD PUSH1 0x4 CALLDATALOAD PUSH1 0x4 ADD PUSH3 0x1C47 JUMP JUMPDEST SWAP2 SWAP1 SWAP3 DUP13 MLOAD SWAP10 PUSH1 0x60 DUP12 MSTORE PUSH1 0x60 DUP12 ADD SWAP2 PUSH3 0x1CB0 JUMP JUMPDEST SWAP2 DUP9 DUP4 SUB PUSH1 0x20 DUP11 ADD MSTORE PUSH3 0x1CB0 JUMP JUMPDEST PUSH1 0x4 CALLDATALOAD SWAP1 SWAP5 ADD CALLDATALOAD DUP6 DUP10 ADD MSTORE PUSH1 0x1 PUSH1 0x1 PUSH1 0xA0 SHL SUB SWAP1 DUP2 AND SWAP5 SWAP1 DUP7 AND SWAP4 DUP2 SWAP1 SUB SWAP1 LOG4 DUP3 MLOAD SWAP2 DUP3 MSTORE PUSH1 0x1 PUSH1 0x1 PUSH1 0xA0 SHL SUB AND PUSH1 0x20 DUP3 ADD MSTORE RETURN JUMPDEST PUSH4 0x4E487B71 PUSH1 0xE0 SHL DUP2 MSTORE PUSH1 0x11 PUSH1 0x4 MSTORE PUSH1 0x24 SWAP1 REVERT JUMPDEST PUSH4 0x4E487B71 PUSH1 0xE0 SHL PUSH1 0x0 MSTORE PUSH1 0x32 PUSH1 0x4 MSTORE PUSH1 0x24 PUSH1 0x0 REVERT JUMPDEST PUSH4 0x4E487B71 PUSH1 0xE0 SHL PUSH1 0x0 MSTORE PUSH1 0x41 PUSH1 0x4 MSTORE PUSH1 0x24 PUSH1 0x0 REVERT JUMPDEST ADD MLOAD SWAP1 POP CODESIZE DUP1 PUSH3 0xD68 JUMP JUMPDEST SWAP1 PUSH1 0x3 DUP5 ADD DUP7 MSTORE PUSH1 0x20 DUP7 KECCAK256 SWAP2 DUP7 JUMPDEST PUSH1 0x1F NOT DUP6 AND DUP2 LT PUSH3 0xFDC JUMPI POP SWAP2 DUP4 SWAP2 PUSH1 0x1 SWAP4 PUSH1 0x5 SWAP7 SWAP6 PUSH1 0x1F NOT DUP2 AND LT PUSH3 0xFC2 JUMPI JUMPDEST POP POP POP DUP2 SHL ADD PUSH1 0x3 DUP3 ADD SSTORE PUSH3 0xD80 JUMP JUMPDEST ADD MLOAD PUSH1 0x0 NOT PUSH1 0xF8 DUP5 PUSH1 0x3 SHL AND SHR NOT AND SWAP1 SSTORE CODESIZE DUP1 DUP1 PUSH3 0xFB1 JUMP JUMPDEST SWAP2 SWAP3 PUSH1 0x20 PUSH1 0x1 DUP2 SWAP3 DUP7 DUP6 ADD MLOAD DUP2 SSTORE ADD SWAP5 ADD SWAP3 ADD PUSH3 0xF8E JUMP JUMPDEST PUSH1 0x3 DUP5 ADD DUP7 MSTORE PUSH1 0x20 DUP7 KECCAK256 PUSH1 0x1F DUP5 ADD PUSH1 0x5 SHR DUP2 ADD PUSH1 0x20 DUP6 LT PUSH3 0x1037 JUMPI JUMPDEST PUSH1 0x1F DUP4 ADD PUSH1 0x5 SHR DUP3 ADD DUP2 LT PUSH3 0x102A JUMPI POP POP PUSH3 0xD4A JUMP JUMPDEST PUSH1 0x0 DUP2 SSTORE PUSH1 0x1 ADD PUSH3 0x1012 JUMP JUMPDEST POP DUP1 PUSH3 0x1012 JUMP JUMPDEST PUSH4 0x4E487B71 PUSH1 0xE0 SHL DUP6 MSTORE PUSH1 0x41 PUSH1 0x4 MSTORE PUSH1 0x24 DUP6 REVERT JUMPDEST ADD MLOAD SWAP1 POP CODESIZE DUP1 PUSH3 0xD02 JUMP JUMPDEST SWAP3 POP PUSH1 0x2 DUP5 ADD DUP7 MSTORE PUSH1 0x20 DUP7 KECCAK256 SWAP1 DUP7 SWAP4 JUMPDEST PUSH1 0x1F NOT DUP5 AND DUP6 LT PUSH3 0x10B7 JUMPI PUSH1 0x1 SWAP5 POP DUP4 PUSH1 0x1F NOT DUP2 AND LT PUSH3 0x109D JUMPI JUMPDEST POP POP POP DUP2 SHL ADD PUSH1 0x2 DUP3 ADD SSTORE PUSH3 0xD1A JUMP JUMPDEST ADD MLOAD PUSH1 0x0 NOT PUSH1 0xF8 DUP5 PUSH1 0x3 SHL AND SHR NOT AND SWAP1 SSTORE CODESIZE DUP1 DUP1 PUSH3 0x108C JUMP JUMPDEST DUP2 DUP2 ADD MLOAD DUP4 SSTORE PUSH1 0x20 SWAP5 DUP6 ADD SWAP5 PUSH1 0x1 SWAP1 SWAP4 ADD SWAP3 SWAP1 SWAP2 ADD SWAP1 PUSH3 0x106F JUMP JUMPDEST SWAP1 SWAP2 POP PUSH1 0x2 DUP5 ADD DUP7 MSTORE PUSH1 0x20 DUP7 KECCAK256 PUSH1 0x1F DUP5 ADD PUSH1 0x5 SHR DUP2 ADD PUSH1 0x20 DUP6 LT PUSH3 0x1121 JUMPI JUMPDEST SWAP1 DUP5 SWAP4 SWAP3 SWAP2 JUMPDEST PUSH1 0x1F DUP4 ADD PUSH1 0x5 SHR DUP3 ADD DUP2 LT PUSH3 0x1111 JUMPI POP POP PUSH3 0xCEA JUMP JUMPDEST PUSH1 0x0 DUP2 SSTORE DUP6 SWAP5 POP PUSH1 0x1 ADD PUSH3 0x10F9 JUMP JUMPDEST POP DUP1 PUSH3 0x10F3 JUMP JUMPDEST PUSH1 0x40 MLOAD SWAP1 RETURNDATASIZE SWAP1 DUP3 RETURNDATACOPY RETURNDATASIZE SWAP1 REVERT JUMPDEST SWAP2 SWAP6 POP SWAP2 SWAP3 SWAP4 PUSH1 0x1 PUSH1 0x20 DUP1 PUSH1 0x4 SWAP4 PUSH2 0xFFFF PUSH3 0x1151 DUP12 PUSH3 0x1C08 JUMP JUMPDEST AND DUP2 MSTORE ADD SWAP8 ADD SWAP3 ADD DUP8 SWAP7 SWAP6 SWAP5 SWAP4 SWAP2 POP PUSH3 0xAD1 JUMP JUMPDEST DUP6 DUP1 REVERT JUMPDEST PUSH4 0x4E487B71 PUSH1 0xE0 SHL DUP5 MSTORE PUSH1 0x41 PUSH1 0x4 MSTORE PUSH1 0x24 DUP5 REVERT JUMPDEST PUSH1 0x40 MLOAD PUSH3 0x461BCD PUSH1 0xE5 SHL DUP2 MSTORE PUSH1 0x20 PUSH1 0x4 DUP3 ADD MSTORE PUSH1 0x15 PUSH1 0x24 DUP3 ADD MSTORE PUSH21 0x466163746F72793A206E6F20636F756E7472696573 PUSH1 0x58 SHL PUSH1 0x44 DUP3 ADD MSTORE DUP5 SWAP1 REVERT JUMPDEST DUP3 DUP1 REVERT JUMPDEST PUSH1 0x40 MLOAD PUSH3 0x461BCD PUSH1 0xE5 SHL DUP2 MSTORE PUSH1 0x20 PUSH1 0x4 DUP3 ADD MSTORE PUSH1 0x1D PUSH1 0x24 DUP3 ADD MSTORE PUSH32 0x466163746F72793A20636C6F73696E67206461746520696E2070617374000000 PUSH1 0x44 DUP3 ADD MSTORE DUP6 SWAP1 REVERT JUMPDEST PUSH1 0x40 MLOAD PUSH3 0x461BCD PUSH1 0xE5 SHL DUP2 MSTORE PUSH1 0x20 PUSH1 0x4 DUP3 ADD MSTORE PUSH1 0x14 PUSH1 0x24 DUP3 ADD MSTORE PUSH20 0x466163746F72793A207A65726F20737570706C79 PUSH1 0x60 SHL PUSH1 0x44 DUP3 ADD MSTORE DUP5 SWAP1 REVERT JUMPDEST PUSH1 0x40 MLOAD PUSH3 0x461BCD PUSH1 0xE5 SHL DUP2 MSTORE PUSH1 0x20 PUSH1 0x4 DUP3 ADD MSTORE PUSH1 0x13 PUSH1 0x24 DUP3 ADD MSTORE PUSH19 0x466163746F72793A207A65726F207072696365 PUSH1 0x68 SHL PUSH1 0x44 DUP3 ADD MSTORE DUP5 SWAP1 REVERT JUMPDEST PUSH1 0x40 MLOAD PUSH3 0x461BCD PUSH1 0xE5 SHL DUP2 MSTORE PUSH1 0x20 PUSH1 0x4 DUP3 ADD MSTORE PUSH1 0x14 PUSH1 0x24 DUP3 ADD MSTORE PUSH20 0x119858DD1BDC9E4E881E995C9BC81D185C99D95D PUSH1 0x62 SHL PUSH1 0x44 DUP3 ADD MSTORE DUP5 SWAP1 REVERT JUMPDEST PUSH1 0x40 MLOAD PUSH3 0x461BCD PUSH1 0xE5 SHL DUP2 MSTORE PUSH1 0x20 PUSH1 0x4 DUP3 ADD MSTORE PUSH1 0x16 PUSH1 0x24 DUP3 ADD MSTORE PUSH22 0x466163746F72793A207A65726F207472656173757279 PUSH1 0x50 SHL PUSH1 0x44 DUP3 ADD MSTORE PUSH1 0x64 SWAP1 REVERT JUMPDEST PUSH1 0x40 MLOAD PUSH3 0x461BCD PUSH1 0xE5 SHL DUP2 MSTORE PUSH1 0x20 PUSH1 0x4 DUP3 ADD MSTORE PUSH1 0x14 PUSH1 0x24 DUP3 ADD MSTORE PUSH20 0x2330B1BA37B93C9D103D32B9379034B9B9BAB2B9 PUSH1 0x61 SHL PUSH1 0x44 DUP3 ADD MSTORE PUSH1 0x64 SWAP1 REVERT JUMPDEST POP CALLVALUE PUSH3 0x18A JUMPI PUSH1 0x40 CALLDATASIZE PUSH1 0x3 NOT ADD SLT PUSH3 0x18A JUMPI PUSH3 0x134A PUSH3 0x1BC3 JUMP JUMPDEST CALLER PUSH1 0x1 PUSH1 0x1 PUSH1 0xA0 SHL SUB DUP3 AND SUB PUSH3 0x1369 JUMPI PUSH3 0x1D2 SWAP1 PUSH1 0x4 CALLDATALOAD PUSH3 0x1DFC JUMP JUMPDEST PUSH1 0x40 MLOAD PUSH4 0x334BD919 PUSH1 0xE1 SHL DUP2 MSTORE PUSH1 0x4 SWAP1 REVERT JUMPDEST POP CALLVALUE PUSH3 0x18A JUMPI PUSH1 0x40 CALLDATASIZE PUSH1 0x3 NOT ADD SLT PUSH3 0x18A JUMPI PUSH3 0x1D2 PUSH1 0x4 CALLDATALOAD PUSH3 0x13A0 PUSH3 0x1BC3 JUMP JUMPDEST SWAP1 DUP1 DUP5 MSTORE DUP4 PUSH1 0x20 MSTORE PUSH3 0x13BA PUSH1 0x1 PUSH1 0x40 DUP7 KECCAK256 ADD SLOAD PUSH3 0x1D56 JUMP JUMPDEST PUSH3 0x1D7D JUMP JUMPDEST POP CALLVALUE PUSH3 0x18A JUMPI PUSH1 0x20 CALLDATASIZE PUSH1 0x3 NOT ADD SLT PUSH3 0x18A JUMPI PUSH1 0x1 PUSH1 0x40 PUSH1 0x20 SWAP3 PUSH1 0x4 CALLDATALOAD DUP2 MSTORE DUP1 DUP5 MSTORE KECCAK256 ADD SLOAD PUSH1 0x40 MLOAD SWAP1 DUP2 MSTORE RETURN JUMPDEST POP CALLVALUE PUSH3 0x18A JUMPI PUSH1 0x40 CALLDATASIZE PUSH1 0x3 NOT ADD SLT PUSH3 0x18A JUMPI PUSH3 0x140C PUSH3 0x1BAC JUMP JUMPDEST PUSH1 0x1 PUSH1 0x1 PUSH1 0xA0 SHL SUB AND DUP2 MSTORE PUSH1 0x4 PUSH1 0x20 MSTORE PUSH1 0x40 DUP2 KECCAK256 DUP1 SLOAD PUSH1 0x24 CALLDATALOAD SWAP3 SWAP1 DUP4 LT ISZERO PUSH3 0x18A JUMPI PUSH1 0x20 PUSH3 0x143D DUP5 DUP5 PUSH3 0x1BEF JUMP JUMPDEST SWAP1 SLOAD PUSH1 0x40 MLOAD SWAP2 PUSH1 0x3 SHL SHR DUP2 MSTORE RETURN JUMPDEST POP CALLVALUE PUSH3 0x18A JUMPI DUP1 PUSH1 0x3 NOT CALLDATASIZE ADD SLT PUSH3 0x18A JUMPI PUSH1 0x40 MLOAD PUSH1 0x5 DUP1 SLOAD DUP1 DUP4 MSTORE SWAP1 DUP4 MSTORE PUSH1 0x20 DUP1 DUP4 ADD SWAP4 PUSH32 0x36B6384B5ECA791C62761152D0C79BB0604C104A5FB6F4EB0703F3154BB3DB0 SWAP3 SWAP2 JUMPDEST DUP3 DUP3 LT PUSH3 0x14B0 JUMPI PUSH3 0x662 DUP6 PUSH3 0x655 DUP2 DUP10 SUB DUP3 PUSH3 0x1A59 JUMP JUMPDEST DUP4 SLOAD DUP7 MSTORE SWAP5 DUP6 ADD SWAP5 PUSH1 0x1 SWAP4 DUP5 ADD SWAP4 SWAP1 SWAP2 ADD SWAP1 PUSH3 0x1495 JUMP JUMPDEST POP CALLVALUE PUSH3 0x18A JUMPI PUSH1 0x40 CALLDATASIZE PUSH1 0x3 NOT ADD SLT PUSH3 0x18A JUMPI PUSH1 0x4 CALLDATALOAD SWAP1 PUSH1 0x24 SWAP2 DUP3 CALLDATALOAD SWAP1 PUSH1 0x2 PUSH1 0x1 SLOAD EQ PUSH3 0x1856 JUMPI PUSH1 0x2 PUSH1 0x1 SSTORE DUP1 DUP4 MSTORE PUSH1 0x20 PUSH1 0x3 DUP2 MSTORE PUSH1 0x40 DUP5 KECCAK256 SWAP5 PUSH1 0xFF PUSH1 0x5 DUP8 ADD SLOAD PUSH1 0x30 SHR AND ISZERO PUSH3 0x1813 JUMPI DUP6 SLOAD PUSH1 0x1 PUSH1 0x1 PUSH1 0xA0 SHL SUB SWAP7 SWAP1 DUP8 AND DUP1 ISZERO PUSH3 0x17D6 JUMPI DUP8 PUSH32 0x0 AND SWAP2 PUSH1 0x40 MLOAD PUSH4 0x23B872DD PUSH1 0xE0 SHL DUP2 MSTORE CALLER PUSH1 0x4 DUP3 ADD MSTORE ADDRESS DUP6 DUP3 ADD MSTORE DUP8 PUSH1 0x44 DUP3 ADD MSTORE DUP6 DUP2 PUSH1 0x64 DUP2 DUP13 DUP9 GAS CALL SWAP1 DUP2 ISZERO PUSH3 0x1712 JUMPI DUP10 SWAP2 PUSH3 0x17B4 JUMPI JUMPDEST POP ISZERO PUSH3 0x1770 JUMPI DUP9 DUP2 SLOAD AND SWAP2 PUSH1 0x40 MLOAD PUSH4 0x95EA7B3 PUSH1 0xE0 SHL SWAP4 DUP5 DUP3 MSTORE PUSH1 0x4 DUP3 ADD MSTORE DUP10 DUP7 DUP3 ADD MSTORE DUP7 DUP2 PUSH1 0x44 DUP2 DUP14 DUP10 GAS CALL DUP1 ISZERO PUSH3 0x1743 JUMPI PUSH3 0x174E JUMPI JUMPDEST POP DUP2 SLOAD PUSH1 0x40 MLOAD DUP5 DUP2 MSTORE SWAP1 DUP12 AND PUSH1 0x1 PUSH1 0x1 PUSH1 0xA0 SHL SUB AND PUSH1 0x4 DUP3 ADD MSTORE PUSH1 0x24 DUP2 ADD DUP10 SWAP1 MSTORE DUP7 DUP2 PUSH1 0x44 DUP2 DUP14 DUP10 GAS CALL DUP1 ISZERO PUSH3 0x1743 JUMPI PUSH3 0x1721 JUMPI JUMPDEST POP DUP1 EXTCODESIZE ISZERO PUSH3 0x171D JUMPI PUSH1 0x40 MLOAD PUSH4 0x5CDC6123 PUSH1 0xE1 SHL DUP2 MSTORE CALLER PUSH1 0x4 DUP3 ADD MSTORE PUSH1 0x24 DUP2 ADD DUP10 SWAP1 MSTORE SWAP1 DUP10 SWAP1 DUP3 SWAP1 PUSH1 0x44 SWAP1 DUP3 SWAP1 DUP5 SWAP1 GAS CALL DUP1 ISZERO PUSH3 0x1712 JUMPI PUSH3 0x16DE JUMPI JUMPDEST POP DUP5 SWAP3 SWAP2 DUP9 DUP1 SWAP11 PUSH1 0x44 SWAP4 SWAP11 SWAP9 SWAP10 SWAP11 SLOAD AND SWAP4 DUP2 PUSH1 0x40 MLOAD SWAP8 DUP9 SWAP7 DUP8 SWAP6 DUP7 MSTORE PUSH1 0x4 DUP7 ADD MSTORE DUP5 ADD MSTORE GAS CALL DUP1 ISZERO PUSH3 0x16D3 JUMPI PUSH3 0x169F JUMPI JUMPDEST POP PUSH1 0x40 MLOAD SWAP4 DUP5 MSTORE DUP4 ADD MSTORE PUSH32 0xB67A854CB62328E56CF5DD468331FB79F5CE30211D7F8E72D51061D4467ABF1 PUSH1 0x40 CALLER SWAP4 LOG3 PUSH1 0x1 DUP1 SSTORE DUP1 RETURN JUMPDEST PUSH3 0x16C3 SWAP1 DUP3 RETURNDATASIZE DUP5 GT PUSH3 0x16CB JUMPI JUMPDEST PUSH3 0x16BA DUP2 DUP4 PUSH3 0x1A59 JUMP JUMPDEST DUP2 ADD SWAP1 PUSH3 0x1C18 JUMP JUMPDEST POP CODESIZE PUSH3 0x1668 JUMP JUMPDEST POP RETURNDATASIZE PUSH3 0x16AE JUMP JUMPDEST PUSH1 0x40 MLOAD RETURNDATASIZE DUP6 DUP3 RETURNDATACOPY RETURNDATASIZE SWAP1 REVERT JUMPDEST PUSH1 0x1 PUSH1 0x1 PUSH1 0x40 SHL SUB DUP2 SWAP10 SWAP3 SWAP8 SWAP9 SWAP10 GT PUSH3 0x16FF JUMPI PUSH1 0x40 MSTORE SWAP7 SWAP6 SWAP5 DUP5 PUSH3 0x1635 JUMP JUMPDEST PUSH4 0x4E487B71 PUSH1 0xE0 SHL DUP3 MSTORE PUSH1 0x41 PUSH1 0x4 MSTORE DUP5 DUP3 REVERT JUMPDEST PUSH1 0x40 MLOAD RETURNDATASIZE DUP12 DUP3 RETURNDATACOPY RETURNDATASIZE SWAP1 REVERT JUMPDEST DUP9 DUP1 REVERT JUMPDEST PUSH3 0x173B SWAP1 DUP8 RETURNDATASIZE DUP10 GT PUSH3 0x16CB JUMPI PUSH3 0x16BA DUP2 DUP4 PUSH3 0x1A59 JUMP JUMPDEST POP CODESIZE PUSH3 0x15F7 JUMP JUMPDEST PUSH1 0x40 MLOAD RETURNDATASIZE DUP13 DUP3 RETURNDATACOPY RETURNDATASIZE SWAP1 REVERT JUMPDEST PUSH3 0x1768 SWAP1 DUP8 RETURNDATASIZE DUP10 GT PUSH3 0x16CB JUMPI PUSH3 0x16BA DUP2 DUP4 PUSH3 0x1A59 JUMP JUMPDEST POP CODESIZE PUSH3 0x15C0 JUMP JUMPDEST PUSH1 0x40 MLOAD PUSH3 0x461BCD PUSH1 0xE5 SHL DUP2 MSTORE PUSH1 0x4 DUP2 ADD DUP7 SWAP1 MSTORE PUSH1 0x1D DUP2 DUP7 ADD MSTORE PUSH32 0x466163746F72793A2055534443207472616E73666572206661696C6564000000 PUSH1 0x44 DUP3 ADD MSTORE PUSH1 0x64 SWAP1 REVERT JUMPDEST PUSH3 0x17CF SWAP2 POP DUP7 RETURNDATASIZE DUP9 GT PUSH3 0x16CB JUMPI PUSH3 0x16BA DUP2 DUP4 PUSH3 0x1A59 JUMP JUMPDEST CODESIZE PUSH3 0x1585 JUMP JUMPDEST PUSH1 0x40 MLOAD PUSH3 0x461BCD PUSH1 0xE5 SHL DUP2 MSTORE PUSH1 0x4 DUP2 ADD DUP6 SWAP1 MSTORE PUSH1 0x16 DUP2 DUP6 ADD MSTORE PUSH22 0x119858DD1BDC9E4E8814D513C81B9BDD08199BDD5B99 PUSH1 0x52 SHL PUSH1 0x44 DUP3 ADD MSTORE PUSH1 0x64 SWAP1 REVERT JUMPDEST SWAP1 PUSH1 0x17 PUSH1 0x64 SWAP3 PUSH1 0x40 MLOAD SWAP3 PUSH3 0x461BCD PUSH1 0xE5 SHL DUP5 MSTORE PUSH1 0x4 DUP5 ADD MSTORE DUP3 ADD MSTORE PUSH32 0x466163746F72793A2053544F206E6F7420616374697665000000000000000000 PUSH1 0x44 DUP3 ADD MSTORE REVERT JUMPDEST PUSH1 0x40 MLOAD PUSH4 0x3EE5AEB5 PUSH1 0xE0 SHL DUP2 MSTORE PUSH1 0x4 SWAP1 REVERT JUMPDEST POP CALLVALUE PUSH3 0x18A JUMPI DUP1 PUSH1 0x3 NOT CALLDATASIZE ADD SLT PUSH3 0x18A JUMPI PUSH1 0x40 MLOAD PUSH32 0x0 PUSH1 0x1 PUSH1 0x1 PUSH1 0xA0 SHL SUB AND DUP2 MSTORE PUSH1 0x20 SWAP1 RETURN JUMPDEST POP CALLVALUE PUSH3 0x18A JUMPI PUSH1 0x20 CALLDATASIZE PUSH1 0x3 NOT ADD SLT PUSH3 0x18A JUMPI PUSH1 0x4 CALLDATALOAD DUP2 MSTORE PUSH1 0x3 PUSH1 0x20 MSTORE PUSH1 0x40 SWAP1 KECCAK256 DUP1 SLOAD PUSH1 0x1 DUP3 ADD SLOAD PUSH1 0x1 PUSH1 0x1 PUSH1 0xA0 SHL SUB SWAP1 DUP2 AND SWAP3 SWAP2 AND SWAP1 PUSH1 0xFF PUSH3 0x18F7 PUSH1 0x2 DUP4 ADD PUSH3 0x1A7B JUMP JUMPDEST PUSH3 0x1946 PUSH3 0x1909 PUSH1 0x3 DUP6 ADD PUSH3 0x1A7B JUMP JUMPDEST PUSH3 0x1937 PUSH1 0x5 PUSH1 0x4 DUP8 ADD SLOAD SWAP7 ADD SLOAD SWAP4 PUSH1 0x40 MLOAD SWAP9 DUP10 SWAP9 DUP10 MSTORE PUSH1 0x20 DUP10 ADD MSTORE PUSH1 0xE0 PUSH1 0x40 DUP10 ADD MSTORE PUSH1 0xE0 DUP9 ADD SWAP1 PUSH3 0x1B2C JUMP JUMPDEST SWAP1 DUP7 DUP3 SUB PUSH1 0x60 DUP9 ADD MSTORE PUSH3 0x1B2C JUMP JUMPDEST SWAP3 PUSH1 0x80 DUP6 ADD MSTORE PUSH6 0xFFFFFFFFFFFF DUP2 AND PUSH1 0xA0 DUP6 ADD MSTORE PUSH1 0x30 SHR AND ISZERO ISZERO PUSH1 0xC0 DUP4 ADD MSTORE SUB SWAP1 RETURN JUMPDEST POP CALLVALUE PUSH3 0x18A JUMPI DUP1 PUSH1 0x3 NOT CALLDATASIZE ADD SLT PUSH3 0x18A JUMPI PUSH1 0x20 PUSH1 0x40 MLOAD PUSH32 0x442A94F1A1FAC79AF32856AF2A64F63648CFA2EF3B98610A5BB7CBEC4CEE6985 DUP2 MSTORE RETURN JUMPDEST SWAP1 POP CALLVALUE PUSH3 0x5BF JUMPI PUSH1 0x20 CALLDATASIZE PUSH1 0x3 NOT ADD SLT PUSH3 0x5BF JUMPI PUSH1 0x4 CALLDATALOAD PUSH4 0xFFFFFFFF PUSH1 0xE0 SHL DUP2 AND DUP1 SWAP2 SUB PUSH3 0x11BA JUMPI PUSH1 0x20 SWAP3 POP PUSH4 0x7965DB0B PUSH1 0xE0 SHL DUP2 EQ SWAP1 DUP2 ISZERO PUSH3 0x19EE JUMPI JUMPDEST POP ISZERO ISZERO DUP2 MSTORE RETURN JUMPDEST PUSH4 0x1FFC9A7 PUSH1 0xE0 SHL EQ SWAP1 POP CODESIZE PUSH3 0x19E7 JUMP JUMPDEST SWAP1 PUSH1 0x1 DUP3 DUP2 SHR SWAP3 AND DUP1 ISZERO PUSH3 0x1A32 JUMPI JUMPDEST PUSH1 0x20 DUP4 LT EQ PUSH3 0x1A1C JUMPI JUMP JUMPDEST PUSH4 0x4E487B71 PUSH1 0xE0 SHL PUSH1 0x0 MSTORE PUSH1 0x22 PUSH1 0x4 MSTORE PUSH1 0x24 PUSH1 0x0 REVERT JUMPDEST SWAP2 PUSH1 0x7F AND SWAP2 PUSH3 0x1A10 JUMP JUMPDEST PUSH1 0xE0 DUP2 ADD SWAP1 DUP2 LT PUSH1 0x1 PUSH1 0x1 PUSH1 0x40 SHL SUB DUP3 GT OR PUSH3 0xF5E JUMPI PUSH1 0x40 MSTORE JUMP JUMPDEST SWAP1 PUSH1 0x1F DUP1 NOT SWAP2 ADD AND DUP2 ADD SWAP1 DUP2 LT PUSH1 0x1 PUSH1 0x1 PUSH1 0x40 SHL SUB DUP3 GT OR PUSH3 0xF5E JUMPI PUSH1 0x40 MSTORE JUMP JUMPDEST SWAP1 PUSH1 0x40 MLOAD SWAP2 DUP3 PUSH1 0x0 DUP3 SLOAD PUSH3 0x1A90 DUP2 PUSH3 0x1A00 JUMP JUMPDEST SWAP1 DUP2 DUP5 MSTORE PUSH1 0x20 SWAP5 PUSH1 0x1 SWAP2 PUSH1 0x1 DUP2 AND SWAP1 DUP2 PUSH1 0x0 EQ PUSH3 0x1B08 JUMPI POP PUSH1 0x1 EQ PUSH3 0x1AC5 JUMPI JUMPDEST POP POP POP PUSH3 0x1AC3 SWAP3 POP SUB DUP4 PUSH3 0x1A59 JUMP JUMPDEST JUMP JUMPDEST PUSH1 0x0 SWAP1 DUP2 MSTORE DUP6 DUP2 KECCAK256 SWAP6 SWAP4 POP SWAP2 SWAP1 JUMPDEST DUP2 DUP4 LT PUSH3 0x1AEF JUMPI POP POP PUSH3 0x1AC3 SWAP4 POP DUP3 ADD ADD CODESIZE DUP1 DUP1 PUSH3 0x1AB2 JUMP JUMPDEST DUP6 SLOAD DUP9 DUP5 ADD DUP6 ADD MSTORE SWAP5 DUP6 ADD SWAP5 DUP8 SWAP5 POP SWAP2 DUP4 ADD SWAP2 PUSH3 0x1AD3 JUMP JUMPDEST SWAP3 POP POP POP PUSH3 0x1AC3 SWAP5 SWAP3 POP PUSH1 0xFF NOT AND DUP3 DUP5 ADD MSTORE ISZERO ISZERO PUSH1 0x5 SHL DUP3 ADD ADD CODESIZE DUP1 DUP1 PUSH3 0x1AB2 JUMP JUMPDEST SWAP2 SWAP1 DUP3 MLOAD SWAP3 DUP4 DUP3 MSTORE PUSH1 0x0 JUMPDEST DUP5 DUP2 LT PUSH3 0x1B59 JUMPI POP POP DUP3 PUSH1 0x0 PUSH1 0x20 DUP1 SWAP5 SWAP6 DUP5 ADD ADD MSTORE PUSH1 0x1F DUP1 NOT SWAP2 ADD AND ADD ADD SWAP1 JUMP JUMPDEST PUSH1 0x20 DUP2 DUP4 ADD DUP2 ADD MLOAD DUP5 DUP4 ADD DUP3 ADD MSTORE ADD PUSH3 0x1B37 JUMP JUMPDEST PUSH1 0x20 SWAP1 PUSH1 0x20 PUSH1 0x40 DUP2 DUP4 ADD SWAP3 DUP3 DUP2 MSTORE DUP6 MLOAD DUP1 SWAP5 MSTORE ADD SWAP4 ADD SWAP2 PUSH1 0x0 JUMPDEST DUP3 DUP2 LT PUSH3 0x1B97 JUMPI POP POP POP POP SWAP1 JUMP JUMPDEST DUP4 MLOAD DUP6 MSTORE SWAP4 DUP2 ADD SWAP4 SWAP3 DUP2 ADD SWAP3 PUSH1 0x1 ADD PUSH3 0x1B88 JUMP JUMPDEST PUSH1 0x4 CALLDATALOAD SWAP1 PUSH1 0x1 PUSH1 0x1 PUSH1 0xA0 SHL SUB DUP3 AND DUP3 SUB PUSH3 0x73F JUMPI JUMP JUMPDEST PUSH1 0x24 CALLDATALOAD SWAP1 PUSH1 0x1 PUSH1 0x1 PUSH1 0xA0 SHL SUB DUP3 AND DUP3 SUB PUSH3 0x73F JUMPI JUMP JUMPDEST CALLDATALOAD SWAP1 PUSH1 0x1 PUSH1 0x1 PUSH1 0xA0 SHL SUB DUP3 AND DUP3 SUB PUSH3 0x73F JUMPI JUMP JUMPDEST DUP1 SLOAD DUP3 LT ISZERO PUSH3 0xF48 JUMPI PUSH1 0x0 MSTORE PUSH1 0x20 PUSH1 0x0 KECCAK256 ADD SWAP1 PUSH1 0x0 SWAP1 JUMP JUMPDEST CALLDATALOAD SWAP1 PUSH2 0xFFFF DUP3 AND DUP3 SUB PUSH3 0x73F JUMPI JUMP JUMPDEST SWAP1 DUP2 PUSH1 0x20 SWAP2 SUB SLT PUSH3 0x73F JUMPI MLOAD DUP1 ISZERO ISZERO DUP2 SUB PUSH3 0x73F JUMPI SWAP1 JUMP JUMPDEST CALLDATALOAD PUSH1 0x1 PUSH1 0x1 PUSH1 0xA0 SHL SUB DUP2 AND DUP2 SUB PUSH3 0x73F JUMPI SWAP1 JUMP JUMPDEST SWAP1 CALLDATALOAD SWAP1 PUSH1 0x1E NOT DUP2 CALLDATASIZE SUB ADD DUP3 SLT ISZERO PUSH3 0x73F JUMPI ADD DUP1 CALLDATALOAD SWAP1 PUSH1 0x1 PUSH1 0x1 PUSH1 0x40 SHL SUB DUP3 GT PUSH3 0x73F JUMPI PUSH1 0x20 ADD SWAP2 DUP2 CALLDATASIZE SUB DUP4 SGT PUSH3 0x73F JUMPI JUMP JUMPDEST SWAP1 CALLDATALOAD PUSH1 0x1E NOT DUP3 CALLDATASIZE SUB ADD DUP2 SLT ISZERO PUSH3 0x73F JUMPI ADD PUSH1 0x20 DUP2 CALLDATALOAD SWAP2 ADD SWAP2 PUSH1 0x1 PUSH1 0x1 PUSH1 0x40 SHL SUB DUP3 GT PUSH3 0x73F JUMPI DUP2 CALLDATASIZE SUB DUP4 SGT PUSH3 0x73F JUMPI JUMP JUMPDEST SWAP1 DUP1 PUSH1 0x20 SWAP4 SWAP3 DUP2 DUP5 MSTORE DUP5 DUP5 ADD CALLDATACOPY PUSH1 0x0 DUP3 DUP3 ADD DUP5 ADD MSTORE PUSH1 0x1F ADD PUSH1 0x1F NOT AND ADD ADD SWAP1 JUMP JUMPDEST SWAP3 SWAP2 SWAP3 PUSH1 0x1 PUSH1 0x1 PUSH1 0x40 SHL SUB DUP3 GT PUSH3 0xF5E JUMPI PUSH1 0x40 MLOAD SWAP2 PUSH3 0x1CFD PUSH1 0x1F DUP3 ADD PUSH1 0x1F NOT AND PUSH1 0x20 ADD DUP5 PUSH3 0x1A59 JUMP JUMPDEST DUP3 SWAP5 DUP2 DUP5 MSTORE DUP2 DUP4 ADD GT PUSH3 0x73F JUMPI DUP3 DUP2 PUSH1 0x20 SWAP4 DUP5 PUSH1 0x0 SWAP7 ADD CALLDATACOPY ADD ADD MSTORE JUMP JUMPDEST CALLER PUSH1 0x0 SWAP1 DUP2 MSTORE PUSH32 0xAD3228B676F7D3CD4284A5443F17F1962B36E491B30A40B2405849E597BA5FB5 PUSH1 0x20 MSTORE PUSH1 0x40 DUP2 KECCAK256 SLOAD PUSH1 0xFF AND ISZERO PUSH3 0x548 JUMPI POP JUMP JUMPDEST DUP1 PUSH1 0x0 MSTORE PUSH1 0x0 PUSH1 0x20 MSTORE PUSH1 0x40 PUSH1 0x0 KECCAK256 CALLER PUSH1 0x0 MSTORE PUSH1 0x20 MSTORE PUSH1 0xFF PUSH1 0x40 PUSH1 0x0 KECCAK256 SLOAD AND ISZERO PUSH3 0x548 JUMPI POP JUMP JUMPDEST SWAP1 PUSH1 0x0 SWAP2 DUP1 DUP4 MSTORE DUP3 PUSH1 0x20 MSTORE PUSH1 0x40 DUP4 KECCAK256 SWAP2 PUSH1 0x1 DUP1 PUSH1 0xA0 SHL SUB AND SWAP2 DUP3 DUP5 MSTORE PUSH1 0x20 MSTORE PUSH1 0xFF PUSH1 0x40 DUP5 KECCAK256 SLOAD AND ISZERO PUSH1 0x0 EQ PUSH3 0x1DF7 JUMPI DUP1 DUP4 MSTORE DUP3 PUSH1 0x20 MSTORE PUSH1 0x40 DUP4 KECCAK256 DUP3 DUP5 MSTORE PUSH1 0x20 MSTORE PUSH1 0x40 DUP4 KECCAK256 PUSH1 0x1 PUSH1 0xFF NOT DUP3 SLOAD AND OR SWAP1 SSTORE PUSH32 0x2F8788117E7EFF1D82E926EC794901D17C78024A50270940304540A733656F0D CALLER SWAP4 DUP1 LOG4 PUSH1 0x1 SWAP1 JUMP JUMPDEST POP POP SWAP1 JUMP JUMPDEST SWAP1 PUSH1 0x0 SWAP2 DUP1 DUP4 MSTORE DUP3 PUSH1 0x20 MSTORE PUSH1 0x40 DUP4 KECCAK256 SWAP2 PUSH1 0x1 DUP1 PUSH1 0xA0 SHL SUB AND SWAP2 DUP3 DUP5 MSTORE PUSH1 0x20 MSTORE PUSH1 0xFF PUSH1 0x40 DUP5 KECCAK256 SLOAD AND PUSH1 0x0 EQ PUSH3 0x1DF7 JUMPI DUP1 DUP4 MSTORE DUP3 PUSH1 0x20 MSTORE PUSH1 0x40 DUP4 KECCAK256 DUP3 DUP5 MSTORE PUSH1 0x20 MSTORE PUSH1 0x40 DUP4 KECCAK256 PUSH1 0xFF NOT DUP2 SLOAD AND SWAP1 SSTORE PUSH32 0xF6391F5C32D9C69D2A47EA670B442974B53935D1EDC7FD64EB21E047A839171B CALLER SWAP4 DUP1 LOG4 PUSH1 0x1 SWAP1 JUMP INVALID PUSH1 0xC0 PUSH1 0x40 MSTORE CALLVALUE PUSH3 0xBA8 JUMPI PUSH3 0x3D88 DUP1 CODESIZE SUB DUP1 PUSH3 0x1D DUP2 PUSH3 0xBCB JUMP JUMPDEST SWAP3 DUP4 CODECOPY DUP2 ADD SWAP1 PUSH1 0xA0 DUP2 DUP4 SUB SLT PUSH3 0xBA8 JUMPI DUP1 MLOAD PUSH1 0x1 PUSH1 0x1 PUSH1 0x40 SHL SUB DUP2 GT PUSH3 0xBA8 JUMPI PUSH2 0x180 SWAP3 DUP4 DUP3 DUP5 ADD DUP3 SUB SLT PUSH3 0xBA8 JUMPI PUSH1 0x40 MLOAD SWAP4 DUP5 ADD PUSH1 0x1 PUSH1 0x1 PUSH1 0x40 SHL SUB DUP2 GT DUP6 DUP3 LT OR PUSH3 0x6FD JUMPI PUSH1 0x40 MSTORE DUP3 DUP3 ADD MLOAD PUSH1 0x1 PUSH1 0x1 PUSH1 0x40 SHL SUB DUP2 GT PUSH3 0xBA8 JUMPI DUP2 PUSH3 0x8E SWAP2 DUP5 DUP7 ADD ADD PUSH3 0xBF1 JUMP JUMPDEST DUP5 MSTORE DUP3 DUP3 ADD PUSH1 0x20 ADD MLOAD PUSH1 0x1 PUSH1 0x1 PUSH1 0x40 SHL SUB DUP2 GT PUSH3 0xBA8 JUMPI DUP2 PUSH3 0xB6 SWAP2 DUP5 DUP7 ADD ADD PUSH3 0xBF1 JUMP JUMPDEST PUSH1 0x20 DUP6 ADD MSTORE DUP3 DUP3 ADD PUSH1 0x40 ADD MLOAD PUSH1 0x1 PUSH1 0x1 PUSH1 0x40 SHL SUB DUP2 GT PUSH3 0xBA8 JUMPI DUP2 PUSH3 0xE1 SWAP2 DUP5 DUP7 ADD ADD PUSH3 0xBF1 JUMP JUMPDEST PUSH1 0x40 DUP6 ADD MSTORE DUP3 DUP3 ADD PUSH1 0x60 DUP2 DUP2 ADD MLOAD SWAP1 DUP7 ADD MSTORE PUSH1 0x80 DUP1 DUP3 ADD MLOAD SWAP1 DUP7 ADD MSTORE PUSH1 0xA0 DUP1 DUP3 ADD MLOAD SWAP1 DUP7 ADD MSTORE PUSH1 0xC0 DUP1 DUP3 ADD MLOAD SWAP1 DUP7 ADD MSTORE PUSH1 0xE0 ADD MLOAD PUSH1 0x1 PUSH1 0x1 PUSH1 0x40 SHL SUB DUP2 GT PUSH3 0xBA8 JUMPI DUP2 PUSH1 0x1F DUP3 DUP6 DUP8 ADD ADD ADD SLT ISZERO PUSH3 0xBA8 JUMPI DUP4 DUP4 ADD DUP2 ADD MLOAD SWAP2 PUSH1 0x1 PUSH1 0x1 PUSH1 0x40 SHL SUB DUP4 GT PUSH3 0x6FD JUMPI DUP3 PUSH1 0x5 SHL PUSH1 0x20 PUSH3 0x15D DUP2 DUP4 ADD PUSH3 0xBCB JUMP JUMPDEST DUP1 SWAP6 DUP2 MSTORE ADD SWAP2 PUSH1 0x20 DUP3 DUP6 DUP9 DUP11 ADD ADD ADD ADD GT PUSH3 0xBA8 JUMPI SWAP1 PUSH1 0x20 DUP4 DUP7 DUP9 ADD ADD ADD SWAP2 JUMPDEST PUSH1 0x20 DUP2 DUP6 DUP9 DUP11 ADD ADD ADD ADD DUP4 LT PUSH3 0xBAD JUMPI POP POP POP POP PUSH1 0xE0 DUP5 ADD MSTORE PUSH2 0x100 DUP2 DUP4 ADD ADD MLOAD PUSH6 0xFFFFFFFFFFFF DUP2 AND DUP2 SUB PUSH3 0xBA8 JUMPI PUSH3 0x1F6 SWAP2 PUSH2 0x160 SWAP2 PUSH2 0x100 DUP7 ADD MSTORE PUSH3 0x1D0 PUSH2 0x120 DUP3 DUP7 ADD ADD PUSH3 0xC73 JUMP JUMPDEST PUSH2 0x120 DUP7 ADD MSTORE PUSH3 0x1E7 PUSH2 0x140 DUP3 DUP7 ADD ADD PUSH3 0xC73 JUMP JUMPDEST PUSH2 0x140 DUP7 ADD MSTORE DUP4 ADD ADD PUSH3 0xC63 JUMP JUMPDEST PUSH2 0x160 DUP4 ADD MSTORE PUSH3 0x20A PUSH1 0x20 DUP3 ADD PUSH3 0xC73 JUMP JUMPDEST SWAP2 PUSH3 0x219 PUSH1 0x40 DUP4 ADD PUSH3 0xC73 JUMP JUMPDEST SWAP1 PUSH3 0x236 PUSH1 0x80 PUSH3 0x22E PUSH1 0x60 DUP7 ADD PUSH3 0xC73 JUMP JUMPDEST SWAP5 ADD PUSH3 0xC73 JUMP JUMPDEST DUP2 MLOAD PUSH1 0x20 DUP4 ADD MLOAD DUP2 MLOAD SWAP1 SWAP2 PUSH1 0x1 PUSH1 0x1 PUSH1 0x40 SHL SUB DUP3 GT PUSH3 0x6FD JUMPI PUSH1 0x3 SLOAD SWAP1 PUSH1 0x1 DUP3 DUP2 SHR SWAP3 AND DUP1 ISZERO PUSH3 0xB9D JUMPI JUMPDEST PUSH1 0x20 DUP4 LT EQ PUSH3 0x7E7 JUMPI DUP2 PUSH1 0x1F DUP5 SWAP4 GT PUSH3 0xB4A JUMPI JUMPDEST POP PUSH1 0x20 SWAP1 PUSH1 0x1F DUP4 GT PUSH1 0x1 EQ PUSH3 0xABB JUMPI PUSH1 0x0 SWAP3 PUSH3 0xAAF JUMPI JUMPDEST POP POP DUP2 PUSH1 0x1 SHL SWAP2 PUSH1 0x0 NOT SWAP1 PUSH1 0x3 SHL SHR NOT AND OR PUSH1 0x3 SSTORE JUMPDEST DUP1 MLOAD SWAP1 PUSH1 0x1 PUSH1 0x1 PUSH1 0x40 SHL SUB DUP3 GT PUSH3 0x6FD JUMPI PUSH1 0x4 SLOAD SWAP1 PUSH1 0x1 DUP3 DUP2 SHR SWAP3 AND DUP1 ISZERO PUSH3 0xAA4 JUMPI JUMPDEST PUSH1 0x20 DUP4 LT EQ PUSH3 0x7E7 JUMPI DUP2 PUSH1 0x1F DUP5 SWAP4 GT PUSH3 0xA51 JUMPI JUMPDEST POP PUSH1 0x20 SWAP1 PUSH1 0x1F DUP4 GT PUSH1 0x1 EQ PUSH3 0x9C2 JUMPI PUSH1 0x0 SWAP3 PUSH3 0x9B6 JUMPI JUMPDEST POP POP DUP2 PUSH1 0x1 SHL SWAP2 PUSH1 0x0 NOT SWAP1 PUSH1 0x3 SHL SHR NOT AND OR PUSH1 0x4 SSTORE JUMPDEST PUSH1 0x1 PUSH1 0x7 SSTORE DUP2 MLOAD DUP1 MLOAD SWAP1 PUSH1 0x1 PUSH1 0x1 PUSH1 0x40 SHL SUB DUP3 GT PUSH3 0x6FD JUMPI PUSH1 0x8 SLOAD SWAP1 PUSH1 0x1 DUP3 DUP2 SHR SWAP3 AND DUP1 ISZERO PUSH3 0x9AB JUMPI JUMPDEST PUSH1 0x20 DUP4 LT EQ PUSH3 0x7E7 JUMPI DUP2 PUSH1 0x1F DUP5 SWAP4 GT PUSH3 0x969 JUMPI JUMPDEST POP PUSH1 0x20 SWAP1 PUSH1 0x1F DUP4 GT PUSH1 0x1 EQ PUSH3 0x8EB JUMPI PUSH1 0x0 SWAP3 PUSH3 0x8DF JUMPI JUMPDEST POP POP DUP2 PUSH1 0x1 SHL SWAP2 PUSH1 0x0 NOT SWAP1 PUSH1 0x3 SHL SHR NOT AND OR PUSH1 0x8 SSTORE JUMPDEST PUSH1 0x20 DUP3 ADD MLOAD DUP1 MLOAD SWAP1 PUSH1 0x1 PUSH1 0x1 PUSH1 0x40 SHL SUB DUP3 GT PUSH3 0x6FD JUMPI PUSH1 0x9 SLOAD SWAP1 PUSH1 0x1 DUP3 DUP2 SHR SWAP3 AND DUP1 ISZERO PUSH3 0x8D4 JUMPI JUMPDEST PUSH1 0x20 DUP4 LT EQ PUSH3 0x7E7 JUMPI DUP2 PUSH1 0x1F DUP5 SWAP4 GT PUSH3 0x892 JUMPI JUMPDEST POP PUSH1 0x20 SWAP1 PUSH1 0x1F DUP4 GT PUSH1 0x1 EQ PUSH3 0x814 JUMPI PUSH1 0x0 SWAP3 PUSH3 0x808 JUMPI JUMPDEST POP POP DUP2 PUSH1 0x1 SHL SWAP2 PUSH1 0x0 NOT SWAP1 PUSH1 0x3 SHL SHR NOT AND OR PUSH1 0x9 SSTORE JUMPDEST PUSH1 0x40 DUP3 ADD MLOAD DUP1 MLOAD SWAP1 PUSH1 0x1 PUSH1 0x1 PUSH1 0x40 SHL SUB DUP3 GT PUSH3 0x6FD JUMPI PUSH1 0xA SLOAD SWAP1 PUSH1 0x1 DUP3 DUP2 SHR SWAP3 AND DUP1 ISZERO PUSH3 0x7FD JUMPI JUMPDEST PUSH1 0x20 DUP4 LT EQ PUSH3 0x7E7 JUMPI DUP2 PUSH1 0x1F DUP5 SWAP4 GT PUSH3 0x799 JUMPI JUMPDEST POP PUSH1 0x20 SWAP1 PUSH1 0x1F DUP4 GT PUSH1 0x1 EQ PUSH3 0x71F JUMPI PUSH1 0x0 SWAP3 PUSH3 0x713 JUMPI JUMPDEST POP POP DUP2 PUSH1 0x1 SHL SWAP2 PUSH1 0x0 NOT SWAP1 PUSH1 0x3 SHL SHR NOT AND OR PUSH1 0xA SSTORE JUMPDEST PUSH1 0x60 DUP3 ADD MLOAD PUSH1 0xB SSTORE PUSH1 0x80 DUP3 ADD MLOAD PUSH1 0xC SSTORE PUSH1 0xA0 DUP3 ADD MLOAD PUSH1 0xD SSTORE PUSH1 0xC0 DUP3 ADD MLOAD PUSH1 0xE SSTORE PUSH1 0xE0 DUP3 ADD MLOAD DUP1 MLOAD SWAP1 SWAP6 SWAP1 PUSH1 0x1 PUSH1 0x1 PUSH1 0x40 SHL SUB DUP2 GT PUSH3 0x6FD JUMPI PUSH9 0x10000000000000000 DUP2 GT PUSH3 0x6FD JUMPI PUSH1 0x20 PUSH1 0xF SWAP8 DUP9 SLOAD DUP4 DUP11 SSTORE DUP1 DUP5 LT PUSH3 0x6A9 JUMPI JUMPDEST POP ADD SWAP7 PUSH1 0x0 MSTORE PUSH1 0x20 PUSH1 0x0 KECCAK256 SWAP1 PUSH1 0x0 JUMPDEST DUP2 PUSH1 0x4 SHR DUP2 LT PUSH3 0x665 JUMPI POP PUSH1 0xF NOT DUP2 AND DUP1 DUP3 SUB PUSH3 0x600 JUMPI JUMPDEST PUSH2 0x100 DUP7 ADD MLOAD PUSH1 0x10 DUP1 SLOAD PUSH2 0x120 DUP10 DUP2 ADD MLOAD PUSH1 0x1 PUSH1 0x1 PUSH1 0xD0 SHL SUB NOT SWAP1 SWAP3 AND PUSH6 0xFFFFFFFFFFFF SWAP5 SWAP1 SWAP5 AND SWAP4 SWAP1 SWAP4 OR PUSH1 0x30 SWAP2 SWAP1 SWAP2 SHL PUSH1 0x1 PUSH1 0x30 SHL PUSH1 0x1 PUSH1 0xD0 SHL SUB AND OR SWAP1 SSTORE PUSH2 0x140 DUP8 ADD MLOAD PUSH1 0x11 DUP1 SLOAD PUSH2 0x160 DUP11 ADD MLOAD PUSH1 0x1 PUSH1 0x1 PUSH1 0xB0 SHL SUB NOT SWAP1 SWAP2 AND PUSH1 0x1 PUSH1 0x1 PUSH1 0xA0 SHL SUB SWAP4 DUP5 AND OR PUSH1 0xA0 SWAP2 DUP3 SHL PUSH2 0xFFFF PUSH1 0xA0 SHL AND OR SWAP1 SWAP2 SSTORE DUP2 DUP8 AND PUSH1 0x80 MSTORE DUP2 DUP11 AND SWAP1 MSTORE PUSH3 0x5AC SWAP2 DUP11 SWAP2 PUSH3 0x5A5 SWAP2 DUP11 PUSH3 0x59B DUP12 PUSH3 0x588 DUP8 PUSH3 0xCA1 JUMP JUMPDEST POP PUSH3 0x594 DUP8 PUSH3 0xD22 JUMP JUMPDEST POP PUSH3 0xD22 JUMP JUMPDEST POP ADD MLOAD AND PUSH3 0xDC5 JUMP JUMPDEST POP PUSH3 0xE63 JUMP JUMPDEST POP PUSH1 0x40 MLOAD PUSH2 0x2E06 SWAP1 DUP2 PUSH3 0xF02 DUP3 CODECOPY PUSH1 0x80 MLOAD DUP2 DUP2 DUP2 PUSH2 0xC1B ADD MSTORE DUP2 DUP2 PUSH2 0x2036 ADD MSTORE DUP2 DUP2 PUSH2 0x2267 ADD MSTORE DUP2 DUP2 PUSH2 0x275E ADD MSTORE PUSH2 0x2A92 ADD MSTORE PUSH1 0xA0 MLOAD DUP2 DUP2 DUP2 PUSH2 0xCDC ADD MSTORE DUP2 DUP2 PUSH2 0x15D6 ADD MSTORE DUP2 DUP2 PUSH2 0x19DD ADD MSTORE PUSH2 0x1CD9 ADD MSTORE RETURN JUMPDEST SWAP8 PUSH1 0x0 SWAP9 PUSH1 0x0 JUMPDEST DUP2 DUP5 SUB DUP2 LT PUSH3 0x630 JUMPI POP POP POP PUSH1 0x4 SHR ADD SWAP6 SWAP1 SWAP6 SSTORE PUSH3 0x5AC SWAP5 PUSH3 0x59B DUP3 PUSH3 0x5A5 PUSH3 0x4E7 JUMP JUMPDEST SWAP1 SWAP2 SWAP10 PUSH1 0x20 PUSH3 0x65A PUSH1 0x1 SWAP3 PUSH2 0xFFFF DUP15 MLOAD AND SWAP1 DUP6 DUP6 SHL PUSH1 0x3 SHL SWAP2 PUSH2 0xFFFF DUP1 SWAP2 AND DUP4 SHL SWAP3 SHL NOT AND OR SWAP1 JUMP JUMPDEST SWAP12 ADD SWAP3 SWAP2 ADD PUSH3 0x607 JUMP JUMPDEST PUSH1 0x0 DUP1 JUMPDEST PUSH1 0x10 DUP2 LT PUSH3 0x680 JUMPI POP DUP4 DUP3 ADD SSTORE PUSH1 0x1 ADD PUSH3 0x4CD JUMP JUMPDEST DUP11 MLOAD SWAP1 SWAP11 SWAP2 PUSH1 0x1 SWAP2 PUSH1 0x20 SWAP2 PUSH2 0xFFFF PUSH1 0x4 DUP16 SWAP1 SHL DUP2 DUP2 SHL NOT SWAP1 SWAP3 AND SWAP3 AND SWAP1 SHL OR SWAP3 ADD SWAP11 ADD PUSH3 0x669 JUMP JUMPDEST PUSH3 0x6DB SWAP1 DUP11 PUSH1 0x0 MSTORE DUP4 PUSH1 0x0 KECCAK256 DUP12 DUP1 DUP8 ADD PUSH1 0x4 SHR DUP3 ADD SWAP3 PUSH1 0x1E DUP9 PUSH1 0x1 SHL AND DUP1 PUSH3 0x6E2 JUMPI JUMPDEST POP ADD PUSH1 0x4 SHR ADD SWAP1 PUSH3 0xC88 JUMP JUMPDEST CODESIZE PUSH3 0x4BE JUMP JUMPDEST PUSH1 0x0 NOT SWAP1 DUP2 DUP7 ADD SWAP2 DUP3 SLOAD SWAP2 DUP11 SUB PUSH1 0x3 SHL SHR AND SWAP1 SSTORE CODESIZE PUSH3 0x6CE JUMP JUMPDEST PUSH4 0x4E487B71 PUSH1 0xE0 SHL PUSH1 0x0 MSTORE PUSH1 0x41 PUSH1 0x4 MSTORE PUSH1 0x24 PUSH1 0x0 REVERT JUMPDEST ADD MLOAD SWAP1 POP CODESIZE DUP1 PUSH3 0x44B JUMP JUMPDEST PUSH1 0xA PUSH1 0x0 SWAP1 DUP2 MSTORE PUSH1 0x0 DUP1 MLOAD PUSH1 0x20 PUSH3 0x3D28 DUP4 CODECOPY DUP2 MLOAD SWAP2 MSTORE SWAP4 POP PUSH1 0x1F NOT DUP6 AND SWAP1 JUMPDEST DUP2 DUP2 LT PUSH3 0x780 JUMPI POP SWAP1 DUP5 PUSH1 0x1 SWAP6 SWAP5 SWAP4 SWAP3 LT PUSH3 0x766 JUMPI JUMPDEST POP POP POP DUP2 SHL ADD PUSH1 0xA SSTORE PUSH3 0x461 JUMP JUMPDEST ADD MLOAD PUSH1 0x0 NOT PUSH1 0xF8 DUP5 PUSH1 0x3 SHL AND SHR NOT AND SWAP1 SSTORE CODESIZE DUP1 DUP1 PUSH3 0x757 JUMP JUMPDEST SWAP3 SWAP4 PUSH1 0x20 PUSH1 0x1 DUP2 SWAP3 DUP8 DUP7 ADD MLOAD DUP2 SSTORE ADD SWAP6 ADD SWAP4 ADD PUSH3 0x73F JUMP JUMPDEST PUSH1 0xA PUSH1 0x0 MSTORE PUSH3 0x7D5 SWAP1 PUSH1 0x0 DUP1 MLOAD PUSH1 0x20 PUSH3 0x3D28 DUP4 CODECOPY DUP2 MLOAD SWAP2 MSTORE PUSH1 0x1F DUP6 ADD PUSH1 0x5 SHR DUP2 ADD SWAP2 PUSH1 0x20 DUP7 LT PUSH3 0x7DC JUMPI JUMPDEST PUSH1 0x1F ADD PUSH1 0x5 SHR ADD SWAP1 PUSH3 0xC88 JUMP JUMPDEST CODESIZE PUSH3 0x432 JUMP JUMPDEST SWAP1 SWAP2 POP DUP2 SWAP1 PUSH3 0x7C7 JUMP JUMPDEST PUSH4 0x4E487B71 PUSH1 0xE0 SHL PUSH1 0x0 MSTORE PUSH1 0x22 PUSH1 0x4 MSTORE PUSH1 0x24 PUSH1 0x0 REVERT JUMPDEST SWAP2 PUSH1 0x7F AND SWAP2 PUSH3 0x41C JUMP JUMPDEST ADD MLOAD SWAP1 POP CODESIZE DUP1 PUSH3 0x3DC JUMP JUMPDEST PUSH1 0x9 PUSH1 0x0 SWAP1 DUP2 MSTORE SWAP4 POP PUSH1 0x0 DUP1 MLOAD PUSH1 0x20 PUSH3 0x3D68 DUP4 CODECOPY DUP2 MLOAD SWAP2 MSTORE SWAP2 SWAP1 JUMPDEST PUSH1 0x1F NOT DUP5 AND DUP6 LT PUSH3 0x876 JUMPI PUSH1 0x1 SWAP5 POP DUP4 PUSH1 0x1F NOT DUP2 AND LT PUSH3 0x85C JUMPI JUMPDEST POP POP POP DUP2 SHL ADD PUSH1 0x9 SSTORE PUSH3 0x3F2 JUMP JUMPDEST ADD MLOAD PUSH1 0x0 NOT PUSH1 0xF8 DUP5 PUSH1 0x3 SHL AND SHR NOT AND SWAP1 SSTORE CODESIZE DUP1 DUP1 PUSH3 0x84D JUMP JUMPDEST DUP2 DUP2 ADD MLOAD DUP4 SSTORE PUSH1 0x20 SWAP5 DUP6 ADD SWAP5 PUSH1 0x1 SWAP1 SWAP4 ADD SWAP3 SWAP1 SWAP2 ADD SWAP1 PUSH3 0x830 JUMP JUMPDEST PUSH1 0x9 PUSH1 0x0 MSTORE PUSH3 0x8CD SWAP1 PUSH1 0x0 DUP1 MLOAD PUSH1 0x20 PUSH3 0x3D68 DUP4 CODECOPY DUP2 MLOAD SWAP2 MSTORE PUSH1 0x1F DUP6 ADD PUSH1 0x5 SHR DUP2 ADD SWAP2 PUSH1 0x20 DUP7 LT PUSH3 0x7DC JUMPI PUSH1 0x1F ADD PUSH1 0x5 SHR ADD SWAP1 PUSH3 0xC88 JUMP JUMPDEST CODESIZE PUSH3 0x3C3 JUMP JUMPDEST SWAP2 PUSH1 0x7F AND SWAP2 PUSH3 0x3AD JUMP JUMPDEST ADD MLOAD SWAP1 POP CODESIZE DUP1 PUSH3 0x36D JUMP JUMPDEST PUSH1 0x8 PUSH1 0x0 SWAP1 DUP2 MSTORE SWAP4 POP PUSH1 0x0 DUP1 MLOAD PUSH1 0x20 PUSH3 0x3D48 DUP4 CODECOPY DUP2 MLOAD SWAP2 MSTORE SWAP2 SWAP1 JUMPDEST PUSH1 0x1F NOT DUP5 AND DUP6 LT PUSH3 0x94D JUMPI PUSH1 0x1 SWAP5 POP DUP4 PUSH1 0x1F NOT DUP2 AND LT PUSH3 0x933 JUMPI JUMPDEST POP POP POP DUP2 SHL ADD PUSH1 0x8 SSTORE PUSH3 0x383 JUMP JUMPDEST ADD MLOAD PUSH1 0x0 NOT PUSH1 0xF8 DUP5 PUSH1 0x3 SHL AND SHR NOT AND SWAP1 SSTORE CODESIZE DUP1 DUP1 PUSH3 0x924 JUMP JUMPDEST DUP2 DUP2 ADD MLOAD DUP4 SSTORE PUSH1 0x20 SWAP5 DUP6 ADD SWAP5 PUSH1 0x1 SWAP1 SWAP4 ADD SWAP3 SWAP1 SWAP2 ADD SWAP1 PUSH3 0x907 JUMP JUMPDEST PUSH1 0x8 PUSH1 0x0 MSTORE PUSH3 0x9A4 SWAP1 PUSH1 0x0 DUP1 MLOAD PUSH1 0x20 PUSH3 0x3D48 DUP4 CODECOPY DUP2 MLOAD SWAP2 MSTORE PUSH1 0x1F DUP6 ADD PUSH1 0x5 SHR DUP2 ADD SWAP2 PUSH1 0x20 DUP7 LT PUSH3 0x7DC JUMPI PUSH1 0x1F ADD PUSH1 0x5 SHR ADD SWAP1 PUSH3 0xC88 JUMP JUMPDEST CODESIZE PUSH3 0x354 JUMP JUMPDEST SWAP2 PUSH1 0x7F AND SWAP2 PUSH3 0x33E JUMP JUMPDEST ADD MLOAD SWAP1 POP CODESIZE DUP1 PUSH3 0x2FC JUMP JUMPDEST PUSH1 0x4 PUSH1 0x0 SWAP1 DUP2 MSTORE SWAP4 POP PUSH32 0x8A35ACFBC15FF81A39AE7D344FD709F28E8600B4AA8C65C6B64BFE7FE36BD19B SWAP2 SWAP1 JUMPDEST PUSH1 0x1F NOT DUP5 AND DUP6 LT PUSH3 0xA35 JUMPI PUSH1 0x1 SWAP5 POP DUP4 PUSH1 0x1F NOT DUP2 AND LT PUSH3 0xA1B JUMPI JUMPDEST POP POP POP DUP2 SHL ADD PUSH1 0x4 SSTORE PUSH3 0x312 JUMP JUMPDEST ADD MLOAD PUSH1 0x0 NOT PUSH1 0xF8 DUP5 PUSH1 0x3 SHL AND SHR NOT AND SWAP1 SSTORE CODESIZE DUP1 DUP1 PUSH3 0xA0C JUMP JUMPDEST DUP2 DUP2 ADD MLOAD DUP4 SSTORE PUSH1 0x20 SWAP5 DUP6 ADD SWAP5 PUSH1 0x1 SWAP1 SWAP4 ADD SWAP3 SWAP1 SWAP2 ADD SWAP1 PUSH3 0x9EF JUMP JUMPDEST PUSH1 0x4 PUSH1 0x0 MSTORE PUSH3 0xA9D SWAP1 PUSH32 0x8A35ACFBC15FF81A39AE7D344FD709F28E8600B4AA8C65C6B64BFE7FE36BD19B PUSH1 0x1F DUP6 ADD PUSH1 0x5 SHR DUP2 ADD SWAP2 PUSH1 0x20 DUP7 LT PUSH3 0x7DC JUMPI PUSH1 0x1F ADD PUSH1 0x5 SHR ADD SWAP1 PUSH3 0xC88 JUMP JUMPDEST CODESIZE PUSH3 0x2E3 JUMP JUMPDEST SWAP2 PUSH1 0x7F AND SWAP2 PUSH3 0x2CD JUMP JUMPDEST ADD MLOAD SWAP1 POP CODESIZE DUP1 PUSH3 0x292 JUMP JUMPDEST PUSH1 0x3 PUSH1 0x0 SWAP1 DUP2 MSTORE SWAP4 POP PUSH32 0xC2575A0E9E593C00F959F8C92F12DB2869C3395A3B0502D05E2516446F71F85B SWAP2 SWAP1 JUMPDEST PUSH1 0x1F NOT DUP5 AND DUP6 LT PUSH3 0xB2E JUMPI PUSH1 0x1 SWAP5 POP DUP4 PUSH1 0x1F NOT DUP2 AND LT PUSH3 0xB14 JUMPI JUMPDEST POP POP POP DUP2 SHL ADD PUSH1 0x3 SSTORE PUSH3 0x2A8 JUMP JUMPDEST ADD MLOAD PUSH1 0x0 NOT PUSH1 0xF8 DUP5 PUSH1 0x3 SHL AND SHR NOT AND SWAP1 SSTORE CODESIZE DUP1 DUP1 PUSH3 0xB05 JUMP JUMPDEST DUP2 DUP2 ADD MLOAD DUP4 SSTORE PUSH1 0x20 SWAP5 DUP6 ADD SWAP5 PUSH1 0x1 SWAP1 SWAP4 ADD SWAP3 SWAP1 SWAP2 ADD SWAP1 PUSH3 0xAE8 JUMP JUMPDEST PUSH1 0x3 PUSH1 0x0 MSTORE PUSH3 0xB96 SWAP1 PUSH32 0xC2575A0E9E593C00F959F8C92F12DB2869C3395A3B0502D05E2516446F71F85B PUSH1 0x1F DUP6 ADD PUSH1 0x5 SHR DUP2 ADD SWAP2 PUSH1 0x20 DUP7 LT PUSH3 0x7DC JUMPI PUSH1 0x1F ADD PUSH1 0x5 SHR ADD SWAP1 PUSH3 0xC88 JUMP JUMPDEST CODESIZE PUSH3 0x279 JUMP JUMPDEST SWAP2 PUSH1 0x7F AND SWAP2 PUSH3 0x263 JUMP JUMPDEST PUSH1 0x0 DUP1 REVERT JUMPDEST PUSH1 0x20 DUP1 DUP1 SWAP4 PUSH3 0xBBD DUP7 PUSH3 0xC63 JUMP JUMPDEST DUP2 MSTORE ADD SWAP4 ADD SWAP3 SWAP2 POP PUSH3 0x17E JUMP JUMPDEST PUSH1 0x40 MLOAD SWAP2 SWAP1 PUSH1 0x1F ADD PUSH1 0x1F NOT AND DUP3 ADD PUSH1 0x1 PUSH1 0x1 PUSH1 0x40 SHL SUB DUP2 GT DUP4 DUP3 LT OR PUSH3 0x6FD JUMPI PUSH1 0x40 MSTORE JUMP JUMPDEST SWAP2 SWAP1 DUP1 PUSH1 0x1F DUP5 ADD SLT ISZERO PUSH3 0xBA8 JUMPI DUP3 MLOAD PUSH1 0x1 PUSH1 0x1 PUSH1 0x40 SHL SUB DUP2 GT PUSH3 0x6FD JUMPI PUSH1 0x20 SWAP1 PUSH3 0xC27 PUSH1 0x1F DUP3 ADD PUSH1 0x1F NOT AND DUP4 ADD PUSH3 0xBCB JUMP JUMPDEST SWAP3 DUP2 DUP5 MSTORE DUP3 DUP3 DUP8 ADD ADD GT PUSH3 0xBA8 JUMPI PUSH1 0x0 JUMPDEST DUP2 DUP2 LT PUSH3 0xC4F JUMPI POP DUP3 PUSH1 0x0 SWAP4 SWAP5 SWAP6 POP ADD ADD MSTORE SWAP1 JUMP JUMPDEST DUP6 DUP2 ADD DUP4 ADD MLOAD DUP5 DUP3 ADD DUP5 ADD MSTORE DUP3 ADD PUSH3 0xC39 JUMP JUMPDEST MLOAD SWAP1 PUSH2 0xFFFF DUP3 AND DUP3 SUB PUSH3 0xBA8 JUMPI JUMP JUMPDEST MLOAD SWAP1 PUSH1 0x1 PUSH1 0x1 PUSH1 0xA0 SHL SUB DUP3 AND DUP3 SUB PUSH3 0xBA8 JUMPI JUMP JUMPDEST DUP2 DUP2 LT PUSH3 0xC94 JUMPI POP POP JUMP JUMPDEST PUSH1 0x0 DUP2 SSTORE PUSH1 0x1 ADD PUSH3 0xC88 JUMP JUMPDEST PUSH1 0x1 PUSH1 0x1 PUSH1 0xA0 SHL SUB AND PUSH1 0x0 DUP2 DUP2 MSTORE PUSH32 0x54CDD369E4E8A8515E52CA72EC816C2101831AD1F18BF44102ED171459C9B4F8 PUSH1 0x20 MSTORE PUSH1 0x40 DUP2 KECCAK256 SLOAD SWAP1 SWAP2 SWAP1 PUSH1 0xFF AND PUSH3 0xD1E JUMPI DUP2 DUP1 MSTORE PUSH1 0x6 PUSH1 0x20 MSTORE PUSH1 0x40 DUP3 KECCAK256 DUP2 DUP4 MSTORE PUSH1 0x20 MSTORE PUSH1 0x40 DUP3 KECCAK256 PUSH1 0x1 PUSH1 0xFF NOT DUP3 SLOAD AND OR SWAP1 SSTORE CALLER SWAP2 PUSH1 0x0 DUP1 MLOAD PUSH1 0x20 PUSH3 0x3D08 DUP4 CODECOPY DUP2 MLOAD SWAP2 MSTORE DUP2 DUP1 LOG4 PUSH1 0x1 SWAP1 JUMP JUMPDEST POP SWAP1 JUMP JUMPDEST PUSH1 0x1 PUSH1 0x1 PUSH1 0xA0 SHL SUB AND PUSH1 0x0 DUP2 DUP2 MSTORE PUSH32 0x84103E4942D70D0389AB910BDCDF181C3E028BC1897FE6797BB191AC79D80882 PUSH1 0x20 MSTORE PUSH1 0x40 DUP2 KECCAK256 SLOAD SWAP1 SWAP2 SWAP1 PUSH32 0x442A94F1A1FAC79AF32856AF2A64F63648CFA2EF3B98610A5BB7CBEC4CEE6985 SWAP1 PUSH1 0xFF AND PUSH3 0xDC0 JUMPI DUP1 DUP4 MSTORE PUSH1 0x6 PUSH1 0x20 MSTORE PUSH1 0x40 DUP4 KECCAK256 DUP3 DUP5 MSTORE PUSH1 0x20 MSTORE PUSH1 0x40 DUP4 KECCAK256 PUSH1 0x1 PUSH1 0xFF NOT DUP3 SLOAD AND OR SWAP1 SSTORE PUSH1 0x0 DUP1 MLOAD PUSH1 0x20 PUSH3 0x3D08 DUP4 CODECOPY DUP2 MLOAD SWAP2 MSTORE CALLER SWAP4 DUP1 LOG4 PUSH1 0x1 SWAP1 JUMP JUMPDEST POP POP SWAP1 JUMP JUMPDEST PUSH1 0x1 PUSH1 0x1 PUSH1 0xA0 SHL SUB AND PUSH1 0x0 DUP2 DUP2 MSTORE PUSH32 0x702FE919A6A7971E34C596917A48306A624527A41D0AA0FCF43050B6A3053248 PUSH1 0x20 MSTORE PUSH1 0x40 DUP2 KECCAK256 SLOAD SWAP1 SWAP2 SWAP1 PUSH32 0x114E74F6EA3BD819998F78687BFCB11B140DA08E9B7D222FA9C1F1BA1F2AA122 SWAP1 PUSH1 0xFF AND PUSH3 0xDC0 JUMPI DUP1 DUP4 MSTORE PUSH1 0x6 PUSH1 0x20 MSTORE PUSH1 0x40 DUP4 KECCAK256 DUP3 DUP5 MSTORE PUSH1 0x20 MSTORE PUSH1 0x40 DUP4 KECCAK256 PUSH1 0x1 PUSH1 0xFF NOT DUP3 SLOAD AND OR SWAP1 SSTORE PUSH1 0x0 DUP1 MLOAD PUSH1 0x20 PUSH3 0x3D08 DUP4 CODECOPY DUP2 MLOAD SWAP2 MSTORE CALLER SWAP4 DUP1 LOG4 PUSH1 0x1 SWAP1 JUMP JUMPDEST PUSH1 0x1 PUSH1 0x1 PUSH1 0xA0 SHL SUB AND PUSH1 0x0 DUP2 DUP2 MSTORE PUSH32 0x4448119502453E295A09F7D4E8A6A0575D3624C233F99F59ABF0835BF259780A PUSH1 0x20 MSTORE PUSH1 0x40 DUP2 KECCAK256 SLOAD SWAP1 SWAP2 SWAP1 PUSH32 0xCAB5A0BFE0B79D2C4B1C2E02599FA044D115B7511F9659307CB4276950967709 SWAP1 PUSH1 0xFF AND PUSH3 0xDC0 JUMPI DUP1 DUP4 MSTORE PUSH1 0x6 PUSH1 0x20 MSTORE PUSH1 0x40 DUP4 KECCAK256 DUP3 DUP5 MSTORE PUSH1 0x20 MSTORE PUSH1 0x40 DUP4 KECCAK256 PUSH1 0x1 PUSH1 0xFF NOT DUP3 SLOAD AND OR SWAP1 SSTORE PUSH1 0x0 DUP1 MLOAD PUSH1 0x20 PUSH3 0x3D08 DUP4 CODECOPY DUP2 MLOAD SWAP2 MSTORE CALLER SWAP4 DUP1 LOG4 PUSH1 0x1 SWAP1 JUMP INVALID PUSH1 0x80 DUP1 PUSH1 0x40 MSTORE PUSH1 0x4 SWAP1 DUP2 CALLDATASIZE LT ISZERO PUSH2 0x15 JUMPI PUSH1 0x0 DUP1 REVERT JUMPDEST PUSH1 0x0 CALLDATALOAD PUSH1 0xE0 SHR SWAP1 DUP2 PUSH4 0x1FFC9A7 EQ PUSH2 0x2467 JUMPI POP DUP1 PUSH4 0x4CAA6DD EQ PUSH2 0x23CB JUMPI DUP1 PUSH4 0x56097AC EQ PUSH2 0x220F JUMPI DUP1 PUSH4 0x62D3BD7 EQ PUSH2 0x21D4 JUMPI DUP1 PUSH4 0x6FDDE03 EQ PUSH2 0x2105 JUMPI DUP1 PUSH4 0x95EA7B3 EQ PUSH2 0x2065 JUMPI DUP1 PUSH4 0x134E18F4 EQ PUSH2 0x2020 JUMPI DUP1 PUSH4 0x18160DDD EQ PUSH2 0x2002 JUMPI DUP1 PUSH4 0x22459E18 EQ PUSH2 0x1FC7 JUMPI DUP1 PUSH4 0x23B872DD EQ PUSH2 0x1EE4 JUMPI DUP1 PUSH4 0x248A9CA3 EQ PUSH2 0x1EB6 JUMPI DUP1 PUSH4 0x266565A9 EQ PUSH2 0x1E7C JUMPI DUP1 PUSH4 0x2F2FF15D EQ PUSH2 0x1E3D JUMPI DUP1 PUSH4 0x313CE567 EQ PUSH2 0x1E21 JUMPI DUP1 PUSH4 0x36568ABE EQ PUSH2 0x1DDD JUMPI DUP1 PUSH4 0x3AD8B2D7 EQ PUSH2 0x1D08 JUMPI DUP1 PUSH4 0x3E413BEE EQ PUSH2 0x1CC3 JUMPI DUP1 PUSH4 0x3F4BA83A EQ PUSH2 0x1B94 JUMPI DUP1 PUSH4 0x3F89797E EQ PUSH2 0x1978 JUMPI DUP1 PUSH4 0x559D3D4B EQ PUSH2 0x1955 JUMPI DUP1 PUSH4 0x5C975ABB EQ PUSH2 0x1932 JUMPI DUP1 PUSH4 0x6DA66355 EQ PUSH2 0x172A JUMPI DUP1 PUSH4 0x70A08231 EQ PUSH2 0x16F0 JUMPI DUP1 PUSH4 0x82AEFA24 EQ PUSH2 0x16B5 JUMPI DUP1 PUSH4 0x884A41BE EQ PUSH2 0x155A JUMPI DUP1 PUSH4 0x91D14854 EQ PUSH2 0x150D JUMPI DUP1 PUSH4 0x95D89B41 EQ PUSH2 0x1426 JUMPI DUP1 PUSH4 0x985FFEC0 EQ PUSH2 0x13A9 JUMPI DUP1 PUSH4 0xA217FDDF EQ PUSH2 0x138D JUMPI DUP1 PUSH4 0xA4DF6C6A EQ PUSH2 0x12F9 JUMPI DUP1 PUSH4 0xA9059CBB EQ PUSH2 0x12C8 JUMPI DUP1 PUSH4 0xAB7294F0 EQ PUSH2 0x1228 JUMPI DUP1 PUSH4 0xB9B8C246 EQ PUSH2 0xB41 JUMPI DUP1 PUSH4 0xC3F909D4 EQ PUSH2 0x3FC JUMPI DUP1 PUSH4 0xC5C4744C EQ PUSH2 0x3DE JUMPI DUP1 PUSH4 0xD547741F EQ PUSH2 0x39D JUMPI DUP1 PUSH4 0xD7E64C00 EQ PUSH2 0x37F JUMPI DUP1 PUSH4 0xDD62ED3E EQ PUSH2 0x32E JUMPI DUP1 PUSH4 0xE46638E6 EQ PUSH2 0x2F4 JUMPI DUP1 PUSH4 0xE5839836 EQ PUSH2 0x2B8 JUMPI PUSH4 0xE9B2F0AD EQ PUSH2 0x1E4 JUMPI PUSH1 0x0 DUP1 REVERT JUMPDEST CALLVALUE PUSH2 0x2B3 JUMPI PUSH1 0x40 CALLDATASIZE PUSH1 0x3 NOT ADD SLT PUSH2 0x2B3 JUMPI PUSH2 0x1FD PUSH2 0x25A4 JUMP JUMPDEST PUSH1 0x24 CALLDATALOAD SWAP1 PUSH2 0x209 PUSH2 0x28AA JUMP JUMPDEST PUSH1 0x1 DUP1 PUSH1 0xA0 SHL SUB AND SWAP2 DUP3 PUSH1 0x0 MSTORE PUSH1 0x14 PUSH1 0x20 MSTORE DUP2 PUSH1 0x40 PUSH1 0x0 KECCAK256 SLOAD LT PUSH2 0x26F JUMPI POP PUSH1 0x20 PUSH32 0x9BED35CB62AD0DBA04F9D5BFEE4B5BC91443E77DA8A65C4C84834C51BB08B0D6 SWAP2 DUP4 PUSH1 0x0 MSTORE PUSH1 0x14 DUP3 MSTORE PUSH1 0x40 PUSH1 0x0 KECCAK256 PUSH2 0x264 DUP3 DUP3 SLOAD PUSH2 0x270E JUMP JUMPDEST SWAP1 SSTORE PUSH1 0x40 MLOAD SWAP1 DUP2 MSTORE LOG2 STOP JUMPDEST PUSH1 0x64 SWAP1 PUSH1 0x20 PUSH1 0x40 MLOAD SWAP2 PUSH3 0x461BCD PUSH1 0xE5 SHL DUP4 MSTORE DUP3 ADD MSTORE PUSH1 0x17 PUSH1 0x24 DUP3 ADD MSTORE PUSH32 0x53543A20696E73756666696369656E742066726F7A656E000000000000000000 PUSH1 0x44 DUP3 ADD MSTORE REVERT JUMPDEST PUSH1 0x0 DUP1 REVERT JUMPDEST CALLVALUE PUSH2 0x2B3 JUMPI PUSH1 0x20 CALLDATASIZE PUSH1 0x3 NOT ADD SLT PUSH2 0x2B3 JUMPI PUSH1 0x1 PUSH1 0x1 PUSH1 0xA0 SHL SUB PUSH2 0x2D9 PUSH2 0x25A4 JUMP JUMPDEST AND PUSH1 0x0 MSTORE PUSH1 0x14 PUSH1 0x20 MSTORE PUSH1 0x20 PUSH1 0x40 PUSH1 0x0 KECCAK256 SLOAD ISZERO ISZERO PUSH1 0x40 MLOAD SWAP1 DUP2 MSTORE RETURN JUMPDEST CALLVALUE PUSH2 0x2B3 JUMPI PUSH2 0x30B PUSH2 0x305 CALLDATASIZE PUSH2 0x25D0 JUMP JUMPDEST SWAP2 PUSH2 0x271B JUMP JUMPDEST SWAP1 PUSH2 0x32A PUSH1 0x40 MLOAD SWAP3 DUP4 SWAP3 ISZERO ISZERO DUP4 MSTORE PUSH1 0x40 PUSH1 0x20 DUP5 ADD MSTORE PUSH1 0x40 DUP4 ADD SWAP1 PUSH2 0x2564 JUMP JUMPDEST SUB SWAP1 RETURN JUMPDEST CALLVALUE PUSH2 0x2B3 JUMPI PUSH1 0x40 CALLDATASIZE PUSH1 0x3 NOT ADD SLT PUSH2 0x2B3 JUMPI PUSH2 0x347 PUSH2 0x25A4 JUMP JUMPDEST PUSH2 0x34F PUSH2 0x25BA JUMP JUMPDEST SWAP1 PUSH1 0x1 DUP1 PUSH1 0xA0 SHL SUB DUP1 SWAP2 AND PUSH1 0x0 MSTORE PUSH1 0x1 PUSH1 0x20 MSTORE PUSH1 0x40 PUSH1 0x0 KECCAK256 SWAP2 AND PUSH1 0x0 MSTORE PUSH1 0x20 MSTORE PUSH1 0x20 PUSH1 0x40 PUSH1 0x0 KECCAK256 SLOAD PUSH1 0x40 MLOAD SWAP1 DUP2 MSTORE RETURN JUMPDEST CALLVALUE PUSH2 0x2B3 JUMPI PUSH1 0x0 CALLDATASIZE PUSH1 0x3 NOT ADD SLT PUSH2 0x2B3 JUMPI PUSH1 0x20 PUSH1 0x17 SLOAD PUSH1 0x40 MLOAD SWAP1 DUP2 MSTORE RETURN JUMPDEST POP CALLVALUE PUSH2 0x2B3 JUMPI PUSH1 0x40 CALLDATASIZE PUSH1 0x3 NOT ADD SLT PUSH2 0x2B3 JUMPI PUSH2 0x3DC SWAP1 CALLDATALOAD PUSH2 0x3BC PUSH2 0x25BA JUMP JUMPDEST SWAP1 DUP1 PUSH1 0x0 MSTORE PUSH1 0x6 PUSH1 0x20 MSTORE PUSH2 0x3D7 PUSH1 0x1 PUSH1 0x40 PUSH1 0x0 KECCAK256 ADD SLOAD PUSH2 0x2980 JUMP JUMPDEST PUSH2 0x2CF8 JUMP JUMPDEST STOP JUMPDEST CALLVALUE PUSH2 0x2B3 JUMPI PUSH1 0x0 CALLDATASIZE PUSH1 0x3 NOT ADD SLT PUSH2 0x2B3 JUMPI PUSH1 0x20 PUSH1 0x18 SLOAD PUSH1 0x40 MLOAD SWAP1 DUP2 MSTORE RETURN JUMPDEST CALLVALUE PUSH2 0x2B3 JUMPI PUSH1 0x0 CALLDATASIZE PUSH1 0x3 NOT ADD SLT PUSH2 0x2B3 JUMPI PUSH1 0x0 PUSH2 0x160 PUSH1 0x40 MLOAD PUSH2 0x41E DUP2 PUSH2 0x24F3 JUMP JUMPDEST PUSH1 0x60 DUP2 MSTORE PUSH1 0x60 PUSH1 0x20 DUP3 ADD MSTORE PUSH1 0x60 PUSH1 0x40 DUP3 ADD MSTORE DUP3 PUSH1 0x60 DUP3 ADD MSTORE DUP3 PUSH1 0x80 DUP3 ADD MSTORE DUP3 PUSH1 0xA0 DUP3 ADD MSTORE DUP3 PUSH1 0xC0 DUP3 ADD MSTORE PUSH1 0x60 PUSH1 0xE0 DUP3 ADD MSTORE DUP3 PUSH2 0x100 DUP3 ADD MSTORE DUP3 PUSH2 0x120 DUP3 ADD MSTORE DUP3 PUSH2 0x140 DUP3 ADD MSTORE ADD MSTORE PUSH1 0x40 MLOAD PUSH2 0x472 DUP2 PUSH2 0x24F3 JUMP JUMPDEST PUSH1 0x40 MLOAD PUSH1 0x8 SLOAD DUP2 PUSH1 0x0 PUSH2 0x484 DUP4 PUSH2 0x24B9 JUMP JUMPDEST DUP1 DUP4 MSTORE SWAP3 PUSH1 0x1 DUP2 AND SWAP1 DUP2 ISZERO PUSH2 0xB22 JUMPI POP PUSH1 0x1 EQ PUSH2 0xAC1 JUMPI JUMPDEST PUSH2 0x4A8 SWAP3 POP SUB DUP3 PUSH2 0x2542 JUMP JUMPDEST DUP2 MSTORE PUSH1 0x40 MLOAD PUSH1 0x9 SLOAD DUP2 PUSH1 0x0 PUSH2 0x4BC DUP4 PUSH2 0x24B9 JUMP JUMPDEST DUP1 DUP4 MSTORE SWAP3 PUSH1 0x1 DUP2 AND SWAP1 DUP2 ISZERO PUSH2 0xAA2 JUMPI POP PUSH1 0x1 EQ PUSH2 0xA41 JUMPI JUMPDEST PUSH2 0x4E0 SWAP3 POP SUB DUP3 PUSH2 0x2542 JUMP JUMPDEST PUSH1 0x20 DUP3 ADD MSTORE PUSH1 0x40 MLOAD PUSH1 0xA SLOAD DUP2 PUSH1 0x0 PUSH2 0x4F7 DUP4 PUSH2 0x24B9 JUMP JUMPDEST DUP1 DUP4 MSTORE SWAP3 PUSH1 0x1 DUP2 AND SWAP1 DUP2 ISZERO PUSH2 0xA22 JUMPI POP PUSH1 0x1 EQ PUSH2 0x9C1 JUMPI JUMPDEST PUSH2 0x51B SWAP3 POP SUB DUP3 PUSH2 0x2542 JUMP JUMPDEST PUSH1 0x40 DUP3 ADD MSTORE PUSH1 0xB SLOAD PUSH1 0x60 DUP3 ADD MSTORE PUSH1 0xC SLOAD PUSH1 0x80 DUP3 ADD MSTORE PUSH1 0xD SLOAD PUSH1 0xA0 DUP3 ADD MSTORE PUSH1 0xE SLOAD PUSH1 0xC0 DUP3 ADD MSTORE PUSH1 0x40 MLOAD DUP1 DUP2 PUSH1 0x20 PUSH1 0xF SLOAD SWAP3 DUP4 DUP2 MSTORE ADD PUSH1 0xF PUSH1 0x0 MSTORE PUSH32 0x8D1108E10BCB7C27DDDFC02ED9D693A074039D026CF4EA4240B40F7D581AC802 SWAP3 PUSH1 0x0 SWAP1 JUMPDEST DUP1 PUSH1 0xF DUP4 ADD LT PUSH2 0x8D9 JUMPI PUSH2 0x610 SWAP5 SLOAD SWAP2 DUP2 DUP2 LT PUSH2 0x8C4 JUMPI JUMPDEST DUP2 DUP2 LT PUSH2 0x8AC JUMPI JUMPDEST DUP2 DUP2 LT PUSH2 0x895 JUMPI JUMPDEST DUP2 DUP2 LT PUSH2 0x87D JUMPI JUMPDEST DUP2 DUP2 LT PUSH2 0x865 JUMPI JUMPDEST DUP2 DUP2 LT PUSH2 0x84D JUMPI JUMPDEST DUP2 DUP2 LT PUSH2 0x835 JUMPI JUMPDEST DUP2 DUP2 LT PUSH2 0x81D JUMPI JUMPDEST DUP2 DUP2 LT PUSH2 0x805 JUMPI JUMPDEST DUP2 DUP2 LT PUSH2 0x7ED JUMPI JUMPDEST DUP2 DUP2 LT PUSH2 0x7D5 JUMPI JUMPDEST DUP2 DUP2 LT PUSH2 0x7BD JUMPI JUMPDEST DUP2 DUP2 LT PUSH2 0x7A5 JUMPI JUMPDEST DUP2 DUP2 LT PUSH2 0x78D JUMPI JUMPDEST DUP2 DUP2 LT PUSH2 0x775 JUMPI JUMPDEST LT PUSH2 0x767 JUMPI JUMPDEST POP SUB DUP3 PUSH2 0x2542 JUMP JUMPDEST PUSH1 0xE0 DUP3 ADD MSTORE PUSH1 0x10 SLOAD PUSH6 0xFFFFFFFFFFFF DUP2 AND PUSH2 0x100 DUP4 ADD MSTORE PUSH1 0x1 DUP1 PUSH1 0xA0 SHL SUB SWAP1 PUSH1 0x30 SHR AND PUSH2 0x120 DUP3 ADD MSTORE PUSH2 0xFFFF PUSH1 0x11 SLOAD PUSH1 0x1 DUP1 PUSH1 0xA0 SHL SUB DUP2 AND PUSH2 0x140 DUP5 ADD MSTORE PUSH1 0xA0 SHR AND PUSH2 0x160 DUP3 ADD MSTORE PUSH1 0x40 MLOAD PUSH1 0x20 DUP2 MSTORE PUSH2 0x6A9 PUSH2 0x693 PUSH2 0x67D DUP5 MLOAD PUSH2 0x180 PUSH1 0x20 DUP7 ADD MSTORE PUSH2 0x1A0 DUP6 ADD SWAP1 PUSH2 0x2564 JUMP JUMPDEST PUSH1 0x20 DUP6 ADD MLOAD DUP5 DUP3 SUB PUSH1 0x1F NOT ADD PUSH1 0x40 DUP7 ADD MSTORE PUSH2 0x2564 JUMP JUMPDEST PUSH1 0x40 DUP5 ADD MLOAD DUP4 DUP3 SUB PUSH1 0x1F NOT ADD PUSH1 0x60 DUP6 ADD MSTORE PUSH2 0x2564 JUMP JUMPDEST PUSH1 0x60 DUP4 ADD MLOAD PUSH1 0x80 DUP4 ADD MSTORE PUSH1 0x80 DUP4 ADD MLOAD PUSH1 0xA0 DUP4 ADD MSTORE PUSH1 0xA0 DUP4 ADD MLOAD PUSH1 0xC0 DUP4 ADD MSTORE PUSH1 0xC0 DUP4 ADD MLOAD PUSH1 0xE0 DUP4 ADD MSTORE PUSH1 0xE0 DUP4 ADD MLOAD SWAP1 PUSH1 0x1F NOT DUP4 DUP3 SUB ADD PUSH2 0x100 DUP5 ADD MSTORE PUSH1 0x20 DUP1 DUP4 MLOAD SWAP3 DUP4 DUP2 MSTORE ADD SWAP3 ADD SWAP1 PUSH1 0x0 JUMPDEST DUP2 DUP2 LT PUSH2 0x74D JUMPI POP POP POP PUSH2 0xFFFF PUSH2 0x160 DUP5 PUSH6 0xFFFFFFFFFFFF PUSH2 0x100 DUP7 SWAP8 ADD MLOAD AND PUSH2 0x120 DUP7 ADD MSTORE PUSH1 0x1 DUP1 PUSH1 0xA0 SHL SUB PUSH2 0x120 DUP3 ADD MLOAD AND PUSH2 0x140 DUP7 ADD MSTORE PUSH1 0x1 DUP1 PUSH1 0xA0 SHL SUB PUSH2 0x140 DUP3 ADD MLOAD AND DUP3 DUP7 ADD MSTORE ADD MLOAD AND PUSH2 0x180 DUP4 ADD MSTORE SUB SWAP1 RETURN JUMPDEST DUP3 MLOAD PUSH2 0xFFFF AND DUP5 MSTORE PUSH1 0x20 SWAP4 DUP5 ADD SWAP4 SWAP1 SWAP3 ADD SWAP2 PUSH1 0x1 ADD PUSH2 0x6F4 JUMP JUMPDEST PUSH1 0xF0 SHR DUP2 MSTORE PUSH1 0x20 ADD DUP6 PUSH2 0x608 JUMP JUMPDEST SWAP3 PUSH1 0x20 PUSH1 0x1 SWAP2 PUSH2 0xFFFF DUP6 PUSH1 0xE0 SHR AND DUP2 MSTORE ADD SWAP4 ADD PUSH2 0x602 JUMP JUMPDEST SWAP3 PUSH1 0x20 PUSH1 0x1 SWAP2 PUSH2 0xFFFF DUP6 PUSH1 0xD0 SHR AND DUP2 MSTORE ADD SWAP4 ADD PUSH2 0x5FA JUMP JUMPDEST SWAP3 PUSH1 0x20 PUSH1 0x1 SWAP2 PUSH2 0xFFFF DUP6 PUSH1 0xC0 SHR AND DUP2 MSTORE ADD SWAP4 ADD PUSH2 0x5F2 JUMP JUMPDEST SWAP3 PUSH1 0x20 PUSH1 0x1 SWAP2 PUSH2 0xFFFF DUP6 PUSH1 0xB0 SHR AND DUP2 MSTORE ADD SWAP4 ADD PUSH2 0x5EA JUMP JUMPDEST SWAP3 PUSH1 0x20 PUSH1 0x1 SWAP2 PUSH2 0xFFFF DUP6 PUSH1 0xA0 SHR AND DUP2 MSTORE ADD SWAP4 ADD PUSH2 0x5E2 JUMP JUMPDEST SWAP3 PUSH1 0x20 PUSH1 0x1 SWAP2 PUSH2 0xFFFF DUP6 PUSH1 0x90 SHR AND DUP2 MSTORE ADD SWAP4 ADD PUSH2 0x5DA JUMP JUMPDEST SWAP3 PUSH1 0x20 PUSH1 0x1 SWAP2 PUSH2 0xFFFF DUP6 PUSH1 0x80 SHR AND DUP2 MSTORE ADD SWAP4 ADD PUSH2 0x5D2 JUMP JUMPDEST SWAP3 PUSH1 0x20 PUSH1 0x1 SWAP2 PUSH2 0xFFFF DUP6 PUSH1 0x70 SHR AND DUP2 MSTORE ADD SWAP4 ADD PUSH2 0x5CA JUMP JUMPDEST SWAP3 PUSH1 0x20 PUSH1 0x1 SWAP2 PUSH2 0xFFFF DUP6 PUSH1 0x60 SHR AND DUP2 MSTORE ADD SWAP4 ADD PUSH2 0x5C2 JUMP JUMPDEST SWAP3 PUSH1 0x20 PUSH1 0x1 SWAP2 PUSH2 0xFFFF DUP6 PUSH1 0x50 SHR AND DUP2 MSTORE ADD SWAP4 ADD PUSH2 0x5BA JUMP JUMPDEST SWAP3 PUSH1 0x20 PUSH1 0x1 SWAP2 PUSH2 0xFFFF DUP6 PUSH1 0x40 SHR AND DUP2 MSTORE ADD SWAP4 ADD PUSH2 0x5B2 JUMP JUMPDEST SWAP3 PUSH1 0x20 PUSH1 0x1 SWAP2 PUSH2 0xFFFF DUP6 PUSH1 0x30 SHR AND DUP2 MSTORE ADD SWAP4 ADD PUSH2 0x5AA JUMP JUMPDEST SWAP3 PUSH1 0x20 PUSH1 0x1 SWAP2 PUSH2 0xFFFF DUP6 DUP4 SHR AND DUP2 MSTORE ADD SWAP4 ADD PUSH2 0x5A2 JUMP JUMPDEST SWAP3 PUSH1 0x20 PUSH1 0x1 SWAP2 PUSH2 0xFFFF DUP6 PUSH1 0x10 SHR AND DUP2 MSTORE ADD SWAP4 ADD PUSH2 0x59A JUMP JUMPDEST SWAP3 PUSH1 0x20 PUSH1 0x1 SWAP2 PUSH2 0xFFFF DUP6 AND DUP2 MSTORE ADD SWAP4 ADD PUSH2 0x592 JUMP JUMPDEST SWAP2 PUSH1 0x10 SWAP2 SWAP4 POP PUSH2 0x200 PUSH1 0x1 SWAP2 DUP7 SLOAD PUSH2 0xFFFF DUP2 AND DUP3 MSTORE PUSH2 0xFFFF DUP2 DUP7 SHR AND PUSH1 0x20 DUP4 ADD MSTORE PUSH2 0xFFFF DUP2 PUSH1 0x20 SHR AND PUSH1 0x40 DUP4 ADD MSTORE PUSH2 0xFFFF DUP2 PUSH1 0x30 SHR AND PUSH1 0x60 DUP4 ADD MSTORE PUSH2 0xFFFF DUP2 PUSH1 0x40 SHR AND PUSH1 0x80 DUP4 ADD MSTORE PUSH2 0xFFFF DUP2 PUSH1 0x50 SHR AND PUSH1 0xA0 DUP4 ADD MSTORE PUSH2 0xFFFF DUP2 PUSH1 0x60 SHR AND PUSH1 0xC0 DUP4 ADD MSTORE PUSH2 0xFFFF DUP2 PUSH1 0x70 SHR AND PUSH1 0xE0 DUP4 ADD MSTORE PUSH2 0xFFFF DUP2 PUSH1 0x80 SHR AND PUSH2 0x100 DUP4 ADD MSTORE PUSH2 0xFFFF DUP2 PUSH1 0x90 SHR AND PUSH2 0x120 DUP4 ADD MSTORE PUSH2 0xFFFF DUP2 PUSH1 0xA0 SHR AND PUSH2 0x140 DUP4 ADD MSTORE PUSH2 0xFFFF DUP2 PUSH1 0xB0 SHR AND PUSH2 0x160 DUP4 ADD MSTORE PUSH2 0xFFFF DUP2 PUSH1 0xC0 SHR AND PUSH2 0x180 DUP4 ADD MSTORE PUSH2 0xFFFF DUP2 PUSH1 0xD0 SHR AND PUSH2 0x1A0 DUP4 ADD MSTORE PUSH2 0xFFFF DUP2 PUSH1 0xE0 SHR AND PUSH2 0x1C0 DUP4 ADD MSTORE PUSH1 0xF0 SHR PUSH2 0x1E0 DUP3 ADD MSTORE ADD SWAP5 ADD SWAP3 ADD DUP5 SWAP3 SWAP4 SWAP2 PUSH2 0x57A JUMP JUMPDEST POP SWAP1 PUSH1 0xA PUSH1 0x0 MSTORE PUSH32 0xC65A7BB8D6351C1CF70C95A316CC6A92839C986682D98BC35F958F4883F9D2A8 SWAP1 PUSH1 0x0 SWAP2 JUMPDEST DUP2 DUP4 LT PUSH2 0xA06 JUMPI POP POP SWAP1 PUSH1 0x20 PUSH2 0x51B SWAP3 DUP3 ADD ADD PUSH2 0x50F JUMP JUMPDEST PUSH1 0x20 SWAP2 SWAP4 POP DUP1 PUSH1 0x1 SWAP2 SLOAD DUP4 DUP6 DUP9 ADD ADD MSTORE ADD SWAP2 ADD SWAP1 SWAP2 DUP4 SWAP3 PUSH2 0x9EE JUMP JUMPDEST PUSH1 0x20 SWAP3 POP PUSH2 0x51B SWAP5 SWAP2 POP PUSH1 0xFF NOT AND DUP3 DUP5 ADD MSTORE ISZERO ISZERO PUSH1 0x5 SHL DUP3 ADD ADD PUSH2 0x50F JUMP JUMPDEST POP SWAP1 PUSH1 0x9 PUSH1 0x0 MSTORE PUSH32 0x6E1540171B6C0C960B71A7020D9F60077F6AF931A8BBF590DA0223DACF75C7AF SWAP1 PUSH1 0x0 SWAP2 JUMPDEST DUP2 DUP4 LT PUSH2 0xA86 JUMPI POP POP SWAP1 PUSH1 0x20 PUSH2 0x4E0 SWAP3 DUP3 ADD ADD PUSH2 0x4D4 JUMP JUMPDEST PUSH1 0x20 SWAP2 SWAP4 POP DUP1 PUSH1 0x1 SWAP2 SLOAD DUP4 DUP6 DUP9 ADD ADD MSTORE ADD SWAP2 ADD SWAP1 SWAP2 DUP4 SWAP3 PUSH2 0xA6E JUMP JUMPDEST PUSH1 0x20 SWAP3 POP PUSH2 0x4E0 SWAP5 SWAP2 POP PUSH1 0xFF NOT AND DUP3 DUP5 ADD MSTORE ISZERO ISZERO PUSH1 0x5 SHL DUP3 ADD ADD PUSH2 0x4D4 JUMP JUMPDEST POP SWAP1 PUSH1 0x8 PUSH1 0x0 MSTORE PUSH32 0xF3F7A9FE364FAAB93B216DA50A3214154F22A0A2B415B23A84C8169E8B636EE3 SWAP1 PUSH1 0x0 SWAP2 JUMPDEST DUP2 DUP4 LT PUSH2 0xB06 JUMPI POP POP SWAP1 PUSH1 0x20 PUSH2 0x4A8 SWAP3 DUP3 ADD ADD PUSH2 0x49C JUMP JUMPDEST PUSH1 0x20 SWAP2 SWAP4 POP DUP1 PUSH1 0x1 SWAP2 SLOAD DUP4 DUP6 DUP9 ADD ADD MSTORE ADD SWAP2 ADD SWAP1 SWAP2 DUP4 SWAP3 PUSH2 0xAEE JUMP JUMPDEST PUSH1 0x20 SWAP3 POP PUSH2 0x4A8 SWAP5 SWAP2 POP PUSH1 0xFF NOT AND DUP3 DUP5 ADD MSTORE ISZERO ISZERO PUSH1 0x5 SHL DUP3 ADD ADD PUSH2 0x49C JUMP JUMPDEST POP CALLVALUE PUSH2 0x2B3 JUMPI PUSH1 0x40 CALLDATASIZE PUSH1 0x3 NOT ADD SLT PUSH2 0x2B3 JUMPI PUSH2 0xB5B PUSH2 0x25A4 JUMP JUMPDEST CALLER PUSH1 0x0 SWAP1 DUP2 MSTORE PUSH32 0x4448119502453E295A09F7D4E8A6A0575D3624C233F99F59ABF0835BF259780A PUSH1 0x20 SWAP1 DUP2 MSTORE PUSH1 0x40 SWAP1 SWAP2 KECCAK256 SLOAD PUSH1 0x24 DUP1 CALLDATALOAD SWAP5 SWAP1 SWAP2 PUSH32 0xCAB5A0BFE0B79D2C4B1C2E02599FA044D115B7511F9659307CB4276950967709 SWAP1 PUSH1 0xFF AND ISZERO PUSH2 0x120D JUMPI POP PUSH2 0xBC7 PUSH2 0x2D92 JUMP JUMPDEST PUSH2 0xBCF PUSH2 0x2D6F JUMP JUMPDEST PUSH1 0xFF PUSH1 0x12 SLOAD AND PUSH2 0x11D6 JUMPI PUSH6 0xFFFFFFFFFFFF PUSH1 0x10 SLOAD AND TIMESTAMP GT PUSH2 0x119E JUMPI PUSH1 0x40 MLOAD PUSH4 0x6C85CF67 PUSH1 0xE0 SHL DUP2 MSTORE PUSH1 0x0 DUP3 DUP3 ADD MSTORE PUSH1 0x1 PUSH1 0x1 PUSH1 0xA0 SHL SUB DUP6 DUP2 AND DUP3 DUP6 ADD DUP2 SWAP1 MSTORE SWAP6 SWAP1 SWAP4 SWAP2 PUSH1 0x44 SWAP1 DUP7 DUP2 DUP4 DUP2 PUSH32 0x0 DUP11 AND GAS STATICCALL SWAP1 DUP2 ISZERO PUSH2 0xFEE JUMPI PUSH1 0x0 SWAP2 PUSH2 0x1181 JUMPI JUMPDEST POP ISZERO PUSH2 0x1140 JUMPI PUSH8 0xDE0B6B3A7640000 DUP1 DUP10 MUL SWAP1 DUP10 DUP3 DIV EQ DUP10 ISZERO OR ISZERO PUSH2 0x112C JUMPI PUSH1 0xC SLOAD PUSH2 0xC78 SWAP2 PUSH2 0x26EE JUMP JUMPDEST SWAP5 PUSH1 0xE SLOAD DUP7 LT PUSH2 0x10EA JUMPI PUSH2 0xC8E DUP7 PUSH1 0x2 SLOAD PUSH2 0x264B JUMP JUMPDEST PUSH1 0xD SLOAD LT PUSH2 0x10AF JUMPI PUSH2 0x2710 PUSH2 0xCAC PUSH2 0xFFFF PUSH1 0x11 SLOAD PUSH1 0xA0 SHR AND DUP12 PUSH2 0x26DB JUMP JUMPDEST DIV PUSH2 0xCB7 DUP2 DUP12 PUSH2 0x270E JUMP JUMPDEST PUSH1 0x40 DUP1 MLOAD PUSH4 0x23B872DD PUSH1 0xE0 SHL DUP2 MSTORE CALLER DUP10 DUP3 ADD SWAP1 DUP2 MSTORE ADDRESS PUSH1 0x20 DUP3 ADD MSTORE SWAP2 DUP3 ADD DUP14 SWAP1 MSTORE SWAP2 SWAP4 PUSH32 0x0 DUP2 AND SWAP4 SWAP1 SWAP3 SWAP1 SWAP2 DUP12 SWAP1 DUP3 SWAP1 DUP2 SWAP1 PUSH1 0x60 ADD SUB DUP2 PUSH1 0x0 DUP9 GAS CALL SWAP1 DUP2 ISZERO PUSH2 0xFEE JUMPI PUSH1 0x0 SWAP2 PUSH2 0x1092 JUMPI JUMPDEST POP ISZERO PUSH2 0x1059 JUMPI PUSH1 0x11 SLOAD PUSH1 0x40 DUP1 MLOAD PUSH4 0xA9059CBB PUSH1 0xE0 SHL DUP1 DUP3 MSTORE SWAP3 DUP6 AND PUSH1 0x1 PUSH1 0x1 PUSH1 0xA0 SHL SUB AND DUP12 DUP3 ADD SWAP1 DUP2 MSTORE PUSH1 0x20 DUP2 ADD SWAP5 SWAP1 SWAP5 MSTORE SWAP2 SWAP4 SWAP3 DUP13 SWAP2 DUP4 SWAP2 DUP3 SWAP2 ADD SUB DUP2 PUSH1 0x0 DUP9 GAS CALL SWAP1 DUP2 ISZERO PUSH2 0xFEE JUMPI PUSH1 0x0 SWAP2 PUSH2 0x103C JUMPI JUMPDEST POP ISZERO PUSH2 0xFFA JUMPI SWAP2 PUSH2 0xDB4 SWAP4 SWAP2 PUSH1 0x0 DUP12 SWAP5 PUSH1 0x10 SLOAD PUSH1 0x30 SHR AND SWAP2 PUSH1 0x40 MLOAD SWAP7 DUP8 SWAP6 DUP7 SWAP5 DUP6 SWAP4 DUP5 MSTORE DUP14 DUP5 ADD PUSH1 0x20 SWAP1 SWAP4 SWAP3 SWAP2 SWAP4 PUSH1 0x40 DUP2 ADD SWAP5 PUSH1 0x1 DUP1 PUSH1 0xA0 SHL SUB AND DUP2 MSTORE ADD MSTORE JUMP JUMPDEST SUB SWAP3 GAS CALL SWAP1 DUP2 ISZERO PUSH2 0xFEE JUMPI PUSH1 0x0 SWAP2 PUSH2 0xFC1 JUMPI JUMPDEST POP ISZERO PUSH2 0xF80 JUMPI POP PUSH2 0xDD7 SWAP1 PUSH2 0x29A6 JUMP JUMPDEST DUP5 ISZERO PUSH2 0xF6A JUMPI PUSH2 0xDE5 PUSH2 0x2D92 JUMP JUMPDEST PUSH2 0xDF1 DUP4 PUSH1 0x2 SLOAD PUSH2 0x264B JUMP JUMPDEST PUSH1 0x2 SSTORE DUP5 PUSH1 0x0 MSTORE PUSH1 0x0 DUP5 MSTORE PUSH1 0x40 PUSH1 0x0 KECCAK256 DUP4 DUP2 SLOAD ADD SWAP1 SSTORE DUP5 PUSH1 0x0 PUSH32 0xDDF252AD1BE2C89B69C2B068FC378DAA952BA7F163C4A11628F55A4DF523B3EF DUP7 PUSH1 0x40 MLOAD DUP8 DUP2 MSTORE LOG3 PUSH2 0xE3F DUP7 PUSH1 0x18 SLOAD PUSH2 0x264B JUMP JUMPDEST PUSH1 0x18 SSTORE DUP5 PUSH1 0x0 MSTORE PUSH1 0x15 DUP5 MSTORE PUSH1 0x40 PUSH1 0x0 KECCAK256 DUP1 SLOAD PUSH1 0xFF DUP2 AND ISZERO PUSH2 0xE8E JUMPI JUMPDEST DUP8 DUP8 PUSH32 0x8514357B17CCBDE354811F827B94585A7AB01B4034AA86A807B7CC2C100B7BE8 DUP9 DUP9 PUSH1 0x40 MLOAD SWAP1 DUP2 MSTORE LOG3 PUSH1 0x1 PUSH1 0x7 SSTORE STOP JUMPDEST PUSH1 0xFF NOT AND PUSH1 0x1 OR SWAP1 SSTORE PUSH1 0x16 SLOAD PUSH9 0x10000000000000000 DUP2 LT ISZERO PUSH2 0xF56 JUMPI PUSH1 0x1 DUP2 ADD DUP1 PUSH1 0x16 SSTORE DUP2 LT ISZERO PUSH2 0xF42 JUMPI PUSH1 0x16 PUSH1 0x0 MSTORE PUSH32 0xD833147D7DC355BA459FC788F669E58CFAF9DC25DDCD0702E87D69C7B5124289 ADD DUP1 SLOAD PUSH1 0x1 PUSH1 0x1 PUSH1 0xA0 SHL SUB NOT AND DUP7 OR SWAP1 SSTORE PUSH1 0x17 SLOAD SWAP2 PUSH1 0x0 NOT DUP4 EQ PUSH2 0xF2F JUMPI POP POP PUSH1 0x1 ADD PUSH1 0x17 SSTORE PUSH32 0x8514357B17CCBDE354811F827B94585A7AB01B4034AA86A807B7CC2C100B7BE8 CODESIZE DUP1 DUP1 PUSH2 0xE5B JUMP JUMPDEST PUSH1 0x11 SWAP1 PUSH4 0x4E487B71 PUSH1 0xE0 SHL PUSH1 0x0 MSTORE MSTORE PUSH1 0x0 REVERT JUMPDEST POP PUSH4 0x4E487B71 PUSH1 0xE0 SHL PUSH1 0x0 SWAP1 DUP2 MSTORE PUSH1 0x32 DUP4 MSTORE REVERT JUMPDEST POP PUSH4 0x4E487B71 PUSH1 0xE0 SHL PUSH1 0x0 SWAP1 DUP2 MSTORE PUSH1 0x41 DUP4 MSTORE REVERT JUMPDEST SWAP1 PUSH1 0x0 PUSH1 0x40 MLOAD SWAP2 PUSH4 0xEC442F05 PUSH1 0xE0 SHL DUP4 MSTORE DUP3 ADD MSTORE REVERT JUMPDEST DUP4 PUSH32 0x53543A2070726F6365656473207472616E73666572206661696C656400000000 PUSH1 0x64 SWAP3 PUSH1 0x1C DUP7 DUP11 PUSH1 0x40 MLOAD SWAP6 PUSH3 0x461BCD PUSH1 0xE5 SHL DUP8 MSTORE DUP7 ADD MSTORE DUP5 ADD MSTORE DUP3 ADD MSTORE REVERT JUMPDEST PUSH2 0xFE1 SWAP2 POP DUP8 RETURNDATASIZE DUP10 GT PUSH2 0xFE7 JUMPI JUMPDEST PUSH2 0xFD9 DUP2 DUP4 PUSH2 0x2542 JUMP JUMPDEST DUP2 ADD SWAP1 PUSH2 0x2633 JUMP JUMPDEST CODESIZE PUSH2 0xDC7 JUMP JUMPDEST POP RETURNDATASIZE PUSH2 0xFCF JUMP JUMPDEST PUSH1 0x40 MLOAD RETURNDATASIZE PUSH1 0x0 DUP3 RETURNDATACOPY RETURNDATASIZE SWAP1 REVERT JUMPDEST PUSH1 0x40 MLOAD PUSH3 0x461BCD PUSH1 0xE5 SHL DUP2 MSTORE DUP1 DUP10 ADD DUP12 SWAP1 MSTORE PUSH1 0x17 DUP2 DUP10 ADD MSTORE PUSH32 0x53543A20666565207472616E73666572206661696C6564000000000000000000 DUP2 DUP8 ADD MSTORE PUSH1 0x64 SWAP1 REVERT JUMPDEST PUSH2 0x1053 SWAP2 POP DUP12 RETURNDATASIZE DUP14 GT PUSH2 0xFE7 JUMPI PUSH2 0xFD9 DUP2 DUP4 PUSH2 0x2542 JUMP JUMPDEST CODESIZE PUSH2 0xD73 JUMP JUMPDEST PUSH1 0x40 MLOAD PUSH3 0x461BCD PUSH1 0xE5 SHL DUP2 MSTORE DUP1 DUP10 ADD DUP12 SWAP1 MSTORE PUSH1 0x14 DUP2 DUP10 ADD MSTORE PUSH20 0x14D50E881554D110C81C1D5B1B0819985A5B1959 PUSH1 0x62 SHL DUP2 DUP8 ADD MSTORE PUSH1 0x64 SWAP1 REVERT JUMPDEST PUSH2 0x10A9 SWAP2 POP DUP12 RETURNDATASIZE DUP14 GT PUSH2 0xFE7 JUMPI PUSH2 0xFD9 DUP2 DUP4 PUSH2 0x2542 JUMP JUMPDEST CODESIZE PUSH2 0xD21 JUMP JUMPDEST PUSH1 0x40 MLOAD PUSH3 0x461BCD PUSH1 0xE5 SHL DUP2 MSTORE DUP1 DUP7 ADD DUP9 SWAP1 MSTORE PUSH1 0x16 DUP2 DUP7 ADD MSTORE PUSH22 0x53543A2065786365656473206D617820737570706C79 PUSH1 0x50 SHL DUP2 DUP5 ADD MSTORE PUSH1 0x64 SWAP1 REVERT JUMPDEST PUSH1 0x40 MLOAD PUSH3 0x461BCD PUSH1 0xE5 SHL DUP2 MSTORE DUP1 DUP7 ADD DUP9 SWAP1 MSTORE PUSH1 0x1C DUP2 DUP7 ADD MSTORE PUSH32 0x53543A2062656C6F77206D696E696D756D20696E766573746D656E7400000000 DUP2 DUP5 ADD MSTORE PUSH1 0x64 SWAP1 REVERT JUMPDEST DUP4 PUSH1 0x11 DUP7 PUSH4 0x4E487B71 PUSH1 0xE0 SHL PUSH1 0x0 MSTORE MSTORE PUSH1 0x0 REVERT JUMPDEST DUP4 PUSH32 0x53543A20696E766573746F72206E6F7420766572696669656400000000000000 PUSH1 0x64 SWAP3 PUSH1 0x19 DUP7 DUP11 PUSH1 0x40 MLOAD SWAP6 PUSH3 0x461BCD PUSH1 0xE5 SHL DUP8 MSTORE DUP7 ADD MSTORE DUP5 ADD MSTORE DUP3 ADD MSTORE REVERT JUMPDEST PUSH2 0x1198 SWAP2 POP DUP8 RETURNDATASIZE DUP10 GT PUSH2 0xFE7 JUMPI PUSH2 0xFD9 DUP2 DUP4 PUSH2 0x2542 JUMP JUMPDEST CODESIZE PUSH2 0xC4D JUMP JUMPDEST PUSH1 0x14 PUSH1 0x64 SWAP3 DUP5 PUSH1 0x40 MLOAD SWAP4 PUSH3 0x461BCD PUSH1 0xE5 SHL DUP6 MSTORE DUP5 ADD MSTORE DUP3 ADD MSTORE PUSH20 0x14D50E881BD999995C9A5B99C8195E1C1A5C9959 PUSH1 0x62 SHL PUSH1 0x44 DUP3 ADD MSTORE REVERT JUMPDEST PUSH1 0x13 PUSH1 0x64 SWAP3 DUP5 PUSH1 0x40 MLOAD SWAP4 PUSH3 0x461BCD PUSH1 0xE5 SHL DUP6 MSTORE DUP5 ADD MSTORE DUP3 ADD MSTORE PUSH19 0x14D50E881BD999995C9A5B99C818DB1BDCD959 PUSH1 0x6A SHL PUSH1 0x44 DUP3 ADD MSTORE REVERT JUMPDEST PUSH1 0x44 SWAP3 PUSH1 0x40 MLOAD SWAP3 PUSH4 0xE2517D3F PUSH1 0xE0 SHL DUP5 MSTORE CALLER SWAP1 DUP5 ADD MSTORE DUP3 ADD MSTORE REVERT JUMPDEST POP CALLVALUE PUSH2 0x2B3 JUMPI PUSH1 0x0 CALLDATASIZE PUSH1 0x3 NOT ADD SLT PUSH2 0x2B3 JUMPI PUSH2 0x1242 PUSH2 0x2924 JUMP JUMPDEST PUSH1 0x12 SLOAD SWAP1 PUSH1 0xFF DUP3 AND PUSH2 0x128F JUMPI PUSH1 0x1 DUP3 PUSH1 0xFF NOT AND OR PUSH1 0x12 SSTORE PUSH32 0xC566557CE4CB9AE8E7B1EBB1215C266FB3EF7B87E5A726107E9188FD256423FB PUSH1 0x40 PUSH1 0x18 SLOAD PUSH1 0x2 SLOAD DUP3 MLOAD SWAP2 DUP3 MSTORE PUSH1 0x20 DUP3 ADD MSTORE LOG1 STOP JUMPDEST PUSH1 0x64 SWAP1 PUSH1 0x20 PUSH1 0x40 MLOAD SWAP2 PUSH3 0x461BCD PUSH1 0xE5 SHL DUP4 MSTORE DUP3 ADD MSTORE PUSH1 0x12 PUSH1 0x24 DUP3 ADD MSTORE PUSH18 0x14D50E88185B1C9958591E4818DB1BDCD959 PUSH1 0x72 SHL PUSH1 0x44 DUP3 ADD MSTORE REVERT JUMPDEST CALLVALUE PUSH2 0x2B3 JUMPI PUSH1 0x40 CALLDATASIZE PUSH1 0x3 NOT ADD SLT PUSH2 0x2B3 JUMPI PUSH2 0x12EE PUSH2 0x12E4 PUSH2 0x25A4 JUMP JUMPDEST PUSH1 0x24 CALLDATALOAD SWAP1 CALLER PUSH2 0x2A3E JUMP JUMPDEST PUSH1 0x20 PUSH1 0x40 MLOAD PUSH1 0x1 DUP2 MSTORE RETURN JUMPDEST CALLVALUE PUSH2 0x2B3 JUMPI PUSH1 0x40 CALLDATASIZE PUSH1 0x3 NOT ADD SLT PUSH2 0x2B3 JUMPI PUSH2 0x1312 PUSH2 0x25A4 JUMP JUMPDEST PUSH32 0xA065E63C631C86F1B9F66A4A2F63F2093BF1C2168D23290259DBD969E0222A45 PUSH1 0x20 PUSH1 0x24 CALLDATALOAD SWAP3 PUSH2 0x1341 PUSH2 0x28AA JUMP JUMPDEST PUSH1 0x1 DUP1 PUSH1 0xA0 SHL SUB AND SWAP3 DUP4 PUSH1 0x0 MSTORE PUSH1 0x0 DUP3 MSTORE PUSH2 0x1375 PUSH1 0x40 PUSH1 0x0 KECCAK256 SLOAD PUSH1 0x14 DUP5 MSTORE PUSH2 0x136E DUP4 PUSH1 0x40 PUSH1 0x0 KECCAK256 SLOAD PUSH2 0x264B JUMP JUMPDEST GT ISZERO PUSH2 0x266E JUMP JUMPDEST DUP4 PUSH1 0x0 MSTORE PUSH1 0x14 DUP3 MSTORE PUSH1 0x40 PUSH1 0x0 KECCAK256 PUSH2 0x264 DUP3 DUP3 SLOAD PUSH2 0x264B JUMP JUMPDEST CALLVALUE PUSH2 0x2B3 JUMPI PUSH1 0x0 CALLDATASIZE PUSH1 0x3 NOT ADD SLT PUSH2 0x2B3 JUMPI PUSH1 0x20 PUSH1 0x40 MLOAD PUSH1 0x0 DUP2 MSTORE RETURN JUMPDEST CALLVALUE PUSH2 0x2B3 JUMPI PUSH1 0x20 CALLDATASIZE PUSH1 0x3 NOT ADD SLT PUSH2 0x2B3 JUMPI PUSH1 0x20 PUSH2 0x141E PUSH2 0x13C7 PUSH2 0x25A4 JUMP JUMPDEST PUSH8 0xDE0B6B3A7640000 PUSH2 0x140A PUSH2 0x13F7 PUSH1 0x19 SLOAD SWAP4 PUSH1 0x1 DUP1 PUSH1 0xA0 SHL SUB AND SWAP4 DUP5 PUSH1 0x0 MSTORE PUSH1 0x1A DUP8 MSTORE PUSH1 0x40 PUSH1 0x0 KECCAK256 SLOAD SWAP1 PUSH2 0x270E JUMP JUMPDEST DUP4 PUSH1 0x0 MSTORE PUSH1 0x0 DUP7 MSTORE PUSH1 0x40 PUSH1 0x0 KECCAK256 SLOAD PUSH2 0x26DB JUMP JUMPDEST DIV SWAP1 PUSH1 0x0 MSTORE PUSH1 0x1B DUP4 MSTORE PUSH1 0x40 PUSH1 0x0 KECCAK256 SLOAD PUSH2 0x264B JUMP JUMPDEST PUSH1 0x40 MLOAD SWAP1 DUP2 MSTORE RETURN JUMPDEST POP CALLVALUE PUSH2 0x2B3 JUMPI PUSH1 0x0 CALLDATASIZE PUSH1 0x3 NOT ADD SLT PUSH2 0x2B3 JUMPI PUSH1 0x40 MLOAD SWAP1 PUSH1 0x0 DUP3 DUP3 SLOAD SWAP2 PUSH2 0x144B DUP4 PUSH2 0x24B9 JUMP JUMPDEST SWAP3 DUP4 DUP4 MSTORE PUSH1 0x20 SWAP5 PUSH1 0x1 SWAP2 DUP7 PUSH1 0x1 DUP3 AND SWAP2 DUP3 PUSH1 0x0 EQ PUSH2 0x14EB JUMPI POP POP PUSH1 0x1 EQ PUSH2 0x148F JUMPI JUMPDEST POP POP PUSH2 0x147B SWAP3 POP SUB DUP4 PUSH2 0x2542 JUMP JUMPDEST PUSH2 0x32A PUSH1 0x40 MLOAD SWAP3 DUP3 DUP5 SWAP4 DUP5 MSTORE DUP4 ADD SWAP1 PUSH2 0x2564 JUMP JUMPDEST DUP6 SWAP3 POP PUSH1 0x0 MSTORE PUSH32 0x8A35ACFBC15FF81A39AE7D344FD709F28E8600B4AA8C65C6B64BFE7FE36BD19B SWAP1 PUSH1 0x0 SWAP2 JUMPDEST DUP6 DUP4 LT PUSH2 0x14D3 JUMPI POP POP PUSH2 0x147B SWAP4 POP DUP3 ADD ADD CODESIZE DUP1 PUSH2 0x146D JUMP JUMPDEST DUP1 SLOAD DUP4 DUP10 ADD DUP6 ADD MSTORE DUP8 SWAP5 POP DUP7 SWAP4 SWAP1 SWAP3 ADD SWAP2 DUP2 ADD PUSH2 0x14BB JUMP JUMPDEST SWAP3 POP SWAP4 POP POP PUSH2 0x147B SWAP5 SWAP2 POP PUSH1 0xFF NOT AND DUP3 DUP5 ADD MSTORE ISZERO ISZERO PUSH1 0x5 SHL DUP3 ADD ADD CODESIZE DUP1 PUSH2 0x146D JUMP JUMPDEST POP CALLVALUE PUSH2 0x2B3 JUMPI PUSH1 0x40 CALLDATASIZE PUSH1 0x3 NOT ADD SLT PUSH2 0x2B3 JUMPI PUSH2 0x1527 PUSH2 0x25BA JUMP JUMPDEST SWAP1 CALLDATALOAD PUSH1 0x0 MSTORE PUSH1 0x6 PUSH1 0x20 MSTORE PUSH1 0x40 PUSH1 0x0 KECCAK256 SWAP1 PUSH1 0x1 DUP1 PUSH1 0xA0 SHL SUB AND PUSH1 0x0 MSTORE PUSH1 0x20 MSTORE PUSH1 0x20 PUSH1 0xFF PUSH1 0x40 PUSH1 0x0 KECCAK256 SLOAD AND PUSH1 0x40 MLOAD SWAP1 ISZERO ISZERO DUP2 MSTORE RETURN JUMPDEST POP CALLVALUE PUSH2 0x2B3 JUMPI PUSH1 0x0 CALLDATASIZE PUSH1 0x3 NOT ADD SLT PUSH2 0x2B3 JUMPI PUSH2 0x1574 PUSH2 0x2D6F JUMP JUMPDEST PUSH2 0x157C PUSH2 0x2D92 JUMP JUMPDEST PUSH2 0x1585 CALLER PUSH2 0x29A6 JUMP JUMPDEST CALLER PUSH1 0x0 MSTORE PUSH1 0x20 SWAP1 PUSH1 0x1B DUP3 MSTORE PUSH1 0x40 PUSH1 0x0 KECCAK256 SLOAD DUP1 ISZERO PUSH2 0x167B JUMPI CALLER PUSH1 0x0 DUP2 DUP2 MSTORE PUSH1 0x1B DUP6 MSTORE PUSH1 0x40 DUP1 DUP3 KECCAK256 SWAP2 SWAP1 SWAP2 SSTORE DUP1 MLOAD PUSH4 0xA9059CBB PUSH1 0xE0 SHL DUP2 MSTORE DUP5 DUP2 ADD SWAP3 DUP4 MSTORE PUSH1 0x20 DUP4 ADD SWAP4 SWAP1 SWAP4 MSTORE DUP5 SWAP2 DUP4 SWAP2 DUP3 SWAP2 ADD SUB DUP2 PUSH1 0x0 PUSH32 0x0 PUSH1 0x1 PUSH1 0x1 PUSH1 0xA0 SHL SUB AND GAS CALL SWAP1 DUP2 ISZERO PUSH2 0xFEE JUMPI PUSH1 0x0 SWAP2 PUSH2 0x165E JUMPI JUMPDEST POP ISZERO PUSH2 0x161C JUMPI PUSH1 0x1 PUSH1 0x7 SSTORE STOP JUMPDEST PUSH1 0x64 SWAP2 PUSH1 0x40 MLOAD SWAP2 PUSH3 0x461BCD PUSH1 0xE5 SHL DUP4 MSTORE DUP3 ADD MSTORE PUSH1 0x19 PUSH1 0x24 DUP3 ADD MSTORE PUSH32 0x53543A20636C61696D207472616E73666572206661696C656400000000000000 PUSH1 0x44 DUP3 ADD MSTORE REVERT JUMPDEST PUSH2 0x1675 SWAP2 POP DUP4 RETURNDATASIZE DUP6 GT PUSH2 0xFE7 JUMPI PUSH2 0xFD9 DUP2 DUP4 PUSH2 0x2542 JUMP JUMPDEST CODESIZE PUSH2 0x160F JUMP JUMPDEST POP PUSH1 0x64 SWAP2 PUSH1 0x40 MLOAD SWAP2 PUSH3 0x461BCD PUSH1 0xE5 SHL DUP4 MSTORE DUP3 ADD MSTORE PUSH1 0x14 PUSH1 0x24 DUP3 ADD MSTORE PUSH20 0x53543A206E6F7468696E6720746F20636C61696D PUSH1 0x60 SHL PUSH1 0x44 DUP3 ADD MSTORE REVERT JUMPDEST CALLVALUE PUSH2 0x2B3 JUMPI PUSH1 0x0 CALLDATASIZE PUSH1 0x3 NOT ADD SLT PUSH2 0x2B3 JUMPI PUSH1 0x20 PUSH1 0x40 MLOAD PUSH32 0x114E74F6EA3BD819998F78687BFCB11B140DA08E9B7D222FA9C1F1BA1F2AA122 DUP2 MSTORE RETURN JUMPDEST CALLVALUE PUSH2 0x2B3 JUMPI PUSH1 0x20 CALLDATASIZE PUSH1 0x3 NOT ADD SLT PUSH2 0x2B3 JUMPI PUSH1 0x1 PUSH1 0x1 PUSH1 0xA0 SHL SUB PUSH2 0x1711 PUSH2 0x25A4 JUMP JUMPDEST AND PUSH1 0x0 MSTORE PUSH1 0x0 PUSH1 0x20 MSTORE PUSH1 0x20 PUSH1 0x40 PUSH1 0x0 KECCAK256 SLOAD PUSH1 0x40 MLOAD SWAP1 DUP2 MSTORE RETURN JUMPDEST POP CALLVALUE PUSH2 0x2B3 JUMPI PUSH1 0x20 SWAP1 DUP2 PUSH1 0x3 NOT CALLDATASIZE ADD SLT PUSH2 0x2B3 JUMPI PUSH8 0xFFFFFFFFFFFFFFFF SWAP2 DUP2 CALLDATALOAD DUP4 DUP2 GT PUSH2 0x2B3 JUMPI PUSH2 0x175E SWAP1 CALLDATASIZE SWAP1 DUP5 ADD PUSH2 0x2605 JUMP JUMPDEST SWAP3 SWAP1 SWAP4 PUSH2 0x1769 PUSH2 0x28AA JUMP JUMPDEST DUP4 GT PUSH2 0x191D JUMPI POP PUSH2 0x177B PUSH1 0x13 SLOAD PUSH2 0x24B9 JUMP JUMPDEST PUSH1 0x1F DUP2 GT PUSH2 0x18CB JUMPI JUMPDEST POP PUSH1 0x0 PUSH1 0x1F DUP4 GT PUSH1 0x1 EQ PUSH2 0x1835 JUMPI PUSH32 0x5AE146D76690E2B2FBD484F0AF43653EB5FB3983DF5B239A0A30422D030A7FA7 SWAP4 DUP4 PUSH2 0x1825 SWAP3 PUSH1 0x0 SWAP2 PUSH2 0x182A JUMPI JUMPDEST POP DUP5 PUSH1 0x1 SHL SWAP1 PUSH1 0x0 NOT DUP7 PUSH1 0x3 SHL SHR NOT AND OR PUSH1 0x13 SSTORE JUMPDEST PUSH2 0x17DE PUSH2 0x2D92 JUMP JUMPDEST PUSH1 0x1 PUSH1 0xFF NOT PUSH1 0x5 SLOAD AND OR PUSH1 0x5 SSTORE PUSH32 0x62E78CEA01BEE320CD4E420270B5EA74000D11B0C9F74754EBDBFC544B05A258 DUP4 PUSH1 0x40 MLOAD CALLER DUP2 MSTORE LOG1 PUSH1 0x40 MLOAD SWAP4 DUP4 DUP6 SWAP5 DUP6 MSTORE DUP5 ADD SWAP2 PUSH2 0x26BA JUMP JUMPDEST SUB SWAP1 LOG1 STOP JUMPDEST SWAP1 POP DUP2 ADD CALLDATALOAD CODESIZE PUSH2 0x17C1 JUMP JUMPDEST PUSH1 0x1F NOT DUP4 AND SWAP1 PUSH1 0x13 PUSH1 0x0 MSTORE PUSH1 0x0 DUP1 MLOAD PUSH1 0x20 PUSH2 0x2DB1 DUP4 CODECOPY DUP2 MLOAD SWAP2 MSTORE SWAP2 PUSH1 0x0 JUMPDEST DUP2 DUP2 LT PUSH2 0x18B4 JUMPI POP SWAP2 PUSH32 0x5AE146D76690E2B2FBD484F0AF43653EB5FB3983DF5B239A0A30422D030A7FA7 SWAP6 SWAP2 DUP6 PUSH2 0x1825 SWAP5 LT PUSH2 0x189A JUMPI JUMPDEST POP POP PUSH1 0x1 DUP5 DUP2 SHL ADD PUSH1 0x13 SSTORE PUSH2 0x17D6 JUMP JUMPDEST DUP3 ADD CALLDATALOAD PUSH1 0x0 NOT PUSH1 0x3 DUP8 SWAP1 SHL PUSH1 0xF8 AND SHR NOT AND SWAP1 SSTORE CODESIZE DUP1 PUSH2 0x188A JUMP JUMPDEST SWAP2 SWAP3 DUP5 PUSH1 0x1 DUP2 SWAP3 DUP7 DUP11 ADD CALLDATALOAD DUP2 SSTORE ADD SWAP5 ADD SWAP3 ADD PUSH2 0x1853 JUMP JUMPDEST PUSH1 0x13 PUSH1 0x0 MSTORE PUSH1 0x0 DUP1 MLOAD PUSH1 0x20 PUSH2 0x2DB1 DUP4 CODECOPY DUP2 MLOAD SWAP2 MSTORE PUSH1 0x1F DUP5 ADD PUSH1 0x5 SHR DUP2 ADD SWAP2 DUP4 DUP6 LT PUSH2 0x1913 JUMPI JUMPDEST PUSH1 0x1F ADD PUSH1 0x5 SHR ADD SWAP1 JUMPDEST DUP2 DUP2 LT PUSH2 0x1907 JUMPI POP PUSH2 0x1784 JUMP JUMPDEST PUSH1 0x0 DUP2 SSTORE PUSH1 0x1 ADD PUSH2 0x18FA JUMP JUMPDEST SWAP1 SWAP2 POP DUP2 SWAP1 PUSH2 0x18F1 JUMP JUMPDEST PUSH1 0x41 SWAP1 PUSH4 0x4E487B71 PUSH1 0xE0 SHL PUSH1 0x0 MSTORE MSTORE PUSH1 0x24 PUSH1 0x0 REVERT JUMPDEST CALLVALUE PUSH2 0x2B3 JUMPI PUSH1 0x0 CALLDATASIZE PUSH1 0x3 NOT ADD SLT PUSH2 0x2B3 JUMPI PUSH1 0x20 PUSH1 0xFF PUSH1 0x5 SLOAD AND PUSH1 0x40 MLOAD SWAP1 ISZERO ISZERO DUP2 MSTORE RETURN JUMPDEST CALLVALUE PUSH2 0x2B3 JUMPI PUSH1 0x0 CALLDATASIZE PUSH1 0x3 NOT ADD SLT PUSH2 0x2B3 JUMPI PUSH1 0x20 PUSH1 0xFF PUSH1 0x12 SLOAD AND PUSH1 0x40 MLOAD SWAP1 ISZERO ISZERO DUP2 MSTORE RETURN JUMPDEST POP CALLVALUE PUSH2 0x2B3 JUMPI PUSH1 0x20 DUP1 PUSH1 0x3 NOT CALLDATASIZE ADD SLT PUSH2 0x2B3 JUMPI DUP2 CALLDATALOAD SWAP2 PUSH2 0x1996 PUSH2 0x2924 JUMP JUMPDEST PUSH2 0x199E PUSH2 0x2D6F JUMP JUMPDEST PUSH1 0x2 SLOAD ISZERO PUSH2 0x1B52 JUMPI DUP3 ISZERO PUSH2 0x1B18 JUMPI PUSH1 0x40 DUP1 MLOAD PUSH4 0x23B872DD PUSH1 0xE0 SHL DUP2 MSTORE CALLER DUP4 DUP3 ADD SWAP1 DUP2 MSTORE ADDRESS PUSH1 0x20 DUP3 ADD MSTORE SWAP2 DUP3 ADD DUP6 SWAP1 MSTORE SWAP1 DUP4 SWAP1 DUP3 SWAP1 DUP2 SWAP1 PUSH1 0x60 ADD SUB DUP2 PUSH1 0x0 PUSH32 0x0 PUSH1 0x1 PUSH1 0x1 PUSH1 0xA0 SHL SUB AND GAS CALL SWAP1 DUP2 ISZERO PUSH2 0xFEE JUMPI PUSH1 0x0 SWAP2 PUSH2 0x1AFB JUMPI JUMPDEST POP ISZERO PUSH2 0x1AB9 JUMPI PUSH8 0xDE0B6B3A7640000 DUP4 MUL SWAP1 PUSH8 0xDE0B6B3A763FFFF NOT DUP5 DUP4 DIV ADD PUSH2 0x1AA4 JUMPI PUSH32 0x34FED24CEBFF9F2F4A855B41130E3120797D67A70A0695599980F6E832157605 PUSH1 0x60 DUP6 DUP6 PUSH2 0x1A84 DUP7 PUSH1 0x2 SLOAD SWAP1 PUSH2 0x1A7C PUSH2 0x1A74 DUP4 DUP4 PUSH2 0x26EE JUMP JUMPDEST PUSH1 0x19 SLOAD PUSH2 0x264B JUMP JUMPDEST PUSH1 0x19 SSTORE PUSH2 0x26EE JUMP JUMPDEST SWAP1 PUSH1 0x40 MLOAD SWAP3 DUP4 MSTORE DUP3 ADD MSTORE PUSH6 0xFFFFFFFFFFFF TIMESTAMP AND PUSH1 0x40 DUP3 ADD MSTORE LOG1 PUSH1 0x1 PUSH1 0x7 SSTORE STOP JUMPDEST PUSH1 0x11 SWAP1 PUSH4 0x4E487B71 PUSH1 0xE0 SHL PUSH1 0x0 MSTORE MSTORE PUSH1 0x24 PUSH1 0x0 REVERT JUMPDEST PUSH1 0x64 SWAP2 PUSH1 0x40 MLOAD SWAP2 PUSH3 0x461BCD PUSH1 0xE5 SHL DUP4 MSTORE DUP3 ADD MSTORE PUSH1 0x18 PUSH1 0x24 DUP3 ADD MSTORE PUSH32 0x53543A2055534443207472616E73666572206661696C65640000000000000000 PUSH1 0x44 DUP3 ADD MSTORE REVERT JUMPDEST PUSH2 0x1B12 SWAP2 POP DUP4 RETURNDATASIZE DUP6 GT PUSH2 0xFE7 JUMPI PUSH2 0xFD9 DUP2 DUP4 PUSH2 0x2542 JUMP JUMPDEST CODESIZE PUSH2 0x1A16 JUMP JUMPDEST PUSH1 0x64 SWAP2 PUSH1 0x40 MLOAD SWAP2 PUSH3 0x461BCD PUSH1 0xE5 SHL DUP4 MSTORE DUP3 ADD MSTORE PUSH1 0x15 PUSH1 0x24 DUP3 ADD MSTORE PUSH21 0x29AA1D103D32B937903234B9BA3934B13ABA34B7B7 PUSH1 0x59 SHL PUSH1 0x44 DUP3 ADD MSTORE REVERT JUMPDEST PUSH1 0x64 SWAP2 PUSH1 0x40 MLOAD SWAP2 PUSH3 0x461BCD PUSH1 0xE5 SHL DUP4 MSTORE DUP3 ADD MSTORE PUSH1 0x19 PUSH1 0x24 DUP3 ADD MSTORE PUSH32 0x53543A206E6F20746F6B656E73206F75747374616E64696E6700000000000000 PUSH1 0x44 DUP3 ADD MSTORE REVERT JUMPDEST POP CALLVALUE PUSH2 0x2B3 JUMPI PUSH1 0x0 CALLDATASIZE PUSH1 0x3 NOT ADD SLT PUSH2 0x2B3 JUMPI CALLER PUSH1 0x0 SWAP1 DUP2 MSTORE PUSH32 0x54CDD369E4E8A8515E52CA72EC816C2101831AD1F18BF44102ED171459C9B4F8 PUSH1 0x20 MSTORE PUSH1 0x40 SWAP1 KECCAK256 SLOAD PUSH1 0xFF AND ISZERO PUSH2 0x1CA4 JUMPI PUSH2 0x1BE8 PUSH1 0x13 SLOAD PUSH2 0x24B9 JUMP JUMPDEST PUSH1 0x1F DUP2 GT PUSH2 0x1C6C JUMPI JUMPDEST POP PUSH1 0x0 PUSH1 0x13 SSTORE PUSH1 0x5 SLOAD SWAP1 PUSH1 0xFF DUP3 AND ISZERO PUSH2 0x1C5D JUMPI POP PUSH1 0xFF NOT AND PUSH1 0x5 SSTORE PUSH32 0x5DB9EE0A495BF2E6FF9C91A7834C1BA4FDD244A5E8AA4E537BD38AEAE4B073AA PUSH1 0x20 PUSH1 0x40 MLOAD CALLER DUP2 MSTORE LOG1 PUSH32 0x3CD348FF56B5E60FFB00B5CC262C0DFF28E4741CDF0375413CD4AB8FE440E6AA PUSH1 0x0 DUP1 LOG1 STOP JUMPDEST PUSH1 0x40 MLOAD PUSH4 0x8DFC202B PUSH1 0xE0 SHL DUP2 MSTORE REVERT JUMPDEST PUSH1 0x13 PUSH1 0x0 MSTORE PUSH1 0x1F PUSH1 0x0 DUP1 MLOAD PUSH1 0x20 PUSH2 0x2DB1 DUP4 CODECOPY DUP2 MLOAD SWAP2 MSTORE SWAP2 ADD PUSH1 0x5 SHR DUP2 ADD SWAP1 JUMPDEST DUP2 DUP2 LT PUSH2 0x1C98 JUMPI POP PUSH2 0x1BF1 JUMP JUMPDEST PUSH1 0x0 DUP2 SSTORE PUSH1 0x1 ADD PUSH2 0x1C8B JUMP JUMPDEST PUSH1 0x44 SWAP1 PUSH1 0x40 MLOAD SWAP1 PUSH4 0xE2517D3F PUSH1 0xE0 SHL DUP3 MSTORE CALLER SWAP1 DUP3 ADD MSTORE PUSH1 0x0 PUSH1 0x24 DUP3 ADD MSTORE REVERT JUMPDEST CALLVALUE PUSH2 0x2B3 JUMPI PUSH1 0x0 CALLDATASIZE PUSH1 0x3 NOT ADD SLT PUSH2 0x2B3 JUMPI PUSH1 0x40 MLOAD PUSH32 0x0 PUSH1 0x1 PUSH1 0x1 PUSH1 0xA0 SHL SUB AND DUP2 MSTORE PUSH1 0x20 SWAP1 RETURN JUMPDEST POP CALLVALUE PUSH2 0x2B3 JUMPI PUSH1 0x80 CALLDATASIZE PUSH1 0x3 NOT ADD SLT PUSH2 0x2B3 JUMPI PUSH2 0x1D22 PUSH2 0x25A4 JUMP JUMPDEST PUSH2 0x1D2A PUSH2 0x25BA JUMP JUMPDEST PUSH1 0x64 CALLDATALOAD SWAP3 SWAP1 PUSH1 0x44 CALLDATALOAD PUSH8 0xFFFFFFFFFFFFFFFF DUP6 GT PUSH2 0x2B3 JUMPI PUSH2 0x1D72 PUSH32 0xBB53097141337C38A36FED7FAE913304CD0C540E1200DBB4C8C1CEE707F9F2C2 SWAP4 PUSH2 0x1DD8 SWAP7 CALLDATASIZE SWAP2 ADD PUSH2 0x2605 JUMP JUMPDEST SWAP6 SWAP1 PUSH2 0x1D7C PUSH2 0x28AA JUMP JUMPDEST PUSH1 0x1 DUP1 PUSH1 0xA0 SHL SUB PUSH2 0x1DBD DUP5 DUP7 DUP4 DUP11 AND SWAP10 DUP11 PUSH1 0x0 MSTORE PUSH1 0x0 PUSH1 0x20 MSTORE PUSH2 0x1DA6 DUP4 PUSH1 0x40 PUSH1 0x0 KECCAK256 SLOAD LT ISZERO PUSH2 0x266E JUMP JUMPDEST PUSH2 0x1DAF DUP2 PUSH2 0x29A6 JUMP JUMPDEST PUSH2 0x1DB8 DUP3 PUSH2 0x29A6 JUMP JUMPDEST PUSH2 0x2A3E JUMP JUMPDEST PUSH1 0x40 MLOAD SWAP5 DUP6 SWAP5 DUP6 MSTORE PUSH1 0x40 PUSH1 0x20 DUP7 ADD MSTORE AND SWAP7 PUSH1 0x40 DUP5 ADD SWAP2 PUSH2 0x26BA JUMP JUMPDEST SUB SWAP1 LOG3 STOP JUMPDEST POP CALLVALUE PUSH2 0x2B3 JUMPI PUSH1 0x40 CALLDATASIZE PUSH1 0x3 NOT ADD SLT PUSH2 0x2B3 JUMPI PUSH2 0x1DF7 PUSH2 0x25BA JUMP JUMPDEST CALLER PUSH1 0x1 PUSH1 0x1 PUSH1 0xA0 SHL SUB DUP3 AND SUB PUSH2 0x1E11 JUMPI PUSH2 0x3DC SWAP2 CALLDATALOAD PUSH2 0x2CF8 JUMP JUMPDEST POP PUSH1 0x40 MLOAD PUSH4 0x334BD919 PUSH1 0xE1 SHL DUP2 MSTORE REVERT JUMPDEST CALLVALUE PUSH2 0x2B3 JUMPI PUSH1 0x0 CALLDATASIZE PUSH1 0x3 NOT ADD SLT PUSH2 0x2B3 JUMPI PUSH1 0x20 PUSH1 0x40 MLOAD PUSH1 0x12 DUP2 MSTORE RETURN JUMPDEST POP CALLVALUE PUSH2 0x2B3 JUMPI PUSH1 0x40 CALLDATASIZE PUSH1 0x3 NOT ADD SLT PUSH2 0x2B3 JUMPI PUSH2 0x3DC SWAP1 CALLDATALOAD PUSH2 0x1E5C PUSH2 0x25BA JUMP JUMPDEST SWAP1 DUP1 PUSH1 0x0 MSTORE PUSH1 0x6 PUSH1 0x20 MSTORE PUSH2 0x1E77 PUSH1 0x1 PUSH1 0x40 PUSH1 0x0 KECCAK256 ADD SLOAD PUSH2 0x2980 JUMP JUMPDEST PUSH2 0x2C78 JUMP JUMPDEST CALLVALUE PUSH2 0x2B3 JUMPI PUSH1 0x20 CALLDATASIZE PUSH1 0x3 NOT ADD SLT PUSH2 0x2B3 JUMPI PUSH1 0x1 PUSH1 0x1 PUSH1 0xA0 SHL SUB PUSH2 0x1E9D PUSH2 0x25A4 JUMP JUMPDEST AND PUSH1 0x0 MSTORE PUSH1 0x14 PUSH1 0x20 MSTORE PUSH1 0x20 PUSH1 0x40 PUSH1 0x0 KECCAK256 SLOAD PUSH1 0x40 MLOAD SWAP1 DUP2 MSTORE RETURN JUMPDEST POP CALLVALUE PUSH2 0x2B3 JUMPI PUSH1 0x20 CALLDATASIZE PUSH1 0x3 NOT ADD SLT PUSH2 0x2B3 JUMPI CALLDATALOAD PUSH1 0x0 MSTORE PUSH1 0x6 PUSH1 0x20 MSTORE PUSH1 0x20 PUSH1 0x1 PUSH1 0x40 PUSH1 0x0 KECCAK256 ADD SLOAD PUSH1 0x40 MLOAD SWAP1 DUP2 MSTORE RETURN JUMPDEST POP CALLVALUE PUSH2 0x2B3 JUMPI PUSH2 0x1EF3 CALLDATASIZE PUSH2 0x25D0 JUMP JUMPDEST SWAP2 PUSH1 0x1 DUP1 PUSH1 0xA0 SHL SUB DUP2 AND DUP1 PUSH1 0x0 MSTORE PUSH1 0x1 PUSH1 0x20 MSTORE PUSH1 0x40 PUSH1 0x0 KECCAK256 CALLER PUSH1 0x0 MSTORE PUSH1 0x20 MSTORE PUSH1 0x40 PUSH1 0x0 KECCAK256 SLOAD SWAP5 PUSH1 0x0 NOT DUP7 LT PUSH2 0x1F2F JUMPI JUMPDEST POP POP PUSH2 0x12EE SWAP4 POP PUSH2 0x2A3E JUMP JUMPDEST DUP5 DUP7 LT PUSH2 0x1F9B JUMPI DUP2 ISZERO PUSH2 0x1F83 JUMPI CALLER ISZERO PUSH2 0x1F6B JUMPI POP PUSH2 0x12EE SWAP5 DUP5 SWAP2 PUSH1 0x0 MSTORE PUSH1 0x1 PUSH1 0x20 MSTORE PUSH1 0x40 PUSH1 0x0 KECCAK256 CALLER PUSH1 0x0 MSTORE PUSH1 0x20 MSTORE SUB PUSH1 0x40 PUSH1 0x0 KECCAK256 SSTORE CODESIZE DUP1 PUSH2 0x1F23 JUMP JUMPDEST PUSH1 0x24 SWAP1 PUSH1 0x0 PUSH1 0x40 MLOAD SWAP2 PUSH4 0x4A1406B1 PUSH1 0xE1 SHL DUP4 MSTORE DUP3 ADD MSTORE REVERT JUMPDEST PUSH1 0x24 SWAP1 PUSH1 0x0 PUSH1 0x40 MLOAD SWAP2 PUSH4 0xE602DF05 PUSH1 0xE0 SHL DUP4 MSTORE DUP3 ADD MSTORE REVERT JUMPDEST PUSH1 0x40 DUP1 MLOAD PUSH4 0x7DC7A0D9 PUSH1 0xE1 SHL DUP2 MSTORE CALLER SWAP3 DUP2 ADD SWAP3 DUP4 MSTORE PUSH1 0x20 DUP4 ADD DUP9 SWAP1 MSTORE SWAP1 DUP3 ADD DUP7 SWAP1 MSTORE SWAP1 DUP2 SWAP1 PUSH1 0x60 ADD SUB SWAP1 REVERT JUMPDEST CALLVALUE PUSH2 0x2B3 JUMPI PUSH1 0x0 CALLDATASIZE PUSH1 0x3 NOT ADD SLT PUSH2 0x2B3 JUMPI PUSH1 0x20 PUSH1 0x40 MLOAD PUSH32 0xCAB5A0BFE0B79D2C4B1C2E02599FA044D115B7511F9659307CB4276950967709 DUP2 MSTORE RETURN JUMPDEST CALLVALUE PUSH2 0x2B3 JUMPI PUSH1 0x0 CALLDATASIZE PUSH1 0x3 NOT ADD SLT PUSH2 0x2B3 JUMPI PUSH1 0x20 PUSH1 0x2 SLOAD PUSH1 0x40 MLOAD SWAP1 DUP2 MSTORE RETURN JUMPDEST CALLVALUE PUSH2 0x2B3 JUMPI PUSH1 0x0 CALLDATASIZE PUSH1 0x3 NOT ADD SLT PUSH2 0x2B3 JUMPI PUSH1 0x40 MLOAD PUSH32 0x0 PUSH1 0x1 PUSH1 0x1 PUSH1 0xA0 SHL SUB AND DUP2 MSTORE PUSH1 0x20 SWAP1 RETURN JUMPDEST POP CALLVALUE PUSH2 0x2B3 JUMPI PUSH1 0x40 CALLDATASIZE PUSH1 0x3 NOT ADD SLT PUSH2 0x2B3 JUMPI PUSH2 0x207F PUSH2 0x25A4 JUMP JUMPDEST PUSH1 0x24 CALLDATALOAD SWAP1 CALLER ISZERO PUSH2 0x20ED JUMPI PUSH1 0x1 PUSH1 0x1 PUSH1 0xA0 SHL SUB AND SWAP2 DUP3 ISZERO PUSH2 0x1F6B JUMPI POP CALLER PUSH1 0x0 MSTORE PUSH1 0x1 PUSH1 0x20 MSTORE PUSH1 0x40 PUSH1 0x0 KECCAK256 DUP3 PUSH1 0x0 MSTORE PUSH1 0x20 MSTORE DUP1 PUSH1 0x40 PUSH1 0x0 KECCAK256 SSTORE PUSH1 0x40 MLOAD SWAP1 DUP2 MSTORE PUSH32 0x8C5BE1E5EBEC7D5BD14F71427D1E84F3DD0314C0F7B2291E5B200AC8C7C3B925 PUSH1 0x20 CALLER SWAP3 LOG3 PUSH1 0x20 PUSH1 0x40 MLOAD PUSH1 0x1 DUP2 MSTORE RETURN JUMPDEST PUSH1 0x40 MLOAD PUSH4 0xE602DF05 PUSH1 0xE0 SHL DUP2 MSTORE PUSH1 0x0 DUP2 DUP6 ADD MSTORE PUSH1 0x24 SWAP1 REVERT JUMPDEST CALLVALUE PUSH2 0x2B3 JUMPI PUSH1 0x0 CALLDATASIZE PUSH1 0x3 NOT ADD SLT PUSH2 0x2B3 JUMPI PUSH1 0x40 MLOAD PUSH1 0x3 SLOAD PUSH1 0x0 DUP3 PUSH2 0x2128 DUP4 PUSH2 0x24B9 JUMP JUMPDEST SWAP2 DUP3 DUP3 MSTORE PUSH1 0x20 SWAP4 PUSH1 0x1 SWAP1 DUP6 PUSH1 0x1 DUP3 AND SWAP2 DUP3 PUSH1 0x0 EQ PUSH2 0x21B4 JUMPI POP POP PUSH1 0x1 EQ PUSH2 0x2157 JUMPI JUMPDEST POP PUSH2 0x147B SWAP3 POP SUB DUP4 PUSH2 0x2542 JUMP JUMPDEST DUP5 SWAP2 POP PUSH1 0x3 PUSH1 0x0 MSTORE PUSH32 0xC2575A0E9E593C00F959F8C92F12DB2869C3395A3B0502D05E2516446F71F85B SWAP1 PUSH1 0x0 SWAP2 JUMPDEST DUP6 DUP4 LT PUSH2 0x219C JUMPI POP POP PUSH2 0x147B SWAP4 POP DUP3 ADD ADD DUP6 PUSH2 0x214A JUMP JUMPDEST DUP1 SLOAD DUP4 DUP10 ADD DUP6 ADD MSTORE DUP8 SWAP5 POP DUP7 SWAP4 SWAP1 SWAP3 ADD SWAP2 DUP2 ADD PUSH2 0x2185 JUMP JUMPDEST PUSH1 0xFF NOT AND DUP6 DUP3 ADD MSTORE PUSH2 0x147B SWAP6 ISZERO ISZERO PUSH1 0x5 SHL DUP6 ADD ADD SWAP3 POP DUP8 SWAP2 POP PUSH2 0x214A SWAP1 POP JUMP JUMPDEST CALLVALUE PUSH2 0x2B3 JUMPI PUSH1 0x0 CALLDATASIZE PUSH1 0x3 NOT ADD SLT PUSH2 0x2B3 JUMPI PUSH1 0x20 PUSH1 0x40 MLOAD PUSH32 0x442A94F1A1FAC79AF32856AF2A64F63648CFA2EF3B98610A5BB7CBEC4CEE6985 DUP2 MSTORE RETURN JUMPDEST POP CALLVALUE PUSH2 0x2B3 JUMPI PUSH1 0x40 CALLDATASIZE PUSH1 0x3 NOT ADD SLT PUSH2 0x2B3 JUMPI PUSH2 0x2229 PUSH2 0x25A4 JUMP JUMPDEST PUSH2 0x2231 PUSH2 0x25BA JUMP JUMPDEST PUSH2 0x2239 PUSH2 0x28AA JUMP JUMPDEST PUSH1 0x40 MLOAD PUSH4 0xB9209E33 PUSH1 0xE0 SHL DUP2 MSTORE PUSH1 0x1 PUSH1 0x1 PUSH1 0xA0 SHL SUB DUP3 DUP2 AND DUP3 DUP7 ADD DUP2 SWAP1 MSTORE SWAP5 PUSH1 0x20 SWAP4 SWAP1 SWAP3 SWAP1 SWAP2 SWAP1 DUP5 DUP2 PUSH1 0x24 DUP2 PUSH32 0x0 DUP7 AND GAS STATICCALL SWAP1 DUP2 ISZERO PUSH2 0xFEE JUMPI PUSH1 0x0 SWAP2 PUSH2 0x23AE JUMPI JUMPDEST POP ISZERO PUSH2 0x236A JUMPI DUP5 AND SWAP4 DUP5 PUSH1 0x0 MSTORE PUSH1 0x0 DUP5 MSTORE PUSH1 0x40 PUSH1 0x0 KECCAK256 SLOAD SWAP3 DUP4 ISZERO PUSH2 0x2326 JUMPI POP DUP3 PUSH32 0x401F439D865A766757EC78675925BD67198D5E78805AA41691B34B5D6A6CBBE6 SWAP5 SWAP4 SWAP3 DUP3 PUSH2 0x1DAF PUSH2 0x22EA SWAP5 PUSH2 0x29A6 JUMP JUMPDEST DUP4 PUSH1 0x0 MSTORE PUSH1 0x1B DUP3 MSTORE PUSH1 0x40 PUSH1 0x0 KECCAK256 SLOAD DUP6 PUSH1 0x0 MSTORE PUSH2 0x230C PUSH1 0x40 PUSH1 0x0 KECCAK256 SWAP2 DUP3 SLOAD PUSH2 0x264B JUMP JUMPDEST SWAP1 SSTORE DUP4 PUSH1 0x0 MSTORE PUSH1 0x1B DUP3 MSTORE PUSH1 0x0 PUSH1 0x40 DUP2 KECCAK256 SSTORE PUSH1 0x40 MLOAD SWAP1 DUP2 MSTORE LOG3 STOP JUMPDEST PUSH1 0x40 MLOAD PUSH3 0x461BCD PUSH1 0xE5 SHL DUP2 MSTORE SWAP1 DUP2 ADD DUP6 SWAP1 MSTORE PUSH1 0x18 PUSH1 0x24 DUP3 ADD MSTORE PUSH32 0x53543A206E6F20746F6B656E7320746F207265636F7665720000000000000000 PUSH1 0x44 DUP3 ADD MSTORE PUSH1 0x64 SWAP1 REVERT JUMPDEST PUSH1 0x40 MLOAD PUSH3 0x461BCD PUSH1 0xE5 SHL DUP2 MSTORE DUP1 DUP5 ADD DUP6 SWAP1 MSTORE PUSH1 0x1B PUSH1 0x24 DUP3 ADD MSTORE PUSH32 0x53543A206E65772077616C6C6574206E6F742076657269666965640000000000 PUSH1 0x44 DUP3 ADD MSTORE PUSH1 0x64 SWAP1 REVERT JUMPDEST PUSH2 0x23C5 SWAP2 POP DUP6 RETURNDATASIZE DUP8 GT PUSH2 0xFE7 JUMPI PUSH2 0xFD9 DUP2 DUP4 PUSH2 0x2542 JUMP JUMPDEST CODESIZE PUSH2 0x2299 JUMP JUMPDEST CALLVALUE PUSH2 0x2B3 JUMPI PUSH1 0x0 CALLDATASIZE PUSH1 0x3 NOT ADD SLT PUSH2 0x2B3 JUMPI PUSH1 0x40 MLOAD PUSH1 0x13 SLOAD PUSH1 0x0 DUP3 PUSH2 0x23EE DUP4 PUSH2 0x24B9 JUMP JUMPDEST SWAP2 DUP3 DUP3 MSTORE PUSH1 0x20 SWAP4 PUSH1 0x1 SWAP1 DUP6 PUSH1 0x1 DUP3 AND SWAP2 DUP3 PUSH1 0x0 EQ PUSH2 0x21B4 JUMPI POP POP PUSH1 0x1 EQ PUSH2 0x241C JUMPI POP PUSH2 0x147B SWAP3 POP SUB DUP4 PUSH2 0x2542 JUMP JUMPDEST DUP5 SWAP2 POP PUSH1 0x13 PUSH1 0x0 MSTORE PUSH1 0x0 DUP1 MLOAD PUSH1 0x20 PUSH2 0x2DB1 DUP4 CODECOPY DUP2 MLOAD SWAP2 MSTORE SWAP1 PUSH1 0x0 SWAP2 JUMPDEST DUP6 DUP4 LT PUSH2 0x244F JUMPI POP POP PUSH2 0x147B SWAP4 POP DUP3 ADD ADD DUP6 PUSH2 0x214A JUMP JUMPDEST DUP1 SLOAD DUP4 DUP10 ADD DUP6 ADD MSTORE DUP8 SWAP5 POP DUP7 SWAP4 SWAP1 SWAP3 ADD SWAP2 DUP2 ADD PUSH2 0x2438 JUMP JUMPDEST DUP3 CALLVALUE PUSH2 0x2B3 JUMPI PUSH1 0x20 CALLDATASIZE PUSH1 0x3 NOT ADD SLT PUSH2 0x2B3 JUMPI CALLDATALOAD SWAP1 PUSH4 0xFFFFFFFF PUSH1 0xE0 SHL DUP3 AND DUP1 SWAP3 SUB PUSH2 0x2B3 JUMPI PUSH1 0x20 SWAP2 PUSH4 0x7965DB0B PUSH1 0xE0 SHL DUP2 EQ SWAP1 DUP2 ISZERO PUSH2 0x24A8 JUMPI JUMPDEST POP ISZERO ISZERO DUP2 MSTORE RETURN JUMPDEST PUSH4 0x1FFC9A7 PUSH1 0xE0 SHL EQ SWAP1 POP DUP4 PUSH2 0x24A1 JUMP JUMPDEST SWAP1 PUSH1 0x1 DUP3 DUP2 SHR SWAP3 AND DUP1 ISZERO PUSH2 0x24E9 JUMPI JUMPDEST PUSH1 0x20 DUP4 LT EQ PUSH2 0x24D3 JUMPI JUMP JUMPDEST PUSH4 0x4E487B71 PUSH1 0xE0 SHL PUSH1 0x0 MSTORE PUSH1 0x22 PUSH1 0x4 MSTORE PUSH1 0x24 PUSH1 0x0 REVERT JUMPDEST SWAP2 PUSH1 0x7F AND SWAP2 PUSH2 0x24C8 JUMP JUMPDEST PUSH2 0x180 DUP2 ADD SWAP1 DUP2 LT PUSH8 0xFFFFFFFFFFFFFFFF DUP3 GT OR PUSH2 0x2510 JUMPI PUSH1 0x40 MSTORE JUMP JUMPDEST PUSH4 0x4E487B71 PUSH1 0xE0 SHL PUSH1 0x0 MSTORE PUSH1 0x41 PUSH1 0x4 MSTORE PUSH1 0x24 PUSH1 0x0 REVERT JUMPDEST PUSH1 0x40 DUP2 ADD SWAP1 DUP2 LT PUSH8 0xFFFFFFFFFFFFFFFF DUP3 GT OR PUSH2 0x2510 JUMPI PUSH1 0x40 MSTORE JUMP JUMPDEST SWAP1 PUSH1 0x1F DUP1 NOT SWAP2 ADD AND DUP2 ADD SWAP1 DUP2 LT PUSH8 0xFFFFFFFFFFFFFFFF DUP3 GT OR PUSH2 0x2510 JUMPI PUSH1 0x40 MSTORE JUMP JUMPDEST SWAP2 SWAP1 DUP3 MLOAD SWAP3 DUP4 DUP3 MSTORE PUSH1 0x0 JUMPDEST DUP5 DUP2 LT PUSH2 0x2590 JUMPI POP POP DUP3 PUSH1 0x0 PUSH1 0x20 DUP1 SWAP5 SWAP6 DUP5 ADD ADD MSTORE PUSH1 0x1F DUP1 NOT SWAP2 ADD AND ADD ADD SWAP1 JUMP JUMPDEST PUSH1 0x20 DUP2 DUP4 ADD DUP2 ADD MLOAD DUP5 DUP4 ADD DUP3 ADD MSTORE ADD PUSH2 0x256F JUMP JUMPDEST PUSH1 0x4 CALLDATALOAD SWAP1 PUSH1 0x1 PUSH1 0x1 PUSH1 0xA0 SHL SUB DUP3 AND DUP3 SUB PUSH2 0x2B3 JUMPI JUMP JUMPDEST PUSH1 0x24 CALLDATALOAD SWAP1 PUSH1 0x1 PUSH1 0x1 PUSH1 0xA0 SHL SUB DUP3 AND DUP3 SUB PUSH2 0x2B3 JUMPI JUMP JUMPDEST PUSH1 0x60 SWAP1 PUSH1 0x3 NOT ADD SLT PUSH2 0x2B3 JUMPI PUSH1 0x1 PUSH1 0x1 PUSH1 0xA0 SHL SUB SWAP1 PUSH1 0x4 CALLDATALOAD DUP3 DUP2 AND DUP2 SUB PUSH2 0x2B3 JUMPI SWAP2 PUSH1 0x24 CALLDATALOAD SWAP1 DUP2 AND DUP2 SUB PUSH2 0x2B3 JUMPI SWAP1 PUSH1 0x44 CALLDATALOAD SWAP1 JUMP JUMPDEST SWAP2 DUP2 PUSH1 0x1F DUP5 ADD SLT ISZERO PUSH2 0x2B3 JUMPI DUP3 CALLDATALOAD SWAP2 PUSH8 0xFFFFFFFFFFFFFFFF DUP4 GT PUSH2 0x2B3 JUMPI PUSH1 0x20 DUP4 DUP2 DUP7 ADD SWAP6 ADD ADD GT PUSH2 0x2B3 JUMPI JUMP JUMPDEST SWAP1 DUP2 PUSH1 0x20 SWAP2 SUB SLT PUSH2 0x2B3 JUMPI MLOAD DUP1 ISZERO ISZERO DUP2 SUB PUSH2 0x2B3 JUMPI SWAP1 JUMP JUMPDEST SWAP2 SWAP1 DUP3 ADD DUP1 SWAP3 GT PUSH2 0x2658 JUMPI JUMP JUMPDEST PUSH4 0x4E487B71 PUSH1 0xE0 SHL PUSH1 0x0 MSTORE PUSH1 0x11 PUSH1 0x4 MSTORE PUSH1 0x24 PUSH1 0x0 REVERT JUMPDEST ISZERO PUSH2 0x2675 JUMPI JUMP JUMPDEST PUSH1 0x40 MLOAD PUSH3 0x461BCD PUSH1 0xE5 SHL DUP2 MSTORE PUSH1 0x20 PUSH1 0x4 DUP3 ADD MSTORE PUSH1 0x18 PUSH1 0x24 DUP3 ADD MSTORE PUSH32 0x53543A20696E73756666696369656E742062616C616E63650000000000000000 PUSH1 0x44 DUP3 ADD MSTORE PUSH1 0x64 SWAP1 REVERT JUMPDEST SWAP1 DUP1 PUSH1 0x20 SWAP4 SWAP3 DUP2 DUP5 MSTORE DUP5 DUP5 ADD CALLDATACOPY PUSH1 0x0 DUP3 DUP3 ADD DUP5 ADD MSTORE PUSH1 0x1F ADD PUSH1 0x1F NOT AND ADD ADD SWAP1 JUMP JUMPDEST DUP2 DUP2 MUL SWAP3 SWAP2 DUP2 ISZERO SWAP2 DUP5 DIV EQ OR ISZERO PUSH2 0x2658 JUMPI JUMP JUMPDEST DUP2 ISZERO PUSH2 0x26F8 JUMPI DIV SWAP1 JUMP JUMPDEST PUSH4 0x4E487B71 PUSH1 0xE0 SHL PUSH1 0x0 MSTORE PUSH1 0x12 PUSH1 0x4 MSTORE PUSH1 0x24 PUSH1 0x0 REVERT JUMPDEST SWAP2 SWAP1 DUP3 SUB SWAP2 DUP3 GT PUSH2 0x2658 JUMPI JUMP JUMPDEST SWAP3 SWAP2 SWAP1 SWAP3 PUSH1 0xFF PUSH1 0x5 SLOAD AND PUSH2 0x287B JUMPI PUSH1 0x40 DUP1 MLOAD PUSH4 0x6C85CF67 PUSH1 0xE0 SHL DUP2 MSTORE PUSH1 0x1 PUSH1 0x1 PUSH1 0xA0 SHL SUB DUP4 DUP2 AND PUSH1 0x4 DUP4 ADD MSTORE SWAP6 DUP7 AND PUSH1 0x24 DUP3 ADD MSTORE SWAP1 SWAP5 PUSH1 0x20 SWAP4 SWAP3 SWAP1 SWAP2 DUP5 DUP2 PUSH1 0x44 DUP2 PUSH32 0x0 DUP8 AND GAS STATICCALL SWAP1 DUP2 ISZERO PUSH2 0x2870 JUMPI PUSH1 0x0 SWAP2 PUSH2 0x2853 JUMPI JUMPDEST POP ISZERO PUSH2 0x2817 JUMPI AND PUSH1 0x0 MSTORE PUSH1 0x0 DUP3 MSTORE PUSH2 0x27B5 DUP5 PUSH1 0x0 KECCAK256 SLOAD PUSH1 0x14 DUP5 MSTORE DUP6 PUSH1 0x0 KECCAK256 SLOAD SWAP1 PUSH2 0x270E JUMP JUMPDEST LT PUSH2 0x27DE JUMPI PUSH1 0x1 SWAP3 DUP1 MLOAD SWAP2 DUP3 ADD SWAP1 DUP3 DUP3 LT PUSH8 0xFFFFFFFFFFFFFFFF DUP4 GT OR PUSH2 0x2510 JUMPI MSTORE PUSH1 0x0 DUP2 MSTORE SWAP1 JUMP JUMPDEST PUSH32 0x496E73756666696369656E7420756E66726F7A656E2062616C616E6365000000 PUSH1 0x0 SWAP4 MLOAD SWAP2 PUSH2 0x280D DUP4 PUSH2 0x2526 JUMP JUMPDEST PUSH1 0x1D DUP4 MSTORE DUP3 ADD MSTORE SWAP1 JUMP JUMPDEST POP POP POP PUSH32 0x436F6D706C69616E636520636865636B206661696C6564000000000000000000 PUSH1 0x0 SWAP4 MLOAD SWAP2 PUSH2 0x2849 DUP4 PUSH2 0x2526 JUMP JUMPDEST PUSH1 0x17 DUP4 MSTORE DUP3 ADD MSTORE SWAP1 JUMP JUMPDEST PUSH2 0x286A SWAP2 POP DUP6 RETURNDATASIZE DUP8 GT PUSH2 0xFE7 JUMPI PUSH2 0xFD9 DUP2 DUP4 PUSH2 0x2542 JUMP JUMPDEST CODESIZE PUSH2 0x2790 JUMP JUMPDEST DUP8 MLOAD RETURNDATASIZE PUSH1 0x0 DUP3 RETURNDATACOPY RETURNDATASIZE SWAP1 REVERT JUMPDEST POP POP PUSH1 0x40 MLOAD PUSH1 0x0 SWAP3 POP PUSH2 0x288D DUP2 PUSH2 0x2526 JUMP JUMPDEST PUSH1 0xD DUP2 MSTORE PUSH13 0x14D513C81A5CC81C185D5CD959 PUSH1 0x9A SHL PUSH1 0x20 DUP3 ADD MSTORE SWAP1 JUMP JUMPDEST CALLER PUSH1 0x0 SWAP1 DUP2 MSTORE PUSH32 0x84103E4942D70D0389AB910BDCDF181C3E028BC1897FE6797BB191AC79D80882 PUSH1 0x20 MSTORE PUSH1 0x40 SWAP1 KECCAK256 SLOAD PUSH32 0x442A94F1A1FAC79AF32856AF2A64F63648CFA2EF3B98610A5BB7CBEC4CEE6985 SWAP1 PUSH1 0xFF AND ISZERO PUSH2 0x2906 JUMPI POP JUMP JUMPDEST PUSH1 0x44 SWAP1 PUSH1 0x40 MLOAD SWAP1 PUSH4 0xE2517D3F PUSH1 0xE0 SHL DUP3 MSTORE CALLER PUSH1 0x4 DUP4 ADD MSTORE PUSH1 0x24 DUP3 ADD MSTORE REVERT JUMPDEST CALLER PUSH1 0x0 SWAP1 DUP2 MSTORE PUSH32 0x702FE919A6A7971E34C596917A48306A624527A41D0AA0FCF43050B6A3053248 PUSH1 0x20 MSTORE PUSH1 0x40 SWAP1 KECCAK256 SLOAD PUSH32 0x114E74F6EA3BD819998F78687BFCB11B140DA08E9B7D222FA9C1F1BA1F2AA122 SWAP1 PUSH1 0xFF AND ISZERO PUSH2 0x2906 JUMPI POP JUMP JUMPDEST DUP1 PUSH1 0x0 MSTORE PUSH1 0x6 PUSH1 0x20 MSTORE PUSH1 0x40 PUSH1 0x0 KECCAK256 CALLER PUSH1 0x0 MSTORE PUSH1 0x20 MSTORE PUSH1 0xFF PUSH1 0x40 PUSH1 0x0 KECCAK256 SLOAD AND ISZERO PUSH2 0x2906 JUMPI POP JUMP JUMPDEST PUSH1 0x19 SLOAD PUSH1 0x1 PUSH1 0x1 PUSH1 0xA0 SHL SUB SWAP1 SWAP2 AND PUSH1 0x0 DUP2 DUP2 MSTORE PUSH1 0x1A PUSH1 0x20 MSTORE PUSH1 0x40 DUP1 DUP3 KECCAK256 SLOAD SWAP3 SWAP4 SWAP1 SWAP3 PUSH2 0x29D1 SWAP2 PUSH2 0x270E JUMP JUMPDEST DUP1 ISZERO ISZERO DUP1 PUSH2 0x2A2B JUMPI JUMPDEST PUSH2 0x29EF JUMPI JUMPDEST POP PUSH1 0x19 SLOAD SWAP3 DUP2 MSTORE PUSH1 0x1A PUSH1 0x20 MSTORE KECCAK256 SSTORE JUMP JUMPDEST PUSH2 0x2A0C PUSH8 0xDE0B6B3A7640000 SWAP2 DUP6 DUP5 MSTORE DUP4 PUSH1 0x20 MSTORE DUP5 DUP5 KECCAK256 SLOAD PUSH2 0x26DB JUMP JUMPDEST DIV DUP4 DUP3 MSTORE PUSH1 0x1B PUSH1 0x20 MSTORE PUSH2 0x2A23 DUP4 DUP4 KECCAK256 SWAP2 DUP3 SLOAD PUSH2 0x264B JUMP JUMPDEST SWAP1 SSTORE CODESIZE PUSH2 0x29DF JUMP JUMPDEST POP DUP4 DUP3 MSTORE DUP2 PUSH1 0x20 MSTORE DUP3 DUP3 KECCAK256 SLOAD ISZERO ISZERO PUSH2 0x29DA JUMP JUMPDEST SWAP3 SWAP2 PUSH1 0x1 PUSH1 0x1 PUSH1 0xA0 SHL SUB SWAP2 DUP3 DUP6 AND SWAP2 DUP3 ISZERO PUSH2 0x2C5F JUMPI DUP4 DUP3 AND SWAP4 DUP5 ISZERO PUSH2 0x2C46 JUMPI PUSH1 0x40 DUP1 MLOAD PUSH4 0x6C85CF67 PUSH1 0xE0 SHL DUP2 MSTORE PUSH1 0x1 PUSH1 0x1 PUSH1 0xA0 SHL SUB DUP10 DUP2 AND PUSH1 0x4 DUP4 ADD MSTORE DUP6 AND PUSH1 0x24 DUP3 ADD MSTORE PUSH1 0x20 SWAP5 SWAP2 SWAP3 DUP6 SWAP1 DUP3 SWAP1 PUSH1 0x44 SWAP1 DUP3 SWAP1 PUSH32 0x0 AND GAS STATICCALL SWAP1 DUP2 ISZERO PUSH2 0x2C3B JUMPI PUSH1 0x0 SWAP2 PUSH2 0x2C1E JUMPI JUMPDEST POP ISZERO PUSH2 0x2BDA JUMPI DUP5 PUSH1 0x0 MSTORE PUSH1 0x0 DUP5 MSTORE DUP3 PUSH2 0x2AE9 DUP4 PUSH1 0x0 KECCAK256 SLOAD PUSH1 0x14 DUP8 MSTORE DUP5 PUSH1 0x0 KECCAK256 SLOAD SWAP1 PUSH2 0x270E JUMP JUMPDEST LT PUSH2 0x2B96 JUMPI PUSH2 0x2B00 SWAP1 PUSH2 0x2AFB DUP10 PUSH2 0x29A6 JUMP JUMPDEST PUSH2 0x29A6 JUMP JUMPDEST PUSH2 0x2B08 PUSH2 0x2D92 JUMP JUMPDEST DUP4 PUSH1 0x0 MSTORE PUSH1 0x0 DUP4 MSTORE DUP1 PUSH1 0x0 KECCAK256 SLOAD SWAP7 DUP3 DUP9 LT PUSH2 0x2B67 JUMPI POP DUP2 DUP5 SWAP6 SWAP7 SWAP8 PUSH32 0xDDF252AD1BE2C89B69C2B068FC378DAA952BA7F163C4A11628F55A4DF523B3EF SWAP6 PUSH1 0x0 MSTORE PUSH1 0x0 DUP6 MSTORE SUB DUP2 PUSH1 0x0 KECCAK256 SSTORE DUP6 PUSH1 0x0 MSTORE DUP1 PUSH1 0x0 KECCAK256 DUP3 DUP2 SLOAD ADD SWAP1 SSTORE MLOAD SWAP1 DUP2 MSTORE LOG3 JUMP JUMPDEST SWAP1 MLOAD PUSH4 0x391434E3 PUSH1 0xE2 SHL DUP2 MSTORE PUSH1 0x1 PUSH1 0x1 PUSH1 0xA0 SHL SUB SWAP1 SWAP2 AND PUSH1 0x4 DUP3 ADD MSTORE PUSH1 0x24 DUP2 ADD DUP8 SWAP1 MSTORE PUSH1 0x44 DUP2 ADD DUP3 SWAP1 MSTORE PUSH1 0x64 SWAP1 REVERT JUMPDEST DUP2 MLOAD PUSH3 0x461BCD PUSH1 0xE5 SHL DUP2 MSTORE PUSH1 0x4 DUP2 ADD DUP6 SWAP1 MSTORE PUSH1 0x19 PUSH1 0x24 DUP3 ADD MSTORE PUSH32 0x53543A20696E73756666696369656E7420756E66726F7A656E00000000000000 PUSH1 0x44 DUP3 ADD MSTORE PUSH1 0x64 SWAP1 REVERT JUMPDEST DUP2 MLOAD PUSH3 0x461BCD PUSH1 0xE5 SHL DUP2 MSTORE PUSH1 0x4 DUP2 ADD DUP6 SWAP1 MSTORE PUSH1 0x1A PUSH1 0x24 DUP3 ADD MSTORE PUSH32 0x53543A207472616E73666572206E6F7420636F6D706C69616E74000000000000 PUSH1 0x44 DUP3 ADD MSTORE PUSH1 0x64 SWAP1 REVERT JUMPDEST PUSH2 0x2C35 SWAP2 POP DUP6 RETURNDATASIZE DUP8 GT PUSH2 0xFE7 JUMPI PUSH2 0xFD9 DUP2 DUP4 PUSH2 0x2542 JUMP JUMPDEST CODESIZE PUSH2 0x2AC3 JUMP JUMPDEST DUP4 MLOAD RETURNDATASIZE PUSH1 0x0 DUP3 RETURNDATACOPY RETURNDATASIZE SWAP1 REVERT JUMPDEST PUSH1 0x40 MLOAD PUSH4 0xEC442F05 PUSH1 0xE0 SHL DUP2 MSTORE PUSH1 0x0 PUSH1 0x4 DUP3 ADD MSTORE PUSH1 0x24 SWAP1 REVERT JUMPDEST PUSH1 0x40 MLOAD PUSH4 0x4B637E8F PUSH1 0xE1 SHL DUP2 MSTORE PUSH1 0x0 PUSH1 0x4 DUP3 ADD MSTORE PUSH1 0x24 SWAP1 REVERT JUMPDEST SWAP1 PUSH1 0x0 SWAP2 DUP1 DUP4 MSTORE PUSH1 0x6 PUSH1 0x20 MSTORE PUSH1 0x40 DUP4 KECCAK256 SWAP2 PUSH1 0x1 DUP1 PUSH1 0xA0 SHL SUB AND SWAP2 DUP3 DUP5 MSTORE PUSH1 0x20 MSTORE PUSH1 0xFF PUSH1 0x40 DUP5 KECCAK256 SLOAD AND ISZERO PUSH1 0x0 EQ PUSH2 0x2CF3 JUMPI DUP1 DUP4 MSTORE PUSH1 0x6 PUSH1 0x20 MSTORE PUSH1 0x40 DUP4 KECCAK256 DUP3 DUP5 MSTORE PUSH1 0x20 MSTORE PUSH1 0x40 DUP4 KECCAK256 PUSH1 0x1 PUSH1 0xFF NOT DUP3 SLOAD AND OR SWAP1 SSTORE PUSH32 0x2F8788117E7EFF1D82E926EC794901D17C78024A50270940304540A733656F0D CALLER SWAP4 DUP1 LOG4 PUSH1 0x1 SWAP1 JUMP JUMPDEST POP POP SWAP1 JUMP JUMPDEST SWAP1 PUSH1 0x0 SWAP2 DUP1 DUP4 MSTORE PUSH1 0x6 PUSH1 0x20 MSTORE PUSH1 0x40 DUP4 KECCAK256 SWAP2 PUSH1 0x1 DUP1 PUSH1 0xA0 SHL SUB AND SWAP2 DUP3 DUP5 MSTORE PUSH1 0x20 MSTORE PUSH1 0xFF PUSH1 0x40 DUP5 KECCAK256 SLOAD AND PUSH1 0x0 EQ PUSH2 0x2CF3 JUMPI DUP1 DUP4 MSTORE PUSH1 0x6 PUSH1 0x20 MSTORE PUSH1 0x40 DUP4 KECCAK256 DUP3 DUP5 MSTORE PUSH1 0x20 MSTORE PUSH1 0x40 DUP4 KECCAK256 PUSH1 0xFF NOT DUP2 SLOAD AND SWAP1 SSTORE PUSH32 0xF6391F5C32D9C69D2A47EA670B442974B53935D1EDC7FD64EB21E047A839171B CALLER SWAP4 DUP1 LOG4 PUSH1 0x1 SWAP1 JUMP JUMPDEST PUSH1 0x2 PUSH1 0x7 SLOAD EQ PUSH2 0x2D80 JUMPI PUSH1 0x2 PUSH1 0x7 SSTORE JUMP JUMPDEST PUSH1 0x40 MLOAD PUSH4 0x3EE5AEB5 PUSH1 0xE0 SHL DUP2 MSTORE PUSH1 0x4 SWAP1 REVERT JUMPDEST PUSH1 0xFF PUSH1 0x5 SLOAD AND PUSH2 0x2D9E JUMPI JUMP JUMPDEST PUSH1 0x40 MLOAD PUSH4 0xD93C0665 PUSH1 0xE0 SHL DUP2 MSTORE PUSH1 0x4 SWAP1 REVERT INVALID PUSH7 0xDE8FFDA797E3DE SWAP13 SDIV 0xE8 0xFC JUMPI 0xB3 0xBF 0xE 0xC2 DUP11 SWAP4 0xD BLOCKHASH 0xB0 0xD2 DUP6 0xD9 EXTCODECOPY MOD POP SHR 0xF6 LOG0 SWAP1 LOG2 PUSH5 0x6970667358 0x22 SLT KECCAK256 0xA6 SELFDESTRUCT SWAP14 PUSH10 0x3F9FE94EBDED77C99DEC PUSH30 0x2C868B91AFD7FEC88DC2037920FCE7732B64736F6C634300081800332F87 DUP9 GT PUSH31 0x7EFF1D82E926EC794901D17C78024A50270940304540A733656F0DC65A7BB8 0xD6 CALLDATALOAD SHR SHR 0xF7 0xC SWAP6 LOG3 AND 0xCC PUSH11 0x92839C986682D98BC35F95 DUP16 BASEFEE DUP4 0xF9 0xD2 0xA8 RETURN 0xF7 0xA9 INVALID CALLDATASIZE 0x4F 0xAA 0xB9 EXTCODESIZE 0x21 PUSH14 0xA50A3214154F22A0A2B415B23A84 0xC8 AND SWAP15 DUP12 PUSH4 0x6EE36E15 BLOCKHASH OR SHL PUSH13 0xC960B71A7020D9F60077F6AF9 BALANCE 0xA8 0xBB CREATE2 SWAP1 0xDA MUL 0x23 0xDA 0xCF PUSH22 0xC7AFA26469706673582212204155A6807C786B8BFDBC SWAP6 ADDRESS 0xC4 0xA9 SWAP6 DUP1 0xB9 TLOAD CALLER LOG4 PUSH11 0xACF5715EBE535F05221189 PUSH5 0x736F6C6343 STOP ADDMOD XOR STOP CALLER 0x2F DUP8 DUP9 GT PUSH31 0x7EFF1D82E926EC794901D17C78024A50270940304540A733656F0D00000000 "},"methodIdentifiers":{"COMPLIANCE_ROLE()":"062d3bd7","DEFAULT_ADMIN_ROLE()":"a217fddf","OPERATOR_ROLE()":"f5b541a6","allSTOIds(uint256)":"687d2be2","createSTO((string,string,string,uint256,uint256,uint256,uint256,uint16[],uint48,address,address,uint16),address)":"37c8233d","deactivateSTO(bytes32,string)":"7fa5dd9a","defaultFeeBps()":"bcae25a4","feeTreasury()":"60dc2340","getAllSTOIds()":"1fb7a0d4","getIssuerSTOs(address)":"5647ea98","getRoleAdmin(bytes32)":"248a9ca3","getSTORecord(bytes32)":"7fffb57f","grantRole(bytes32,address)":"2f2ff15d","hasRole(bytes32,address)":"91d14854","identityRegistry()":"134e18f4","invest(bytes32,uint256)":"1f29d285","issuerSTOs(address,uint256)":"226620e4","renounceRole(bytes32,address)":"36568abe","revokeRole(bytes32,address)":"d547741f","setDefaultFeeBps(uint16)":"4488b652","setFeeTreasury(address)":"bfa37e37","stoCount()":"a90b2c43","stoRecords(bytes32)":"0927632b","supportsInterface(bytes4)":"01ffc9a7","usdc()":"3e413bee"}}}}}