{"contracts/registry/IdentityRegistry.sol":{"IdentityRegistry":{"abi":[{"inputs":[{"internalType":"address","name":"admin","type":"address"},{"internalType":"address","name":"complianceOfficer","type":"address"}],"stateMutability":"nonpayable","type":"constructor"},{"inputs":[],"name":"AccessControlBadConfirmation","type":"error"},{"inputs":[{"internalType":"address","name":"account","type":"address"},{"internalType":"bytes32","name":"neededRole","type":"bytes32"}],"name":"AccessControlUnauthorizedAccount","type":"error"},{"inputs":[],"name":"EnforcedPause","type":"error"},{"inputs":[],"name":"ExpectedPause","type":"error"},{"anonymous":false,"inputs":[{"indexed":true,"internalType":"uint16","name":"country","type":"uint16"}],"name":"CountryAllowed","type":"event"},{"anonymous":false,"inputs":[{"indexed":true,"internalType":"uint16","name":"country","type":"uint16"}],"name":"CountryBlocked","type":"event"},{"anonymous":false,"inputs":[{"indexed":true,"internalType":"address","name":"investor","type":"address"},{"indexed":false,"internalType":"uint16","name":"country","type":"uint16"},{"indexed":false,"internalType":"uint8","name":"tier","type":"uint8"}],"name":"IdentityRegistered","type":"event"},{"anonymous":false,"inputs":[{"indexed":true,"internalType":"address","name":"investor","type":"address"}],"name":"IdentityRemoved","type":"event"},{"anonymous":false,"inputs":[{"indexed":true,"internalType":"address","name":"investor","type":"address"},{"indexed":false,"internalType":"string","name":"reason","type":"string"}],"name":"IdentitySuspended","type":"event"},{"anonymous":false,"inputs":[{"indexed":true,"internalType":"address","name":"investor","type":"address"}],"name":"IdentityVerified","type":"event"},{"anonymous":false,"inputs":[{"indexed":false,"internalType":"address","name":"account","type":"address"}],"name":"Paused","type":"event"},{"anonymous":false,"inputs":[{"indexed":true,"internalType":"bytes32","name":"role","type":"bytes32"},{"indexed":true,"internalType":"bytes32","name":"previousAdminRole","type":"bytes32"},{"indexed":true,"internalType":"bytes32","name":"newAdminRole","type":"bytes32"}],"name":"RoleAdminChanged","type":"event"},{"anonymous":false,"inputs":[{"indexed":true,"internalType":"bytes32","name":"role","type":"bytes32"},{"indexed":true,"internalType":"address","name":"account","type":"address"},{"indexed":true,"internalType":"address","name":"sender","type":"address"}],"name":"RoleGranted","type":"event"},{"anonymous":false,"inputs":[{"indexed":true,"internalType":"bytes32","name":"role","type":"bytes32"},{"indexed":true,"internalType":"address","name":"account","type":"address"},{"indexed":true,"internalType":"address","name":"sender","type":"address"}],"name":"RoleRevoked","type":"event"},{"anonymous":false,"inputs":[{"indexed":false,"internalType":"address","name":"account","type":"address"}],"name":"Unpaused","type":"event"},{"inputs":[],"name":"AGENT_ROLE","outputs":[{"internalType":"bytes32","name":"","type":"bytes32"}],"stateMutability":"view","type":"function"},{"inputs":[],"name":"COMPLIANCE_ROLE","outputs":[{"internalType":"bytes32","name":"","type":"bytes32"}],"stateMutability":"view","type":"function"},{"inputs":[],"name":"DEFAULT_ADMIN_ROLE","outputs":[{"internalType":"bytes32","name":"","type":"bytes32"}],"stateMutability":"view","type":"function"},{"inputs":[{"internalType":"address","name":"from","type":"address"},{"internalType":"address","name":"to","type":"address"}],"name":"canTransfer","outputs":[{"internalType":"bool","name":"","type":"bool"}],"stateMutability":"view","type":"function"},{"inputs":[{"internalType":"address","name":"investor","type":"address"}],"name":"getIdentity","outputs":[{"components":[{"internalType":"address","name":"wallet","type":"address"},{"internalType":"uint16","name":"country","type":"uint16"},{"internalType":"enum IIdentityRegistry.VerificationTier","name":"tier","type":"uint8"},{"internalType":"uint48","name":"verifiedAt","type":"uint48"},{"internalType":"uint48","name":"expiresAt","type":"uint48"},{"internalType":"bytes32","name":"kycHash","type":"bytes32"},{"internalType":"bool","name":"amlClear","type":"bool"}],"internalType":"struct IIdentityRegistry.Identity","name":"","type":"tuple"}],"stateMutability":"view","type":"function"},{"inputs":[{"internalType":"uint256","name":"index","type":"uint256"}],"name":"getInvestorAt","outputs":[{"internalType":"address","name":"","type":"address"}],"stateMutability":"view","type":"function"},{"inputs":[{"internalType":"bytes32","name":"role","type":"bytes32"}],"name":"getRoleAdmin","outputs":[{"internalType":"bytes32","name":"","type":"bytes32"}],"stateMutability":"view","type":"function"},{"inputs":[{"internalType":"bytes32","name":"role","type":"bytes32"},{"internalType":"address","name":"account","type":"address"}],"name":"grantRole","outputs":[],"stateMutability":"nonpayable","type":"function"},{"inputs":[{"internalType":"bytes32","name":"role","type":"bytes32"},{"internalType":"address","name":"account","type":"address"}],"name":"hasRole","outputs":[{"internalType":"bool","name":"","type":"bool"}],"stateMutability":"view","type":"function"},{"inputs":[],"name":"investorCount","outputs":[{"internalType":"uint256","name":"","type":"uint256"}],"stateMutability":"view","type":"function"},{"inputs":[{"internalType":"uint16","name":"country","type":"uint16"}],"name":"isCountryAllowed","outputs":[{"internalType":"bool","name":"","type":"bool"}],"stateMutability":"view","type":"function"},{"inputs":[{"internalType":"address","name":"investor","type":"address"}],"name":"isVerified","outputs":[{"internalType":"bool","name":"","type":"bool"}],"stateMutability":"view","type":"function"},{"inputs":[],"name":"pause","outputs":[],"stateMutability":"nonpayable","type":"function"},{"inputs":[],"name":"paused","outputs":[{"internalType":"bool","name":"","type":"bool"}],"stateMutability":"view","type":"function"},{"inputs":[{"internalType":"address","name":"investor","type":"address"},{"internalType":"uint16","name":"country","type":"uint16"},{"internalType":"enum IIdentityRegistry.VerificationTier","name":"tier","type":"uint8"},{"internalType":"bytes32","name":"kycHash","type":"bytes32"}],"name":"registerIdentity","outputs":[],"stateMutability":"nonpayable","type":"function"},{"inputs":[{"internalType":"address","name":"investor","type":"address"}],"name":"removeIdentity","outputs":[],"stateMutability":"nonpayable","type":"function"},{"inputs":[{"internalType":"bytes32","name":"role","type":"bytes32"},{"internalType":"address","name":"callerConfirmation","type":"address"}],"name":"renounceRole","outputs":[],"stateMutability":"nonpayable","type":"function"},{"inputs":[{"internalType":"bytes32","name":"role","type":"bytes32"},{"internalType":"address","name":"account","type":"address"}],"name":"revokeRole","outputs":[],"stateMutability":"nonpayable","type":"function"},{"inputs":[{"internalType":"uint16","name":"country","type":"uint16"},{"internalType":"bool","name":"allowed","type":"bool"}],"name":"setCountryAllowed","outputs":[],"stateMutability":"nonpayable","type":"function"},{"inputs":[{"internalType":"bytes4","name":"interfaceId","type":"bytes4"}],"name":"supportsInterface","outputs":[{"internalType":"bool","name":"","type":"bool"}],"stateMutability":"view","type":"function"},{"inputs":[{"internalType":"address","name":"investor","type":"address"},{"internalType":"string","name":"reason","type":"string"}],"name":"suspendIdentity","outputs":[],"stateMutability":"nonpayable","type":"function"},{"inputs":[],"name":"unpause","outputs":[],"stateMutability":"nonpayable","type":"function"},{"inputs":[{"internalType":"address","name":"investor","type":"address"},{"internalType":"uint48","name":"newExpiry","type":"uint48"}],"name":"updateKycExpiry","outputs":[],"stateMutability":"nonpayable","type":"function"},{"inputs":[{"internalType":"address","name":"investor","type":"address"}],"name":"verifyIdentity","outputs":[],"stateMutability":"nonpayable","type":"function"}],"evm":{"bytecode":{"linkReferences":{},"object":"60803462000165576200145990601f38839003908101601f19168201906001600160401b038211838310176200016a5780839160409586948552833981010312620001655780620000726200006660206200005e620000799562000180565b930162000180565b91620000728162000195565b5062000215565b506102be60009080825260036020528282209160019260ff199084828254161790556101ca9485835280832085838254161790556101689081845280842086848254161790556102fc9283855281852087828254161790556102609687865282862081838254161790556102c0865282862081838254161790556103108652828620818382541617905561033a8652828620818382541617905561015886528286209182541617905551957f10a288fe18db0c58a3cc576234577d307ee822eed3d098303a60e5809172c49694858580a2848480a2838380a2828280a280a26111819081620002b88239f35b600080fd5b634e487b7160e01b600052604160045260246000fd5b51906001600160a01b03821682036200016557565b6001600160a01b031660008181527fad3228b676f7d3cd4284a5443f17f1962b36e491b30a40b2405849e597ba5fb5602052604081205490919060ff166200021157818052816020526040822081835260205260408220600160ff198254161790553391600080516020620014398339815191528180a4600190565b5090565b6001600160a01b031660008181527f335573aa7cafba10a32e2694464d1e7e5294d917876d04d506249fbf84d791af60205260408120549091907f442a94f1a1fac79af32856af2a64f63648cfa2ef3b98610a5bb7cbec4cee69859060ff16620002b257808352826020526040832082845260205260408320600160ff1982541617905560008051602062001439833981519152339380a4600190565b50509056fe608060408181526004918236101561001657600080fd5b600090813560e01c90816301ffc9a714610ce157508063062d3bd714610ca657806322459e1814610c6b578063248a9ca314610c415780632f2ff15d14610c175780632fea7b8114610aef57806336568abe14610aa95780633f4ba83a14610a3f5780635c975abb14610a1b5780636c85cf67146109ed57806382b32c28146109315780638456cb59146108d757806391d148541461089157806399f644f61461085a578063a217fddf1461083f578063b5b90fd914610774578063b9209e3314610745578063bff9c1c41461069a578063c1f2f1aa14610608578063d547741f146105c9578063d7e64c00146105ab578063e00de9ea14610255578063ea409a9b146101635763f64502931461012c57600080fd5b34610160576020366003190112610160575061014a60209235610f13565b905491519160018060a01b039160031b1c168152f35b80fd5b5091903461025157806003193601126102515761017e610d50565b916024359167ffffffffffffffff9182841161024d573660238501121561024d57830135918211610249573660248385010111610249577fc5630026ba7cc7c7edcfcaf243ff5a4f6db6dd295302b966cfad33dc9b2e3597926024926101e2610fb8565b6001600160a01b0395861680885260026020528388208054919790919061020c9082161515610e18565b60ff60b01b1916600160b21b179055825160208082528101829052938492829101838501378181018301879052601f01601f19168101030190a280f35b8480fd5b8580fd5b8280fd5b5091903461025157608036600319011261025157610271610d50565b60249081359161ffff831680930361024d576044359060058210156105a757610298610fb8565b6102a061112d565b6001600160a01b03928316958615610573578488526020936003855260ff878a2054161561053257889084151580610524575b156104ef57888a526002865280888b2054166104b4578989878a65ffffffffffff8042168c8b8861030384610e59565b9561030c610d77565b99898b52888b01948552610323828c019485610dad565b60608b019586528660808c0198168852600260a08c01996064358b5260c08d019b60018d528352522098511688549261ffff60a01b905160a01b169151600581101561049d57935165ffffffffffff60b81b90861660b81b1660ff60b01b60b09590951b949094166001600160b81b031993909316171765ffffffffffff60b81b1916171785556103e79493600393909290916001860191511665ffffffffffff1982541617905551600284015551151591019060ff801983541691151516179055565b82546801000000000000000081101561048b5780600161040992018555610f13565b819291549060031b918b831b921b191617905561047a575050835192835260ff169082015282917f273d893ad72db0acd71223db0123bde9ea12544026c273b37134d948447101b091a27f02f93fdaafad8edad1ca75101b1fbda62e64ab9afc26d0ea801ccf6ef02c09ab8280a280f35b634e487b7160e01b88526021905286fd5b634e487b7160e01b8b5260418452848bfd5b5050505050888f60218a634e487b7160e01b835252fd5b875162461bcd60e51b81528084018790526016818601527512548e88185b1c9958591e481c9959da5cdd195c995960521b6044820152606490fd5b875162461bcd60e51b81528084018790526010818601526f24a91d1034b73b30b634b2103a34b2b960811b6044820152606490fd5b5089915060018514156102d3565b5060176064928588519362461bcd60e51b85528401528201527f49523a20636f756e747279206e6f7420616c6c6f7765640000000000000000006044820152fd5b6010606492602088519362461bcd60e51b85528401528201526f49523a207a65726f206164647265737360801b6044820152fd5b8680fd5b50913461025157826003193601126102515760209250549051908152f35b5091903461025157806003193601126102515761060491356105ff60016105ee610d35565b938387528660205286200154611014565b6110b8565b5080f35b50903461069657602036600319011261069657816003610626610d50565b9261062f610fb8565b6001600160a01b03938416808452600260205281842054909461065491161515610e18565b8383526002602052822082815582600182015582600282015501557f374ace31388bb8ee152e1f7ad5e216944c28a32dfedb6c9353ba26bf0cdbb15a8280a280f35b5080fd5b5090346106965780600319360112610696576106b4610d66565b602435908115158203610741578161ffff6106ee926106d1610f60565b1693848652600360205285209060ff801983541691151516179055565b1561071a577f10a288fe18db0c58a3cc576234577d307ee822eed3d098303a60e5809172c4968280a280f35b7fb7116ad3b67b1909c11a3d57b86027908d192cfc943153afef5a62ef8a8485fe8280a280f35b8380fd5b5090346106965760203660031901126106965760209061076b610766610d50565b610e89565b90519015158152f35b5090346106965760203660031901126106965761078f610d50565b610797610fb8565b61079f61112d565b6001600160a01b039081168084526002602052918320805490916107c69082161515610e18565b66ffffffffffffff60b01b19164260b881901b65ffffffffffff60b81b1691909117600160b11b17825565ffffffffffff90600190610806908316610e59565b9201911665ffffffffffff198254161790557f02f93fdaafad8edad1ca75101b1fbda62e64ab9afc26d0ea801ccf6ef02c09ab8280a280f35b50903461069657816003193601126106965751908152602090f35b5090346106965760203660031901126106965760ff8160209361ffff61087e610d66565b1681526003855220541690519015158152f35b5091346102515781600319360112610251578160209360ff926108b2610d35565b903582528186528282206001600160a01b039091168252855220549151911615158152f35b50903461069657816003193601126106965760207f62e78cea01bee320cd4e420270b5ea74000d11b0c9f74754ebdbfc544b05a25891610915610f60565b61091d61112d565b600160ff198154161760015551338152a180f35b5091903461025157806003193601126102515761094c610d50565b6024359265ffffffffffff841680940361024957610968610fb8565b6001600160a01b03918216808652600260205283862054909261098d91161515610e18565b428411156109b55750835260026020528220600101805465ffffffffffff1916909117905580f35b606490602084519162461bcd60e51b8352820152601260248201527112548e88195e1c1a5c9e481a5b881c185cdd60721b6044820152fd5b50903461069657806003193601126106965760209061076b610a0d610d50565b610a15610d35565b90610dcf565b50903461069657816003193601126106965760209060ff6001541690519015158152f35b509134610251578260031936011261025157610a59610f60565b6001549060ff821615610a9b575060ff1916600155513381527f5db9ee0a495bf2e6ff9c91a7834c1ba4fdd244a5e8aa4e537bd38aeae4b073aa90602090a180f35b8251638dfc202b60e01b8152fd5b509034610696578060031936011261069657610ac3610d35565b90336001600160a01b03831603610ae057506106049192356110b8565b5163334bd91960e11b81528390fd5b503461016057602036600319011261016057610b09610d50565b908060c0610b15610d77565b82815282602082015282868201528260608201528260808201528260a0820152015260018060a01b038092168152600260205282812092610b54610d77565b938492815490858216855261ffff936020860194808460a01c16865281870190610b8460ff8660b01c1683610dad565b65ffffffffffff968760608a019660b81c16865260ff60038960018a0154169860808c01998a5260a060028201549c019b8c520154169960c08c019a15158b5284519b51168b52511660208a015251916005831015610c0457508701525182166060860152511660808401525160a083015251151560c082015260e09150f35b634e487b7160e01b815260218a52602490fd5b509190346102515780600319360112610251576106049135610c3c60016105ee610d35565b61103a565b50913461025157602036600319011261025157816020936001923581528085522001549051908152f35b509034610696578160031936011261069657602090517fcab5a0bfe0b79d2c4b1c2e02599fa044d115b7511f9659307cb42769509677098152f35b509034610696578160031936011261069657602090517f442a94f1a1fac79af32856af2a64f63648cfa2ef3b98610a5bb7cbec4cee69858152f35b90508334610251576020366003190112610251573563ffffffff60e01b81168091036102515760209250637965db0b60e01b8114908115610d24575b5015158152f35b6301ffc9a760e01b14905083610d1d565b602435906001600160a01b0382168203610d4b57565b600080fd5b600435906001600160a01b0382168203610d4b57565b6004359061ffff82168203610d4b57565b6040519060e0820182811067ffffffffffffffff821117610d9757604052565b634e487b7160e01b600052604160045260246000fd5b6005821015610db95752565b634e487b7160e01b600052602160045260246000fd5b6001600160a01b0381811615610e0d57821615610e0657610def90610e89565b9081610df9575090565b610e039150610e89565b90565b5050600190565b5050610e0390610e89565b15610e1f57565b60405162461bcd60e51b815260206004820152601260248201527112548e881b9bdd081c9959da5cdd195c995960721b6044820152606490fd5b906301e1338065ffffffffffff80931601918211610e7357565b634e487b7160e01b600052601160045260246000fd5b6001600160a01b039081166000908152600260205260409020805491821615159182610ee2575b5081610ed3575b81610ec0575090565b65ffffffffffff91506001015416421090565b600381015460ff169150610eb7565b60ff91925060b01c166005811015610db95760028114908115610f08575b509038610eb0565b600391501438610f00565b600454811015610f4a5760046000527f8a35acfbc15ff81a39ae7d344fd709f28e8600b4aa8c65c6b64bfe7fe36bd19b0190600090565b634e487b7160e01b600052603260045260246000fd5b3360009081527fad3228b676f7d3cd4284a5443f17f1962b36e491b30a40b2405849e597ba5fb5602052604081205460ff1615610f9a5750565b6044906040519063e2517d3f60e01b82523360048301526024820152fd5b3360009081527f335573aa7cafba10a32e2694464d1e7e5294d917876d04d506249fbf84d791af60205260409020547f442a94f1a1fac79af32856af2a64f63648cfa2ef3b98610a5bb7cbec4cee69859060ff1615610f9a5750565b80600052600060205260406000203360005260205260ff6040600020541615610f9a5750565b9060009180835282602052604083209160018060a01b03169182845260205260ff604084205416156000146110b357808352826020526040832082845260205260408320600160ff198254161790557f2f8788117e7eff1d82e926ec794901d17c78024a50270940304540a733656f0d339380a4600190565b505090565b9060009180835282602052604083209160018060a01b03169182845260205260ff6040842054166000146110b35780835282602052604083208284526020526040832060ff1981541690557ff6391f5c32d9c69d2a47ea670b442974b53935d1edc7fd64eb21e047a839171b339380a4600190565b60ff6001541661113957565b60405163d93c066560e01b8152600490fdfea26469706673582212208e45a152a8d9a8f5eea464df929764c25f68e50fe15a7a386cb27e51fc235fba64736f6c634300081800332f8788117e7eff1d82e926ec794901d17c78024a50270940304540a733656f0d","opcodes":"PUSH1 0x80 CALLVALUE PUSH3 0x165 JUMPI PUSH3 0x1459 SWAP1 PUSH1 0x1F CODESIZE DUP4 SWAP1 SUB SWAP1 DUP2 ADD PUSH1 0x1F NOT AND DUP3 ADD SWAP1 PUSH1 0x1 PUSH1 0x1 PUSH1 0x40 SHL SUB DUP3 GT DUP4 DUP4 LT OR PUSH3 0x16A JUMPI DUP1 DUP4 SWAP2 PUSH1 0x40 SWAP6 DUP7 SWAP5 DUP6 MSTORE DUP4 CODECOPY DUP2 ADD SUB SLT PUSH3 0x165 JUMPI DUP1 PUSH3 0x72 PUSH3 0x66 PUSH1 0x20 PUSH3 0x5E PUSH3 0x79 SWAP6 PUSH3 0x180 JUMP JUMPDEST SWAP4 ADD PUSH3 0x180 JUMP JUMPDEST SWAP2 PUSH3 0x72 DUP2 PUSH3 0x195 JUMP JUMPDEST POP PUSH3 0x215 JUMP JUMPDEST POP PUSH2 0x2BE PUSH1 0x0 SWAP1 DUP1 DUP3 MSTORE PUSH1 0x3 PUSH1 0x20 MSTORE DUP3 DUP3 KECCAK256 SWAP2 PUSH1 0x1 SWAP3 PUSH1 0xFF NOT SWAP1 DUP5 DUP3 DUP3 SLOAD AND OR SWAP1 SSTORE PUSH2 0x1CA SWAP5 DUP6 DUP4 MSTORE DUP1 DUP4 KECCAK256 DUP6 DUP4 DUP3 SLOAD AND OR SWAP1 SSTORE PUSH2 0x168 SWAP1 DUP2 DUP5 MSTORE DUP1 DUP5 KECCAK256 DUP7 DUP5 DUP3 SLOAD AND OR SWAP1 SSTORE PUSH2 0x2FC SWAP3 DUP4 DUP6 MSTORE DUP2 DUP6 KECCAK256 DUP8 DUP3 DUP3 SLOAD AND OR SWAP1 SSTORE PUSH2 0x260 SWAP7 DUP8 DUP7 MSTORE DUP3 DUP7 KECCAK256 DUP2 DUP4 DUP3 SLOAD AND OR SWAP1 SSTORE PUSH2 0x2C0 DUP7 MSTORE DUP3 DUP7 KECCAK256 DUP2 DUP4 DUP3 SLOAD AND OR SWAP1 SSTORE PUSH2 0x310 DUP7 MSTORE DUP3 DUP7 KECCAK256 DUP2 DUP4 DUP3 SLOAD AND OR SWAP1 SSTORE PUSH2 0x33A DUP7 MSTORE DUP3 DUP7 KECCAK256 DUP2 DUP4 DUP3 SLOAD AND OR SWAP1 SSTORE PUSH2 0x158 DUP7 MSTORE DUP3 DUP7 KECCAK256 SWAP2 DUP3 SLOAD AND OR SWAP1 SSTORE MLOAD SWAP6 PUSH32 0x10A288FE18DB0C58A3CC576234577D307EE822EED3D098303A60E5809172C496 SWAP5 DUP6 DUP6 DUP1 LOG2 DUP5 DUP5 DUP1 LOG2 DUP4 DUP4 DUP1 LOG2 DUP3 DUP3 DUP1 LOG2 DUP1 LOG2 PUSH2 0x1181 SWAP1 DUP2 PUSH3 0x2B8 DUP3 CODECOPY RETURN JUMPDEST PUSH1 0x0 DUP1 REVERT JUMPDEST PUSH4 0x4E487B71 PUSH1 0xE0 SHL PUSH1 0x0 MSTORE PUSH1 0x41 PUSH1 0x4 MSTORE PUSH1 0x24 PUSH1 0x0 REVERT JUMPDEST MLOAD SWAP1 PUSH1 0x1 PUSH1 0x1 PUSH1 0xA0 SHL SUB DUP3 AND DUP3 SUB PUSH3 0x165 JUMPI JUMP JUMPDEST PUSH1 0x1 PUSH1 0x1 PUSH1 0xA0 SHL SUB AND PUSH1 0x0 DUP2 DUP2 MSTORE PUSH32 0xAD3228B676F7D3CD4284A5443F17F1962B36E491B30A40B2405849E597BA5FB5 PUSH1 0x20 MSTORE PUSH1 0x40 DUP2 KECCAK256 SLOAD SWAP1 SWAP2 SWAP1 PUSH1 0xFF AND PUSH3 0x211 JUMPI DUP2 DUP1 MSTORE DUP2 PUSH1 0x20 MSTORE PUSH1 0x40 DUP3 KECCAK256 DUP2 DUP4 MSTORE PUSH1 0x20 MSTORE PUSH1 0x40 DUP3 KECCAK256 PUSH1 0x1 PUSH1 0xFF NOT DUP3 SLOAD AND OR SWAP1 SSTORE CALLER SWAP2 PUSH1 0x0 DUP1 MLOAD PUSH1 0x20 PUSH3 0x1439 DUP4 CODECOPY DUP2 MLOAD SWAP2 MSTORE DUP2 DUP1 LOG4 PUSH1 0x1 SWAP1 JUMP JUMPDEST POP SWAP1 JUMP JUMPDEST PUSH1 0x1 PUSH1 0x1 PUSH1 0xA0 SHL SUB AND PUSH1 0x0 DUP2 DUP2 MSTORE PUSH32 0x335573AA7CAFBA10A32E2694464D1E7E5294D917876D04D506249FBF84D791AF PUSH1 0x20 MSTORE PUSH1 0x40 DUP2 KECCAK256 SLOAD SWAP1 SWAP2 SWAP1 PUSH32 0x442A94F1A1FAC79AF32856AF2A64F63648CFA2EF3B98610A5BB7CBEC4CEE6985 SWAP1 PUSH1 0xFF AND PUSH3 0x2B2 JUMPI DUP1 DUP4 MSTORE DUP3 PUSH1 0x20 MSTORE PUSH1 0x40 DUP4 KECCAK256 DUP3 DUP5 MSTORE PUSH1 0x20 MSTORE PUSH1 0x40 DUP4 KECCAK256 PUSH1 0x1 PUSH1 0xFF NOT DUP3 SLOAD AND OR SWAP1 SSTORE PUSH1 0x0 DUP1 MLOAD PUSH1 0x20 PUSH3 0x1439 DUP4 CODECOPY DUP2 MLOAD SWAP2 MSTORE CALLER SWAP4 DUP1 LOG4 PUSH1 0x1 SWAP1 JUMP JUMPDEST POP POP SWAP1 JUMP INVALID PUSH1 0x80 PUSH1 0x40 DUP2 DUP2 MSTORE PUSH1 0x4 SWAP2 DUP3 CALLDATASIZE LT ISZERO PUSH2 0x16 JUMPI PUSH1 0x0 DUP1 REVERT JUMPDEST PUSH1 0x0 SWAP1 DUP2 CALLDATALOAD PUSH1 0xE0 SHR SWAP1 DUP2 PUSH4 0x1FFC9A7 EQ PUSH2 0xCE1 JUMPI POP DUP1 PUSH4 0x62D3BD7 EQ PUSH2 0xCA6 JUMPI DUP1 PUSH4 0x22459E18 EQ PUSH2 0xC6B JUMPI DUP1 PUSH4 0x248A9CA3 EQ PUSH2 0xC41 JUMPI DUP1 PUSH4 0x2F2FF15D EQ PUSH2 0xC17 JUMPI DUP1 PUSH4 0x2FEA7B81 EQ PUSH2 0xAEF JUMPI DUP1 PUSH4 0x36568ABE EQ PUSH2 0xAA9 JUMPI DUP1 PUSH4 0x3F4BA83A EQ PUSH2 0xA3F JUMPI DUP1 PUSH4 0x5C975ABB EQ PUSH2 0xA1B JUMPI DUP1 PUSH4 0x6C85CF67 EQ PUSH2 0x9ED JUMPI DUP1 PUSH4 0x82B32C28 EQ PUSH2 0x931 JUMPI DUP1 PUSH4 0x8456CB59 EQ PUSH2 0x8D7 JUMPI DUP1 PUSH4 0x91D14854 EQ PUSH2 0x891 JUMPI DUP1 PUSH4 0x99F644F6 EQ PUSH2 0x85A JUMPI DUP1 PUSH4 0xA217FDDF EQ PUSH2 0x83F JUMPI DUP1 PUSH4 0xB5B90FD9 EQ PUSH2 0x774 JUMPI DUP1 PUSH4 0xB9209E33 EQ PUSH2 0x745 JUMPI DUP1 PUSH4 0xBFF9C1C4 EQ PUSH2 0x69A JUMPI DUP1 PUSH4 0xC1F2F1AA EQ PUSH2 0x608 JUMPI DUP1 PUSH4 0xD547741F EQ PUSH2 0x5C9 JUMPI DUP1 PUSH4 0xD7E64C00 EQ PUSH2 0x5AB JUMPI DUP1 PUSH4 0xE00DE9EA EQ PUSH2 0x255 JUMPI DUP1 PUSH4 0xEA409A9B EQ PUSH2 0x163 JUMPI PUSH4 0xF6450293 EQ PUSH2 0x12C JUMPI PUSH1 0x0 DUP1 REVERT JUMPDEST CALLVALUE PUSH2 0x160 JUMPI PUSH1 0x20 CALLDATASIZE PUSH1 0x3 NOT ADD SLT PUSH2 0x160 JUMPI POP PUSH2 0x14A PUSH1 0x20 SWAP3 CALLDATALOAD PUSH2 0xF13 JUMP JUMPDEST SWAP1 SLOAD SWAP2 MLOAD SWAP2 PUSH1 0x1 DUP1 PUSH1 0xA0 SHL SUB SWAP2 PUSH1 0x3 SHL SHR AND DUP2 MSTORE RETURN JUMPDEST DUP1 REVERT JUMPDEST POP SWAP2 SWAP1 CALLVALUE PUSH2 0x251 JUMPI DUP1 PUSH1 0x3 NOT CALLDATASIZE ADD SLT PUSH2 0x251 JUMPI PUSH2 0x17E PUSH2 0xD50 JUMP JUMPDEST SWAP2 PUSH1 0x24 CALLDATALOAD SWAP2 PUSH8 0xFFFFFFFFFFFFFFFF SWAP2 DUP3 DUP5 GT PUSH2 0x24D JUMPI CALLDATASIZE PUSH1 0x23 DUP6 ADD SLT ISZERO PUSH2 0x24D JUMPI DUP4 ADD CALLDATALOAD SWAP2 DUP3 GT PUSH2 0x249 JUMPI CALLDATASIZE PUSH1 0x24 DUP4 DUP6 ADD ADD GT PUSH2 0x249 JUMPI PUSH32 0xC5630026BA7CC7C7EDCFCAF243FF5A4F6DB6DD295302B966CFAD33DC9B2E3597 SWAP3 PUSH1 0x24 SWAP3 PUSH2 0x1E2 PUSH2 0xFB8 JUMP JUMPDEST PUSH1 0x1 PUSH1 0x1 PUSH1 0xA0 SHL SUB SWAP6 DUP7 AND DUP1 DUP9 MSTORE PUSH1 0x2 PUSH1 0x20 MSTORE DUP4 DUP9 KECCAK256 DUP1 SLOAD SWAP2 SWAP8 SWAP1 SWAP2 SWAP1 PUSH2 0x20C SWAP1 DUP3 AND ISZERO ISZERO PUSH2 0xE18 JUMP JUMPDEST PUSH1 0xFF PUSH1 0xB0 SHL NOT AND PUSH1 0x1 PUSH1 0xB2 SHL OR SWAP1 SSTORE DUP3 MLOAD PUSH1 0x20 DUP1 DUP3 MSTORE DUP2 ADD DUP3 SWAP1 MSTORE SWAP4 DUP5 SWAP3 DUP3 SWAP2 ADD DUP4 DUP6 ADD CALLDATACOPY DUP2 DUP2 ADD DUP4 ADD DUP8 SWAP1 MSTORE PUSH1 0x1F ADD PUSH1 0x1F NOT AND DUP2 ADD SUB ADD SWAP1 LOG2 DUP1 RETURN JUMPDEST DUP5 DUP1 REVERT JUMPDEST DUP6 DUP1 REVERT JUMPDEST DUP3 DUP1 REVERT JUMPDEST POP SWAP2 SWAP1 CALLVALUE PUSH2 0x251 JUMPI PUSH1 0x80 CALLDATASIZE PUSH1 0x3 NOT ADD SLT PUSH2 0x251 JUMPI PUSH2 0x271 PUSH2 0xD50 JUMP JUMPDEST PUSH1 0x24 SWAP1 DUP2 CALLDATALOAD SWAP2 PUSH2 0xFFFF DUP4 AND DUP1 SWAP4 SUB PUSH2 0x24D JUMPI PUSH1 0x44 CALLDATALOAD SWAP1 PUSH1 0x5 DUP3 LT ISZERO PUSH2 0x5A7 JUMPI PUSH2 0x298 PUSH2 0xFB8 JUMP JUMPDEST PUSH2 0x2A0 PUSH2 0x112D JUMP JUMPDEST PUSH1 0x1 PUSH1 0x1 PUSH1 0xA0 SHL SUB SWAP3 DUP4 AND SWAP6 DUP7 ISZERO PUSH2 0x573 JUMPI DUP5 DUP9 MSTORE PUSH1 0x20 SWAP4 PUSH1 0x3 DUP6 MSTORE PUSH1 0xFF DUP8 DUP11 KECCAK256 SLOAD AND ISZERO PUSH2 0x532 JUMPI DUP9 SWAP1 DUP5 ISZERO ISZERO DUP1 PUSH2 0x524 JUMPI JUMPDEST ISZERO PUSH2 0x4EF JUMPI DUP9 DUP11 MSTORE PUSH1 0x2 DUP7 MSTORE DUP1 DUP9 DUP12 KECCAK256 SLOAD AND PUSH2 0x4B4 JUMPI DUP10 DUP10 DUP8 DUP11 PUSH6 0xFFFFFFFFFFFF DUP1 TIMESTAMP AND DUP13 DUP12 DUP9 PUSH2 0x303 DUP5 PUSH2 0xE59 JUMP JUMPDEST SWAP6 PUSH2 0x30C PUSH2 0xD77 JUMP JUMPDEST SWAP10 DUP10 DUP12 MSTORE DUP9 DUP12 ADD SWAP5 DUP6 MSTORE PUSH2 0x323 DUP3 DUP13 ADD SWAP5 DUP6 PUSH2 0xDAD JUMP JUMPDEST PUSH1 0x60 DUP12 ADD SWAP6 DUP7 MSTORE DUP7 PUSH1 0x80 DUP13 ADD SWAP9 AND DUP9 MSTORE PUSH1 0x2 PUSH1 0xA0 DUP13 ADD SWAP10 PUSH1 0x64 CALLDATALOAD DUP12 MSTORE PUSH1 0xC0 DUP14 ADD SWAP12 PUSH1 0x1 DUP14 MSTORE DUP4 MSTORE MSTORE KECCAK256 SWAP9 MLOAD AND DUP9 SLOAD SWAP3 PUSH2 0xFFFF PUSH1 0xA0 SHL SWAP1 MLOAD PUSH1 0xA0 SHL AND SWAP2 MLOAD PUSH1 0x5 DUP2 LT ISZERO PUSH2 0x49D JUMPI SWAP4 MLOAD PUSH6 0xFFFFFFFFFFFF PUSH1 0xB8 SHL SWAP1 DUP7 AND PUSH1 0xB8 SHL AND PUSH1 0xFF PUSH1 0xB0 SHL PUSH1 0xB0 SWAP6 SWAP1 SWAP6 SHL SWAP5 SWAP1 SWAP5 AND PUSH1 0x1 PUSH1 0x1 PUSH1 0xB8 SHL SUB NOT SWAP4 SWAP1 SWAP4 AND OR OR PUSH6 0xFFFFFFFFFFFF PUSH1 0xB8 SHL NOT AND OR OR DUP6 SSTORE PUSH2 0x3E7 SWAP5 SWAP4 PUSH1 0x3 SWAP4 SWAP1 SWAP3 SWAP1 SWAP2 PUSH1 0x1 DUP7 ADD SWAP2 MLOAD AND PUSH6 0xFFFFFFFFFFFF NOT DUP3 SLOAD AND OR SWAP1 SSTORE MLOAD PUSH1 0x2 DUP5 ADD SSTORE MLOAD ISZERO ISZERO SWAP2 ADD SWAP1 PUSH1 0xFF DUP1 NOT DUP4 SLOAD AND SWAP2 ISZERO ISZERO AND OR SWAP1 SSTORE JUMP JUMPDEST DUP3 SLOAD PUSH9 0x10000000000000000 DUP2 LT ISZERO PUSH2 0x48B JUMPI DUP1 PUSH1 0x1 PUSH2 0x409 SWAP3 ADD DUP6 SSTORE PUSH2 0xF13 JUMP JUMPDEST DUP2 SWAP3 SWAP2 SLOAD SWAP1 PUSH1 0x3 SHL SWAP2 DUP12 DUP4 SHL SWAP3 SHL NOT AND OR SWAP1 SSTORE PUSH2 0x47A JUMPI POP POP DUP4 MLOAD SWAP3 DUP4 MSTORE PUSH1 0xFF AND SWAP1 DUP3 ADD MSTORE DUP3 SWAP2 PUSH32 0x273D893AD72DB0ACD71223DB0123BDE9EA12544026C273B37134D948447101B0 SWAP2 LOG2 PUSH32 0x2F93FDAAFAD8EDAD1CA75101B1FBDA62E64AB9AFC26D0EA801CCF6EF02C09AB DUP3 DUP1 LOG2 DUP1 RETURN JUMPDEST PUSH4 0x4E487B71 PUSH1 0xE0 SHL DUP9 MSTORE PUSH1 0x21 SWAP1 MSTORE DUP7 REVERT JUMPDEST PUSH4 0x4E487B71 PUSH1 0xE0 SHL DUP12 MSTORE PUSH1 0x41 DUP5 MSTORE DUP5 DUP12 REVERT JUMPDEST POP POP POP POP POP DUP9 DUP16 PUSH1 0x21 DUP11 PUSH4 0x4E487B71 PUSH1 0xE0 SHL DUP4 MSTORE MSTORE REVERT JUMPDEST DUP8 MLOAD PUSH3 0x461BCD PUSH1 0xE5 SHL DUP2 MSTORE DUP1 DUP5 ADD DUP8 SWAP1 MSTORE PUSH1 0x16 DUP2 DUP7 ADD MSTORE PUSH22 0x12548E88185B1C9958591E481C9959DA5CDD195C9959 PUSH1 0x52 SHL PUSH1 0x44 DUP3 ADD MSTORE PUSH1 0x64 SWAP1 REVERT JUMPDEST DUP8 MLOAD PUSH3 0x461BCD PUSH1 0xE5 SHL DUP2 MSTORE DUP1 DUP5 ADD DUP8 SWAP1 MSTORE PUSH1 0x10 DUP2 DUP7 ADD MSTORE PUSH16 0x24A91D1034B73B30B634B2103A34B2B9 PUSH1 0x81 SHL PUSH1 0x44 DUP3 ADD MSTORE PUSH1 0x64 SWAP1 REVERT JUMPDEST POP DUP10 SWAP2 POP PUSH1 0x1 DUP6 EQ ISZERO PUSH2 0x2D3 JUMP JUMPDEST POP PUSH1 0x17 PUSH1 0x64 SWAP3 DUP6 DUP9 MLOAD SWAP4 PUSH3 0x461BCD PUSH1 0xE5 SHL DUP6 MSTORE DUP5 ADD MSTORE DUP3 ADD MSTORE PUSH32 0x49523A20636F756E747279206E6F7420616C6C6F776564000000000000000000 PUSH1 0x44 DUP3 ADD MSTORE REVERT JUMPDEST PUSH1 0x10 PUSH1 0x64 SWAP3 PUSH1 0x20 DUP9 MLOAD SWAP4 PUSH3 0x461BCD PUSH1 0xE5 SHL DUP6 MSTORE DUP5 ADD MSTORE DUP3 ADD MSTORE PUSH16 0x49523A207A65726F2061646472657373 PUSH1 0x80 SHL PUSH1 0x44 DUP3 ADD MSTORE REVERT JUMPDEST DUP7 DUP1 REVERT JUMPDEST POP SWAP2 CALLVALUE PUSH2 0x251 JUMPI DUP3 PUSH1 0x3 NOT CALLDATASIZE ADD SLT PUSH2 0x251 JUMPI PUSH1 0x20 SWAP3 POP SLOAD SWAP1 MLOAD SWAP1 DUP2 MSTORE RETURN JUMPDEST POP SWAP2 SWAP1 CALLVALUE PUSH2 0x251 JUMPI DUP1 PUSH1 0x3 NOT CALLDATASIZE ADD SLT PUSH2 0x251 JUMPI PUSH2 0x604 SWAP2 CALLDATALOAD PUSH2 0x5FF PUSH1 0x1 PUSH2 0x5EE PUSH2 0xD35 JUMP JUMPDEST SWAP4 DUP4 DUP8 MSTORE DUP7 PUSH1 0x20 MSTORE DUP7 KECCAK256 ADD SLOAD PUSH2 0x1014 JUMP JUMPDEST PUSH2 0x10B8 JUMP JUMPDEST POP DUP1 RETURN JUMPDEST POP SWAP1 CALLVALUE PUSH2 0x696 JUMPI PUSH1 0x20 CALLDATASIZE PUSH1 0x3 NOT ADD SLT PUSH2 0x696 JUMPI DUP2 PUSH1 0x3 PUSH2 0x626 PUSH2 0xD50 JUMP JUMPDEST SWAP3 PUSH2 0x62F PUSH2 0xFB8 JUMP JUMPDEST PUSH1 0x1 PUSH1 0x1 PUSH1 0xA0 SHL SUB SWAP4 DUP5 AND DUP1 DUP5 MSTORE PUSH1 0x2 PUSH1 0x20 MSTORE DUP2 DUP5 KECCAK256 SLOAD SWAP1 SWAP5 PUSH2 0x654 SWAP2 AND ISZERO ISZERO PUSH2 0xE18 JUMP JUMPDEST DUP4 DUP4 MSTORE PUSH1 0x2 PUSH1 0x20 MSTORE DUP3 KECCAK256 DUP3 DUP2 SSTORE DUP3 PUSH1 0x1 DUP3 ADD SSTORE DUP3 PUSH1 0x2 DUP3 ADD SSTORE ADD SSTORE PUSH32 0x374ACE31388BB8EE152E1F7AD5E216944C28A32DFEDB6C9353BA26BF0CDBB15A DUP3 DUP1 LOG2 DUP1 RETURN JUMPDEST POP DUP1 REVERT JUMPDEST POP SWAP1 CALLVALUE PUSH2 0x696 JUMPI DUP1 PUSH1 0x3 NOT CALLDATASIZE ADD SLT PUSH2 0x696 JUMPI PUSH2 0x6B4 PUSH2 0xD66 JUMP JUMPDEST PUSH1 0x24 CALLDATALOAD SWAP1 DUP2 ISZERO ISZERO DUP3 SUB PUSH2 0x741 JUMPI DUP2 PUSH2 0xFFFF PUSH2 0x6EE SWAP3 PUSH2 0x6D1 PUSH2 0xF60 JUMP JUMPDEST AND SWAP4 DUP5 DUP7 MSTORE PUSH1 0x3 PUSH1 0x20 MSTORE DUP6 KECCAK256 SWAP1 PUSH1 0xFF DUP1 NOT DUP4 SLOAD AND SWAP2 ISZERO ISZERO AND OR SWAP1 SSTORE JUMP JUMPDEST ISZERO PUSH2 0x71A JUMPI PUSH32 0x10A288FE18DB0C58A3CC576234577D307EE822EED3D098303A60E5809172C496 DUP3 DUP1 LOG2 DUP1 RETURN JUMPDEST PUSH32 0xB7116AD3B67B1909C11A3D57B86027908D192CFC943153AFEF5A62EF8A8485FE DUP3 DUP1 LOG2 DUP1 RETURN JUMPDEST DUP4 DUP1 REVERT JUMPDEST POP SWAP1 CALLVALUE PUSH2 0x696 JUMPI PUSH1 0x20 CALLDATASIZE PUSH1 0x3 NOT ADD SLT PUSH2 0x696 JUMPI PUSH1 0x20 SWAP1 PUSH2 0x76B PUSH2 0x766 PUSH2 0xD50 JUMP JUMPDEST PUSH2 0xE89 JUMP JUMPDEST SWAP1 MLOAD SWAP1 ISZERO ISZERO DUP2 MSTORE RETURN JUMPDEST POP SWAP1 CALLVALUE PUSH2 0x696 JUMPI PUSH1 0x20 CALLDATASIZE PUSH1 0x3 NOT ADD SLT PUSH2 0x696 JUMPI PUSH2 0x78F PUSH2 0xD50 JUMP JUMPDEST PUSH2 0x797 PUSH2 0xFB8 JUMP JUMPDEST PUSH2 0x79F PUSH2 0x112D JUMP JUMPDEST PUSH1 0x1 PUSH1 0x1 PUSH1 0xA0 SHL SUB SWAP1 DUP2 AND DUP1 DUP5 MSTORE PUSH1 0x2 PUSH1 0x20 MSTORE SWAP2 DUP4 KECCAK256 DUP1 SLOAD SWAP1 SWAP2 PUSH2 0x7C6 SWAP1 DUP3 AND ISZERO ISZERO PUSH2 0xE18 JUMP JUMPDEST PUSH7 0xFFFFFFFFFFFFFF PUSH1 0xB0 SHL NOT AND TIMESTAMP PUSH1 0xB8 DUP2 SWAP1 SHL PUSH6 0xFFFFFFFFFFFF PUSH1 0xB8 SHL AND SWAP2 SWAP1 SWAP2 OR PUSH1 0x1 PUSH1 0xB1 SHL OR DUP3 SSTORE PUSH6 0xFFFFFFFFFFFF SWAP1 PUSH1 0x1 SWAP1 PUSH2 0x806 SWAP1 DUP4 AND PUSH2 0xE59 JUMP JUMPDEST SWAP3 ADD SWAP2 AND PUSH6 0xFFFFFFFFFFFF NOT DUP3 SLOAD AND OR SWAP1 SSTORE PUSH32 0x2F93FDAAFAD8EDAD1CA75101B1FBDA62E64AB9AFC26D0EA801CCF6EF02C09AB DUP3 DUP1 LOG2 DUP1 RETURN JUMPDEST POP SWAP1 CALLVALUE PUSH2 0x696 JUMPI DUP2 PUSH1 0x3 NOT CALLDATASIZE ADD SLT PUSH2 0x696 JUMPI MLOAD SWAP1 DUP2 MSTORE PUSH1 0x20 SWAP1 RETURN JUMPDEST POP SWAP1 CALLVALUE PUSH2 0x696 JUMPI PUSH1 0x20 CALLDATASIZE PUSH1 0x3 NOT ADD SLT PUSH2 0x696 JUMPI PUSH1 0xFF DUP2 PUSH1 0x20 SWAP4 PUSH2 0xFFFF PUSH2 0x87E PUSH2 0xD66 JUMP JUMPDEST AND DUP2 MSTORE PUSH1 0x3 DUP6 MSTORE KECCAK256 SLOAD AND SWAP1 MLOAD SWAP1 ISZERO ISZERO DUP2 MSTORE RETURN JUMPDEST POP SWAP2 CALLVALUE PUSH2 0x251 JUMPI DUP2 PUSH1 0x3 NOT CALLDATASIZE ADD SLT PUSH2 0x251 JUMPI DUP2 PUSH1 0x20 SWAP4 PUSH1 0xFF SWAP3 PUSH2 0x8B2 PUSH2 0xD35 JUMP JUMPDEST SWAP1 CALLDATALOAD DUP3 MSTORE DUP2 DUP7 MSTORE DUP3 DUP3 KECCAK256 PUSH1 0x1 PUSH1 0x1 PUSH1 0xA0 SHL SUB SWAP1 SWAP2 AND DUP3 MSTORE DUP6 MSTORE KECCAK256 SLOAD SWAP2 MLOAD SWAP2 AND ISZERO ISZERO DUP2 MSTORE RETURN JUMPDEST POP SWAP1 CALLVALUE PUSH2 0x696 JUMPI DUP2 PUSH1 0x3 NOT CALLDATASIZE ADD SLT PUSH2 0x696 JUMPI PUSH1 0x20 PUSH32 0x62E78CEA01BEE320CD4E420270B5EA74000D11B0C9F74754EBDBFC544B05A258 SWAP2 PUSH2 0x915 PUSH2 0xF60 JUMP JUMPDEST PUSH2 0x91D PUSH2 0x112D JUMP JUMPDEST PUSH1 0x1 PUSH1 0xFF NOT DUP2 SLOAD AND OR PUSH1 0x1 SSTORE MLOAD CALLER DUP2 MSTORE LOG1 DUP1 RETURN JUMPDEST POP SWAP2 SWAP1 CALLVALUE PUSH2 0x251 JUMPI DUP1 PUSH1 0x3 NOT CALLDATASIZE ADD SLT PUSH2 0x251 JUMPI PUSH2 0x94C PUSH2 0xD50 JUMP JUMPDEST PUSH1 0x24 CALLDATALOAD SWAP3 PUSH6 0xFFFFFFFFFFFF DUP5 AND DUP1 SWAP5 SUB PUSH2 0x249 JUMPI PUSH2 0x968 PUSH2 0xFB8 JUMP JUMPDEST PUSH1 0x1 PUSH1 0x1 PUSH1 0xA0 SHL SUB SWAP2 DUP3 AND DUP1 DUP7 MSTORE PUSH1 0x2 PUSH1 0x20 MSTORE DUP4 DUP7 KECCAK256 SLOAD SWAP1 SWAP3 PUSH2 0x98D SWAP2 AND ISZERO ISZERO PUSH2 0xE18 JUMP JUMPDEST TIMESTAMP DUP5 GT ISZERO PUSH2 0x9B5 JUMPI POP DUP4 MSTORE PUSH1 0x2 PUSH1 0x20 MSTORE DUP3 KECCAK256 PUSH1 0x1 ADD DUP1 SLOAD PUSH6 0xFFFFFFFFFFFF NOT AND SWAP1 SWAP2 OR SWAP1 SSTORE DUP1 RETURN JUMPDEST PUSH1 0x64 SWAP1 PUSH1 0x20 DUP5 MLOAD SWAP2 PUSH3 0x461BCD PUSH1 0xE5 SHL DUP4 MSTORE DUP3 ADD MSTORE PUSH1 0x12 PUSH1 0x24 DUP3 ADD MSTORE PUSH18 0x12548E88195E1C1A5C9E481A5B881C185CDD PUSH1 0x72 SHL PUSH1 0x44 DUP3 ADD MSTORE REVERT JUMPDEST POP SWAP1 CALLVALUE PUSH2 0x696 JUMPI DUP1 PUSH1 0x3 NOT CALLDATASIZE ADD SLT PUSH2 0x696 JUMPI PUSH1 0x20 SWAP1 PUSH2 0x76B PUSH2 0xA0D PUSH2 0xD50 JUMP JUMPDEST PUSH2 0xA15 PUSH2 0xD35 JUMP JUMPDEST SWAP1 PUSH2 0xDCF JUMP JUMPDEST POP SWAP1 CALLVALUE PUSH2 0x696 JUMPI DUP2 PUSH1 0x3 NOT CALLDATASIZE ADD SLT PUSH2 0x696 JUMPI PUSH1 0x20 SWAP1 PUSH1 0xFF PUSH1 0x1 SLOAD AND SWAP1 MLOAD SWAP1 ISZERO ISZERO DUP2 MSTORE RETURN JUMPDEST POP SWAP2 CALLVALUE PUSH2 0x251 JUMPI DUP3 PUSH1 0x3 NOT CALLDATASIZE ADD SLT PUSH2 0x251 JUMPI PUSH2 0xA59 PUSH2 0xF60 JUMP JUMPDEST PUSH1 0x1 SLOAD SWAP1 PUSH1 0xFF DUP3 AND ISZERO PUSH2 0xA9B JUMPI POP PUSH1 0xFF NOT AND PUSH1 0x1 SSTORE MLOAD CALLER DUP2 MSTORE PUSH32 0x5DB9EE0A495BF2E6FF9C91A7834C1BA4FDD244A5E8AA4E537BD38AEAE4B073AA SWAP1 PUSH1 0x20 SWAP1 LOG1 DUP1 RETURN JUMPDEST DUP3 MLOAD PUSH4 0x8DFC202B PUSH1 0xE0 SHL DUP2 MSTORE REVERT JUMPDEST POP SWAP1 CALLVALUE PUSH2 0x696 JUMPI DUP1 PUSH1 0x3 NOT CALLDATASIZE ADD SLT PUSH2 0x696 JUMPI PUSH2 0xAC3 PUSH2 0xD35 JUMP JUMPDEST SWAP1 CALLER PUSH1 0x1 PUSH1 0x1 PUSH1 0xA0 SHL SUB DUP4 AND SUB PUSH2 0xAE0 JUMPI POP PUSH2 0x604 SWAP2 SWAP3 CALLDATALOAD PUSH2 0x10B8 JUMP JUMPDEST MLOAD PUSH4 0x334BD919 PUSH1 0xE1 SHL DUP2 MSTORE DUP4 SWAP1 REVERT JUMPDEST POP CALLVALUE PUSH2 0x160 JUMPI PUSH1 0x20 CALLDATASIZE PUSH1 0x3 NOT ADD SLT PUSH2 0x160 JUMPI PUSH2 0xB09 PUSH2 0xD50 JUMP JUMPDEST SWAP1 DUP1 PUSH1 0xC0 PUSH2 0xB15 PUSH2 0xD77 JUMP JUMPDEST DUP3 DUP2 MSTORE DUP3 PUSH1 0x20 DUP3 ADD MSTORE DUP3 DUP7 DUP3 ADD MSTORE DUP3 PUSH1 0x60 DUP3 ADD MSTORE DUP3 PUSH1 0x80 DUP3 ADD MSTORE DUP3 PUSH1 0xA0 DUP3 ADD MSTORE ADD MSTORE PUSH1 0x1 DUP1 PUSH1 0xA0 SHL SUB DUP1 SWAP3 AND DUP2 MSTORE PUSH1 0x2 PUSH1 0x20 MSTORE DUP3 DUP2 KECCAK256 SWAP3 PUSH2 0xB54 PUSH2 0xD77 JUMP JUMPDEST SWAP4 DUP5 SWAP3 DUP2 SLOAD SWAP1 DUP6 DUP3 AND DUP6 MSTORE PUSH2 0xFFFF SWAP4 PUSH1 0x20 DUP7 ADD SWAP5 DUP1 DUP5 PUSH1 0xA0 SHR AND DUP7 MSTORE DUP2 DUP8 ADD SWAP1 PUSH2 0xB84 PUSH1 0xFF DUP7 PUSH1 0xB0 SHR AND DUP4 PUSH2 0xDAD JUMP JUMPDEST PUSH6 0xFFFFFFFFFFFF SWAP7 DUP8 PUSH1 0x60 DUP11 ADD SWAP7 PUSH1 0xB8 SHR AND DUP7 MSTORE PUSH1 0xFF PUSH1 0x3 DUP10 PUSH1 0x1 DUP11 ADD SLOAD AND SWAP9 PUSH1 0x80 DUP13 ADD SWAP10 DUP11 MSTORE PUSH1 0xA0 PUSH1 0x2 DUP3 ADD SLOAD SWAP13 ADD SWAP12 DUP13 MSTORE ADD SLOAD AND SWAP10 PUSH1 0xC0 DUP13 ADD SWAP11 ISZERO ISZERO DUP12 MSTORE DUP5 MLOAD SWAP12 MLOAD AND DUP12 MSTORE MLOAD AND PUSH1 0x20 DUP11 ADD MSTORE MLOAD SWAP2 PUSH1 0x5 DUP4 LT ISZERO PUSH2 0xC04 JUMPI POP DUP8 ADD MSTORE MLOAD DUP3 AND PUSH1 0x60 DUP7 ADD MSTORE MLOAD AND PUSH1 0x80 DUP5 ADD MSTORE MLOAD PUSH1 0xA0 DUP4 ADD MSTORE MLOAD ISZERO ISZERO PUSH1 0xC0 DUP3 ADD MSTORE PUSH1 0xE0 SWAP2 POP RETURN JUMPDEST PUSH4 0x4E487B71 PUSH1 0xE0 SHL DUP2 MSTORE PUSH1 0x21 DUP11 MSTORE PUSH1 0x24 SWAP1 REVERT JUMPDEST POP SWAP2 SWAP1 CALLVALUE PUSH2 0x251 JUMPI DUP1 PUSH1 0x3 NOT CALLDATASIZE ADD SLT PUSH2 0x251 JUMPI PUSH2 0x604 SWAP2 CALLDATALOAD PUSH2 0xC3C PUSH1 0x1 PUSH2 0x5EE PUSH2 0xD35 JUMP JUMPDEST PUSH2 0x103A JUMP JUMPDEST POP SWAP2 CALLVALUE PUSH2 0x251 JUMPI PUSH1 0x20 CALLDATASIZE PUSH1 0x3 NOT ADD SLT PUSH2 0x251 JUMPI DUP2 PUSH1 0x20 SWAP4 PUSH1 0x1 SWAP3 CALLDATALOAD DUP2 MSTORE DUP1 DUP6 MSTORE KECCAK256 ADD SLOAD SWAP1 MLOAD SWAP1 DUP2 MSTORE RETURN JUMPDEST POP SWAP1 CALLVALUE PUSH2 0x696 JUMPI DUP2 PUSH1 0x3 NOT CALLDATASIZE ADD SLT PUSH2 0x696 JUMPI PUSH1 0x20 SWAP1 MLOAD PUSH32 0xCAB5A0BFE0B79D2C4B1C2E02599FA044D115B7511F9659307CB4276950967709 DUP2 MSTORE RETURN JUMPDEST POP SWAP1 CALLVALUE PUSH2 0x696 JUMPI DUP2 PUSH1 0x3 NOT CALLDATASIZE ADD SLT PUSH2 0x696 JUMPI PUSH1 0x20 SWAP1 MLOAD PUSH32 0x442A94F1A1FAC79AF32856AF2A64F63648CFA2EF3B98610A5BB7CBEC4CEE6985 DUP2 MSTORE RETURN JUMPDEST SWAP1 POP DUP4 CALLVALUE PUSH2 0x251 JUMPI PUSH1 0x20 CALLDATASIZE PUSH1 0x3 NOT ADD SLT PUSH2 0x251 JUMPI CALLDATALOAD PUSH4 0xFFFFFFFF PUSH1 0xE0 SHL DUP2 AND DUP1 SWAP2 SUB PUSH2 0x251 JUMPI PUSH1 0x20 SWAP3 POP PUSH4 0x7965DB0B PUSH1 0xE0 SHL DUP2 EQ SWAP1 DUP2 ISZERO PUSH2 0xD24 JUMPI JUMPDEST POP ISZERO ISZERO DUP2 MSTORE RETURN JUMPDEST PUSH4 0x1FFC9A7 PUSH1 0xE0 SHL EQ SWAP1 POP DUP4 PUSH2 0xD1D JUMP JUMPDEST PUSH1 0x24 CALLDATALOAD SWAP1 PUSH1 0x1 PUSH1 0x1 PUSH1 0xA0 SHL SUB DUP3 AND DUP3 SUB PUSH2 0xD4B JUMPI JUMP JUMPDEST PUSH1 0x0 DUP1 REVERT JUMPDEST PUSH1 0x4 CALLDATALOAD SWAP1 PUSH1 0x1 PUSH1 0x1 PUSH1 0xA0 SHL SUB DUP3 AND DUP3 SUB PUSH2 0xD4B JUMPI JUMP JUMPDEST PUSH1 0x4 CALLDATALOAD SWAP1 PUSH2 0xFFFF DUP3 AND DUP3 SUB PUSH2 0xD4B JUMPI JUMP JUMPDEST PUSH1 0x40 MLOAD SWAP1 PUSH1 0xE0 DUP3 ADD DUP3 DUP2 LT PUSH8 0xFFFFFFFFFFFFFFFF DUP3 GT OR PUSH2 0xD97 JUMPI PUSH1 0x40 MSTORE JUMP JUMPDEST PUSH4 0x4E487B71 PUSH1 0xE0 SHL PUSH1 0x0 MSTORE PUSH1 0x41 PUSH1 0x4 MSTORE PUSH1 0x24 PUSH1 0x0 REVERT JUMPDEST PUSH1 0x5 DUP3 LT ISZERO PUSH2 0xDB9 JUMPI MSTORE JUMP JUMPDEST PUSH4 0x4E487B71 PUSH1 0xE0 SHL PUSH1 0x0 MSTORE PUSH1 0x21 PUSH1 0x4 MSTORE PUSH1 0x24 PUSH1 0x0 REVERT JUMPDEST PUSH1 0x1 PUSH1 0x1 PUSH1 0xA0 SHL SUB DUP2 DUP2 AND ISZERO PUSH2 0xE0D JUMPI DUP3 AND ISZERO PUSH2 0xE06 JUMPI PUSH2 0xDEF SWAP1 PUSH2 0xE89 JUMP JUMPDEST SWAP1 DUP2 PUSH2 0xDF9 JUMPI POP SWAP1 JUMP JUMPDEST PUSH2 0xE03 SWAP2 POP PUSH2 0xE89 JUMP JUMPDEST SWAP1 JUMP JUMPDEST POP POP PUSH1 0x1 SWAP1 JUMP JUMPDEST POP POP PUSH2 0xE03 SWAP1 PUSH2 0xE89 JUMP JUMPDEST ISZERO PUSH2 0xE1F JUMPI JUMP JUMPDEST PUSH1 0x40 MLOAD PUSH3 0x461BCD PUSH1 0xE5 SHL DUP2 MSTORE PUSH1 0x20 PUSH1 0x4 DUP3 ADD MSTORE PUSH1 0x12 PUSH1 0x24 DUP3 ADD MSTORE PUSH18 0x12548E881B9BDD081C9959DA5CDD195C9959 PUSH1 0x72 SHL PUSH1 0x44 DUP3 ADD MSTORE PUSH1 0x64 SWAP1 REVERT JUMPDEST SWAP1 PUSH4 0x1E13380 PUSH6 0xFFFFFFFFFFFF DUP1 SWAP4 AND ADD SWAP2 DUP3 GT PUSH2 0xE73 JUMPI JUMP JUMPDEST PUSH4 0x4E487B71 PUSH1 0xE0 SHL PUSH1 0x0 MSTORE PUSH1 0x11 PUSH1 0x4 MSTORE PUSH1 0x24 PUSH1 0x0 REVERT JUMPDEST PUSH1 0x1 PUSH1 0x1 PUSH1 0xA0 SHL SUB SWAP1 DUP2 AND PUSH1 0x0 SWAP1 DUP2 MSTORE PUSH1 0x2 PUSH1 0x20 MSTORE PUSH1 0x40 SWAP1 KECCAK256 DUP1 SLOAD SWAP2 DUP3 AND ISZERO ISZERO SWAP2 DUP3 PUSH2 0xEE2 JUMPI JUMPDEST POP DUP2 PUSH2 0xED3 JUMPI JUMPDEST DUP2 PUSH2 0xEC0 JUMPI POP SWAP1 JUMP JUMPDEST PUSH6 0xFFFFFFFFFFFF SWAP2 POP PUSH1 0x1 ADD SLOAD AND TIMESTAMP LT SWAP1 JUMP JUMPDEST PUSH1 0x3 DUP2 ADD SLOAD PUSH1 0xFF AND SWAP2 POP PUSH2 0xEB7 JUMP JUMPDEST PUSH1 0xFF SWAP2 SWAP3 POP PUSH1 0xB0 SHR AND PUSH1 0x5 DUP2 LT ISZERO PUSH2 0xDB9 JUMPI PUSH1 0x2 DUP2 EQ SWAP1 DUP2 ISZERO PUSH2 0xF08 JUMPI JUMPDEST POP SWAP1 CODESIZE PUSH2 0xEB0 JUMP JUMPDEST PUSH1 0x3 SWAP2 POP EQ CODESIZE PUSH2 0xF00 JUMP JUMPDEST PUSH1 0x4 SLOAD DUP2 LT ISZERO PUSH2 0xF4A JUMPI PUSH1 0x4 PUSH1 0x0 MSTORE PUSH32 0x8A35ACFBC15FF81A39AE7D344FD709F28E8600B4AA8C65C6B64BFE7FE36BD19B ADD SWAP1 PUSH1 0x0 SWAP1 JUMP JUMPDEST PUSH4 0x4E487B71 PUSH1 0xE0 SHL PUSH1 0x0 MSTORE PUSH1 0x32 PUSH1 0x4 MSTORE PUSH1 0x24 PUSH1 0x0 REVERT JUMPDEST CALLER PUSH1 0x0 SWAP1 DUP2 MSTORE PUSH32 0xAD3228B676F7D3CD4284A5443F17F1962B36E491B30A40B2405849E597BA5FB5 PUSH1 0x20 MSTORE PUSH1 0x40 DUP2 KECCAK256 SLOAD PUSH1 0xFF AND ISZERO PUSH2 0xF9A JUMPI POP JUMP JUMPDEST PUSH1 0x44 SWAP1 PUSH1 0x40 MLOAD SWAP1 PUSH4 0xE2517D3F PUSH1 0xE0 SHL DUP3 MSTORE CALLER PUSH1 0x4 DUP4 ADD MSTORE PUSH1 0x24 DUP3 ADD MSTORE REVERT JUMPDEST CALLER PUSH1 0x0 SWAP1 DUP2 MSTORE PUSH32 0x335573AA7CAFBA10A32E2694464D1E7E5294D917876D04D506249FBF84D791AF PUSH1 0x20 MSTORE PUSH1 0x40 SWAP1 KECCAK256 SLOAD PUSH32 0x442A94F1A1FAC79AF32856AF2A64F63648CFA2EF3B98610A5BB7CBEC4CEE6985 SWAP1 PUSH1 0xFF AND ISZERO PUSH2 0xF9A JUMPI POP JUMP JUMPDEST DUP1 PUSH1 0x0 MSTORE PUSH1 0x0 PUSH1 0x20 MSTORE PUSH1 0x40 PUSH1 0x0 KECCAK256 CALLER PUSH1 0x0 MSTORE PUSH1 0x20 MSTORE PUSH1 0xFF PUSH1 0x40 PUSH1 0x0 KECCAK256 SLOAD AND ISZERO PUSH2 0xF9A JUMPI POP JUMP JUMPDEST SWAP1 PUSH1 0x0 SWAP2 DUP1 DUP4 MSTORE DUP3 PUSH1 0x20 MSTORE PUSH1 0x40 DUP4 KECCAK256 SWAP2 PUSH1 0x1 DUP1 PUSH1 0xA0 SHL SUB AND SWAP2 DUP3 DUP5 MSTORE PUSH1 0x20 MSTORE PUSH1 0xFF PUSH1 0x40 DUP5 KECCAK256 SLOAD AND ISZERO PUSH1 0x0 EQ PUSH2 0x10B3 JUMPI DUP1 DUP4 MSTORE DUP3 PUSH1 0x20 MSTORE PUSH1 0x40 DUP4 KECCAK256 DUP3 DUP5 MSTORE PUSH1 0x20 MSTORE PUSH1 0x40 DUP4 KECCAK256 PUSH1 0x1 PUSH1 0xFF NOT DUP3 SLOAD AND OR SWAP1 SSTORE PUSH32 0x2F8788117E7EFF1D82E926EC794901D17C78024A50270940304540A733656F0D CALLER SWAP4 DUP1 LOG4 PUSH1 0x1 SWAP1 JUMP JUMPDEST POP POP SWAP1 JUMP JUMPDEST SWAP1 PUSH1 0x0 SWAP2 DUP1 DUP4 MSTORE DUP3 PUSH1 0x20 MSTORE PUSH1 0x40 DUP4 KECCAK256 SWAP2 PUSH1 0x1 DUP1 PUSH1 0xA0 SHL SUB AND SWAP2 DUP3 DUP5 MSTORE PUSH1 0x20 MSTORE PUSH1 0xFF PUSH1 0x40 DUP5 KECCAK256 SLOAD AND PUSH1 0x0 EQ PUSH2 0x10B3 JUMPI DUP1 DUP4 MSTORE DUP3 PUSH1 0x20 MSTORE PUSH1 0x40 DUP4 KECCAK256 DUP3 DUP5 MSTORE PUSH1 0x20 MSTORE PUSH1 0x40 DUP4 KECCAK256 PUSH1 0xFF NOT DUP2 SLOAD AND SWAP1 SSTORE PUSH32 0xF6391F5C32D9C69D2A47EA670B442974B53935D1EDC7FD64EB21E047A839171B CALLER SWAP4 DUP1 LOG4 PUSH1 0x1 SWAP1 JUMP JUMPDEST PUSH1 0xFF PUSH1 0x1 SLOAD AND PUSH2 0x1139 JUMPI JUMP JUMPDEST PUSH1 0x40 MLOAD PUSH4 0xD93C0665 PUSH1 0xE0 SHL DUP2 MSTORE PUSH1 0x4 SWAP1 REVERT INVALID LOG2 PUSH5 0x6970667358 0x22 SLT KECCAK256 DUP15 GASLIMIT LOG1 MSTORE 0xA8 0xD9 0xA8 CREATE2 0xEE LOG4 PUSH5 0xDF929764C2 PUSH0 PUSH9 0xE50FE15A7A386CB27E MLOAD 0xFC 0x23 PUSH0 0xBA PUSH5 0x736F6C6343 STOP ADDMOD XOR STOP CALLER 0x2F DUP8 DUP9 GT PUSH31 0x7EFF1D82E926EC794901D17C78024A50270940304540A733656F0D00000000 "},"methodIdentifiers":{"AGENT_ROLE()":"22459e18","COMPLIANCE_ROLE()":"062d3bd7","DEFAULT_ADMIN_ROLE()":"a217fddf","canTransfer(address,address)":"6c85cf67","getIdentity(address)":"2fea7b81","getInvestorAt(uint256)":"f6450293","getRoleAdmin(bytes32)":"248a9ca3","grantRole(bytes32,address)":"2f2ff15d","hasRole(bytes32,address)":"91d14854","investorCount()":"d7e64c00","isCountryAllowed(uint16)":"99f644f6","isVerified(address)":"b9209e33","pause()":"8456cb59","paused()":"5c975abb","registerIdentity(address,uint16,uint8,bytes32)":"e00de9ea","removeIdentity(address)":"c1f2f1aa","renounceRole(bytes32,address)":"36568abe","revokeRole(bytes32,address)":"d547741f","setCountryAllowed(uint16,bool)":"bff9c1c4","supportsInterface(bytes4)":"01ffc9a7","suspendIdentity(address,string)":"ea409a9b","unpause()":"3f4ba83a","updateKycExpiry(address,uint48)":"82b32c28","verifyIdentity(address)":"b5b90fd9"}}}}}