{
  "_format": "hh-sol-artifact-1",
  "contractName": "STOFactory",
  "sourceName": "contracts/STOFactory.sol",
  "abi": [
    {
      "inputs": [
        {
          "internalType": "address",
          "name": "identityRegistry_",
          "type": "address"
        },
        {
          "internalType": "address",
          "name": "usdc_",
          "type": "address"
        },
        {
          "internalType": "address",
          "name": "feeTreasury_",
          "type": "address"
        },
        {
          "internalType": "address",
          "name": "admin",
          "type": "address"
        },
        {
          "internalType": "address",
          "name": "operator",
          "type": "address"
        }
      ],
      "stateMutability": "nonpayable",
      "type": "constructor"
    },
    {
      "inputs": [],
      "name": "AccessControlBadConfirmation",
      "type": "error"
    },
    {
      "inputs": [
        {
          "internalType": "address",
          "name": "account",
          "type": "address"
        },
        {
          "internalType": "bytes32",
          "name": "neededRole",
          "type": "bytes32"
        }
      ],
      "name": "AccessControlUnauthorizedAccount",
      "type": "error"
    },
    {
      "inputs": [],
      "name": "ReentrancyGuardReentrantCall",
      "type": "error"
    },
    {
      "anonymous": false,
      "inputs": [
        {
          "indexed": true,
          "internalType": "uint16",
          "name": "oldBps",
          "type": "uint16"
        },
        {
          "indexed": true,
          "internalType": "uint16",
          "name": "newBps",
          "type": "uint16"
        }
      ],
      "name": "DefaultFeeUpdated",
      "type": "event"
    },
    {
      "anonymous": false,
      "inputs": [
        {
          "indexed": true,
          "internalType": "address",
          "name": "oldTreasury",
          "type": "address"
        },
        {
          "indexed": true,
          "internalType": "address",
          "name": "newTreasury",
          "type": "address"
        }
      ],
      "name": "FeeTreasuryUpdated",
      "type": "event"
    },
    {
      "anonymous": false,
      "inputs": [
        {
          "indexed": true,
          "internalType": "bytes32",
          "name": "stoId",
          "type": "bytes32"
        },
        {
          "indexed": true,
          "internalType": "address",
          "name": "investor",
          "type": "address"
        },
        {
          "indexed": true,
          "internalType": "uint256",
          "name": "usdcAmount",
          "type": "uint256"
        },
        {
          "indexed": false,
          "internalType": "uint256",
          "name": "tokens",
          "type": "uint256"
        }
      ],
      "name": "InvestmentProcessed",
      "type": "event"
    },
    {
      "anonymous": false,
      "inputs": [
        {
          "indexed": true,
          "internalType": "bytes32",
          "name": "role",
          "type": "bytes32"
        },
        {
          "indexed": true,
          "internalType": "bytes32",
          "name": "previousAdminRole",
          "type": "bytes32"
        },
        {
          "indexed": true,
          "internalType": "bytes32",
          "name": "newAdminRole",
          "type": "bytes32"
        }
      ],
      "name": "RoleAdminChanged",
      "type": "event"
    },
    {
      "anonymous": false,
      "inputs": [
        {
          "indexed": true,
          "internalType": "bytes32",
          "name": "role",
          "type": "bytes32"
        },
        {
          "indexed": true,
          "internalType": "address",
          "name": "account",
          "type": "address"
        },
        {
          "indexed": true,
          "internalType": "address",
          "name": "sender",
          "type": "address"
        }
      ],
      "name": "RoleGranted",
      "type": "event"
    },
    {
      "anonymous": false,
      "inputs": [
        {
          "indexed": true,
          "internalType": "bytes32",
          "name": "role",
          "type": "bytes32"
        },
        {
          "indexed": true,
          "internalType": "address",
          "name": "account",
          "type": "address"
        },
        {
          "indexed": true,
          "internalType": "address",
          "name": "sender",
          "type": "address"
        }
      ],
      "name": "RoleRevoked",
      "type": "event"
    },
    {
      "anonymous": false,
      "inputs": [
        {
          "indexed": true,
          "internalType": "bytes32",
          "name": "stoId",
          "type": "bytes32"
        },
        {
          "indexed": true,
          "internalType": "address",
          "name": "tokenAddress",
          "type": "address"
        },
        {
          "indexed": true,
          "internalType": "address",
          "name": "issuer",
          "type": "address"
        },
        {
          "indexed": false,
          "internalType": "string",
          "name": "name",
          "type": "string"
        },
        {
          "indexed": false,
          "internalType": "string",
          "name": "assetType",
          "type": "string"
        },
        {
          "indexed": false,
          "internalType": "uint256",
          "name": "targetRaise",
          "type": "uint256"
        }
      ],
      "name": "STOCreated",
      "type": "event"
    },
    {
      "anonymous": false,
      "inputs": [
        {
          "indexed": true,
          "internalType": "bytes32",
          "name": "stoId",
          "type": "bytes32"
        },
        {
          "indexed": false,
          "internalType": "string",
          "name": "reason",
          "type": "string"
        }
      ],
      "name": "STODeactivated",
      "type": "event"
    },
    {
      "inputs": [],
      "name": "COMPLIANCE_ROLE",
      "outputs": [
        {
          "internalType": "bytes32",
          "name": "",
          "type": "bytes32"
        }
      ],
      "stateMutability": "view",
      "type": "function"
    },
    {
      "inputs": [],
      "name": "DEFAULT_ADMIN_ROLE",
      "outputs": [
        {
          "internalType": "bytes32",
          "name": "",
          "type": "bytes32"
        }
      ],
      "stateMutability": "view",
      "type": "function"
    },
    {
      "inputs": [],
      "name": "OPERATOR_ROLE",
      "outputs": [
        {
          "internalType": "bytes32",
          "name": "",
          "type": "bytes32"
        }
      ],
      "stateMutability": "view",
      "type": "function"
    },
    {
      "inputs": [
        {
          "internalType": "uint256",
          "name": "",
          "type": "uint256"
        }
      ],
      "name": "allSTOIds",
      "outputs": [
        {
          "internalType": "bytes32",
          "name": "",
          "type": "bytes32"
        }
      ],
      "stateMutability": "view",
      "type": "function"
    },
    {
      "inputs": [
        {
          "components": [
            {
              "internalType": "string",
              "name": "name",
              "type": "string"
            },
            {
              "internalType": "string",
              "name": "symbol",
              "type": "string"
            },
            {
              "internalType": "string",
              "name": "assetType",
              "type": "string"
            },
            {
              "internalType": "uint256",
              "name": "targetRaise",
              "type": "uint256"
            },
            {
              "internalType": "uint256",
              "name": "tokenPrice",
              "type": "uint256"
            },
            {
              "internalType": "uint256",
              "name": "maxSupply",
              "type": "uint256"
            },
            {
              "internalType": "uint256",
              "name": "minInvestment",
              "type": "uint256"
            },
            {
              "internalType": "uint16[]",
              "name": "allowedCountries",
              "type": "uint16[]"
            },
            {
              "internalType": "uint48",
              "name": "closingDate",
              "type": "uint48"
            },
            {
              "internalType": "address",
              "name": "issuer",
              "type": "address"
            },
            {
              "internalType": "address",
              "name": "treasury",
              "type": "address"
            },
            {
              "internalType": "uint16",
              "name": "feeBps",
              "type": "uint16"
            }
          ],
          "internalType": "struct ISecurityToken.STOConfig",
          "name": "config",
          "type": "tuple"
        },
        {
          "internalType": "address",
          "name": "complianceOfficer",
          "type": "address"
        }
      ],
      "name": "createSTO",
      "outputs": [
        {
          "internalType": "bytes32",
          "name": "stoId",
          "type": "bytes32"
        },
        {
          "internalType": "address",
          "name": "tokenAddress",
          "type": "address"
        }
      ],
      "stateMutability": "nonpayable",
      "type": "function"
    },
    {
      "inputs": [
        {
          "internalType": "bytes32",
          "name": "stoId",
          "type": "bytes32"
        },
        {
          "internalType": "string",
          "name": "reason",
          "type": "string"
        }
      ],
      "name": "deactivateSTO",
      "outputs": [],
      "stateMutability": "nonpayable",
      "type": "function"
    },
    {
      "inputs": [],
      "name": "defaultFeeBps",
      "outputs": [
        {
          "internalType": "uint16",
          "name": "",
          "type": "uint16"
        }
      ],
      "stateMutability": "view",
      "type": "function"
    },
    {
      "inputs": [],
      "name": "feeTreasury",
      "outputs": [
        {
          "internalType": "address",
          "name": "",
          "type": "address"
        }
      ],
      "stateMutability": "view",
      "type": "function"
    },
    {
      "inputs": [],
      "name": "getAllSTOIds",
      "outputs": [
        {
          "internalType": "bytes32[]",
          "name": "",
          "type": "bytes32[]"
        }
      ],
      "stateMutability": "view",
      "type": "function"
    },
    {
      "inputs": [
        {
          "internalType": "address",
          "name": "issuer",
          "type": "address"
        }
      ],
      "name": "getIssuerSTOs",
      "outputs": [
        {
          "internalType": "bytes32[]",
          "name": "",
          "type": "bytes32[]"
        }
      ],
      "stateMutability": "view",
      "type": "function"
    },
    {
      "inputs": [
        {
          "internalType": "bytes32",
          "name": "role",
          "type": "bytes32"
        }
      ],
      "name": "getRoleAdmin",
      "outputs": [
        {
          "internalType": "bytes32",
          "name": "",
          "type": "bytes32"
        }
      ],
      "stateMutability": "view",
      "type": "function"
    },
    {
      "inputs": [
        {
          "internalType": "bytes32",
          "name": "stoId",
          "type": "bytes32"
        }
      ],
      "name": "getSTORecord",
      "outputs": [
        {
          "components": [
            {
              "internalType": "address",
              "name": "tokenAddress",
              "type": "address"
            },
            {
              "internalType": "address",
              "name": "issuer",
              "type": "address"
            },
            {
              "internalType": "string",
              "name": "name",
              "type": "string"
            },
            {
              "internalType": "string",
              "name": "assetType",
              "type": "string"
            },
            {
              "internalType": "uint256",
              "name": "targetRaise",
              "type": "uint256"
            },
            {
              "internalType": "uint48",
              "name": "createdAt",
              "type": "uint48"
            },
            {
              "internalType": "bool",
              "name": "active",
              "type": "bool"
            }
          ],
          "internalType": "struct STOFactory.STORecord",
          "name": "",
          "type": "tuple"
        }
      ],
      "stateMutability": "view",
      "type": "function"
    },
    {
      "inputs": [
        {
          "internalType": "bytes32",
          "name": "role",
          "type": "bytes32"
        },
        {
          "internalType": "address",
          "name": "account",
          "type": "address"
        }
      ],
      "name": "grantRole",
      "outputs": [],
      "stateMutability": "nonpayable",
      "type": "function"
    },
    {
      "inputs": [
        {
          "internalType": "bytes32",
          "name": "role",
          "type": "bytes32"
        },
        {
          "internalType": "address",
          "name": "account",
          "type": "address"
        }
      ],
      "name": "hasRole",
      "outputs": [
        {
          "internalType": "bool",
          "name": "",
          "type": "bool"
        }
      ],
      "stateMutability": "view",
      "type": "function"
    },
    {
      "inputs": [],
      "name": "identityRegistry",
      "outputs": [
        {
          "internalType": "address",
          "name": "",
          "type": "address"
        }
      ],
      "stateMutability": "view",
      "type": "function"
    },
    {
      "inputs": [
        {
          "internalType": "bytes32",
          "name": "stoId",
          "type": "bytes32"
        },
        {
          "internalType": "uint256",
          "name": "usdcAmount",
          "type": "uint256"
        }
      ],
      "name": "invest",
      "outputs": [],
      "stateMutability": "nonpayable",
      "type": "function"
    },
    {
      "inputs": [
        {
          "internalType": "address",
          "name": "",
          "type": "address"
        },
        {
          "internalType": "uint256",
          "name": "",
          "type": "uint256"
        }
      ],
      "name": "issuerSTOs",
      "outputs": [
        {
          "internalType": "bytes32",
          "name": "",
          "type": "bytes32"
        }
      ],
      "stateMutability": "view",
      "type": "function"
    },
    {
      "inputs": [
        {
          "internalType": "bytes32",
          "name": "role",
          "type": "bytes32"
        },
        {
          "internalType": "address",
          "name": "callerConfirmation",
          "type": "address"
        }
      ],
      "name": "renounceRole",
      "outputs": [],
      "stateMutability": "nonpayable",
      "type": "function"
    },
    {
      "inputs": [
        {
          "internalType": "bytes32",
          "name": "role",
          "type": "bytes32"
        },
        {
          "internalType": "address",
          "name": "account",
          "type": "address"
        }
      ],
      "name": "revokeRole",
      "outputs": [],
      "stateMutability": "nonpayable",
      "type": "function"
    },
    {
      "inputs": [
        {
          "internalType": "uint16",
          "name": "newBps",
          "type": "uint16"
        }
      ],
      "name": "setDefaultFeeBps",
      "outputs": [],
      "stateMutability": "nonpayable",
      "type": "function"
    },
    {
      "inputs": [
        {
          "internalType": "address",
          "name": "newTreasury",
          "type": "address"
        }
      ],
      "name": "setFeeTreasury",
      "outputs": [],
      "stateMutability": "nonpayable",
      "type": "function"
    },
    {
      "inputs": [],
      "name": "stoCount",
      "outputs": [
        {
          "internalType": "uint256",
          "name": "",
          "type": "uint256"
        }
      ],
      "stateMutability": "view",
      "type": "function"
    },
    {
      "inputs": [
        {
          "internalType": "bytes32",
          "name": "",
          "type": "bytes32"
        }
      ],
      "name": "stoRecords",
      "outputs": [
        {
          "internalType": "address",
          "name": "tokenAddress",
          "type": "address"
        },
        {
          "internalType": "address",
          "name": "issuer",
          "type": "address"
        },
        {
          "internalType": "string",
          "name": "name",
          "type": "string"
        },
        {
          "internalType": "string",
          "name": "assetType",
          "type": "string"
        },
        {
          "internalType": "uint256",
          "name": "targetRaise",
          "type": "uint256"
        },
        {
          "internalType": "uint48",
          "name": "createdAt",
          "type": "uint48"
        },
        {
          "internalType": "bool",
          "name": "active",
          "type": "bool"
        }
      ],
      "stateMutability": "view",
      "type": "function"
    },
    {
      "inputs": [
        {
          "internalType": "bytes4",
          "name": "interfaceId",
          "type": "bytes4"
        }
      ],
      "name": "supportsInterface",
      "outputs": [
        {
          "internalType": "bool",
          "name": "",
          "type": "bool"
        }
      ],
      "stateMutability": "view",
      "type": "function"
    },
    {
      "inputs": [],
      "name": "usdc",
      "outputs": [
        {
          "internalType": "address",
          "name": "",
          "type": "address"
        }
      ],
      "stateMutability": "view",
      "type": "function"
    }
  ],
  "bytecode": "0x60c0346200011957601f62005f2238819003918201601f19168301916001600160401b038311848410176200011e5780849260a094604052833981010312620001195780620000da62000056620000e19362000134565b620000646020840162000134565b90620000736040850162000134565b90620000906080620000886060880162000134565b960162000134565b92600180556002549160805260a052604b60a11b9160018060a01b03169060018060b01b0319161717600255620000c78362000149565b50620000d383620001c9565b50620001c9565b506200026b565b50604051615bf99081620003098239608051818181610b5f0152611870015260a05181818161075c01528181610b90015261152b0152f35b600080fd5b634e487b7160e01b600052604160045260246000fd5b51906001600160a01b03821682036200011957565b6001600160a01b031660008181527fad3228b676f7d3cd4284a5443f17f1962b36e491b30a40b2405849e597ba5fb5602052604081205490919060ff16620001c557818052816020526040822081835260205260408220600160ff19825416179055339160008051602062005f028339815191528180a4600190565b5090565b6001600160a01b031660008181527fee57cd81e84075558e8fcc182a1f4393f91fc97f963a136e66b7f949a62f319f60205260408120549091907f97667070c54ef182b0f5858b034beac1b6f3089aa2d3188bb1e8929f4fa9b9299060ff166200026657808352826020526040832082845260205260408320600160ff1982541617905560008051602062005f02833981519152339380a4600190565b505090565b6001600160a01b031660008181527f335573aa7cafba10a32e2694464d1e7e5294d917876d04d506249fbf84d791af60205260408120549091907f442a94f1a1fac79af32856af2a64f63648cfa2ef3b98610a5bb7cbec4cee69859060ff166200026657808352826020526040832082845260205260408320600160ff1982541617905560008051602062005f02833981519152339380a460019056fe60808060405260043610156200001457600080fd5b600090813560e01c90816301ffc9a7146200199657508063062d3bd714620019595780630927632b146200189f578063134e18f414620018585780631f29d28514620014c85780631fb7a0d4146200144b578063226620e414620013ee578063248a9ca314620013c05780632f2ff15d146200137b57806336568abe146200132c57806337c8233d146200078b5780633e413bee14620007445780634488b652146200067e5780635647ea9814620005ee57806360dc234014620005c3578063687d2be2146200056a5780637fa5dd9a146200043b5780637fffb57f14620002fa57806391d1485414620002ab578063a217fddf146200028d578063a90b2c43146200026d578063bcae25a41462000246578063bfa37e3714620001d6578063d547741f146200018d5763f5b541a6146200014e57600080fd5b346200018a57806003193601126200018a5760206040517f97667070c54ef182b0f5858b034beac1b6f3089aa2d3188bb1e8929f4fa9b9298152f35b80fd5b50346200018a5760403660031901126200018a57620001d2600435620001b262001bb3565b9080845283602052620001cc600160408620015462001d46565b62001dec565b5080f35b50346200018a5760203660031901126200018a57620001f462001b9c565b620001fe62001d0b565b6002546001600160a01b0391821691829082167fb213ad27ce6db647182439e573968415546e6db3ebfb04b3e84d6b0412025d418580a36001600160a01b0319161760025580f35b50346200018a57806003193601126200018a57602061ffff60025460a01c16604051908152f35b50346200018a57806003193601126200018a576020600654604051908152f35b50346200018a57806003193601126200018a57602090604051908152f35b50346200018a5760403660031901126200018a576040620002cb62001bb3565b91600435815280602052209060018060a01b0316600052602052602060ff604060002054166040519015158152f35b50346200018a57602090816003193601126200018a578060409160c08351620003238162001a2d565b82815282868201526060858201526060808201528260808201528260a082015201526004358152600383522090604051916200035f8362001a2d565b80546001600160a01b03908116845260018201548116838501908152906200038a6002840162001a6b565b916040860192835262000421620003a46003860162001a6b565b606088019081526200040d600560048801549760808b0198895201549565ffffffffffff9560a08b0195878916875260ff60c08d019960301c16151589528a826040519d8e9d8e525116908c0152511660408a01525160e060608a015261010089019062001b1c565b9051878203601f1901608089015262001b1c565b935160a0860152511660c084015251151560e08301520390f35b50346200018a5760403660031901126200018a576004356024356001600160401b03808211620005665736602383011215620005665781600401359081116200056657366024828401011162000566573360009081527f335573aa7cafba10a32e2694464d1e7e5294d917876d04d506249fbf84d791af60205260409020547f442a94f1a1fac79af32856af2a64f63648cfa2ef3b98610a5bb7cbec4cee69859060ff1615620005485750907fe67e3fdba1466fbd137ec252326aed7099b019871c05048984523a50dcbd996e9183855260036020526005604086200166ff0000000000001981541690556200054260405192839260208452602460208501920162001ca0565b0390a280f35b6044906040519063e2517d3f60e01b82523360048301526024820152fd5b8380fd5b50346200018a5760203660031901126200018a57600435600554811015620005bf5760209060056000527f036b6384b5eca791c62761152d0c79bb0604c104a5fb6f4eb0703f3154bb3db00154604051908152f35b5080fd5b50346200018a57806003193601126200018a576002546040516001600160a01b039091168152602090f35b50346200018a57602080600319360112620005bf576001600160a01b036200061562001b9c565b1682526004602052604082209160405180926020855492838152019483526020832092905b82821062000666576200066285620006558189038262001a49565b6040519182918262001b5e565b0390f35b8354865294850194600193840193909101906200063a565b50346200018a5760203660031901126200018a5761ffff6004358181168082036200073f57620006ad62001d0b565b6101f481116200070257600254928360a01c167f2e547ce9081bc30652d4cf1c91d4734dda23985c1136da3ff9c844624859dffa8580a361ffff60a01b1990911660a09190911b61ffff60a01b161760025580f35b60405162461bcd60e51b815260206004820152601560248201527408cc2c6e8dee4f27440cccaca40e8dede40d0d2ced605b1b6044820152606490fd5b600080fd5b50346200018a57806003193601126200018a576040517f00000000000000000000000000000000000000000000000000000000000000006001600160a01b03168152602090f35b50346200018a57600319604036820112620005bf576001600160401b0360043511620005bf57610180600435360391820112620005bf57620007cc62001bb3565b3360009081527fee57cd81e84075558e8fcc182a1f4393f91fc97f963a136e66b7f949a62f319f60205260409020549092907f97667070c54ef182b0f5858b034beac1b6f3089aa2d3188bb1e8929f4fa9b9299060ff16156200054857506001600160a01b03620008436004356101240162001c22565b1615620012f0576001600160a01b03620008636004356101440162001c22565b1615620012b25760649283600435013515620012775760846004350135156200123d5760a4600435013515620012025761010460043501359265ffffffffffff84168403620011ba574265ffffffffffff85161115620011be576022190160043560e401351215620005bf5760e46004350135600435016004810135906001600160401b038211620005665760248260051b3603910113620011ba57156200117e57620009166101246004350162001c22565b6074620009746200092c60048035018062001c37565b92906006548460405195869360208501986bffffffffffffffffffffffff199060601b1689526034850137820190426034830152605482015203605481018452018262001a49565b519020926040519182613d618101106001600160401b03613d61850111176200116a57613d6162001e63843960a0613d6184015262000a3e62000a0f620009e0620009c460048035018062001c6c565b61018060a0613d618a010152610220613d618901019162001ca0565b620009f660246004350160043560040162001c6c565b613d618801808403609f190160c0909101529062001ca0565b62000a2560446004350160043560040162001c6c565b613d618701808403609f190160e0909101529062001ca0565b6004803580890135613d618701610100810191909152608482013561012082015260a482013561014082015260c48201356101609091015260e4810135019391906001600160401b0390850135116200116657600484013560051b36036024850113620011665790602085949392609f19613d618701820301610180613d61880101526004850135815201926024810190875b60048201358110620011355750505065ffffffffffff16613d6184016101a001526001600160a01b0362000b0b6004356101240162001bca565b16613d6184016101c001526001600160a01b0362000b2f6004356101440162001bca565b166101e0613d618501015261ffff62000b4e6101646004350162001bf8565b16613d6184016102008101919091527f00000000000000000000000000000000000000000000000000000000000000006001600160a01b0390811660208301527f00000000000000000000000000000000000000000000000000000000000000008116604083015230606083015291909116608090910152039082f0908115620011295762000be36101246004350162001c22565b62000c4c62000bf760048035018062001c37565b9062000c3f62000c1260446004350160043560040162001c37565b9290936040519662000c248862001a2d565b6001600160a01b038a81168952166020880152369162001cc1565b6040850152369162001cc1565b6060820152846004350135608082015265ffffffffffff421660a0820152600160c082015283825260036020526040822060018060a01b038251166bffffffffffffffffffffffff60a01b9081835416178255600182019060018060a01b036020850151169082541617905560408201518051906001600160401b0382116200103f57819062000ce06002850154620019f0565b601f8111620010d3575b50602090601f83116001146200105f57869262001053575b50508160011b916000199060031b1c19161760028201555b60608201518051906001600160401b0382116200103f5762000d406003840154620019f0565b601f811162000ff5575b50602090601f831160011462000f8057600593929186918362000f74575b50508160011b916000199060031b1c19161760038201555b60808301516004820155019065ffffffffffff60a08201511666ff00000000000060c08454930151151560301b169166ffffffffffffff19161717905560018060a01b0362000dd56101246004350162001c22565b1681526004602052604081208054600160401b81101562000f5e5762000e019160018201815562001bdf565b919080549260031b600019938487831b921b1916179055600554600160401b81101562000f5e57600181018060055581101562000f4857849060056000527f036b6384b5eca791c62761152d0c79bb0604c104a5fb6f4eb0703f3154bb3db0015560065491821462000f345750604093600162000eff9201600655837fd4655862b678a4e13232ff183d9921252085cb5570586a3518fa1ec3fc5c472162000eaf6101246004350162001c22565b62000ebf60048035018062001c37565b959062000ef062000edb60446004350160043560040162001c37565b9190928c519960608b5260608b019162001ca0565b9188830360208a015262001ca0565b60043590940135858901526001600160a01b03908116949086169381900390a482519182526001600160a01b03166020820152f35b634e487b7160e01b81526011600452602490fd5b634e487b7160e01b600052603260045260246000fd5b634e487b7160e01b600052604160045260246000fd5b01519050388062000d68565b906003840186526020862091865b601f198516811062000fdc575091839160019360059695601f1981161062000fc2575b505050811b01600382015562000d80565b015160001960f88460031b161c1916905538808062000fb1565b9192602060018192868501518155019401920162000f8e565b60038401865260208620601f840160051c81016020851062001037575b601f830160051c820181106200102a57505062000d4a565b6000815560010162001012565b508062001012565b634e487b7160e01b85526041600452602485fd5b01519050388062000d02565b9250600284018652602086209086935b601f1984168510620010b7576001945083601f198116106200109d575b505050811b01600282015562000d1a565b015160001960f88460031b161c191690553880806200108c565b818101518355602094850194600190930192909101906200106f565b90915060028401865260208620601f840160051c81016020851062001121575b90849392915b601f830160051c820181106200111157505062000cea565b60008155859450600101620010f9565b5080620010f3565b604051903d90823e3d90fd5b919550919293600160208060049361ffff620011518b62001bf8565b16815201970192018796959493915062000ad1565b8580fd5b634e487b7160e01b84526041600452602484fd5b60405162461bcd60e51b8152602060048201526015602482015274466163746f72793a206e6f20636f756e747269657360581b60448201528490fd5b8280fd5b60405162461bcd60e51b815260206004820152601d60248201527f466163746f72793a20636c6f73696e67206461746520696e207061737400000060448201528590fd5b60405162461bcd60e51b8152602060048201526014602482015273466163746f72793a207a65726f20737570706c7960601b60448201528490fd5b60405162461bcd60e51b8152602060048201526013602482015272466163746f72793a207a65726f20707269636560681b60448201528490fd5b60405162461bcd60e51b8152602060048201526014602482015273119858dd1bdc9e4e881e995c9bc81d185c99d95d60621b60448201528490fd5b60405162461bcd60e51b8152602060048201526016602482015275466163746f72793a207a65726f20747265617375727960501b6044820152606490fd5b60405162461bcd60e51b81526020600482015260146024820152732330b1ba37b93c9d103d32b9379034b9b9bab2b960611b6044820152606490fd5b50346200018a5760403660031901126200018a576200134a62001bb3565b336001600160a01b038216036200136957620001d29060043562001dec565b60405163334bd91960e11b8152600490fd5b50346200018a5760403660031901126200018a57620001d2600435620013a062001bb3565b9080845283602052620013ba600160408620015462001d46565b62001d6d565b50346200018a5760203660031901126200018a57600160406020926004358152808452200154604051908152f35b50346200018a5760403660031901126200018a576200140c62001b9c565b6001600160a01b03168152600460205260408120805460243592908310156200018a5760206200143d848462001bdf565b90546040519160031b1c8152f35b50346200018a57806003193601126200018a57604051600580548083529083526020808301937f036b6384b5eca791c62761152d0c79bb0604c104a5fb6f4eb0703f3154bb3db092915b828210620014b0576200066285620006558189038262001a49565b83548652948501946001938401939091019062001495565b50346200018a5760403660031901126200018a57600435602480359160026001541462001846576002600155808452602091600383526040852060ff600582015460301c1615620018025780546001600160a01b03908116908115620017c557807f000000000000000000000000000000000000000000000000000000000000000016926040516323b872dd60e01b8152336004820152308682015288604482015287816064818d895af190811562001705578a91620017a3575b50156200175f5788828254169360405163095ea7b360e01b95868252600482015282888201528981604481868b5af1801562001732576200173d575b5082546040518681529085166001600160a01b03166004820152602481018b90528981604481868b5af18015620017325762001710575b50803b15620005bf57604051635cdc612360e11b8152336004820152602481018b905291908290604490829084905af180156200170557620016d3575b509188604492889594541693816040519788968795865260048601528401525af18015620016c85762001694575b507f0b67a854cb62328e56cf5dd468331fb79f5ce30211d7f8e72d51061d4467abf1604051928584523393a46001805580f35b620016b890833d8511620016c0575b620016af818362001a49565b81019062001c08565b503862001661565b503d620016a3565b6040513d87823e3d90fd5b6001600160401b03819a92939a11620016f25760405297908662001633565b634e487b7160e01b825260416004528582fd5b6040513d8c823e3d90fd5b6200172a908a3d8c11620016c057620016af818362001a49565b5038620015f6565b6040513d85823e3d90fd5b62001757908a3d8c11620016c057620016af818362001a49565b5038620015bf565b60405162461bcd60e51b815260048101889052601d818701527f466163746f72793a2055534443207472616e73666572206661696c65640000006044820152606490fd5b620017be9150883d8a11620016c057620016af818362001a49565b3862001583565b60405162461bcd60e51b81526004810187905260168186015275119858dd1bdc9e4e8814d513c81b9bdd08199bdd5b9960521b6044820152606490fd5b60405162461bcd60e51b8152600481018590526017818401527f466163746f72793a2053544f206e6f74206163746976650000000000000000006044820152606490fd5b604051633ee5aeb560e01b8152600490fd5b50346200018a57806003193601126200018a576040517f00000000000000000000000000000000000000000000000000000000000000006001600160a01b03168152602090f35b50346200018a5760203660031901126200018a576004358152600360205260409020805460018201546001600160a01b039081169291169060ff620018e76002830162001a6b565b62001936620018f96003850162001a6b565b6200192760056004870154960154936040519889988952602089015260e0604089015260e088019062001b1c565b90868203606088015262001b1c565b92608085015265ffffffffffff811660a085015260301c16151560c08301520390f35b50346200018a57806003193601126200018a5760206040517f442a94f1a1fac79af32856af2a64f63648cfa2ef3b98610a5bb7cbec4cee69858152f35b905034620005bf576020366003190112620005bf5760043563ffffffff60e01b8116809103620011ba5760209250637965db0b60e01b8114908115620019de575b5015158152f35b6301ffc9a760e01b14905038620019d7565b90600182811c9216801562001a22575b602083101462001a0c57565b634e487b7160e01b600052602260045260246000fd5b91607f169162001a00565b60e081019081106001600160401b0382111762000f5e57604052565b90601f801991011681019081106001600160401b0382111762000f5e57604052565b9060405191826000825462001a8081620019f0565b9081845260209460019160018116908160001462001af8575060011462001ab5575b50505062001ab39250038362001a49565b565b600090815285812095935091905b81831062001adf57505062001ab3935082010138808062001aa2565b8554888401850152948501948794509183019162001ac3565b9250505062001ab394925060ff191682840152151560051b82010138808062001aa2565b919082519283825260005b84811062001b49575050826000602080949584010152601f8019910116010190565b60208183018101518483018201520162001b27565b602090602060408183019282815285518094520193019160005b82811062001b87575050505090565b83518552938101939281019260010162001b78565b600435906001600160a01b03821682036200073f57565b602435906001600160a01b03821682036200073f57565b35906001600160a01b03821682036200073f57565b805482101562000f485760005260206000200190600090565b359061ffff821682036200073f57565b908160209103126200073f575180151581036200073f5790565b356001600160a01b03811681036200073f5790565b903590601e19813603018212156200073f57018035906001600160401b0382116200073f576020019181360383136200073f57565b9035601e19823603018112156200073f5701602081359101916001600160401b0382116200073f5781360383136200073f57565b908060209392818452848401376000828201840152601f01601f1916010190565b9291926001600160401b03821162000f5e576040519162001ced601f8201601f19166020018462001a49565b8294818452818301116200073f578281602093846000960137010152565b3360009081527fad3228b676f7d3cd4284a5443f17f1962b36e491b30a40b2405849e597ba5fb5602052604081205460ff1615620005485750565b80600052600060205260406000203360005260205260ff6040600020541615620005485750565b9060009180835282602052604083209160018060a01b03169182845260205260ff6040842054161560001462001de757808352826020526040832082845260205260408320600160ff198254161790557f2f8788117e7eff1d82e926ec794901d17c78024a50270940304540a733656f0d339380a4600190565b505090565b9060009180835282602052604083209160018060a01b03169182845260205260ff60408420541660001462001de75780835282602052604083208284526020526040832060ff1981541690557ff6391f5c32d9c69d2a47ea670b442974b53935d1edc7fd64eb21e047a839171b339380a460019056fe60c06040523462000ba85762003d61803803806200001d8162000bcb565b92833981019060a08183031262000ba85780516001600160401b03811162000ba857610180928382840182031262000ba8576040519384016001600160401b03811185821017620006fd57604052828201516001600160401b03811162000ba857816200008e918486010162000bf1565b8452828201602001516001600160401b03811162000ba85781620000b6918486010162000bf1565b6020850152828201604001516001600160401b03811162000ba85781620000e1918486010162000bf1565b6040850152828201606081810151908601526080808201519086015260a0808201519086015260c0808201519086015260e001516001600160401b03811162000ba85781601f828587010101121562000ba857838301810151916001600160401b038311620006fd578260051b60206200015d81830162000bcb565b80958152019160208285888a010101011162000ba857906020838688010101915b60208185888a01010101831062000bad575050505060e0840152610100818301015165ffffffffffff8116810362000ba857620001f69161016091610100860152620001d06101208286010162000c73565b610120860152620001e76101408286010162000c73565b61014086015283010162000c63565b6101608301526200020a6020820162000c73565b91620002196040830162000c73565b906200023660806200022e6060860162000c73565b940162000c73565b81516020830151815190916001600160401b038211620006fd5760035490600182811c9216801562000b9d575b6020831014620007e75781601f84931162000b4a575b50602090601f831160011462000abb5760009262000aaf575b50508160011b916000199060031b1c1916176003555b8051906001600160401b038211620006fd5760045490600182811c9216801562000aa4575b6020831014620007e75781601f84931162000a51575b50602090601f8311600114620009c257600092620009b6575b50508160011b916000199060031b1c1916176004555b600160075581518051906001600160401b038211620006fd5760085490600182811c92168015620009ab575b6020831014620007e75781601f84931162000969575b50602090601f8311600114620008eb57600092620008df575b50508160011b916000199060031b1c1916176008555b60208201518051906001600160401b038211620006fd5760095490600182811c92168015620008d4575b6020831014620007e75781601f84931162000892575b50602090601f8311600114620008145760009262000808575b50508160011b916000199060031b1c1916176009555b60408201518051906001600160401b038211620006fd57600a5490600182811c92168015620007fd575b6020831014620007e75781601f84931162000799575b50602090601f83116001146200071f5760009262000713575b50508160011b916000199060031b1c191617600a555b6060820151600b556080820151600c5560a0820151600d5560c0820151600e5560e082015180519095906001600160401b038111620006fd57680100000000000000008111620006fd576020600f978854838a55808410620006a9575b50019660005260206000209060005b8160041c8110620006655750600f19811680820362000600575b61010086015160108054610120898101516001600160d01b031990921665ffffffffffff949094169390931760309190911b600160301b600160d01b0316179055610140870151601180546101608a01516001600160b01b03199091166001600160a01b039384161760a091821b61ffff60a01b1617909155818716608052818a169052620005ac918a91620005a5918a6200059b8b620005888762000ca1565b50620005948762000d22565b5062000d22565b5001511662000dc5565b5062000e63565b50604051612ddf908162000f028239608051818181610c1e0152818161200f01528181612240015281816127370152612a6b015260a051818181610cdf015281816115af015281816119b60152611cb20152f35b9760009860005b8184038110620006305750505060041c0195909555620005ac946200059b82620005a5620004e7565b90919960206200065a60019261ffff8e51169085851b60031b9161ffff809116831b921b19161790565b9b0192910162000607565b6000805b6010811062000680575083820155600101620004cd565b8a51909a9160019160209161ffff60048f901b81811b199092169216901b1792019a0162000669565b620006db908a600052836000208b80870160041c820192601e8860011b1680620006e2575b500160041c019062000c88565b38620004be565b60001990818601918254918a0360031b1c16905538620006ce565b634e487b7160e01b600052604160045260246000fd5b0151905038806200044b565b600a600090815260008051602062003d018339815191529350601f198516905b81811062000780575090846001959493921062000766575b505050811b01600a5562000461565b015160001960f88460031b161c1916905538808062000757565b929360206001819287860151815501950193016200073f565b600a600052620007d59060008051602062003d01833981519152601f850160051c81019160208610620007dc575b601f0160051c019062000c88565b3862000432565b9091508190620007c7565b634e487b7160e01b600052602260045260246000fd5b91607f16916200041c565b015190503880620003dc565b60096000908152935060008051602062003d4183398151915291905b601f198416851062000876576001945083601f198116106200085c575b505050811b01600955620003f2565b015160001960f88460031b161c191690553880806200084d565b8181015183556020948501946001909301929091019062000830565b6009600052620008cd9060008051602062003d41833981519152601f850160051c81019160208610620007dc57601f0160051c019062000c88565b38620003c3565b91607f1691620003ad565b0151905038806200036d565b60086000908152935060008051602062003d2183398151915291905b601f19841685106200094d576001945083601f1981161062000933575b505050811b0160085562000383565b015160001960f88460031b161c1916905538808062000924565b8181015183556020948501946001909301929091019062000907565b6008600052620009a49060008051602062003d21833981519152601f850160051c81019160208610620007dc57601f0160051c019062000c88565b3862000354565b91607f16916200033e565b015190503880620002fc565b6004600090815293507f8a35acfbc15ff81a39ae7d344fd709f28e8600b4aa8c65c6b64bfe7fe36bd19b91905b601f198416851062000a35576001945083601f1981161062000a1b575b505050811b0160045562000312565b015160001960f88460031b161c1916905538808062000a0c565b81810151835560209485019460019093019290910190620009ef565b600460005262000a9d907f8a35acfbc15ff81a39ae7d344fd709f28e8600b4aa8c65c6b64bfe7fe36bd19b601f850160051c81019160208610620007dc57601f0160051c019062000c88565b38620002e3565b91607f1691620002cd565b01519050388062000292565b6003600090815293507fc2575a0e9e593c00f959f8c92f12db2869c3395a3b0502d05e2516446f71f85b91905b601f198416851062000b2e576001945083601f1981161062000b14575b505050811b01600355620002a8565b015160001960f88460031b161c1916905538808062000b05565b8181015183556020948501946001909301929091019062000ae8565b600360005262000b96907fc2575a0e9e593c00f959f8c92f12db2869c3395a3b0502d05e2516446f71f85b601f850160051c81019160208610620007dc57601f0160051c019062000c88565b3862000279565b91607f169162000263565b600080fd5b602080809362000bbd8662000c63565b81520193019291506200017e565b6040519190601f01601f191682016001600160401b03811183821017620006fd57604052565b919080601f8401121562000ba85782516001600160401b038111620006fd5760209062000c27601f8201601f1916830162000bcb565b9281845282828701011162000ba85760005b81811062000c4f57508260009394955001015290565b858101830151848201840152820162000c39565b519061ffff8216820362000ba857565b51906001600160a01b038216820362000ba857565b81811062000c94575050565b6000815560010162000c88565b6001600160a01b031660008181527f54cdd369e4e8a8515e52ca72ec816c2101831ad1f18bf44102ed171459c9b4f8602052604081205490919060ff1662000d1e5781805260066020526040822081835260205260408220600160ff19825416179055339160008051602062003ce18339815191528180a4600190565b5090565b6001600160a01b031660008181527f84103e4942d70d0389ab910bdcdf181c3e028bc1897fe6797bb191ac79d8088260205260408120549091907f442a94f1a1fac79af32856af2a64f63648cfa2ef3b98610a5bb7cbec4cee69859060ff1662000dc05780835260066020526040832082845260205260408320600160ff1982541617905560008051602062003ce1833981519152339380a4600190565b505090565b6001600160a01b031660008181527f702fe919a6a7971e34c596917a48306a624527a41d0aa0fcf43050b6a305324860205260408120549091907f114e74f6ea3bd819998f78687bfcb11b140da08e9b7d222fa9c1f1ba1f2aa1229060ff1662000dc05780835260066020526040832082845260205260408320600160ff1982541617905560008051602062003ce1833981519152339380a4600190565b6001600160a01b031660008181527f4448119502453e295a09f7d4e8a6a0575d3624c233f99f59abf0835bf259780a60205260408120549091907fcab5a0bfe0b79d2c4b1c2e02599fa044d115b7511f9659307cb42769509677099060ff1662000dc05780835260066020526040832082845260205260408320600160ff1982541617905560008051602062003ce1833981519152339380a460019056fe6080806040526004908136101561001557600080fd5b60003560e01c90816301ffc9a7146124405750806304caa6dd146123a4578063056097ac146121e8578063062d3bd7146121ad57806306fdde03146120de578063095ea7b31461203e578063134e18f414611ff957806318160ddd14611fdb57806322459e1814611fa057806323b872dd14611ebd578063248a9ca314611e8f578063266565a914611e555780632f2ff15d14611e16578063313ce56714611dfa57806336568abe14611db65780633ad8b2d714611ce15780633e413bee14611c9c5780633f4ba83a14611b6d5780633f89797e14611951578063559d3d4b1461192e5780635c975abb1461190b5780636da663551461170357806370a08231146116c957806382aefa241461168e578063884a41be1461153357806391d14854146114e657806395d89b41146113ff578063985ffec014611382578063a217fddf14611366578063a4df6c6a146112d2578063a9059cbb146112a1578063ab7294f014611209578063b9b8c24614610b41578063c3f909d4146103fc578063c5c4744c146103de578063d547741f1461039d578063d7e64c001461037f578063dd62ed3e1461032e578063e46638e6146102f4578063e5839836146102b85763e9b2f0ad146101e457600080fd5b346102b35760403660031901126102b3576101fd61257d565b60243590610209612883565b60018060a01b031691826000526014602052816040600020541061026f575060207f9bed35cb62ad0dba04f9d5bfee4b5bc91443e77da8a65c4c84834c51bb08b0d691836000526014825260406000206102648282546126e7565b9055604051908152a2005b60649060206040519162461bcd60e51b8352820152601760248201527f53543a20696e73756666696369656e742066726f7a656e0000000000000000006044820152fd5b600080fd5b346102b35760203660031901126102b3576001600160a01b036102d961257d565b16600052601460205260206040600020541515604051908152f35b346102b35761030b610305366125a9565b916126f4565b9061032a6040519283921515835260406020840152604083019061253d565b0390f35b346102b35760403660031901126102b35761034761257d565b61034f612593565b9060018060a01b038091166000526001602052604060002091166000526020526020604060002054604051908152f35b346102b35760003660031901126102b3576020601754604051908152f35b50346102b35760403660031901126102b3576103dc90356103bc612593565b908060005260066020526103d7600160406000200154612959565b612cd1565b005b346102b35760003660031901126102b3576020601854604051908152f35b346102b35760003660031901126102b357600061016060405161041e816124cc565b6060815260606020820152606060408201528260608201528260808201528260a08201528260c0820152606060e08201528261010082015282610120820152826101408201520152604051610472816124cc565b60405160085481600061048483612492565b8083529260018116908115610b225750600114610ac1575b6104a89250038261251b565b81526040516009548160006104bc83612492565b8083529260018116908115610aa25750600114610a41575b6104e09250038261251b565b6020820152604051600a548160006104f783612492565b8083529260018116908115610a2257506001146109c1575b61051b9250038261251b565b6040820152600b546060820152600c546080820152600d5460a0820152600e5460c082015260405180816020600f549283815201600f6000527f8d1108e10bcb7c27dddfc02ed9d693a074039d026cf4ea4240b40f7d581ac802926000905b80600f8301106108d9576106109454918181106108c4575b8181106108ac575b818110610895575b81811061087d575b818110610865575b81811061084d575b818110610835575b81811061081d575b818110610805575b8181106107ed575b8181106107d5575b8181106107bd575b8181106107a5575b81811061078d575b818110610775575b10610767575b50038261251b565b60e082015260105465ffffffffffff811661010083015260018060a01b039060301c1661012082015261ffff60115460018060a01b03811661014084015260a01c16610160820152604051602081526106a961069361067d845161018060208601526101a085019061253d565b6020850151848203601f1901604086015261253d565b6040840151838203601f1901606085015261253d565b60608301516080830152608083015160a083015260a083015160c083015260c083015160e083015260e083015190601f19838203016101008401526020808351928381520192019060005b81811061074d5750505061ffff6101608465ffffffffffff610100869701511661012086015260018060a01b036101208201511661014086015260018060a01b0361014082015116828601520151166101808301520390f35b825161ffff168452602093840193909201916001016106f4565b60f01c815260200185610608565b92602060019161ffff8560e01c168152019301610602565b92602060019161ffff8560d01c1681520193016105fa565b92602060019161ffff8560c01c1681520193016105f2565b92602060019161ffff8560b01c1681520193016105ea565b92602060019161ffff8560a01c1681520193016105e2565b92602060019161ffff8560901c1681520193016105da565b92602060019161ffff8560801c1681520193016105d2565b92602060019161ffff8560701c1681520193016105ca565b92602060019161ffff8560601c1681520193016105c2565b92602060019161ffff8560501c1681520193016105ba565b92602060019161ffff8560401c1681520193016105b2565b92602060019161ffff8560301c1681520193016105aa565b92602060019161ffff85831c1681520193016105a2565b92602060019161ffff8560101c16815201930161059a565b92602060019161ffff85168152019301610592565b916010919350610200600191865461ffff8116825261ffff81861c16602083015261ffff8160201c16604083015261ffff8160301c16606083015261ffff8160401c16608083015261ffff8160501c1660a083015261ffff8160601c1660c083015261ffff8160701c1660e083015261ffff8160801c1661010083015261ffff8160901c1661012083015261ffff8160a01c1661014083015261ffff8160b01c1661016083015261ffff8160c01c1661018083015261ffff8160d01c166101a083015261ffff8160e01c166101c083015260f01c6101e082015201940192018492939161057a565b5090600a6000527fc65a7bb8d6351c1cf70c95a316cc6a92839c986682d98bc35f958f4883f9d2a8906000915b818310610a0657505090602061051b9282010161050f565b60209193508060019154838588010152019101909183926109ee565b6020925061051b94915060ff191682840152151560051b82010161050f565b509060096000527f6e1540171b6c0c960b71a7020d9f60077f6af931a8bbf590da0223dacf75c7af906000915b818310610a865750509060206104e0928201016104d4565b6020919350806001915483858801015201910190918392610a6e565b602092506104e094915060ff191682840152151560051b8201016104d4565b509060086000527ff3f7a9fe364faab93b216da50a3214154f22a0a2b415b23a84c8169e8b636ee3906000915b818310610b065750509060206104a89282010161049c565b6020919350806001915483858801015201910190918392610aee565b602092506104a894915060ff191682840152151560051b82010161049c565b50346102b35760403660031901126102b357610b5b61257d565b3360009081527f4448119502453e295a09f7d4e8a6a0575d3624c233f99f59abf0835bf259780a602090815260409091205490926024803593927fcab5a0bfe0b79d2c4b1c2e02599fa044d115b7511f9659307cb42769509677099060ff16156111ed5750610bc8612d6b565b610bd0612d48565b60ff601254166111b45765ffffffffffff60105416421161117a57604051636c85cf6760e01b81526000838201526001600160a01b03848116838301819052909690949091604490838183817f00000000000000000000000000000000000000000000000000000000000000008d165afa908115610fca5760009161115d575b501561111c57670de0b6b3a764000080880290888204148815171561110857600c54610c7b916126c7565b97600e5489106110c657610c9189600254612624565b600d541061108b57612710610caf61ffff60115460a01c168a6126b4565b04610cba818a6126e7565b604080516323b872dd60e01b815233818b019081523060208201529182018c905291937f00000000000000000000000000000000000000000000000000000000000000008116939092909188908290819060600103816000885af1908115610fca5760009161106e575b5015611035576011546040805163a9059cbb60e01b8082529285166001600160a01b03168c82019081526020810194909452919493928991839182910103816000875af1908115610fca57600091611018575b5015610fd6579088600088949360105460301c1693610db7604051978896879586948552840160209093929193604081019460018060a01b031681520152565b03925af1908115610fca57600091610f9d575b5015610f5c5750610dda9061297f565b8315610f4557601590610deb612d6b565b610df787600254612624565b600255846000526000815260406000208781540190558460007fddf252ad1be2c89b69c2b068fc378daa952ba7f163c4a11628f55a4df523b3ef836040518b8152a3610e4586601854612624565b60185584600052526040600020805460ff811615610e8e575b505050507f8514357b17ccbde354811f827b94585a7ab01b4034aa86a807b7cc2c100b7be8600080a46001600755005b60ff1916600117905560165468010000000000000000811015610f31576001810180601655811015610f1d577fd833147d7dc355ba459fc788f669e58cfaf9dc25ddcd0702e87d69c7b51242890180546001600160a01b03191684179055601754916000198314610f0a57505060010160175538808080610e5e565b601190634e487b7160e01b600052526000fd5b50634e487b7160e01b600090815260328352fd5b50634e487b7160e01b600090815260418352fd5b509060006040519163ec442f0560e01b8352820152fd5b847f53543a2070726f6365656473207472616e73666572206661696c656400000000606492601c87876040519562461bcd60e51b8752860152840152820152fd5b610fbd9150843d8611610fc3575b610fb5818361251b565b81019061260c565b38610dca565b503d610fab565b6040513d6000823e3d90fd5b60405162461bcd60e51b8152808a018890526017818a01527f53543a20666565207472616e73666572206661696c656400000000000000000081870152606490fd5b61102f9150883d8a11610fc357610fb5818361251b565b38610d77565b60405162461bcd60e51b8152808a018890526014818a01527314d50e881554d110c81c1d5b1b0819985a5b195960621b81870152606490fd5b6110859150883d8a11610fc357610fb5818361251b565b38610d24565b60405162461bcd60e51b81528087018590526016818701527553543a2065786365656473206d617820737570706c7960501b81840152606490fd5b60405162461bcd60e51b8152808701859052601c818701527f53543a2062656c6f77206d696e696d756d20696e766573746d656e740000000081840152606490fd5b84601187634e487b7160e01b600052526000fd5b847f53543a20696e766573746f72206e6f7420766572696669656400000000000000606492601987876040519562461bcd60e51b8752860152840152820152fd5b6111749150843d8611610fc357610fb5818361251b565b38610c50565b60405162461bcd60e51b81529182018590526014908201527314d50e881bd999995c9a5b99c8195e1c1a5c995960621b6044820152606490fd5b60405162461bcd60e51b81529182018590526013908201527214d50e881bd999995c9a5b99c818db1bdcd959606a1b6044820152606490fd5b604492916040519263e2517d3f60e01b84523390840152820152fd5b50346102b35760003660031901126102b3576112236128fd565b6012549060ff82166112685760ff198216600117601255601854600254907fc566557ce4cb9ae8e7b1ebb1215c266fb3ef7b87e5a726107e9188fd256423fb600080a3005b60649060206040519162461bcd60e51b8352820152601260248201527114d50e88185b1c9958591e4818db1bdcd95960721b6044820152fd5b346102b35760403660031901126102b3576112c76112bd61257d565b6024359033612a17565b602060405160018152f35b346102b35760403660031901126102b3576112eb61257d565b7fa065e63c631c86f1b9f66a4a2f63f2093bf1c2168d23290259dbd969e0222a4560206024359261131a612883565b60018060a01b031692836000526000825261134e6040600020546014845261134783604060002054612624565b1115612647565b83600052601482526040600020610264828254612624565b346102b35760003660031901126102b357602060405160008152f35b346102b35760203660031901126102b35760206113f76113a061257d565b670de0b6b3a76400006113e36113d06019549360018060a01b03169384600052601a8752604060002054906126e7565b83600052600086526040600020546126b4565b0490600052601b8352604060002054612624565b604051908152f35b50346102b35760003660031901126102b3576040519060008282549161142483612492565b92838352602094600191866001821691826000146114c4575050600114611468575b50506114549250038361251b565b61032a60405192828493845283019061253d565b8592506000527f8a35acfbc15ff81a39ae7d344fd709f28e8600b4aa8c65c6b64bfe7fe36bd19b906000915b8583106114ac57505061145493508201013880611446565b80548389018501528794508693909201918101611494565b925093505061145494915060ff191682840152151560051b8201013880611446565b50346102b35760403660031901126102b357611500612593565b9035600052600660205260406000209060018060a01b0316600052602052602060ff604060002054166040519015158152f35b50346102b35760003660031901126102b35761154d612d48565b611555612d6b565b61155e3361297f565b33600052602090601b8252604060002054801561165457336000818152601b8552604080822091909155805163a9059cbb60e01b8152848101928352602083019390935284918391829101038160007f00000000000000000000000000000000000000000000000000000000000000006001600160a01b03165af1908115610fca57600091611637575b50156115f5576001600755005b6064916040519162461bcd60e51b8352820152601960248201527f53543a20636c61696d207472616e73666572206661696c6564000000000000006044820152fd5b61164e9150833d8511610fc357610fb5818361251b565b386115e8565b506064916040519162461bcd60e51b8352820152601460248201527353543a206e6f7468696e6720746f20636c61696d60601b6044820152fd5b346102b35760003660031901126102b35760206040517f114e74f6ea3bd819998f78687bfcb11b140da08e9b7d222fa9c1f1ba1f2aa1228152f35b346102b35760203660031901126102b3576001600160a01b036116ea61257d565b1660005260006020526020604060002054604051908152f35b50346102b357602090816003193601126102b35767ffffffffffffffff9181358381116102b35761173790369084016125de565b929093611742612883565b83116118f65750611754601354612492565b601f81116118a4575b506000601f831160011461180e577f5ae146d76690e2b2fbd484f0af43653eb5fb3983df5b239a0a30422d030a7fa793836117fe92600091611803575b508460011b906000198660031b1c1916176013555b6117b7612d6b565b600160ff1960055416176005557f62e78cea01bee320cd4e420270b5ea74000d11b0c9f74754ebdbfc544b05a25883604051338152a1604051938385948552840191612693565b0390a1005b90508101353861179a565b601f198316906013600052600080516020612d8a8339815191529160005b81811061188d5750917f5ae146d76690e2b2fbd484f0af43653eb5fb3983df5b239a0a30422d030a7fa79591856117fe9410611873575b5050600184811b016013556117af565b820135600019600387901b60f8161c191690553880611863565b91928460018192868a01358155019401920161182c565b6013600052600080516020612d8a833981519152601f840160051c8101918385106118ec575b601f0160051c01905b8181106118e0575061175d565b600081556001016118d3565b90915081906118ca565b604190634e487b7160e01b6000525260246000fd5b346102b35760003660031901126102b357602060ff600554166040519015158152f35b346102b35760003660031901126102b357602060ff601254166040519015158152f35b50346102b3576020806003193601126102b35781359161196f6128fd565b611977612d48565b60025415611b2b578215611af157604080516323b872dd60e01b81523383820190815230602082015291820185905290839082908190606001038160007f00000000000000000000000000000000000000000000000000000000000000006001600160a01b03165af1908115610fca57600091611ad4575b5015611a9257670de0b6b3a7640000830290670de0b6b3a763ffff1984830401611a7d577f34fed24cebff9f2f4a855b41130e3120797d67a70a0695599980f6e83215760560608585611a5d8660025490611a55611a4d83836126c7565b601954612624565b6019556126c7565b9060405192835282015265ffffffffffff42166040820152a16001600755005b601190634e487b7160e01b6000525260246000fd5b6064916040519162461bcd60e51b8352820152601860248201527f53543a2055534443207472616e73666572206661696c656400000000000000006044820152fd5b611aeb9150833d8511610fc357610fb5818361251b565b386119ef565b6064916040519162461bcd60e51b8352820152601560248201527429aa1d103d32b937903234b9ba3934b13aba34b7b760591b6044820152fd5b6064916040519162461bcd60e51b8352820152601960248201527f53543a206e6f20746f6b656e73206f75747374616e64696e67000000000000006044820152fd5b50346102b35760003660031901126102b3573360009081527f54cdd369e4e8a8515e52ca72ec816c2101831ad1f18bf44102ed171459c9b4f8602052604090205460ff1615611c7d57611bc1601354612492565b601f8111611c45575b5060006013556005549060ff821615611c36575060ff19166005557f5db9ee0a495bf2e6ff9c91a7834c1ba4fdd244a5e8aa4e537bd38aeae4b073aa6020604051338152a17f3cd348ff56b5e60ffb00b5cc262c0dff28e4741cdf0375413cd4ab8fe440e6aa600080a1005b604051638dfc202b60e01b8152fd5b6013600052601f600080516020612d8a833981519152910160051c8101905b818110611c715750611bca565b60008155600101611c64565b6044906040519063e2517d3f60e01b8252339082015260006024820152fd5b346102b35760003660031901126102b3576040517f00000000000000000000000000000000000000000000000000000000000000006001600160a01b03168152602090f35b50346102b35760803660031901126102b357611cfb61257d565b611d03612593565b606435929060443567ffffffffffffffff85116102b357611d4b7fbb53097141337c38a36fed7fae913304cd0c540e1200dbb4c8c1cee707f9f2c293611db1963691016125de565b9590611d55612883565b60018060a01b03611d968486838a16998a6000526000602052611d7f836040600020541015612647565b611d888161297f565b611d918261297f565b612a17565b60405194859485526040602086015216966040840191612693565b0390a3005b50346102b35760403660031901126102b357611dd0612593565b336001600160a01b03821603611dea576103dc9135612cd1565b5060405163334bd91960e11b8152fd5b346102b35760003660031901126102b357602060405160128152f35b50346102b35760403660031901126102b3576103dc9035611e35612593565b90806000526006602052611e50600160406000200154612959565b612c51565b346102b35760203660031901126102b3576001600160a01b03611e7661257d565b1660005260146020526020604060002054604051908152f35b50346102b35760203660031901126102b3573560005260066020526020600160406000200154604051908152f35b50346102b357611ecc366125a9565b9160018060a01b038116806000526001602052604060002033600052602052604060002054946000198610611f08575b50506112c79350612a17565b848610611f74578115611f5c573315611f4457506112c79484916000526001602052604060002033600052602052036040600020553880611efc565b602490600060405191634a1406b160e11b8352820152fd5b60249060006040519163e602df0560e01b8352820152fd5b60408051637dc7a0d960e11b815233928101928352602083018890529082018690529081906060010390fd5b346102b35760003660031901126102b35760206040517fcab5a0bfe0b79d2c4b1c2e02599fa044d115b7511f9659307cb42769509677098152f35b346102b35760003660031901126102b3576020600254604051908152f35b346102b35760003660031901126102b3576040517f00000000000000000000000000000000000000000000000000000000000000006001600160a01b03168152602090f35b50346102b35760403660031901126102b35761205861257d565b6024359033156120c6576001600160a01b0316918215611f445750336000526001602052604060002082600052602052806040600020556040519081527f8c5be1e5ebec7d5bd14f71427d1e84f3dd0314c0f7b2291e5b200ac8c7c3b92560203392a3602060405160018152f35b60405163e602df0560e01b8152600081850152602490fd5b346102b35760003660031901126102b35760405160035460008261210183612492565b918282526020936001908560018216918260001461218d575050600114612130575b506114549250038361251b565b84915060036000527fc2575a0e9e593c00f959f8c92f12db2869c3395a3b0502d05e2516446f71f85b906000915b858310612175575050611454935082010185612123565b8054838901850152879450869390920191810161215e565b60ff19168582015261145495151560051b85010192508791506121239050565b346102b35760003660031901126102b35760206040517f442a94f1a1fac79af32856af2a64f63648cfa2ef3b98610a5bb7cbec4cee69858152f35b50346102b35760403660031901126102b35761220261257d565b61220a612593565b612212612883565b60405163b9209e3360e01b81526001600160a01b0382811682860181905294602093909290919084816024817f000000000000000000000000000000000000000000000000000000000000000086165afa908115610fca57600091612387575b50156123435784169384600052600084526040600020549283156122ff5750827f401f439d865a766757ec78675925bd67198d5e78805aa41691b34b5d6a6cbbe694939282611d886122c39461297f565b83600052601b8252604060002054856000526122e56040600020918254612624565b905583600052601b825260006040812055604051908152a3005b60405162461bcd60e51b8152908101859052601860248201527f53543a206e6f20746f6b656e7320746f207265636f76657200000000000000006044820152606490fd5b60405162461bcd60e51b8152808401859052601b60248201527f53543a206e65772077616c6c6574206e6f7420766572696669656400000000006044820152606490fd5b61239e9150853d8711610fc357610fb5818361251b565b38612272565b346102b35760003660031901126102b3576040516013546000826123c783612492565b918282526020936001908560018216918260001461218d5750506001146123f557506114549250038361251b565b8491506013600052600080516020612d8a833981519152906000915b858310612428575050611454935082010185612123565b80548389018501528794508693909201918101612411565b82346102b35760203660031901126102b357359063ffffffff60e01b82168092036102b357602091637965db0b60e01b8114908115612481575b5015158152f35b6301ffc9a760e01b1490508361247a565b90600182811c921680156124c2575b60208310146124ac57565b634e487b7160e01b600052602260045260246000fd5b91607f16916124a1565b610180810190811067ffffffffffffffff8211176124e957604052565b634e487b7160e01b600052604160045260246000fd5b6040810190811067ffffffffffffffff8211176124e957604052565b90601f8019910116810190811067ffffffffffffffff8211176124e957604052565b919082519283825260005b848110612569575050826000602080949584010152601f8019910116010190565b602081830181015184830182015201612548565b600435906001600160a01b03821682036102b357565b602435906001600160a01b03821682036102b357565b60609060031901126102b3576001600160a01b039060043582811681036102b3579160243590811681036102b3579060443590565b9181601f840112156102b35782359167ffffffffffffffff83116102b357602083818601950101116102b357565b908160209103126102b3575180151581036102b35790565b9190820180921161263157565b634e487b7160e01b600052601160045260246000fd5b1561264e57565b60405162461bcd60e51b815260206004820152601860248201527f53543a20696e73756666696369656e742062616c616e636500000000000000006044820152606490fd5b908060209392818452848401376000828201840152601f01601f1916010190565b8181029291811591840414171561263157565b81156126d1570490565b634e487b7160e01b600052601260045260246000fd5b9190820391821161263157565b9291909260ff600554166128545760408051636c85cf6760e01b81526001600160a01b0383811660048301529586166024820152909460209392909184816044817f000000000000000000000000000000000000000000000000000000000000000087165afa9081156128495760009161282c575b50156127f057166000526000825261278e8460002054601484528560002054906126e7565b106127b75760019280519182019082821067ffffffffffffffff8311176124e957526000815290565b7f496e73756666696369656e7420756e66726f7a656e2062616c616e636500000060009351916127e6836124ff565b601d835282015290565b5050507f436f6d706c69616e636520636865636b206661696c65640000000000000000006000935191612822836124ff565b6017835282015290565b6128439150853d8711610fc357610fb5818361251b565b38612769565b87513d6000823e3d90fd5b505060405160009250612866816124ff565b600d81526c14d513c81a5cc81c185d5cd959609a1b602082015290565b3360009081527f84103e4942d70d0389ab910bdcdf181c3e028bc1897fe6797bb191ac79d8088260205260409020547f442a94f1a1fac79af32856af2a64f63648cfa2ef3b98610a5bb7cbec4cee69859060ff16156128df5750565b6044906040519063e2517d3f60e01b82523360048301526024820152fd5b3360009081527f702fe919a6a7971e34c596917a48306a624527a41d0aa0fcf43050b6a305324860205260409020547f114e74f6ea3bd819998f78687bfcb11b140da08e9b7d222fa9c1f1ba1f2aa1229060ff16156128df5750565b80600052600660205260406000203360005260205260ff60406000205416156128df5750565b6019546001600160a01b039091166000818152601a602052604080822054929390926129aa916126e7565b80151580612a04575b6129c8575b50601954928152601a6020522055565b6129e5670de0b6b3a76400009185845283602052848420546126b4565b04838252601b6020526129fc838320918254612624565b9055386129b8565b50838252816020528282205415156129b3565b92916001600160a01b0391828516918215612c3857838216938415612c1f5760408051636c85cf6760e01b81526001600160a01b0389811660048301528516602482015260209491928590829060449082907f0000000000000000000000000000000000000000000000000000000000000000165afa908115612c1457600091612bf7575b5015612bb357846000526000845282612ac28360002054601487528460002054906126e7565b10612b6f57612ad990612ad48961297f565b61297f565b612ae1612d6b565b8360005260008352806000205496828810612b40575081849596977fddf252ad1be2c89b69c2b068fc378daa952ba7f163c4a11628f55a4df523b3ef9560005260008552038160002055856000528060002082815401905551908152a3565b905163391434e360e21b81526001600160a01b0390911660048201526024810187905260448101829052606490fd5b815162461bcd60e51b815260048101859052601960248201527f53543a20696e73756666696369656e7420756e66726f7a656e000000000000006044820152606490fd5b815162461bcd60e51b815260048101859052601a60248201527f53543a207472616e73666572206e6f7420636f6d706c69616e740000000000006044820152606490fd5b612c0e9150853d8711610fc357610fb5818361251b565b38612a9c565b83513d6000823e3d90fd5b60405163ec442f0560e01b815260006004820152602490fd5b604051634b637e8f60e11b815260006004820152602490fd5b906000918083526006602052604083209160018060a01b03169182845260205260ff60408420541615600014612ccc5780835260066020526040832082845260205260408320600160ff198254161790557f2f8788117e7eff1d82e926ec794901d17c78024a50270940304540a733656f0d339380a4600190565b505090565b906000918083526006602052604083209160018060a01b03169182845260205260ff604084205416600014612ccc578083526006602052604083208284526020526040832060ff1981541690557ff6391f5c32d9c69d2a47ea670b442974b53935d1edc7fd64eb21e047a839171b339380a4600190565b600260075414612d59576002600755565b604051633ee5aeb560e01b8152600490fd5b60ff60055416612d7757565b60405163d93c066560e01b8152600490fdfe66de8ffda797e3de9c05e8fc57b3bf0ec28a930d40b0d285d93c06501cf6a090a2646970667358221220089d4dd9ed19dc696abb75bad7727431058cea4e6d2c8101ed9f2265b6434b2064736f6c634300081800332f8788117e7eff1d82e926ec794901d17c78024a50270940304540a733656f0dc65a7bb8d6351c1cf70c95a316cc6a92839c986682d98bc35f958f4883f9d2a8f3f7a9fe364faab93b216da50a3214154f22a0a2b415b23a84c8169e8b636ee36e1540171b6c0c960b71a7020d9f60077f6af931a8bbf590da0223dacf75c7afa2646970667358221220f0742e35d66fecee2bd21ed6fe79b4524fc3cbb70985bcac5d25659d0cfddfe964736f6c634300081800332f8788117e7eff1d82e926ec794901d17c78024a50270940304540a733656f0d",
  "linkReferences": {},
  "deployedLinkReferences": {}
}