{
  "_format": "hh-sol-artifact-1",
  "contractName": "IdentityRegistry",
  "sourceName": "contracts/registry/IdentityRegistry.sol",
  "abi": [
    {
      "inputs": [
        {
          "internalType": "address",
          "name": "admin",
          "type": "address"
        },
        {
          "internalType": "address",
          "name": "complianceOfficer",
          "type": "address"
        }
      ],
      "stateMutability": "nonpayable",
      "type": "constructor"
    },
    {
      "inputs": [],
      "name": "AccessControlBadConfirmation",
      "type": "error"
    },
    {
      "inputs": [
        {
          "internalType": "address",
          "name": "account",
          "type": "address"
        },
        {
          "internalType": "bytes32",
          "name": "neededRole",
          "type": "bytes32"
        }
      ],
      "name": "AccessControlUnauthorizedAccount",
      "type": "error"
    },
    {
      "inputs": [],
      "name": "EnforcedPause",
      "type": "error"
    },
    {
      "inputs": [],
      "name": "ExpectedPause",
      "type": "error"
    },
    {
      "anonymous": false,
      "inputs": [
        {
          "indexed": true,
          "internalType": "uint16",
          "name": "country",
          "type": "uint16"
        }
      ],
      "name": "CountryAllowed",
      "type": "event"
    },
    {
      "anonymous": false,
      "inputs": [
        {
          "indexed": true,
          "internalType": "uint16",
          "name": "country",
          "type": "uint16"
        }
      ],
      "name": "CountryBlocked",
      "type": "event"
    },
    {
      "anonymous": false,
      "inputs": [
        {
          "indexed": true,
          "internalType": "address",
          "name": "investor",
          "type": "address"
        },
        {
          "indexed": false,
          "internalType": "uint16",
          "name": "country",
          "type": "uint16"
        },
        {
          "indexed": false,
          "internalType": "uint8",
          "name": "tier",
          "type": "uint8"
        }
      ],
      "name": "IdentityRegistered",
      "type": "event"
    },
    {
      "anonymous": false,
      "inputs": [
        {
          "indexed": true,
          "internalType": "address",
          "name": "investor",
          "type": "address"
        }
      ],
      "name": "IdentityRemoved",
      "type": "event"
    },
    {
      "anonymous": false,
      "inputs": [
        {
          "indexed": true,
          "internalType": "address",
          "name": "investor",
          "type": "address"
        },
        {
          "indexed": false,
          "internalType": "string",
          "name": "reason",
          "type": "string"
        }
      ],
      "name": "IdentitySuspended",
      "type": "event"
    },
    {
      "anonymous": false,
      "inputs": [
        {
          "indexed": true,
          "internalType": "address",
          "name": "investor",
          "type": "address"
        }
      ],
      "name": "IdentityVerified",
      "type": "event"
    },
    {
      "anonymous": false,
      "inputs": [
        {
          "indexed": false,
          "internalType": "address",
          "name": "account",
          "type": "address"
        }
      ],
      "name": "Paused",
      "type": "event"
    },
    {
      "anonymous": false,
      "inputs": [
        {
          "indexed": true,
          "internalType": "bytes32",
          "name": "role",
          "type": "bytes32"
        },
        {
          "indexed": true,
          "internalType": "bytes32",
          "name": "previousAdminRole",
          "type": "bytes32"
        },
        {
          "indexed": true,
          "internalType": "bytes32",
          "name": "newAdminRole",
          "type": "bytes32"
        }
      ],
      "name": "RoleAdminChanged",
      "type": "event"
    },
    {
      "anonymous": false,
      "inputs": [
        {
          "indexed": true,
          "internalType": "bytes32",
          "name": "role",
          "type": "bytes32"
        },
        {
          "indexed": true,
          "internalType": "address",
          "name": "account",
          "type": "address"
        },
        {
          "indexed": true,
          "internalType": "address",
          "name": "sender",
          "type": "address"
        }
      ],
      "name": "RoleGranted",
      "type": "event"
    },
    {
      "anonymous": false,
      "inputs": [
        {
          "indexed": true,
          "internalType": "bytes32",
          "name": "role",
          "type": "bytes32"
        },
        {
          "indexed": true,
          "internalType": "address",
          "name": "account",
          "type": "address"
        },
        {
          "indexed": true,
          "internalType": "address",
          "name": "sender",
          "type": "address"
        }
      ],
      "name": "RoleRevoked",
      "type": "event"
    },
    {
      "anonymous": false,
      "inputs": [
        {
          "indexed": false,
          "internalType": "address",
          "name": "account",
          "type": "address"
        }
      ],
      "name": "Unpaused",
      "type": "event"
    },
    {
      "inputs": [],
      "name": "AGENT_ROLE",
      "outputs": [
        {
          "internalType": "bytes32",
          "name": "",
          "type": "bytes32"
        }
      ],
      "stateMutability": "view",
      "type": "function"
    },
    {
      "inputs": [],
      "name": "COMPLIANCE_ROLE",
      "outputs": [
        {
          "internalType": "bytes32",
          "name": "",
          "type": "bytes32"
        }
      ],
      "stateMutability": "view",
      "type": "function"
    },
    {
      "inputs": [],
      "name": "DEFAULT_ADMIN_ROLE",
      "outputs": [
        {
          "internalType": "bytes32",
          "name": "",
          "type": "bytes32"
        }
      ],
      "stateMutability": "view",
      "type": "function"
    },
    {
      "inputs": [
        {
          "internalType": "address",
          "name": "from",
          "type": "address"
        },
        {
          "internalType": "address",
          "name": "to",
          "type": "address"
        }
      ],
      "name": "canTransfer",
      "outputs": [
        {
          "internalType": "bool",
          "name": "",
          "type": "bool"
        }
      ],
      "stateMutability": "view",
      "type": "function"
    },
    {
      "inputs": [
        {
          "internalType": "address",
          "name": "investor",
          "type": "address"
        }
      ],
      "name": "getIdentity",
      "outputs": [
        {
          "components": [
            {
              "internalType": "address",
              "name": "wallet",
              "type": "address"
            },
            {
              "internalType": "uint16",
              "name": "country",
              "type": "uint16"
            },
            {
              "internalType": "enum IIdentityRegistry.VerificationTier",
              "name": "tier",
              "type": "uint8"
            },
            {
              "internalType": "uint48",
              "name": "verifiedAt",
              "type": "uint48"
            },
            {
              "internalType": "uint48",
              "name": "expiresAt",
              "type": "uint48"
            },
            {
              "internalType": "bytes32",
              "name": "kycHash",
              "type": "bytes32"
            },
            {
              "internalType": "bool",
              "name": "amlClear",
              "type": "bool"
            }
          ],
          "internalType": "struct IIdentityRegistry.Identity",
          "name": "",
          "type": "tuple"
        }
      ],
      "stateMutability": "view",
      "type": "function"
    },
    {
      "inputs": [
        {
          "internalType": "uint256",
          "name": "index",
          "type": "uint256"
        }
      ],
      "name": "getInvestorAt",
      "outputs": [
        {
          "internalType": "address",
          "name": "",
          "type": "address"
        }
      ],
      "stateMutability": "view",
      "type": "function"
    },
    {
      "inputs": [
        {
          "internalType": "bytes32",
          "name": "role",
          "type": "bytes32"
        }
      ],
      "name": "getRoleAdmin",
      "outputs": [
        {
          "internalType": "bytes32",
          "name": "",
          "type": "bytes32"
        }
      ],
      "stateMutability": "view",
      "type": "function"
    },
    {
      "inputs": [
        {
          "internalType": "bytes32",
          "name": "role",
          "type": "bytes32"
        },
        {
          "internalType": "address",
          "name": "account",
          "type": "address"
        }
      ],
      "name": "grantRole",
      "outputs": [],
      "stateMutability": "nonpayable",
      "type": "function"
    },
    {
      "inputs": [
        {
          "internalType": "bytes32",
          "name": "role",
          "type": "bytes32"
        },
        {
          "internalType": "address",
          "name": "account",
          "type": "address"
        }
      ],
      "name": "hasRole",
      "outputs": [
        {
          "internalType": "bool",
          "name": "",
          "type": "bool"
        }
      ],
      "stateMutability": "view",
      "type": "function"
    },
    {
      "inputs": [],
      "name": "investorCount",
      "outputs": [
        {
          "internalType": "uint256",
          "name": "",
          "type": "uint256"
        }
      ],
      "stateMutability": "view",
      "type": "function"
    },
    {
      "inputs": [
        {
          "internalType": "uint16",
          "name": "country",
          "type": "uint16"
        }
      ],
      "name": "isCountryAllowed",
      "outputs": [
        {
          "internalType": "bool",
          "name": "",
          "type": "bool"
        }
      ],
      "stateMutability": "view",
      "type": "function"
    },
    {
      "inputs": [
        {
          "internalType": "address",
          "name": "investor",
          "type": "address"
        }
      ],
      "name": "isVerified",
      "outputs": [
        {
          "internalType": "bool",
          "name": "",
          "type": "bool"
        }
      ],
      "stateMutability": "view",
      "type": "function"
    },
    {
      "inputs": [],
      "name": "pause",
      "outputs": [],
      "stateMutability": "nonpayable",
      "type": "function"
    },
    {
      "inputs": [],
      "name": "paused",
      "outputs": [
        {
          "internalType": "bool",
          "name": "",
          "type": "bool"
        }
      ],
      "stateMutability": "view",
      "type": "function"
    },
    {
      "inputs": [
        {
          "internalType": "address",
          "name": "investor",
          "type": "address"
        },
        {
          "internalType": "uint16",
          "name": "country",
          "type": "uint16"
        },
        {
          "internalType": "enum IIdentityRegistry.VerificationTier",
          "name": "tier",
          "type": "uint8"
        },
        {
          "internalType": "bytes32",
          "name": "kycHash",
          "type": "bytes32"
        }
      ],
      "name": "registerIdentity",
      "outputs": [],
      "stateMutability": "nonpayable",
      "type": "function"
    },
    {
      "inputs": [
        {
          "internalType": "address",
          "name": "investor",
          "type": "address"
        }
      ],
      "name": "removeIdentity",
      "outputs": [],
      "stateMutability": "nonpayable",
      "type": "function"
    },
    {
      "inputs": [
        {
          "internalType": "bytes32",
          "name": "role",
          "type": "bytes32"
        },
        {
          "internalType": "address",
          "name": "callerConfirmation",
          "type": "address"
        }
      ],
      "name": "renounceRole",
      "outputs": [],
      "stateMutability": "nonpayable",
      "type": "function"
    },
    {
      "inputs": [
        {
          "internalType": "bytes32",
          "name": "role",
          "type": "bytes32"
        },
        {
          "internalType": "address",
          "name": "account",
          "type": "address"
        }
      ],
      "name": "revokeRole",
      "outputs": [],
      "stateMutability": "nonpayable",
      "type": "function"
    },
    {
      "inputs": [
        {
          "internalType": "uint16",
          "name": "country",
          "type": "uint16"
        },
        {
          "internalType": "bool",
          "name": "allowed",
          "type": "bool"
        }
      ],
      "name": "setCountryAllowed",
      "outputs": [],
      "stateMutability": "nonpayable",
      "type": "function"
    },
    {
      "inputs": [
        {
          "internalType": "bytes4",
          "name": "interfaceId",
          "type": "bytes4"
        }
      ],
      "name": "supportsInterface",
      "outputs": [
        {
          "internalType": "bool",
          "name": "",
          "type": "bool"
        }
      ],
      "stateMutability": "view",
      "type": "function"
    },
    {
      "inputs": [
        {
          "internalType": "address",
          "name": "investor",
          "type": "address"
        },
        {
          "internalType": "string",
          "name": "reason",
          "type": "string"
        }
      ],
      "name": "suspendIdentity",
      "outputs": [],
      "stateMutability": "nonpayable",
      "type": "function"
    },
    {
      "inputs": [],
      "name": "unpause",
      "outputs": [],
      "stateMutability": "nonpayable",
      "type": "function"
    },
    {
      "inputs": [
        {
          "internalType": "address",
          "name": "investor",
          "type": "address"
        },
        {
          "internalType": "uint48",
          "name": "newExpiry",
          "type": "uint48"
        }
      ],
      "name": "updateKycExpiry",
      "outputs": [],
      "stateMutability": "nonpayable",
      "type": "function"
    },
    {
      "inputs": [
        {
          "internalType": "address",
          "name": "investor",
          "type": "address"
        }
      ],
      "name": "verifyIdentity",
      "outputs": [],
      "stateMutability": "nonpayable",
      "type": "function"
    }
  ],
  "bytecode": "0x60803462000165576200145990601f38839003908101601f19168201906001600160401b038211838310176200016a5780839160409586948552833981010312620001655780620000726200006660206200005e620000799562000180565b930162000180565b91620000728162000195565b5062000215565b506102be60009080825260036020528282209160019260ff199084828254161790556101ca9485835280832085838254161790556101689081845280842086848254161790556102fc9283855281852087828254161790556102609687865282862081838254161790556102c0865282862081838254161790556103108652828620818382541617905561033a8652828620818382541617905561015886528286209182541617905551957f10a288fe18db0c58a3cc576234577d307ee822eed3d098303a60e5809172c49694858580a2848480a2838380a2828280a280a26111819081620002b88239f35b600080fd5b634e487b7160e01b600052604160045260246000fd5b51906001600160a01b03821682036200016557565b6001600160a01b031660008181527fad3228b676f7d3cd4284a5443f17f1962b36e491b30a40b2405849e597ba5fb5602052604081205490919060ff166200021157818052816020526040822081835260205260408220600160ff198254161790553391600080516020620014398339815191528180a4600190565b5090565b6001600160a01b031660008181527f335573aa7cafba10a32e2694464d1e7e5294d917876d04d506249fbf84d791af60205260408120549091907f442a94f1a1fac79af32856af2a64f63648cfa2ef3b98610a5bb7cbec4cee69859060ff16620002b257808352826020526040832082845260205260408320600160ff1982541617905560008051602062001439833981519152339380a4600190565b50509056fe608060408181526004918236101561001657600080fd5b600090813560e01c90816301ffc9a714610ce157508063062d3bd714610ca657806322459e1814610c6b578063248a9ca314610c415780632f2ff15d14610c175780632fea7b8114610aef57806336568abe14610aa95780633f4ba83a14610a3f5780635c975abb14610a1b5780636c85cf67146109ed57806382b32c28146109315780638456cb59146108d757806391d148541461089157806399f644f61461085a578063a217fddf1461083f578063b5b90fd914610774578063b9209e3314610745578063bff9c1c41461069a578063c1f2f1aa14610608578063d547741f146105c9578063d7e64c00146105ab578063e00de9ea14610255578063ea409a9b146101635763f64502931461012c57600080fd5b34610160576020366003190112610160575061014a60209235610f13565b905491519160018060a01b039160031b1c168152f35b80fd5b5091903461025157806003193601126102515761017e610d50565b916024359167ffffffffffffffff9182841161024d573660238501121561024d57830135918211610249573660248385010111610249577fc5630026ba7cc7c7edcfcaf243ff5a4f6db6dd295302b966cfad33dc9b2e3597926024926101e2610fb8565b6001600160a01b0395861680885260026020528388208054919790919061020c9082161515610e18565b60ff60b01b1916600160b21b179055825160208082528101829052938492829101838501378181018301879052601f01601f19168101030190a280f35b8480fd5b8580fd5b8280fd5b5091903461025157608036600319011261025157610271610d50565b60249081359161ffff831680930361024d576044359060058210156105a757610298610fb8565b6102a061112d565b6001600160a01b03928316958615610573578488526020936003855260ff878a2054161561053257889084151580610524575b156104ef57888a526002865280888b2054166104b4578989878a65ffffffffffff8042168c8b8861030384610e59565b9561030c610d77565b99898b52888b01948552610323828c019485610dad565b60608b019586528660808c0198168852600260a08c01996064358b5260c08d019b60018d528352522098511688549261ffff60a01b905160a01b169151600581101561049d57935165ffffffffffff60b81b90861660b81b1660ff60b01b60b09590951b949094166001600160b81b031993909316171765ffffffffffff60b81b1916171785556103e79493600393909290916001860191511665ffffffffffff1982541617905551600284015551151591019060ff801983541691151516179055565b82546801000000000000000081101561048b5780600161040992018555610f13565b819291549060031b918b831b921b191617905561047a575050835192835260ff169082015282917f273d893ad72db0acd71223db0123bde9ea12544026c273b37134d948447101b091a27f02f93fdaafad8edad1ca75101b1fbda62e64ab9afc26d0ea801ccf6ef02c09ab8280a280f35b634e487b7160e01b88526021905286fd5b634e487b7160e01b8b5260418452848bfd5b5050505050888f60218a634e487b7160e01b835252fd5b875162461bcd60e51b81528084018790526016818601527512548e88185b1c9958591e481c9959da5cdd195c995960521b6044820152606490fd5b875162461bcd60e51b81528084018790526010818601526f24a91d1034b73b30b634b2103a34b2b960811b6044820152606490fd5b5089915060018514156102d3565b5060176064928588519362461bcd60e51b85528401528201527f49523a20636f756e747279206e6f7420616c6c6f7765640000000000000000006044820152fd5b6010606492602088519362461bcd60e51b85528401528201526f49523a207a65726f206164647265737360801b6044820152fd5b8680fd5b50913461025157826003193601126102515760209250549051908152f35b5091903461025157806003193601126102515761060491356105ff60016105ee610d35565b938387528660205286200154611014565b6110b8565b5080f35b50903461069657602036600319011261069657816003610626610d50565b9261062f610fb8565b6001600160a01b03938416808452600260205281842054909461065491161515610e18565b8383526002602052822082815582600182015582600282015501557f374ace31388bb8ee152e1f7ad5e216944c28a32dfedb6c9353ba26bf0cdbb15a8280a280f35b5080fd5b5090346106965780600319360112610696576106b4610d66565b602435908115158203610741578161ffff6106ee926106d1610f60565b1693848652600360205285209060ff801983541691151516179055565b1561071a577f10a288fe18db0c58a3cc576234577d307ee822eed3d098303a60e5809172c4968280a280f35b7fb7116ad3b67b1909c11a3d57b86027908d192cfc943153afef5a62ef8a8485fe8280a280f35b8380fd5b5090346106965760203660031901126106965760209061076b610766610d50565b610e89565b90519015158152f35b5090346106965760203660031901126106965761078f610d50565b610797610fb8565b61079f61112d565b6001600160a01b039081168084526002602052918320805490916107c69082161515610e18565b66ffffffffffffff60b01b19164260b881901b65ffffffffffff60b81b1691909117600160b11b17825565ffffffffffff90600190610806908316610e59565b9201911665ffffffffffff198254161790557f02f93fdaafad8edad1ca75101b1fbda62e64ab9afc26d0ea801ccf6ef02c09ab8280a280f35b50903461069657816003193601126106965751908152602090f35b5090346106965760203660031901126106965760ff8160209361ffff61087e610d66565b1681526003855220541690519015158152f35b5091346102515781600319360112610251578160209360ff926108b2610d35565b903582528186528282206001600160a01b039091168252855220549151911615158152f35b50903461069657816003193601126106965760207f62e78cea01bee320cd4e420270b5ea74000d11b0c9f74754ebdbfc544b05a25891610915610f60565b61091d61112d565b600160ff198154161760015551338152a180f35b5091903461025157806003193601126102515761094c610d50565b6024359265ffffffffffff841680940361024957610968610fb8565b6001600160a01b03918216808652600260205283862054909261098d91161515610e18565b428411156109b55750835260026020528220600101805465ffffffffffff1916909117905580f35b606490602084519162461bcd60e51b8352820152601260248201527112548e88195e1c1a5c9e481a5b881c185cdd60721b6044820152fd5b50903461069657806003193601126106965760209061076b610a0d610d50565b610a15610d35565b90610dcf565b50903461069657816003193601126106965760209060ff6001541690519015158152f35b509134610251578260031936011261025157610a59610f60565b6001549060ff821615610a9b575060ff1916600155513381527f5db9ee0a495bf2e6ff9c91a7834c1ba4fdd244a5e8aa4e537bd38aeae4b073aa90602090a180f35b8251638dfc202b60e01b8152fd5b509034610696578060031936011261069657610ac3610d35565b90336001600160a01b03831603610ae057506106049192356110b8565b5163334bd91960e11b81528390fd5b503461016057602036600319011261016057610b09610d50565b908060c0610b15610d77565b82815282602082015282868201528260608201528260808201528260a0820152015260018060a01b038092168152600260205282812092610b54610d77565b938492815490858216855261ffff936020860194808460a01c16865281870190610b8460ff8660b01c1683610dad565b65ffffffffffff968760608a019660b81c16865260ff60038960018a0154169860808c01998a5260a060028201549c019b8c520154169960c08c019a15158b5284519b51168b52511660208a015251916005831015610c0457508701525182166060860152511660808401525160a083015251151560c082015260e09150f35b634e487b7160e01b815260218a52602490fd5b509190346102515780600319360112610251576106049135610c3c60016105ee610d35565b61103a565b50913461025157602036600319011261025157816020936001923581528085522001549051908152f35b509034610696578160031936011261069657602090517fcab5a0bfe0b79d2c4b1c2e02599fa044d115b7511f9659307cb42769509677098152f35b509034610696578160031936011261069657602090517f442a94f1a1fac79af32856af2a64f63648cfa2ef3b98610a5bb7cbec4cee69858152f35b90508334610251576020366003190112610251573563ffffffff60e01b81168091036102515760209250637965db0b60e01b8114908115610d24575b5015158152f35b6301ffc9a760e01b14905083610d1d565b602435906001600160a01b0382168203610d4b57565b600080fd5b600435906001600160a01b0382168203610d4b57565b6004359061ffff82168203610d4b57565b6040519060e0820182811067ffffffffffffffff821117610d9757604052565b634e487b7160e01b600052604160045260246000fd5b6005821015610db95752565b634e487b7160e01b600052602160045260246000fd5b6001600160a01b0381811615610e0d57821615610e0657610def90610e89565b9081610df9575090565b610e039150610e89565b90565b5050600190565b5050610e0390610e89565b15610e1f57565b60405162461bcd60e51b815260206004820152601260248201527112548e881b9bdd081c9959da5cdd195c995960721b6044820152606490fd5b906301e1338065ffffffffffff80931601918211610e7357565b634e487b7160e01b600052601160045260246000fd5b6001600160a01b039081166000908152600260205260409020805491821615159182610ee2575b5081610ed3575b81610ec0575090565b65ffffffffffff91506001015416421090565b600381015460ff169150610eb7565b60ff91925060b01c166005811015610db95760028114908115610f08575b509038610eb0565b600391501438610f00565b600454811015610f4a5760046000527f8a35acfbc15ff81a39ae7d344fd709f28e8600b4aa8c65c6b64bfe7fe36bd19b0190600090565b634e487b7160e01b600052603260045260246000fd5b3360009081527fad3228b676f7d3cd4284a5443f17f1962b36e491b30a40b2405849e597ba5fb5602052604081205460ff1615610f9a5750565b6044906040519063e2517d3f60e01b82523360048301526024820152fd5b3360009081527f335573aa7cafba10a32e2694464d1e7e5294d917876d04d506249fbf84d791af60205260409020547f442a94f1a1fac79af32856af2a64f63648cfa2ef3b98610a5bb7cbec4cee69859060ff1615610f9a5750565b80600052600060205260406000203360005260205260ff6040600020541615610f9a5750565b9060009180835282602052604083209160018060a01b03169182845260205260ff604084205416156000146110b357808352826020526040832082845260205260408320600160ff198254161790557f2f8788117e7eff1d82e926ec794901d17c78024a50270940304540a733656f0d339380a4600190565b505090565b9060009180835282602052604083209160018060a01b03169182845260205260ff6040842054166000146110b35780835282602052604083208284526020526040832060ff1981541690557ff6391f5c32d9c69d2a47ea670b442974b53935d1edc7fd64eb21e047a839171b339380a4600190565b60ff6001541661113957565b60405163d93c066560e01b8152600490fdfea26469706673582212208e45a152a8d9a8f5eea464df929764c25f68e50fe15a7a386cb27e51fc235fba64736f6c634300081800332f8788117e7eff1d82e926ec794901d17c78024a50270940304540a733656f0d",
  "linkReferences": {},
  "deployedLinkReferences": {}
}