{
  "_format": "hh-sol-artifact-1",
  "contractName": "IdentityRegistry",
  "sourceName": "contracts/registry/IdentityRegistry.sol",
  "abi": [
    {
      "inputs": [
        {
          "internalType": "address",
          "name": "admin",
          "type": "address"
        },
        {
          "internalType": "address",
          "name": "complianceOfficer",
          "type": "address"
        }
      ],
      "stateMutability": "nonpayable",
      "type": "constructor"
    },
    {
      "inputs": [],
      "name": "AccessControlBadConfirmation",
      "type": "error"
    },
    {
      "inputs": [
        {
          "internalType": "address",
          "name": "account",
          "type": "address"
        },
        {
          "internalType": "bytes32",
          "name": "neededRole",
          "type": "bytes32"
        }
      ],
      "name": "AccessControlUnauthorizedAccount",
      "type": "error"
    },
    {
      "inputs": [],
      "name": "EnforcedPause",
      "type": "error"
    },
    {
      "inputs": [],
      "name": "ExpectedPause",
      "type": "error"
    },
    {
      "anonymous": false,
      "inputs": [
        {
          "indexed": true,
          "internalType": "uint16",
          "name": "country",
          "type": "uint16"
        }
      ],
      "name": "CountryAllowed",
      "type": "event"
    },
    {
      "anonymous": false,
      "inputs": [
        {
          "indexed": true,
          "internalType": "uint16",
          "name": "country",
          "type": "uint16"
        }
      ],
      "name": "CountryBlocked",
      "type": "event"
    },
    {
      "anonymous": false,
      "inputs": [
        {
          "indexed": true,
          "internalType": "address",
          "name": "investor",
          "type": "address"
        },
        {
          "indexed": false,
          "internalType": "uint16",
          "name": "country",
          "type": "uint16"
        },
        {
          "indexed": false,
          "internalType": "uint8",
          "name": "tier",
          "type": "uint8"
        }
      ],
      "name": "IdentityRegistered",
      "type": "event"
    },
    {
      "anonymous": false,
      "inputs": [
        {
          "indexed": true,
          "internalType": "address",
          "name": "investor",
          "type": "address"
        }
      ],
      "name": "IdentityRemoved",
      "type": "event"
    },
    {
      "anonymous": false,
      "inputs": [
        {
          "indexed": true,
          "internalType": "address",
          "name": "investor",
          "type": "address"
        },
        {
          "indexed": false,
          "internalType": "string",
          "name": "reason",
          "type": "string"
        }
      ],
      "name": "IdentitySuspended",
      "type": "event"
    },
    {
      "anonymous": false,
      "inputs": [
        {
          "indexed": true,
          "internalType": "address",
          "name": "investor",
          "type": "address"
        }
      ],
      "name": "IdentityVerified",
      "type": "event"
    },
    {
      "anonymous": false,
      "inputs": [
        {
          "indexed": false,
          "internalType": "address",
          "name": "account",
          "type": "address"
        }
      ],
      "name": "Paused",
      "type": "event"
    },
    {
      "anonymous": false,
      "inputs": [
        {
          "indexed": true,
          "internalType": "bytes32",
          "name": "role",
          "type": "bytes32"
        },
        {
          "indexed": true,
          "internalType": "bytes32",
          "name": "previousAdminRole",
          "type": "bytes32"
        },
        {
          "indexed": true,
          "internalType": "bytes32",
          "name": "newAdminRole",
          "type": "bytes32"
        }
      ],
      "name": "RoleAdminChanged",
      "type": "event"
    },
    {
      "anonymous": false,
      "inputs": [
        {
          "indexed": true,
          "internalType": "bytes32",
          "name": "role",
          "type": "bytes32"
        },
        {
          "indexed": true,
          "internalType": "address",
          "name": "account",
          "type": "address"
        },
        {
          "indexed": true,
          "internalType": "address",
          "name": "sender",
          "type": "address"
        }
      ],
      "name": "RoleGranted",
      "type": "event"
    },
    {
      "anonymous": false,
      "inputs": [
        {
          "indexed": true,
          "internalType": "bytes32",
          "name": "role",
          "type": "bytes32"
        },
        {
          "indexed": true,
          "internalType": "address",
          "name": "account",
          "type": "address"
        },
        {
          "indexed": true,
          "internalType": "address",
          "name": "sender",
          "type": "address"
        }
      ],
      "name": "RoleRevoked",
      "type": "event"
    },
    {
      "anonymous": false,
      "inputs": [
        {
          "indexed": false,
          "internalType": "address",
          "name": "account",
          "type": "address"
        }
      ],
      "name": "Unpaused",
      "type": "event"
    },
    {
      "inputs": [],
      "name": "AGENT_ROLE",
      "outputs": [
        {
          "internalType": "bytes32",
          "name": "",
          "type": "bytes32"
        }
      ],
      "stateMutability": "view",
      "type": "function"
    },
    {
      "inputs": [],
      "name": "COMPLIANCE_ROLE",
      "outputs": [
        {
          "internalType": "bytes32",
          "name": "",
          "type": "bytes32"
        }
      ],
      "stateMutability": "view",
      "type": "function"
    },
    {
      "inputs": [],
      "name": "DEFAULT_ADMIN_ROLE",
      "outputs": [
        {
          "internalType": "bytes32",
          "name": "",
          "type": "bytes32"
        }
      ],
      "stateMutability": "view",
      "type": "function"
    },
    {
      "inputs": [
        {
          "internalType": "address",
          "name": "from",
          "type": "address"
        },
        {
          "internalType": "address",
          "name": "to",
          "type": "address"
        }
      ],
      "name": "canTransfer",
      "outputs": [
        {
          "internalType": "bool",
          "name": "",
          "type": "bool"
        }
      ],
      "stateMutability": "view",
      "type": "function"
    },
    {
      "inputs": [
        {
          "internalType": "address",
          "name": "investor",
          "type": "address"
        }
      ],
      "name": "getIdentity",
      "outputs": [
        {
          "components": [
            {
              "internalType": "address",
              "name": "wallet",
              "type": "address"
            },
            {
              "internalType": "uint16",
              "name": "country",
              "type": "uint16"
            },
            {
              "internalType": "enum IIdentityRegistry.VerificationTier",
              "name": "tier",
              "type": "uint8"
            },
            {
              "internalType": "uint48",
              "name": "verifiedAt",
              "type": "uint48"
            },
            {
              "internalType": "uint48",
              "name": "expiresAt",
              "type": "uint48"
            },
            {
              "internalType": "bytes32",
              "name": "kycHash",
              "type": "bytes32"
            },
            {
              "internalType": "bool",
              "name": "amlClear",
              "type": "bool"
            }
          ],
          "internalType": "struct IIdentityRegistry.Identity",
          "name": "",
          "type": "tuple"
        }
      ],
      "stateMutability": "view",
      "type": "function"
    },
    {
      "inputs": [
        {
          "internalType": "uint256",
          "name": "index",
          "type": "uint256"
        }
      ],
      "name": "getInvestorAt",
      "outputs": [
        {
          "internalType": "address",
          "name": "",
          "type": "address"
        }
      ],
      "stateMutability": "view",
      "type": "function"
    },
    {
      "inputs": [
        {
          "internalType": "bytes32",
          "name": "role",
          "type": "bytes32"
        }
      ],
      "name": "getRoleAdmin",
      "outputs": [
        {
          "internalType": "bytes32",
          "name": "",
          "type": "bytes32"
        }
      ],
      "stateMutability": "view",
      "type": "function"
    },
    {
      "inputs": [
        {
          "internalType": "bytes32",
          "name": "role",
          "type": "bytes32"
        },
        {
          "internalType": "address",
          "name": "account",
          "type": "address"
        }
      ],
      "name": "grantRole",
      "outputs": [],
      "stateMutability": "nonpayable",
      "type": "function"
    },
    {
      "inputs": [
        {
          "internalType": "bytes32",
          "name": "role",
          "type": "bytes32"
        },
        {
          "internalType": "address",
          "name": "account",
          "type": "address"
        }
      ],
      "name": "hasRole",
      "outputs": [
        {
          "internalType": "bool",
          "name": "",
          "type": "bool"
        }
      ],
      "stateMutability": "view",
      "type": "function"
    },
    {
      "inputs": [],
      "name": "investorCount",
      "outputs": [
        {
          "internalType": "uint256",
          "name": "",
          "type": "uint256"
        }
      ],
      "stateMutability": "view",
      "type": "function"
    },
    {
      "inputs": [
        {
          "internalType": "uint16",
          "name": "country",
          "type": "uint16"
        }
      ],
      "name": "isCountryAllowed",
      "outputs": [
        {
          "internalType": "bool",
          "name": "",
          "type": "bool"
        }
      ],
      "stateMutability": "view",
      "type": "function"
    },
    {
      "inputs": [
        {
          "internalType": "address",
          "name": "investor",
          "type": "address"
        }
      ],
      "name": "isVerified",
      "outputs": [
        {
          "internalType": "bool",
          "name": "",
          "type": "bool"
        }
      ],
      "stateMutability": "view",
      "type": "function"
    },
    {
      "inputs": [],
      "name": "pause",
      "outputs": [],
      "stateMutability": "nonpayable",
      "type": "function"
    },
    {
      "inputs": [],
      "name": "paused",
      "outputs": [
        {
          "internalType": "bool",
          "name": "",
          "type": "bool"
        }
      ],
      "stateMutability": "view",
      "type": "function"
    },
    {
      "inputs": [
        {
          "internalType": "address",
          "name": "investor",
          "type": "address"
        },
        {
          "internalType": "uint16",
          "name": "country",
          "type": "uint16"
        },
        {
          "internalType": "enum IIdentityRegistry.VerificationTier",
          "name": "tier",
          "type": "uint8"
        },
        {
          "internalType": "bytes32",
          "name": "kycHash",
          "type": "bytes32"
        }
      ],
      "name": "registerIdentity",
      "outputs": [],
      "stateMutability": "nonpayable",
      "type": "function"
    },
    {
      "inputs": [
        {
          "internalType": "address",
          "name": "investor",
          "type": "address"
        }
      ],
      "name": "removeIdentity",
      "outputs": [],
      "stateMutability": "nonpayable",
      "type": "function"
    },
    {
      "inputs": [
        {
          "internalType": "bytes32",
          "name": "role",
          "type": "bytes32"
        },
        {
          "internalType": "address",
          "name": "callerConfirmation",
          "type": "address"
        }
      ],
      "name": "renounceRole",
      "outputs": [],
      "stateMutability": "nonpayable",
      "type": "function"
    },
    {
      "inputs": [
        {
          "internalType": "bytes32",
          "name": "role",
          "type": "bytes32"
        },
        {
          "internalType": "address",
          "name": "account",
          "type": "address"
        }
      ],
      "name": "revokeRole",
      "outputs": [],
      "stateMutability": "nonpayable",
      "type": "function"
    },
    {
      "inputs": [
        {
          "internalType": "uint16",
          "name": "country",
          "type": "uint16"
        },
        {
          "internalType": "bool",
          "name": "allowed",
          "type": "bool"
        }
      ],
      "name": "setCountryAllowed",
      "outputs": [],
      "stateMutability": "nonpayable",
      "type": "function"
    },
    {
      "inputs": [
        {
          "internalType": "bytes4",
          "name": "interfaceId",
          "type": "bytes4"
        }
      ],
      "name": "supportsInterface",
      "outputs": [
        {
          "internalType": "bool",
          "name": "",
          "type": "bool"
        }
      ],
      "stateMutability": "view",
      "type": "function"
    },
    {
      "inputs": [
        {
          "internalType": "address",
          "name": "investor",
          "type": "address"
        },
        {
          "internalType": "string",
          "name": "reason",
          "type": "string"
        }
      ],
      "name": "suspendIdentity",
      "outputs": [],
      "stateMutability": "nonpayable",
      "type": "function"
    },
    {
      "inputs": [],
      "name": "unpause",
      "outputs": [],
      "stateMutability": "nonpayable",
      "type": "function"
    },
    {
      "inputs": [
        {
          "internalType": "address",
          "name": "investor",
          "type": "address"
        },
        {
          "internalType": "uint48",
          "name": "newExpiry",
          "type": "uint48"
        }
      ],
      "name": "updateKycExpiry",
      "outputs": [],
      "stateMutability": "nonpayable",
      "type": "function"
    },
    {
      "inputs": [
        {
          "internalType": "address",
          "name": "investor",
          "type": "address"
        }
      ],
      "name": "verifyIdentity",
      "outputs": [],
      "stateMutability": "nonpayable",
      "type": "function"
    }
  ],
  "bytecode": "0x60803462000165576200142790601f38839003908101601f19168201906001600160401b038211838310176200016a5780839160409586948552833981010312620001655780620000726200006660206200005e620000799562000180565b930162000180565b91620000728162000195565b5062000215565b506102be60009080825260036020528282209160019260ff199084828254161790556101ca9485835280832085838254161790556101689081845280842086848254161790556102fc9283855281852087828254161790556102609687865282862081838254161790556102c0865282862081838254161790556103108652828620818382541617905561033a8652828620818382541617905561015886528286209182541617905551957f10a288fe18db0c58a3cc576234577d307ee822eed3d098303a60e5809172c49694858580a2848480a2838380a2828280a280a261114f9081620002b88239f35b600080fd5b634e487b7160e01b600052604160045260246000fd5b51906001600160a01b03821682036200016557565b6001600160a01b031660008181527fad3228b676f7d3cd4284a5443f17f1962b36e491b30a40b2405849e597ba5fb5602052604081205490919060ff166200021157818052816020526040822081835260205260408220600160ff198254161790553391600080516020620014078339815191528180a4600190565b5090565b6001600160a01b031660008181527f335573aa7cafba10a32e2694464d1e7e5294d917876d04d506249fbf84d791af60205260408120549091907f442a94f1a1fac79af32856af2a64f63648cfa2ef3b98610a5bb7cbec4cee69859060ff16620002b257808352826020526040832082845260205260408320600160ff1982541617905560008051602062001407833981519152339380a4600190565b50509056fe608060408181526004918236101561001657600080fd5b600090813560e01c90816301ffc9a714610c7757508063062d3bd714610c4e57806322459e1814610c13578063248a9ca314610be95780632f2ff15d14610bbf5780632fea7b8114610a9757806336568abe14610a515780633f4ba83a146109e75780635c975abb146109c35780636c85cf671461099557806382b32c28146108d95780638456cb591461087f57806391d148541461083957806399f644f614610802578063a217fddf146107e7578063b5b90fd914610741578063b9209e3314610712578063bff9c1c414610667578063c1f2f1aa146105d5578063d547741f14610596578063d7e64c0014610578578063e00de9ea14610254578063ea409a9b146101635763f64502931461012c57600080fd5b34610160576020366003190112610160575061014a60209235610ecf565b905491519160018060a01b039160031b1c168152f35b80fd5b5091903461025057806003193601126102505761017e610ce6565b91602435916001600160401b039182841161024c573660238501121561024c57830135918211610248573660248385010111610248577fc5630026ba7cc7c7edcfcaf243ff5a4f6db6dd295302b966cfad33dc9b2e3597926024926101e1610f58565b6001600160a01b0395861680885260026020528388208054919790919061020b9082161515610dad565b60ff60b01b1916600160b21b179055825160208082528101829052938492829101838501378181018301879052601f01601f19168101030190a280f35b8480fd5b8580fd5b8280fd5b5091903461025057608036600319011261025057610270610ce6565b60249081359161ffff831680930361024c5760443590600582101561057457610297610f58565b61029f6110bb565b6001600160a01b03928316958615610540578488526020936003855260ff878a20541615610505578890841515806104f7575b156104c257888a526002865280888b205416610487578989878a65ffffffffffff8042168c8b8861030284610e15565b9561030b610d0d565b99898b52888b01948552610322828c019485610d42565b60608b019586528660808c0198168852600260a08c01996064358b5260c08d019b60018d528352522098511688549261ffff60a01b905160a01b1691516005811015610470576001600160b81b0319909316171760b09190911b60ff60b01b16178655516103d195946003949093909290916103a090821687610dee565b6001860191511665ffffffffffff1982541617905551600284015551151591019060ff801983541691151516179055565b8254600160401b81101561045e578060016103ee92018555610ecf565b819291549060031b918b831b921b191617905561044d575050835192835260ff169082015282917f273d893ad72db0acd71223db0123bde9ea12544026c273b37134d948447101b091a26000805160206110da8339815191528280a280f35b634e487b7160e01b88526021905286fd5b634e487b7160e01b8b5260418452848bfd5b5050505050888f60218a634e487b7160e01b835252fd5b875162461bcd60e51b81528084018790526016818601527512548e88185b1c9958591e481c9959da5cdd195c995960521b6044820152606490fd5b875162461bcd60e51b81528084018790526010818601526f24a91d1034b73b30b634b2103a34b2b960811b6044820152606490fd5b5089915060018514156102d2565b5060176064928588519362461bcd60e51b85528401528201527612548e8818dbdd5b9d1c9e481b9bdd08185b1b1bddd959604a1b6044820152fd5b6010606492602088519362461bcd60e51b85528401528201526f49523a207a65726f206164647265737360801b6044820152fd5b8680fd5b50913461025057826003193601126102505760209250549051908152f35b509190346102505780600319360112610250576105d191356105cc60016105bb610ccb565b938387528660205286200154610fa2565b611046565b5080f35b509034610663576020366003190112610663578160036105f3610ce6565b926105fc610f58565b6001600160a01b03938416808452600260205281842054909461062191161515610dad565b8383526002602052822082815582600182015582600282015501557f374ace31388bb8ee152e1f7ad5e216944c28a32dfedb6c9353ba26bf0cdbb15a8280a280f35b5080fd5b509034610663578060031936011261066357610681610cfc565b60243590811515820361070e578161ffff6106bb9261069e610f00565b1693848652600360205285209060ff801983541691151516179055565b156106e7577f10a288fe18db0c58a3cc576234577d307ee822eed3d098303a60e5809172c4968280a280f35b7fb7116ad3b67b1909c11a3d57b86027908d192cfc943153afef5a62ef8a8485fe8280a280f35b8380fd5b50903461066357602036600319011261066357602090610738610733610ce6565b610e45565b90519015158152f35b5090346106635760203660031901126106635761075c610ce6565b610764610f58565b61076c6110bb565b6001600160a01b039081168084526002602052918320805490916107939082161515610dad565b60ff60b01b1916600160b11b17815565ffffffffffff60016107c04283166107bb8186610dee565b610e15565b9201911665ffffffffffff198254161790556000805160206110da8339815191528280a280f35b50903461066357816003193601126106635751908152602090f35b5090346106635760203660031901126106635760ff8160209361ffff610826610cfc565b1681526003855220541690519015158152f35b5091346102505781600319360112610250578160209360ff9261085a610ccb565b903582528186528282206001600160a01b039091168252855220549151911615158152f35b50903461066357816003193601126106635760207f62e78cea01bee320cd4e420270b5ea74000d11b0c9f74754ebdbfc544b05a258916108bd610f00565b6108c56110bb565b600160ff198154161760015551338152a180f35b509190346102505780600319360112610250576108f4610ce6565b6024359265ffffffffffff841680940361024857610910610f58565b6001600160a01b03918216808652600260205283862054909261093591161515610dad565b4284111561095d5750835260026020528220600101805465ffffffffffff1916909117905580f35b606490602084519162461bcd60e51b8352820152601260248201527112548e88195e1c1a5c9e481a5b881c185cdd60721b6044820152fd5b5090346106635780600319360112610663576020906107386109b5610ce6565b6109bd610ccb565b90610d64565b50903461066357816003193601126106635760209060ff6001541690519015158152f35b509134610250578260031936011261025057610a01610f00565b6001549060ff821615610a43575060ff1916600155513381527f5db9ee0a495bf2e6ff9c91a7834c1ba4fdd244a5e8aa4e537bd38aeae4b073aa90602090a180f35b8251638dfc202b60e01b8152fd5b509034610663578060031936011261066357610a6b610ccb565b90336001600160a01b03831603610a8857506105d1919235611046565b5163334bd91960e11b81528390fd5b503461016057602036600319011261016057610ab1610ce6565b908060c0610abd610d0d565b82815282602082015282868201528260608201528260808201528260a0820152015260018060a01b038092168152600260205282812092610afc610d0d565b938492815490858216855261ffff936020860194808460a01c16865281870190610b2c60ff8660b01c1683610d42565b65ffffffffffff968760608a019660b81c16865260ff60038960018a0154169860808c01998a5260a060028201549c019b8c520154169960c08c019a15158b5284519b51168b52511660208a015251916005831015610bac57508701525182166060860152511660808401525160a083015251151560c082015260e09150f35b634e487b7160e01b815260218a52602490fd5b509190346102505780600319360112610250576105d19135610be460016105bb610ccb565b610fc8565b50913461025057602036600319011261025057816020936001923581528085522001549051908152f35b509034610663578160031936011261066357602090517fcab5a0bfe0b79d2c4b1c2e02599fa044d115b7511f9659307cb42769509677098152f35b509034610663578160031936011261066357602090516000805160206110fa8339815191528152f35b90508334610250576020366003190112610250573563ffffffff60e01b81168091036102505760209250637965db0b60e01b8114908115610cba575b5015158152f35b6301ffc9a760e01b14905083610cb3565b602435906001600160a01b0382168203610ce157565b600080fd5b600435906001600160a01b0382168203610ce157565b6004359061ffff82168203610ce157565b6040519060e082016001600160401b03811183821017610d2c57604052565b634e487b7160e01b600052604160045260246000fd5b6005821015610d4e5752565b634e487b7160e01b600052602160045260246000fd5b6001600160a01b0381811615610da257821615610d9b57610d8490610e45565b9081610d8e575090565b610d989150610e45565b90565b5050600190565b5050610d9890610e45565b15610db457565b60405162461bcd60e51b815260206004820152601260248201527112548e881b9bdd081c9959da5cdd195c995960721b6044820152606490fd5b805465ffffffffffff60b81b191660b89290921b65ffffffffffff60b81b16919091179055565b906301e1338065ffffffffffff80931601918211610e2f57565b634e487b7160e01b600052601160045260246000fd5b6001600160a01b039081166000908152600260205260409020805491821615159182610e9e575b5081610e8f575b81610e7c575090565b65ffffffffffff91506001015416421090565b600381015460ff169150610e73565b60ff91925060b01c166005811015610d4e5760028114908115610ec4575b509038610e6c565b600391501438610ebc565b600454811015610eea57600460005260206000200190600090565b634e487b7160e01b600052603260045260246000fd5b3360009081527fad3228b676f7d3cd4284a5443f17f1962b36e491b30a40b2405849e597ba5fb5602052604081205460ff1615610f3a5750565b6044906040519063e2517d3f60e01b82523360048301526024820152fd5b3360009081527f335573aa7cafba10a32e2694464d1e7e5294d917876d04d506249fbf84d791af60205260409020546000805160206110fa8339815191529060ff1615610f3a5750565b80600052600060205260406000203360005260205260ff6040600020541615610f3a5750565b9060009180835282602052604083209160018060a01b03169182845260205260ff6040842054161560001461104157808352826020526040832082845260205260408320600160ff198254161790557f2f8788117e7eff1d82e926ec794901d17c78024a50270940304540a733656f0d339380a4600190565b505090565b9060009180835282602052604083209160018060a01b03169182845260205260ff6040842054166000146110415780835282602052604083208284526020526040832060ff1981541690557ff6391f5c32d9c69d2a47ea670b442974b53935d1edc7fd64eb21e047a839171b339380a4600190565b60ff600154166110c757565b60405163d93c066560e01b8152600490fdfe02f93fdaafad8edad1ca75101b1fbda62e64ab9afc26d0ea801ccf6ef02c09ab442a94f1a1fac79af32856af2a64f63648cfa2ef3b98610a5bb7cbec4cee6985a264697066735822122033cfb5fdf91c293f835c3546f0c5739ae8c84f71f0a0e2f339d4c1140ab33e0c64736f6c634300081800332f8788117e7eff1d82e926ec794901d17c78024a50270940304540a733656f0d",
  "linkReferences": {},
  "deployedLinkReferences": {}
}