{
  "_format": "hh-sol-artifact-1",
  "contractName": "IdentityRegistry",
  "sourceName": "contracts/registry/IdentityRegistry.sol",
  "abi": [
    {
      "inputs": [
        {
          "internalType": "address",
          "name": "admin",
          "type": "address"
        },
        {
          "internalType": "address",
          "name": "complianceOfficer",
          "type": "address"
        }
      ],
      "stateMutability": "nonpayable",
      "type": "constructor"
    },
    {
      "inputs": [],
      "name": "AccessControlBadConfirmation",
      "type": "error"
    },
    {
      "inputs": [
        {
          "internalType": "address",
          "name": "account",
          "type": "address"
        },
        {
          "internalType": "bytes32",
          "name": "neededRole",
          "type": "bytes32"
        }
      ],
      "name": "AccessControlUnauthorizedAccount",
      "type": "error"
    },
    {
      "inputs": [],
      "name": "EnforcedPause",
      "type": "error"
    },
    {
      "inputs": [],
      "name": "ExpectedPause",
      "type": "error"
    },
    {
      "anonymous": false,
      "inputs": [
        {
          "indexed": true,
          "internalType": "uint16",
          "name": "country",
          "type": "uint16"
        }
      ],
      "name": "CountryAllowed",
      "type": "event"
    },
    {
      "anonymous": false,
      "inputs": [
        {
          "indexed": true,
          "internalType": "uint16",
          "name": "country",
          "type": "uint16"
        }
      ],
      "name": "CountryBlocked",
      "type": "event"
    },
    {
      "anonymous": false,
      "inputs": [
        {
          "indexed": true,
          "internalType": "address",
          "name": "investor",
          "type": "address"
        },
        {
          "indexed": false,
          "internalType": "uint16",
          "name": "country",
          "type": "uint16"
        },
        {
          "indexed": false,
          "internalType": "uint8",
          "name": "tier",
          "type": "uint8"
        }
      ],
      "name": "IdentityRegistered",
      "type": "event"
    },
    {
      "anonymous": false,
      "inputs": [
        {
          "indexed": true,
          "internalType": "address",
          "name": "investor",
          "type": "address"
        }
      ],
      "name": "IdentityRemoved",
      "type": "event"
    },
    {
      "anonymous": false,
      "inputs": [
        {
          "indexed": true,
          "internalType": "address",
          "name": "investor",
          "type": "address"
        },
        {
          "indexed": false,
          "internalType": "string",
          "name": "reason",
          "type": "string"
        }
      ],
      "name": "IdentitySuspended",
      "type": "event"
    },
    {
      "anonymous": false,
      "inputs": [
        {
          "indexed": true,
          "internalType": "address",
          "name": "investor",
          "type": "address"
        }
      ],
      "name": "IdentityVerified",
      "type": "event"
    },
    {
      "anonymous": false,
      "inputs": [
        {
          "indexed": false,
          "internalType": "address",
          "name": "account",
          "type": "address"
        }
      ],
      "name": "Paused",
      "type": "event"
    },
    {
      "anonymous": false,
      "inputs": [
        {
          "indexed": true,
          "internalType": "bytes32",
          "name": "role",
          "type": "bytes32"
        },
        {
          "indexed": true,
          "internalType": "bytes32",
          "name": "previousAdminRole",
          "type": "bytes32"
        },
        {
          "indexed": true,
          "internalType": "bytes32",
          "name": "newAdminRole",
          "type": "bytes32"
        }
      ],
      "name": "RoleAdminChanged",
      "type": "event"
    },
    {
      "anonymous": false,
      "inputs": [
        {
          "indexed": true,
          "internalType": "bytes32",
          "name": "role",
          "type": "bytes32"
        },
        {
          "indexed": true,
          "internalType": "address",
          "name": "account",
          "type": "address"
        },
        {
          "indexed": true,
          "internalType": "address",
          "name": "sender",
          "type": "address"
        }
      ],
      "name": "RoleGranted",
      "type": "event"
    },
    {
      "anonymous": false,
      "inputs": [
        {
          "indexed": true,
          "internalType": "bytes32",
          "name": "role",
          "type": "bytes32"
        },
        {
          "indexed": true,
          "internalType": "address",
          "name": "account",
          "type": "address"
        },
        {
          "indexed": true,
          "internalType": "address",
          "name": "sender",
          "type": "address"
        }
      ],
      "name": "RoleRevoked",
      "type": "event"
    },
    {
      "anonymous": false,
      "inputs": [
        {
          "indexed": false,
          "internalType": "address",
          "name": "account",
          "type": "address"
        }
      ],
      "name": "Unpaused",
      "type": "event"
    },
    {
      "inputs": [],
      "name": "AGENT_ROLE",
      "outputs": [
        {
          "internalType": "bytes32",
          "name": "",
          "type": "bytes32"
        }
      ],
      "stateMutability": "view",
      "type": "function"
    },
    {
      "inputs": [],
      "name": "COMPLIANCE_ROLE",
      "outputs": [
        {
          "internalType": "bytes32",
          "name": "",
          "type": "bytes32"
        }
      ],
      "stateMutability": "view",
      "type": "function"
    },
    {
      "inputs": [],
      "name": "DEFAULT_ADMIN_ROLE",
      "outputs": [
        {
          "internalType": "bytes32",
          "name": "",
          "type": "bytes32"
        }
      ],
      "stateMutability": "view",
      "type": "function"
    },
    {
      "inputs": [
        {
          "internalType": "address",
          "name": "from",
          "type": "address"
        },
        {
          "internalType": "address",
          "name": "to",
          "type": "address"
        }
      ],
      "name": "canTransfer",
      "outputs": [
        {
          "internalType": "bool",
          "name": "",
          "type": "bool"
        }
      ],
      "stateMutability": "view",
      "type": "function"
    },
    {
      "inputs": [
        {
          "internalType": "address",
          "name": "investor",
          "type": "address"
        }
      ],
      "name": "getIdentity",
      "outputs": [
        {
          "components": [
            {
              "internalType": "address",
              "name": "wallet",
              "type": "address"
            },
            {
              "internalType": "uint16",
              "name": "country",
              "type": "uint16"
            },
            {
              "internalType": "enum IIdentityRegistry.VerificationTier",
              "name": "tier",
              "type": "uint8"
            },
            {
              "internalType": "uint48",
              "name": "verifiedAt",
              "type": "uint48"
            },
            {
              "internalType": "uint48",
              "name": "expiresAt",
              "type": "uint48"
            },
            {
              "internalType": "bytes32",
              "name": "kycHash",
              "type": "bytes32"
            },
            {
              "internalType": "bool",
              "name": "amlClear",
              "type": "bool"
            }
          ],
          "internalType": "struct IIdentityRegistry.Identity",
          "name": "",
          "type": "tuple"
        }
      ],
      "stateMutability": "view",
      "type": "function"
    },
    {
      "inputs": [
        {
          "internalType": "uint256",
          "name": "index",
          "type": "uint256"
        }
      ],
      "name": "getInvestorAt",
      "outputs": [
        {
          "internalType": "address",
          "name": "",
          "type": "address"
        }
      ],
      "stateMutability": "view",
      "type": "function"
    },
    {
      "inputs": [
        {
          "internalType": "bytes32",
          "name": "role",
          "type": "bytes32"
        }
      ],
      "name": "getRoleAdmin",
      "outputs": [
        {
          "internalType": "bytes32",
          "name": "",
          "type": "bytes32"
        }
      ],
      "stateMutability": "view",
      "type": "function"
    },
    {
      "inputs": [
        {
          "internalType": "bytes32",
          "name": "role",
          "type": "bytes32"
        },
        {
          "internalType": "address",
          "name": "account",
          "type": "address"
        }
      ],
      "name": "grantRole",
      "outputs": [],
      "stateMutability": "nonpayable",
      "type": "function"
    },
    {
      "inputs": [
        {
          "internalType": "bytes32",
          "name": "role",
          "type": "bytes32"
        },
        {
          "internalType": "address",
          "name": "account",
          "type": "address"
        }
      ],
      "name": "hasRole",
      "outputs": [
        {
          "internalType": "bool",
          "name": "",
          "type": "bool"
        }
      ],
      "stateMutability": "view",
      "type": "function"
    },
    {
      "inputs": [],
      "name": "investorCount",
      "outputs": [
        {
          "internalType": "uint256",
          "name": "",
          "type": "uint256"
        }
      ],
      "stateMutability": "view",
      "type": "function"
    },
    {
      "inputs": [
        {
          "internalType": "uint16",
          "name": "country",
          "type": "uint16"
        }
      ],
      "name": "isCountryAllowed",
      "outputs": [
        {
          "internalType": "bool",
          "name": "",
          "type": "bool"
        }
      ],
      "stateMutability": "view",
      "type": "function"
    },
    {
      "inputs": [
        {
          "internalType": "address",
          "name": "investor",
          "type": "address"
        }
      ],
      "name": "isVerified",
      "outputs": [
        {
          "internalType": "bool",
          "name": "",
          "type": "bool"
        }
      ],
      "stateMutability": "view",
      "type": "function"
    },
    {
      "inputs": [],
      "name": "pause",
      "outputs": [],
      "stateMutability": "nonpayable",
      "type": "function"
    },
    {
      "inputs": [],
      "name": "paused",
      "outputs": [
        {
          "internalType": "bool",
          "name": "",
          "type": "bool"
        }
      ],
      "stateMutability": "view",
      "type": "function"
    },
    {
      "inputs": [
        {
          "internalType": "address",
          "name": "investor",
          "type": "address"
        },
        {
          "internalType": "uint16",
          "name": "country",
          "type": "uint16"
        },
        {
          "internalType": "enum IIdentityRegistry.VerificationTier",
          "name": "tier",
          "type": "uint8"
        },
        {
          "internalType": "bytes32",
          "name": "kycHash",
          "type": "bytes32"
        }
      ],
      "name": "registerIdentity",
      "outputs": [],
      "stateMutability": "nonpayable",
      "type": "function"
    },
    {
      "inputs": [
        {
          "internalType": "address",
          "name": "investor",
          "type": "address"
        }
      ],
      "name": "removeIdentity",
      "outputs": [],
      "stateMutability": "nonpayable",
      "type": "function"
    },
    {
      "inputs": [
        {
          "internalType": "bytes32",
          "name": "role",
          "type": "bytes32"
        },
        {
          "internalType": "address",
          "name": "callerConfirmation",
          "type": "address"
        }
      ],
      "name": "renounceRole",
      "outputs": [],
      "stateMutability": "nonpayable",
      "type": "function"
    },
    {
      "inputs": [
        {
          "internalType": "bytes32",
          "name": "role",
          "type": "bytes32"
        },
        {
          "internalType": "address",
          "name": "account",
          "type": "address"
        }
      ],
      "name": "revokeRole",
      "outputs": [],
      "stateMutability": "nonpayable",
      "type": "function"
    },
    {
      "inputs": [
        {
          "internalType": "address",
          "name": "investor",
          "type": "address"
        },
        {
          "internalType": "bool",
          "name": "clear",
          "type": "bool"
        }
      ],
      "name": "setAmlClear",
      "outputs": [],
      "stateMutability": "nonpayable",
      "type": "function"
    },
    {
      "inputs": [
        {
          "internalType": "uint16",
          "name": "country",
          "type": "uint16"
        },
        {
          "internalType": "bool",
          "name": "allowed",
          "type": "bool"
        }
      ],
      "name": "setCountryAllowed",
      "outputs": [],
      "stateMutability": "nonpayable",
      "type": "function"
    },
    {
      "inputs": [
        {
          "internalType": "bytes4",
          "name": "interfaceId",
          "type": "bytes4"
        }
      ],
      "name": "supportsInterface",
      "outputs": [
        {
          "internalType": "bool",
          "name": "",
          "type": "bool"
        }
      ],
      "stateMutability": "view",
      "type": "function"
    },
    {
      "inputs": [
        {
          "internalType": "address",
          "name": "investor",
          "type": "address"
        },
        {
          "internalType": "string",
          "name": "reason",
          "type": "string"
        }
      ],
      "name": "suspendIdentity",
      "outputs": [],
      "stateMutability": "nonpayable",
      "type": "function"
    },
    {
      "inputs": [
        {
          "internalType": "address",
          "name": "gnosisSafe",
          "type": "address"
        }
      ],
      "name": "transferAdminToGnosisSafe",
      "outputs": [],
      "stateMutability": "nonpayable",
      "type": "function"
    },
    {
      "inputs": [],
      "name": "unpause",
      "outputs": [],
      "stateMutability": "nonpayable",
      "type": "function"
    },
    {
      "inputs": [
        {
          "internalType": "address",
          "name": "investor",
          "type": "address"
        },
        {
          "internalType": "uint48",
          "name": "newExpiry",
          "type": "uint48"
        }
      ],
      "name": "updateKycExpiry",
      "outputs": [],
      "stateMutability": "nonpayable",
      "type": "function"
    },
    {
      "inputs": [
        {
          "internalType": "address",
          "name": "investor",
          "type": "address"
        }
      ],
      "name": "upgradeToInstitutional",
      "outputs": [],
      "stateMutability": "nonpayable",
      "type": "function"
    },
    {
      "inputs": [
        {
          "internalType": "address",
          "name": "investor",
          "type": "address"
        }
      ],
      "name": "verifyIdentity",
      "outputs": [],
      "stateMutability": "nonpayable",
      "type": "function"
    }
  ],
  "bytecode": "0x6080346200017b576200187990601f38839003908101601f19168201906001600160401b038211838310176200018057808391604095869485528339810103126200017b5780620000726200006660206200005e620000799562000196565b930162000196565b916200007281620001ab565b506200022b565b506102be60009080825260036020528282209160019260ff199084828254161790556101ca94858352808320858382541617905561016880845281842086848254161790556102fc80855282852087858254161790556102609081865283862088868254161790556102c0928387528487208987825416179055610310948588528088208a8882541617905561033a968789528189208b828254161790556101589a8b8a52828a209182541617905551997f10a288fe18db0c58a3cc576234577d307ee822eed3d098303a60e5809172c49698898980a2888880a2878780a2868680a2858580a2848480a2838380a2828280a280a261158b9081620002ce8239f35b600080fd5b634e487b7160e01b600052604160045260246000fd5b51906001600160a01b03821682036200017b57565b6001600160a01b031660008181527fad3228b676f7d3cd4284a5443f17f1962b36e491b30a40b2405849e597ba5fb5602052604081205490919060ff166200022757818052816020526040822081835260205260408220600160ff198254161790553391600080516020620018598339815191528180a4600190565b5090565b6001600160a01b031660008181527f335573aa7cafba10a32e2694464d1e7e5294d917876d04d506249fbf84d791af60205260408120549091907f442a94f1a1fac79af32856af2a64f63648cfa2ef3b98610a5bb7cbec4cee69859060ff16620002c857808352826020526040832082845260205260408320600160ff1982541617905560008051602062001859833981519152339380a4600190565b50509056fe608060408181526004918236101561001657600080fd5b600090813560e01c90816301ffc9a714610f7757508063062d3bd714610f4e57806322459e1814610f13578063248a9ca314610ee95780632f2ff15d14610ebf5780632fea7b8114610d9757806336568abe14610d515780633d9b550e14610c775780633f4ba83a14610c0d5780635c975abb14610be95780636c85cf6714610bbb57806382b32c2814610aff5780638456cb5914610aa557806389ceea9e146109ee57806391d14854146109a857806399f644f6146109715780639ee10fbb146108c4578063a217fddf146108a9578063b5b90fd914610803578063b9209e33146107d4578063bff9c1c414610739578063c1f2f1aa146105f9578063d547741f146105ba578063d7e64c001461059c578063e00de9ea14610263578063ea409a9b146101845763f64502931461014d57600080fd5b34610181576020366003190112610181575061016b602092356111ef565b905491519160018060a01b039160031b1c168152f35b80fd5b5091903461025f578060031936011261025f5761019f610fe6565b91602435916001600160401b039182841161025b573660238501121561025b57830135918211610257573660248385010111610257576000805160206114d6833981519152926024926101f0611220565b6001600160a01b0395861680885260026020528388208054919790919061021a9082161515611073565b60ff60b01b1916600160b21b179055825160208082528101829052938492829101838501378181018301879052601f01601f19168101030190a280f35b8480fd5b8580fd5b8280fd5b5091903461025f57608036600319011261025f5761027f610fe6565b60249081359161ffff831680930361025b57604435906005821015610598576102a6611220565b6102ae611477565b6001600160a01b0383811696908715610563578589526020946003865260ff888b2054161561052757899185151580610519575b156104e457898b526002875280898c2054166104a95789878a8d9365ffffffffffff908c8b8342169261031484611135565b9561031d61101c565b99898b52888b01948552610334828c019485611051565b60608b019586528660808c0198168852600260a08c01996064358b5260c08d019b60018d528352522098511688549261ffff60a01b905160a01b1691516005811015610492576001600160b81b0319909316171760b09190911b60ff60b01b16178655516103d795946003949093909290916103b29082168761110e565b6001860191511665ffffffffffff1982541617905551600284015551151591016110fd565b8254898b5260058752888b20819055600160401b8110156104805790610405826001610423940186556111ef565b90919060018060a01b038084549260031b9316831b921b1916179055565b61046f575050835192835260ff169082015282917f273d893ad72db0acd71223db0123bde9ea12544026c273b37134d948447101b091a26000805160206114b68339815191528280a280f35b634e487b7160e01b88526021905286fd5b634e487b7160e01b8b5260418452848bfd5b5050505050888f60218a634e487b7160e01b835252fd5b885162461bcd60e51b81528085018890526016818701527512548e88185b1c9958591e481c9959da5cdd195c995960521b6044820152606490fd5b885162461bcd60e51b81528085018890526010818701526f24a91d1034b73b30b634b2103a34b2b960811b6044820152606490fd5b508a925060018614156102e2565b875162461bcd60e51b81528084018790526017818601527612548e8818dbdd5b9d1c9e481b9bdd08185b1b1bddd959604a1b6044820152606490fd5b506010606492602088519362461bcd60e51b85528401528201526f49523a207a65726f206164647265737360801b6044820152fd5b8680fd5b50913461025f578260031936011261025f5760209250549051908152f35b5091903461025f578060031936011261025f576105f591356105f060016105df610fcb565b9383875286602052862001546112b0565b611414565b5080f35b5091903461025f5760208060031936011261073557610616610fe6565b61061e611220565b6001600160a01b0390811680865260028352838620549094906106449083161515611073565b8486526005835283862054815460001991908281019081116107225780859183036106f2575b505050815480156106df579260029260039592899795019161068b836111ef565b9091825491891b1b191690555585855260058152848381205552822082815582600182015582600282015501557f374ace31388bb8ee152e1f7ad5e216944c28a32dfedb6c9353ba26bf0cdbb15a8280a280f35b634e487b7160e01b885260318352602488fd5b6106fb906111ef565b90549060031b1c1661071081610405846111ef565b8852600585528588205538838161066a565b634e487b7160e01b895260118452602489fd5b8380fd5b5090346107d057806003193601126107d05761ffff61077d610759610ffc565b61076161100d565b92839161076c611288565b1693848652600360205285206110fd565b156107a9577f10a288fe18db0c58a3cc576234577d307ee822eed3d098303a60e5809172c4968280a280f35b7fb7116ad3b67b1909c11a3d57b86027908d192cfc943153afef5a62ef8a8485fe8280a280f35b5080fd5b5090346107d05760203660031901126107d0576020906107fa6107f5610fe6565b611165565b90519015158152f35b5090346107d05760203660031901126107d05761081e610fe6565b610826611220565b61082e611477565b6001600160a01b039081168084526002602052918320805490916108559082161515611073565b60ff60b01b1916600160b11b17815565ffffffffffff600161088242831661087d818661110e565b611135565b9201911665ffffffffffff198254161790556000805160206114b68339815191528280a280f35b5090346107d057816003193601126107d05751908152602090f35b5090346107d057806003193601126107d0576108de610fe6565b906108e761100d565b6108ef611220565b6001600160a01b03928316808552600260205282852054909361091491161515611073565b828452600260205261092b816003848720016110fd565b15610934578280f35b6060816e10535308199b1859c81c985a5cd959608a1b6000805160206114d683398151915293519160208352600f6020840152820152a281808280f35b5090346107d05760203660031901126107d05760ff8160209361ffff610995610ffc565b1681526003855220541690519015158152f35b50913461025f578160031936011261025f578160209360ff926109c9610fcb565b903582528186528282206001600160a01b039091168252855220549151911615158152f35b50913461025f57602036600319011261025f57610a09610fe6565b91610a12611288565b6001600160a01b0383168015610a72573314610a3c5783610a32846112d6565b506105f5336113ae565b906020606492519162461bcd60e51b8352820152601060248201526f49523a2073616d65206164647265737360801b6044820152fd5b815162461bcd60e51b8152602081850152600d60248201526c49523a207a65726f207361666560981b6044820152606490fd5b5090346107d057816003193601126107d05760207f62e78cea01bee320cd4e420270b5ea74000d11b0c9f74754ebdbfc544b05a25891610ae3611288565b610aeb611477565b600160ff198154161760015551338152a180f35b5091903461025f578060031936011261025f57610b1a610fe6565b6024359265ffffffffffff841680940361025757610b36611220565b6001600160a01b039182168086526002602052838620549092610b5b91161515611073565b42841115610b835750835260026020528220600101805465ffffffffffff1916909117905580f35b606490602084519162461bcd60e51b8352820152601260248201527112548e88195e1c1a5c9e481a5b881c185cdd60721b6044820152fd5b5090346107d057806003193601126107d0576020906107fa610bdb610fe6565b610be3610fcb565b906110b4565b5090346107d057816003193601126107d05760209060ff6001541690519015158152f35b50913461025f578260031936011261025f57610c27611288565b6001549060ff821615610c69575060ff1916600155513381527f5db9ee0a495bf2e6ff9c91a7834c1ba4fdd244a5e8aa4e537bd38aeae4b073aa90602090a180f35b8251638dfc202b60e01b8152fd5b5091903461025f57602036600319011261025f57610c93610fe6565b610c9b611220565b610ca3611477565b60018060a01b0380911692838552600260205282852092610cc984549384161515611073565b60ff8360b01c166005811015610d3e57600203610d0657505060ff60b01b1916600360b01b1790556000805160206114b68339815191528280a280f35b906020606492519162461bcd60e51b8352820152601260248201527112548e881b9bdd081858d8dc99591a5d195960721b6044820152fd5b634e487b7160e01b875260218352602487fd5b5090346107d057806003193601126107d057610d6b610fcb565b90336001600160a01b03831603610d8857506105f5919235611414565b5163334bd91960e11b81528390fd5b503461018157602036600319011261018157610db1610fe6565b908060c0610dbd61101c565b82815282602082015282868201528260608201528260808201528260a0820152015260018060a01b038092168152600260205282812092610dfc61101c565b938492815490858216855261ffff936020860194808460a01c16865281870190610e2c60ff8660b01c1683611051565b65ffffffffffff968760608a019660b81c16865260ff60038960018a0154169860808c01998a5260a060028201549c019b8c520154169960c08c019a15158b5284519b51168b52511660208a015251916005831015610eac57508701525182166060860152511660808401525160a083015251151560c082015260e09150f35b634e487b7160e01b815260218a52602490fd5b5091903461025f578060031936011261025f576105f59135610ee460016105df610fcb565b611342565b50913461025f57602036600319011261025f57816020936001923581528085522001549051908152f35b5090346107d057816003193601126107d057602090517fcab5a0bfe0b79d2c4b1c2e02599fa044d115b7511f9659307cb42769509677098152f35b5090346107d057816003193601126107d057602090516000805160206114f68339815191528152f35b9050833461025f57602036600319011261025f573563ffffffff60e01b811680910361025f5760209250637965db0b60e01b8114908115610fba575b5015158152f35b6301ffc9a760e01b14905083610fb3565b602435906001600160a01b0382168203610fe157565b600080fd5b600435906001600160a01b0382168203610fe157565b6004359061ffff82168203610fe157565b602435908115158203610fe157565b6040519060e082016001600160401b0381118382101761103b57604052565b634e487b7160e01b600052604160045260246000fd5b600582101561105d5752565b634e487b7160e01b600052602160045260246000fd5b1561107a57565b60405162461bcd60e51b815260206004820152601260248201527112548e881b9bdd081c9959da5cdd195c995960721b6044820152606490fd5b6001600160a01b03818116156110f2578216156110eb576110d490611165565b90816110de575090565b6110e89150611165565b90565b5050600190565b50506110e890611165565b9060ff801983541691151516179055565b805465ffffffffffff60b81b191660b89290921b65ffffffffffff60b81b16919091179055565b906301e1338065ffffffffffff8093160191821161114f57565b634e487b7160e01b600052601160045260246000fd5b6001600160a01b0390811660009081526002602052604090208054918216151591826111be575b50816111af575b8161119c575090565b65ffffffffffff91506001015416421090565b600381015460ff169150611193565b60ff91925060b01c16600581101561105d57600281149081156111e4575b50903861118c565b6003915014386111dc565b60045481101561120a57600460005260206000200190600090565b634e487b7160e01b600052603260045260246000fd5b3360009081527f335573aa7cafba10a32e2694464d1e7e5294d917876d04d506249fbf84d791af60205260409020546000805160206114f68339815191529060ff161561126a5750565b6044906040519063e2517d3f60e01b82523360048301526024820152fd5b336000908152600080516020611536833981519152602052604081205460ff161561126a5750565b80600052600060205260406000203360005260205260ff604060002054161561126a5750565b6001600160a01b03166000818152600080516020611536833981519152602052604081205490919060ff1661133e57818052816020526040822081835260205260408220600160ff1982541617905533916000805160206114968339815191528180a4600190565b5090565b9060009180835282602052604083209160018060a01b03169182845260205260ff604084205416156000146113a957808352826020526040832082845260205260408320600160ff19825416179055600080516020611496833981519152339380a4600190565b505090565b6001600160a01b03166000818152600080516020611536833981519152602052604081205490919060ff161561133e5781805281602052604082208183526020526040822060ff19815416905533916000805160206115168339815191528180a4600190565b9060009180835282602052604083209160018060a01b03169182845260205260ff6040842054166000146113a95780835282602052604083208284526020526040832060ff198154169055600080516020611516833981519152339380a4600190565b60ff6001541661148357565b60405163d93c066560e01b8152600490fdfe2f8788117e7eff1d82e926ec794901d17c78024a50270940304540a733656f0d02f93fdaafad8edad1ca75101b1fbda62e64ab9afc26d0ea801ccf6ef02c09abc5630026ba7cc7c7edcfcaf243ff5a4f6db6dd295302b966cfad33dc9b2e3597442a94f1a1fac79af32856af2a64f63648cfa2ef3b98610a5bb7cbec4cee6985f6391f5c32d9c69d2a47ea670b442974b53935d1edc7fd64eb21e047a839171bad3228b676f7d3cd4284a5443f17f1962b36e491b30a40b2405849e597ba5fb5a2646970667358221220f57f91373a2a30febf95aff3634cb656dd1daf17b79752b7bd73a0892c57798264736f6c634300081800332f8788117e7eff1d82e926ec794901d17c78024a50270940304540a733656f0d",
  "linkReferences": {},
  "deployedLinkReferences": {}
}