{
  "_format": "hh-sol-artifact-1",
  "contractName": "ISSToken",
  "sourceName": "contracts/tokens/ISSToken.sol",
  "abi": [
    {
      "inputs": [
        {
          "internalType": "address",
          "name": "admin",
          "type": "address"
        },
        {
          "internalType": "address",
          "name": "teamWallet",
          "type": "address"
        },
        {
          "internalType": "address",
          "name": "ecosystemWallet",
          "type": "address"
        }
      ],
      "stateMutability": "nonpayable",
      "type": "constructor"
    },
    {
      "inputs": [],
      "name": "AccessControlBadConfirmation",
      "type": "error"
    },
    {
      "inputs": [
        {
          "internalType": "address",
          "name": "account",
          "type": "address"
        },
        {
          "internalType": "bytes32",
          "name": "neededRole",
          "type": "bytes32"
        }
      ],
      "name": "AccessControlUnauthorizedAccount",
      "type": "error"
    },
    {
      "inputs": [
        {
          "internalType": "address",
          "name": "spender",
          "type": "address"
        },
        {
          "internalType": "uint256",
          "name": "allowance",
          "type": "uint256"
        },
        {
          "internalType": "uint256",
          "name": "needed",
          "type": "uint256"
        }
      ],
      "name": "ERC20InsufficientAllowance",
      "type": "error"
    },
    {
      "inputs": [
        {
          "internalType": "address",
          "name": "sender",
          "type": "address"
        },
        {
          "internalType": "uint256",
          "name": "balance",
          "type": "uint256"
        },
        {
          "internalType": "uint256",
          "name": "needed",
          "type": "uint256"
        }
      ],
      "name": "ERC20InsufficientBalance",
      "type": "error"
    },
    {
      "inputs": [
        {
          "internalType": "address",
          "name": "approver",
          "type": "address"
        }
      ],
      "name": "ERC20InvalidApprover",
      "type": "error"
    },
    {
      "inputs": [
        {
          "internalType": "address",
          "name": "receiver",
          "type": "address"
        }
      ],
      "name": "ERC20InvalidReceiver",
      "type": "error"
    },
    {
      "inputs": [
        {
          "internalType": "address",
          "name": "sender",
          "type": "address"
        }
      ],
      "name": "ERC20InvalidSender",
      "type": "error"
    },
    {
      "inputs": [
        {
          "internalType": "address",
          "name": "spender",
          "type": "address"
        }
      ],
      "name": "ERC20InvalidSpender",
      "type": "error"
    },
    {
      "inputs": [],
      "name": "ReentrancyGuardReentrantCall",
      "type": "error"
    },
    {
      "anonymous": false,
      "inputs": [
        {
          "indexed": true,
          "internalType": "address",
          "name": "from",
          "type": "address"
        },
        {
          "indexed": true,
          "internalType": "address",
          "name": "to",
          "type": "address"
        }
      ],
      "name": "AdminTransferred",
      "type": "event"
    },
    {
      "anonymous": false,
      "inputs": [
        {
          "indexed": true,
          "internalType": "uint256",
          "name": "totalRecipients",
          "type": "uint256"
        },
        {
          "indexed": true,
          "internalType": "uint256",
          "name": "totalAmount",
          "type": "uint256"
        }
      ],
      "name": "AirdropDistributed",
      "type": "event"
    },
    {
      "anonymous": false,
      "inputs": [
        {
          "indexed": true,
          "internalType": "address",
          "name": "owner",
          "type": "address"
        },
        {
          "indexed": true,
          "internalType": "address",
          "name": "spender",
          "type": "address"
        },
        {
          "indexed": false,
          "internalType": "uint256",
          "name": "value",
          "type": "uint256"
        }
      ],
      "name": "Approval",
      "type": "event"
    },
    {
      "anonymous": false,
      "inputs": [
        {
          "indexed": true,
          "internalType": "address",
          "name": "to",
          "type": "address"
        },
        {
          "indexed": true,
          "internalType": "uint256",
          "name": "amount",
          "type": "uint256"
        }
      ],
      "name": "LiquidityReserveReleased",
      "type": "event"
    },
    {
      "anonymous": false,
      "inputs": [
        {
          "indexed": true,
          "internalType": "address",
          "name": "buyer",
          "type": "address"
        },
        {
          "indexed": true,
          "internalType": "uint256",
          "name": "amount",
          "type": "uint256"
        }
      ],
      "name": "PresaleAllocated",
      "type": "event"
    },
    {
      "anonymous": false,
      "inputs": [
        {
          "indexed": true,
          "internalType": "address",
          "name": "buyer",
          "type": "address"
        },
        {
          "indexed": true,
          "internalType": "uint256",
          "name": "amount",
          "type": "uint256"
        }
      ],
      "name": "PublicSaleAllocated",
      "type": "event"
    },
    {
      "anonymous": false,
      "inputs": [
        {
          "indexed": true,
          "internalType": "address",
          "name": "user",
          "type": "address"
        },
        {
          "indexed": true,
          "internalType": "uint256",
          "name": "creditAmount",
          "type": "uint256"
        }
      ],
      "name": "RewardClaimed",
      "type": "event"
    },
    {
      "anonymous": false,
      "inputs": [
        {
          "indexed": true,
          "internalType": "bytes32",
          "name": "role",
          "type": "bytes32"
        },
        {
          "indexed": true,
          "internalType": "bytes32",
          "name": "previousAdminRole",
          "type": "bytes32"
        },
        {
          "indexed": true,
          "internalType": "bytes32",
          "name": "newAdminRole",
          "type": "bytes32"
        }
      ],
      "name": "RoleAdminChanged",
      "type": "event"
    },
    {
      "anonymous": false,
      "inputs": [
        {
          "indexed": true,
          "internalType": "bytes32",
          "name": "role",
          "type": "bytes32"
        },
        {
          "indexed": true,
          "internalType": "address",
          "name": "account",
          "type": "address"
        },
        {
          "indexed": true,
          "internalType": "address",
          "name": "sender",
          "type": "address"
        }
      ],
      "name": "RoleGranted",
      "type": "event"
    },
    {
      "anonymous": false,
      "inputs": [
        {
          "indexed": true,
          "internalType": "bytes32",
          "name": "role",
          "type": "bytes32"
        },
        {
          "indexed": true,
          "internalType": "address",
          "name": "account",
          "type": "address"
        },
        {
          "indexed": true,
          "internalType": "address",
          "name": "sender",
          "type": "address"
        }
      ],
      "name": "RoleRevoked",
      "type": "event"
    },
    {
      "anonymous": false,
      "inputs": [
        {
          "indexed": true,
          "internalType": "address",
          "name": "user",
          "type": "address"
        },
        {
          "indexed": true,
          "internalType": "uint256",
          "name": "amount",
          "type": "uint256"
        },
        {
          "indexed": false,
          "internalType": "uint48",
          "name": "lockUntil",
          "type": "uint48"
        }
      ],
      "name": "Staked",
      "type": "event"
    },
    {
      "anonymous": false,
      "inputs": [
        {
          "indexed": true,
          "internalType": "address",
          "name": "from",
          "type": "address"
        },
        {
          "indexed": true,
          "internalType": "uint256",
          "name": "amount",
          "type": "uint256"
        },
        {
          "indexed": false,
          "internalType": "string",
          "name": "reason",
          "type": "string"
        }
      ],
      "name": "TokensBurned",
      "type": "event"
    },
    {
      "anonymous": false,
      "inputs": [
        {
          "indexed": true,
          "internalType": "address",
          "name": "from",
          "type": "address"
        },
        {
          "indexed": true,
          "internalType": "address",
          "name": "to",
          "type": "address"
        },
        {
          "indexed": false,
          "internalType": "uint256",
          "name": "value",
          "type": "uint256"
        }
      ],
      "name": "Transfer",
      "type": "event"
    },
    {
      "anonymous": false,
      "inputs": [
        {
          "indexed": true,
          "internalType": "address",
          "name": "to",
          "type": "address"
        },
        {
          "indexed": true,
          "internalType": "uint256",
          "name": "amount",
          "type": "uint256"
        }
      ],
      "name": "TreasuryReleased",
      "type": "event"
    },
    {
      "anonymous": false,
      "inputs": [
        {
          "indexed": true,
          "internalType": "address",
          "name": "user",
          "type": "address"
        },
        {
          "indexed": true,
          "internalType": "uint256",
          "name": "amount",
          "type": "uint256"
        },
        {
          "indexed": true,
          "internalType": "uint256",
          "name": "penalty",
          "type": "uint256"
        }
      ],
      "name": "Unstaked",
      "type": "event"
    },
    {
      "anonymous": false,
      "inputs": [
        {
          "indexed": true,
          "internalType": "address",
          "name": "beneficiary",
          "type": "address"
        },
        {
          "indexed": true,
          "internalType": "uint256",
          "name": "amount",
          "type": "uint256"
        }
      ],
      "name": "VestingClaimed",
      "type": "event"
    },
    {
      "anonymous": false,
      "inputs": [
        {
          "indexed": true,
          "internalType": "address",
          "name": "beneficiary",
          "type": "address"
        },
        {
          "indexed": true,
          "internalType": "uint256",
          "name": "total",
          "type": "uint256"
        },
        {
          "indexed": false,
          "internalType": "uint48",
          "name": "cliffEnd",
          "type": "uint48"
        },
        {
          "indexed": false,
          "internalType": "uint48",
          "name": "vestEnd",
          "type": "uint48"
        }
      ],
      "name": "VestingCreated",
      "type": "event"
    },
    {
      "inputs": [],
      "name": "ALLOCATION_AIRDROP",
      "outputs": [
        {
          "internalType": "uint256",
          "name": "",
          "type": "uint256"
        }
      ],
      "stateMutability": "view",
      "type": "function"
    },
    {
      "inputs": [],
      "name": "ALLOCATION_ECOSYSTEM",
      "outputs": [
        {
          "internalType": "uint256",
          "name": "",
          "type": "uint256"
        }
      ],
      "stateMutability": "view",
      "type": "function"
    },
    {
      "inputs": [],
      "name": "ALLOCATION_LIQUIDITY",
      "outputs": [
        {
          "internalType": "uint256",
          "name": "",
          "type": "uint256"
        }
      ],
      "stateMutability": "view",
      "type": "function"
    },
    {
      "inputs": [],
      "name": "ALLOCATION_PRESALE",
      "outputs": [
        {
          "internalType": "uint256",
          "name": "",
          "type": "uint256"
        }
      ],
      "stateMutability": "view",
      "type": "function"
    },
    {
      "inputs": [],
      "name": "ALLOCATION_PUBLIC_SALE",
      "outputs": [
        {
          "internalType": "uint256",
          "name": "",
          "type": "uint256"
        }
      ],
      "stateMutability": "view",
      "type": "function"
    },
    {
      "inputs": [],
      "name": "ALLOCATION_TEAM",
      "outputs": [
        {
          "internalType": "uint256",
          "name": "",
          "type": "uint256"
        }
      ],
      "stateMutability": "view",
      "type": "function"
    },
    {
      "inputs": [],
      "name": "ALLOCATION_TREASURY",
      "outputs": [
        {
          "internalType": "uint256",
          "name": "",
          "type": "uint256"
        }
      ],
      "stateMutability": "view",
      "type": "function"
    },
    {
      "inputs": [],
      "name": "BURN_RATE_BPS",
      "outputs": [
        {
          "internalType": "uint256",
          "name": "",
          "type": "uint256"
        }
      ],
      "stateMutability": "view",
      "type": "function"
    },
    {
      "inputs": [],
      "name": "DEFAULT_ADMIN_ROLE",
      "outputs": [
        {
          "internalType": "bytes32",
          "name": "",
          "type": "bytes32"
        }
      ],
      "stateMutability": "view",
      "type": "function"
    },
    {
      "inputs": [],
      "name": "EARLY_UNSTAKE_PENALTY_BPS",
      "outputs": [
        {
          "internalType": "uint256",
          "name": "",
          "type": "uint256"
        }
      ],
      "stateMutability": "view",
      "type": "function"
    },
    {
      "inputs": [],
      "name": "LIQUIDITY_LAUNCH_AMOUNT",
      "outputs": [
        {
          "internalType": "uint256",
          "name": "",
          "type": "uint256"
        }
      ],
      "stateMutability": "view",
      "type": "function"
    },
    {
      "inputs": [],
      "name": "LOCK_12M",
      "outputs": [
        {
          "internalType": "uint48",
          "name": "",
          "type": "uint48"
        }
      ],
      "stateMutability": "view",
      "type": "function"
    },
    {
      "inputs": [],
      "name": "LOCK_3M",
      "outputs": [
        {
          "internalType": "uint48",
          "name": "",
          "type": "uint48"
        }
      ],
      "stateMutability": "view",
      "type": "function"
    },
    {
      "inputs": [],
      "name": "LOCK_6M",
      "outputs": [
        {
          "internalType": "uint48",
          "name": "",
          "type": "uint48"
        }
      ],
      "stateMutability": "view",
      "type": "function"
    },
    {
      "inputs": [],
      "name": "MAX_SUPPLY",
      "outputs": [
        {
          "internalType": "uint256",
          "name": "",
          "type": "uint256"
        }
      ],
      "stateMutability": "view",
      "type": "function"
    },
    {
      "inputs": [],
      "name": "MINTABLE",
      "outputs": [
        {
          "internalType": "bool",
          "name": "",
          "type": "bool"
        }
      ],
      "stateMutability": "view",
      "type": "function"
    },
    {
      "inputs": [],
      "name": "PLATFORM_ROLE",
      "outputs": [
        {
          "internalType": "bytes32",
          "name": "",
          "type": "bytes32"
        }
      ],
      "stateMutability": "view",
      "type": "function"
    },
    {
      "inputs": [],
      "name": "SUPPLY_POLICY",
      "outputs": [
        {
          "internalType": "string",
          "name": "",
          "type": "string"
        }
      ],
      "stateMutability": "view",
      "type": "function"
    },
    {
      "inputs": [],
      "name": "TIER1_STAKE",
      "outputs": [
        {
          "internalType": "uint256",
          "name": "",
          "type": "uint256"
        }
      ],
      "stateMutability": "view",
      "type": "function"
    },
    {
      "inputs": [],
      "name": "TIER2_STAKE",
      "outputs": [
        {
          "internalType": "uint256",
          "name": "",
          "type": "uint256"
        }
      ],
      "stateMutability": "view",
      "type": "function"
    },
    {
      "inputs": [],
      "name": "TIER3_STAKE",
      "outputs": [
        {
          "internalType": "uint256",
          "name": "",
          "type": "uint256"
        }
      ],
      "stateMutability": "view",
      "type": "function"
    },
    {
      "inputs": [],
      "name": "TIER4_STAKE",
      "outputs": [
        {
          "internalType": "uint256",
          "name": "",
          "type": "uint256"
        }
      ],
      "stateMutability": "view",
      "type": "function"
    },
    {
      "inputs": [
        {
          "internalType": "address",
          "name": "buyer",
          "type": "address"
        },
        {
          "internalType": "uint256",
          "name": "amount",
          "type": "uint256"
        }
      ],
      "name": "allocatePresale",
      "outputs": [],
      "stateMutability": "nonpayable",
      "type": "function"
    },
    {
      "inputs": [
        {
          "internalType": "address",
          "name": "buyer",
          "type": "address"
        },
        {
          "internalType": "uint256",
          "name": "amount",
          "type": "uint256"
        }
      ],
      "name": "allocatePublicSale",
      "outputs": [],
      "stateMutability": "nonpayable",
      "type": "function"
    },
    {
      "inputs": [],
      "name": "allocationStatus",
      "outputs": [
        {
          "internalType": "uint256",
          "name": "presaleRemaining",
          "type": "uint256"
        },
        {
          "internalType": "uint256",
          "name": "publicSaleRemaining",
          "type": "uint256"
        },
        {
          "internalType": "uint256",
          "name": "liquidityReserveRemaining",
          "type": "uint256"
        },
        {
          "internalType": "uint256",
          "name": "treasuryRemaining",
          "type": "uint256"
        },
        {
          "internalType": "uint256",
          "name": "airdropRemaining",
          "type": "uint256"
        },
        {
          "internalType": "uint256",
          "name": "treasuryUnlockAt",
          "type": "uint256"
        },
        {
          "internalType": "bool",
          "name": "treasuryLocked",
          "type": "bool"
        }
      ],
      "stateMutability": "view",
      "type": "function"
    },
    {
      "inputs": [
        {
          "internalType": "address",
          "name": "owner",
          "type": "address"
        },
        {
          "internalType": "address",
          "name": "spender",
          "type": "address"
        }
      ],
      "name": "allowance",
      "outputs": [
        {
          "internalType": "uint256",
          "name": "",
          "type": "uint256"
        }
      ],
      "stateMutability": "view",
      "type": "function"
    },
    {
      "inputs": [
        {
          "internalType": "address",
          "name": "spender",
          "type": "address"
        },
        {
          "internalType": "uint256",
          "name": "value",
          "type": "uint256"
        }
      ],
      "name": "approve",
      "outputs": [
        {
          "internalType": "bool",
          "name": "",
          "type": "bool"
        }
      ],
      "stateMutability": "nonpayable",
      "type": "function"
    },
    {
      "inputs": [
        {
          "internalType": "address",
          "name": "account",
          "type": "address"
        }
      ],
      "name": "balanceOf",
      "outputs": [
        {
          "internalType": "uint256",
          "name": "",
          "type": "uint256"
        }
      ],
      "stateMutability": "view",
      "type": "function"
    },
    {
      "inputs": [],
      "name": "claimVested",
      "outputs": [],
      "stateMutability": "nonpayable",
      "type": "function"
    },
    {
      "inputs": [],
      "name": "decimals",
      "outputs": [
        {
          "internalType": "uint8",
          "name": "",
          "type": "uint8"
        }
      ],
      "stateMutability": "view",
      "type": "function"
    },
    {
      "inputs": [
        {
          "internalType": "address[]",
          "name": "recipients",
          "type": "address[]"
        },
        {
          "internalType": "uint256[]",
          "name": "amounts",
          "type": "uint256[]"
        }
      ],
      "name": "distributeAirdrop",
      "outputs": [],
      "stateMutability": "nonpayable",
      "type": "function"
    },
    {
      "inputs": [],
      "name": "ecosystemPoolBalance",
      "outputs": [
        {
          "internalType": "uint256",
          "name": "",
          "type": "uint256"
        }
      ],
      "stateMutability": "view",
      "type": "function"
    },
    {
      "inputs": [
        {
          "internalType": "address",
          "name": "user",
          "type": "address"
        }
      ],
      "name": "getFeeDiscount",
      "outputs": [
        {
          "internalType": "uint256",
          "name": "discountBps",
          "type": "uint256"
        }
      ],
      "stateMutability": "view",
      "type": "function"
    },
    {
      "inputs": [
        {
          "internalType": "address",
          "name": "user",
          "type": "address"
        }
      ],
      "name": "getManagementFeeDiscount",
      "outputs": [
        {
          "internalType": "uint256",
          "name": "discountBps",
          "type": "uint256"
        }
      ],
      "stateMutability": "view",
      "type": "function"
    },
    {
      "inputs": [
        {
          "internalType": "bytes32",
          "name": "role",
          "type": "bytes32"
        }
      ],
      "name": "getRoleAdmin",
      "outputs": [
        {
          "internalType": "bytes32",
          "name": "",
          "type": "bytes32"
        }
      ],
      "stateMutability": "view",
      "type": "function"
    },
    {
      "inputs": [
        {
          "internalType": "address",
          "name": "account",
          "type": "address"
        }
      ],
      "name": "grantPlatformRole",
      "outputs": [],
      "stateMutability": "nonpayable",
      "type": "function"
    },
    {
      "inputs": [
        {
          "internalType": "bytes32",
          "name": "role",
          "type": "bytes32"
        },
        {
          "internalType": "address",
          "name": "account",
          "type": "address"
        }
      ],
      "name": "grantRole",
      "outputs": [],
      "stateMutability": "nonpayable",
      "type": "function"
    },
    {
      "inputs": [
        {
          "internalType": "address",
          "name": "user",
          "type": "address"
        }
      ],
      "name": "hasPriorityAccess",
      "outputs": [
        {
          "internalType": "bool",
          "name": "",
          "type": "bool"
        }
      ],
      "stateMutability": "view",
      "type": "function"
    },
    {
      "inputs": [
        {
          "internalType": "bytes32",
          "name": "role",
          "type": "bytes32"
        },
        {
          "internalType": "address",
          "name": "account",
          "type": "address"
        }
      ],
      "name": "hasRole",
      "outputs": [
        {
          "internalType": "bool",
          "name": "",
          "type": "bool"
        }
      ],
      "stateMutability": "view",
      "type": "function"
    },
    {
      "inputs": [],
      "name": "liquidityReserveReleased",
      "outputs": [
        {
          "internalType": "uint256",
          "name": "",
          "type": "uint256"
        }
      ],
      "stateMutability": "view",
      "type": "function"
    },
    {
      "inputs": [],
      "name": "name",
      "outputs": [
        {
          "internalType": "string",
          "name": "",
          "type": "string"
        }
      ],
      "stateMutability": "view",
      "type": "function"
    },
    {
      "inputs": [
        {
          "internalType": "address",
          "name": "from",
          "type": "address"
        },
        {
          "internalType": "uint256",
          "name": "amount",
          "type": "uint256"
        }
      ],
      "name": "processFeePayment",
      "outputs": [],
      "stateMutability": "nonpayable",
      "type": "function"
    },
    {
      "inputs": [
        {
          "internalType": "address",
          "name": "to",
          "type": "address"
        },
        {
          "internalType": "uint256",
          "name": "amount",
          "type": "uint256"
        }
      ],
      "name": "releaseLiquidityReserve",
      "outputs": [],
      "stateMutability": "nonpayable",
      "type": "function"
    },
    {
      "inputs": [
        {
          "internalType": "address",
          "name": "to",
          "type": "address"
        },
        {
          "internalType": "uint256",
          "name": "amount",
          "type": "uint256"
        }
      ],
      "name": "releaseTreasury",
      "outputs": [],
      "stateMutability": "nonpayable",
      "type": "function"
    },
    {
      "inputs": [
        {
          "internalType": "bytes32",
          "name": "role",
          "type": "bytes32"
        },
        {
          "internalType": "address",
          "name": "callerConfirmation",
          "type": "address"
        }
      ],
      "name": "renounceRole",
      "outputs": [],
      "stateMutability": "nonpayable",
      "type": "function"
    },
    {
      "inputs": [
        {
          "internalType": "bytes32",
          "name": "role",
          "type": "bytes32"
        },
        {
          "internalType": "address",
          "name": "account",
          "type": "address"
        }
      ],
      "name": "revokeRole",
      "outputs": [],
      "stateMutability": "nonpayable",
      "type": "function"
    },
    {
      "inputs": [
        {
          "internalType": "uint256",
          "name": "amount",
          "type": "uint256"
        },
        {
          "internalType": "uint48",
          "name": "lockDays",
          "type": "uint48"
        }
      ],
      "name": "stake",
      "outputs": [],
      "stateMutability": "nonpayable",
      "type": "function"
    },
    {
      "inputs": [
        {
          "internalType": "address",
          "name": "",
          "type": "address"
        }
      ],
      "name": "stakes",
      "outputs": [
        {
          "internalType": "uint256",
          "name": "amount",
          "type": "uint256"
        },
        {
          "internalType": "uint48",
          "name": "stakedAt",
          "type": "uint48"
        },
        {
          "internalType": "uint48",
          "name": "lockUntil",
          "type": "uint48"
        },
        {
          "internalType": "uint48",
          "name": "lastReward",
          "type": "uint48"
        },
        {
          "internalType": "bool",
          "name": "active",
          "type": "bool"
        }
      ],
      "stateMutability": "view",
      "type": "function"
    },
    {
      "inputs": [
        {
          "internalType": "bytes4",
          "name": "interfaceId",
          "type": "bytes4"
        }
      ],
      "name": "supportsInterface",
      "outputs": [
        {
          "internalType": "bool",
          "name": "",
          "type": "bool"
        }
      ],
      "stateMutability": "view",
      "type": "function"
    },
    {
      "inputs": [],
      "name": "symbol",
      "outputs": [
        {
          "internalType": "string",
          "name": "",
          "type": "string"
        }
      ],
      "stateMutability": "view",
      "type": "function"
    },
    {
      "inputs": [],
      "name": "totalBurned",
      "outputs": [
        {
          "internalType": "uint256",
          "name": "",
          "type": "uint256"
        }
      ],
      "stateMutability": "view",
      "type": "function"
    },
    {
      "inputs": [],
      "name": "totalStaked",
      "outputs": [
        {
          "internalType": "uint256",
          "name": "",
          "type": "uint256"
        }
      ],
      "stateMutability": "view",
      "type": "function"
    },
    {
      "inputs": [],
      "name": "totalSupply",
      "outputs": [
        {
          "internalType": "uint256",
          "name": "",
          "type": "uint256"
        }
      ],
      "stateMutability": "view",
      "type": "function"
    },
    {
      "inputs": [
        {
          "internalType": "address",
          "name": "to",
          "type": "address"
        },
        {
          "internalType": "uint256",
          "name": "value",
          "type": "uint256"
        }
      ],
      "name": "transfer",
      "outputs": [
        {
          "internalType": "bool",
          "name": "",
          "type": "bool"
        }
      ],
      "stateMutability": "nonpayable",
      "type": "function"
    },
    {
      "inputs": [
        {
          "internalType": "address",
          "name": "gnosisSafe",
          "type": "address"
        }
      ],
      "name": "transferAdminToGnosisSafe",
      "outputs": [],
      "stateMutability": "nonpayable",
      "type": "function"
    },
    {
      "inputs": [
        {
          "internalType": "address",
          "name": "from",
          "type": "address"
        },
        {
          "internalType": "address",
          "name": "to",
          "type": "address"
        },
        {
          "internalType": "uint256",
          "name": "value",
          "type": "uint256"
        }
      ],
      "name": "transferFrom",
      "outputs": [
        {
          "internalType": "bool",
          "name": "",
          "type": "bool"
        }
      ],
      "stateMutability": "nonpayable",
      "type": "function"
    },
    {
      "inputs": [],
      "name": "treasuryReleased",
      "outputs": [
        {
          "internalType": "uint256",
          "name": "",
          "type": "uint256"
        }
      ],
      "stateMutability": "view",
      "type": "function"
    },
    {
      "inputs": [],
      "name": "treasuryUnlockTime",
      "outputs": [
        {
          "internalType": "uint256",
          "name": "",
          "type": "uint256"
        }
      ],
      "stateMutability": "view",
      "type": "function"
    },
    {
      "inputs": [],
      "name": "unstake",
      "outputs": [],
      "stateMutability": "nonpayable",
      "type": "function"
    },
    {
      "inputs": [
        {
          "internalType": "address",
          "name": "beneficiary",
          "type": "address"
        }
      ],
      "name": "vestedAmount",
      "outputs": [
        {
          "internalType": "uint256",
          "name": "",
          "type": "uint256"
        }
      ],
      "stateMutability": "view",
      "type": "function"
    },
    {
      "inputs": [
        {
          "internalType": "address",
          "name": "",
          "type": "address"
        }
      ],
      "name": "vestingSchedules",
      "outputs": [
        {
          "internalType": "uint256",
          "name": "total",
          "type": "uint256"
        },
        {
          "internalType": "uint256",
          "name": "claimed",
          "type": "uint256"
        },
        {
          "internalType": "uint48",
          "name": "cliffEnd",
          "type": "uint48"
        },
        {
          "internalType": "uint48",
          "name": "vestEnd",
          "type": "uint48"
        },
        {
          "internalType": "bool",
          "name": "active",
          "type": "bool"
        },
        {
          "internalType": "bytes32",
          "name": "tranche",
          "type": "bytes32"
        }
      ],
      "stateMutability": "view",
      "type": "function"
    }
  ],
  "bytecode": "0x60a034620007a957601f196200340738819003601f81810184168501946001600160401b03939192909182871085881117620006a6578160609284926040998a52833981010312620007a9576200005681620007ee565b9062000072866200006a60208401620007ee565b9201620007ee565b936200007d620007ce565b93601485527f497373757261205574696c69747920546f6b656e0000000000000000000000006020860152620000b2620007ce565b600381526249535360e81b60208201528551838111620006a6576003546001978882811c921680156200079e575b6020831014620007885781858493116200072f575b50602090858311600114620006c857600092620006bc575b505081881b916000199060031b1c1916176003555b8051928311620006a65760049788548781811c911680156200069b575b6020821014620006865790818486959493116200062a575b506020928411600114620005c45750600092620005b8575b5050600019600383901b1c191690841b1785555b60068390556001600160a01b039082821615620005835781169182156200054f57818516156200050c5780620001bd620001c49262000883565b5062000904565b503015620004f557600254936a52b7d2dcc80cd2e400000094858101809111620004e05760025530600052600060205286600020858154019055865185815260007fddf252ad1be2c89b69c2b068fc378daa952ba7f163c4a11628f55a4df523b3ef60203093a36a14adf4b7320334b900000065ffffffffffff4216916200024c8362000803565b600360a06200025a620007ae565b8581528c6020820194600086528183019189835265ffffffffffff606085019216825260808401908d82526865636f73797374656d60b81b868601528b8916600052600d6020526000209684518855518d8801556bffffffffffff00000000000065ffffffffffff600289019451166cff000000000000000000000000855494519351151560601b169360018060681b031916179160301b16171790550151910155620003078362000803565b908951806200033d7fad63aeec6e410e2826f7d58fa5587c54d898b72068c46e07d49415d23a71916b978894169487836200086a565b0390a36200034b8162000834565b60038862000359846200084f565b9262000364620007ae565b936a09ed194db19b238c0000009889865260208601906000825265ffffffffffff8588019416845265ffffffffffff6060880193168352608087019181835260a0880195637465616d60e01b87528b600052600d60205260002097518855519087015565ffffffffffff600287019351166cff0000000000000000000000006bffffffffffff0000000000008554945160301b169251151560601b169260018060681b03191617171790555191015562000429620004228262000834565b916200084f565b906200043a8851928392836200086a565b0390a36303c267004201804211620004cb5760805230600052600060205282600020540362000489575051612a3f9081620009a88239608051818181610a48015281816110f0015261118d0152f35b6020606492519162461bcd60e51b8352820152601860248201527f4953533a20616c6c6f636174696f6e206d69736d6174636800000000000000006044820152fd5b601183634e487b7160e01b6000525260246000fd5b601187634e487b7160e01b6000525260246000fd5b855163ec442f0560e01b8152600081870152602490fd5b865162461bcd60e51b8152602081880152601360248201527f4953533a207a65726f2065636f73797374656d000000000000000000000000006044820152606490fd5b865162461bcd60e51b8152602081880152600e60248201526d4953533a207a65726f207465616d60901b6044820152606490fd5b865162461bcd60e51b8152602081880152600f60248201526e24a9a99d103d32b9379030b236b4b760891b6044820152606490fd5b0151905038806200016f565b879492919216918960005260206000209260005b8181106200061157508411620005f7575b505050811b01855562000183565b015160001960f88460031b161c19169055388080620005e9565b82840151855589969094019360209384019301620005d8565b90919293508960005260206000208480870160051c820192602088106200067c575b9187968b92969594930160051c01915b8281106200066c57505062000157565b600081558796508a91016200065c565b925081926200064c565b60228a634e487b7160e01b6000525260246000fd5b90607f16906200013f565b634e487b7160e01b600052604160045260246000fd5b0151905038806200010d565b908b8a941691600360005260206000209260005b8181106200071657508411620006fc575b505050811b0160035562000122565b015160001960f88460031b161c19169055388080620006ed565b8284015185558c969094019360209384019301620006dc565b909150600360005260206000208580850160051c820192602086106200077e575b918b91869594930160051c01915b8281106200076e575050620000f5565b600081558594508b91016200075e565b9250819262000750565b634e487b7160e01b600052602260045260246000fd5b91607f1691620000e0565b600080fd5b6040519060c082016001600160401b03811183821017620006a657604052565b60408051919082016001600160401b03811183821017620006a657604052565b51906001600160a01b0382168203620007a957565b906305a39a8065ffffffffffff809316019182116200081e57565b634e487b7160e01b600052601160045260246000fd5b906301e1338065ffffffffffff809316019182116200081e57565b90630784ce0065ffffffffffff809316019182116200081e57565b65ffffffffffff91821681529116602082015260400190565b6001600160a01b031660008181527f05b8ccbb9d4d8fb16ea74ce3c29a41f1b461fbdaff4714a0d9a8eb05499746bc602052604081205490919060ff16620009005781805260056020526040822081835260205260408220600160ff198254161790553391600080516020620033e78339815191528180a4600190565b5090565b6001600160a01b031660008181527f876f28074a6d2b0ec949f62d34618dd94fc26188a75e5665877c78cd325d5c4860205260408120549091907f797343f8d6a29aafeb3aaf0910a8973e0081c60c2f6c1f775cd9f76ea348fc1e9060ff16620009a25780835260056020526040832082845260205260408320600160ff19825416179055600080516020620033e7833981519152339380a4600190565b50509056fe608060408181526004918236101561001657600080fd5b600092833560e01c91826301ffc9a714611fca5750816306fdde0314611ef1578163095cf18714611ecd578163095ea7b314611e2357816316934fc414611db057816318160ddd14611d915781631f0c148114611d6c5781632300f41014611d4f57816323b872dd14611c65578163248a9ca314611c3a5781632def662014611acc5781632f2ff15d14611aa25781633123383314611a7c578163313ce56714611a6057816332cb6b0c14611a3a57816336568abe146119f4578163384711cc146119ce57816339293aba146119b05781633c821a6e1461198b57816341cf742c146118fc5781635622dc62146118dd57816356b131bb146118be5781636956214a146118985781636d8027bd146118725781636f573845146117ee57816370824c5c14611849578163708cfc7b1461182a57816370a08231146117f357816370c29220146103425781637866bac2146117ee57816379492bda146117d1578163817b1cd2146117b2578163843183231461179457816389ceea9e146116be5781638b4212ac146115c057816391d148541461157957816394051f001461139357816395d89b41146112af578163a1b146c814611282578163a217fddf1461059e578163a6a3be9714611144578163a9059cbb14611113578163a91ef818146110d8578163af6c5da8146110b3578163b7fa7cfc14611086578163bcb8850d14611067578163bf5bb3d714610e49578163c742d09314610ce3578163cd855d9014610c27578163d01c44cd14610ac7578163d1b5c0c8146109c7578163d36dff8b146109a1578163d547741f14610961578163d6918be11461093c578163d89135cd1461091d578163dd62ed3e146108d4578163dd924594146105b9578163f30ec0ec1461059e578163fa897ed71461034757508063fabe94b8146103425763fdb20ccb146102c457600080fd5b3461033e57602036600319011261033e5760c09181906001600160a01b036102ea612066565b168152600d6020522060ff815492600183015492600281015491600365ffffffffffff9201549481519687526020870152818316908601528160301c16606085015260601c161515608083015260a0820152f35b5080fd5b6120bd565b9190503461059a578060031936011261059a5781359165ffffffffffff60243581811680820361059657610379612575565b6103848615156122ec565b6276a7008114908115610589575b811561057b575b501561053d57338652602092600b845260ff6001868920015460901c16610503573387528684528585882054106104c45750906104b37f6e8910ae8080a58abd08134c664ce6d891d2355c172dc66c7a66bb8d9e66a7c993926103fd8730336124be565b82421686858a610468878c8160016104158a8a612204565b9288519061042282612114565b8152878101988a8a52838183019516855260608201978b8952600b608084019a858c523383525220905181550196511665ffffffffffff198754161786555116846123ac565b518254915166ffffffffffffff60601b1990921660609190911b65ffffffffffff60601b161790151560901b60ff60901b16179055600c546104ab908990612182565b600c55612204565b9351931683523392a3600160065580f35b845162461bcd60e51b815290810184905260196024820152784953533a20696e73756666696369656e742062616c616e636560381b6044820152606490fd5b845162461bcd60e51b815290810184905260146024820152734953533a20616c7265616479207374616b696e6760601b6044820152606490fd5b835162461bcd60e51b815260208185015260186024820152771254d4ce881a5b9d985b1a59081b1bd8dac81c195c9a5bd960421b6044820152606490fd5b6301e1338091501438610399565b62ed4e0081149150610392565b8680fd5b8280fd5b50503461033e578160031936011261033e5751908152602090f35b90503461059a578160031936011261059a576001600160401b039181358381116108d0576105ea9036908401612152565b929093602490602435908111610596576106079036908401612152565b92610610612610565b838603610896578515610860578796885b87811061084057506a084595161401484a00000061064189601054612182565b11610801579365ffffffffffff6106598142166121eb565b92818416928b5b8a81106106a0578c8c8c61067682601054612182565b6010557f6570e65a772d8d30d76e42c8d07c41bf88b28ecf39ca57095a61b4a76584c2178380a380f35b6106ab818c8b61247a565b356001600160a01b038116908190036107fd576106c982848a61247a565b359080156107c45790818f6003600195948f928b906106e98715156122ec565b82815260a06107808d8481600d998c60208c815260029283818b2001549961071860ff60609c8d1c1615612369565b81519e8f94610726866120e3565b8552838501938285528386019d8e528c8601988952608086019b6001968d97809852019e8f66061697264726f760cc1b9052835252209c518d5551908c01558a0196511665ffffffffffff198754161786555116846123ac565b51825460ff60601b191690151590911b60ff60601b16179055519101558c5160008051602061298a83398151915290806107bb8c80836123d3565b0390a301610660565b508a5162461bcd60e51b81526020818601526013818b0152721254d4ce881e995c9bc81c9958da5c1a595b9d606a1b6044820152606490fd5b8d80fd5b855162461bcd60e51b815260208184015260196024820152781254d4ce88185a5c991c9bdc0818d85c08195e18d959591959603a1b6044820152606490fd5b976108596001916108528b898861247a565b3590612182565b9801610621565b606490602086519162461bcd60e51b8352820152601060248201526f4953533a20656d70747920617272617960801b6044820152fd5b606490602086519162461bcd60e51b83528201526014602482015273092a6a67440d8cadccee8d040dad2e6dac2e8c6d60631b6044820152fd5b8480fd5b50503461033e578060031936011261033e57806020926108f2612066565b6108fa612081565b6001600160a01b0391821683526001865283832091168252845220549051908152f35b50503461033e578160031936011261033e57602090600a549051908152f35b50503461033e578160031936011261033e5760209051690a968163f0a57b4000008152f35b9190503461059a578060031936011261059a5761099d91356109986001610986612081565b93838752600560205286200154612656565b612848565b5080f35b50503461033e578160031936011261033e57602090516a0ac0db698068112d0000008152f35b83833461033e578160031936011261033e57600e54906a0c685fa11e01ec6f00000091820392828411610ab457600f54926a0ac0db698068112d000000938403938411610aa1576007548103908111610aa157600854926a084595161401484a00000093840392848411610a8e576010548503948511610a8e575060e096507f00000000000000000000000000000000000000000000000000000000000000009481519687526020870152850152606084015260808301528060a0830152421060c0820152f35b634e487b7160e01b815260118852602490fd5b634e487b7160e01b825260118652602482fd5b634e487b7160e01b815260118552602490fd5b90503461059a578260031936011261059a57610ae1612575565b338352600d602052818320600281015460ff8160601c1615610be95765ffffffffffff164210610bad576001610b16826128ad565b910191610b25835480936121a5565b938415610b7257505082610b3891612182565b9055610b458133306124be565b337f9fe9b7be9d151c7a8b6de49a1312ff27a15096d0d1d12999af85fe4310e0b1258380a3600160065580f35b906020606492519162461bcd60e51b835282015260156024820152744953533a206e6f7468696e6720746f20636c61696d60581b6044820152fd5b506020606492519162461bcd60e51b835282015260166024820152751254d4ce8818db1a5999881b9bdd081c995858da195960521b6044820152fd5b835162461bcd60e51b815260208185015260186024820152774953533a206e6f2076657374696e67207363686564756c6560401b6044820152606490fd5b50503461033e578160031936011261033e578051610cdf91610c4882612114565b606f82527f466978656420737570706c792e204e6f206d696e742066756e6374696f6e2e2060208301527f3130302c3030302c3030302049535320697320746865207065726d616e656e74818301527f2c2069727265766f6361626c652068617264206361702e20566572696669616260608301526e36329037b71020b93134b9b1b0b71760891b6080830152519182918261201d565b0390f35b90503461059a578160031936011261059a57610cfd612066565b6024359260008051602061296a8339815191529182865260209260058452828720338852845260ff838820541615610e2b57506001600160a01b038116808752868452828720549094908611610dec576107d090818702918783041487151715610dd95750606092610dc460008051602061294a8339815191529593610da36127106a19995957dc185e5b595b9d60aa1b950499610d9b8b826121a5565b9230906124be565b610dad8930612598565b610db989600a54612182565b600a55600954612182565b600955600b815193808552840152820152a380f35b634e487b7160e01b885260119052602487fd5b825162461bcd60e51b815290810184905260196024820152781254d4ce881a5b9cdd59999a58da595b9d081999594818985b603a1b6044820152606490fd5b825163e2517d3f60e01b815233818701526024810191909152604490fd5b90503461059a578160031936011261059a57610e63612066565b9160243592610e70612610565b6001600160a01b031691610e8583151561232b565b610e908415156122ec565b683635c9adc5dea00000841061102957828552600d602052610ebe60ff6002848820015460601c1615612369565b6a0c685fa11e01ec6f000000610ed685600e54612182565b11610feb57508160008051602061298a833981519152849265ffffffffffff80421690600385610f05846121eb565b8b610f7c875195610f15876120e3565b8b87526020870193838552898801948986528260608a01921682528a60808a01956001875260a08b01986670726573616c6560c81b8a528152600d6020522098518955516001890155816002890195511665ffffffffffff198654161785555116836123ac565b51815460ff60601b191690151560601b60ff60601b1617905551910155600e54610fa7908690612182565b600e55610fc1610fb6826121eb565b9251928392836123d3565b0390a37f7e4f3b07d71d1c8cfb5d581029a62cc3b1a57d2ca33206904208f8c0492924368380a380f35b6020606492519162461bcd60e51b835282015260196024820152781254d4ce881c1c995cd85b194818d85c08195e18d959591959603a1b6044820152fd5b6020606492519162461bcd60e51b835282015260196024820152784953533a2062656c6f772042726f6e7a65206d696e696d756d60381b6044820152fd5b50503461033e578160031936011261033e576020906008549051908152f35b50503461033e57602036600319011261033e576020906110ac6110a7612066565b6123ec565b9051908152f35b50503461033e578160031936011261033e576020905169152d02c7e14af68000008152f35b50503461033e578160031936011261033e57602090517f00000000000000000000000000000000000000000000000000000000000000008152f35b50503461033e578060031936011261033e5760209061113d611133612066565b60243590336124be565b5160018152f35b90503461059a578160031936011261059a5761115e612066565b6024359261116a612610565b6001600160a01b038216926111808415156122ac565b61118b8515156122ec565b7f0000000000000000000000000000000000000000000000000000000000000000421061124957600854916a084595161401484a0000006111cc8785612182565b116112125750506111eb916111e2858093612182565b600855306124be565b7f0b34eb2ad2da3c8578e27fa1a558ff8d0fb69a1ba2ce4e953729ae19fb6e5e4b8380a380f35b906020606492519162461bcd60e51b8352820152601160248201527004953533a2074726561737572792063617607c1b6044820152fd5b6020606492519162461bcd60e51b835282015260146024820152731254d4ce881d1c99585cdd5c9e481b1bd8dad95960621b6044820152fd5b83346112ac5760203660031901126112ac5761099d61129f612066565b6112a7612610565b6126e9565b80fd5b83833461033e578160031936011261033e5780519180938054916001908360011c9260018516948515611389575b6020958686108114611376578589529081156113525750600114611317575b610cdf878761130d828c038361212f565b519182918261201d565b9080949750528583205b82841061133f5750505082610cdf9461130d928201019486806112fc565b8054868501880152928601928101611321565b60ff19168887015250505050151560051b830101925061130d82610cdf86806112fc565b634e487b7160e01b845260228352602484fd5b93607f16936112dd565b9190503461059a578060031936011261059a576113ae612066565b91602435926113bb612610565b6001600160a01b0316916113d083151561232b565b6113db8415156122ec565b828552600d6020526113f960ff6002838820015460601c1615612369565b6a0ac0db698068112d00000061141185600f54612182565b116115365765ffffffffffff6276a700814216019281841161152357506114f985938360008051602061298a8339815191529360038880975192611454846120e3565b8984528c6114c0602086019282845287870193818a1690818652606089019182528960808a01956001875260a08b0198657075626c696360d01b8a528152600d6020522098518955516001890155816002890195511665ffffffffffff198654161785555116836123ac565b51815460ff60601b191690151560601b60ff60601b1617905551910155600f546114eb908790612182565b600f555191818392836123d3565b0390a37f903707dbfd50cad2bb827bdcfb0f72a8ea3618a1110717b7e588503cb4c211e68380a380f35b634e487b7160e01b875260119052602486fd5b906020606492519162461bcd60e51b8352820152601d60248201527f4953533a207075626c69632073616c65206361702065786365656465640000006044820152fd5b90503461059a578160031936011261059a578160209360ff9261159a612081565b90358252600586528282206001600160a01b039091168252855220549151911615158152f35b90503461059a578160031936011261059a576115da612066565b602435926115e6612610565b6001600160a01b038216926115fc8415156122ac565b6116078515156122ec565b600754916a0c685fa11e01ec6f0000008381039081116116ab57861161166857505061164191611638858093612182565b600755306124be565b7f9bc6757b4519dcf14759ca772944af95e929114c33addf91f90a9994d8362af18380a380f35b906020606492519162461bcd60e51b8352820152601e60248201527f4953533a2065786365656473206c6971756964697479207265736572766500006044820152fd5b634e487b7160e01b885260118352602488fd5b90503461059a57602036600319011261059a576116d9612066565b916116e2612610565b6001600160a01b0383168015611758573314611716578361170c846117068161267c565b506126e9565b5061099d336127e1565b906020606492519162461bcd60e51b8352820152601c60248201527b24a9a99d1039b0b3329031b0b73737ba103132903232b83637bcb2b960211b6044820152fd5b815162461bcd60e51b815260208185015260166024820152754953533a207a65726f2073616665206164647265737360501b6044820152606490fd5b50503461033e578160031936011261033e576020905162ed4e008152f35b50503461033e578160031936011261033e57602090600c549051908152f35b50503461033e578160031936011261033e57602090516109c48152f35b612097565b50503461033e57602036600319011261033e5760209181906001600160a01b0361181b612066565b16815280845220549051908152f35b50503461033e578160031936011261033e57602090516301e133808152f35b50503461033e578160031936011261033e576020905160008051602061296a8339815191528152f35b50503461033e578160031936011261033e57602090516a14adf4b7320334b90000008152f35b50503461033e57602036600319011261033e576020906110ac6118b9612066565b61221e565b50503461033e578160031936011261033e576020906007549051908152f35b50503461033e578160031936011261033e576020906009549051908152f35b50503461033e57602036600319011261033e5760209181906001600160a01b03611924612066565b168152600b84522090600182015460ff8160901c169283611975575b5082611950575b50519015158152f35b90915065ffffffffffff806119668142166121eb565b169160301c1610159038611947565b54690a968163f0a57b4000001115925038611940565b50503461033e578160031936011261033e575166d3c21bcecceda160191b8152602090f35b50503461033e578160031936011261033e57602090516276a7008152f35b50503461033e57602036600319011261033e576020906110ac6119ef612066565b6121b2565b83833461033e578060031936011261033e57611a0e612081565b90336001600160a01b03831603611a2b575061099d919235612848565b5163334bd91960e11b81528390fd5b50503461033e578160031936011261033e57602090516a52b7d2dcc80cd2e40000008152f35b50503461033e578160031936011261033e576020905160128152f35b50503461033e578160031936011261033e57602090516a09ed194db19b238c0000008152f35b9190503461059a578060031936011261059a5761099d9135611ac76001610986612081565b612778565b90503461059a578260031936011261059a57611ae6612575565b338352600b60205281832090600182019182549360ff8560901c1615611c015790859181549365ffffffffffff849760301c164210611b82575b5050908291611b3286611b47956121a5565b855460ff60901b191690955555600c546121a5565b600c55611b558133306124be565b337f7fc4727e062e336010f2c282598ef5f14facb3de68cf8195c2f23e1454b2b74e8480a4600160065580f35b91925094506109c4908184029184830414841517156115235750611b4792916127108792048096611bb38230612598565b611bbf82600a54612182565b600a556c6561726c795f756e7374616b6560981b81519160208352600d602084015282015260008051602061294a83398151915260603392a390919238611b20565b5162461bcd60e51b815260208184015260146024820152734953533a206e6f20616374697665207374616b6560601b6044820152606490fd5b90503461059a57602036600319011261059a5781602093600192358152600585522001549051908152f35b905082346112ac5760603660031901126112ac57611c81612066565b611c89612081565b916044359360018060a01b038316808352600160205286832033845260205286832054916000198310611cc5575b60208861113d8989896124be565b868310611d2d578115611d16573315611cff5750825260016020908152868320338452815291869020908590039055829061113d87611cb7565b8751634a1406b160e11b8152908101849052602490fd5b875163e602df0560e01b8152908101849052602490fd5b9050611d4b868851938493637dc7a0d960e11b8552339085016124a0565b0390fd5b50503461033e578160031936011261033e57602090516107d08152f35b50503461033e578160031936011261033e576020905169021e19e0c9bab24000008152f35b50503461033e578160031936011261033e576020906002549051908152f35b50503461033e57602036600319011261033e5760a09160ff9082906001600160a01b03611ddb612066565b168152600b6020522091600183549301549065ffffffffffff9080519485528183166020860152818360301c16908501528160601c16606084015260901c1615156080820152f35b90503461059a578160031936011261059a57611e3d612066565b602435903315611eb6576001600160a01b0316918215611e9f57508083602095338152600187528181208582528752205582519081527f8c5be1e5ebec7d5bd14f71427d1e84f3dd0314c0f7b2291e5b200ac8c7c3b925843392a35160018152f35b8351634a1406b160e11b8152908101859052602490fd5b835163e602df0560e01b8152808401869052602490fd5b50503461033e578160031936011261033e5760209051683635c9adc5dea000008152f35b9190503461059a578260031936011261059a5780519183600354906001908260011c92600181168015611fc0575b6020958686108214611fad5750848852908115611f8b5750600114611f50575b610cdf868661130d828b038361212f565b929550600383528583205b828410611f785750505082610cdf9461130d928201019438611f3f565b8054868501880152928601928101611f5b565b60ff191687860152505050151560051b830101925061130d82610cdf38611f3f565b634e487b7160e01b845260229052602483fd5b93607f1693611f1f565b84913461059a57602036600319011261059a573563ffffffff60e01b811680910361059a5760209250637965db0b60e01b811490811561200c575b5015158152f35b6301ffc9a760e01b14905083612005565b6020808252825181830181905290939260005b82811061205257505060409293506000838284010152601f8019910116010190565b818101860151848201604001528501612030565b600435906001600160a01b038216820361207c57565b600080fd5b602435906001600160a01b038216820361207c57565b3461207c57600036600319011261207c5760206040516a084595161401484a0000008152f35b3461207c57600036600319011261207c5760206040516a0c685fa11e01ec6f0000008152f35b60c081019081106001600160401b038211176120fe57604052565b634e487b7160e01b600052604160045260246000fd5b60a081019081106001600160401b038211176120fe57604052565b601f909101601f19168101906001600160401b038211908210176120fe57604052565b9181601f8401121561207c578235916001600160401b03831161207c576020808501948460051b01011161207c57565b9190820180921161218f57565b634e487b7160e01b600052601160045260246000fd5b9190820391821161218f57565b6001600160a01b03166000908152600d60205260409020600281015460601c60ff16156121e5576121e2906128ad565b90565b50600090565b9062ed4e0065ffffffffffff8093160191821161218f57565b91909165ffffffffffff8080941691160191821161218f57565b6001600160a01b03166000908152600b60205260409020600181015460901c60ff16156121e5575469152d02c7e14af68000008110156122a557690a968163f0a57b40000081101561229e5769021e19e0c9bab240000081101561229757683635c9adc5dea00000111561229157600090565b6103e890565b506107d090565b50610bb890565b50610fa090565b156122b357565b60405162461bcd60e51b81526020600482015260116024820152704953533a207a65726f206164647265737360781b6044820152606490fd5b156122f357565b60405162461bcd60e51b815260206004820152601060248201526f1254d4ce881e995c9bc8185b5bdd5b9d60821b6044820152606490fd5b1561233257565b60405162461bcd60e51b815260206004820152600f60248201526e24a9a99d103d32b93790313abcb2b960891b6044820152606490fd5b1561237057565b60405162461bcd60e51b81526020600482015260146024820152734953533a207363686564756c652065786973747360601b6044820152606490fd5b805465ffffffffffff60301b191660309290921b65ffffffffffff60301b16919091179055565b65ffffffffffff91821681529116602082015260400190565b6001600160a01b03166000908152600b60205260409020600181015460901c60ff16156121e5575469152d02c7e14af680000081101561247357690a968163f0a57b40000081101561246c5769021e19e0c9bab240000081101561246557683635c9adc5dea00000111561245f57600090565b6107d090565b50610dac90565b5061119490565b5061138890565b919081101561248a5760051b0190565b634e487b7160e01b600052603260045260246000fd5b604091949392606082019560018060a01b0316825260208201520152565b916001600160a01b0380841692831561255c57169283156125435760009083825281602052604082205490838210612526575091604082826000805160206129aa833981519152958760209652828652038282205586815220818154019055604051908152a3565b611d4b8460405193849363391434e360e21b8552600485016124a0565b60405163ec442f0560e01b815260006004820152602490fd5b604051634b637e8f60e11b815260006004820152602490fd5b600260065414612586576002600655565b604051633ee5aeb560e01b8152600490fd5b906001600160a01b03821690811561255c57600092828452836020526040842054908282106125f35750816000805160206129aa833981519152926020928587528684520360408620558060025403600255604051908152a3565b611d4b8360405193849363391434e360e21b8552600485016124a0565b3360009081526000805160206129ea833981519152602052604081205460ff16156126385750565b6044906040519063e2517d3f60e01b82523360048301526024820152fd5b80600052600560205260406000203360005260205260ff60406000205416156126385750565b6001600160a01b031660008181526000805160206129ea833981519152602052604081205490919060ff166126e55781805260056020526040822081835260205260408220600160ff19825416179055339160008051602061292a8339815191528180a4600190565b5090565b6001600160a01b031660008181527f876f28074a6d2b0ec949f62d34618dd94fc26188a75e5665877c78cd325d5c48602052604081205490919060008051602061296a8339815191529060ff166127735780835260056020526040832082845260205260408320600160ff1982541617905560008051602061292a833981519152339380a4600190565b505090565b906000918083526005602052604083209160018060a01b03169182845260205260ff604084205416156000146127735780835260056020526040832082845260205260408320600160ff1982541617905560008051602061292a833981519152339380a4600190565b6001600160a01b031660008181526000805160206129ea833981519152602052604081205490919060ff16156126e5578180526005602052604082208183526020526040822060ff19815416905533916000805160206129ca8339815191528180a4600190565b906000918083526005602052604083209160018060a01b03169182845260205260ff604084205416600014612773578083526005602052604083208284526020526040832060ff1981541690556000805160206129ca833981519152339380a4600190565b600281015465ffffffffffff8082169182421061292057819060301c169182421015612919576128dd81426121a5565b920381811161218f5716915481810291818304149015171561218f578115612903570490565b634e487b7160e01b600052601260045260246000fd5b5050505490565b5050505060009056fe2f8788117e7eff1d82e926ec794901d17c78024a50270940304540a733656f0dfad31924d655455395c87544c8aa1ffdb5a7505a22a3c2e03f28003b6556a75f797343f8d6a29aafeb3aaf0910a8973e0081c60c2f6c1f775cd9f76ea348fc1ead63aeec6e410e2826f7d58fa5587c54d898b72068c46e07d49415d23a71916bddf252ad1be2c89b69c2b068fc378daa952ba7f163c4a11628f55a4df523b3eff6391f5c32d9c69d2a47ea670b442974b53935d1edc7fd64eb21e047a839171b05b8ccbb9d4d8fb16ea74ce3c29a41f1b461fbdaff4714a0d9a8eb05499746bca264697066735822122060ba9b966efa5069f67e79ff69d3c7958fe850ad9707596f81b57b7f4744384264736f6c634300081800332f8788117e7eff1d82e926ec794901d17c78024a50270940304540a733656f0d",
  "linkReferences": {},
  "deployedLinkReferences": {}
}