{
  "_format": "hh-sol-artifact-1",
  "contractName": "ISSToken",
  "sourceName": "contracts/tokens/ISSToken.sol",
  "abi": [
    {
      "inputs": [
        {
          "internalType": "address",
          "name": "admin",
          "type": "address"
        },
        {
          "internalType": "address",
          "name": "ecosystemWallet",
          "type": "address"
        },
        {
          "internalType": "address",
          "name": "treasuryWallet",
          "type": "address"
        }
      ],
      "stateMutability": "nonpayable",
      "type": "constructor"
    },
    {
      "inputs": [],
      "name": "AccessControlBadConfirmation",
      "type": "error"
    },
    {
      "inputs": [
        {
          "internalType": "address",
          "name": "account",
          "type": "address"
        },
        {
          "internalType": "bytes32",
          "name": "neededRole",
          "type": "bytes32"
        }
      ],
      "name": "AccessControlUnauthorizedAccount",
      "type": "error"
    },
    {
      "inputs": [
        {
          "internalType": "address",
          "name": "spender",
          "type": "address"
        },
        {
          "internalType": "uint256",
          "name": "allowance",
          "type": "uint256"
        },
        {
          "internalType": "uint256",
          "name": "needed",
          "type": "uint256"
        }
      ],
      "name": "ERC20InsufficientAllowance",
      "type": "error"
    },
    {
      "inputs": [
        {
          "internalType": "address",
          "name": "sender",
          "type": "address"
        },
        {
          "internalType": "uint256",
          "name": "balance",
          "type": "uint256"
        },
        {
          "internalType": "uint256",
          "name": "needed",
          "type": "uint256"
        }
      ],
      "name": "ERC20InsufficientBalance",
      "type": "error"
    },
    {
      "inputs": [
        {
          "internalType": "address",
          "name": "approver",
          "type": "address"
        }
      ],
      "name": "ERC20InvalidApprover",
      "type": "error"
    },
    {
      "inputs": [
        {
          "internalType": "address",
          "name": "receiver",
          "type": "address"
        }
      ],
      "name": "ERC20InvalidReceiver",
      "type": "error"
    },
    {
      "inputs": [
        {
          "internalType": "address",
          "name": "sender",
          "type": "address"
        }
      ],
      "name": "ERC20InvalidSender",
      "type": "error"
    },
    {
      "inputs": [
        {
          "internalType": "address",
          "name": "spender",
          "type": "address"
        }
      ],
      "name": "ERC20InvalidSpender",
      "type": "error"
    },
    {
      "inputs": [],
      "name": "ReentrancyGuardReentrantCall",
      "type": "error"
    },
    {
      "anonymous": false,
      "inputs": [
        {
          "indexed": true,
          "internalType": "address",
          "name": "from",
          "type": "address"
        },
        {
          "indexed": true,
          "internalType": "address",
          "name": "to",
          "type": "address"
        }
      ],
      "name": "AdminTransferred",
      "type": "event"
    },
    {
      "anonymous": false,
      "inputs": [
        {
          "indexed": true,
          "internalType": "uint256",
          "name": "totalRecipients",
          "type": "uint256"
        },
        {
          "indexed": true,
          "internalType": "uint256",
          "name": "totalAmount",
          "type": "uint256"
        }
      ],
      "name": "AirdropDistributed",
      "type": "event"
    },
    {
      "anonymous": false,
      "inputs": [
        {
          "indexed": true,
          "internalType": "address",
          "name": "owner",
          "type": "address"
        },
        {
          "indexed": true,
          "internalType": "address",
          "name": "spender",
          "type": "address"
        },
        {
          "indexed": false,
          "internalType": "uint256",
          "name": "value",
          "type": "uint256"
        }
      ],
      "name": "Approval",
      "type": "event"
    },
    {
      "anonymous": false,
      "inputs": [
        {
          "indexed": true,
          "internalType": "address",
          "name": "to",
          "type": "address"
        },
        {
          "indexed": true,
          "internalType": "uint256",
          "name": "amount",
          "type": "uint256"
        }
      ],
      "name": "LiquidityReserveReleased",
      "type": "event"
    },
    {
      "anonymous": false,
      "inputs": [
        {
          "indexed": true,
          "internalType": "address",
          "name": "buyer",
          "type": "address"
        },
        {
          "indexed": true,
          "internalType": "uint256",
          "name": "amount",
          "type": "uint256"
        }
      ],
      "name": "PresaleAllocated",
      "type": "event"
    },
    {
      "anonymous": false,
      "inputs": [
        {
          "indexed": true,
          "internalType": "address",
          "name": "buyer",
          "type": "address"
        },
        {
          "indexed": true,
          "internalType": "uint256",
          "name": "amount",
          "type": "uint256"
        }
      ],
      "name": "PublicSaleAllocated",
      "type": "event"
    },
    {
      "anonymous": false,
      "inputs": [
        {
          "indexed": true,
          "internalType": "address",
          "name": "user",
          "type": "address"
        },
        {
          "indexed": true,
          "internalType": "uint256",
          "name": "creditAmount",
          "type": "uint256"
        }
      ],
      "name": "RewardClaimed",
      "type": "event"
    },
    {
      "anonymous": false,
      "inputs": [
        {
          "indexed": true,
          "internalType": "bytes32",
          "name": "role",
          "type": "bytes32"
        },
        {
          "indexed": true,
          "internalType": "bytes32",
          "name": "previousAdminRole",
          "type": "bytes32"
        },
        {
          "indexed": true,
          "internalType": "bytes32",
          "name": "newAdminRole",
          "type": "bytes32"
        }
      ],
      "name": "RoleAdminChanged",
      "type": "event"
    },
    {
      "anonymous": false,
      "inputs": [
        {
          "indexed": true,
          "internalType": "bytes32",
          "name": "role",
          "type": "bytes32"
        },
        {
          "indexed": true,
          "internalType": "address",
          "name": "account",
          "type": "address"
        },
        {
          "indexed": true,
          "internalType": "address",
          "name": "sender",
          "type": "address"
        }
      ],
      "name": "RoleGranted",
      "type": "event"
    },
    {
      "anonymous": false,
      "inputs": [
        {
          "indexed": true,
          "internalType": "bytes32",
          "name": "role",
          "type": "bytes32"
        },
        {
          "indexed": true,
          "internalType": "address",
          "name": "account",
          "type": "address"
        },
        {
          "indexed": true,
          "internalType": "address",
          "name": "sender",
          "type": "address"
        }
      ],
      "name": "RoleRevoked",
      "type": "event"
    },
    {
      "anonymous": false,
      "inputs": [
        {
          "indexed": true,
          "internalType": "address",
          "name": "user",
          "type": "address"
        },
        {
          "indexed": true,
          "internalType": "uint256",
          "name": "amount",
          "type": "uint256"
        },
        {
          "indexed": false,
          "internalType": "uint48",
          "name": "lockUntil",
          "type": "uint48"
        }
      ],
      "name": "Staked",
      "type": "event"
    },
    {
      "anonymous": false,
      "inputs": [
        {
          "indexed": true,
          "internalType": "address",
          "name": "member",
          "type": "address"
        },
        {
          "indexed": true,
          "internalType": "uint256",
          "name": "amount",
          "type": "uint256"
        },
        {
          "indexed": false,
          "internalType": "uint48",
          "name": "cliffMonths",
          "type": "uint48"
        },
        {
          "indexed": false,
          "internalType": "uint48",
          "name": "vestMonths",
          "type": "uint48"
        }
      ],
      "name": "TeamVestingCreated",
      "type": "event"
    },
    {
      "anonymous": false,
      "inputs": [
        {
          "indexed": true,
          "internalType": "address",
          "name": "from",
          "type": "address"
        },
        {
          "indexed": true,
          "internalType": "uint256",
          "name": "amount",
          "type": "uint256"
        },
        {
          "indexed": false,
          "internalType": "string",
          "name": "reason",
          "type": "string"
        }
      ],
      "name": "TokensBurned",
      "type": "event"
    },
    {
      "anonymous": false,
      "inputs": [
        {
          "indexed": true,
          "internalType": "bytes32",
          "name": "fromTranche",
          "type": "bytes32"
        },
        {
          "indexed": true,
          "internalType": "bytes32",
          "name": "toTranche",
          "type": "bytes32"
        },
        {
          "indexed": true,
          "internalType": "uint256",
          "name": "amount",
          "type": "uint256"
        }
      ],
      "name": "TrancheReallocated",
      "type": "event"
    },
    {
      "anonymous": false,
      "inputs": [
        {
          "indexed": true,
          "internalType": "address",
          "name": "from",
          "type": "address"
        },
        {
          "indexed": true,
          "internalType": "address",
          "name": "to",
          "type": "address"
        },
        {
          "indexed": false,
          "internalType": "uint256",
          "name": "value",
          "type": "uint256"
        }
      ],
      "name": "Transfer",
      "type": "event"
    },
    {
      "anonymous": false,
      "inputs": [
        {
          "indexed": true,
          "internalType": "address",
          "name": "to",
          "type": "address"
        },
        {
          "indexed": true,
          "internalType": "uint256",
          "name": "amount",
          "type": "uint256"
        }
      ],
      "name": "TreasuryReleased",
      "type": "event"
    },
    {
      "anonymous": false,
      "inputs": [
        {
          "indexed": true,
          "internalType": "address",
          "name": "user",
          "type": "address"
        },
        {
          "indexed": true,
          "internalType": "uint256",
          "name": "amount",
          "type": "uint256"
        },
        {
          "indexed": true,
          "internalType": "uint256",
          "name": "penalty",
          "type": "uint256"
        }
      ],
      "name": "Unstaked",
      "type": "event"
    },
    {
      "anonymous": false,
      "inputs": [
        {
          "indexed": true,
          "internalType": "address",
          "name": "beneficiary",
          "type": "address"
        },
        {
          "indexed": true,
          "internalType": "uint256",
          "name": "amount",
          "type": "uint256"
        }
      ],
      "name": "VestingClaimed",
      "type": "event"
    },
    {
      "anonymous": false,
      "inputs": [
        {
          "indexed": true,
          "internalType": "address",
          "name": "beneficiary",
          "type": "address"
        },
        {
          "indexed": true,
          "internalType": "uint256",
          "name": "total",
          "type": "uint256"
        },
        {
          "indexed": false,
          "internalType": "uint48",
          "name": "cliffEnd",
          "type": "uint48"
        },
        {
          "indexed": false,
          "internalType": "uint48",
          "name": "vestEnd",
          "type": "uint48"
        }
      ],
      "name": "VestingCreated",
      "type": "event"
    },
    {
      "inputs": [],
      "name": "ALLOCATION_AIRDROP",
      "outputs": [
        {
          "internalType": "uint256",
          "name": "",
          "type": "uint256"
        }
      ],
      "stateMutability": "view",
      "type": "function"
    },
    {
      "inputs": [],
      "name": "ALLOCATION_ECOSYSTEM",
      "outputs": [
        {
          "internalType": "uint256",
          "name": "",
          "type": "uint256"
        }
      ],
      "stateMutability": "view",
      "type": "function"
    },
    {
      "inputs": [],
      "name": "ALLOCATION_LIQUIDITY",
      "outputs": [
        {
          "internalType": "uint256",
          "name": "",
          "type": "uint256"
        }
      ],
      "stateMutability": "view",
      "type": "function"
    },
    {
      "inputs": [],
      "name": "ALLOCATION_PRESALE",
      "outputs": [
        {
          "internalType": "uint256",
          "name": "",
          "type": "uint256"
        }
      ],
      "stateMutability": "view",
      "type": "function"
    },
    {
      "inputs": [],
      "name": "ALLOCATION_PUBLIC_SALE",
      "outputs": [
        {
          "internalType": "uint256",
          "name": "",
          "type": "uint256"
        }
      ],
      "stateMutability": "view",
      "type": "function"
    },
    {
      "inputs": [],
      "name": "ALLOCATION_TEAM",
      "outputs": [
        {
          "internalType": "uint256",
          "name": "",
          "type": "uint256"
        }
      ],
      "stateMutability": "view",
      "type": "function"
    },
    {
      "inputs": [],
      "name": "ALLOCATION_TREASURY",
      "outputs": [
        {
          "internalType": "uint256",
          "name": "",
          "type": "uint256"
        }
      ],
      "stateMutability": "view",
      "type": "function"
    },
    {
      "inputs": [],
      "name": "BURN_RATE_BPS",
      "outputs": [
        {
          "internalType": "uint256",
          "name": "",
          "type": "uint256"
        }
      ],
      "stateMutability": "view",
      "type": "function"
    },
    {
      "inputs": [],
      "name": "DEFAULT_ADMIN_ROLE",
      "outputs": [
        {
          "internalType": "bytes32",
          "name": "",
          "type": "bytes32"
        }
      ],
      "stateMutability": "view",
      "type": "function"
    },
    {
      "inputs": [],
      "name": "EARLY_UNSTAKE_PENALTY_BPS",
      "outputs": [
        {
          "internalType": "uint256",
          "name": "",
          "type": "uint256"
        }
      ],
      "stateMutability": "view",
      "type": "function"
    },
    {
      "inputs": [],
      "name": "LIQUIDITY_LAUNCH_AMOUNT",
      "outputs": [
        {
          "internalType": "uint256",
          "name": "",
          "type": "uint256"
        }
      ],
      "stateMutability": "view",
      "type": "function"
    },
    {
      "inputs": [],
      "name": "LOCK_12M",
      "outputs": [
        {
          "internalType": "uint48",
          "name": "",
          "type": "uint48"
        }
      ],
      "stateMutability": "view",
      "type": "function"
    },
    {
      "inputs": [],
      "name": "LOCK_3M",
      "outputs": [
        {
          "internalType": "uint48",
          "name": "",
          "type": "uint48"
        }
      ],
      "stateMutability": "view",
      "type": "function"
    },
    {
      "inputs": [],
      "name": "LOCK_6M",
      "outputs": [
        {
          "internalType": "uint48",
          "name": "",
          "type": "uint48"
        }
      ],
      "stateMutability": "view",
      "type": "function"
    },
    {
      "inputs": [],
      "name": "MAX_SUPPLY",
      "outputs": [
        {
          "internalType": "uint256",
          "name": "",
          "type": "uint256"
        }
      ],
      "stateMutability": "view",
      "type": "function"
    },
    {
      "inputs": [],
      "name": "MINTABLE",
      "outputs": [
        {
          "internalType": "bool",
          "name": "",
          "type": "bool"
        }
      ],
      "stateMutability": "view",
      "type": "function"
    },
    {
      "inputs": [],
      "name": "PLATFORM_ROLE",
      "outputs": [
        {
          "internalType": "bytes32",
          "name": "",
          "type": "bytes32"
        }
      ],
      "stateMutability": "view",
      "type": "function"
    },
    {
      "inputs": [],
      "name": "SUPPLY_POLICY",
      "outputs": [
        {
          "internalType": "string",
          "name": "",
          "type": "string"
        }
      ],
      "stateMutability": "view",
      "type": "function"
    },
    {
      "inputs": [],
      "name": "TIER1_STAKE",
      "outputs": [
        {
          "internalType": "uint256",
          "name": "",
          "type": "uint256"
        }
      ],
      "stateMutability": "view",
      "type": "function"
    },
    {
      "inputs": [],
      "name": "TIER2_STAKE",
      "outputs": [
        {
          "internalType": "uint256",
          "name": "",
          "type": "uint256"
        }
      ],
      "stateMutability": "view",
      "type": "function"
    },
    {
      "inputs": [],
      "name": "TIER3_STAKE",
      "outputs": [
        {
          "internalType": "uint256",
          "name": "",
          "type": "uint256"
        }
      ],
      "stateMutability": "view",
      "type": "function"
    },
    {
      "inputs": [],
      "name": "TIER4_STAKE",
      "outputs": [
        {
          "internalType": "uint256",
          "name": "",
          "type": "uint256"
        }
      ],
      "stateMutability": "view",
      "type": "function"
    },
    {
      "inputs": [
        {
          "internalType": "address",
          "name": "buyer",
          "type": "address"
        },
        {
          "internalType": "uint256",
          "name": "amount",
          "type": "uint256"
        }
      ],
      "name": "allocatePresale",
      "outputs": [],
      "stateMutability": "nonpayable",
      "type": "function"
    },
    {
      "inputs": [
        {
          "internalType": "address",
          "name": "buyer",
          "type": "address"
        },
        {
          "internalType": "uint256",
          "name": "amount",
          "type": "uint256"
        }
      ],
      "name": "allocatePublicSale",
      "outputs": [],
      "stateMutability": "nonpayable",
      "type": "function"
    },
    {
      "inputs": [],
      "name": "allocationStatus",
      "outputs": [
        {
          "internalType": "uint256",
          "name": "presaleRemaining",
          "type": "uint256"
        },
        {
          "internalType": "uint256",
          "name": "publicSaleRemaining",
          "type": "uint256"
        },
        {
          "internalType": "uint256",
          "name": "liquidityReserveRemaining",
          "type": "uint256"
        },
        {
          "internalType": "uint256",
          "name": "treasuryRemaining",
          "type": "uint256"
        },
        {
          "internalType": "uint256",
          "name": "airdropRemaining",
          "type": "uint256"
        },
        {
          "internalType": "uint256",
          "name": "teamRemaining",
          "type": "uint256"
        },
        {
          "internalType": "uint256",
          "name": "treasuryUnlockAt",
          "type": "uint256"
        },
        {
          "internalType": "bool",
          "name": "treasuryLocked",
          "type": "bool"
        }
      ],
      "stateMutability": "view",
      "type": "function"
    },
    {
      "inputs": [
        {
          "internalType": "address",
          "name": "owner",
          "type": "address"
        },
        {
          "internalType": "address",
          "name": "spender",
          "type": "address"
        }
      ],
      "name": "allowance",
      "outputs": [
        {
          "internalType": "uint256",
          "name": "",
          "type": "uint256"
        }
      ],
      "stateMutability": "view",
      "type": "function"
    },
    {
      "inputs": [
        {
          "internalType": "address",
          "name": "spender",
          "type": "address"
        },
        {
          "internalType": "uint256",
          "name": "value",
          "type": "uint256"
        }
      ],
      "name": "approve",
      "outputs": [
        {
          "internalType": "bool",
          "name": "",
          "type": "bool"
        }
      ],
      "stateMutability": "nonpayable",
      "type": "function"
    },
    {
      "inputs": [
        {
          "internalType": "address",
          "name": "account",
          "type": "address"
        }
      ],
      "name": "balanceOf",
      "outputs": [
        {
          "internalType": "uint256",
          "name": "",
          "type": "uint256"
        }
      ],
      "stateMutability": "view",
      "type": "function"
    },
    {
      "inputs": [],
      "name": "claimVested",
      "outputs": [],
      "stateMutability": "nonpayable",
      "type": "function"
    },
    {
      "inputs": [
        {
          "internalType": "address",
          "name": "member",
          "type": "address"
        },
        {
          "internalType": "uint256",
          "name": "amount",
          "type": "uint256"
        },
        {
          "internalType": "uint48",
          "name": "cliffMonths",
          "type": "uint48"
        },
        {
          "internalType": "uint48",
          "name": "vestMonths",
          "type": "uint48"
        }
      ],
      "name": "createTeamVesting",
      "outputs": [],
      "stateMutability": "nonpayable",
      "type": "function"
    },
    {
      "inputs": [],
      "name": "decimals",
      "outputs": [
        {
          "internalType": "uint8",
          "name": "",
          "type": "uint8"
        }
      ],
      "stateMutability": "view",
      "type": "function"
    },
    {
      "inputs": [
        {
          "internalType": "address[]",
          "name": "recipients",
          "type": "address[]"
        },
        {
          "internalType": "uint256[]",
          "name": "amounts",
          "type": "uint256[]"
        }
      ],
      "name": "distributeAirdrop",
      "outputs": [],
      "stateMutability": "nonpayable",
      "type": "function"
    },
    {
      "inputs": [],
      "name": "ecosystemPoolBalance",
      "outputs": [
        {
          "internalType": "uint256",
          "name": "",
          "type": "uint256"
        }
      ],
      "stateMutability": "view",
      "type": "function"
    },
    {
      "inputs": [
        {
          "internalType": "address",
          "name": "user",
          "type": "address"
        }
      ],
      "name": "getFeeDiscount",
      "outputs": [
        {
          "internalType": "uint256",
          "name": "discountBps",
          "type": "uint256"
        }
      ],
      "stateMutability": "view",
      "type": "function"
    },
    {
      "inputs": [
        {
          "internalType": "address",
          "name": "user",
          "type": "address"
        }
      ],
      "name": "getManagementFeeDiscount",
      "outputs": [
        {
          "internalType": "uint256",
          "name": "discountBps",
          "type": "uint256"
        }
      ],
      "stateMutability": "view",
      "type": "function"
    },
    {
      "inputs": [
        {
          "internalType": "bytes32",
          "name": "role",
          "type": "bytes32"
        }
      ],
      "name": "getRoleAdmin",
      "outputs": [
        {
          "internalType": "bytes32",
          "name": "",
          "type": "bytes32"
        }
      ],
      "stateMutability": "view",
      "type": "function"
    },
    {
      "inputs": [
        {
          "internalType": "address",
          "name": "account",
          "type": "address"
        }
      ],
      "name": "grantPlatformRole",
      "outputs": [],
      "stateMutability": "nonpayable",
      "type": "function"
    },
    {
      "inputs": [
        {
          "internalType": "bytes32",
          "name": "role",
          "type": "bytes32"
        },
        {
          "internalType": "address",
          "name": "account",
          "type": "address"
        }
      ],
      "name": "grantRole",
      "outputs": [],
      "stateMutability": "nonpayable",
      "type": "function"
    },
    {
      "inputs": [
        {
          "internalType": "address",
          "name": "user",
          "type": "address"
        }
      ],
      "name": "hasPriorityAccess",
      "outputs": [
        {
          "internalType": "bool",
          "name": "",
          "type": "bool"
        }
      ],
      "stateMutability": "view",
      "type": "function"
    },
    {
      "inputs": [
        {
          "internalType": "bytes32",
          "name": "role",
          "type": "bytes32"
        },
        {
          "internalType": "address",
          "name": "account",
          "type": "address"
        }
      ],
      "name": "hasRole",
      "outputs": [
        {
          "internalType": "bool",
          "name": "",
          "type": "bool"
        }
      ],
      "stateMutability": "view",
      "type": "function"
    },
    {
      "inputs": [],
      "name": "liquidityReserveReleased",
      "outputs": [
        {
          "internalType": "uint256",
          "name": "",
          "type": "uint256"
        }
      ],
      "stateMutability": "view",
      "type": "function"
    },
    {
      "inputs": [],
      "name": "name",
      "outputs": [
        {
          "internalType": "string",
          "name": "",
          "type": "string"
        }
      ],
      "stateMutability": "view",
      "type": "function"
    },
    {
      "inputs": [
        {
          "internalType": "address",
          "name": "from",
          "type": "address"
        },
        {
          "internalType": "uint256",
          "name": "amount",
          "type": "uint256"
        }
      ],
      "name": "processFeePayment",
      "outputs": [],
      "stateMutability": "nonpayable",
      "type": "function"
    },
    {
      "inputs": [
        {
          "internalType": "bytes32",
          "name": "fromTranche",
          "type": "bytes32"
        },
        {
          "internalType": "bytes32",
          "name": "toTranche",
          "type": "bytes32"
        },
        {
          "internalType": "uint256",
          "name": "amount",
          "type": "uint256"
        }
      ],
      "name": "reallocateTranche",
      "outputs": [],
      "stateMutability": "nonpayable",
      "type": "function"
    },
    {
      "inputs": [
        {
          "internalType": "address",
          "name": "to",
          "type": "address"
        },
        {
          "internalType": "uint256",
          "name": "amount",
          "type": "uint256"
        }
      ],
      "name": "releaseLiquidityReserve",
      "outputs": [],
      "stateMutability": "nonpayable",
      "type": "function"
    },
    {
      "inputs": [
        {
          "internalType": "address",
          "name": "to",
          "type": "address"
        },
        {
          "internalType": "uint256",
          "name": "amount",
          "type": "uint256"
        }
      ],
      "name": "releaseTreasury",
      "outputs": [],
      "stateMutability": "nonpayable",
      "type": "function"
    },
    {
      "inputs": [
        {
          "internalType": "bytes32",
          "name": "role",
          "type": "bytes32"
        },
        {
          "internalType": "address",
          "name": "callerConfirmation",
          "type": "address"
        }
      ],
      "name": "renounceRole",
      "outputs": [],
      "stateMutability": "nonpayable",
      "type": "function"
    },
    {
      "inputs": [
        {
          "internalType": "bytes32",
          "name": "role",
          "type": "bytes32"
        },
        {
          "internalType": "address",
          "name": "account",
          "type": "address"
        }
      ],
      "name": "revokeRole",
      "outputs": [],
      "stateMutability": "nonpayable",
      "type": "function"
    },
    {
      "inputs": [
        {
          "internalType": "uint256",
          "name": "amount",
          "type": "uint256"
        },
        {
          "internalType": "uint48",
          "name": "lockDays",
          "type": "uint48"
        }
      ],
      "name": "stake",
      "outputs": [],
      "stateMutability": "nonpayable",
      "type": "function"
    },
    {
      "inputs": [
        {
          "internalType": "address",
          "name": "",
          "type": "address"
        }
      ],
      "name": "stakes",
      "outputs": [
        {
          "internalType": "uint256",
          "name": "amount",
          "type": "uint256"
        },
        {
          "internalType": "uint48",
          "name": "stakedAt",
          "type": "uint48"
        },
        {
          "internalType": "uint48",
          "name": "lockUntil",
          "type": "uint48"
        },
        {
          "internalType": "uint48",
          "name": "lastReward",
          "type": "uint48"
        },
        {
          "internalType": "bool",
          "name": "active",
          "type": "bool"
        }
      ],
      "stateMutability": "view",
      "type": "function"
    },
    {
      "inputs": [
        {
          "internalType": "bytes4",
          "name": "interfaceId",
          "type": "bytes4"
        }
      ],
      "name": "supportsInterface",
      "outputs": [
        {
          "internalType": "bool",
          "name": "",
          "type": "bool"
        }
      ],
      "stateMutability": "view",
      "type": "function"
    },
    {
      "inputs": [],
      "name": "symbol",
      "outputs": [
        {
          "internalType": "string",
          "name": "",
          "type": "string"
        }
      ],
      "stateMutability": "view",
      "type": "function"
    },
    {
      "inputs": [],
      "name": "totalBurned",
      "outputs": [
        {
          "internalType": "uint256",
          "name": "",
          "type": "uint256"
        }
      ],
      "stateMutability": "view",
      "type": "function"
    },
    {
      "inputs": [],
      "name": "totalStaked",
      "outputs": [
        {
          "internalType": "uint256",
          "name": "",
          "type": "uint256"
        }
      ],
      "stateMutability": "view",
      "type": "function"
    },
    {
      "inputs": [],
      "name": "totalSupply",
      "outputs": [
        {
          "internalType": "uint256",
          "name": "",
          "type": "uint256"
        }
      ],
      "stateMutability": "view",
      "type": "function"
    },
    {
      "inputs": [
        {
          "internalType": "address",
          "name": "to",
          "type": "address"
        },
        {
          "internalType": "uint256",
          "name": "value",
          "type": "uint256"
        }
      ],
      "name": "transfer",
      "outputs": [
        {
          "internalType": "bool",
          "name": "",
          "type": "bool"
        }
      ],
      "stateMutability": "nonpayable",
      "type": "function"
    },
    {
      "inputs": [
        {
          "internalType": "address",
          "name": "gnosisSafe",
          "type": "address"
        }
      ],
      "name": "transferAdminToGnosisSafe",
      "outputs": [],
      "stateMutability": "nonpayable",
      "type": "function"
    },
    {
      "inputs": [
        {
          "internalType": "address",
          "name": "from",
          "type": "address"
        },
        {
          "internalType": "address",
          "name": "to",
          "type": "address"
        },
        {
          "internalType": "uint256",
          "name": "value",
          "type": "uint256"
        }
      ],
      "name": "transferFrom",
      "outputs": [
        {
          "internalType": "bool",
          "name": "",
          "type": "bool"
        }
      ],
      "stateMutability": "nonpayable",
      "type": "function"
    },
    {
      "inputs": [],
      "name": "treasuryReleased",
      "outputs": [
        {
          "internalType": "uint256",
          "name": "",
          "type": "uint256"
        }
      ],
      "stateMutability": "view",
      "type": "function"
    },
    {
      "inputs": [],
      "name": "treasuryUnlockTime",
      "outputs": [
        {
          "internalType": "uint256",
          "name": "",
          "type": "uint256"
        }
      ],
      "stateMutability": "view",
      "type": "function"
    },
    {
      "inputs": [],
      "name": "unstake",
      "outputs": [],
      "stateMutability": "nonpayable",
      "type": "function"
    },
    {
      "inputs": [
        {
          "internalType": "address",
          "name": "beneficiary",
          "type": "address"
        }
      ],
      "name": "vestedAmount",
      "outputs": [
        {
          "internalType": "uint256",
          "name": "",
          "type": "uint256"
        }
      ],
      "stateMutability": "view",
      "type": "function"
    },
    {
      "inputs": [
        {
          "internalType": "address",
          "name": "",
          "type": "address"
        }
      ],
      "name": "vestingSchedules",
      "outputs": [
        {
          "internalType": "uint256",
          "name": "total",
          "type": "uint256"
        },
        {
          "internalType": "uint256",
          "name": "claimed",
          "type": "uint256"
        },
        {
          "internalType": "uint48",
          "name": "cliffEnd",
          "type": "uint48"
        },
        {
          "internalType": "uint48",
          "name": "vestEnd",
          "type": "uint48"
        },
        {
          "internalType": "bool",
          "name": "active",
          "type": "bool"
        },
        {
          "internalType": "bytes32",
          "name": "tranche",
          "type": "bytes32"
        }
      ],
      "stateMutability": "view",
      "type": "function"
    }
  ],
  "bytecode": "0x60c034620006b857601f1962003b2438819003601f818101841685019490926001600160401b03929082871084881117620005b7578160609284926040998a52833981010312620006b8576200005581620006dd565b60209362000072876200006a878601620006dd565b9401620006dd565b916200007d620006bd565b93601485527f497373757261205574696c69747920546f6b656e00000000000000000000000087860152620000b1620006bd565b6003938482526249535360e81b898301528651888111620005b75785546001988982811c92168015620006ad575b8c83101462000697578b82858594116200063e575b50508b90848311600114620005d957600092620005cd575b505060001982881b1c191690881b1785555b815191888311620005b75760049a8b548981811c91168015620005ac575b8c8210146200059757908b828587969594116200053a575b50508b928411600114620004d65750600092620004ca575b505060001982861b1c191690861b1788555b60068590556001600160a01b03828116156200049557808216948515620004525716156200041a5760a052620001c090620001b98162000723565b50620007a4565b5030156200040357600254936a52b7d2dcc80cd2e400000094858101809111620003ee57600255306000526000865287600020858154019055875185815260007fddf252ad1be2c89b69c2b068fc378daa952ba7f163c4a11628f55a4df523b3ef883093a365ffffffffffff90814216926200023c84620006f2565b958a519260c084019084821090821117620003d95791867fad63aeec6e410e2826f7d58fa5587c54d898b72068c46e07d49415d23a71916b9694928d969487526a14adf4b7320334b9000000998a85528c808601926000845289870193898552886060890194168452600d608089019383855260a08a01976865636f73797374656d60b81b8952600052528a60002097518855519087015586600287019351166cff0000000000000000000000006bffffffffffff0000000000008554945160301b169251151560601b169260018060681b0319161717179055519101556200032582620006f2565b83519283521687820152a36303c267004201804211620003c4576080523060005260008252836000205403620003845782516132bc9081620008488239608051818181610a9e015281816118d2015261196f015260a05181610f710152f35b606492519162461bcd60e51b8352820152601860248201527f4953533a20616c6c6f636174696f6e206d69736d6174636800000000000000006044820152fd5b601184634e487b7160e01b6000525260246000fd5b60418b634e487b7160e01b6000525260246000fd5b601188634e487b7160e01b6000525260246000fd5b865163ec442f0560e01b8152600081880152602490fd5b885162461bcd60e51b815280890188905260126024820152714953533a207a65726f20747265617375727960701b6044820152606490fd5b8a5162461bcd60e51b8152808b018a9052601360248201527f4953533a207a65726f2065636f73797374656d000000000000000000000000006044820152606490fd5b895162461bcd60e51b8152808a01899052600f60248201526e24a9a99d103d32b9379030b236b4b760891b6044820152606490fd5b0151905038806200016c565b899492919216918c6000528b6000209260005b8d8282106200052357505084116200050a575b505050811b0188556200017e565b015160001983881b60f8161c19169055388080620004fc565b8385015186558c97909501949384019301620004e9565b9091929394508d60005284826000209181880160051c83019388106200058d575b9187968d92969594930160051c01915b8281106200057d57508d915062000154565b600081558796508c91016200056b565b925081926200055b565b60228d634e487b7160e01b6000525260246000fd5b90607f16906200013c565b634e487b7160e01b600052604160045260246000fd5b0151905038806200010c565b908c918e8c95168a60005283600020936000905b8282106200062657505084116200060d575b505050811b0185556200011e565b0151600019838a1b60f8161c19169055388080620005ff565b8385015186558e979095019493840193018f620005ed565b909192508860005284826000209181860160051c83019386106200068d575b918c91869594930160051c01915b8281106200067d57508d9150620000f4565b600081558594508c91016200066b565b925081926200065d565b634e487b7160e01b600052602260045260246000fd5b91607f1691620000df565b600080fd5b60408051919082016001600160401b03811183821017620005b757604052565b51906001600160a01b0382168203620006b857565b906305a39a8065ffffffffffff809316019182116200070d57565b634e487b7160e01b600052601160045260246000fd5b6001600160a01b031660008181527f05b8ccbb9d4d8fb16ea74ce3c29a41f1b461fbdaff4714a0d9a8eb05499746bc602052604081205490919060ff16620007a05781805260056020526040822081835260205260408220600160ff19825416179055339160008051602062003b048339815191528180a4600190565b5090565b6001600160a01b031660008181527f876f28074a6d2b0ec949f62d34618dd94fc26188a75e5665877c78cd325d5c4860205260408120549091907f797343f8d6a29aafeb3aaf0910a8973e0081c60c2f6c1f775cd9f76ea348fc1e9060ff16620008425780835260056020526040832082845260205260408320600160ff1982541617905560008051602062003b04833981519152339380a4600190565b50509056fe608060408181526004918236101561001657600080fd5b600092833560e01c91826301ffc9a7146127eb5750816306fdde0314612712578163095cf187146126ee578163095ea7b31461264457816316934fc4146125d157816318160ddd146125b25781631f0c14811461258d5781632300f4101461257057816323b872dd14612486578163248a9ca31461245b5781632def6620146122ed5781632f2ff15d146122c3578163312338331461229d578163313ce5671461228157816332cb6b0c1461225b57816336568abe14612215578163384711cc146121ef57816339293aba146121d15781633c821a6e146121ac57816341cf742c1461211d5781635622dc62146120fe57816356b131bb146120df5781636956214a146120b95781636d8027bd146120935781636f5738451461200f57816370824c5c1461206a578163708cfc7b1461204b57816370a082311461201457816370c29220146103585781637866bac21461200f57816379492bda14611ff2578163817b1cd214611fd35781638431832314611fb557816389ceea9e14611edf5781638b4212ac14611de157816391d1485414611d9a57816394051f0014611b9357816395d89b4114611aaf578163a1b146c814611a85578163a217fddf146105b4578163a6a3be9714611926578163a9059cbb146118f5578163a91ef818146118ba578163abc8d5f6146115b8578163af6c5da814611593578163b7fa7cfc14611566578163bcb8850d14611547578163bf5bb3d714611329578163c3afaa7f14610ee0578163c742d09314610d7a578163cd855d9014610cbe578163d01c44cd14610b5e578163d1b5c0c8146109dd578163d36dff8b146109b7578163d547741f14610977578163d6918be114610952578163d89135cd14610933578163dd62ed3e146108ea578163dd924594146105cf578163f30ec0ec146105b4578163fa897ed71461035d57508063fabe94b8146103585763fdb20ccb146102da57600080fd5b346103545760203660031901126103545760c09181906001600160a01b03610300612887565b168152600d6020522060ff815492600183015492600281015491600365ffffffffffff9201549481519687526020870152818316908601528160301c16606085015260601c161515608083015260a0820152f35b5080fd5b6128de565b919050346105b057806003193601126105b05781359165ffffffffffff6024358181168082036105ac5761038f612df2565b61039a861515612b0d565b6276a700811490811561059f575b8115610591575b501561055357338652602092600b845260ff6001868920015460901c16610519573387528684528585882054106104da5750906104c97f6e8910ae8080a58abd08134c664ce6d891d2355c172dc66c7a66bb8d9e66a7c99392610413873033612d3b565b82421686858a61047e878c81600161042b8a8a612a25565b9288519061043882612935565b8152878101988a8a52838183019516855260608201978b8952600b608084019a858c523383525220905181550196511665ffffffffffff19875416178655511684612bcd565b518254915166ffffffffffffff60601b1990921660609190911b65ffffffffffff60601b161790151560901b60ff60901b16179055600c546104c19089906129a3565b600c55612a25565b9351931683523392a3600160065580f35b845162461bcd60e51b815290810184905260196024820152784953533a20696e73756666696369656e742062616c616e636560381b6044820152606490fd5b845162461bcd60e51b815290810184905260146024820152734953533a20616c7265616479207374616b696e6760601b6044820152606490fd5b835162461bcd60e51b815260208185015260186024820152771254d4ce881a5b9d985b1a59081b1bd8dac81c195c9a5bd960421b6044820152606490fd5b6301e13380915014386103af565b62ed4e00811491506103a8565b8680fd5b8280fd5b50503461035457816003193601126103545751908152602090f35b9050346105b057816003193601126105b0576001600160401b039181358381116108e6576106009036908401612973565b9290936024906024359081116105ac5761061d9036908401612973565b92610626612e8d565b8386036108ac578515610876578796885b87811061085657506a084595161401484a000000610657896010546129a3565b11610817579365ffffffffffff61066f814216612a0c565b92818416928b5b8a81106106b6578c8c8c61068c826010546129a3565b6010557f6570e65a772d8d30d76e42c8d07c41bf88b28ecf39ca57095a61b4a76584c2178380a380f35b6106c1818c8b612cf7565b356001600160a01b03811690819003610813576106df82848a612cf7565b359080156107da5790818f6003600195948f928b906106ff871515612b0d565b82815260a06107968d8481600d998c60208c815260029283818b2001549961072e60ff60609c8d1c1615612b8a565b81519e8f9461073c86612904565b8552838501938285528386019d8e528c8601988952608086019b6001968d97809852019e8f66061697264726f760cc1b9052835252209c518d5551908c01558a0196511665ffffffffffff19875416178655511684612bcd565b51825460ff60601b191690151590911b60ff60601b16179055519101558c5160008051602061320783398151915290806107d18c8083612bf4565b0390a301610676565b508a5162461bcd60e51b81526020818601526013818b0152721254d4ce881e995c9bc81c9958da5c1a595b9d606a1b6044820152606490fd5b8d80fd5b855162461bcd60e51b815260208184015260196024820152781254d4ce88185a5c991c9bdc0818d85c08195e18d959591959603a1b6044820152606490fd5b9761086f6001916108688b8988612cf7565b35906129a3565b9801610637565b606490602086519162461bcd60e51b8352820152601060248201526f4953533a20656d70747920617272617960801b6044820152fd5b606490602086519162461bcd60e51b83528201526014602482015273092a6a67440d8cadccee8d040dad2e6dac2e8c6d60631b6044820152fd5b8480fd5b50503461035457806003193601126103545780602092610908612887565b6109106128a2565b6001600160a01b0391821683526001865283832091168252845220549051908152f35b505034610354578160031936011261035457602090600a549051908152f35b50503461035457816003193601126103545760209051690a968163f0a57b4000008152f35b919050346105b057806003193601126105b0576109b391356109ae600161099c6128a2565b93838752600560205286200154612ed3565b6130c5565b5080f35b505034610354578160031936011261035457602090516a0ac0db698068112d0000008152f35b828434610b5b5780600319360112610b5b57600e54916a0c685fa11e01ec6f00000092830392808411610b48576013546a0ac0db698068112d000000908101809111610b3557600f54610a2f916129c6565b926007548203918211610b2257601254916a084595161401484a000000928301808411610b0f57600854610a62916129c6565b916010548403938411610afc57601454906a09ed194db19b238c000000918201809211610ae957506011546101009850610a9b916129c6565b937f000000000000000000000000000000000000000000000000000000000000000095815197885260208801528601526060850152608084015260a08301528060c0830152421060e0820152f35b634e487b7160e01b815260118952602490fd5b634e487b7160e01b815260118852602490fd5b634e487b7160e01b835260118852602483fd5b634e487b7160e01b815260118652602490fd5b634e487b7160e01b845260118652602484fd5b634e487b7160e01b835260118552602483fd5b80fd5b9050346105b057826003193601126105b057610b78612df2565b338352600d602052818320600281015460ff8160601c1615610c805765ffffffffffff164210610c44576001610bad8261312a565b910191610bbc835480936129c6565b938415610c0957505082610bcf916129a3565b9055610bdc813330612d3b565b337f9fe9b7be9d151c7a8b6de49a1312ff27a15096d0d1d12999af85fe4310e0b1258380a3600160065580f35b906020606492519162461bcd60e51b835282015260156024820152744953533a206e6f7468696e6720746f20636c61696d60581b6044820152fd5b506020606492519162461bcd60e51b835282015260166024820152751254d4ce8818db1a5999881b9bdd081c995858da195960521b6044820152fd5b835162461bcd60e51b815260208185015260186024820152774953533a206e6f2076657374696e67207363686564756c6560401b6044820152606490fd5b5050346103545781600319360112610354578051610d7691610cdf82612935565b606f82527f466978656420737570706c792e204e6f206d696e742066756e6374696f6e2e2060208301527f3130302c3030302c3030302049535320697320746865207065726d616e656e74818301527f2c2069727265766f6361626c652068617264206361702e20566572696669616260608301526e36329037b71020b93134b9b1b0b71760891b6080830152519182918261283e565b0390f35b9050346105b057816003193601126105b057610d94612887565b602435926000805160206131e78339815191529182865260209260058452828720338852845260ff838820541615610ec257506001600160a01b038116808752868452828720549094908611610e83576107d090818702918783041487151715610e705750606092610e5b6000805160206131c78339815191529593610e3a6127106a19995957dc185e5b595b9d60aa1b950499610e328b826129c6565b923090612d3b565b610e448930612e15565b610e5089600a546129a3565b600a556009546129a3565b600955600b815193808552840152820152a380f35b634e487b7160e01b885260119052602487fd5b825162461bcd60e51b815290810184905260196024820152781254d4ce881a5b9cdd59999a58da595b9d081999594818985b603a1b6044820152606490fd5b825163e2517d3f60e01b815233818701526024810191909152604490fd5b9050346105b05760603660031901126105b05780356024928335926044803595610f08612e8d565b610f13871515612b0d565b610f1f86861415612cb7565b6670726573616c6560c81b85036111fa57600e546a0c685fa11e01ec6f000000610f4989836129a3565b116111bd5787610f58916129a3565b600e555b6865636f73797374656d60b81b860361106e577f00000000000000000000000000000000000000000000000000000000000000006001600160a01b03168015611034578852600d6020528388209360ff600286015460601c1615610ff35750505050610fc98482546129a3565b90555b7f108a653f26a63f2e30668a9dafacf7350b3201297dd26da6827fec49080da9868480a480f35b91601f7f4953533a2065636f73797374656d207363686564756c65206d697373696e670092602060649695519562461bcd60e51b8752860152840152820152fd5b50906016751254d4ce881958dbdcde5cdd195b481b9bdd081cd95d60521b926020606496519562461bcd60e51b8752860152840152820152fd5b919290919067747265617375727960c01b860361111157611091876008546129a3565b6a084595161401484a000000908882018092116110ff57116110c557505050506110bd836012546129a3565b601255610fcc565b916016754953533a207472656173757279206f766572666c6f7760501b92602060649695519562461bcd60e51b8752860152840152820152fd5b634e487b7160e01b8a5260118652838afd5b92657075626c696360d01b92909186840361114a575050506111369150821415612cb7565b611142836013546129a3565b601355610fcc565b637465616d60e01b949293509091868503611183575050505061116f90821415612cb7565b61117b836014546129a3565b601455610fcc565b916016754953533a20696e76616c696420746f5472616e63686560501b92602060649695519562461bcd60e51b8752860152840152820152fd5b50906019781254d4ce881c1c995cd85b19481a5b9cdd59999a58da595b9d603a1b926020606496519562461bcd60e51b8752860152840152820152fd5b657075626c696360d01b850361127657600f546a0ac0db698068112d00000061122389836129a3565b1161123a5787611232916129a3565b600f55610f5c565b50906018771254d4ce881c1d589b1a58c81a5b9cdd59999a58da595b9d60421b926020606496519562461bcd60e51b8752860152840152820152fd5b637465616d60e01b85036112ee576011546a09ed194db19b238c00000061129d89836129a3565b116112b457876112ac916129a3565b601155610f5c565b50906016751254d4ce881d19585b481a5b9cdd59999a58da595b9d60521b926020606496519562461bcd60e51b8752860152840152820152fd5b906018774953533a20696e76616c69642066726f6d5472616e63686560401b926020606496519562461bcd60e51b8752860152840152820152fd5b9050346105b057816003193601126105b057611343612887565b9160243592611350612e8d565b6001600160a01b031691611365831515612b4c565b611370841515612b0d565b683635c9adc5dea00000841061150957828552600d60205261139e60ff6002848820015460601c1615612b8a565b6a0c685fa11e01ec6f0000006113b685600e546129a3565b116114cb575081600080516020613207833981519152849265ffffffffffff804216906003856113e584612a0c565b8b61145c8751956113f587612904565b8b87526020870193838552898801948986528260608a01921682528a60808a01956001875260a08b01986670726573616c6560c81b8a528152600d6020522098518955516001890155816002890195511665ffffffffffff19865416178555511683612bcd565b51815460ff60601b191690151560601b60ff60601b1617905551910155600e546114879086906129a3565b600e556114a161149682612a0c565b925192839283612bf4565b0390a37f7e4f3b07d71d1c8cfb5d581029a62cc3b1a57d2ca33206904208f8c0492924368380a380f35b6020606492519162461bcd60e51b835282015260196024820152781254d4ce881c1c995cd85b194818d85c08195e18d959591959603a1b6044820152fd5b6020606492519162461bcd60e51b835282015260196024820152784953533a2062656c6f772042726f6e7a65206d696e696d756d60381b6044820152fd5b5050346103545781600319360112610354576020906008549051908152f35b5050346103545760203660031901126103545760209061158c611587612887565b612c29565b9051908152f35b5050346103545781600319360112610354576020905169152d02c7e14af68000008152f35b9050346105b05760803660031901126105b0576115d3612887565b602480359365ffffffffffff6044358181169590938685036118b65760643595838716908188036118b257611606612e8d565b6001600160a01b031697881561187d57600c906116248b1515612b0d565b1161184557600c8110159081611839575b50156117fc57868952600d60205261165960ff6002868c20015460601c1615612b8a565b611665886011546129a3565b601454906a09ed194db19b238c0000009182018092116117ea57116117af575050829186866000805160206132078339815191526117a9946116d36116cb7f2a535828fbad23f4eb2bfba53c81924041222e591e9fac3a1778afaeab08fd159a99612c0d565b824216612a25565b8c6003856116e96116e38d612c0d565b85612a25565b948951936116f685612904565b89855261176060208601928284528c80880194828a1686526060890191838c16835260808a01956001875260a08b0198637465616d60e01b8a528152600d6020522098518955516001890155816002890195511665ffffffffffff19865416178555511683612bcd565b51815460ff60601b191690151560601b60ff60601b161790555191015560115461178b9086906129a3565b60115561179c865192839283612bf4565b0390a35192839283612bf4565b0390a380f35b906016606492602086519362461bcd60e51b8552840152820152751254d4ce881d19585b4818d85c08195e18d95959195960521b6044820152fd5b634e487b7160e01b8b5260118452828bfd5b906018606492602086519362461bcd60e51b8552840152820152771254d4ce881a5b9d985b1a59081d995cdd081c195c9a5bd960421b6044820152fd5b60309150111538611635565b845162461bcd60e51b8152602081850152601381840152724953533a20636c69666620746f6f206c6f6e6760681b6044820152606490fd5b855162461bcd60e51b81526020818601526010818501526f24a9a99d103d32b9379036b2b6b132b960811b6044820152606490fd5b8a80fd5b8880fd5b505034610354578160031936011261035457602090517f00000000000000000000000000000000000000000000000000000000000000008152f35b50503461035457806003193601126103545760209061191f611915612887565b6024359033612d3b565b5160018152f35b9050346105b057816003193601126105b057611940612887565b6024359261194c612e8d565b6001600160a01b03821692611962841515612acd565b61196d851515612b0d565b7f00000000000000000000000000000000000000000000000000000000000000004210611a4c57600854916119a286846129a3565b601254906a084595161401484a000000918201809211611a395711611a025750506119db916119d28580936129a3565b60085530612d3b565b7f0b34eb2ad2da3c8578e27fa1a558ff8d0fb69a1ba2ce4e953729ae19fb6e5e4b8380a380f35b906020606492519162461bcd60e51b8352820152601160248201527004953533a2074726561737572792063617607c1b6044820152fd5b634e487b7160e01b895260118452602489fd5b6020606492519162461bcd60e51b835282015260146024820152731254d4ce881d1c99585cdd5c9e481b1bd8dad95960621b6044820152fd5b8334610b5b576020366003190112610b5b576109b3611aa2612887565b611aaa612e8d565b612f66565b83833461035457816003193601126103545780519180938054916001908360011c9260018516948515611b89575b6020958686108114611b7657858952908115611b525750600114611b17575b610d768787611b0d828c0383612950565b519182918261283e565b9080949750528583205b828410611b3f5750505082610d7694611b0d92820101948680611afc565b8054868501880152928601928101611b21565b60ff19168887015250505050151560051b8301019250611b0d82610d768680611afc565b634e487b7160e01b845260228352602484fd5b93607f1693611add565b919050346105b057806003193601126105b057611bae612887565b9160243592611bbb612e8d565b6001600160a01b031691611bd0831515612b4c565b611bdb841515612b0d565b828552600d602052611bf960ff6002838820015460601c1615612b8a565b611c0584600f546129a3565b601354906a0ac0db698068112d000000918201809211611d875711611d445765ffffffffffff6276a7008142160192818411611d315750611d078593836000805160206132078339815191529360038880975192611c6284612904565b8984528c611cce602086019282845287870193818a1690818652606089019182528960808a01956001875260a08b0198657075626c696360d01b8a528152600d6020522098518955516001890155816002890195511665ffffffffffff19865416178555511683612bcd565b51815460ff60601b191690151560601b60ff60601b1617905551910155600f54611cf99087906129a3565b600f55519181839283612bf4565b0390a37f903707dbfd50cad2bb827bdcfb0f72a8ea3618a1110717b7e588503cb4c211e68380a380f35b634e487b7160e01b875260119052602486fd5b906020606492519162461bcd60e51b8352820152601d60248201527f4953533a207075626c69632073616c65206361702065786365656465640000006044820152fd5b634e487b7160e01b875260118452602487fd5b9050346105b057816003193601126105b0578160209360ff92611dbb6128a2565b90358252600586528282206001600160a01b039091168252855220549151911615158152f35b9050346105b057816003193601126105b057611dfb612887565b60243592611e07612e8d565b6001600160a01b03821692611e1d841515612acd565b611e28851515612b0d565b600754916a0c685fa11e01ec6f000000838103908111611ecc578611611e89575050611e6291611e598580936129a3565b60075530612d3b565b7f9bc6757b4519dcf14759ca772944af95e929114c33addf91f90a9994d8362af18380a380f35b906020606492519162461bcd60e51b8352820152601e60248201527f4953533a2065786365656473206c6971756964697479207265736572766500006044820152fd5b634e487b7160e01b885260118352602488fd5b9050346105b05760203660031901126105b057611efa612887565b91611f03612e8d565b6001600160a01b0383168015611f79573314611f375783611f2d84611f2781612ef9565b50612f66565b506109b33361305e565b906020606492519162461bcd60e51b8352820152601c60248201527b24a9a99d1039b0b3329031b0b73737ba103132903232b83637bcb2b960211b6044820152fd5b815162461bcd60e51b815260208185015260166024820152754953533a207a65726f2073616665206164647265737360501b6044820152606490fd5b5050346103545781600319360112610354576020905162ed4e008152f35b505034610354578160031936011261035457602090600c549051908152f35b505034610354578160031936011261035457602090516109c48152f35b6128b8565b5050346103545760203660031901126103545760209181906001600160a01b0361203c612887565b16815280845220549051908152f35b505034610354578160031936011261035457602090516301e133808152f35b505034610354578160031936011261035457602090516000805160206131e78339815191528152f35b505034610354578160031936011261035457602090516a14adf4b7320334b90000008152f35b5050346103545760203660031901126103545760209061158c6120da612887565b612a3f565b5050346103545781600319360112610354576020906007549051908152f35b5050346103545781600319360112610354576020906009549051908152f35b5050346103545760203660031901126103545760209181906001600160a01b03612145612887565b168152600b84522090600182015460ff8160901c169283612196575b5082612171575b50519015158152f35b90915065ffffffffffff80612187814216612a0c565b169160301c1610159038612168565b54690a968163f0a57b4000001115925038612161565b5050346103545781600319360112610354575166d3c21bcecceda160191b8152602090f35b505034610354578160031936011261035457602090516276a7008152f35b5050346103545760203660031901126103545760209061158c612210612887565b6129d3565b83833461035457806003193601126103545761222f6128a2565b90336001600160a01b0383160361224c57506109b39192356130c5565b5163334bd91960e11b81528390fd5b505034610354578160031936011261035457602090516a52b7d2dcc80cd2e40000008152f35b5050346103545781600319360112610354576020905160128152f35b505034610354578160031936011261035457602090516a09ed194db19b238c0000008152f35b919050346105b057806003193601126105b0576109b391356122e8600161099c6128a2565b612ff5565b9050346105b057826003193601126105b057612307612df2565b338352600b60205281832090600182019182549360ff8560901c16156124225790859181549365ffffffffffff849760301c1642106123a3575b505090829161235386612368956129c6565b855460ff60901b191690955555600c546129c6565b600c55612376813330612d3b565b337f7fc4727e062e336010f2c282598ef5f14facb3de68cf8195c2f23e1454b2b74e8480a4600160065580f35b91925094506109c490818402918483041484151715611d315750612368929161271087920480966123d48230612e15565b6123e082600a546129a3565b600a556c6561726c795f756e7374616b6560981b81519160208352600d60208401528201526000805160206131c783398151915260603392a390919238612341565b5162461bcd60e51b815260208184015260146024820152734953533a206e6f20616374697665207374616b6560601b6044820152606490fd5b9050346105b05760203660031901126105b05781602093600192358152600585522001549051908152f35b90508234610b5b576060366003190112610b5b576124a2612887565b6124aa6128a2565b916044359360018060a01b0383168083526001602052868320338452602052868320549160001983106124e6575b60208861191f898989612d3b565b86831061254e5781156125375733156125205750825260016020908152868320338452815291869020908590039055829061191f876124d8565b8751634a1406b160e11b8152908101849052602490fd5b875163e602df0560e01b8152908101849052602490fd5b905061256c868851938493637dc7a0d960e11b855233908501612d1d565b0390fd5b505034610354578160031936011261035457602090516107d08152f35b5050346103545781600319360112610354576020905169021e19e0c9bab24000008152f35b5050346103545781600319360112610354576020906002549051908152f35b5050346103545760203660031901126103545760a09160ff9082906001600160a01b036125fc612887565b168152600b6020522091600183549301549065ffffffffffff9080519485528183166020860152818360301c16908501528160601c16606084015260901c1615156080820152f35b9050346105b057816003193601126105b05761265e612887565b6024359033156126d7576001600160a01b03169182156126c057508083602095338152600187528181208582528752205582519081527f8c5be1e5ebec7d5bd14f71427d1e84f3dd0314c0f7b2291e5b200ac8c7c3b925843392a35160018152f35b8351634a1406b160e11b8152908101859052602490fd5b835163e602df0560e01b8152808401869052602490fd5b50503461035457816003193601126103545760209051683635c9adc5dea000008152f35b919050346105b057826003193601126105b05780519183600354906001908260011c926001811680156127e1575b60209586861082146127ce57508488529081156127ac5750600114612771575b610d768686611b0d828b0383612950565b929550600383528583205b8284106127995750505082610d7694611b0d928201019438612760565b805486850188015292860192810161277c565b60ff191687860152505050151560051b8301019250611b0d82610d7638612760565b634e487b7160e01b845260229052602483fd5b93607f1693612740565b8491346105b05760203660031901126105b0573563ffffffff60e01b81168091036105b05760209250637965db0b60e01b811490811561282d575b5015158152f35b6301ffc9a760e01b14905083612826565b6020808252825181830181905290939260005b82811061287357505060409293506000838284010152601f8019910116010190565b818101860151848201604001528501612851565b600435906001600160a01b038216820361289d57565b600080fd5b602435906001600160a01b038216820361289d57565b3461289d57600036600319011261289d5760206040516a084595161401484a0000008152f35b3461289d57600036600319011261289d5760206040516a0c685fa11e01ec6f0000008152f35b60c081019081106001600160401b0382111761291f57604052565b634e487b7160e01b600052604160045260246000fd5b60a081019081106001600160401b0382111761291f57604052565b601f909101601f19168101906001600160401b0382119082101761291f57604052565b9181601f8401121561289d578235916001600160401b03831161289d576020808501948460051b01011161289d57565b919082018092116129b057565b634e487b7160e01b600052601160045260246000fd5b919082039182116129b057565b6001600160a01b03166000908152600d60205260409020600281015460601c60ff1615612a0657612a039061312a565b90565b50600090565b9062ed4e0065ffffffffffff809316019182116129b057565b91909165ffffffffffff808094169116019182116129b057565b6001600160a01b03166000908152600b60205260409020600181015460901c60ff1615612a06575469152d02c7e14af6800000811015612ac657690a968163f0a57b400000811015612abf5769021e19e0c9bab2400000811015612ab857683635c9adc5dea000001115612ab257600090565b6103e890565b506107d090565b50610bb890565b50610fa090565b15612ad457565b60405162461bcd60e51b81526020600482015260116024820152704953533a207a65726f206164647265737360781b6044820152606490fd5b15612b1457565b60405162461bcd60e51b815260206004820152601060248201526f1254d4ce881e995c9bc8185b5bdd5b9d60821b6044820152606490fd5b15612b5357565b60405162461bcd60e51b815260206004820152600f60248201526e24a9a99d103d32b93790313abcb2b960891b6044820152606490fd5b15612b9157565b60405162461bcd60e51b81526020600482015260146024820152734953533a207363686564756c652065786973747360601b6044820152606490fd5b805465ffffffffffff60301b191660309290921b65ffffffffffff60301b16919091179055565b65ffffffffffff91821681529116602082015260400190565b9062278d0065ffffffffffff809316029182169182036129b057565b6001600160a01b03166000908152600b60205260409020600181015460901c60ff1615612a06575469152d02c7e14af6800000811015612cb057690a968163f0a57b400000811015612ca95769021e19e0c9bab2400000811015612ca257683635c9adc5dea000001115612c9c57600090565b6107d090565b50610dac90565b5061119490565b5061138890565b15612cbe57565b60405162461bcd60e51b81526020600482015260116024820152704953533a2073616d65207472616e63686560781b6044820152606490fd5b9190811015612d075760051b0190565b634e487b7160e01b600052603260045260246000fd5b604091949392606082019560018060a01b0316825260208201520152565b916001600160a01b03808416928315612dd95716928315612dc05760009083825281602052604082205490838210612da357509160408282600080516020613227833981519152958760209652828652038282205586815220818154019055604051908152a3565b61256c8460405193849363391434e360e21b855260048501612d1d565b60405163ec442f0560e01b815260006004820152602490fd5b604051634b637e8f60e11b815260006004820152602490fd5b600260065414612e03576002600655565b604051633ee5aeb560e01b8152600490fd5b906001600160a01b038216908115612dd95760009282845283602052604084205490828210612e70575081600080516020613227833981519152926020928587528684520360408620558060025403600255604051908152a3565b61256c8360405193849363391434e360e21b855260048501612d1d565b336000908152600080516020613267833981519152602052604081205460ff1615612eb55750565b6044906040519063e2517d3f60e01b82523360048301526024820152fd5b80600052600560205260406000203360005260205260ff6040600020541615612eb55750565b6001600160a01b03166000818152600080516020613267833981519152602052604081205490919060ff16612f625781805260056020526040822081835260205260408220600160ff1982541617905533916000805160206131a78339815191528180a4600190565b5090565b6001600160a01b031660008181527f876f28074a6d2b0ec949f62d34618dd94fc26188a75e5665877c78cd325d5c4860205260408120549091906000805160206131e78339815191529060ff16612ff05780835260056020526040832082845260205260408320600160ff198254161790556000805160206131a7833981519152339380a4600190565b505090565b906000918083526005602052604083209160018060a01b03169182845260205260ff60408420541615600014612ff05780835260056020526040832082845260205260408320600160ff198254161790556000805160206131a7833981519152339380a4600190565b6001600160a01b03166000818152600080516020613267833981519152602052604081205490919060ff1615612f62578180526005602052604082208183526020526040822060ff19815416905533916000805160206132478339815191528180a4600190565b906000918083526005602052604083209160018060a01b03169182845260205260ff604084205416600014612ff0578083526005602052604083208284526020526040832060ff198154169055600080516020613247833981519152339380a4600190565b600281015465ffffffffffff8082169182421061319d57819060301c1691824210156131965761315a81426129c6565b92038181116129b0571691548181029181830414901517156129b0578115613180570490565b634e487b7160e01b600052601260045260246000fd5b5050505490565b5050505060009056fe2f8788117e7eff1d82e926ec794901d17c78024a50270940304540a733656f0dfad31924d655455395c87544c8aa1ffdb5a7505a22a3c2e03f28003b6556a75f797343f8d6a29aafeb3aaf0910a8973e0081c60c2f6c1f775cd9f76ea348fc1ead63aeec6e410e2826f7d58fa5587c54d898b72068c46e07d49415d23a71916bddf252ad1be2c89b69c2b068fc378daa952ba7f163c4a11628f55a4df523b3eff6391f5c32d9c69d2a47ea670b442974b53935d1edc7fd64eb21e047a839171b05b8ccbb9d4d8fb16ea74ce3c29a41f1b461fbdaff4714a0d9a8eb05499746bca26469706673582212204f1e4b621e067ac65ea789e695bdb570ad2d8ea60e2e0dae6445cbda59cc620c64736f6c634300081800332f8788117e7eff1d82e926ec794901d17c78024a50270940304540a733656f0d",
  "linkReferences": {},
  "deployedLinkReferences": {}
}