{
  "_format": "hh-sol-artifact-1",
  "contractName": "ISSToken",
  "sourceName": "contracts/tokens/ISSToken.sol",
  "abi": [
    {
      "inputs": [
        {
          "internalType": "address",
          "name": "admin",
          "type": "address"
        },
        {
          "internalType": "address",
          "name": "liquidityWallet",
          "type": "address"
        },
        {
          "internalType": "address",
          "name": "ecosystemWallet",
          "type": "address"
        },
        {
          "internalType": "address",
          "name": "teamWallet",
          "type": "address"
        },
        {
          "internalType": "address",
          "name": "partnershipWallet",
          "type": "address"
        }
      ],
      "stateMutability": "nonpayable",
      "type": "constructor"
    },
    {
      "inputs": [],
      "name": "AccessControlBadConfirmation",
      "type": "error"
    },
    {
      "inputs": [
        {
          "internalType": "address",
          "name": "account",
          "type": "address"
        },
        {
          "internalType": "bytes32",
          "name": "neededRole",
          "type": "bytes32"
        }
      ],
      "name": "AccessControlUnauthorizedAccount",
      "type": "error"
    },
    {
      "inputs": [
        {
          "internalType": "address",
          "name": "spender",
          "type": "address"
        },
        {
          "internalType": "uint256",
          "name": "allowance",
          "type": "uint256"
        },
        {
          "internalType": "uint256",
          "name": "needed",
          "type": "uint256"
        }
      ],
      "name": "ERC20InsufficientAllowance",
      "type": "error"
    },
    {
      "inputs": [
        {
          "internalType": "address",
          "name": "sender",
          "type": "address"
        },
        {
          "internalType": "uint256",
          "name": "balance",
          "type": "uint256"
        },
        {
          "internalType": "uint256",
          "name": "needed",
          "type": "uint256"
        }
      ],
      "name": "ERC20InsufficientBalance",
      "type": "error"
    },
    {
      "inputs": [
        {
          "internalType": "address",
          "name": "approver",
          "type": "address"
        }
      ],
      "name": "ERC20InvalidApprover",
      "type": "error"
    },
    {
      "inputs": [
        {
          "internalType": "address",
          "name": "receiver",
          "type": "address"
        }
      ],
      "name": "ERC20InvalidReceiver",
      "type": "error"
    },
    {
      "inputs": [
        {
          "internalType": "address",
          "name": "sender",
          "type": "address"
        }
      ],
      "name": "ERC20InvalidSender",
      "type": "error"
    },
    {
      "inputs": [
        {
          "internalType": "address",
          "name": "spender",
          "type": "address"
        }
      ],
      "name": "ERC20InvalidSpender",
      "type": "error"
    },
    {
      "inputs": [],
      "name": "ReentrancyGuardReentrantCall",
      "type": "error"
    },
    {
      "anonymous": false,
      "inputs": [
        {
          "indexed": true,
          "internalType": "address",
          "name": "owner",
          "type": "address"
        },
        {
          "indexed": true,
          "internalType": "address",
          "name": "spender",
          "type": "address"
        },
        {
          "indexed": false,
          "internalType": "uint256",
          "name": "value",
          "type": "uint256"
        }
      ],
      "name": "Approval",
      "type": "event"
    },
    {
      "anonymous": false,
      "inputs": [
        {
          "indexed": true,
          "internalType": "address",
          "name": "user",
          "type": "address"
        },
        {
          "indexed": true,
          "internalType": "uint256",
          "name": "creditAmount",
          "type": "uint256"
        }
      ],
      "name": "RewardClaimed",
      "type": "event"
    },
    {
      "anonymous": false,
      "inputs": [
        {
          "indexed": true,
          "internalType": "bytes32",
          "name": "role",
          "type": "bytes32"
        },
        {
          "indexed": true,
          "internalType": "bytes32",
          "name": "previousAdminRole",
          "type": "bytes32"
        },
        {
          "indexed": true,
          "internalType": "bytes32",
          "name": "newAdminRole",
          "type": "bytes32"
        }
      ],
      "name": "RoleAdminChanged",
      "type": "event"
    },
    {
      "anonymous": false,
      "inputs": [
        {
          "indexed": true,
          "internalType": "bytes32",
          "name": "role",
          "type": "bytes32"
        },
        {
          "indexed": true,
          "internalType": "address",
          "name": "account",
          "type": "address"
        },
        {
          "indexed": true,
          "internalType": "address",
          "name": "sender",
          "type": "address"
        }
      ],
      "name": "RoleGranted",
      "type": "event"
    },
    {
      "anonymous": false,
      "inputs": [
        {
          "indexed": true,
          "internalType": "bytes32",
          "name": "role",
          "type": "bytes32"
        },
        {
          "indexed": true,
          "internalType": "address",
          "name": "account",
          "type": "address"
        },
        {
          "indexed": true,
          "internalType": "address",
          "name": "sender",
          "type": "address"
        }
      ],
      "name": "RoleRevoked",
      "type": "event"
    },
    {
      "anonymous": false,
      "inputs": [
        {
          "indexed": true,
          "internalType": "address",
          "name": "user",
          "type": "address"
        },
        {
          "indexed": true,
          "internalType": "uint256",
          "name": "amount",
          "type": "uint256"
        },
        {
          "indexed": true,
          "internalType": "uint48",
          "name": "lockUntil",
          "type": "uint48"
        }
      ],
      "name": "Staked",
      "type": "event"
    },
    {
      "anonymous": false,
      "inputs": [
        {
          "indexed": true,
          "internalType": "address",
          "name": "from",
          "type": "address"
        },
        {
          "indexed": true,
          "internalType": "uint256",
          "name": "amount",
          "type": "uint256"
        },
        {
          "indexed": false,
          "internalType": "string",
          "name": "reason",
          "type": "string"
        }
      ],
      "name": "TokensBurned",
      "type": "event"
    },
    {
      "anonymous": false,
      "inputs": [
        {
          "indexed": true,
          "internalType": "address",
          "name": "from",
          "type": "address"
        },
        {
          "indexed": true,
          "internalType": "address",
          "name": "to",
          "type": "address"
        },
        {
          "indexed": false,
          "internalType": "uint256",
          "name": "value",
          "type": "uint256"
        }
      ],
      "name": "Transfer",
      "type": "event"
    },
    {
      "anonymous": false,
      "inputs": [
        {
          "indexed": true,
          "internalType": "address",
          "name": "user",
          "type": "address"
        },
        {
          "indexed": true,
          "internalType": "uint256",
          "name": "amount",
          "type": "uint256"
        },
        {
          "indexed": true,
          "internalType": "uint256",
          "name": "penalty",
          "type": "uint256"
        }
      ],
      "name": "Unstaked",
      "type": "event"
    },
    {
      "anonymous": false,
      "inputs": [
        {
          "indexed": true,
          "internalType": "address",
          "name": "beneficiary",
          "type": "address"
        },
        {
          "indexed": true,
          "internalType": "uint256",
          "name": "amount",
          "type": "uint256"
        }
      ],
      "name": "VestingClaimed",
      "type": "event"
    },
    {
      "anonymous": false,
      "inputs": [
        {
          "indexed": true,
          "internalType": "address",
          "name": "beneficiary",
          "type": "address"
        },
        {
          "indexed": true,
          "internalType": "uint256",
          "name": "total",
          "type": "uint256"
        },
        {
          "indexed": true,
          "internalType": "uint48",
          "name": "cliffEnd",
          "type": "uint48"
        },
        {
          "indexed": false,
          "internalType": "uint48",
          "name": "vestEnd",
          "type": "uint48"
        }
      ],
      "name": "VestingCreated",
      "type": "event"
    },
    {
      "inputs": [],
      "name": "BURN_RATE_BPS",
      "outputs": [
        {
          "internalType": "uint256",
          "name": "",
          "type": "uint256"
        }
      ],
      "stateMutability": "view",
      "type": "function"
    },
    {
      "inputs": [],
      "name": "DEFAULT_ADMIN_ROLE",
      "outputs": [
        {
          "internalType": "bytes32",
          "name": "",
          "type": "bytes32"
        }
      ],
      "stateMutability": "view",
      "type": "function"
    },
    {
      "inputs": [],
      "name": "EARLY_UNSTAKE_PENALTY_BPS",
      "outputs": [
        {
          "internalType": "uint256",
          "name": "",
          "type": "uint256"
        }
      ],
      "stateMutability": "view",
      "type": "function"
    },
    {
      "inputs": [],
      "name": "LOCK_12M",
      "outputs": [
        {
          "internalType": "uint48",
          "name": "",
          "type": "uint48"
        }
      ],
      "stateMutability": "view",
      "type": "function"
    },
    {
      "inputs": [],
      "name": "LOCK_3M",
      "outputs": [
        {
          "internalType": "uint48",
          "name": "",
          "type": "uint48"
        }
      ],
      "stateMutability": "view",
      "type": "function"
    },
    {
      "inputs": [],
      "name": "LOCK_6M",
      "outputs": [
        {
          "internalType": "uint48",
          "name": "",
          "type": "uint48"
        }
      ],
      "stateMutability": "view",
      "type": "function"
    },
    {
      "inputs": [],
      "name": "MAX_SUPPLY",
      "outputs": [
        {
          "internalType": "uint256",
          "name": "",
          "type": "uint256"
        }
      ],
      "stateMutability": "view",
      "type": "function"
    },
    {
      "inputs": [],
      "name": "PLATFORM_ROLE",
      "outputs": [
        {
          "internalType": "bytes32",
          "name": "",
          "type": "bytes32"
        }
      ],
      "stateMutability": "view",
      "type": "function"
    },
    {
      "inputs": [],
      "name": "TIER1_STAKE",
      "outputs": [
        {
          "internalType": "uint256",
          "name": "",
          "type": "uint256"
        }
      ],
      "stateMutability": "view",
      "type": "function"
    },
    {
      "inputs": [],
      "name": "TIER2_STAKE",
      "outputs": [
        {
          "internalType": "uint256",
          "name": "",
          "type": "uint256"
        }
      ],
      "stateMutability": "view",
      "type": "function"
    },
    {
      "inputs": [],
      "name": "TIER3_STAKE",
      "outputs": [
        {
          "internalType": "uint256",
          "name": "",
          "type": "uint256"
        }
      ],
      "stateMutability": "view",
      "type": "function"
    },
    {
      "inputs": [
        {
          "internalType": "address",
          "name": "owner",
          "type": "address"
        },
        {
          "internalType": "address",
          "name": "spender",
          "type": "address"
        }
      ],
      "name": "allowance",
      "outputs": [
        {
          "internalType": "uint256",
          "name": "",
          "type": "uint256"
        }
      ],
      "stateMutability": "view",
      "type": "function"
    },
    {
      "inputs": [
        {
          "internalType": "address",
          "name": "spender",
          "type": "address"
        },
        {
          "internalType": "uint256",
          "name": "value",
          "type": "uint256"
        }
      ],
      "name": "approve",
      "outputs": [
        {
          "internalType": "bool",
          "name": "",
          "type": "bool"
        }
      ],
      "stateMutability": "nonpayable",
      "type": "function"
    },
    {
      "inputs": [
        {
          "internalType": "address",
          "name": "account",
          "type": "address"
        }
      ],
      "name": "balanceOf",
      "outputs": [
        {
          "internalType": "uint256",
          "name": "",
          "type": "uint256"
        }
      ],
      "stateMutability": "view",
      "type": "function"
    },
    {
      "inputs": [],
      "name": "claimVested",
      "outputs": [],
      "stateMutability": "nonpayable",
      "type": "function"
    },
    {
      "inputs": [],
      "name": "decimals",
      "outputs": [
        {
          "internalType": "uint8",
          "name": "",
          "type": "uint8"
        }
      ],
      "stateMutability": "view",
      "type": "function"
    },
    {
      "inputs": [
        {
          "internalType": "address",
          "name": "user",
          "type": "address"
        }
      ],
      "name": "getFeeDiscount",
      "outputs": [
        {
          "internalType": "uint256",
          "name": "discountBps",
          "type": "uint256"
        }
      ],
      "stateMutability": "view",
      "type": "function"
    },
    {
      "inputs": [
        {
          "internalType": "bytes32",
          "name": "role",
          "type": "bytes32"
        }
      ],
      "name": "getRoleAdmin",
      "outputs": [
        {
          "internalType": "bytes32",
          "name": "",
          "type": "bytes32"
        }
      ],
      "stateMutability": "view",
      "type": "function"
    },
    {
      "inputs": [
        {
          "internalType": "address",
          "name": "account",
          "type": "address"
        }
      ],
      "name": "grantPlatformRole",
      "outputs": [],
      "stateMutability": "nonpayable",
      "type": "function"
    },
    {
      "inputs": [
        {
          "internalType": "bytes32",
          "name": "role",
          "type": "bytes32"
        },
        {
          "internalType": "address",
          "name": "account",
          "type": "address"
        }
      ],
      "name": "grantRole",
      "outputs": [],
      "stateMutability": "nonpayable",
      "type": "function"
    },
    {
      "inputs": [
        {
          "internalType": "address",
          "name": "user",
          "type": "address"
        }
      ],
      "name": "hasPriorityAccess",
      "outputs": [
        {
          "internalType": "bool",
          "name": "",
          "type": "bool"
        }
      ],
      "stateMutability": "view",
      "type": "function"
    },
    {
      "inputs": [
        {
          "internalType": "bytes32",
          "name": "role",
          "type": "bytes32"
        },
        {
          "internalType": "address",
          "name": "account",
          "type": "address"
        }
      ],
      "name": "hasRole",
      "outputs": [
        {
          "internalType": "bool",
          "name": "",
          "type": "bool"
        }
      ],
      "stateMutability": "view",
      "type": "function"
    },
    {
      "inputs": [],
      "name": "name",
      "outputs": [
        {
          "internalType": "string",
          "name": "",
          "type": "string"
        }
      ],
      "stateMutability": "view",
      "type": "function"
    },
    {
      "inputs": [
        {
          "internalType": "address",
          "name": "from",
          "type": "address"
        },
        {
          "internalType": "uint256",
          "name": "amount",
          "type": "uint256"
        }
      ],
      "name": "processFeePayment",
      "outputs": [],
      "stateMutability": "nonpayable",
      "type": "function"
    },
    {
      "inputs": [
        {
          "internalType": "bytes32",
          "name": "role",
          "type": "bytes32"
        },
        {
          "internalType": "address",
          "name": "callerConfirmation",
          "type": "address"
        }
      ],
      "name": "renounceRole",
      "outputs": [],
      "stateMutability": "nonpayable",
      "type": "function"
    },
    {
      "inputs": [
        {
          "internalType": "bytes32",
          "name": "role",
          "type": "bytes32"
        },
        {
          "internalType": "address",
          "name": "account",
          "type": "address"
        }
      ],
      "name": "revokeRole",
      "outputs": [],
      "stateMutability": "nonpayable",
      "type": "function"
    },
    {
      "inputs": [
        {
          "internalType": "uint256",
          "name": "amount",
          "type": "uint256"
        },
        {
          "internalType": "uint48",
          "name": "lockDays",
          "type": "uint48"
        }
      ],
      "name": "stake",
      "outputs": [],
      "stateMutability": "nonpayable",
      "type": "function"
    },
    {
      "inputs": [
        {
          "internalType": "address",
          "name": "",
          "type": "address"
        }
      ],
      "name": "stakes",
      "outputs": [
        {
          "internalType": "uint256",
          "name": "amount",
          "type": "uint256"
        },
        {
          "internalType": "uint48",
          "name": "stakedAt",
          "type": "uint48"
        },
        {
          "internalType": "uint48",
          "name": "lockUntil",
          "type": "uint48"
        },
        {
          "internalType": "uint48",
          "name": "lastReward",
          "type": "uint48"
        },
        {
          "internalType": "bool",
          "name": "active",
          "type": "bool"
        }
      ],
      "stateMutability": "view",
      "type": "function"
    },
    {
      "inputs": [
        {
          "internalType": "bytes4",
          "name": "interfaceId",
          "type": "bytes4"
        }
      ],
      "name": "supportsInterface",
      "outputs": [
        {
          "internalType": "bool",
          "name": "",
          "type": "bool"
        }
      ],
      "stateMutability": "view",
      "type": "function"
    },
    {
      "inputs": [],
      "name": "symbol",
      "outputs": [
        {
          "internalType": "string",
          "name": "",
          "type": "string"
        }
      ],
      "stateMutability": "view",
      "type": "function"
    },
    {
      "inputs": [],
      "name": "totalStaked",
      "outputs": [
        {
          "internalType": "uint256",
          "name": "",
          "type": "uint256"
        }
      ],
      "stateMutability": "view",
      "type": "function"
    },
    {
      "inputs": [],
      "name": "totalSupply",
      "outputs": [
        {
          "internalType": "uint256",
          "name": "",
          "type": "uint256"
        }
      ],
      "stateMutability": "view",
      "type": "function"
    },
    {
      "inputs": [
        {
          "internalType": "address",
          "name": "to",
          "type": "address"
        },
        {
          "internalType": "uint256",
          "name": "value",
          "type": "uint256"
        }
      ],
      "name": "transfer",
      "outputs": [
        {
          "internalType": "bool",
          "name": "",
          "type": "bool"
        }
      ],
      "stateMutability": "nonpayable",
      "type": "function"
    },
    {
      "inputs": [
        {
          "internalType": "address",
          "name": "from",
          "type": "address"
        },
        {
          "internalType": "address",
          "name": "to",
          "type": "address"
        },
        {
          "internalType": "uint256",
          "name": "value",
          "type": "uint256"
        }
      ],
      "name": "transferFrom",
      "outputs": [
        {
          "internalType": "bool",
          "name": "",
          "type": "bool"
        }
      ],
      "stateMutability": "nonpayable",
      "type": "function"
    },
    {
      "inputs": [],
      "name": "unstake",
      "outputs": [],
      "stateMutability": "nonpayable",
      "type": "function"
    },
    {
      "inputs": [
        {
          "internalType": "address",
          "name": "beneficiary",
          "type": "address"
        }
      ],
      "name": "vestedAmount",
      "outputs": [
        {
          "internalType": "uint256",
          "name": "",
          "type": "uint256"
        }
      ],
      "stateMutability": "view",
      "type": "function"
    },
    {
      "inputs": [
        {
          "internalType": "address",
          "name": "",
          "type": "address"
        }
      ],
      "name": "vestingSchedules",
      "outputs": [
        {
          "internalType": "uint256",
          "name": "total",
          "type": "uint256"
        },
        {
          "internalType": "uint256",
          "name": "claimed",
          "type": "uint256"
        },
        {
          "internalType": "uint48",
          "name": "cliffEnd",
          "type": "uint48"
        },
        {
          "internalType": "uint48",
          "name": "vestEnd",
          "type": "uint48"
        },
        {
          "internalType": "bool",
          "name": "active",
          "type": "bool"
        }
      ],
      "stateMutability": "view",
      "type": "function"
    }
  ],
  "bytecode": "0x6080346200081c57601f6200222038819003918201601f191683019291906001600160401b03841183851017620006d5578160a092849260409687528339810103126200081c57620000518162000861565b90620000606020820162000861565b906200006e84820162000861565b916200008b6080620000836060850162000861565b930162000861565b6200009562000841565b94601486527f497373757261205574696c69747920546f6b656e0000000000000000000000006020870152620000ca62000841565b600381526249535360e81b6020820152865190966001600160401b038211620006d55760035490600182811c9216801562000811575b6020831014620007fb5781601f84931162000786575b50602090601f8311600114620006f757600092620006eb575b50508160011b916000199060031b1c1916176003555b85516001600160401b038111620006d5576004968754600181811c91168015620006ca575b6020821014620006b557601f811162000668575b50602090601f8311600114620005f657620001cb93929160009183620005ea575b50508160011b916000199060031b1c19161787555b6001600655620001c481620008dd565b506200095e565b503015620005d357600254936a52b7d2dcc80cd2e400000094858101809111620005be576002553060005260006020528660002085815401905586519485527fddf252ad1be2c89b69c2b068fc378daa952ba7f163c4a11628f55a4df523b3ef9460008660203093a36001600160a01b039283168015620005a75730600052600060205287600020546a295be96e6406697200000090818110620005845790859392913060005260006020526a295be96e64066971ffffff19018a60002055816000528960002081815401905589519081528760203092a31680156200056d573060005260006020528660002054946a14adf4b7320334b9000000958681106200054a573060005260006020526a14adf4b7320334b8ffffff19018860002055816000528760002086815401905587519086825260203092a365ffffffffffff90814216936200031b8562000876565b916305a39a80846200032d8862000876565b16018481116200053557926020928594928b96936200034b62000821565b6a0c685fa11e01ec6f0000008082528660028984019360008552828d8201991689528260608201961686528d608082019860018a5216948560005260098c528d60002091518255516001820155019651169580546bffffffffffff00000000000094519651151560601b968560018060681b0319998a6cff000000000000000000000000809b169416179160301b1617179055620003e98c62000876565b91620003f58d620008a7565b92888c5194168452897fad63aeec6e410e2826f7d58fa5587c54d898b72068c46e07d49415d23a71916b9b8c921694a4620004308a620008c2565b936200043c8b620008a7565b938660026200044a62000821565b8c6a084595161401484a0000009e8f8352848d8401926000845284019b168b5284606084019a168a52608083019860018a52169d8e60005260098d526000209151825551600182015501965116928654955160301b169351151560601b1693161717179055620004c5620004be87620008c2565b96620008a7565b95818a51971687521694a4306000526000602052826000205403620004f35750516117fe908162000a028239f35b6020606492519162461bcd60e51b8352820152601d60248201527f4953533a2076657374696e672062616c616e6365206d69736d617463680000006044820152fd5b601189634e487b7160e01b6000525260246000fd5b87876064928b519263391434e360e21b8452309084015260248301526044820152fd5b865163ec442f0560e01b8152600081880152602490fd5b60649189918b519263391434e360e21b8452309084015260248301526044820152fd5b875163ec442f0560e01b8152600081890152602490fd5b601187634e487b7160e01b6000525260246000fd5b855163ec442f0560e01b8152600081870152602490fd5b0151905038806200019f565b90601f198316918960005260206000209260005b8181106200064f5750916001939185620001cb9796941062000635575b505050811b018755620001b4565b015160001960f88460031b161c1916905538808062000627565b929360206001819287860151815501950193016200060a565b886000526020600020601f840160051c81019160208510620006aa575b601f0160051c01905b8181106200069d57506200017e565b600081556001016200068e565b909150819062000685565b602289634e487b7160e01b6000525260246000fd5b90607f16906200016a565b634e487b7160e01b600052604160045260246000fd5b0151905038806200012f565b6003600090815293507fc2575a0e9e593c00f959f8c92f12db2869c3395a3b0502d05e2516446f71f85b91905b601f19841685106200076a576001945083601f1981161062000750575b505050811b0160035562000145565b015160001960f88460031b161c1916905538808062000741565b8181015183556020948501946001909301929091019062000724565b60036000529091507fc2575a0e9e593c00f959f8c92f12db2869c3395a3b0502d05e2516446f71f85b601f840160051c81019160208510620007f0575b90601f859493920160051c01905b818110620007e0575062000116565b60008155849350600101620007d1565b9091508190620007c3565b634e487b7160e01b600052602260045260246000fd5b91607f169162000100565b600080fd5b6040519060a082016001600160401b03811183821017620006d557604052565b60408051919082016001600160401b03811183821017620006d557604052565b51906001600160a01b03821682036200081c57565b906301e1338065ffffffffffff809316019182116200089157565b634e487b7160e01b600052601160045260246000fd5b90630784ce0065ffffffffffff809316019182116200089157565b906303c2670065ffffffffffff809316019182116200089157565b6001600160a01b031660008181527f05b8ccbb9d4d8fb16ea74ce3c29a41f1b461fbdaff4714a0d9a8eb05499746bc602052604081205490919060ff166200095a5781805260056020526040822081835260205260408220600160ff198254161790553391600080516020620022008339815191528180a4600190565b5090565b6001600160a01b031660008181527f876f28074a6d2b0ec949f62d34618dd94fc26188a75e5665877c78cd325d5c4860205260408120549091907f797343f8d6a29aafeb3aaf0910a8973e0081c60c2f6c1f775cd9f76ea348fc1e9060ff16620009fc5780835260056020526040832082845260205260408320600160ff1982541617905560008051602062002200833981519152339380a4600190565b50509056fe608060408181526004918236101561001657600080fd5b600092833560e01c91826301ffc9a7146111ab5750816306fdde03146110d2578163095cf187146110ae578163095ea7b31461100457816316934fc414610f9157816318160ddd14610f725781631f0c148114610f4d5781632300f41014610f3057816323b872dd14610e43578163248a9ca314610e185781632def662014610c9e5781632f2ff15d14610c74578163313ce56714610c5857816332cb6b0c14610c3257816336568abe14610bec578163384711cc14610bc657816339293aba14610ba857816341cf742c14610af757816370824c5c14610ace578163708cfc7b14610aaf57816370a0823114610a7857816379492bda14610a5b578163817b1cd214610a3c5781638431832314610a1e57816391d14854146109d757816395d89b41146108ef578163a1b146c81461088f578163a217fddf14610874578163a9059cbb14610843578163b7fa7cfc14610816578163c742d093146106d7578163d01c44cd14610577578163d547741f14610533578163d6918be11461050e578163dd62ed3e146104c5578163fa897ed714610231575063fdb20ccb146101bc57600080fd5b3461022d57602036600319011261022d5760a09160ff9082906001600160a01b036101e5611247565b16815260096020522091825492600260018201549101549165ffffffffffff9181519586526020860152818316908501528160301c16606084015260601c1615156080820152f35b5080fd5b83833461022d578060031936011261022d5782359060249384359065ffffffffffff928383168084036104c15761026661147e565b851561048c576276a700811490811561047f575b8115610471575b5015610434573386526020916007835260ff6001838920015460901c166103fd573387528683528582882054106103c1576102bd8630336113c7565b844216926102cb858561130d565b835199909260a08b0191906001600160401b0383118c8410176103b0575050908660018a9b610381999a9b9487528b8152838101968888528381830197168752600760608301958a87526080840197858952339052528d20905181550194511684549365ffffffffffff60301b905160301b169165ffffffffffff60601b905160601b169260ff60901b9051151560901b169360018060981b0319161717171790556103798560085461139c565b60085561130d565b1690337f6e8910ae8080a58abd08134c664ce6d891d2355c172dc66c7a66bb8d9e66a7c98480a4600160065580f35b634e487b7160e01b8b526041905289fd5b60198884606494519362461bcd60e51b8552840152820152784953533a20696e73756666696369656e742062616c616e636560381b6044820152fd5b60148884606494519362461bcd60e51b8552840152820152734953533a20616c7265616479207374616b696e6760601b6044820152fd5b906018876020606494519362461bcd60e51b8552840152820152771254d4ce881a5b9d985b1a59081b1bd8dac81c195c9a5bd960421b6044820152fd5b6301e1338091501488610281565b62ed4e008114915061027a565b815162461bcd60e51b81526020818501526010818a01526f1254d4ce881e995c9bc8185b5bdd5b9d60821b6044820152606490fd5b8680fd5b50503461022d578060031936011261022d57806020926104e3611247565b6104eb611262565b6001600160a01b0391821683526001865283832091168252845220549051908152f35b50503461022d578160031936011261022d576020905169021e19e0c9bab24000008152f35b9190503461057357806003193601126105735761056f913561056a6001610558611262565b93838752600560205286200154611519565b611655565b5080f35b8280fd5b90503461057357826003193601126105735761059161147e565b3383526009602052818320600281015460ff8160601c16156106995765ffffffffffff16421061065d5760016105c6826116cc565b9101916105d5835480936112b1565b938415610622575050826105e89161139c565b90556105f58133306113c7565b337f9fe9b7be9d151c7a8b6de49a1312ff27a15096d0d1d12999af85fe4310e0b1258380a3600160065580f35b906020606492519162461bcd60e51b835282015260156024820152744953533a206e6f7468696e6720746f20636c61696d60581b6044820152fd5b506020606492519162461bcd60e51b835282015260166024820152751254d4ce8818db1a5999881b9bdd081c995858da195960521b6044820152fd5b835162461bcd60e51b815260208185015260186024820152774953533a206e6f2076657374696e67207363686564756c6560401b6044820152606490fd5b9050346105735781600319360112610573576106f1611247565b91602435906000805160206117898339815191529182865260209260058452828720338852845260ff8388205416156107f857506001600160a01b0385168087528684528287205490949082116107b9576107d0908183029183830414831517156107a6575060609261078a60008051602061176983398151915295936127106a19995957dc185e5b595b9d60aa1b94049830906113c7565b61079487306114a1565b600b815193808552840152820152a380f35b634e487b7160e01b885260119052602487fd5b825162461bcd60e51b815290810184905260196024820152781254d4ce881a5b9cdd59999a58da595b9d081999594818985b603a1b6044820152606490fd5b825163e2517d3f60e01b815233818701526024810191909152604490fd5b50503461022d57602036600319011261022d5760209061083c610837611247565b611327565b9051908152f35b50503461022d578060031936011261022d5760209061086d610863611247565b60243590336113c7565b5160018152f35b50503461022d578160031936011261022d5751908152602090f35b905034610573576020366003190112610573576108aa611247565b91838052600560205280842033855260205260ff8185205416156108d2578361056f8461155d565b9083604492519163e2517d3f60e01b835233908301526024820152fd5b83833461022d578160031936011261022d5780519180938054916001908360011c92600185169485156109cd575b60209586861081146109ba57858952908115610996575060011461095b575b610957878761094d828c0383611278565b51918291826111fe565b0390f35b9080949750528583205b82841061098357505050826109579461094d9282010194868061093c565b8054868501880152928601928101610965565b60ff19168887015250505050151560051b830101925061094d82610957868061093c565b634e487b7160e01b845260228352602484fd5b93607f169361091d565b9050346105735781600319360112610573578160209360ff926109f8611262565b90358252600586528282206001600160a01b039091168252855220549151911615158152f35b50503461022d578160031936011261022d576020905162ed4e008152f35b50503461022d578160031936011261022d576020906008549051908152f35b50503461022d578160031936011261022d57602090516109c48152f35b50503461022d57602036600319011261022d5760209181906001600160a01b03610aa0611247565b16815280845220549051908152f35b50503461022d578160031936011261022d57602090516301e133808152f35b50503461022d578160031936011261022d57602090516000805160206117898339815191528152f35b83833461022d57602036600319011261022d576001600160a01b03610b1a611247565b16825260076020528082209160018301549060ff8260901c169384610b92575b5083610b4d575b60208484519015158152f35b9091925065ffffffffffff9062ed4e008242160190828211610b7f57506020945081169160301c161015908380610b41565b634e487b7160e01b815260118652602490fd5b5469021e19e0c9bab24000001115935085610b3a565b50503461022d578160031936011261022d57602090516276a7008152f35b50503461022d57602036600319011261022d5760209061083c610be7611247565b6112d4565b83833461022d578060031936011261022d57610c06611262565b90336001600160a01b03831603610c23575061056f919235611655565b5163334bd91960e11b81528390fd5b50503461022d578160031936011261022d57602090516a52b7d2dcc80cd2e40000008152f35b50503461022d578160031936011261022d576020905160128152f35b9190503461057357806003193601126105735761056f9135610c996001610558611262565b6115ec565b905034610573578260031936011261057357610cb861147e565b338352600760205281832090600182019182549360ff8560901c1615610ddf5790859181549365ffffffffffff849760301c164210610d54575b5050908291610d0486610d19956112b1565b855460ff60901b1916909555556008546112b1565b600855610d278133306113c7565b337f7fc4727e062e336010f2c282598ef5f14facb3de68cf8195c2f23e1454b2b74e8480a4600160065580f35b91925094506109c490818402918483041484151715610dcc5750610d1992916127108792048096610d8582306114a1565b746561726c795f756e7374616b655f70656e616c747960581b815191602083526015602084015282015260008051602061176983398151915260603392a390919238610cf2565b634e487b7160e01b875260119052602486fd5b5162461bcd60e51b815260208184015260146024820152734953533a206e6f20616374697665207374616b6560601b6044820152606490fd5b9050346105735760203660031901126105735781602093600192358152600585522001549051908152f35b90508234610f2d576060366003190112610f2d57610e5f611247565b610e67611262565b916044359360018060a01b038316808352600160205286832033845260205286832054916000198310610ea3575b60208861086d8989896113c7565b868310610f0b578115610ef4573315610edd5750825260016020908152868320338452815291869020908590039055829061086d87610e95565b8751634a1406b160e11b8152908101849052602490fd5b875163e602df0560e01b8152908101849052602490fd5b9050610f29868851938493637dc7a0d960e11b8552339085016113a9565b0390fd5b80fd5b50503461022d578160031936011261022d57602090516107d08152f35b50503461022d578160031936011261022d576020905169010f0cf064dd592000008152f35b50503461022d578160031936011261022d576020906002549051908152f35b50503461022d57602036600319011261022d5760a09160ff9082906001600160a01b03610fbc611247565b16815260076020522091600183549301549065ffffffffffff9080519485528183166020860152818360301c16908501528160601c16606084015260901c1615156080820152f35b90503461057357816003193601126105735761101e611247565b602435903315611097576001600160a01b031691821561108057508083602095338152600187528181208582528752205582519081527f8c5be1e5ebec7d5bd14f71427d1e84f3dd0314c0f7b2291e5b200ac8c7c3b925843392a35160018152f35b8351634a1406b160e11b8152908101859052602490fd5b835163e602df0560e01b8152808401869052602490fd5b50503461022d578160031936011261022d5760209051683635c9adc5dea000008152f35b9190503461057357826003193601126105735780519183600354906001908260011c926001811680156111a1575b602095868610821461118e575084885290811561116c5750600114611131575b610957868661094d828b0383611278565b929550600383528583205b82841061115957505050826109579461094d928201019438611120565b805486850188015292860192810161113c565b60ff191687860152505050151560051b830101925061094d8261095738611120565b634e487b7160e01b845260229052602483fd5b93607f1693611100565b849134610573576020366003190112610573573563ffffffff60e01b81168091036105735760209250637965db0b60e01b81149081156111ed575b5015158152f35b6301ffc9a760e01b149050836111e6565b6020808252825181830181905290939260005b82811061123357505060409293506000838284010152601f8019910116010190565b818101860151848201604001528501611211565b600435906001600160a01b038216820361125d57565b600080fd5b602435906001600160a01b038216820361125d57565b601f909101601f19168101906001600160401b0382119082101761129b57604052565b634e487b7160e01b600052604160045260246000fd5b919082039182116112be57565b634e487b7160e01b600052601160045260246000fd5b6001600160a01b03166000908152600960205260409020600281015460601c60ff161561130757611304906116cc565b90565b50600090565b91909165ffffffffffff808094169116019182116112be57565b6001600160a01b03166000908152600760205260409020600181015460901c60ff1615611307575469021e19e0c9bab24000008110156113955769010f0cf064dd5920000081101561138e57683635c9adc5dea00000111561138857600090565b6107d090565b50610dac90565b5061138890565b919082018092116112be57565b604091949392606082019560018060a01b0316825260208201520152565b916001600160a01b03808416928315611465571692831561144c576000908382528160205260408220549083821061142f575091604082826000805160206117a9833981519152958760209652828652038282205586815220818154019055604051908152a3565b610f298460405193849363391434e360e21b8552600485016113a9565b60405163ec442f0560e01b815260006004820152602490fd5b604051634b637e8f60e11b815260006004820152602490fd5b60026006541461148f576002600655565b604051633ee5aeb560e01b8152600490fd5b906001600160a01b03821690811561146557600092828452836020526040842054908282106114fc5750816000805160206117a9833981519152926020928587528684520360408620558060025403600255604051908152a3565b610f298360405193849363391434e360e21b8552600485016113a9565b80600052600560205260406000203360005260205260ff604060002054161561153f5750565b6044906040519063e2517d3f60e01b82523360048301526024820152fd5b6001600160a01b031660008181527f876f28074a6d2b0ec949f62d34618dd94fc26188a75e5665877c78cd325d5c4860205260408120549091906000805160206117898339815191529060ff166115e75780835260056020526040832082845260205260408320600160ff19825416179055600080516020611749833981519152339380a4600190565b505090565b906000918083526005602052604083209160018060a01b03169182845260205260ff604084205416156000146115e75780835260056020526040832082845260205260408320600160ff19825416179055600080516020611749833981519152339380a4600190565b906000918083526005602052604083209160018060a01b03169182845260205260ff6040842054166000146115e7578083526005602052604083208284526020526040832060ff1981541690557ff6391f5c32d9c69d2a47ea670b442974b53935d1edc7fd64eb21e047a839171b339380a4600190565b600281015465ffffffffffff8082169182421061173f57819060301c169182421015611738576116fc81426112b1565b92038181116112be571691548181029181830414901517156112be578115611722570490565b634e487b7160e01b600052601260045260246000fd5b5050505490565b5050505060009056fe2f8788117e7eff1d82e926ec794901d17c78024a50270940304540a733656f0dfad31924d655455395c87544c8aa1ffdb5a7505a22a3c2e03f28003b6556a75f797343f8d6a29aafeb3aaf0910a8973e0081c60c2f6c1f775cd9f76ea348fc1eddf252ad1be2c89b69c2b068fc378daa952ba7f163c4a11628f55a4df523b3efa264697066735822122021535cca90e3603a1c2169024ff19f543681ef3ca020f0b64a2e5323a435cd8164736f6c634300081800332f8788117e7eff1d82e926ec794901d17c78024a50270940304540a733656f0d",
  "linkReferences": {},
  "deployedLinkReferences": {}
}