{
  "_format": "hh-sol-artifact-1",
  "contractName": "IssuraSecurityToken",
  "sourceName": "contracts/tokens/IssuraSecurityToken.sol",
  "abi": [
    {
      "inputs": [
        {
          "components": [
            {
              "internalType": "string",
              "name": "name",
              "type": "string"
            },
            {
              "internalType": "string",
              "name": "symbol",
              "type": "string"
            },
            {
              "internalType": "string",
              "name": "assetType",
              "type": "string"
            },
            {
              "internalType": "uint256",
              "name": "targetRaise",
              "type": "uint256"
            },
            {
              "internalType": "uint256",
              "name": "tokenPrice",
              "type": "uint256"
            },
            {
              "internalType": "uint256",
              "name": "maxSupply",
              "type": "uint256"
            },
            {
              "internalType": "uint256",
              "name": "minInvestment",
              "type": "uint256"
            },
            {
              "internalType": "uint16[]",
              "name": "allowedCountries",
              "type": "uint16[]"
            },
            {
              "internalType": "uint48",
              "name": "closingDate",
              "type": "uint48"
            },
            {
              "internalType": "address",
              "name": "issuer",
              "type": "address"
            },
            {
              "internalType": "address",
              "name": "treasury",
              "type": "address"
            },
            {
              "internalType": "uint16",
              "name": "feeBps",
              "type": "uint16"
            }
          ],
          "internalType": "struct ISecurityToken.STOConfig",
          "name": "config",
          "type": "tuple"
        },
        {
          "internalType": "address",
          "name": "identityRegistry_",
          "type": "address"
        },
        {
          "internalType": "address",
          "name": "usdc_",
          "type": "address"
        },
        {
          "internalType": "address",
          "name": "admin",
          "type": "address"
        },
        {
          "internalType": "address",
          "name": "complianceOfficer",
          "type": "address"
        }
      ],
      "stateMutability": "nonpayable",
      "type": "constructor"
    },
    {
      "inputs": [],
      "name": "AccessControlBadConfirmation",
      "type": "error"
    },
    {
      "inputs": [
        {
          "internalType": "address",
          "name": "account",
          "type": "address"
        },
        {
          "internalType": "bytes32",
          "name": "neededRole",
          "type": "bytes32"
        }
      ],
      "name": "AccessControlUnauthorizedAccount",
      "type": "error"
    },
    {
      "inputs": [
        {
          "internalType": "address",
          "name": "spender",
          "type": "address"
        },
        {
          "internalType": "uint256",
          "name": "allowance",
          "type": "uint256"
        },
        {
          "internalType": "uint256",
          "name": "needed",
          "type": "uint256"
        }
      ],
      "name": "ERC20InsufficientAllowance",
      "type": "error"
    },
    {
      "inputs": [
        {
          "internalType": "address",
          "name": "sender",
          "type": "address"
        },
        {
          "internalType": "uint256",
          "name": "balance",
          "type": "uint256"
        },
        {
          "internalType": "uint256",
          "name": "needed",
          "type": "uint256"
        }
      ],
      "name": "ERC20InsufficientBalance",
      "type": "error"
    },
    {
      "inputs": [
        {
          "internalType": "address",
          "name": "approver",
          "type": "address"
        }
      ],
      "name": "ERC20InvalidApprover",
      "type": "error"
    },
    {
      "inputs": [
        {
          "internalType": "address",
          "name": "receiver",
          "type": "address"
        }
      ],
      "name": "ERC20InvalidReceiver",
      "type": "error"
    },
    {
      "inputs": [
        {
          "internalType": "address",
          "name": "sender",
          "type": "address"
        }
      ],
      "name": "ERC20InvalidSender",
      "type": "error"
    },
    {
      "inputs": [
        {
          "internalType": "address",
          "name": "spender",
          "type": "address"
        }
      ],
      "name": "ERC20InvalidSpender",
      "type": "error"
    },
    {
      "inputs": [],
      "name": "EnforcedPause",
      "type": "error"
    },
    {
      "inputs": [],
      "name": "ExpectedPause",
      "type": "error"
    },
    {
      "inputs": [],
      "name": "ReentrancyGuardReentrantCall",
      "type": "error"
    },
    {
      "anonymous": false,
      "inputs": [
        {
          "indexed": true,
          "internalType": "address",
          "name": "owner",
          "type": "address"
        },
        {
          "indexed": true,
          "internalType": "address",
          "name": "spender",
          "type": "address"
        },
        {
          "indexed": false,
          "internalType": "uint256",
          "name": "value",
          "type": "uint256"
        }
      ],
      "name": "Approval",
      "type": "event"
    },
    {
      "anonymous": false,
      "inputs": [
        {
          "indexed": false,
          "internalType": "uint256",
          "name": "totalAmount",
          "type": "uint256"
        },
        {
          "indexed": false,
          "internalType": "uint256",
          "name": "perTokenAmount",
          "type": "uint256"
        },
        {
          "indexed": false,
          "internalType": "uint48",
          "name": "timestamp",
          "type": "uint48"
        }
      ],
      "name": "DistributionProcessed",
      "type": "event"
    },
    {
      "anonymous": false,
      "inputs": [
        {
          "indexed": true,
          "internalType": "address",
          "name": "from",
          "type": "address"
        },
        {
          "indexed": true,
          "internalType": "address",
          "name": "to",
          "type": "address"
        },
        {
          "indexed": false,
          "internalType": "uint256",
          "name": "amount",
          "type": "uint256"
        },
        {
          "indexed": false,
          "internalType": "string",
          "name": "reason",
          "type": "string"
        }
      ],
      "name": "ForcedTransfer",
      "type": "event"
    },
    {
      "anonymous": false,
      "inputs": [
        {
          "indexed": true,
          "internalType": "address",
          "name": "investor",
          "type": "address"
        },
        {
          "indexed": false,
          "internalType": "uint256",
          "name": "usdcAmount",
          "type": "uint256"
        },
        {
          "indexed": false,
          "internalType": "uint256",
          "name": "tokens",
          "type": "uint256"
        }
      ],
      "name": "Investment",
      "type": "event"
    },
    {
      "anonymous": false,
      "inputs": [
        {
          "indexed": false,
          "internalType": "uint256",
          "name": "totalRaised",
          "type": "uint256"
        },
        {
          "indexed": false,
          "internalType": "uint256",
          "name": "totalTokens",
          "type": "uint256"
        }
      ],
      "name": "OfferingClosed",
      "type": "event"
    },
    {
      "anonymous": false,
      "inputs": [
        {
          "indexed": false,
          "internalType": "address",
          "name": "account",
          "type": "address"
        }
      ],
      "name": "Paused",
      "type": "event"
    },
    {
      "anonymous": false,
      "inputs": [
        {
          "indexed": true,
          "internalType": "bytes32",
          "name": "role",
          "type": "bytes32"
        },
        {
          "indexed": true,
          "internalType": "bytes32",
          "name": "previousAdminRole",
          "type": "bytes32"
        },
        {
          "indexed": true,
          "internalType": "bytes32",
          "name": "newAdminRole",
          "type": "bytes32"
        }
      ],
      "name": "RoleAdminChanged",
      "type": "event"
    },
    {
      "anonymous": false,
      "inputs": [
        {
          "indexed": true,
          "internalType": "bytes32",
          "name": "role",
          "type": "bytes32"
        },
        {
          "indexed": true,
          "internalType": "address",
          "name": "account",
          "type": "address"
        },
        {
          "indexed": true,
          "internalType": "address",
          "name": "sender",
          "type": "address"
        }
      ],
      "name": "RoleGranted",
      "type": "event"
    },
    {
      "anonymous": false,
      "inputs": [
        {
          "indexed": true,
          "internalType": "bytes32",
          "name": "role",
          "type": "bytes32"
        },
        {
          "indexed": true,
          "internalType": "address",
          "name": "account",
          "type": "address"
        },
        {
          "indexed": true,
          "internalType": "address",
          "name": "sender",
          "type": "address"
        }
      ],
      "name": "RoleRevoked",
      "type": "event"
    },
    {
      "anonymous": false,
      "inputs": [
        {
          "indexed": false,
          "internalType": "string",
          "name": "reason",
          "type": "string"
        }
      ],
      "name": "STOPaused",
      "type": "event"
    },
    {
      "anonymous": false,
      "inputs": [],
      "name": "STOResumed",
      "type": "event"
    },
    {
      "anonymous": false,
      "inputs": [
        {
          "indexed": true,
          "internalType": "address",
          "name": "investor",
          "type": "address"
        },
        {
          "indexed": false,
          "internalType": "uint256",
          "name": "amount",
          "type": "uint256"
        }
      ],
      "name": "TokensFrozen",
      "type": "event"
    },
    {
      "anonymous": false,
      "inputs": [
        {
          "indexed": true,
          "internalType": "address",
          "name": "lostWallet",
          "type": "address"
        },
        {
          "indexed": true,
          "internalType": "address",
          "name": "newWallet",
          "type": "address"
        },
        {
          "indexed": false,
          "internalType": "uint256",
          "name": "amount",
          "type": "uint256"
        }
      ],
      "name": "TokensRecovered",
      "type": "event"
    },
    {
      "anonymous": false,
      "inputs": [
        {
          "indexed": true,
          "internalType": "address",
          "name": "investor",
          "type": "address"
        },
        {
          "indexed": false,
          "internalType": "uint256",
          "name": "amount",
          "type": "uint256"
        }
      ],
      "name": "TokensUnfrozen",
      "type": "event"
    },
    {
      "anonymous": false,
      "inputs": [
        {
          "indexed": true,
          "internalType": "address",
          "name": "from",
          "type": "address"
        },
        {
          "indexed": true,
          "internalType": "address",
          "name": "to",
          "type": "address"
        },
        {
          "indexed": false,
          "internalType": "uint256",
          "name": "value",
          "type": "uint256"
        }
      ],
      "name": "Transfer",
      "type": "event"
    },
    {
      "anonymous": false,
      "inputs": [
        {
          "indexed": false,
          "internalType": "address",
          "name": "account",
          "type": "address"
        }
      ],
      "name": "Unpaused",
      "type": "event"
    },
    {
      "inputs": [],
      "name": "AGENT_ROLE",
      "outputs": [
        {
          "internalType": "bytes32",
          "name": "",
          "type": "bytes32"
        }
      ],
      "stateMutability": "view",
      "type": "function"
    },
    {
      "inputs": [],
      "name": "COMPLIANCE_ROLE",
      "outputs": [
        {
          "internalType": "bytes32",
          "name": "",
          "type": "bytes32"
        }
      ],
      "stateMutability": "view",
      "type": "function"
    },
    {
      "inputs": [],
      "name": "DEFAULT_ADMIN_ROLE",
      "outputs": [
        {
          "internalType": "bytes32",
          "name": "",
          "type": "bytes32"
        }
      ],
      "stateMutability": "view",
      "type": "function"
    },
    {
      "inputs": [],
      "name": "ISSUER_ROLE",
      "outputs": [
        {
          "internalType": "bytes32",
          "name": "",
          "type": "bytes32"
        }
      ],
      "stateMutability": "view",
      "type": "function"
    },
    {
      "inputs": [],
      "name": "adminCloseOffering",
      "outputs": [],
      "stateMutability": "nonpayable",
      "type": "function"
    },
    {
      "inputs": [
        {
          "internalType": "address",
          "name": "owner",
          "type": "address"
        },
        {
          "internalType": "address",
          "name": "spender",
          "type": "address"
        }
      ],
      "name": "allowance",
      "outputs": [
        {
          "internalType": "uint256",
          "name": "",
          "type": "uint256"
        }
      ],
      "stateMutability": "view",
      "type": "function"
    },
    {
      "inputs": [
        {
          "internalType": "address",
          "name": "spender",
          "type": "address"
        },
        {
          "internalType": "uint256",
          "name": "value",
          "type": "uint256"
        }
      ],
      "name": "approve",
      "outputs": [
        {
          "internalType": "bool",
          "name": "",
          "type": "bool"
        }
      ],
      "stateMutability": "nonpayable",
      "type": "function"
    },
    {
      "inputs": [
        {
          "internalType": "address",
          "name": "account",
          "type": "address"
        }
      ],
      "name": "balanceOf",
      "outputs": [
        {
          "internalType": "uint256",
          "name": "",
          "type": "uint256"
        }
      ],
      "stateMutability": "view",
      "type": "function"
    },
    {
      "inputs": [
        {
          "internalType": "address",
          "name": "from",
          "type": "address"
        },
        {
          "internalType": "address",
          "name": "to",
          "type": "address"
        },
        {
          "internalType": "uint256",
          "name": "amount",
          "type": "uint256"
        }
      ],
      "name": "canTransfer",
      "outputs": [
        {
          "internalType": "bool",
          "name": "",
          "type": "bool"
        },
        {
          "internalType": "string",
          "name": "",
          "type": "string"
        }
      ],
      "stateMutability": "view",
      "type": "function"
    },
    {
      "inputs": [],
      "name": "claimDistribution",
      "outputs": [],
      "stateMutability": "nonpayable",
      "type": "function"
    },
    {
      "inputs": [],
      "name": "closeOffering",
      "outputs": [],
      "stateMutability": "nonpayable",
      "type": "function"
    },
    {
      "inputs": [],
      "name": "decimals",
      "outputs": [
        {
          "internalType": "uint8",
          "name": "",
          "type": "uint8"
        }
      ],
      "stateMutability": "pure",
      "type": "function"
    },
    {
      "inputs": [
        {
          "internalType": "address",
          "name": "from",
          "type": "address"
        },
        {
          "internalType": "address",
          "name": "to",
          "type": "address"
        },
        {
          "internalType": "uint256",
          "name": "amount",
          "type": "uint256"
        },
        {
          "internalType": "string",
          "name": "reason",
          "type": "string"
        }
      ],
      "name": "forcedTransfer",
      "outputs": [],
      "stateMutability": "nonpayable",
      "type": "function"
    },
    {
      "inputs": [
        {
          "internalType": "address",
          "name": "investor",
          "type": "address"
        },
        {
          "internalType": "uint256",
          "name": "amount",
          "type": "uint256"
        }
      ],
      "name": "freezeTokens",
      "outputs": [],
      "stateMutability": "nonpayable",
      "type": "function"
    },
    {
      "inputs": [
        {
          "internalType": "address",
          "name": "investor",
          "type": "address"
        }
      ],
      "name": "frozenBalance",
      "outputs": [
        {
          "internalType": "uint256",
          "name": "",
          "type": "uint256"
        }
      ],
      "stateMutability": "view",
      "type": "function"
    },
    {
      "inputs": [],
      "name": "getConfig",
      "outputs": [
        {
          "components": [
            {
              "internalType": "string",
              "name": "name",
              "type": "string"
            },
            {
              "internalType": "string",
              "name": "symbol",
              "type": "string"
            },
            {
              "internalType": "string",
              "name": "assetType",
              "type": "string"
            },
            {
              "internalType": "uint256",
              "name": "targetRaise",
              "type": "uint256"
            },
            {
              "internalType": "uint256",
              "name": "tokenPrice",
              "type": "uint256"
            },
            {
              "internalType": "uint256",
              "name": "maxSupply",
              "type": "uint256"
            },
            {
              "internalType": "uint256",
              "name": "minInvestment",
              "type": "uint256"
            },
            {
              "internalType": "uint16[]",
              "name": "allowedCountries",
              "type": "uint16[]"
            },
            {
              "internalType": "uint48",
              "name": "closingDate",
              "type": "uint48"
            },
            {
              "internalType": "address",
              "name": "issuer",
              "type": "address"
            },
            {
              "internalType": "address",
              "name": "treasury",
              "type": "address"
            },
            {
              "internalType": "uint16",
              "name": "feeBps",
              "type": "uint16"
            }
          ],
          "internalType": "struct ISecurityToken.STOConfig",
          "name": "",
          "type": "tuple"
        }
      ],
      "stateMutability": "view",
      "type": "function"
    },
    {
      "inputs": [
        {
          "internalType": "bytes32",
          "name": "role",
          "type": "bytes32"
        }
      ],
      "name": "getRoleAdmin",
      "outputs": [
        {
          "internalType": "bytes32",
          "name": "",
          "type": "bytes32"
        }
      ],
      "stateMutability": "view",
      "type": "function"
    },
    {
      "inputs": [
        {
          "internalType": "bytes32",
          "name": "role",
          "type": "bytes32"
        },
        {
          "internalType": "address",
          "name": "account",
          "type": "address"
        }
      ],
      "name": "grantRole",
      "outputs": [],
      "stateMutability": "nonpayable",
      "type": "function"
    },
    {
      "inputs": [
        {
          "internalType": "bytes32",
          "name": "role",
          "type": "bytes32"
        },
        {
          "internalType": "address",
          "name": "account",
          "type": "address"
        }
      ],
      "name": "hasRole",
      "outputs": [
        {
          "internalType": "bool",
          "name": "",
          "type": "bool"
        }
      ],
      "stateMutability": "view",
      "type": "function"
    },
    {
      "inputs": [],
      "name": "identityRegistry",
      "outputs": [
        {
          "internalType": "contract IIdentityRegistry",
          "name": "",
          "type": "address"
        }
      ],
      "stateMutability": "view",
      "type": "function"
    },
    {
      "inputs": [
        {
          "internalType": "address",
          "name": "investor",
          "type": "address"
        },
        {
          "internalType": "uint256",
          "name": "usdcAmount",
          "type": "uint256"
        }
      ],
      "name": "invest",
      "outputs": [],
      "stateMutability": "nonpayable",
      "type": "function"
    },
    {
      "inputs": [],
      "name": "investorCount",
      "outputs": [
        {
          "internalType": "uint256",
          "name": "",
          "type": "uint256"
        }
      ],
      "stateMutability": "view",
      "type": "function"
    },
    {
      "inputs": [
        {
          "internalType": "address",
          "name": "investor",
          "type": "address"
        }
      ],
      "name": "isFrozen",
      "outputs": [
        {
          "internalType": "bool",
          "name": "",
          "type": "bool"
        }
      ],
      "stateMutability": "view",
      "type": "function"
    },
    {
      "inputs": [],
      "name": "name",
      "outputs": [
        {
          "internalType": "string",
          "name": "",
          "type": "string"
        }
      ],
      "stateMutability": "view",
      "type": "function"
    },
    {
      "inputs": [],
      "name": "offeringClosed",
      "outputs": [
        {
          "internalType": "bool",
          "name": "",
          "type": "bool"
        }
      ],
      "stateMutability": "view",
      "type": "function"
    },
    {
      "inputs": [
        {
          "internalType": "string",
          "name": "reason",
          "type": "string"
        }
      ],
      "name": "pause",
      "outputs": [],
      "stateMutability": "nonpayable",
      "type": "function"
    },
    {
      "inputs": [],
      "name": "pauseReason",
      "outputs": [
        {
          "internalType": "string",
          "name": "",
          "type": "string"
        }
      ],
      "stateMutability": "view",
      "type": "function"
    },
    {
      "inputs": [],
      "name": "paused",
      "outputs": [
        {
          "internalType": "bool",
          "name": "",
          "type": "bool"
        }
      ],
      "stateMutability": "view",
      "type": "function"
    },
    {
      "inputs": [
        {
          "internalType": "address",
          "name": "investor",
          "type": "address"
        }
      ],
      "name": "pendingDistribution",
      "outputs": [
        {
          "internalType": "uint256",
          "name": "",
          "type": "uint256"
        }
      ],
      "stateMutability": "view",
      "type": "function"
    },
    {
      "inputs": [
        {
          "internalType": "uint256",
          "name": "totalUSDC",
          "type": "uint256"
        }
      ],
      "name": "processDistribution",
      "outputs": [],
      "stateMutability": "nonpayable",
      "type": "function"
    },
    {
      "inputs": [
        {
          "internalType": "address",
          "name": "lostWallet",
          "type": "address"
        },
        {
          "internalType": "address",
          "name": "newWallet",
          "type": "address"
        }
      ],
      "name": "recoverTokens",
      "outputs": [],
      "stateMutability": "nonpayable",
      "type": "function"
    },
    {
      "inputs": [
        {
          "internalType": "bytes32",
          "name": "role",
          "type": "bytes32"
        },
        {
          "internalType": "address",
          "name": "callerConfirmation",
          "type": "address"
        }
      ],
      "name": "renounceRole",
      "outputs": [],
      "stateMutability": "nonpayable",
      "type": "function"
    },
    {
      "inputs": [
        {
          "internalType": "bytes32",
          "name": "role",
          "type": "bytes32"
        },
        {
          "internalType": "address",
          "name": "account",
          "type": "address"
        }
      ],
      "name": "revokeRole",
      "outputs": [],
      "stateMutability": "nonpayable",
      "type": "function"
    },
    {
      "inputs": [
        {
          "internalType": "bytes4",
          "name": "interfaceId",
          "type": "bytes4"
        }
      ],
      "name": "supportsInterface",
      "outputs": [
        {
          "internalType": "bool",
          "name": "",
          "type": "bool"
        }
      ],
      "stateMutability": "view",
      "type": "function"
    },
    {
      "inputs": [],
      "name": "symbol",
      "outputs": [
        {
          "internalType": "string",
          "name": "",
          "type": "string"
        }
      ],
      "stateMutability": "view",
      "type": "function"
    },
    {
      "inputs": [],
      "name": "totalRaised",
      "outputs": [
        {
          "internalType": "uint256",
          "name": "",
          "type": "uint256"
        }
      ],
      "stateMutability": "view",
      "type": "function"
    },
    {
      "inputs": [],
      "name": "totalSupply",
      "outputs": [
        {
          "internalType": "uint256",
          "name": "",
          "type": "uint256"
        }
      ],
      "stateMutability": "view",
      "type": "function"
    },
    {
      "inputs": [
        {
          "internalType": "address",
          "name": "to",
          "type": "address"
        },
        {
          "internalType": "uint256",
          "name": "value",
          "type": "uint256"
        }
      ],
      "name": "transfer",
      "outputs": [
        {
          "internalType": "bool",
          "name": "",
          "type": "bool"
        }
      ],
      "stateMutability": "nonpayable",
      "type": "function"
    },
    {
      "inputs": [
        {
          "internalType": "address",
          "name": "gnosisSafe",
          "type": "address"
        }
      ],
      "name": "transferAdminToGnosisSafe",
      "outputs": [],
      "stateMutability": "nonpayable",
      "type": "function"
    },
    {
      "inputs": [
        {
          "internalType": "address",
          "name": "from",
          "type": "address"
        },
        {
          "internalType": "address",
          "name": "to",
          "type": "address"
        },
        {
          "internalType": "uint256",
          "name": "value",
          "type": "uint256"
        }
      ],
      "name": "transferFrom",
      "outputs": [
        {
          "internalType": "bool",
          "name": "",
          "type": "bool"
        }
      ],
      "stateMutability": "nonpayable",
      "type": "function"
    },
    {
      "inputs": [
        {
          "internalType": "address",
          "name": "investor",
          "type": "address"
        },
        {
          "internalType": "uint256",
          "name": "amount",
          "type": "uint256"
        }
      ],
      "name": "unfreezeTokens",
      "outputs": [],
      "stateMutability": "nonpayable",
      "type": "function"
    },
    {
      "inputs": [],
      "name": "unpause",
      "outputs": [],
      "stateMutability": "nonpayable",
      "type": "function"
    },
    {
      "inputs": [],
      "name": "usdc",
      "outputs": [
        {
          "internalType": "contract IERC20",
          "name": "",
          "type": "address"
        }
      ],
      "stateMutability": "view",
      "type": "function"
    }
  ],
  "bytecode": "0x60c06040523462000ba85762003e6e803803806200001d8162000bcb565b92833981019060a08183031262000ba85780516001600160401b03811162000ba857610180928382840182031262000ba8576040519384016001600160401b03811185821017620006fd57604052828201516001600160401b03811162000ba857816200008e918486010162000bf1565b8452828201602001516001600160401b03811162000ba85781620000b6918486010162000bf1565b6020850152828201604001516001600160401b03811162000ba85781620000e1918486010162000bf1565b6040850152828201606081810151908601526080808201519086015260a0808201519086015260c0808201519086015260e001516001600160401b03811162000ba85781601f828587010101121562000ba857838301810151916001600160401b038311620006fd578260051b60206200015d81830162000bcb565b80958152019160208285888a010101011162000ba857906020838688010101915b60208185888a01010101831062000bad575050505060e0840152610100818301015165ffffffffffff8116810362000ba857620001f69161016091610100860152620001d06101208286010162000c73565b610120860152620001e76101408286010162000c73565b61014086015283010162000c63565b6101608301526200020a6020820162000c73565b91620002196040830162000c73565b906200023660806200022e6060860162000c73565b940162000c73565b81516020830151815190916001600160401b038211620006fd5760035490600182811c9216801562000b9d575b6020831014620007e75781601f84931162000b4a575b50602090601f831160011462000abb5760009262000aaf575b50508160011b916000199060031b1c1916176003555b8051906001600160401b038211620006fd5760045490600182811c9216801562000aa4575b6020831014620007e75781601f84931162000a51575b50602090601f8311600114620009c257600092620009b6575b50508160011b916000199060031b1c1916176004555b600160075581518051906001600160401b038211620006fd5760085490600182811c92168015620009ab575b6020831014620007e75781601f84931162000969575b50602090601f8311600114620008eb57600092620008df575b50508160011b916000199060031b1c1916176008555b60208201518051906001600160401b038211620006fd5760095490600182811c92168015620008d4575b6020831014620007e75781601f84931162000892575b50602090601f8311600114620008145760009262000808575b50508160011b916000199060031b1c1916176009555b60408201518051906001600160401b038211620006fd57600a5490600182811c92168015620007fd575b6020831014620007e75781601f84931162000799575b50602090601f83116001146200071f5760009262000713575b50508160011b916000199060031b1c191617600a555b6060820151600b556080820151600c5560a0820151600d5560c0820151600e5560e082015180519095906001600160401b038111620006fd57680100000000000000008111620006fd576020600f978854838a55808410620006a9575b50019660005260206000209060005b8160041c8110620006655750600f19811680820362000600575b61010086015160108054610120898101516001600160d01b031990921665ffffffffffff949094169390931760309190911b600160301b600160d01b0316179055610140870151601180546101608a01516001600160b01b03199091166001600160a01b039384161760a091821b61ffff60a01b1617909155818716608052818a169052620005ac918a91620005a5918a6200059b8b620005888762000ca1565b50620005948762000d22565b5062000d22565b5001511662000dc5565b5062000e63565b50604051612eec908162000f028239608051818181610be301528181611ec9015281816120cb015281816126a001526129c7015260a051818181610c9001528181611525015281816118dc0152611b880152f35b9760009860005b8184038110620006305750505060041c0195909555620005ac946200059b82620005a5620004e7565b90919960206200065a60019261ffff8e51169085851b60031b9161ffff809116831b921b19161790565b9b0192910162000607565b6000805b6010811062000680575083820155600101620004cd565b8a51909a9160019160209161ffff60048f901b81811b199092169216901b1792019a0162000669565b620006db908a600052836000208b80870160041c820192601e8860011b1680620006e2575b500160041c019062000c88565b38620004be565b60001990818601918254918a0360031b1c16905538620006ce565b634e487b7160e01b600052604160045260246000fd5b0151905038806200044b565b600a600090815260008051602062003e0e8339815191529350601f198516905b81811062000780575090846001959493921062000766575b505050811b01600a5562000461565b015160001960f88460031b161c1916905538808062000757565b929360206001819287860151815501950193016200073f565b600a600052620007d59060008051602062003e0e833981519152601f850160051c81019160208610620007dc575b601f0160051c019062000c88565b3862000432565b9091508190620007c7565b634e487b7160e01b600052602260045260246000fd5b91607f16916200041c565b015190503880620003dc565b60096000908152935060008051602062003e4e83398151915291905b601f198416851062000876576001945083601f198116106200085c575b505050811b01600955620003f2565b015160001960f88460031b161c191690553880806200084d565b8181015183556020948501946001909301929091019062000830565b6009600052620008cd9060008051602062003e4e833981519152601f850160051c81019160208610620007dc57601f0160051c019062000c88565b38620003c3565b91607f1691620003ad565b0151905038806200036d565b60086000908152935060008051602062003e2e83398151915291905b601f19841685106200094d576001945083601f1981161062000933575b505050811b0160085562000383565b015160001960f88460031b161c1916905538808062000924565b8181015183556020948501946001909301929091019062000907565b6008600052620009a49060008051602062003e2e833981519152601f850160051c81019160208610620007dc57601f0160051c019062000c88565b3862000354565b91607f16916200033e565b015190503880620002fc565b6004600090815293507f8a35acfbc15ff81a39ae7d344fd709f28e8600b4aa8c65c6b64bfe7fe36bd19b91905b601f198416851062000a35576001945083601f1981161062000a1b575b505050811b0160045562000312565b015160001960f88460031b161c1916905538808062000a0c565b81810151835560209485019460019093019290910190620009ef565b600460005262000a9d907f8a35acfbc15ff81a39ae7d344fd709f28e8600b4aa8c65c6b64bfe7fe36bd19b601f850160051c81019160208610620007dc57601f0160051c019062000c88565b38620002e3565b91607f1691620002cd565b01519050388062000292565b6003600090815293507fc2575a0e9e593c00f959f8c92f12db2869c3395a3b0502d05e2516446f71f85b91905b601f198416851062000b2e576001945083601f1981161062000b14575b505050811b01600355620002a8565b015160001960f88460031b161c1916905538808062000b05565b8181015183556020948501946001909301929091019062000ae8565b600360005262000b96907fc2575a0e9e593c00f959f8c92f12db2869c3395a3b0502d05e2516446f71f85b601f850160051c81019160208610620007dc57601f0160051c019062000c88565b3862000279565b91607f169162000263565b600080fd5b602080809362000bbd8662000c63565b81520193019291506200017e565b6040519190601f01601f191682016001600160401b03811183821017620006fd57604052565b919080601f8401121562000ba85782516001600160401b038111620006fd5760209062000c27601f8201601f1916830162000bcb565b9281845282828701011162000ba85760005b81811062000c4f57508260009394955001015290565b858101830151848201840152820162000c39565b519061ffff8216820362000ba857565b51906001600160a01b038216820362000ba857565b81811062000c94575050565b6000815560010162000c88565b6001600160a01b031660008181527f54cdd369e4e8a8515e52ca72ec816c2101831ad1f18bf44102ed171459c9b4f8602052604081205490919060ff1662000d1e5781805260066020526040822081835260205260408220600160ff19825416179055339160008051602062003dee8339815191528180a4600190565b5090565b6001600160a01b031660008181527f84103e4942d70d0389ab910bdcdf181c3e028bc1897fe6797bb191ac79d8088260205260408120549091907f442a94f1a1fac79af32856af2a64f63648cfa2ef3b98610a5bb7cbec4cee69859060ff1662000dc05780835260066020526040832082845260205260408320600160ff1982541617905560008051602062003dee833981519152339380a4600190565b505090565b6001600160a01b031660008181527f702fe919a6a7971e34c596917a48306a624527a41d0aa0fcf43050b6a305324860205260408120549091907f114e74f6ea3bd819998f78687bfcb11b140da08e9b7d222fa9c1f1ba1f2aa1229060ff1662000dc05780835260066020526040832082845260205260408320600160ff1982541617905560008051602062003dee833981519152339380a4600190565b6001600160a01b031660008181527f4448119502453e295a09f7d4e8a6a0575d3624c233f99f59abf0835bf259780a60205260408120549091907fcab5a0bfe0b79d2c4b1c2e02599fa044d115b7511f9659307cb42769509677099060ff1662000dc05780835260066020526040832082845260205260408320600160ff1982541617905560008051602062003dee833981519152339380a460019056fe6080806040526004908136101561001557600080fd5b60003560e01c90816301ffc9a7146122b95750806304caa6dd14612228578063056097ac14612073578063062d3bd71461204a57806306fdde0314611f98578063095ea7b314611ef8578063134e18f414611eb357806318160ddd14611e9557806322459e1814611e6c57806323b872dd14611d92578063248a9ca314611d64578063266565a914611d2a5780632f2ff15d14611ceb578063313ce56714611ccf57806336568abe14611c8b5780633ad8b2d714611bb75780633e413bee14611b725780633f4ba83a14611a8a5780633f89797e14611884578063420c1f1d1461186b578063559d3d4b146118485780635c975abb146118255780636da663551461166357806370a082311461162957806382aefa2414611600578063884a41be146114af57806389ceea9e146113f857806391d14854146113ab57806395d89b41146112e1578063985ffec014611264578063a217fddf14611248578063a4df6c6a146111b4578063a9059cbb14611183578063ab7294f014611162578063b9b8c24614610b32578063c3f909d41461040c578063c5c4744c146103ee578063d547741f146103ad578063d7e64c001461038f578063dd62ed3e1461033e578063e46638e614610304578063e5839836146102c85763e9b2f0ad146101fa57600080fd5b346102c35760403660031901126102c3576102136123f5565b6024359061021f6127e5565b60018060a01b0316918260005260146020528160406000205410610285575060207f9bed35cb62ad0dba04f9d5bfee4b5bc91443e77da8a65c4c84834c51bb08b0d6918360005260148252604060002061027a828254612633565b9055604051908152a2005b60649060206040519162461bcd60e51b8352820152601760248201527629aa1d1034b739bab33334b1b4b2b73a10333937bd32b760491b6044820152fd5b600080fd5b346102c35760203660031901126102c3576001600160a01b036102e96123f5565b16600052601460205260206040600020541515604051908152f35b346102c35761031b61031536612421565b9161265a565b9061033a604051928392151583526040602084015260408301906123b5565b0390f35b346102c35760403660031901126102c3576103576123f5565b61035f61240b565b9060018060a01b038091166000526001602052604060002091166000526020526020604060002054604051908152f35b346102c35760003660031901126102c3576020601754604051908152f35b50346102c35760403660031901126102c3576103ec90356103cc61240b565b908060005260066020526103e76001604060002001546128bf565b612cf0565b005b346102c35760003660031901126102c3576020601854604051908152f35b346102c35760003660031901126102c357600061016060405161042e81612345565b6060815260606020820152606060408201528260608201528260808201528260a08201528260c0820152606060e0820152826101008201528261012082015282610140820152015260405161048281612345565b6040516008548160006104948361230b565b8083529260018116908115610b135750600114610ab3575b6104b892500382612392565b81526040516009548160006104cc8361230b565b8083529260018116908115610a945750600114610a34575b6104f092500382612392565b6020820152604051600a548160006105078361230b565b8083529260018116908115610a1557506001146109b5575b61052b92500382612392565b6040820152600b546060820152600c546080820152600d5460a0820152600e5460c082015260405180816020600f549283815201600f6000526020600020926000905b80600f8301106108cd576106049454918181106108b8575b8181106108a0575b818110610889575b818110610871575b818110610859575b818110610841575b818110610829575b818110610811575b8181106107f9575b8181106107e1575b8181106107c9575b8181106107b1575b818110610799575b818110610781575b818110610769575b1061075b575b500382612392565b60e082015260105465ffffffffffff811661010083015260018060a01b039060301c1661012082015261ffff60115460018060a01b03811661014084015260a01c166101608201526040516020815261069d610687610671845161018060208601526101a08501906123b5565b6020850151848203601f190160408601526123b5565b6040840151838203601f190160608501526123b5565b60608301516080830152608083015160a083015260a083015160c083015260c083015160e083015260e083015190601f19838203016101008401526020808351928381520192019060005b8181106107415750505061ffff6101608465ffffffffffff610100869701511661012086015260018060a01b036101208201511661014086015260018060a01b0361014082015116828601520151166101808301520390f35b825161ffff168452602093840193909201916001016106e8565b60f01c8152602001856105fc565b92602060019161ffff8560e01c1681520193016105f6565b92602060019161ffff8560d01c1681520193016105ee565b92602060019161ffff8560c01c1681520193016105e6565b92602060019161ffff8560b01c1681520193016105de565b92602060019161ffff8560a01c1681520193016105d6565b92602060019161ffff8560901c1681520193016105ce565b92602060019161ffff8560801c1681520193016105c6565b92602060019161ffff8560701c1681520193016105be565b92602060019161ffff8560601c1681520193016105b6565b92602060019161ffff8560501c1681520193016105ae565b92602060019161ffff8560401c1681520193016105a6565b92602060019161ffff8560301c16815201930161059e565b92602060019161ffff85831c168152019301610596565b92602060019161ffff8560101c16815201930161058e565b92602060019161ffff85168152019301610586565b916010919350610200600191865461ffff8116825261ffff81861c16602083015261ffff8160201c16604083015261ffff8160301c16606083015261ffff8160401c16608083015261ffff8160501c1660a083015261ffff8160601c1660c083015261ffff8160701c1660e083015261ffff8160801c1661010083015261ffff8160901c1661012083015261ffff8160a01c1661014083015261ffff8160b01c1661016083015261ffff8160c01c1661018083015261ffff8160d01c166101a083015261ffff8160e01c166101c083015260f01c6101e082015201940192018492939161056e565b50600a600090815290917fc65a7bb8d6351c1cf70c95a316cc6a92839c986682d98bc35f958f4883f9d2a85b8183106109f957505090602061052b9282010161051f565b60209193508060019154838588010152019101909183926109e1565b6020925061052b94915060ff191682840152151560051b82010161051f565b506009600090815290917f6e1540171b6c0c960b71a7020d9f60077f6af931a8bbf590da0223dacf75c7af5b818310610a785750509060206104f0928201016104e4565b6020919350806001915483858801015201910190918392610a60565b602092506104f094915060ff191682840152151560051b8201016104e4565b506008600090815290917ff3f7a9fe364faab93b216da50a3214154f22a0a2b415b23a84c8169e8b636ee35b818310610af75750509060206104b8928201016104ac565b6020919350806001915483858801015201910190918392610adf565b602092506104b894915060ff191682840152151560051b8201016104ac565b50346102c35760403660031901126102c357610b4c6123f5565b906024803591600080516020612df7833981519152908160005260209160068352604060002033600052835260ff60406000205416156111455750610b8f612d78565b610b97612d55565b60ff6012541661110e5765ffffffffffff6010541642116110d657604051636c85cf6760e01b81526000828201526001600160a01b0386811682860181905296909491604490858183817f00000000000000000000000000000000000000000000000000000000000000008b165afa908115610f31576000916110b9575b501561107c57670de0b6b3a764000080880290888204148815171561106857600c54610c4091612572565b95600e54871061102757610c568760025461249b565b600d5410610fec57612710610c7461ffff60115460a01c168a61255f565b04610c7f818a612633565b6040516323b872dd60e01b815290927f00000000000000000000000000000000000000000000000000000000000000008116929091898180610cc58f30338f850161253d565b03816000885af1908115610f3157600091610fcf575b5015610f965790610d088989938360115416604051938492839263a9059cbb60e01b988985528401612618565b03816000885af1908115610f3157600091610f79575b5015610f3d5791610d4a939160008a9460105460301c16916040519687958694859384528d8401612618565b03925af1908115610f3157600091610f04575b5015610ec45750610d6d906128e5565b8515610eae57610d7b612d78565b610d878460025461249b565b60025585600052600083526040600020848154019055856000600080516020612e3783398151915285604051888152a3610dc38560185461249b565b60185585600052601583526040600020805460ff811615610e04575b87600080516020612db783398151915260408989898351928352820152a26001600755005b60ff19166001179055601654600160401b811015610e9a576001810180601655811015610e8657601660009081528490200180546001600160a01b03191687179055601754916000198314610e7357505060010160175581600080516020612db7833981519152604038610ddf565b601190634e487b7160e01b600052526000fd5b50634e487b7160e01b600090815260328352fd5b50634e487b7160e01b600090815260418352fd5b9060006040519163ec442f0560e01b8352820152fd5b9050601c7b14d50e881c1c9bd8d959591cc81d1c985b9cd9995c8819985a5b195960221b926064956040519562461bcd60e51b8752860152840152820152fd5b610f249150863d8811610f2a575b610f1c8183612392565b810190612483565b38610d5d565b503d610f12565b6040513d6000823e3d90fd5b60405162461bcd60e51b81528089018a90526017818901527614d50e88199959481d1c985b9cd9995c8819985a5b1959604a1b81870152606490fd5b610f9091508a3d8c11610f2a57610f1c8183612392565b38610d1e565b60405162461bcd60e51b81528089018a90526014818901527314d50e881554d110c81c1d5b1b0819985a5b195960621b81870152606490fd5b610fe691508a3d8c11610f2a57610f1c8183612392565b38610cdb565b60405162461bcd60e51b81528086018790526016818601527553543a2065786365656473206d617820737570706c7960501b81840152606490fd5b60405162461bcd60e51b8152808601879052601c818601527b14d50e8818995b1bddc81b5a5b9a5b5d5b481a5b9d995cdd1b595b9d60221b81840152606490fd5b83601186634e487b7160e01b600052526000fd5b905060197814d50e881a5b9d995cdd1bdc881b9bdd081d995c9a599a5959603a1b926064956040519562461bcd60e51b8752860152840152820152fd5b6110d09150863d8811610f2a57610f1c8183612392565b38610c15565b6014836064936040519362461bcd60e51b85528401528201527314d50e881bd999995c9a5b99c8195e1c1a5c995960621b6044820152fd5b6013836064936040519362461bcd60e51b85528401528201527214d50e881bd999995c9a5b99c818db1bdcd959606a1b6044820152fd5b60449250836040519263e2517d3f60e01b84523390840152820152fd5b346102c35760003660031901126102c35761117b612875565b6103ec612592565b346102c35760403660031901126102c3576111a961119f6123f5565b602435903361297d565b602060405160018152f35b346102c35760403660031901126102c3576111cd6123f5565b7fa065e63c631c86f1b9f66a4a2f63f2093bf1c2168d23290259dbd969e0222a456020602435926111fc6127e5565b60018060a01b0316928360005260008252611230604060002054601484526112298360406000205461249b565b11156124be565b8360005260148252604060002061027a82825461249b565b346102c35760003660031901126102c357602060405160008152f35b346102c35760203660031901126102c35760206112d96112826123f5565b670de0b6b3a76400006112c56112b26019549360018060a01b03169384600052601a875260406000205490612633565b836000526000865260406000205461255f565b0490600052601b835260406000205461249b565b604051908152f35b50346102c35760003660031901126102c357604051906000828254916113068361230b565b928383526020946001918660018216918260001461138957505060011461134a575b505061133692500383612392565b61033a6040519282849384528301906123b5565b85925060005281600020906000915b85831061137157505061133693508201013880611328565b80548389018501528794508693909201918101611359565b925093505061133694915060ff191682840152151560051b8201013880611328565b50346102c35760403660031901126102c3576113c561240b565b9035600052600660205260406000209060018060a01b0316600052602052602060ff604060002054166040519015158152f35b50346102c35760203660031901126102c3576114126123f5565b9061141b61284d565b6001600160a01b038216801561147b5733146114445761143a82612bae565b506103ec33612c89565b60649060206040519162461bcd60e51b8352820152601060248201526f53543a2073616d65206164647265737360801b6044820152fd5b60405162461bcd60e51b8152602081840152600d60248201526c53543a207a65726f207361666560981b6044820152606490fd5b50346102c35760003660031901126102c3576114c9612d55565b6114d1612d78565b6114da336128e5565b33600052602090601b825260406000205480156115c6578261151f9133600052601b8252600060408120556040518093819263a9059cbb60e01b835233878401612618565b038160007f00000000000000000000000000000000000000000000000000000000000000006001600160a01b03165af1908115610f31576000916115a9575b501561156b576001600755005b6064916040519162461bcd60e51b8352820152601960248201527814d50e8818db185a5b481d1c985b9cd9995c8819985a5b1959603a1b6044820152fd5b6115c09150833d8511610f2a57610f1c8183612392565b3861155e565b506064916040519162461bcd60e51b8352820152601460248201527353543a206e6f7468696e6720746f20636c61696d60601b6044820152fd5b346102c35760003660031901126102c3576020604051600080516020612e178339815191528152f35b346102c35760203660031901126102c3576001600160a01b0361164a6123f5565b1660005260006020526020604060002054604051908152f35b50346102c357602090816003193601126102c3576001600160401b039181358381116102c3576116969036908401612456565b9290936116a16127e5565b831161181057506116b360135461230b565b601f81116117d4575b506000601f831160011461175b57600080516020612e77833981519152938361174b92600091611750575b508460011b906000198660031b1c1916176013555b611704612d78565b600160ff1960055416176005557f62e78cea01bee320cd4e420270b5ea74000d11b0c9f74754ebdbfc544b05a25883604051338152a1604051938385948552840191612505565b0390a1005b9050810135386116e7565b601f198316906013600052826000209160005b8181106117bd575091600080516020612e7783398151915295918561174b94106117a3575b5050600184811b016013556116fc565b820135600019600387901b60f8161c191690553880611793565b91928460018192868a01358155019401920161176e565b61180090601360005282600020601f850160051c810191848610611806575b601f0160051c0190612526565b386116bc565b90915081906117f3565b604190634e487b7160e01b6000525260246000fd5b346102c35760003660031901126102c357602060ff600554166040519015158152f35b346102c35760003660031901126102c357602060ff601254166040519015158152f35b346102c35760003660031901126102c35761117b61284d565b50346102c3576020806003193601126102c3578135916118a2612875565b6118aa612d55565b60025415611a4c578215611a12576040516323b872dd60e01b81528281806118d687303388850161253d565b038160007f00000000000000000000000000000000000000000000000000000000000000006001600160a01b03165af1908115610f31576000916119f5575b50156119b857670de0b6b3a7640000830290670de0b6b3a763ffff19848304016119a3577f34fed24cebff9f2f4a855b41130e3120797d67a70a0695599980f6e83215760560608585611983866002549061197b6119738383612572565b60195461249b565b601955612572565b9060405192835282015265ffffffffffff42166040820152a16001600755005b601190634e487b7160e01b6000525260246000fd5b6064916040519162461bcd60e51b8352820152601860248201527714d50e881554d110c81d1c985b9cd9995c8819985a5b195960421b6044820152fd5b611a0c9150833d8511610f2a57610f1c8183612392565b38611915565b6064916040519162461bcd60e51b8352820152601560248201527429aa1d103d32b937903234b9ba3934b13aba34b7b760591b6044820152fd5b6064916040519162461bcd60e51b8352820152601960248201527853543a206e6f20746f6b656e73206f75747374616e64696e6760381b6044820152fd5b50346102c35760003660031901126102c357611aa461284d565b611aaf60135461230b565b601f8111611b33575b5060006013556005549060ff821615611b24575060ff19166005557f5db9ee0a495bf2e6ff9c91a7834c1ba4fdd244a5e8aa4e537bd38aeae4b073aa6020604051338152a17f3cd348ff56b5e60ffb00b5cc262c0dff28e4741cdf0375413cd4ab8fe440e6aa600080a1005b604051638dfc202b60e01b8152fd5b6013600052611b6c90601f0160051c7f66de8ffda797e3de9c05e8fc57b3bf0ec28a930d40b0d285d93c06501cf6a09090810190612526565b38611ab8565b346102c35760003660031901126102c3576040517f00000000000000000000000000000000000000000000000000000000000000006001600160a01b03168152602090f35b50346102c35760803660031901126102c357611bd16123f5565b611bd961240b565b60643592906044356001600160401b0385116102c357611c207fbb53097141337c38a36fed7fae913304cd0c540e1200dbb4c8c1cee707f9f2c293611c8696369101612456565b9590611c2a6127e5565b60018060a01b03611c6b8486838a16998a6000526000602052611c548360406000205410156124be565b611c5d816128e5565b611c66826128e5565b61297d565b60405194859485526040602086015216966040840191612505565b0390a3005b50346102c35760403660031901126102c357611ca561240b565b336001600160a01b03821603611cbf576103ec9135612cf0565b5060405163334bd91960e11b8152fd5b346102c35760003660031901126102c357602060405160128152f35b50346102c35760403660031901126102c3576103ec9035611d0a61240b565b90806000526006602052611d256001604060002001546128bf565b612c1b565b346102c35760203660031901126102c3576001600160a01b03611d4b6123f5565b1660005260146020526020604060002054604051908152f35b50346102c35760203660031901126102c3573560005260066020526020600160406000200154604051908152f35b50346102c357611da136612421565b9160018060a01b038116806000526001602052604060002033600052602052604060002054946000198610611ddd575b50506111a9935061297d565b848610611e49578115611e31573315611e1957506111a99484916000526001602052604060002033600052602052036040600020553880611dd1565b602490600060405191634a1406b160e11b8352820152fd5b60249060006040519163e602df0560e01b8352820152fd5b8590611e6886604051938493637dc7a0d960e11b855233908501612b90565b0390fd5b346102c35760003660031901126102c3576020604051600080516020612df78339815191528152f35b346102c35760003660031901126102c3576020600254604051908152f35b346102c35760003660031901126102c3576040517f00000000000000000000000000000000000000000000000000000000000000006001600160a01b03168152602090f35b50346102c35760403660031901126102c357611f126123f5565b602435903315611f80576001600160a01b0316918215611e195750336000526001602052604060002082600052602052806040600020556040519081527f8c5be1e5ebec7d5bd14f71427d1e84f3dd0314c0f7b2291e5b200ac8c7c3b92560203392a3602060405160018152f35b60405163e602df0560e01b8152600081850152602490fd5b346102c35760003660031901126102c357604051600354600082611fbb8361230b565b918282526020936001908560018216918260001461202a575050600114611fea575b5061133692500383612392565b849150600360005281600020906000915b858310612012575050611336935082010185611fdd565b80548389018501528794508693909201918101611ffb565b60ff19168582015261133695151560051b8501019250879150611fdd9050565b346102c35760003660031901126102c3576020604051600080516020612dd78339815191528152f35b50346102c35760403660031901126102c35761208d6123f5565b61209561240b565b61209d6127e5565b60405163b9209e3360e01b81526001600160a01b0382811682860181905294602093909290919084816024817f000000000000000000000000000000000000000000000000000000000000000086165afa908115610f315760009161220b575b50156121c957841693846000526000845260406000205492831561218a5750827f401f439d865a766757ec78675925bd67198d5e78805aa41691b34b5d6a6cbbe694939282611c5d61214e946128e5565b83600052601b825260406000205485600052612170604060002091825461249b565b905583600052601b825260006040812055604051908152a3005b60405162461bcd60e51b8152908101859052601860248201527729aa1d103737903a37b5b2b739903a37903932b1b7bb32b960411b6044820152606490fd5b60405162461bcd60e51b8152808401859052601b60248201527a14d50e881b995dc81dd85b1b195d081b9bdd081d995c9a599a5959602a1b6044820152606490fd5b6122229150853d8711610f2a57610f1c8183612392565b386120fd565b346102c35760003660031901126102c35760405160135460008261224b8361230b565b918282526020936001908560018216918260001461202a575050600114612279575061133692500383612392565b849150601360005281600020906000915b8583106122a1575050611336935082010185611fdd565b8054838901850152879450869390920191810161228a565b82346102c35760203660031901126102c357359063ffffffff60e01b82168092036102c357602091637965db0b60e01b81149081156122fa575b5015158152f35b6301ffc9a760e01b149050836122f3565b90600182811c9216801561233b575b602083101461232557565b634e487b7160e01b600052602260045260246000fd5b91607f169161231a565b61018081019081106001600160401b0382111761236157604052565b634e487b7160e01b600052604160045260246000fd5b604081019081106001600160401b0382111761236157604052565b601f909101601f19168101906001600160401b0382119082101761236157604052565b919082519283825260005b8481106123e1575050826000602080949584010152601f8019910116010190565b6020818301810151848301820152016123c0565b600435906001600160a01b03821682036102c357565b602435906001600160a01b03821682036102c357565b60609060031901126102c3576001600160a01b039060043582811681036102c3579160243590811681036102c3579060443590565b9181601f840112156102c3578235916001600160401b0383116102c357602083818601950101116102c357565b908160209103126102c3575180151581036102c35790565b919082018092116124a857565b634e487b7160e01b600052601160045260246000fd5b156124c557565b60405162461bcd60e51b815260206004820152601860248201527753543a20696e73756666696369656e742062616c616e636560401b6044820152606490fd5b908060209392818452848401376000828201840152601f01601f1916010190565b818110612531575050565b60008155600101612526565b6001600160a01b03918216815291166020820152604081019190915260600190565b818102929181159184041417156124a857565b811561257c570490565b634e487b7160e01b600052601260045260246000fd5b60125460ff81166125de5760019060ff1916176012557fc566557ce4cb9ae8e7b1ebb1215c266fb3ef7b87e5a726107e9188fd256423fb604060185460025482519182526020820152a1565b60405162461bcd60e51b815260206004820152601260248201527114d50e88185b1c9958591e4818db1bdcd95960721b6044820152606490fd5b6001600160a01b039091168152602081019190915260400190565b919082039182116124a857565b6001600160a01b0391821681529116602082015260400190565b9291909260ff600554166127b65760408051636c85cf6760e01b81529094602093926001600160a01b0392909185908290819061269b908660048401612640565b0381867f0000000000000000000000000000000000000000000000000000000000000000165afa9081156127ab5760009161278e575b50156127585716600052600082526126f6846000205460148452856000205490612633565b1061271f57825160019390918201906001600160401b0382118383101761236157526000815290565b7f496e73756666696369656e7420756e66726f7a656e2062616c616e6365000000600093519161274e83612377565b601d835282015290565b5050507610dbdb5c1b1a585b98d94818da1958dac819985a5b1959604a1b600093519161278483612377565b6017835282015290565b6127a59150853d8711610f2a57610f1c8183612392565b386126d1565b87513d6000823e3d90fd5b5050604051600092506127c881612377565b600d81526c14d513c81a5cc81c185d5cd959609a1b602082015290565b3360009081527f84103e4942d70d0389ab910bdcdf181c3e028bc1897fe6797bb191ac79d808826020526040902054600080516020612dd78339815191529060ff161561282f5750565b6044906040519063e2517d3f60e01b82523360048301526024820152fd5b336000908152600080516020612e97833981519152602052604081205460ff161561282f5750565b3360009081527f702fe919a6a7971e34c596917a48306a624527a41d0aa0fcf43050b6a30532486020526040902054600080516020612e178339815191529060ff161561282f5750565b80600052600660205260406000203360005260205260ff604060002054161561282f5750565b6019546001600160a01b039091166000818152601a6020526040808220549293909261291091612633565b8015158061296a575b61292e575b50601954928152601a6020522055565b61294b670de0b6b3a764000091858452836020528484205461255f565b04838252601b60205261296283832091825461249b565b90553861291e565b5083825281602052828220541515612919565b92916001600160a01b0391828516918215612b7757838216938415612b5e5760408051636c85cf6760e01b815260209491928590829081806129c3878f60048401612640565b03917f0000000000000000000000000000000000000000000000000000000000000000165afa908115612b5357600091612b36575b5015612af557846000526000845282612a1e836000205460148752846000205490612633565b10612aa757612a3590612a30896128e5565b6128e5565b612a3d612d78565b8360005260008352806000205496828810612a8a57508184959697600080516020612e378339815191529560005260008552038160002055856000528060002082815401905551908152a3565b611e688389935193849363391434e360e21b855260048501612b90565b815162461bcd60e51b815260048101859052602160248201527f53543a20696e73756666696369656e7420756e66726f7a656e2062616c616e636044820152606560f81b6064820152608490fd5b815162461bcd60e51b815260048101859052601a60248201527914d50e881d1c985b9cd9995c881b9bdd0818dbdb5c1b1a585b9d60321b6044820152606490fd5b612b4d9150853d8711610f2a57610f1c8183612392565b386129f8565b83513d6000823e3d90fd5b60405163ec442f0560e01b815260006004820152602490fd5b604051634b637e8f60e11b815260006004820152602490fd5b604091949392606082019560018060a01b0316825260208201520152565b6001600160a01b03166000818152600080516020612e97833981519152602052604081205490919060ff16612c175781805260066020526040822081835260205260408220600160ff198254161790553391600080516020612d978339815191528180a4600190565b5090565b906000918083526006602052604083209160018060a01b03169182845260205260ff60408420541615600014612c845780835260066020526040832082845260205260408320600160ff19825416179055600080516020612d97833981519152339380a4600190565b505090565b6001600160a01b03166000818152600080516020612e97833981519152602052604081205490919060ff1615612c17578180526006602052604082208183526020526040822060ff1981541690553391600080516020612e578339815191528180a4600190565b906000918083526006602052604083209160018060a01b03169182845260205260ff604084205416600014612c84578083526006602052604083208284526020526040832060ff198154169055600080516020612e57833981519152339380a4600190565b600260075414612d66576002600755565b604051633ee5aeb560e01b8152600490fd5b60ff60055416612d8457565b60405163d93c066560e01b8152600490fdfe2f8788117e7eff1d82e926ec794901d17c78024a50270940304540a733656f0d8514357b17ccbde354811f827b94585a7ab01b4034aa86a807b7cc2c100b7be8442a94f1a1fac79af32856af2a64f63648cfa2ef3b98610a5bb7cbec4cee6985cab5a0bfe0b79d2c4b1c2e02599fa044d115b7511f9659307cb4276950967709114e74f6ea3bd819998f78687bfcb11b140da08e9b7d222fa9c1f1ba1f2aa122ddf252ad1be2c89b69c2b068fc378daa952ba7f163c4a11628f55a4df523b3eff6391f5c32d9c69d2a47ea670b442974b53935d1edc7fd64eb21e047a839171b5ae146d76690e2b2fbd484f0af43653eb5fb3983df5b239a0a30422d030a7fa754cdd369e4e8a8515e52ca72ec816c2101831ad1f18bf44102ed171459c9b4f8a2646970667358221220033ff9ac8275aeec12b07f076b67a2d71b6289ac9ed2b8f7085966d8c9d6d2c964736f6c634300081800332f8788117e7eff1d82e926ec794901d17c78024a50270940304540a733656f0dc65a7bb8d6351c1cf70c95a316cc6a92839c986682d98bc35f958f4883f9d2a8f3f7a9fe364faab93b216da50a3214154f22a0a2b415b23a84c8169e8b636ee36e1540171b6c0c960b71a7020d9f60077f6af931a8bbf590da0223dacf75c7af",
  "linkReferences": {},
  "deployedLinkReferences": {}
}