{
  "_format": "hh-sol-artifact-1",
  "contractName": "IssuraSecurityToken",
  "sourceName": "contracts/tokens/IssuraSecurityToken.sol",
  "abi": [
    {
      "inputs": [
        {
          "components": [
            {
              "internalType": "string",
              "name": "name",
              "type": "string"
            },
            {
              "internalType": "string",
              "name": "symbol",
              "type": "string"
            },
            {
              "internalType": "string",
              "name": "assetType",
              "type": "string"
            },
            {
              "internalType": "uint256",
              "name": "targetRaise",
              "type": "uint256"
            },
            {
              "internalType": "uint256",
              "name": "tokenPrice",
              "type": "uint256"
            },
            {
              "internalType": "uint256",
              "name": "maxSupply",
              "type": "uint256"
            },
            {
              "internalType": "uint256",
              "name": "minInvestment",
              "type": "uint256"
            },
            {
              "internalType": "uint16[]",
              "name": "allowedCountries",
              "type": "uint16[]"
            },
            {
              "internalType": "uint48",
              "name": "closingDate",
              "type": "uint48"
            },
            {
              "internalType": "address",
              "name": "issuer",
              "type": "address"
            },
            {
              "internalType": "address",
              "name": "treasury",
              "type": "address"
            },
            {
              "internalType": "uint16",
              "name": "feeBps",
              "type": "uint16"
            }
          ],
          "internalType": "struct ISecurityToken.STOConfig",
          "name": "config",
          "type": "tuple"
        },
        {
          "internalType": "address",
          "name": "identityRegistry_",
          "type": "address"
        },
        {
          "internalType": "address",
          "name": "usdc_",
          "type": "address"
        },
        {
          "internalType": "address",
          "name": "admin",
          "type": "address"
        },
        {
          "internalType": "address",
          "name": "complianceOfficer",
          "type": "address"
        }
      ],
      "stateMutability": "nonpayable",
      "type": "constructor"
    },
    {
      "inputs": [],
      "name": "AccessControlBadConfirmation",
      "type": "error"
    },
    {
      "inputs": [
        {
          "internalType": "address",
          "name": "account",
          "type": "address"
        },
        {
          "internalType": "bytes32",
          "name": "neededRole",
          "type": "bytes32"
        }
      ],
      "name": "AccessControlUnauthorizedAccount",
      "type": "error"
    },
    {
      "inputs": [
        {
          "internalType": "address",
          "name": "spender",
          "type": "address"
        },
        {
          "internalType": "uint256",
          "name": "allowance",
          "type": "uint256"
        },
        {
          "internalType": "uint256",
          "name": "needed",
          "type": "uint256"
        }
      ],
      "name": "ERC20InsufficientAllowance",
      "type": "error"
    },
    {
      "inputs": [
        {
          "internalType": "address",
          "name": "sender",
          "type": "address"
        },
        {
          "internalType": "uint256",
          "name": "balance",
          "type": "uint256"
        },
        {
          "internalType": "uint256",
          "name": "needed",
          "type": "uint256"
        }
      ],
      "name": "ERC20InsufficientBalance",
      "type": "error"
    },
    {
      "inputs": [
        {
          "internalType": "address",
          "name": "approver",
          "type": "address"
        }
      ],
      "name": "ERC20InvalidApprover",
      "type": "error"
    },
    {
      "inputs": [
        {
          "internalType": "address",
          "name": "receiver",
          "type": "address"
        }
      ],
      "name": "ERC20InvalidReceiver",
      "type": "error"
    },
    {
      "inputs": [
        {
          "internalType": "address",
          "name": "sender",
          "type": "address"
        }
      ],
      "name": "ERC20InvalidSender",
      "type": "error"
    },
    {
      "inputs": [
        {
          "internalType": "address",
          "name": "spender",
          "type": "address"
        }
      ],
      "name": "ERC20InvalidSpender",
      "type": "error"
    },
    {
      "inputs": [],
      "name": "EnforcedPause",
      "type": "error"
    },
    {
      "inputs": [],
      "name": "ExpectedPause",
      "type": "error"
    },
    {
      "inputs": [],
      "name": "ReentrancyGuardReentrantCall",
      "type": "error"
    },
    {
      "anonymous": false,
      "inputs": [
        {
          "indexed": true,
          "internalType": "address",
          "name": "owner",
          "type": "address"
        },
        {
          "indexed": true,
          "internalType": "address",
          "name": "spender",
          "type": "address"
        },
        {
          "indexed": false,
          "internalType": "uint256",
          "name": "value",
          "type": "uint256"
        }
      ],
      "name": "Approval",
      "type": "event"
    },
    {
      "anonymous": false,
      "inputs": [
        {
          "indexed": false,
          "internalType": "uint256",
          "name": "totalAmount",
          "type": "uint256"
        },
        {
          "indexed": false,
          "internalType": "uint256",
          "name": "perTokenAmount",
          "type": "uint256"
        },
        {
          "indexed": false,
          "internalType": "uint48",
          "name": "timestamp",
          "type": "uint48"
        }
      ],
      "name": "DistributionProcessed",
      "type": "event"
    },
    {
      "anonymous": false,
      "inputs": [
        {
          "indexed": true,
          "internalType": "address",
          "name": "from",
          "type": "address"
        },
        {
          "indexed": true,
          "internalType": "address",
          "name": "to",
          "type": "address"
        },
        {
          "indexed": false,
          "internalType": "uint256",
          "name": "amount",
          "type": "uint256"
        },
        {
          "indexed": false,
          "internalType": "string",
          "name": "reason",
          "type": "string"
        }
      ],
      "name": "ForcedTransfer",
      "type": "event"
    },
    {
      "anonymous": false,
      "inputs": [
        {
          "indexed": true,
          "internalType": "address",
          "name": "investor",
          "type": "address"
        },
        {
          "indexed": true,
          "internalType": "uint256",
          "name": "usdcAmount",
          "type": "uint256"
        },
        {
          "indexed": true,
          "internalType": "uint256",
          "name": "tokens",
          "type": "uint256"
        }
      ],
      "name": "Investment",
      "type": "event"
    },
    {
      "anonymous": false,
      "inputs": [
        {
          "indexed": true,
          "internalType": "uint256",
          "name": "totalRaised",
          "type": "uint256"
        },
        {
          "indexed": true,
          "internalType": "uint256",
          "name": "totalTokens",
          "type": "uint256"
        }
      ],
      "name": "OfferingClosed",
      "type": "event"
    },
    {
      "anonymous": false,
      "inputs": [
        {
          "indexed": false,
          "internalType": "address",
          "name": "account",
          "type": "address"
        }
      ],
      "name": "Paused",
      "type": "event"
    },
    {
      "anonymous": false,
      "inputs": [
        {
          "indexed": true,
          "internalType": "bytes32",
          "name": "role",
          "type": "bytes32"
        },
        {
          "indexed": true,
          "internalType": "bytes32",
          "name": "previousAdminRole",
          "type": "bytes32"
        },
        {
          "indexed": true,
          "internalType": "bytes32",
          "name": "newAdminRole",
          "type": "bytes32"
        }
      ],
      "name": "RoleAdminChanged",
      "type": "event"
    },
    {
      "anonymous": false,
      "inputs": [
        {
          "indexed": true,
          "internalType": "bytes32",
          "name": "role",
          "type": "bytes32"
        },
        {
          "indexed": true,
          "internalType": "address",
          "name": "account",
          "type": "address"
        },
        {
          "indexed": true,
          "internalType": "address",
          "name": "sender",
          "type": "address"
        }
      ],
      "name": "RoleGranted",
      "type": "event"
    },
    {
      "anonymous": false,
      "inputs": [
        {
          "indexed": true,
          "internalType": "bytes32",
          "name": "role",
          "type": "bytes32"
        },
        {
          "indexed": true,
          "internalType": "address",
          "name": "account",
          "type": "address"
        },
        {
          "indexed": true,
          "internalType": "address",
          "name": "sender",
          "type": "address"
        }
      ],
      "name": "RoleRevoked",
      "type": "event"
    },
    {
      "anonymous": false,
      "inputs": [
        {
          "indexed": false,
          "internalType": "string",
          "name": "reason",
          "type": "string"
        }
      ],
      "name": "STOPaused",
      "type": "event"
    },
    {
      "anonymous": false,
      "inputs": [],
      "name": "STOResumed",
      "type": "event"
    },
    {
      "anonymous": false,
      "inputs": [
        {
          "indexed": true,
          "internalType": "address",
          "name": "investor",
          "type": "address"
        },
        {
          "indexed": false,
          "internalType": "uint256",
          "name": "amount",
          "type": "uint256"
        }
      ],
      "name": "TokensFrozen",
      "type": "event"
    },
    {
      "anonymous": false,
      "inputs": [
        {
          "indexed": true,
          "internalType": "address",
          "name": "lostWallet",
          "type": "address"
        },
        {
          "indexed": true,
          "internalType": "address",
          "name": "newWallet",
          "type": "address"
        },
        {
          "indexed": false,
          "internalType": "uint256",
          "name": "amount",
          "type": "uint256"
        }
      ],
      "name": "TokensRecovered",
      "type": "event"
    },
    {
      "anonymous": false,
      "inputs": [
        {
          "indexed": true,
          "internalType": "address",
          "name": "investor",
          "type": "address"
        },
        {
          "indexed": false,
          "internalType": "uint256",
          "name": "amount",
          "type": "uint256"
        }
      ],
      "name": "TokensUnfrozen",
      "type": "event"
    },
    {
      "anonymous": false,
      "inputs": [
        {
          "indexed": true,
          "internalType": "address",
          "name": "from",
          "type": "address"
        },
        {
          "indexed": true,
          "internalType": "address",
          "name": "to",
          "type": "address"
        },
        {
          "indexed": false,
          "internalType": "uint256",
          "name": "value",
          "type": "uint256"
        }
      ],
      "name": "Transfer",
      "type": "event"
    },
    {
      "anonymous": false,
      "inputs": [
        {
          "indexed": false,
          "internalType": "address",
          "name": "account",
          "type": "address"
        }
      ],
      "name": "Unpaused",
      "type": "event"
    },
    {
      "inputs": [],
      "name": "AGENT_ROLE",
      "outputs": [
        {
          "internalType": "bytes32",
          "name": "",
          "type": "bytes32"
        }
      ],
      "stateMutability": "view",
      "type": "function"
    },
    {
      "inputs": [],
      "name": "COMPLIANCE_ROLE",
      "outputs": [
        {
          "internalType": "bytes32",
          "name": "",
          "type": "bytes32"
        }
      ],
      "stateMutability": "view",
      "type": "function"
    },
    {
      "inputs": [],
      "name": "DEFAULT_ADMIN_ROLE",
      "outputs": [
        {
          "internalType": "bytes32",
          "name": "",
          "type": "bytes32"
        }
      ],
      "stateMutability": "view",
      "type": "function"
    },
    {
      "inputs": [],
      "name": "ISSUER_ROLE",
      "outputs": [
        {
          "internalType": "bytes32",
          "name": "",
          "type": "bytes32"
        }
      ],
      "stateMutability": "view",
      "type": "function"
    },
    {
      "inputs": [
        {
          "internalType": "address",
          "name": "owner",
          "type": "address"
        },
        {
          "internalType": "address",
          "name": "spender",
          "type": "address"
        }
      ],
      "name": "allowance",
      "outputs": [
        {
          "internalType": "uint256",
          "name": "",
          "type": "uint256"
        }
      ],
      "stateMutability": "view",
      "type": "function"
    },
    {
      "inputs": [
        {
          "internalType": "address",
          "name": "spender",
          "type": "address"
        },
        {
          "internalType": "uint256",
          "name": "value",
          "type": "uint256"
        }
      ],
      "name": "approve",
      "outputs": [
        {
          "internalType": "bool",
          "name": "",
          "type": "bool"
        }
      ],
      "stateMutability": "nonpayable",
      "type": "function"
    },
    {
      "inputs": [
        {
          "internalType": "address",
          "name": "account",
          "type": "address"
        }
      ],
      "name": "balanceOf",
      "outputs": [
        {
          "internalType": "uint256",
          "name": "",
          "type": "uint256"
        }
      ],
      "stateMutability": "view",
      "type": "function"
    },
    {
      "inputs": [
        {
          "internalType": "address",
          "name": "from",
          "type": "address"
        },
        {
          "internalType": "address",
          "name": "to",
          "type": "address"
        },
        {
          "internalType": "uint256",
          "name": "amount",
          "type": "uint256"
        }
      ],
      "name": "canTransfer",
      "outputs": [
        {
          "internalType": "bool",
          "name": "",
          "type": "bool"
        },
        {
          "internalType": "string",
          "name": "",
          "type": "string"
        }
      ],
      "stateMutability": "view",
      "type": "function"
    },
    {
      "inputs": [],
      "name": "claimDistribution",
      "outputs": [],
      "stateMutability": "nonpayable",
      "type": "function"
    },
    {
      "inputs": [],
      "name": "closeOffering",
      "outputs": [],
      "stateMutability": "nonpayable",
      "type": "function"
    },
    {
      "inputs": [],
      "name": "decimals",
      "outputs": [
        {
          "internalType": "uint8",
          "name": "",
          "type": "uint8"
        }
      ],
      "stateMutability": "pure",
      "type": "function"
    },
    {
      "inputs": [
        {
          "internalType": "address",
          "name": "from",
          "type": "address"
        },
        {
          "internalType": "address",
          "name": "to",
          "type": "address"
        },
        {
          "internalType": "uint256",
          "name": "amount",
          "type": "uint256"
        },
        {
          "internalType": "string",
          "name": "reason",
          "type": "string"
        }
      ],
      "name": "forcedTransfer",
      "outputs": [],
      "stateMutability": "nonpayable",
      "type": "function"
    },
    {
      "inputs": [
        {
          "internalType": "address",
          "name": "investor",
          "type": "address"
        },
        {
          "internalType": "uint256",
          "name": "amount",
          "type": "uint256"
        }
      ],
      "name": "freezeTokens",
      "outputs": [],
      "stateMutability": "nonpayable",
      "type": "function"
    },
    {
      "inputs": [
        {
          "internalType": "address",
          "name": "investor",
          "type": "address"
        }
      ],
      "name": "frozenBalance",
      "outputs": [
        {
          "internalType": "uint256",
          "name": "",
          "type": "uint256"
        }
      ],
      "stateMutability": "view",
      "type": "function"
    },
    {
      "inputs": [],
      "name": "getConfig",
      "outputs": [
        {
          "components": [
            {
              "internalType": "string",
              "name": "name",
              "type": "string"
            },
            {
              "internalType": "string",
              "name": "symbol",
              "type": "string"
            },
            {
              "internalType": "string",
              "name": "assetType",
              "type": "string"
            },
            {
              "internalType": "uint256",
              "name": "targetRaise",
              "type": "uint256"
            },
            {
              "internalType": "uint256",
              "name": "tokenPrice",
              "type": "uint256"
            },
            {
              "internalType": "uint256",
              "name": "maxSupply",
              "type": "uint256"
            },
            {
              "internalType": "uint256",
              "name": "minInvestment",
              "type": "uint256"
            },
            {
              "internalType": "uint16[]",
              "name": "allowedCountries",
              "type": "uint16[]"
            },
            {
              "internalType": "uint48",
              "name": "closingDate",
              "type": "uint48"
            },
            {
              "internalType": "address",
              "name": "issuer",
              "type": "address"
            },
            {
              "internalType": "address",
              "name": "treasury",
              "type": "address"
            },
            {
              "internalType": "uint16",
              "name": "feeBps",
              "type": "uint16"
            }
          ],
          "internalType": "struct ISecurityToken.STOConfig",
          "name": "",
          "type": "tuple"
        }
      ],
      "stateMutability": "view",
      "type": "function"
    },
    {
      "inputs": [
        {
          "internalType": "bytes32",
          "name": "role",
          "type": "bytes32"
        }
      ],
      "name": "getRoleAdmin",
      "outputs": [
        {
          "internalType": "bytes32",
          "name": "",
          "type": "bytes32"
        }
      ],
      "stateMutability": "view",
      "type": "function"
    },
    {
      "inputs": [
        {
          "internalType": "bytes32",
          "name": "role",
          "type": "bytes32"
        },
        {
          "internalType": "address",
          "name": "account",
          "type": "address"
        }
      ],
      "name": "grantRole",
      "outputs": [],
      "stateMutability": "nonpayable",
      "type": "function"
    },
    {
      "inputs": [
        {
          "internalType": "bytes32",
          "name": "role",
          "type": "bytes32"
        },
        {
          "internalType": "address",
          "name": "account",
          "type": "address"
        }
      ],
      "name": "hasRole",
      "outputs": [
        {
          "internalType": "bool",
          "name": "",
          "type": "bool"
        }
      ],
      "stateMutability": "view",
      "type": "function"
    },
    {
      "inputs": [],
      "name": "identityRegistry",
      "outputs": [
        {
          "internalType": "contract IIdentityRegistry",
          "name": "",
          "type": "address"
        }
      ],
      "stateMutability": "view",
      "type": "function"
    },
    {
      "inputs": [
        {
          "internalType": "address",
          "name": "investor",
          "type": "address"
        },
        {
          "internalType": "uint256",
          "name": "usdcAmount",
          "type": "uint256"
        }
      ],
      "name": "invest",
      "outputs": [],
      "stateMutability": "nonpayable",
      "type": "function"
    },
    {
      "inputs": [],
      "name": "investorCount",
      "outputs": [
        {
          "internalType": "uint256",
          "name": "",
          "type": "uint256"
        }
      ],
      "stateMutability": "view",
      "type": "function"
    },
    {
      "inputs": [
        {
          "internalType": "address",
          "name": "investor",
          "type": "address"
        }
      ],
      "name": "isFrozen",
      "outputs": [
        {
          "internalType": "bool",
          "name": "",
          "type": "bool"
        }
      ],
      "stateMutability": "view",
      "type": "function"
    },
    {
      "inputs": [],
      "name": "name",
      "outputs": [
        {
          "internalType": "string",
          "name": "",
          "type": "string"
        }
      ],
      "stateMutability": "view",
      "type": "function"
    },
    {
      "inputs": [],
      "name": "offeringClosed",
      "outputs": [
        {
          "internalType": "bool",
          "name": "",
          "type": "bool"
        }
      ],
      "stateMutability": "view",
      "type": "function"
    },
    {
      "inputs": [
        {
          "internalType": "string",
          "name": "reason",
          "type": "string"
        }
      ],
      "name": "pause",
      "outputs": [],
      "stateMutability": "nonpayable",
      "type": "function"
    },
    {
      "inputs": [],
      "name": "pauseReason",
      "outputs": [
        {
          "internalType": "string",
          "name": "",
          "type": "string"
        }
      ],
      "stateMutability": "view",
      "type": "function"
    },
    {
      "inputs": [],
      "name": "paused",
      "outputs": [
        {
          "internalType": "bool",
          "name": "",
          "type": "bool"
        }
      ],
      "stateMutability": "view",
      "type": "function"
    },
    {
      "inputs": [
        {
          "internalType": "address",
          "name": "investor",
          "type": "address"
        }
      ],
      "name": "pendingDistribution",
      "outputs": [
        {
          "internalType": "uint256",
          "name": "",
          "type": "uint256"
        }
      ],
      "stateMutability": "view",
      "type": "function"
    },
    {
      "inputs": [
        {
          "internalType": "uint256",
          "name": "totalUSDC",
          "type": "uint256"
        }
      ],
      "name": "processDistribution",
      "outputs": [],
      "stateMutability": "nonpayable",
      "type": "function"
    },
    {
      "inputs": [
        {
          "internalType": "address",
          "name": "lostWallet",
          "type": "address"
        },
        {
          "internalType": "address",
          "name": "newWallet",
          "type": "address"
        }
      ],
      "name": "recoverTokens",
      "outputs": [],
      "stateMutability": "nonpayable",
      "type": "function"
    },
    {
      "inputs": [
        {
          "internalType": "bytes32",
          "name": "role",
          "type": "bytes32"
        },
        {
          "internalType": "address",
          "name": "callerConfirmation",
          "type": "address"
        }
      ],
      "name": "renounceRole",
      "outputs": [],
      "stateMutability": "nonpayable",
      "type": "function"
    },
    {
      "inputs": [
        {
          "internalType": "bytes32",
          "name": "role",
          "type": "bytes32"
        },
        {
          "internalType": "address",
          "name": "account",
          "type": "address"
        }
      ],
      "name": "revokeRole",
      "outputs": [],
      "stateMutability": "nonpayable",
      "type": "function"
    },
    {
      "inputs": [
        {
          "internalType": "bytes4",
          "name": "interfaceId",
          "type": "bytes4"
        }
      ],
      "name": "supportsInterface",
      "outputs": [
        {
          "internalType": "bool",
          "name": "",
          "type": "bool"
        }
      ],
      "stateMutability": "view",
      "type": "function"
    },
    {
      "inputs": [],
      "name": "symbol",
      "outputs": [
        {
          "internalType": "string",
          "name": "",
          "type": "string"
        }
      ],
      "stateMutability": "view",
      "type": "function"
    },
    {
      "inputs": [],
      "name": "totalRaised",
      "outputs": [
        {
          "internalType": "uint256",
          "name": "",
          "type": "uint256"
        }
      ],
      "stateMutability": "view",
      "type": "function"
    },
    {
      "inputs": [],
      "name": "totalSupply",
      "outputs": [
        {
          "internalType": "uint256",
          "name": "",
          "type": "uint256"
        }
      ],
      "stateMutability": "view",
      "type": "function"
    },
    {
      "inputs": [
        {
          "internalType": "address",
          "name": "to",
          "type": "address"
        },
        {
          "internalType": "uint256",
          "name": "value",
          "type": "uint256"
        }
      ],
      "name": "transfer",
      "outputs": [
        {
          "internalType": "bool",
          "name": "",
          "type": "bool"
        }
      ],
      "stateMutability": "nonpayable",
      "type": "function"
    },
    {
      "inputs": [
        {
          "internalType": "address",
          "name": "from",
          "type": "address"
        },
        {
          "internalType": "address",
          "name": "to",
          "type": "address"
        },
        {
          "internalType": "uint256",
          "name": "value",
          "type": "uint256"
        }
      ],
      "name": "transferFrom",
      "outputs": [
        {
          "internalType": "bool",
          "name": "",
          "type": "bool"
        }
      ],
      "stateMutability": "nonpayable",
      "type": "function"
    },
    {
      "inputs": [
        {
          "internalType": "address",
          "name": "investor",
          "type": "address"
        },
        {
          "internalType": "uint256",
          "name": "amount",
          "type": "uint256"
        }
      ],
      "name": "unfreezeTokens",
      "outputs": [],
      "stateMutability": "nonpayable",
      "type": "function"
    },
    {
      "inputs": [],
      "name": "unpause",
      "outputs": [],
      "stateMutability": "nonpayable",
      "type": "function"
    },
    {
      "inputs": [],
      "name": "usdc",
      "outputs": [
        {
          "internalType": "contract IERC20",
          "name": "",
          "type": "address"
        }
      ],
      "stateMutability": "view",
      "type": "function"
    }
  ],
  "bytecode": "0x60c06040523462000ba85762003c7c803803806200001d8162000bcb565b92833981019060a08183031262000ba85780516001600160401b03811162000ba857610180928382840182031262000ba8576040519384016001600160401b03811185821017620006fd57604052828201516001600160401b03811162000ba857816200008e918486010162000bf1565b8452828201602001516001600160401b03811162000ba85781620000b6918486010162000bf1565b6020850152828201604001516001600160401b03811162000ba85781620000e1918486010162000bf1565b6040850152828201606081810151908601526080808201519086015260a0808201519086015260c0808201519086015260e001516001600160401b03811162000ba85781601f828587010101121562000ba857838301810151916001600160401b038311620006fd578260051b60206200015d81830162000bcb565b80958152019160208285888a010101011162000ba857906020838688010101915b60208185888a01010101831062000bad575050505060e0840152610100818301015165ffffffffffff8116810362000ba857620001f69161016091610100860152620001d06101208286010162000c73565b610120860152620001e76101408286010162000c73565b61014086015283010162000c63565b6101608301526200020a6020820162000c73565b91620002196040830162000c73565b906200023660806200022e6060860162000c73565b940162000c73565b81516020830151815190916001600160401b038211620006fd5760035490600182811c9216801562000b9d575b6020831014620007e75781601f84931162000b4a575b50602090601f831160011462000abb5760009262000aaf575b50508160011b916000199060031b1c1916176003555b8051906001600160401b038211620006fd5760045490600182811c9216801562000aa4575b6020831014620007e75781601f84931162000a51575b50602090601f8311600114620009c257600092620009b6575b50508160011b916000199060031b1c1916176004555b600160075581518051906001600160401b038211620006fd5760085490600182811c92168015620009ab575b6020831014620007e75781601f84931162000969575b50602090601f8311600114620008eb57600092620008df575b50508160011b916000199060031b1c1916176008555b60208201518051906001600160401b038211620006fd5760095490600182811c92168015620008d4575b6020831014620007e75781601f84931162000892575b50602090601f8311600114620008145760009262000808575b50508160011b916000199060031b1c1916176009555b60408201518051906001600160401b038211620006fd57600a5490600182811c92168015620007fd575b6020831014620007e75781601f84931162000799575b50602090601f83116001146200071f5760009262000713575b50508160011b916000199060031b1c191617600a555b6060820151600b556080820151600c5560a0820151600d5560c0820151600e5560e082015180519095906001600160401b038111620006fd57680100000000000000008111620006fd576020600f978854838a55808410620006a9575b50019660005260206000209060005b8160041c8110620006655750600f19811680820362000600575b61010086015160108054610120898101516001600160d01b031990921665ffffffffffff949094169390931760309190911b600160301b600160d01b0316179055610140870151601180546101608a01516001600160b01b03199091166001600160a01b039384161760a091821b61ffff60a01b1617909155818716608052818a169052620005ac918a91620005a5918a6200059b8b620005888762000ca1565b50620005948762000d22565b5062000d22565b5001511662000dc5565b5062000e63565b50604051612cfa908162000f028239608051818181610be701528181611ec3015281816120c5015281816126140152612913015260a051818181610c87015281816114ea015281816118880152611b820152f35b9760009860005b8184038110620006305750505060041c0195909555620005ac946200059b82620005a5620004e7565b90919960206200065a60019261ffff8e51169085851b60031b9161ffff809116831b921b19161790565b9b0192910162000607565b6000805b6010811062000680575083820155600101620004cd565b8a51909a9160019160209161ffff60048f901b81811b199092169216901b1792019a0162000669565b620006db908a600052836000208b80870160041c820192601e8860011b1680620006e2575b500160041c019062000c88565b38620004be565b60001990818601918254918a0360031b1c16905538620006ce565b634e487b7160e01b600052604160045260246000fd5b0151905038806200044b565b600a600090815260008051602062003c1c8339815191529350601f198516905b81811062000780575090846001959493921062000766575b505050811b01600a5562000461565b015160001960f88460031b161c1916905538808062000757565b929360206001819287860151815501950193016200073f565b600a600052620007d59060008051602062003c1c833981519152601f850160051c81019160208610620007dc575b601f0160051c019062000c88565b3862000432565b9091508190620007c7565b634e487b7160e01b600052602260045260246000fd5b91607f16916200041c565b015190503880620003dc565b60096000908152935060008051602062003c5c83398151915291905b601f198416851062000876576001945083601f198116106200085c575b505050811b01600955620003f2565b015160001960f88460031b161c191690553880806200084d565b8181015183556020948501946001909301929091019062000830565b6009600052620008cd9060008051602062003c5c833981519152601f850160051c81019160208610620007dc57601f0160051c019062000c88565b38620003c3565b91607f1691620003ad565b0151905038806200036d565b60086000908152935060008051602062003c3c83398151915291905b601f19841685106200094d576001945083601f1981161062000933575b505050811b0160085562000383565b015160001960f88460031b161c1916905538808062000924565b8181015183556020948501946001909301929091019062000907565b6008600052620009a49060008051602062003c3c833981519152601f850160051c81019160208610620007dc57601f0160051c019062000c88565b3862000354565b91607f16916200033e565b015190503880620002fc565b6004600090815293507f8a35acfbc15ff81a39ae7d344fd709f28e8600b4aa8c65c6b64bfe7fe36bd19b91905b601f198416851062000a35576001945083601f1981161062000a1b575b505050811b0160045562000312565b015160001960f88460031b161c1916905538808062000a0c565b81810151835560209485019460019093019290910190620009ef565b600460005262000a9d907f8a35acfbc15ff81a39ae7d344fd709f28e8600b4aa8c65c6b64bfe7fe36bd19b601f850160051c81019160208610620007dc57601f0160051c019062000c88565b38620002e3565b91607f1691620002cd565b01519050388062000292565b6003600090815293507fc2575a0e9e593c00f959f8c92f12db2869c3395a3b0502d05e2516446f71f85b91905b601f198416851062000b2e576001945083601f1981161062000b14575b505050811b01600355620002a8565b015160001960f88460031b161c1916905538808062000b05565b8181015183556020948501946001909301929091019062000ae8565b600360005262000b96907fc2575a0e9e593c00f959f8c92f12db2869c3395a3b0502d05e2516446f71f85b601f850160051c81019160208610620007dc57601f0160051c019062000c88565b3862000279565b91607f169162000263565b600080fd5b602080809362000bbd8662000c63565b81520193019291506200017e565b6040519190601f01601f191682016001600160401b03811183821017620006fd57604052565b919080601f8401121562000ba85782516001600160401b038111620006fd5760209062000c27601f8201601f1916830162000bcb565b9281845282828701011162000ba85760005b81811062000c4f57508260009394955001015290565b858101830151848201840152820162000c39565b519061ffff8216820362000ba857565b51906001600160a01b038216820362000ba857565b81811062000c94575050565b6000815560010162000c88565b6001600160a01b031660008181527f54cdd369e4e8a8515e52ca72ec816c2101831ad1f18bf44102ed171459c9b4f8602052604081205490919060ff1662000d1e5781805260066020526040822081835260205260408220600160ff19825416179055339160008051602062003bfc8339815191528180a4600190565b5090565b6001600160a01b031660008181527f84103e4942d70d0389ab910bdcdf181c3e028bc1897fe6797bb191ac79d8088260205260408120549091907f442a94f1a1fac79af32856af2a64f63648cfa2ef3b98610a5bb7cbec4cee69859060ff1662000dc05780835260066020526040832082845260205260408320600160ff1982541617905560008051602062003bfc833981519152339380a4600190565b505090565b6001600160a01b031660008181527f702fe919a6a7971e34c596917a48306a624527a41d0aa0fcf43050b6a305324860205260408120549091907f114e74f6ea3bd819998f78687bfcb11b140da08e9b7d222fa9c1f1ba1f2aa1229060ff1662000dc05780835260066020526040832082845260205260408320600160ff1982541617905560008051602062003bfc833981519152339380a4600190565b6001600160a01b031660008181527f4448119502453e295a09f7d4e8a6a0575d3624c233f99f59abf0835bf259780a60205260408120549091907fcab5a0bfe0b79d2c4b1c2e02599fa044d115b7511f9659307cb42769509677099060ff1662000dc05780835260066020526040832082845260205260408320600160ff1982541617905560008051602062003bfc833981519152339380a460019056fe6080806040526004908136101561001557600080fd5b60003560e01c90816301ffc9a7146122b35750806304caa6dd14612222578063056097ac1461206d578063062d3bd71461204457806306fdde0314611f92578063095ea7b314611ef2578063134e18f414611ead57806318160ddd14611e8f57806322459e1814611e6657806323b872dd14611d8c578063248a9ca314611d5e578063266565a914611d245780632f2ff15d14611ce5578063313ce56714611cc957806336568abe14611c855780633ad8b2d714611bb15780633e413bee14611b6c5780633f4ba83a14611a365780633f89797e14611830578063559d3d4b1461180d5780635c975abb146117ea5780636da663551461162857806370a08231146115ee57806382aefa24146115c5578063884a41be1461147457806391d148541461142757806395d89b411461135d578063985ffec0146112e0578063a217fddf146112c4578063a4df6c6a14611230578063a9059cbb146111ff578063ab7294f014611167578063b9b8c24614610b1c578063c3f909d4146103f6578063c5c4744c146103d8578063d547741f14610397578063d7e64c0014610379578063dd62ed3e14610328578063e46638e6146102ee578063e5839836146102b25763e9b2f0ad146101e457600080fd5b346102ad5760403660031901126102ad576101fd6123ef565b60243590610209612759565b60018060a01b031691826000526014602052816040600020541061026f575060207f9bed35cb62ad0dba04f9d5bfee4b5bc91443e77da8a65c4c84834c51bb08b0d691836000526014825260406000206102648282546125a7565b9055604051908152a2005b60649060206040519162461bcd60e51b8352820152601760248201527629aa1d1034b739bab33334b1b4b2b73a10333937bd32b760491b6044820152fd5b600080fd5b346102ad5760203660031901126102ad576001600160a01b036102d36123ef565b16600052601460205260206040600020541515604051908152f35b346102ad576103056102ff3661241b565b916125ce565b90610324604051928392151583526040602084015260408301906123af565b0390f35b346102ad5760403660031901126102ad576103416123ef565b610349612405565b9060018060a01b038091166000526001602052604060002091166000526020526020604060002054604051908152f35b346102ad5760003660031901126102ad576020601754604051908152f35b50346102ad5760403660031901126102ad576103d690356103b6612405565b908060005260066020526103d160016040600020015461280b565b612b6c565b005b346102ad5760003660031901126102ad576020601854604051908152f35b346102ad5760003660031901126102ad5760006101606040516104188161233f565b6060815260606020820152606060408201528260608201528260808201528260a08201528260c0820152606060e0820152826101008201528261012082015282610140820152015260405161046c8161233f565b60405160085481600061047e83612305565b8083529260018116908115610afd5750600114610a9d575b6104a29250038261238c565b81526040516009548160006104b683612305565b8083529260018116908115610a7e5750600114610a1e575b6104da9250038261238c565b6020820152604051600a548160006104f183612305565b80835292600181169081156109ff575060011461099f575b6105159250038261238c565b6040820152600b546060820152600c546080820152600d5460a0820152600e5460c082015260405180816020600f549283815201600f6000526020600020926000905b80600f8301106108b7576105ee9454918181106108a2575b81811061088a575b818110610873575b81811061085b575b818110610843575b81811061082b575b818110610813575b8181106107fb575b8181106107e3575b8181106107cb575b8181106107b3575b81811061079b575b818110610783575b81811061076b575b818110610753575b10610745575b50038261238c565b60e082015260105465ffffffffffff811661010083015260018060a01b039060301c1661012082015261ffff60115460018060a01b03811661014084015260a01c166101608201526040516020815261068761067161065b845161018060208601526101a08501906123af565b6020850151848203601f190160408601526123af565b6040840151838203601f190160608501526123af565b60608301516080830152608083015160a083015260a083015160c083015260c083015160e083015260e083015190601f19838203016101008401526020808351928381520192019060005b81811061072b5750505061ffff6101608465ffffffffffff610100869701511661012086015260018060a01b036101208201511661014086015260018060a01b0361014082015116828601520151166101808301520390f35b825161ffff168452602093840193909201916001016106d2565b60f01c8152602001856105e6565b92602060019161ffff8560e01c1681520193016105e0565b92602060019161ffff8560d01c1681520193016105d8565b92602060019161ffff8560c01c1681520193016105d0565b92602060019161ffff8560b01c1681520193016105c8565b92602060019161ffff8560a01c1681520193016105c0565b92602060019161ffff8560901c1681520193016105b8565b92602060019161ffff8560801c1681520193016105b0565b92602060019161ffff8560701c1681520193016105a8565b92602060019161ffff8560601c1681520193016105a0565b92602060019161ffff8560501c168152019301610598565b92602060019161ffff8560401c168152019301610590565b92602060019161ffff8560301c168152019301610588565b92602060019161ffff85831c168152019301610580565b92602060019161ffff8560101c168152019301610578565b92602060019161ffff85168152019301610570565b916010919350610200600191865461ffff8116825261ffff81861c16602083015261ffff8160201c16604083015261ffff8160301c16606083015261ffff8160401c16608083015261ffff8160501c1660a083015261ffff8160601c1660c083015261ffff8160701c1660e083015261ffff8160801c1661010083015261ffff8160901c1661012083015261ffff8160a01c1661014083015261ffff8160b01c1661016083015261ffff8160c01c1661018083015261ffff8160d01c166101a083015261ffff8160e01c166101c083015260f01c6101e0820152019401920184929391610558565b50600a600090815290917fc65a7bb8d6351c1cf70c95a316cc6a92839c986682d98bc35f958f4883f9d2a85b8183106109e357505090602061051592820101610509565b60209193508060019154838588010152019101909183926109cb565b6020925061051594915060ff191682840152151560051b820101610509565b506009600090815290917f6e1540171b6c0c960b71a7020d9f60077f6af931a8bbf590da0223dacf75c7af5b818310610a625750509060206104da928201016104ce565b6020919350806001915483858801015201910190918392610a4a565b602092506104da94915060ff191682840152151560051b8201016104ce565b506008600090815290917ff3f7a9fe364faab93b216da50a3214154f22a0a2b415b23a84c8169e8b636ee35b818310610ae15750509060206104a292820101610496565b6020919350806001915483858801015201910190918392610ac9565b602092506104a294915060ff191682840152151560051b820101610496565b50346102ad5760403660031901126102ad57610b366123ef565b3360009081527f4448119502453e295a09f7d4e8a6a0575d3624c233f99f59abf0835bf259780a60209081526040909120549092602480359392600080516020612c458339815191529060ff161561114b5750610b91612c06565b610b99612be3565b60ff601254166111125765ffffffffffff6010541642116110d857604051636c85cf6760e01b81526000838201526001600160a01b03848116838301819052909690949091604490838183817f00000000000000000000000000000000000000000000000000000000000000008d165afa908115610f33576000916110bb575b501561107e57670de0b6b3a764000080880290888204148815171561106a57600c54610c449161256c565b97600e54891061102957610c5a89600254612495565b600d5410610fee57612710610c7861ffff60115460a01c168a612559565b04610c83818a6125a7565b91807f00000000000000000000000000000000000000000000000000000000000000001691610ccb878c8b60405193849283926323b872dd60e01b8452309033908501612537565b03816000885af1908115610f3357600091610fd1575b5015610f985790610d0f878a94938360115416604051938492839263a9059cbb60e01b998a8552840161258c565b03816000875af1908115610f3357600091610f7b575b5015610f3f579088600088949360105460301c1693610d50604051978896879586948552840161258c565b03925af1908115610f3357600091610f06575b5015610ec65750610d7390612831565b8315610eaf57610d81612c06565b610d8d86600254612495565b60025583600052600081526040600020868154019055836000600080516020612c85833981519152836040518a8152a3610dc985601854612495565b60185583600052601581526040600020805460ff811615610e14575b8787877f8514357b17ccbde354811f827b94585a7ab01b4034aa86a807b7cc2c100b7be8600080a46001600755005b60ff1916600117905560165490600160401b821015610e9b576001820180601655821015610e875760166000908152200180546001600160a01b03191684179055601754916000198314610e745750506001016017553880808080610de5565b601190634e487b7160e01b600052526000fd5b82603285634e487b7160e01b600052526000fd5b82604185634e487b7160e01b600052526000fd5b509060006040519163ec442f0560e01b8352820152fd5b847b14d50e881c1c9bd8d959591cc81d1c985b9cd9995c8819985a5b195960221b606492601c87876040519562461bcd60e51b8752860152840152820152fd5b610f269150843d8611610f2c575b610f1e818361238c565b81019061247d565b38610d63565b503d610f14565b6040513d6000823e3d90fd5b60405162461bcd60e51b8152808a018890526017818a01527614d50e88199959481d1c985b9cd9995c8819985a5b1959604a1b81870152606490fd5b610f929150883d8a11610f2c57610f1e818361238c565b38610d25565b60405162461bcd60e51b8152808a018890526014818a01527314d50e881554d110c81c1d5b1b0819985a5b195960621b81870152606490fd5b610fe89150883d8a11610f2c57610f1e818361238c565b38610ce1565b60405162461bcd60e51b81528087018590526016818701527553543a2065786365656473206d617820737570706c7960501b81840152606490fd5b60405162461bcd60e51b8152808701859052601c818701527b14d50e8818995b1bddc81b5a5b9a5b5d5b481a5b9d995cdd1b595b9d60221b81840152606490fd5b84601187634e487b7160e01b600052526000fd5b847814d50e881a5b9d995cdd1bdc881b9bdd081d995c9a599a5959603a1b606492601987876040519562461bcd60e51b8752860152840152820152fd5b6110d29150843d8611610f2c57610f1e818361238c565b38610c19565b60405162461bcd60e51b81529182018590526014908201527314d50e881bd999995c9a5b99c8195e1c1a5c995960621b6044820152606490fd5b60405162461bcd60e51b81529182018590526013908201527214d50e881bd999995c9a5b99c818db1bdcd959606a1b6044820152606490fd5b604492916040519263e2517d3f60e01b84523390840152820152fd5b50346102ad5760003660031901126102ad576111816127c1565b6012549060ff82166111c65760ff198216600117601255601854600254907fc566557ce4cb9ae8e7b1ebb1215c266fb3ef7b87e5a726107e9188fd256423fb600080a3005b60649060206040519162461bcd60e51b8352820152601260248201527114d50e88185b1c9958591e4818db1bdcd95960721b6044820152fd5b346102ad5760403660031901126102ad5761122561121b6123ef565b60243590336128c9565b602060405160018152f35b346102ad5760403660031901126102ad576112496123ef565b7fa065e63c631c86f1b9f66a4a2f63f2093bf1c2168d23290259dbd969e0222a45602060243592611278612759565b60018060a01b03169283600052600082526112ac604060002054601484526112a583604060002054612495565b11156124b8565b83600052601482526040600020610264828254612495565b346102ad5760003660031901126102ad57602060405160008152f35b346102ad5760203660031901126102ad5760206113556112fe6123ef565b670de0b6b3a764000061134161132e6019549360018060a01b03169384600052601a8752604060002054906125a7565b8360005260008652604060002054612559565b0490600052601b8352604060002054612495565b604051908152f35b50346102ad5760003660031901126102ad576040519060008282549161138283612305565b92838352602094600191866001821691826000146114055750506001146113c6575b50506113b29250038361238c565b6103246040519282849384528301906123af565b85925060005281600020906000915b8583106113ed5750506113b2935082010138806113a4565b805483890185015287945086939092019181016113d5565b92509350506113b294915060ff191682840152151560051b82010138806113a4565b50346102ad5760403660031901126102ad57611441612405565b9035600052600660205260406000209060018060a01b0316600052602052602060ff604060002054166040519015158152f35b50346102ad5760003660031901126102ad5761148e612be3565b611496612c06565b61149f33612831565b33600052602090601b8252604060002054801561158b57826114e49133600052601b8252600060408120556040518093819263a9059cbb60e01b83523387840161258c565b038160007f00000000000000000000000000000000000000000000000000000000000000006001600160a01b03165af1908115610f335760009161156e575b5015611530576001600755005b6064916040519162461bcd60e51b8352820152601960248201527814d50e8818db185a5b481d1c985b9cd9995c8819985a5b1959603a1b6044820152fd5b6115859150833d8511610f2c57610f1e818361238c565b38611523565b506064916040519162461bcd60e51b8352820152601460248201527353543a206e6f7468696e6720746f20636c61696d60601b6044820152fd5b346102ad5760003660031901126102ad576020604051600080516020612c658339815191528152f35b346102ad5760203660031901126102ad576001600160a01b0361160f6123ef565b1660005260006020526020604060002054604051908152f35b50346102ad57602090816003193601126102ad576001600160401b039181358381116102ad5761165b9036908401612450565b929093611666612759565b83116117d55750611678601354612305565b601f8111611799575b506000601f831160011461172057600080516020612ca5833981519152938361171092600091611715575b508460011b906000198660031b1c1916176013555b6116c9612c06565b600160ff1960055416176005557f62e78cea01bee320cd4e420270b5ea74000d11b0c9f74754ebdbfc544b05a25883604051338152a16040519383859485528401916124ff565b0390a1005b9050810135386116ac565b601f198316906013600052826000209160005b818110611782575091600080516020612ca58339815191529591856117109410611768575b5050600184811b016013556116c1565b820135600019600387901b60f8161c191690553880611758565b91928460018192868a013581550194019201611733565b6117c590601360005282600020601f850160051c8101918486106117cb575b601f0160051c0190612520565b38611681565b90915081906117b8565b604190634e487b7160e01b6000525260246000fd5b346102ad5760003660031901126102ad57602060ff600554166040519015158152f35b346102ad5760003660031901126102ad57602060ff601254166040519015158152f35b50346102ad576020806003193601126102ad5781359161184e6127c1565b611856612be3565b600254156119f85782156119be576040516323b872dd60e01b8152828180611882873033888501612537565b038160007f00000000000000000000000000000000000000000000000000000000000000006001600160a01b03165af1908115610f33576000916119a1575b501561196457670de0b6b3a7640000830290670de0b6b3a763ffff198483040161194f577f34fed24cebff9f2f4a855b41130e3120797d67a70a0695599980f6e8321576056060858561192f866002549061192761191f838361256c565b601954612495565b60195561256c565b9060405192835282015265ffffffffffff42166040820152a16001600755005b601190634e487b7160e01b6000525260246000fd5b6064916040519162461bcd60e51b8352820152601860248201527714d50e881554d110c81d1c985b9cd9995c8819985a5b195960421b6044820152fd5b6119b89150833d8511610f2c57610f1e818361238c565b386118c1565b6064916040519162461bcd60e51b8352820152601560248201527429aa1d103d32b937903234b9ba3934b13aba34b7b760591b6044820152fd5b6064916040519162461bcd60e51b8352820152601960248201527853543a206e6f20746f6b656e73206f75747374616e64696e6760381b6044820152fd5b50346102ad5760003660031901126102ad573360009081527f54cdd369e4e8a8515e52ca72ec816c2101831ad1f18bf44102ed171459c9b4f8602052604090205460ff1615611b4d57611a8a601354612305565b601f8111611b0e575b5060006013556005549060ff821615611aff575060ff19166005557f5db9ee0a495bf2e6ff9c91a7834c1ba4fdd244a5e8aa4e537bd38aeae4b073aa6020604051338152a17f3cd348ff56b5e60ffb00b5cc262c0dff28e4741cdf0375413cd4ab8fe440e6aa600080a1005b604051638dfc202b60e01b8152fd5b6013600052611b4790601f0160051c7f66de8ffda797e3de9c05e8fc57b3bf0ec28a930d40b0d285d93c06501cf6a09090810190612520565b38611a93565b6044906040519063e2517d3f60e01b8252339082015260006024820152fd5b346102ad5760003660031901126102ad576040517f00000000000000000000000000000000000000000000000000000000000000006001600160a01b03168152602090f35b50346102ad5760803660031901126102ad57611bcb6123ef565b611bd3612405565b60643592906044356001600160401b0385116102ad57611c1a7fbb53097141337c38a36fed7fae913304cd0c540e1200dbb4c8c1cee707f9f2c293611c8096369101612450565b9590611c24612759565b60018060a01b03611c658486838a16998a6000526000602052611c4e8360406000205410156124b8565b611c5781612831565b611c6082612831565b6128c9565b604051948594855260406020860152169660408401916124ff565b0390a3005b50346102ad5760403660031901126102ad57611c9f612405565b336001600160a01b03821603611cb9576103d69135612b6c565b5060405163334bd91960e11b8152fd5b346102ad5760003660031901126102ad57602060405160128152f35b50346102ad5760403660031901126102ad576103d69035611d04612405565b90806000526006602052611d1f60016040600020015461280b565b612aec565b346102ad5760203660031901126102ad576001600160a01b03611d456123ef565b1660005260146020526020604060002054604051908152f35b50346102ad5760203660031901126102ad573560005260066020526020600160406000200154604051908152f35b50346102ad57611d9b3661241b565b9160018060a01b038116806000526001602052604060002033600052602052604060002054946000198610611dd7575b505061122593506128c9565b848610611e43578115611e2b573315611e1357506112259484916000526001602052604060002033600052602052036040600020553880611dcb565b602490600060405191634a1406b160e11b8352820152fd5b60249060006040519163e602df0560e01b8352820152fd5b8590611e6286604051938493637dc7a0d960e11b855233908501612ace565b0390fd5b346102ad5760003660031901126102ad576020604051600080516020612c458339815191528152f35b346102ad5760003660031901126102ad576020600254604051908152f35b346102ad5760003660031901126102ad576040517f00000000000000000000000000000000000000000000000000000000000000006001600160a01b03168152602090f35b50346102ad5760403660031901126102ad57611f0c6123ef565b602435903315611f7a576001600160a01b0316918215611e135750336000526001602052604060002082600052602052806040600020556040519081527f8c5be1e5ebec7d5bd14f71427d1e84f3dd0314c0f7b2291e5b200ac8c7c3b92560203392a3602060405160018152f35b60405163e602df0560e01b8152600081850152602490fd5b346102ad5760003660031901126102ad57604051600354600082611fb583612305565b9182825260209360019085600182169182600014612024575050600114611fe4575b506113b29250038361238c565b849150600360005281600020906000915b85831061200c5750506113b2935082010185611fd7565b80548389018501528794508693909201918101611ff5565b60ff1916858201526113b295151560051b8501019250879150611fd79050565b346102ad5760003660031901126102ad576020604051600080516020612c258339815191528152f35b50346102ad5760403660031901126102ad576120876123ef565b61208f612405565b612097612759565b60405163b9209e3360e01b81526001600160a01b0382811682860181905294602093909290919084816024817f000000000000000000000000000000000000000000000000000000000000000086165afa908115610f3357600091612205575b50156121c35784169384600052600084526040600020549283156121845750827f401f439d865a766757ec78675925bd67198d5e78805aa41691b34b5d6a6cbbe694939282611c5761214894612831565b83600052601b82526040600020548560005261216a6040600020918254612495565b905583600052601b825260006040812055604051908152a3005b60405162461bcd60e51b8152908101859052601860248201527729aa1d103737903a37b5b2b739903a37903932b1b7bb32b960411b6044820152606490fd5b60405162461bcd60e51b8152808401859052601b60248201527a14d50e881b995dc81dd85b1b195d081b9bdd081d995c9a599a5959602a1b6044820152606490fd5b61221c9150853d8711610f2c57610f1e818361238c565b386120f7565b346102ad5760003660031901126102ad5760405160135460008261224583612305565b918282526020936001908560018216918260001461202457505060011461227357506113b29250038361238c565b849150601360005281600020906000915b85831061229b5750506113b2935082010185611fd7565b80548389018501528794508693909201918101612284565b82346102ad5760203660031901126102ad57359063ffffffff60e01b82168092036102ad57602091637965db0b60e01b81149081156122f4575b5015158152f35b6301ffc9a760e01b149050836122ed565b90600182811c92168015612335575b602083101461231f57565b634e487b7160e01b600052602260045260246000fd5b91607f1691612314565b61018081019081106001600160401b0382111761235b57604052565b634e487b7160e01b600052604160045260246000fd5b604081019081106001600160401b0382111761235b57604052565b601f909101601f19168101906001600160401b0382119082101761235b57604052565b919082519283825260005b8481106123db575050826000602080949584010152601f8019910116010190565b6020818301810151848301820152016123ba565b600435906001600160a01b03821682036102ad57565b602435906001600160a01b03821682036102ad57565b60609060031901126102ad576001600160a01b039060043582811681036102ad579160243590811681036102ad579060443590565b9181601f840112156102ad578235916001600160401b0383116102ad57602083818601950101116102ad57565b908160209103126102ad575180151581036102ad5790565b919082018092116124a257565b634e487b7160e01b600052601160045260246000fd5b156124bf57565b60405162461bcd60e51b815260206004820152601860248201527753543a20696e73756666696369656e742062616c616e636560401b6044820152606490fd5b908060209392818452848401376000828201840152601f01601f1916010190565b81811061252b575050565b60008155600101612520565b6001600160a01b03918216815291166020820152604081019190915260600190565b818102929181159184041417156124a257565b8115612576570490565b634e487b7160e01b600052601260045260246000fd5b6001600160a01b039091168152602081019190915260400190565b919082039182116124a257565b6001600160a01b0391821681529116602082015260400190565b9291909260ff6005541661272a5760408051636c85cf6760e01b81529094602093926001600160a01b0392909185908290819061260f9086600484016125b4565b0381867f0000000000000000000000000000000000000000000000000000000000000000165afa90811561271f57600091612702575b50156126cc57166000526000825261266a8460002054601484528560002054906125a7565b1061269357825160019390918201906001600160401b0382118383101761235b57526000815290565b7f496e73756666696369656e7420756e66726f7a656e2062616c616e636500000060009351916126c283612371565b601d835282015290565b5050507610dbdb5c1b1a585b98d94818da1958dac819985a5b1959604a1b60009351916126f883612371565b6017835282015290565b6127199150853d8711610f2c57610f1e818361238c565b38612645565b87513d6000823e3d90fd5b50506040516000925061273c81612371565b600d81526c14d513c81a5cc81c185d5cd959609a1b602082015290565b3360009081527f84103e4942d70d0389ab910bdcdf181c3e028bc1897fe6797bb191ac79d808826020526040902054600080516020612c258339815191529060ff16156127a35750565b6044906040519063e2517d3f60e01b82523360048301526024820152fd5b3360009081527f702fe919a6a7971e34c596917a48306a624527a41d0aa0fcf43050b6a30532486020526040902054600080516020612c658339815191529060ff16156127a35750565b80600052600660205260406000203360005260205260ff60406000205416156127a35750565b6019546001600160a01b039091166000818152601a6020526040808220549293909261285c916125a7565b801515806128b6575b61287a575b50601954928152601a6020522055565b612897670de0b6b3a7640000918584528360205284842054612559565b04838252601b6020526128ae838320918254612495565b90553861286a565b5083825281602052828220541515612865565b92916001600160a01b0391828516918215612ab557838216938415612a9c5760408051636c85cf6760e01b8152602094919285908290818061290f878f600484016125b4565b03917f0000000000000000000000000000000000000000000000000000000000000000165afa908115612a9157600091612a74575b5015612a335784600052600084528261296a8360002054601487528460002054906125a7565b106129f3576129819061297c89612831565b612831565b612989612c06565b83600052600083528060002054968288106129d657508184959697600080516020612c858339815191529560005260008552038160002055856000528060002082815401905551908152a3565b611e628389935193849363391434e360e21b855260048501612ace565b815162461bcd60e51b815260048101859052601960248201527829aa1d1034b739bab33334b1b4b2b73a103ab7333937bd32b760391b6044820152606490fd5b815162461bcd60e51b815260048101859052601a60248201527914d50e881d1c985b9cd9995c881b9bdd0818dbdb5c1b1a585b9d60321b6044820152606490fd5b612a8b9150853d8711610f2c57610f1e818361238c565b38612944565b83513d6000823e3d90fd5b60405163ec442f0560e01b815260006004820152602490fd5b604051634b637e8f60e11b815260006004820152602490fd5b604091949392606082019560018060a01b0316825260208201520152565b906000918083526006602052604083209160018060a01b03169182845260205260ff60408420541615600014612b675780835260066020526040832082845260205260408320600160ff198254161790557f2f8788117e7eff1d82e926ec794901d17c78024a50270940304540a733656f0d339380a4600190565b505090565b906000918083526006602052604083209160018060a01b03169182845260205260ff604084205416600014612b67578083526006602052604083208284526020526040832060ff1981541690557ff6391f5c32d9c69d2a47ea670b442974b53935d1edc7fd64eb21e047a839171b339380a4600190565b600260075414612bf4576002600755565b604051633ee5aeb560e01b8152600490fd5b60ff60055416612c1257565b60405163d93c066560e01b8152600490fdfe442a94f1a1fac79af32856af2a64f63648cfa2ef3b98610a5bb7cbec4cee6985cab5a0bfe0b79d2c4b1c2e02599fa044d115b7511f9659307cb4276950967709114e74f6ea3bd819998f78687bfcb11b140da08e9b7d222fa9c1f1ba1f2aa122ddf252ad1be2c89b69c2b068fc378daa952ba7f163c4a11628f55a4df523b3ef5ae146d76690e2b2fbd484f0af43653eb5fb3983df5b239a0a30422d030a7fa7a26469706673582212203d1302e732c78063485374ee0229649a7a829ce89d1467cf84279ebb6dfae0ed64736f6c634300081800332f8788117e7eff1d82e926ec794901d17c78024a50270940304540a733656f0dc65a7bb8d6351c1cf70c95a316cc6a92839c986682d98bc35f958f4883f9d2a8f3f7a9fe364faab93b216da50a3214154f22a0a2b415b23a84c8169e8b636ee36e1540171b6c0c960b71a7020d9f60077f6af931a8bbf590da0223dacf75c7af",
  "linkReferences": {},
  "deployedLinkReferences": {}
}