{
  "_format": "hh-sol-artifact-1",
  "contractName": "IssuraSecurityToken",
  "sourceName": "contracts/tokens/IssuraSecurityToken.sol",
  "abi": [
    {
      "inputs": [
        {
          "components": [
            {
              "internalType": "string",
              "name": "name",
              "type": "string"
            },
            {
              "internalType": "string",
              "name": "symbol",
              "type": "string"
            },
            {
              "internalType": "string",
              "name": "assetType",
              "type": "string"
            },
            {
              "internalType": "uint256",
              "name": "targetRaise",
              "type": "uint256"
            },
            {
              "internalType": "uint256",
              "name": "tokenPrice",
              "type": "uint256"
            },
            {
              "internalType": "uint256",
              "name": "maxSupply",
              "type": "uint256"
            },
            {
              "internalType": "uint256",
              "name": "minInvestment",
              "type": "uint256"
            },
            {
              "internalType": "uint16[]",
              "name": "allowedCountries",
              "type": "uint16[]"
            },
            {
              "internalType": "uint48",
              "name": "closingDate",
              "type": "uint48"
            },
            {
              "internalType": "address",
              "name": "issuer",
              "type": "address"
            },
            {
              "internalType": "address",
              "name": "treasury",
              "type": "address"
            },
            {
              "internalType": "uint16",
              "name": "feeBps",
              "type": "uint16"
            }
          ],
          "internalType": "struct ISecurityToken.STOConfig",
          "name": "config",
          "type": "tuple"
        },
        {
          "internalType": "address",
          "name": "identityRegistry_",
          "type": "address"
        },
        {
          "internalType": "address",
          "name": "usdc_",
          "type": "address"
        },
        {
          "internalType": "address",
          "name": "admin",
          "type": "address"
        },
        {
          "internalType": "address",
          "name": "complianceOfficer",
          "type": "address"
        }
      ],
      "stateMutability": "nonpayable",
      "type": "constructor"
    },
    {
      "inputs": [],
      "name": "AccessControlBadConfirmation",
      "type": "error"
    },
    {
      "inputs": [
        {
          "internalType": "address",
          "name": "account",
          "type": "address"
        },
        {
          "internalType": "bytes32",
          "name": "neededRole",
          "type": "bytes32"
        }
      ],
      "name": "AccessControlUnauthorizedAccount",
      "type": "error"
    },
    {
      "inputs": [
        {
          "internalType": "address",
          "name": "spender",
          "type": "address"
        },
        {
          "internalType": "uint256",
          "name": "allowance",
          "type": "uint256"
        },
        {
          "internalType": "uint256",
          "name": "needed",
          "type": "uint256"
        }
      ],
      "name": "ERC20InsufficientAllowance",
      "type": "error"
    },
    {
      "inputs": [
        {
          "internalType": "address",
          "name": "sender",
          "type": "address"
        },
        {
          "internalType": "uint256",
          "name": "balance",
          "type": "uint256"
        },
        {
          "internalType": "uint256",
          "name": "needed",
          "type": "uint256"
        }
      ],
      "name": "ERC20InsufficientBalance",
      "type": "error"
    },
    {
      "inputs": [
        {
          "internalType": "address",
          "name": "approver",
          "type": "address"
        }
      ],
      "name": "ERC20InvalidApprover",
      "type": "error"
    },
    {
      "inputs": [
        {
          "internalType": "address",
          "name": "receiver",
          "type": "address"
        }
      ],
      "name": "ERC20InvalidReceiver",
      "type": "error"
    },
    {
      "inputs": [
        {
          "internalType": "address",
          "name": "sender",
          "type": "address"
        }
      ],
      "name": "ERC20InvalidSender",
      "type": "error"
    },
    {
      "inputs": [
        {
          "internalType": "address",
          "name": "spender",
          "type": "address"
        }
      ],
      "name": "ERC20InvalidSpender",
      "type": "error"
    },
    {
      "inputs": [],
      "name": "EnforcedPause",
      "type": "error"
    },
    {
      "inputs": [],
      "name": "ExpectedPause",
      "type": "error"
    },
    {
      "inputs": [],
      "name": "ReentrancyGuardReentrantCall",
      "type": "error"
    },
    {
      "anonymous": false,
      "inputs": [
        {
          "indexed": true,
          "internalType": "address",
          "name": "owner",
          "type": "address"
        },
        {
          "indexed": true,
          "internalType": "address",
          "name": "spender",
          "type": "address"
        },
        {
          "indexed": false,
          "internalType": "uint256",
          "name": "value",
          "type": "uint256"
        }
      ],
      "name": "Approval",
      "type": "event"
    },
    {
      "anonymous": false,
      "inputs": [
        {
          "indexed": false,
          "internalType": "uint256",
          "name": "totalAmount",
          "type": "uint256"
        },
        {
          "indexed": false,
          "internalType": "uint256",
          "name": "perTokenAmount",
          "type": "uint256"
        },
        {
          "indexed": false,
          "internalType": "uint48",
          "name": "timestamp",
          "type": "uint48"
        }
      ],
      "name": "DistributionProcessed",
      "type": "event"
    },
    {
      "anonymous": false,
      "inputs": [
        {
          "indexed": true,
          "internalType": "address",
          "name": "from",
          "type": "address"
        },
        {
          "indexed": true,
          "internalType": "address",
          "name": "to",
          "type": "address"
        },
        {
          "indexed": false,
          "internalType": "uint256",
          "name": "amount",
          "type": "uint256"
        },
        {
          "indexed": false,
          "internalType": "string",
          "name": "reason",
          "type": "string"
        }
      ],
      "name": "ForcedTransfer",
      "type": "event"
    },
    {
      "anonymous": false,
      "inputs": [
        {
          "indexed": true,
          "internalType": "address",
          "name": "investor",
          "type": "address"
        },
        {
          "indexed": true,
          "internalType": "uint256",
          "name": "usdcAmount",
          "type": "uint256"
        },
        {
          "indexed": false,
          "internalType": "uint256",
          "name": "tokens",
          "type": "uint256"
        }
      ],
      "name": "Investment",
      "type": "event"
    },
    {
      "anonymous": false,
      "inputs": [
        {
          "indexed": false,
          "internalType": "uint256",
          "name": "totalRaised",
          "type": "uint256"
        },
        {
          "indexed": false,
          "internalType": "uint256",
          "name": "totalTokens",
          "type": "uint256"
        }
      ],
      "name": "OfferingClosed",
      "type": "event"
    },
    {
      "anonymous": false,
      "inputs": [
        {
          "indexed": false,
          "internalType": "address",
          "name": "account",
          "type": "address"
        }
      ],
      "name": "Paused",
      "type": "event"
    },
    {
      "anonymous": false,
      "inputs": [
        {
          "indexed": true,
          "internalType": "bytes32",
          "name": "role",
          "type": "bytes32"
        },
        {
          "indexed": true,
          "internalType": "bytes32",
          "name": "previousAdminRole",
          "type": "bytes32"
        },
        {
          "indexed": true,
          "internalType": "bytes32",
          "name": "newAdminRole",
          "type": "bytes32"
        }
      ],
      "name": "RoleAdminChanged",
      "type": "event"
    },
    {
      "anonymous": false,
      "inputs": [
        {
          "indexed": true,
          "internalType": "bytes32",
          "name": "role",
          "type": "bytes32"
        },
        {
          "indexed": true,
          "internalType": "address",
          "name": "account",
          "type": "address"
        },
        {
          "indexed": true,
          "internalType": "address",
          "name": "sender",
          "type": "address"
        }
      ],
      "name": "RoleGranted",
      "type": "event"
    },
    {
      "anonymous": false,
      "inputs": [
        {
          "indexed": true,
          "internalType": "bytes32",
          "name": "role",
          "type": "bytes32"
        },
        {
          "indexed": true,
          "internalType": "address",
          "name": "account",
          "type": "address"
        },
        {
          "indexed": true,
          "internalType": "address",
          "name": "sender",
          "type": "address"
        }
      ],
      "name": "RoleRevoked",
      "type": "event"
    },
    {
      "anonymous": false,
      "inputs": [
        {
          "indexed": false,
          "internalType": "string",
          "name": "reason",
          "type": "string"
        }
      ],
      "name": "STOPaused",
      "type": "event"
    },
    {
      "anonymous": false,
      "inputs": [],
      "name": "STOResumed",
      "type": "event"
    },
    {
      "anonymous": false,
      "inputs": [
        {
          "indexed": true,
          "internalType": "address",
          "name": "investor",
          "type": "address"
        },
        {
          "indexed": false,
          "internalType": "uint256",
          "name": "amount",
          "type": "uint256"
        }
      ],
      "name": "TokensFrozen",
      "type": "event"
    },
    {
      "anonymous": false,
      "inputs": [
        {
          "indexed": true,
          "internalType": "address",
          "name": "lostWallet",
          "type": "address"
        },
        {
          "indexed": true,
          "internalType": "address",
          "name": "newWallet",
          "type": "address"
        },
        {
          "indexed": false,
          "internalType": "uint256",
          "name": "amount",
          "type": "uint256"
        }
      ],
      "name": "TokensRecovered",
      "type": "event"
    },
    {
      "anonymous": false,
      "inputs": [
        {
          "indexed": true,
          "internalType": "address",
          "name": "investor",
          "type": "address"
        },
        {
          "indexed": false,
          "internalType": "uint256",
          "name": "amount",
          "type": "uint256"
        }
      ],
      "name": "TokensUnfrozen",
      "type": "event"
    },
    {
      "anonymous": false,
      "inputs": [
        {
          "indexed": true,
          "internalType": "address",
          "name": "from",
          "type": "address"
        },
        {
          "indexed": true,
          "internalType": "address",
          "name": "to",
          "type": "address"
        },
        {
          "indexed": false,
          "internalType": "uint256",
          "name": "value",
          "type": "uint256"
        }
      ],
      "name": "Transfer",
      "type": "event"
    },
    {
      "anonymous": false,
      "inputs": [
        {
          "indexed": false,
          "internalType": "address",
          "name": "account",
          "type": "address"
        }
      ],
      "name": "Unpaused",
      "type": "event"
    },
    {
      "inputs": [],
      "name": "AGENT_ROLE",
      "outputs": [
        {
          "internalType": "bytes32",
          "name": "",
          "type": "bytes32"
        }
      ],
      "stateMutability": "view",
      "type": "function"
    },
    {
      "inputs": [],
      "name": "COMPLIANCE_ROLE",
      "outputs": [
        {
          "internalType": "bytes32",
          "name": "",
          "type": "bytes32"
        }
      ],
      "stateMutability": "view",
      "type": "function"
    },
    {
      "inputs": [],
      "name": "DEFAULT_ADMIN_ROLE",
      "outputs": [
        {
          "internalType": "bytes32",
          "name": "",
          "type": "bytes32"
        }
      ],
      "stateMutability": "view",
      "type": "function"
    },
    {
      "inputs": [],
      "name": "ISSUER_ROLE",
      "outputs": [
        {
          "internalType": "bytes32",
          "name": "",
          "type": "bytes32"
        }
      ],
      "stateMutability": "view",
      "type": "function"
    },
    {
      "inputs": [
        {
          "internalType": "address",
          "name": "owner",
          "type": "address"
        },
        {
          "internalType": "address",
          "name": "spender",
          "type": "address"
        }
      ],
      "name": "allowance",
      "outputs": [
        {
          "internalType": "uint256",
          "name": "",
          "type": "uint256"
        }
      ],
      "stateMutability": "view",
      "type": "function"
    },
    {
      "inputs": [
        {
          "internalType": "address",
          "name": "spender",
          "type": "address"
        },
        {
          "internalType": "uint256",
          "name": "value",
          "type": "uint256"
        }
      ],
      "name": "approve",
      "outputs": [
        {
          "internalType": "bool",
          "name": "",
          "type": "bool"
        }
      ],
      "stateMutability": "nonpayable",
      "type": "function"
    },
    {
      "inputs": [
        {
          "internalType": "address",
          "name": "account",
          "type": "address"
        }
      ],
      "name": "balanceOf",
      "outputs": [
        {
          "internalType": "uint256",
          "name": "",
          "type": "uint256"
        }
      ],
      "stateMutability": "view",
      "type": "function"
    },
    {
      "inputs": [
        {
          "internalType": "address",
          "name": "from",
          "type": "address"
        },
        {
          "internalType": "address",
          "name": "to",
          "type": "address"
        },
        {
          "internalType": "uint256",
          "name": "amount",
          "type": "uint256"
        }
      ],
      "name": "canTransfer",
      "outputs": [
        {
          "internalType": "bool",
          "name": "",
          "type": "bool"
        },
        {
          "internalType": "string",
          "name": "",
          "type": "string"
        }
      ],
      "stateMutability": "view",
      "type": "function"
    },
    {
      "inputs": [],
      "name": "claimDistribution",
      "outputs": [],
      "stateMutability": "nonpayable",
      "type": "function"
    },
    {
      "inputs": [],
      "name": "closeOffering",
      "outputs": [],
      "stateMutability": "nonpayable",
      "type": "function"
    },
    {
      "inputs": [],
      "name": "decimals",
      "outputs": [
        {
          "internalType": "uint8",
          "name": "",
          "type": "uint8"
        }
      ],
      "stateMutability": "pure",
      "type": "function"
    },
    {
      "inputs": [
        {
          "internalType": "address",
          "name": "from",
          "type": "address"
        },
        {
          "internalType": "address",
          "name": "to",
          "type": "address"
        },
        {
          "internalType": "uint256",
          "name": "amount",
          "type": "uint256"
        },
        {
          "internalType": "string",
          "name": "reason",
          "type": "string"
        }
      ],
      "name": "forcedTransfer",
      "outputs": [],
      "stateMutability": "nonpayable",
      "type": "function"
    },
    {
      "inputs": [
        {
          "internalType": "address",
          "name": "investor",
          "type": "address"
        },
        {
          "internalType": "uint256",
          "name": "amount",
          "type": "uint256"
        }
      ],
      "name": "freezeTokens",
      "outputs": [],
      "stateMutability": "nonpayable",
      "type": "function"
    },
    {
      "inputs": [
        {
          "internalType": "address",
          "name": "investor",
          "type": "address"
        }
      ],
      "name": "frozenBalance",
      "outputs": [
        {
          "internalType": "uint256",
          "name": "",
          "type": "uint256"
        }
      ],
      "stateMutability": "view",
      "type": "function"
    },
    {
      "inputs": [],
      "name": "getConfig",
      "outputs": [
        {
          "components": [
            {
              "internalType": "string",
              "name": "name",
              "type": "string"
            },
            {
              "internalType": "string",
              "name": "symbol",
              "type": "string"
            },
            {
              "internalType": "string",
              "name": "assetType",
              "type": "string"
            },
            {
              "internalType": "uint256",
              "name": "targetRaise",
              "type": "uint256"
            },
            {
              "internalType": "uint256",
              "name": "tokenPrice",
              "type": "uint256"
            },
            {
              "internalType": "uint256",
              "name": "maxSupply",
              "type": "uint256"
            },
            {
              "internalType": "uint256",
              "name": "minInvestment",
              "type": "uint256"
            },
            {
              "internalType": "uint16[]",
              "name": "allowedCountries",
              "type": "uint16[]"
            },
            {
              "internalType": "uint48",
              "name": "closingDate",
              "type": "uint48"
            },
            {
              "internalType": "address",
              "name": "issuer",
              "type": "address"
            },
            {
              "internalType": "address",
              "name": "treasury",
              "type": "address"
            },
            {
              "internalType": "uint16",
              "name": "feeBps",
              "type": "uint16"
            }
          ],
          "internalType": "struct ISecurityToken.STOConfig",
          "name": "",
          "type": "tuple"
        }
      ],
      "stateMutability": "view",
      "type": "function"
    },
    {
      "inputs": [
        {
          "internalType": "bytes32",
          "name": "role",
          "type": "bytes32"
        }
      ],
      "name": "getRoleAdmin",
      "outputs": [
        {
          "internalType": "bytes32",
          "name": "",
          "type": "bytes32"
        }
      ],
      "stateMutability": "view",
      "type": "function"
    },
    {
      "inputs": [
        {
          "internalType": "bytes32",
          "name": "role",
          "type": "bytes32"
        },
        {
          "internalType": "address",
          "name": "account",
          "type": "address"
        }
      ],
      "name": "grantRole",
      "outputs": [],
      "stateMutability": "nonpayable",
      "type": "function"
    },
    {
      "inputs": [
        {
          "internalType": "bytes32",
          "name": "role",
          "type": "bytes32"
        },
        {
          "internalType": "address",
          "name": "account",
          "type": "address"
        }
      ],
      "name": "hasRole",
      "outputs": [
        {
          "internalType": "bool",
          "name": "",
          "type": "bool"
        }
      ],
      "stateMutability": "view",
      "type": "function"
    },
    {
      "inputs": [],
      "name": "identityRegistry",
      "outputs": [
        {
          "internalType": "contract IIdentityRegistry",
          "name": "",
          "type": "address"
        }
      ],
      "stateMutability": "view",
      "type": "function"
    },
    {
      "inputs": [
        {
          "internalType": "address",
          "name": "investor",
          "type": "address"
        },
        {
          "internalType": "uint256",
          "name": "usdcAmount",
          "type": "uint256"
        }
      ],
      "name": "invest",
      "outputs": [],
      "stateMutability": "nonpayable",
      "type": "function"
    },
    {
      "inputs": [],
      "name": "investorCount",
      "outputs": [
        {
          "internalType": "uint256",
          "name": "",
          "type": "uint256"
        }
      ],
      "stateMutability": "view",
      "type": "function"
    },
    {
      "inputs": [
        {
          "internalType": "address",
          "name": "investor",
          "type": "address"
        }
      ],
      "name": "isFrozen",
      "outputs": [
        {
          "internalType": "bool",
          "name": "",
          "type": "bool"
        }
      ],
      "stateMutability": "view",
      "type": "function"
    },
    {
      "inputs": [],
      "name": "name",
      "outputs": [
        {
          "internalType": "string",
          "name": "",
          "type": "string"
        }
      ],
      "stateMutability": "view",
      "type": "function"
    },
    {
      "inputs": [],
      "name": "offeringClosed",
      "outputs": [
        {
          "internalType": "bool",
          "name": "",
          "type": "bool"
        }
      ],
      "stateMutability": "view",
      "type": "function"
    },
    {
      "inputs": [
        {
          "internalType": "string",
          "name": "reason",
          "type": "string"
        }
      ],
      "name": "pause",
      "outputs": [],
      "stateMutability": "nonpayable",
      "type": "function"
    },
    {
      "inputs": [],
      "name": "pauseReason",
      "outputs": [
        {
          "internalType": "string",
          "name": "",
          "type": "string"
        }
      ],
      "stateMutability": "view",
      "type": "function"
    },
    {
      "inputs": [],
      "name": "paused",
      "outputs": [
        {
          "internalType": "bool",
          "name": "",
          "type": "bool"
        }
      ],
      "stateMutability": "view",
      "type": "function"
    },
    {
      "inputs": [
        {
          "internalType": "address",
          "name": "investor",
          "type": "address"
        }
      ],
      "name": "pendingDistribution",
      "outputs": [
        {
          "internalType": "uint256",
          "name": "",
          "type": "uint256"
        }
      ],
      "stateMutability": "view",
      "type": "function"
    },
    {
      "inputs": [
        {
          "internalType": "uint256",
          "name": "totalUSDC",
          "type": "uint256"
        }
      ],
      "name": "processDistribution",
      "outputs": [],
      "stateMutability": "nonpayable",
      "type": "function"
    },
    {
      "inputs": [
        {
          "internalType": "address",
          "name": "lostWallet",
          "type": "address"
        },
        {
          "internalType": "address",
          "name": "newWallet",
          "type": "address"
        }
      ],
      "name": "recoverTokens",
      "outputs": [],
      "stateMutability": "nonpayable",
      "type": "function"
    },
    {
      "inputs": [
        {
          "internalType": "bytes32",
          "name": "role",
          "type": "bytes32"
        },
        {
          "internalType": "address",
          "name": "callerConfirmation",
          "type": "address"
        }
      ],
      "name": "renounceRole",
      "outputs": [],
      "stateMutability": "nonpayable",
      "type": "function"
    },
    {
      "inputs": [
        {
          "internalType": "bytes32",
          "name": "role",
          "type": "bytes32"
        },
        {
          "internalType": "address",
          "name": "account",
          "type": "address"
        }
      ],
      "name": "revokeRole",
      "outputs": [],
      "stateMutability": "nonpayable",
      "type": "function"
    },
    {
      "inputs": [
        {
          "internalType": "bytes4",
          "name": "interfaceId",
          "type": "bytes4"
        }
      ],
      "name": "supportsInterface",
      "outputs": [
        {
          "internalType": "bool",
          "name": "",
          "type": "bool"
        }
      ],
      "stateMutability": "view",
      "type": "function"
    },
    {
      "inputs": [],
      "name": "symbol",
      "outputs": [
        {
          "internalType": "string",
          "name": "",
          "type": "string"
        }
      ],
      "stateMutability": "view",
      "type": "function"
    },
    {
      "inputs": [],
      "name": "totalRaised",
      "outputs": [
        {
          "internalType": "uint256",
          "name": "",
          "type": "uint256"
        }
      ],
      "stateMutability": "view",
      "type": "function"
    },
    {
      "inputs": [],
      "name": "totalSupply",
      "outputs": [
        {
          "internalType": "uint256",
          "name": "",
          "type": "uint256"
        }
      ],
      "stateMutability": "view",
      "type": "function"
    },
    {
      "inputs": [
        {
          "internalType": "address",
          "name": "to",
          "type": "address"
        },
        {
          "internalType": "uint256",
          "name": "value",
          "type": "uint256"
        }
      ],
      "name": "transfer",
      "outputs": [
        {
          "internalType": "bool",
          "name": "",
          "type": "bool"
        }
      ],
      "stateMutability": "nonpayable",
      "type": "function"
    },
    {
      "inputs": [
        {
          "internalType": "address",
          "name": "from",
          "type": "address"
        },
        {
          "internalType": "address",
          "name": "to",
          "type": "address"
        },
        {
          "internalType": "uint256",
          "name": "value",
          "type": "uint256"
        }
      ],
      "name": "transferFrom",
      "outputs": [
        {
          "internalType": "bool",
          "name": "",
          "type": "bool"
        }
      ],
      "stateMutability": "nonpayable",
      "type": "function"
    },
    {
      "inputs": [
        {
          "internalType": "address",
          "name": "investor",
          "type": "address"
        },
        {
          "internalType": "uint256",
          "name": "amount",
          "type": "uint256"
        }
      ],
      "name": "unfreezeTokens",
      "outputs": [],
      "stateMutability": "nonpayable",
      "type": "function"
    },
    {
      "inputs": [],
      "name": "unpause",
      "outputs": [],
      "stateMutability": "nonpayable",
      "type": "function"
    },
    {
      "inputs": [],
      "name": "usdc",
      "outputs": [
        {
          "internalType": "contract IERC20",
          "name": "",
          "type": "address"
        }
      ],
      "stateMutability": "view",
      "type": "function"
    }
  ],
  "bytecode": "0x60c06040523462000ba85762003d88803803806200001d8162000bcb565b92833981019060a08183031262000ba85780516001600160401b03811162000ba857610180928382840182031262000ba8576040519384016001600160401b03811185821017620006fd57604052828201516001600160401b03811162000ba857816200008e918486010162000bf1565b8452828201602001516001600160401b03811162000ba85781620000b6918486010162000bf1565b6020850152828201604001516001600160401b03811162000ba85781620000e1918486010162000bf1565b6040850152828201606081810151908601526080808201519086015260a0808201519086015260c0808201519086015260e001516001600160401b03811162000ba85781601f828587010101121562000ba857838301810151916001600160401b038311620006fd578260051b60206200015d81830162000bcb565b80958152019160208285888a010101011162000ba857906020838688010101915b60208185888a01010101831062000bad575050505060e0840152610100818301015165ffffffffffff8116810362000ba857620001f69161016091610100860152620001d06101208286010162000c73565b610120860152620001e76101408286010162000c73565b61014086015283010162000c63565b6101608301526200020a6020820162000c73565b91620002196040830162000c73565b906200023660806200022e6060860162000c73565b940162000c73565b81516020830151815190916001600160401b038211620006fd5760035490600182811c9216801562000b9d575b6020831014620007e75781601f84931162000b4a575b50602090601f831160011462000abb5760009262000aaf575b50508160011b916000199060031b1c1916176003555b8051906001600160401b038211620006fd5760045490600182811c9216801562000aa4575b6020831014620007e75781601f84931162000a51575b50602090601f8311600114620009c257600092620009b6575b50508160011b916000199060031b1c1916176004555b600160075581518051906001600160401b038211620006fd5760085490600182811c92168015620009ab575b6020831014620007e75781601f84931162000969575b50602090601f8311600114620008eb57600092620008df575b50508160011b916000199060031b1c1916176008555b60208201518051906001600160401b038211620006fd5760095490600182811c92168015620008d4575b6020831014620007e75781601f84931162000892575b50602090601f8311600114620008145760009262000808575b50508160011b916000199060031b1c1916176009555b60408201518051906001600160401b038211620006fd57600a5490600182811c92168015620007fd575b6020831014620007e75781601f84931162000799575b50602090601f83116001146200071f5760009262000713575b50508160011b916000199060031b1c191617600a555b6060820151600b556080820151600c5560a0820151600d5560c0820151600e5560e082015180519095906001600160401b038111620006fd57680100000000000000008111620006fd576020600f978854838a55808410620006a9575b50019660005260206000209060005b8160041c8110620006655750600f19811680820362000600575b61010086015160108054610120898101516001600160d01b031990921665ffffffffffff949094169390931760309190911b600160301b600160d01b0316179055610140870151601180546101608a01516001600160b01b03199091166001600160a01b039384161760a091821b61ffff60a01b1617909155818716608052818a169052620005ac918a91620005a5918a6200059b8b620005888762000ca1565b50620005948762000d22565b5062000d22565b5001511662000dc5565b5062000e63565b50604051612e06908162000f028239608051818181610c1b01528181612036015281816122670152818161275e0152612a92015260a051818181610cdc015281816115d6015281816119dd0152611cd90152f35b9760009860005b8184038110620006305750505060041c0195909555620005ac946200059b82620005a5620004e7565b90919960206200065a60019261ffff8e51169085851b60031b9161ffff809116831b921b19161790565b9b0192910162000607565b6000805b6010811062000680575083820155600101620004cd565b8a51909a9160019160209161ffff60048f901b81811b199092169216901b1792019a0162000669565b620006db908a600052836000208b80870160041c820192601e8860011b1680620006e2575b500160041c019062000c88565b38620004be565b60001990818601918254918a0360031b1c16905538620006ce565b634e487b7160e01b600052604160045260246000fd5b0151905038806200044b565b600a600090815260008051602062003d288339815191529350601f198516905b81811062000780575090846001959493921062000766575b505050811b01600a5562000461565b015160001960f88460031b161c1916905538808062000757565b929360206001819287860151815501950193016200073f565b600a600052620007d59060008051602062003d28833981519152601f850160051c81019160208610620007dc575b601f0160051c019062000c88565b3862000432565b9091508190620007c7565b634e487b7160e01b600052602260045260246000fd5b91607f16916200041c565b015190503880620003dc565b60096000908152935060008051602062003d6883398151915291905b601f198416851062000876576001945083601f198116106200085c575b505050811b01600955620003f2565b015160001960f88460031b161c191690553880806200084d565b8181015183556020948501946001909301929091019062000830565b6009600052620008cd9060008051602062003d68833981519152601f850160051c81019160208610620007dc57601f0160051c019062000c88565b38620003c3565b91607f1691620003ad565b0151905038806200036d565b60086000908152935060008051602062003d4883398151915291905b601f19841685106200094d576001945083601f1981161062000933575b505050811b0160085562000383565b015160001960f88460031b161c1916905538808062000924565b8181015183556020948501946001909301929091019062000907565b6008600052620009a49060008051602062003d48833981519152601f850160051c81019160208610620007dc57601f0160051c019062000c88565b3862000354565b91607f16916200033e565b015190503880620002fc565b6004600090815293507f8a35acfbc15ff81a39ae7d344fd709f28e8600b4aa8c65c6b64bfe7fe36bd19b91905b601f198416851062000a35576001945083601f1981161062000a1b575b505050811b0160045562000312565b015160001960f88460031b161c1916905538808062000a0c565b81810151835560209485019460019093019290910190620009ef565b600460005262000a9d907f8a35acfbc15ff81a39ae7d344fd709f28e8600b4aa8c65c6b64bfe7fe36bd19b601f850160051c81019160208610620007dc57601f0160051c019062000c88565b38620002e3565b91607f1691620002cd565b01519050388062000292565b6003600090815293507fc2575a0e9e593c00f959f8c92f12db2869c3395a3b0502d05e2516446f71f85b91905b601f198416851062000b2e576001945083601f1981161062000b14575b505050811b01600355620002a8565b015160001960f88460031b161c1916905538808062000b05565b8181015183556020948501946001909301929091019062000ae8565b600360005262000b96907fc2575a0e9e593c00f959f8c92f12db2869c3395a3b0502d05e2516446f71f85b601f850160051c81019160208610620007dc57601f0160051c019062000c88565b3862000279565b91607f169162000263565b600080fd5b602080809362000bbd8662000c63565b81520193019291506200017e565b6040519190601f01601f191682016001600160401b03811183821017620006fd57604052565b919080601f8401121562000ba85782516001600160401b038111620006fd5760209062000c27601f8201601f1916830162000bcb565b9281845282828701011162000ba85760005b81811062000c4f57508260009394955001015290565b858101830151848201840152820162000c39565b519061ffff8216820362000ba857565b51906001600160a01b038216820362000ba857565b81811062000c94575050565b6000815560010162000c88565b6001600160a01b031660008181527f54cdd369e4e8a8515e52ca72ec816c2101831ad1f18bf44102ed171459c9b4f8602052604081205490919060ff1662000d1e5781805260066020526040822081835260205260408220600160ff19825416179055339160008051602062003d088339815191528180a4600190565b5090565b6001600160a01b031660008181527f84103e4942d70d0389ab910bdcdf181c3e028bc1897fe6797bb191ac79d8088260205260408120549091907f442a94f1a1fac79af32856af2a64f63648cfa2ef3b98610a5bb7cbec4cee69859060ff1662000dc05780835260066020526040832082845260205260408320600160ff1982541617905560008051602062003d08833981519152339380a4600190565b505090565b6001600160a01b031660008181527f702fe919a6a7971e34c596917a48306a624527a41d0aa0fcf43050b6a305324860205260408120549091907f114e74f6ea3bd819998f78687bfcb11b140da08e9b7d222fa9c1f1ba1f2aa1229060ff1662000dc05780835260066020526040832082845260205260408320600160ff1982541617905560008051602062003d08833981519152339380a4600190565b6001600160a01b031660008181527f4448119502453e295a09f7d4e8a6a0575d3624c233f99f59abf0835bf259780a60205260408120549091907fcab5a0bfe0b79d2c4b1c2e02599fa044d115b7511f9659307cb42769509677099060ff1662000dc05780835260066020526040832082845260205260408320600160ff1982541617905560008051602062003d08833981519152339380a460019056fe6080806040526004908136101561001557600080fd5b60003560e01c90816301ffc9a7146124675750806304caa6dd146123cb578063056097ac1461220f578063062d3bd7146121d457806306fdde0314612105578063095ea7b314612065578063134e18f41461202057806318160ddd1461200257806322459e1814611fc757806323b872dd14611ee4578063248a9ca314611eb6578063266565a914611e7c5780632f2ff15d14611e3d578063313ce56714611e2157806336568abe14611ddd5780633ad8b2d714611d085780633e413bee14611cc35780633f4ba83a14611b945780633f89797e14611978578063559d3d4b146119555780635c975abb146119325780636da663551461172a57806370a08231146116f057806382aefa24146116b5578063884a41be1461155a57806391d148541461150d57806395d89b4114611426578063985ffec0146113a9578063a217fddf1461138d578063a4df6c6a146112f9578063a9059cbb146112c8578063ab7294f014611228578063b9b8c24614610b41578063c3f909d4146103fc578063c5c4744c146103de578063d547741f1461039d578063d7e64c001461037f578063dd62ed3e1461032e578063e46638e6146102f4578063e5839836146102b85763e9b2f0ad146101e457600080fd5b346102b35760403660031901126102b3576101fd6125a4565b602435906102096128aa565b60018060a01b031691826000526014602052816040600020541061026f575060207f9bed35cb62ad0dba04f9d5bfee4b5bc91443e77da8a65c4c84834c51bb08b0d6918360005260148252604060002061026482825461270e565b9055604051908152a2005b60649060206040519162461bcd60e51b8352820152601760248201527f53543a20696e73756666696369656e742066726f7a656e0000000000000000006044820152fd5b600080fd5b346102b35760203660031901126102b3576001600160a01b036102d96125a4565b16600052601460205260206040600020541515604051908152f35b346102b35761030b610305366125d0565b9161271b565b9061032a60405192839215158352604060208401526040830190612564565b0390f35b346102b35760403660031901126102b3576103476125a4565b61034f6125ba565b9060018060a01b038091166000526001602052604060002091166000526020526020604060002054604051908152f35b346102b35760003660031901126102b3576020601754604051908152f35b50346102b35760403660031901126102b3576103dc90356103bc6125ba565b908060005260066020526103d7600160406000200154612980565b612cf8565b005b346102b35760003660031901126102b3576020601854604051908152f35b346102b35760003660031901126102b357600061016060405161041e816124f3565b6060815260606020820152606060408201528260608201528260808201528260a08201528260c0820152606060e08201528261010082015282610120820152826101408201520152604051610472816124f3565b604051600854816000610484836124b9565b8083529260018116908115610b225750600114610ac1575b6104a892500382612542565b81526040516009548160006104bc836124b9565b8083529260018116908115610aa25750600114610a41575b6104e092500382612542565b6020820152604051600a548160006104f7836124b9565b8083529260018116908115610a2257506001146109c1575b61051b92500382612542565b6040820152600b546060820152600c546080820152600d5460a0820152600e5460c082015260405180816020600f549283815201600f6000527f8d1108e10bcb7c27dddfc02ed9d693a074039d026cf4ea4240b40f7d581ac802926000905b80600f8301106108d9576106109454918181106108c4575b8181106108ac575b818110610895575b81811061087d575b818110610865575b81811061084d575b818110610835575b81811061081d575b818110610805575b8181106107ed575b8181106107d5575b8181106107bd575b8181106107a5575b81811061078d575b818110610775575b10610767575b500382612542565b60e082015260105465ffffffffffff811661010083015260018060a01b039060301c1661012082015261ffff60115460018060a01b03811661014084015260a01c16610160820152604051602081526106a961069361067d845161018060208601526101a0850190612564565b6020850151848203601f19016040860152612564565b6040840151838203601f19016060850152612564565b60608301516080830152608083015160a083015260a083015160c083015260c083015160e083015260e083015190601f19838203016101008401526020808351928381520192019060005b81811061074d5750505061ffff6101608465ffffffffffff610100869701511661012086015260018060a01b036101208201511661014086015260018060a01b0361014082015116828601520151166101808301520390f35b825161ffff168452602093840193909201916001016106f4565b60f01c815260200185610608565b92602060019161ffff8560e01c168152019301610602565b92602060019161ffff8560d01c1681520193016105fa565b92602060019161ffff8560c01c1681520193016105f2565b92602060019161ffff8560b01c1681520193016105ea565b92602060019161ffff8560a01c1681520193016105e2565b92602060019161ffff8560901c1681520193016105da565b92602060019161ffff8560801c1681520193016105d2565b92602060019161ffff8560701c1681520193016105ca565b92602060019161ffff8560601c1681520193016105c2565b92602060019161ffff8560501c1681520193016105ba565b92602060019161ffff8560401c1681520193016105b2565b92602060019161ffff8560301c1681520193016105aa565b92602060019161ffff85831c1681520193016105a2565b92602060019161ffff8560101c16815201930161059a565b92602060019161ffff85168152019301610592565b916010919350610200600191865461ffff8116825261ffff81861c16602083015261ffff8160201c16604083015261ffff8160301c16606083015261ffff8160401c16608083015261ffff8160501c1660a083015261ffff8160601c1660c083015261ffff8160701c1660e083015261ffff8160801c1661010083015261ffff8160901c1661012083015261ffff8160a01c1661014083015261ffff8160b01c1661016083015261ffff8160c01c1661018083015261ffff8160d01c166101a083015261ffff8160e01c166101c083015260f01c6101e082015201940192018492939161057a565b5090600a6000527fc65a7bb8d6351c1cf70c95a316cc6a92839c986682d98bc35f958f4883f9d2a8906000915b818310610a0657505090602061051b9282010161050f565b60209193508060019154838588010152019101909183926109ee565b6020925061051b94915060ff191682840152151560051b82010161050f565b509060096000527f6e1540171b6c0c960b71a7020d9f60077f6af931a8bbf590da0223dacf75c7af906000915b818310610a865750509060206104e0928201016104d4565b6020919350806001915483858801015201910190918392610a6e565b602092506104e094915060ff191682840152151560051b8201016104d4565b509060086000527ff3f7a9fe364faab93b216da50a3214154f22a0a2b415b23a84c8169e8b636ee3906000915b818310610b065750509060206104a89282010161049c565b6020919350806001915483858801015201910190918392610aee565b602092506104a894915060ff191682840152151560051b82010161049c565b50346102b35760403660031901126102b357610b5b6125a4565b3360009081527f4448119502453e295a09f7d4e8a6a0575d3624c233f99f59abf0835bf259780a6020908152604090912054602480359490917fcab5a0bfe0b79d2c4b1c2e02599fa044d115b7511f9659307cb42769509677099060ff161561120d5750610bc7612d92565b610bcf612d6f565b60ff601254166111d65765ffffffffffff60105416421161119e57604051636c85cf6760e01b81526000828201526001600160a01b0385811682850181905295909391604490868183817f00000000000000000000000000000000000000000000000000000000000000008a165afa908115610fee57600091611181575b501561114057670de0b6b3a764000080890290898204148915171561112c57600c54610c78916126ee565b94600e5486106110ea57610c8e8660025461264b565b600d54106110af57612710610cac61ffff60115460a01c168b6126db565b04610cb7818b61270e565b604080516323b872dd60e01b8152338982019081523060208201529182018d905291937f0000000000000000000000000000000000000000000000000000000000000000811693909290918b908290819060600103816000885af1908115610fee57600091611092575b5015611059576011546040805163a9059cbb60e01b8082529285166001600160a01b03168b820190815260208101949094529193928c91839182910103816000885af1908115610fee5760009161103c575b5015610ffa5791610db4939160008b9460105460301c16916040519687958694859384528d840160209093929193604081019460018060a01b031681520152565b03925af1908115610fee57600091610fc1575b5015610f805750610dd7906129a6565b8415610f6a57610de5612d92565b610df18360025461264b565b600255846000526000845260406000208381540190558460007fddf252ad1be2c89b69c2b068fc378daa952ba7f163c4a11628f55a4df523b3ef86604051878152a3610e3f8660185461264b565b60185584600052601584526040600020805460ff811615610e8e575b87877f8514357b17ccbde354811f827b94585a7ab01b4034aa86a807b7cc2c100b7be88888604051908152a36001600755005b60ff1916600117905560165468010000000000000000811015610f56576001810180601655811015610f425760166000527fd833147d7dc355ba459fc788f669e58cfaf9dc25ddcd0702e87d69c7b51242890180546001600160a01b03191686179055601754916000198314610f2f5750506001016017557f8514357b17ccbde354811f827b94585a7ab01b4034aa86a807b7cc2c100b7be8388080610e5b565b601190634e487b7160e01b600052526000fd5b50634e487b7160e01b600090815260328352fd5b50634e487b7160e01b600090815260418352fd5b9060006040519163ec442f0560e01b8352820152fd5b837f53543a2070726f6365656473207472616e73666572206661696c656400000000606492601c868a6040519562461bcd60e51b8752860152840152820152fd5b610fe19150873d8911610fe7575b610fd98183612542565b810190612633565b38610dc7565b503d610fcf565b6040513d6000823e3d90fd5b60405162461bcd60e51b81528089018b90526017818901527f53543a20666565207472616e73666572206661696c656400000000000000000081870152606490fd5b61105391508b3d8d11610fe757610fd98183612542565b38610d73565b60405162461bcd60e51b81528089018b90526014818901527314d50e881554d110c81c1d5b1b0819985a5b195960621b81870152606490fd5b6110a991508b3d8d11610fe757610fd98183612542565b38610d21565b60405162461bcd60e51b81528086018890526016818601527553543a2065786365656473206d617820737570706c7960501b81840152606490fd5b60405162461bcd60e51b8152808601889052601c818601527f53543a2062656c6f77206d696e696d756d20696e766573746d656e740000000081840152606490fd5b83601186634e487b7160e01b600052526000fd5b837f53543a20696e766573746f72206e6f74207665726966696564000000000000006064926019868a6040519562461bcd60e51b8752860152840152820152fd5b6111989150873d8911610fe757610fd98183612542565b38610c4d565b6014606492846040519362461bcd60e51b85528401528201527314d50e881bd999995c9a5b99c8195e1c1a5c995960621b6044820152fd5b6013606492846040519362461bcd60e51b85528401528201527214d50e881bd999995c9a5b99c818db1bdcd959606a1b6044820152fd5b6044926040519263e2517d3f60e01b84523390840152820152fd5b50346102b35760003660031901126102b357611242612924565b6012549060ff821661128f5760018260ff1916176012557fc566557ce4cb9ae8e7b1ebb1215c266fb3ef7b87e5a726107e9188fd256423fb604060185460025482519182526020820152a1005b60649060206040519162461bcd60e51b8352820152601260248201527114d50e88185b1c9958591e4818db1bdcd95960721b6044820152fd5b346102b35760403660031901126102b3576112ee6112e46125a4565b6024359033612a3e565b602060405160018152f35b346102b35760403660031901126102b3576113126125a4565b7fa065e63c631c86f1b9f66a4a2f63f2093bf1c2168d23290259dbd969e0222a456020602435926113416128aa565b60018060a01b03169283600052600082526113756040600020546014845261136e8360406000205461264b565b111561266e565b8360005260148252604060002061026482825461264b565b346102b35760003660031901126102b357602060405160008152f35b346102b35760203660031901126102b357602061141e6113c76125a4565b670de0b6b3a764000061140a6113f76019549360018060a01b03169384600052601a87526040600020549061270e565b83600052600086526040600020546126db565b0490600052601b835260406000205461264b565b604051908152f35b50346102b35760003660031901126102b3576040519060008282549161144b836124b9565b92838352602094600191866001821691826000146114eb57505060011461148f575b505061147b92500383612542565b61032a604051928284938452830190612564565b8592506000527f8a35acfbc15ff81a39ae7d344fd709f28e8600b4aa8c65c6b64bfe7fe36bd19b906000915b8583106114d357505061147b9350820101388061146d565b805483890185015287945086939092019181016114bb565b925093505061147b94915060ff191682840152151560051b820101388061146d565b50346102b35760403660031901126102b3576115276125ba565b9035600052600660205260406000209060018060a01b0316600052602052602060ff604060002054166040519015158152f35b50346102b35760003660031901126102b357611574612d6f565b61157c612d92565b611585336129a6565b33600052602090601b8252604060002054801561167b57336000818152601b8552604080822091909155805163a9059cbb60e01b8152848101928352602083019390935284918391829101038160007f00000000000000000000000000000000000000000000000000000000000000006001600160a01b03165af1908115610fee5760009161165e575b501561161c576001600755005b6064916040519162461bcd60e51b8352820152601960248201527f53543a20636c61696d207472616e73666572206661696c6564000000000000006044820152fd5b6116759150833d8511610fe757610fd98183612542565b3861160f565b506064916040519162461bcd60e51b8352820152601460248201527353543a206e6f7468696e6720746f20636c61696d60601b6044820152fd5b346102b35760003660031901126102b35760206040517f114e74f6ea3bd819998f78687bfcb11b140da08e9b7d222fa9c1f1ba1f2aa1228152f35b346102b35760203660031901126102b3576001600160a01b036117116125a4565b1660005260006020526020604060002054604051908152f35b50346102b357602090816003193601126102b35767ffffffffffffffff9181358381116102b35761175e9036908401612605565b9290936117696128aa565b831161191d575061177b6013546124b9565b601f81116118cb575b506000601f8311600114611835577f5ae146d76690e2b2fbd484f0af43653eb5fb3983df5b239a0a30422d030a7fa793836118259260009161182a575b508460011b906000198660031b1c1916176013555b6117de612d92565b600160ff1960055416176005557f62e78cea01bee320cd4e420270b5ea74000d11b0c9f74754ebdbfc544b05a25883604051338152a16040519383859485528401916126ba565b0390a1005b9050810135386117c1565b601f198316906013600052600080516020612db18339815191529160005b8181106118b45750917f5ae146d76690e2b2fbd484f0af43653eb5fb3983df5b239a0a30422d030a7fa7959185611825941061189a575b5050600184811b016013556117d6565b820135600019600387901b60f8161c19169055388061188a565b91928460018192868a013581550194019201611853565b6013600052600080516020612db1833981519152601f840160051c810191838510611913575b601f0160051c01905b8181106119075750611784565b600081556001016118fa565b90915081906118f1565b604190634e487b7160e01b6000525260246000fd5b346102b35760003660031901126102b357602060ff600554166040519015158152f35b346102b35760003660031901126102b357602060ff601254166040519015158152f35b50346102b3576020806003193601126102b357813591611996612924565b61199e612d6f565b60025415611b52578215611b1857604080516323b872dd60e01b81523383820190815230602082015291820185905290839082908190606001038160007f00000000000000000000000000000000000000000000000000000000000000006001600160a01b03165af1908115610fee57600091611afb575b5015611ab957670de0b6b3a7640000830290670de0b6b3a763ffff1984830401611aa4577f34fed24cebff9f2f4a855b41130e3120797d67a70a0695599980f6e83215760560608585611a848660025490611a7c611a7483836126ee565b60195461264b565b6019556126ee565b9060405192835282015265ffffffffffff42166040820152a16001600755005b601190634e487b7160e01b6000525260246000fd5b6064916040519162461bcd60e51b8352820152601860248201527f53543a2055534443207472616e73666572206661696c656400000000000000006044820152fd5b611b129150833d8511610fe757610fd98183612542565b38611a16565b6064916040519162461bcd60e51b8352820152601560248201527429aa1d103d32b937903234b9ba3934b13aba34b7b760591b6044820152fd5b6064916040519162461bcd60e51b8352820152601960248201527f53543a206e6f20746f6b656e73206f75747374616e64696e67000000000000006044820152fd5b50346102b35760003660031901126102b3573360009081527f54cdd369e4e8a8515e52ca72ec816c2101831ad1f18bf44102ed171459c9b4f8602052604090205460ff1615611ca457611be86013546124b9565b601f8111611c6c575b5060006013556005549060ff821615611c5d575060ff19166005557f5db9ee0a495bf2e6ff9c91a7834c1ba4fdd244a5e8aa4e537bd38aeae4b073aa6020604051338152a17f3cd348ff56b5e60ffb00b5cc262c0dff28e4741cdf0375413cd4ab8fe440e6aa600080a1005b604051638dfc202b60e01b8152fd5b6013600052601f600080516020612db1833981519152910160051c8101905b818110611c985750611bf1565b60008155600101611c8b565b6044906040519063e2517d3f60e01b8252339082015260006024820152fd5b346102b35760003660031901126102b3576040517f00000000000000000000000000000000000000000000000000000000000000006001600160a01b03168152602090f35b50346102b35760803660031901126102b357611d226125a4565b611d2a6125ba565b606435929060443567ffffffffffffffff85116102b357611d727fbb53097141337c38a36fed7fae913304cd0c540e1200dbb4c8c1cee707f9f2c293611dd896369101612605565b9590611d7c6128aa565b60018060a01b03611dbd8486838a16998a6000526000602052611da683604060002054101561266e565b611daf816129a6565b611db8826129a6565b612a3e565b604051948594855260406020860152169660408401916126ba565b0390a3005b50346102b35760403660031901126102b357611df76125ba565b336001600160a01b03821603611e11576103dc9135612cf8565b5060405163334bd91960e11b8152fd5b346102b35760003660031901126102b357602060405160128152f35b50346102b35760403660031901126102b3576103dc9035611e5c6125ba565b90806000526006602052611e77600160406000200154612980565b612c78565b346102b35760203660031901126102b3576001600160a01b03611e9d6125a4565b1660005260146020526020604060002054604051908152f35b50346102b35760203660031901126102b3573560005260066020526020600160406000200154604051908152f35b50346102b357611ef3366125d0565b9160018060a01b038116806000526001602052604060002033600052602052604060002054946000198610611f2f575b50506112ee9350612a3e565b848610611f9b578115611f83573315611f6b57506112ee9484916000526001602052604060002033600052602052036040600020553880611f23565b602490600060405191634a1406b160e11b8352820152fd5b60249060006040519163e602df0560e01b8352820152fd5b60408051637dc7a0d960e11b815233928101928352602083018890529082018690529081906060010390fd5b346102b35760003660031901126102b35760206040517fcab5a0bfe0b79d2c4b1c2e02599fa044d115b7511f9659307cb42769509677098152f35b346102b35760003660031901126102b3576020600254604051908152f35b346102b35760003660031901126102b3576040517f00000000000000000000000000000000000000000000000000000000000000006001600160a01b03168152602090f35b50346102b35760403660031901126102b35761207f6125a4565b6024359033156120ed576001600160a01b0316918215611f6b5750336000526001602052604060002082600052602052806040600020556040519081527f8c5be1e5ebec7d5bd14f71427d1e84f3dd0314c0f7b2291e5b200ac8c7c3b92560203392a3602060405160018152f35b60405163e602df0560e01b8152600081850152602490fd5b346102b35760003660031901126102b357604051600354600082612128836124b9565b91828252602093600190856001821691826000146121b4575050600114612157575b5061147b92500383612542565b84915060036000527fc2575a0e9e593c00f959f8c92f12db2869c3395a3b0502d05e2516446f71f85b906000915b85831061219c57505061147b93508201018561214a565b80548389018501528794508693909201918101612185565b60ff19168582015261147b95151560051b850101925087915061214a9050565b346102b35760003660031901126102b35760206040517f442a94f1a1fac79af32856af2a64f63648cfa2ef3b98610a5bb7cbec4cee69858152f35b50346102b35760403660031901126102b3576122296125a4565b6122316125ba565b6122396128aa565b60405163b9209e3360e01b81526001600160a01b0382811682860181905294602093909290919084816024817f000000000000000000000000000000000000000000000000000000000000000086165afa908115610fee576000916123ae575b501561236a5784169384600052600084526040600020549283156123265750827f401f439d865a766757ec78675925bd67198d5e78805aa41691b34b5d6a6cbbe694939282611daf6122ea946129a6565b83600052601b82526040600020548560005261230c604060002091825461264b565b905583600052601b825260006040812055604051908152a3005b60405162461bcd60e51b8152908101859052601860248201527f53543a206e6f20746f6b656e7320746f207265636f76657200000000000000006044820152606490fd5b60405162461bcd60e51b8152808401859052601b60248201527f53543a206e65772077616c6c6574206e6f7420766572696669656400000000006044820152606490fd5b6123c59150853d8711610fe757610fd98183612542565b38612299565b346102b35760003660031901126102b3576040516013546000826123ee836124b9565b91828252602093600190856001821691826000146121b457505060011461241c575061147b92500383612542565b8491506013600052600080516020612db1833981519152906000915b85831061244f57505061147b93508201018561214a565b80548389018501528794508693909201918101612438565b82346102b35760203660031901126102b357359063ffffffff60e01b82168092036102b357602091637965db0b60e01b81149081156124a8575b5015158152f35b6301ffc9a760e01b149050836124a1565b90600182811c921680156124e9575b60208310146124d357565b634e487b7160e01b600052602260045260246000fd5b91607f16916124c8565b610180810190811067ffffffffffffffff82111761251057604052565b634e487b7160e01b600052604160045260246000fd5b6040810190811067ffffffffffffffff82111761251057604052565b90601f8019910116810190811067ffffffffffffffff82111761251057604052565b919082519283825260005b848110612590575050826000602080949584010152601f8019910116010190565b60208183018101518483018201520161256f565b600435906001600160a01b03821682036102b357565b602435906001600160a01b03821682036102b357565b60609060031901126102b3576001600160a01b039060043582811681036102b3579160243590811681036102b3579060443590565b9181601f840112156102b35782359167ffffffffffffffff83116102b357602083818601950101116102b357565b908160209103126102b3575180151581036102b35790565b9190820180921161265857565b634e487b7160e01b600052601160045260246000fd5b1561267557565b60405162461bcd60e51b815260206004820152601860248201527f53543a20696e73756666696369656e742062616c616e636500000000000000006044820152606490fd5b908060209392818452848401376000828201840152601f01601f1916010190565b8181029291811591840414171561265857565b81156126f8570490565b634e487b7160e01b600052601260045260246000fd5b9190820391821161265857565b9291909260ff6005541661287b5760408051636c85cf6760e01b81526001600160a01b0383811660048301529586166024820152909460209392909184816044817f000000000000000000000000000000000000000000000000000000000000000087165afa90811561287057600091612853575b50156128175716600052600082526127b584600020546014845285600020549061270e565b106127de5760019280519182019082821067ffffffffffffffff83111761251057526000815290565b7f496e73756666696369656e7420756e66726f7a656e2062616c616e6365000000600093519161280d83612526565b601d835282015290565b5050507f436f6d706c69616e636520636865636b206661696c6564000000000000000000600093519161284983612526565b6017835282015290565b61286a9150853d8711610fe757610fd98183612542565b38612790565b87513d6000823e3d90fd5b50506040516000925061288d81612526565b600d81526c14d513c81a5cc81c185d5cd959609a1b602082015290565b3360009081527f84103e4942d70d0389ab910bdcdf181c3e028bc1897fe6797bb191ac79d8088260205260409020547f442a94f1a1fac79af32856af2a64f63648cfa2ef3b98610a5bb7cbec4cee69859060ff16156129065750565b6044906040519063e2517d3f60e01b82523360048301526024820152fd5b3360009081527f702fe919a6a7971e34c596917a48306a624527a41d0aa0fcf43050b6a305324860205260409020547f114e74f6ea3bd819998f78687bfcb11b140da08e9b7d222fa9c1f1ba1f2aa1229060ff16156129065750565b80600052600660205260406000203360005260205260ff60406000205416156129065750565b6019546001600160a01b039091166000818152601a602052604080822054929390926129d19161270e565b80151580612a2b575b6129ef575b50601954928152601a6020522055565b612a0c670de0b6b3a76400009185845283602052848420546126db565b04838252601b602052612a2383832091825461264b565b9055386129df565b50838252816020528282205415156129da565b92916001600160a01b0391828516918215612c5f57838216938415612c465760408051636c85cf6760e01b81526001600160a01b0389811660048301528516602482015260209491928590829060449082907f0000000000000000000000000000000000000000000000000000000000000000165afa908115612c3b57600091612c1e575b5015612bda57846000526000845282612ae983600020546014875284600020549061270e565b10612b9657612b0090612afb896129a6565b6129a6565b612b08612d92565b8360005260008352806000205496828810612b67575081849596977fddf252ad1be2c89b69c2b068fc378daa952ba7f163c4a11628f55a4df523b3ef9560005260008552038160002055856000528060002082815401905551908152a3565b905163391434e360e21b81526001600160a01b0390911660048201526024810187905260448101829052606490fd5b815162461bcd60e51b815260048101859052601960248201527f53543a20696e73756666696369656e7420756e66726f7a656e000000000000006044820152606490fd5b815162461bcd60e51b815260048101859052601a60248201527f53543a207472616e73666572206e6f7420636f6d706c69616e740000000000006044820152606490fd5b612c359150853d8711610fe757610fd98183612542565b38612ac3565b83513d6000823e3d90fd5b60405163ec442f0560e01b815260006004820152602490fd5b604051634b637e8f60e11b815260006004820152602490fd5b906000918083526006602052604083209160018060a01b03169182845260205260ff60408420541615600014612cf35780835260066020526040832082845260205260408320600160ff198254161790557f2f8788117e7eff1d82e926ec794901d17c78024a50270940304540a733656f0d339380a4600190565b505090565b906000918083526006602052604083209160018060a01b03169182845260205260ff604084205416600014612cf3578083526006602052604083208284526020526040832060ff1981541690557ff6391f5c32d9c69d2a47ea670b442974b53935d1edc7fd64eb21e047a839171b339380a4600190565b600260075414612d80576002600755565b604051633ee5aeb560e01b8152600490fd5b60ff60055416612d9e57565b60405163d93c066560e01b8152600490fdfe66de8ffda797e3de9c05e8fc57b3bf0ec28a930d40b0d285d93c06501cf6a090a2646970667358221220a6ff9d693f9fe94ebded77c99dec7d2c868b91afd7fec88dc2037920fce7732b64736f6c634300081800332f8788117e7eff1d82e926ec794901d17c78024a50270940304540a733656f0dc65a7bb8d6351c1cf70c95a316cc6a92839c986682d98bc35f958f4883f9d2a8f3f7a9fe364faab93b216da50a3214154f22a0a2b415b23a84c8169e8b636ee36e1540171b6c0c960b71a7020d9f60077f6af931a8bbf590da0223dacf75c7af",
  "linkReferences": {},
  "deployedLinkReferences": {}
}