{
  "_format": "hh-sol-artifact-1",
  "contractName": "SURAToken",
  "sourceName": "contracts/tokens/SURAToken.sol",
  "abi": [
    {
      "inputs": [
        {
          "components": [
            {
              "internalType": "string",
              "name": "name",
              "type": "string"
            },
            {
              "internalType": "string",
              "name": "symbol",
              "type": "string"
            },
            {
              "internalType": "string",
              "name": "assetType",
              "type": "string"
            },
            {
              "internalType": "string",
              "name": "assetDescription",
              "type": "string"
            },
            {
              "internalType": "uint256",
              "name": "targetRaise",
              "type": "uint256"
            },
            {
              "internalType": "uint256",
              "name": "tokenPrice",
              "type": "uint256"
            },
            {
              "internalType": "uint256",
              "name": "maxSupply",
              "type": "uint256"
            },
            {
              "internalType": "uint256",
              "name": "minInvestment",
              "type": "uint256"
            },
            {
              "internalType": "uint16[]",
              "name": "allowedCountries",
              "type": "uint16[]"
            },
            {
              "internalType": "uint48",
              "name": "closingDate",
              "type": "uint48"
            },
            {
              "internalType": "uint48",
              "name": "lockupPeriod",
              "type": "uint48"
            },
            {
              "internalType": "address",
              "name": "issuer",
              "type": "address"
            },
            {
              "internalType": "address",
              "name": "treasury",
              "type": "address"
            },
            {
              "internalType": "uint16",
              "name": "feeBps",
              "type": "uint16"
            }
          ],
          "internalType": "struct SURAToken.STOConfig",
          "name": "config",
          "type": "tuple"
        },
        {
          "internalType": "address",
          "name": "identityRegistry_",
          "type": "address"
        },
        {
          "internalType": "address",
          "name": "usdc_",
          "type": "address"
        },
        {
          "internalType": "address",
          "name": "admin",
          "type": "address"
        },
        {
          "internalType": "address",
          "name": "complianceOfficer",
          "type": "address"
        }
      ],
      "stateMutability": "nonpayable",
      "type": "constructor"
    },
    {
      "inputs": [],
      "name": "AccessControlBadConfirmation",
      "type": "error"
    },
    {
      "inputs": [
        {
          "internalType": "address",
          "name": "account",
          "type": "address"
        },
        {
          "internalType": "bytes32",
          "name": "neededRole",
          "type": "bytes32"
        }
      ],
      "name": "AccessControlUnauthorizedAccount",
      "type": "error"
    },
    {
      "inputs": [
        {
          "internalType": "address",
          "name": "spender",
          "type": "address"
        },
        {
          "internalType": "uint256",
          "name": "allowance",
          "type": "uint256"
        },
        {
          "internalType": "uint256",
          "name": "needed",
          "type": "uint256"
        }
      ],
      "name": "ERC20InsufficientAllowance",
      "type": "error"
    },
    {
      "inputs": [
        {
          "internalType": "address",
          "name": "sender",
          "type": "address"
        },
        {
          "internalType": "uint256",
          "name": "balance",
          "type": "uint256"
        },
        {
          "internalType": "uint256",
          "name": "needed",
          "type": "uint256"
        }
      ],
      "name": "ERC20InsufficientBalance",
      "type": "error"
    },
    {
      "inputs": [
        {
          "internalType": "address",
          "name": "approver",
          "type": "address"
        }
      ],
      "name": "ERC20InvalidApprover",
      "type": "error"
    },
    {
      "inputs": [
        {
          "internalType": "address",
          "name": "receiver",
          "type": "address"
        }
      ],
      "name": "ERC20InvalidReceiver",
      "type": "error"
    },
    {
      "inputs": [
        {
          "internalType": "address",
          "name": "sender",
          "type": "address"
        }
      ],
      "name": "ERC20InvalidSender",
      "type": "error"
    },
    {
      "inputs": [
        {
          "internalType": "address",
          "name": "spender",
          "type": "address"
        }
      ],
      "name": "ERC20InvalidSpender",
      "type": "error"
    },
    {
      "inputs": [],
      "name": "EnforcedPause",
      "type": "error"
    },
    {
      "inputs": [],
      "name": "ExpectedPause",
      "type": "error"
    },
    {
      "inputs": [],
      "name": "ReentrancyGuardReentrantCall",
      "type": "error"
    },
    {
      "anonymous": false,
      "inputs": [
        {
          "indexed": true,
          "internalType": "address",
          "name": "owner",
          "type": "address"
        },
        {
          "indexed": true,
          "internalType": "address",
          "name": "spender",
          "type": "address"
        },
        {
          "indexed": false,
          "internalType": "uint256",
          "name": "value",
          "type": "uint256"
        }
      ],
      "name": "Approval",
      "type": "event"
    },
    {
      "anonymous": false,
      "inputs": [
        {
          "indexed": true,
          "internalType": "uint256",
          "name": "totalAmount",
          "type": "uint256"
        },
        {
          "indexed": false,
          "internalType": "uint256",
          "name": "perToken",
          "type": "uint256"
        },
        {
          "indexed": true,
          "internalType": "uint48",
          "name": "timestamp",
          "type": "uint48"
        }
      ],
      "name": "DistributionProcessed",
      "type": "event"
    },
    {
      "anonymous": false,
      "inputs": [
        {
          "indexed": true,
          "internalType": "bytes32",
          "name": "name",
          "type": "bytes32"
        },
        {
          "indexed": false,
          "internalType": "string",
          "name": "uri",
          "type": "string"
        },
        {
          "indexed": false,
          "internalType": "bytes32",
          "name": "docHash",
          "type": "bytes32"
        }
      ],
      "name": "DocumentUpdated",
      "type": "event"
    },
    {
      "anonymous": false,
      "inputs": [
        {
          "indexed": true,
          "internalType": "address",
          "name": "to",
          "type": "address"
        },
        {
          "indexed": false,
          "internalType": "uint256",
          "name": "amount",
          "type": "uint256"
        }
      ],
      "name": "DustSwept",
      "type": "event"
    },
    {
      "anonymous": false,
      "inputs": [
        {
          "indexed": true,
          "internalType": "address",
          "name": "from",
          "type": "address"
        },
        {
          "indexed": true,
          "internalType": "address",
          "name": "to",
          "type": "address"
        },
        {
          "indexed": false,
          "internalType": "uint256",
          "name": "amount",
          "type": "uint256"
        },
        {
          "indexed": false,
          "internalType": "string",
          "name": "reason",
          "type": "string"
        }
      ],
      "name": "ForcedTransfer",
      "type": "event"
    },
    {
      "anonymous": false,
      "inputs": [
        {
          "indexed": true,
          "internalType": "address",
          "name": "investor",
          "type": "address"
        },
        {
          "indexed": true,
          "internalType": "uint256",
          "name": "usdcAmount",
          "type": "uint256"
        },
        {
          "indexed": false,
          "internalType": "uint256",
          "name": "tokens",
          "type": "uint256"
        }
      ],
      "name": "Investment",
      "type": "event"
    },
    {
      "anonymous": false,
      "inputs": [
        {
          "indexed": true,
          "internalType": "address",
          "name": "operator",
          "type": "address"
        },
        {
          "indexed": true,
          "internalType": "address",
          "name": "to",
          "type": "address"
        },
        {
          "indexed": true,
          "internalType": "uint256",
          "name": "value",
          "type": "uint256"
        },
        {
          "indexed": false,
          "internalType": "bytes",
          "name": "data",
          "type": "bytes"
        }
      ],
      "name": "Issued",
      "type": "event"
    },
    {
      "anonymous": false,
      "inputs": [
        {
          "indexed": true,
          "internalType": "bytes32",
          "name": "partition",
          "type": "bytes32"
        },
        {
          "indexed": true,
          "internalType": "address",
          "name": "to",
          "type": "address"
        },
        {
          "indexed": true,
          "internalType": "uint256",
          "name": "value",
          "type": "uint256"
        }
      ],
      "name": "IssuedByPartition",
      "type": "event"
    },
    {
      "anonymous": false,
      "inputs": [
        {
          "indexed": false,
          "internalType": "uint256",
          "name": "totalRaised",
          "type": "uint256"
        },
        {
          "indexed": false,
          "internalType": "uint256",
          "name": "totalTokens",
          "type": "uint256"
        }
      ],
      "name": "OfferingClosed",
      "type": "event"
    },
    {
      "anonymous": false,
      "inputs": [
        {
          "indexed": true,
          "internalType": "address",
          "name": "operator",
          "type": "address"
        },
        {
          "indexed": true,
          "internalType": "address",
          "name": "tokenHolder",
          "type": "address"
        }
      ],
      "name": "OperatorAuthorised",
      "type": "event"
    },
    {
      "anonymous": false,
      "inputs": [
        {
          "indexed": true,
          "internalType": "address",
          "name": "operator",
          "type": "address"
        },
        {
          "indexed": true,
          "internalType": "address",
          "name": "tokenHolder",
          "type": "address"
        }
      ],
      "name": "OperatorRevoked",
      "type": "event"
    },
    {
      "anonymous": false,
      "inputs": [
        {
          "indexed": false,
          "internalType": "address",
          "name": "account",
          "type": "address"
        }
      ],
      "name": "Paused",
      "type": "event"
    },
    {
      "anonymous": false,
      "inputs": [
        {
          "indexed": true,
          "internalType": "address",
          "name": "operator",
          "type": "address"
        },
        {
          "indexed": true,
          "internalType": "address",
          "name": "from",
          "type": "address"
        },
        {
          "indexed": true,
          "internalType": "uint256",
          "name": "value",
          "type": "uint256"
        },
        {
          "indexed": false,
          "internalType": "bytes",
          "name": "data",
          "type": "bytes"
        }
      ],
      "name": "Redeemed",
      "type": "event"
    },
    {
      "anonymous": false,
      "inputs": [],
      "name": "RedemptionEnabled",
      "type": "event"
    },
    {
      "anonymous": false,
      "inputs": [
        {
          "indexed": true,
          "internalType": "address",
          "name": "depositor",
          "type": "address"
        },
        {
          "indexed": true,
          "internalType": "uint256",
          "name": "amount",
          "type": "uint256"
        }
      ],
      "name": "RedemptionFundDeposited",
      "type": "event"
    },
    {
      "anonymous": false,
      "inputs": [
        {
          "indexed": true,
          "internalType": "bytes32",
          "name": "role",
          "type": "bytes32"
        },
        {
          "indexed": true,
          "internalType": "bytes32",
          "name": "previousAdminRole",
          "type": "bytes32"
        },
        {
          "indexed": true,
          "internalType": "bytes32",
          "name": "newAdminRole",
          "type": "bytes32"
        }
      ],
      "name": "RoleAdminChanged",
      "type": "event"
    },
    {
      "anonymous": false,
      "inputs": [
        {
          "indexed": true,
          "internalType": "bytes32",
          "name": "role",
          "type": "bytes32"
        },
        {
          "indexed": true,
          "internalType": "address",
          "name": "account",
          "type": "address"
        },
        {
          "indexed": true,
          "internalType": "address",
          "name": "sender",
          "type": "address"
        }
      ],
      "name": "RoleGranted",
      "type": "event"
    },
    {
      "anonymous": false,
      "inputs": [
        {
          "indexed": true,
          "internalType": "bytes32",
          "name": "role",
          "type": "bytes32"
        },
        {
          "indexed": true,
          "internalType": "address",
          "name": "account",
          "type": "address"
        },
        {
          "indexed": true,
          "internalType": "address",
          "name": "sender",
          "type": "address"
        }
      ],
      "name": "RoleRevoked",
      "type": "event"
    },
    {
      "anonymous": false,
      "inputs": [
        {
          "indexed": false,
          "internalType": "string",
          "name": "reason",
          "type": "string"
        }
      ],
      "name": "STOPaused",
      "type": "event"
    },
    {
      "anonymous": false,
      "inputs": [],
      "name": "STOResumed",
      "type": "event"
    },
    {
      "anonymous": false,
      "inputs": [
        {
          "indexed": true,
          "internalType": "address",
          "name": "investor",
          "type": "address"
        },
        {
          "indexed": false,
          "internalType": "uint256",
          "name": "amount",
          "type": "uint256"
        }
      ],
      "name": "TokensFrozen",
      "type": "event"
    },
    {
      "anonymous": false,
      "inputs": [
        {
          "indexed": true,
          "internalType": "address",
          "name": "investor",
          "type": "address"
        },
        {
          "indexed": true,
          "internalType": "uint256",
          "name": "amount",
          "type": "uint256"
        },
        {
          "indexed": true,
          "internalType": "uint48",
          "name": "until",
          "type": "uint48"
        }
      ],
      "name": "TokensLocked",
      "type": "event"
    },
    {
      "anonymous": false,
      "inputs": [
        {
          "indexed": true,
          "internalType": "address",
          "name": "lostWallet",
          "type": "address"
        },
        {
          "indexed": true,
          "internalType": "address",
          "name": "newWallet",
          "type": "address"
        },
        {
          "indexed": false,
          "internalType": "uint256",
          "name": "amount",
          "type": "uint256"
        }
      ],
      "name": "TokensRecovered",
      "type": "event"
    },
    {
      "anonymous": false,
      "inputs": [
        {
          "indexed": true,
          "internalType": "address",
          "name": "investor",
          "type": "address"
        },
        {
          "indexed": false,
          "internalType": "uint256",
          "name": "amount",
          "type": "uint256"
        }
      ],
      "name": "TokensUnfrozen",
      "type": "event"
    },
    {
      "anonymous": false,
      "inputs": [
        {
          "indexed": true,
          "internalType": "address",
          "name": "investor",
          "type": "address"
        },
        {
          "indexed": true,
          "internalType": "uint256",
          "name": "amount",
          "type": "uint256"
        }
      ],
      "name": "TokensUnlocked",
      "type": "event"
    },
    {
      "anonymous": false,
      "inputs": [
        {
          "indexed": true,
          "internalType": "address",
          "name": "from",
          "type": "address"
        },
        {
          "indexed": true,
          "internalType": "address",
          "name": "to",
          "type": "address"
        },
        {
          "indexed": false,
          "internalType": "uint256",
          "name": "value",
          "type": "uint256"
        }
      ],
      "name": "Transfer",
      "type": "event"
    },
    {
      "anonymous": false,
      "inputs": [
        {
          "indexed": true,
          "internalType": "bytes32",
          "name": "fromPartition",
          "type": "bytes32"
        },
        {
          "indexed": true,
          "internalType": "address",
          "name": "from",
          "type": "address"
        },
        {
          "indexed": true,
          "internalType": "address",
          "name": "to",
          "type": "address"
        },
        {
          "indexed": false,
          "internalType": "uint256",
          "name": "value",
          "type": "uint256"
        }
      ],
      "name": "TransferByPartition",
      "type": "event"
    },
    {
      "anonymous": false,
      "inputs": [
        {
          "indexed": false,
          "internalType": "address",
          "name": "account",
          "type": "address"
        }
      ],
      "name": "Unpaused",
      "type": "event"
    },
    {
      "inputs": [],
      "name": "AGENT_ROLE",
      "outputs": [
        {
          "internalType": "bytes32",
          "name": "",
          "type": "bytes32"
        }
      ],
      "stateMutability": "view",
      "type": "function"
    },
    {
      "inputs": [],
      "name": "CODE_COMPLIANCE_FAIL",
      "outputs": [
        {
          "internalType": "bytes1",
          "name": "",
          "type": "bytes1"
        }
      ],
      "stateMutability": "view",
      "type": "function"
    },
    {
      "inputs": [],
      "name": "CODE_INSUFFICIENT",
      "outputs": [
        {
          "internalType": "bytes1",
          "name": "",
          "type": "bytes1"
        }
      ],
      "stateMutability": "view",
      "type": "function"
    },
    {
      "inputs": [],
      "name": "CODE_NOT_VERIFIED",
      "outputs": [
        {
          "internalType": "bytes1",
          "name": "",
          "type": "bytes1"
        }
      ],
      "stateMutability": "view",
      "type": "function"
    },
    {
      "inputs": [],
      "name": "CODE_PAUSED",
      "outputs": [
        {
          "internalType": "bytes1",
          "name": "",
          "type": "bytes1"
        }
      ],
      "stateMutability": "view",
      "type": "function"
    },
    {
      "inputs": [],
      "name": "CODE_SUCCESS",
      "outputs": [
        {
          "internalType": "bytes1",
          "name": "",
          "type": "bytes1"
        }
      ],
      "stateMutability": "view",
      "type": "function"
    },
    {
      "inputs": [],
      "name": "CODE_TOKENS_LOCKED",
      "outputs": [
        {
          "internalType": "bytes1",
          "name": "",
          "type": "bytes1"
        }
      ],
      "stateMutability": "view",
      "type": "function"
    },
    {
      "inputs": [],
      "name": "COMPLIANCE_ROLE",
      "outputs": [
        {
          "internalType": "bytes32",
          "name": "",
          "type": "bytes32"
        }
      ],
      "stateMutability": "view",
      "type": "function"
    },
    {
      "inputs": [],
      "name": "DEFAULT_ADMIN_ROLE",
      "outputs": [
        {
          "internalType": "bytes32",
          "name": "",
          "type": "bytes32"
        }
      ],
      "stateMutability": "view",
      "type": "function"
    },
    {
      "inputs": [],
      "name": "ISSUER_ROLE",
      "outputs": [
        {
          "internalType": "bytes32",
          "name": "",
          "type": "bytes32"
        }
      ],
      "stateMutability": "view",
      "type": "function"
    },
    {
      "inputs": [],
      "name": "PARTITION_LOCKED",
      "outputs": [
        {
          "internalType": "bytes32",
          "name": "",
          "type": "bytes32"
        }
      ],
      "stateMutability": "view",
      "type": "function"
    },
    {
      "inputs": [],
      "name": "PARTITION_TRADEABLE",
      "outputs": [
        {
          "internalType": "bytes32",
          "name": "",
          "type": "bytes32"
        }
      ],
      "stateMutability": "view",
      "type": "function"
    },
    {
      "inputs": [],
      "name": "PARTITION_VESTING",
      "outputs": [
        {
          "internalType": "bytes32",
          "name": "",
          "type": "bytes32"
        }
      ],
      "stateMutability": "view",
      "type": "function"
    },
    {
      "inputs": [
        {
          "internalType": "address",
          "name": "owner",
          "type": "address"
        },
        {
          "internalType": "address",
          "name": "spender",
          "type": "address"
        }
      ],
      "name": "allowance",
      "outputs": [
        {
          "internalType": "uint256",
          "name": "",
          "type": "uint256"
        }
      ],
      "stateMutability": "view",
      "type": "function"
    },
    {
      "inputs": [
        {
          "internalType": "address",
          "name": "spender",
          "type": "address"
        },
        {
          "internalType": "uint256",
          "name": "value",
          "type": "uint256"
        }
      ],
      "name": "approve",
      "outputs": [
        {
          "internalType": "bool",
          "name": "",
          "type": "bool"
        }
      ],
      "stateMutability": "nonpayable",
      "type": "function"
    },
    {
      "inputs": [
        {
          "internalType": "address",
          "name": "operator",
          "type": "address"
        }
      ],
      "name": "authoriseOperator",
      "outputs": [],
      "stateMutability": "nonpayable",
      "type": "function"
    },
    {
      "inputs": [
        {
          "internalType": "bytes32",
          "name": "partition",
          "type": "bytes32"
        },
        {
          "internalType": "address",
          "name": "operator",
          "type": "address"
        }
      ],
      "name": "authoriseOperatorByPartition",
      "outputs": [],
      "stateMutability": "nonpayable",
      "type": "function"
    },
    {
      "inputs": [
        {
          "internalType": "address",
          "name": "account",
          "type": "address"
        }
      ],
      "name": "balanceOf",
      "outputs": [
        {
          "internalType": "uint256",
          "name": "",
          "type": "uint256"
        }
      ],
      "stateMutability": "view",
      "type": "function"
    },
    {
      "inputs": [
        {
          "internalType": "bytes32",
          "name": "partition",
          "type": "bytes32"
        },
        {
          "internalType": "address",
          "name": "tokenHolder",
          "type": "address"
        }
      ],
      "name": "balanceOfByPartition",
      "outputs": [
        {
          "internalType": "uint256",
          "name": "",
          "type": "uint256"
        }
      ],
      "stateMutability": "view",
      "type": "function"
    },
    {
      "inputs": [
        {
          "internalType": "bytes32",
          "name": "partition",
          "type": "bytes32"
        },
        {
          "internalType": "address",
          "name": "from",
          "type": "address"
        },
        {
          "internalType": "address",
          "name": "to",
          "type": "address"
        },
        {
          "internalType": "uint256",
          "name": "value",
          "type": "uint256"
        },
        {
          "internalType": "bytes",
          "name": "",
          "type": "bytes"
        }
      ],
      "name": "canTransferByPartition",
      "outputs": [
        {
          "internalType": "bytes1",
          "name": "code",
          "type": "bytes1"
        },
        {
          "internalType": "bytes32",
          "name": "",
          "type": "bytes32"
        },
        {
          "internalType": "string",
          "name": "reason",
          "type": "string"
        }
      ],
      "stateMutability": "view",
      "type": "function"
    },
    {
      "inputs": [],
      "name": "claimDistribution",
      "outputs": [],
      "stateMutability": "nonpayable",
      "type": "function"
    },
    {
      "inputs": [],
      "name": "closeOffering",
      "outputs": [],
      "stateMutability": "nonpayable",
      "type": "function"
    },
    {
      "inputs": [],
      "name": "decimals",
      "outputs": [
        {
          "internalType": "uint8",
          "name": "",
          "type": "uint8"
        }
      ],
      "stateMutability": "pure",
      "type": "function"
    },
    {
      "inputs": [
        {
          "internalType": "uint256",
          "name": "amount",
          "type": "uint256"
        }
      ],
      "name": "depositRedemptionFund",
      "outputs": [],
      "stateMutability": "nonpayable",
      "type": "function"
    },
    {
      "inputs": [],
      "name": "enableRedemption",
      "outputs": [],
      "stateMutability": "nonpayable",
      "type": "function"
    },
    {
      "inputs": [
        {
          "internalType": "address",
          "name": "from",
          "type": "address"
        },
        {
          "internalType": "address",
          "name": "to",
          "type": "address"
        },
        {
          "internalType": "uint256",
          "name": "amount",
          "type": "uint256"
        },
        {
          "internalType": "string",
          "name": "reason",
          "type": "string"
        }
      ],
      "name": "forcedTransfer",
      "outputs": [],
      "stateMutability": "nonpayable",
      "type": "function"
    },
    {
      "inputs": [
        {
          "internalType": "address",
          "name": "investor",
          "type": "address"
        },
        {
          "internalType": "uint256",
          "name": "amount",
          "type": "uint256"
        }
      ],
      "name": "freezeTokens",
      "outputs": [],
      "stateMutability": "nonpayable",
      "type": "function"
    },
    {
      "inputs": [
        {
          "internalType": "address",
          "name": "i",
          "type": "address"
        }
      ],
      "name": "frozenBalance",
      "outputs": [
        {
          "internalType": "uint256",
          "name": "",
          "type": "uint256"
        }
      ],
      "stateMutability": "view",
      "type": "function"
    },
    {
      "inputs": [],
      "name": "getAllDocuments",
      "outputs": [
        {
          "internalType": "bytes32[]",
          "name": "",
          "type": "bytes32[]"
        }
      ],
      "stateMutability": "view",
      "type": "function"
    },
    {
      "inputs": [],
      "name": "getConfig",
      "outputs": [
        {
          "components": [
            {
              "internalType": "string",
              "name": "name",
              "type": "string"
            },
            {
              "internalType": "string",
              "name": "symbol",
              "type": "string"
            },
            {
              "internalType": "string",
              "name": "assetType",
              "type": "string"
            },
            {
              "internalType": "string",
              "name": "assetDescription",
              "type": "string"
            },
            {
              "internalType": "uint256",
              "name": "targetRaise",
              "type": "uint256"
            },
            {
              "internalType": "uint256",
              "name": "tokenPrice",
              "type": "uint256"
            },
            {
              "internalType": "uint256",
              "name": "maxSupply",
              "type": "uint256"
            },
            {
              "internalType": "uint256",
              "name": "minInvestment",
              "type": "uint256"
            },
            {
              "internalType": "uint16[]",
              "name": "allowedCountries",
              "type": "uint16[]"
            },
            {
              "internalType": "uint48",
              "name": "closingDate",
              "type": "uint48"
            },
            {
              "internalType": "uint48",
              "name": "lockupPeriod",
              "type": "uint48"
            },
            {
              "internalType": "address",
              "name": "issuer",
              "type": "address"
            },
            {
              "internalType": "address",
              "name": "treasury",
              "type": "address"
            },
            {
              "internalType": "uint16",
              "name": "feeBps",
              "type": "uint16"
            }
          ],
          "internalType": "struct SURAToken.STOConfig",
          "name": "",
          "type": "tuple"
        }
      ],
      "stateMutability": "view",
      "type": "function"
    },
    {
      "inputs": [
        {
          "internalType": "bytes32",
          "name": "docName",
          "type": "bytes32"
        }
      ],
      "name": "getDocument",
      "outputs": [
        {
          "internalType": "string",
          "name": "uri",
          "type": "string"
        },
        {
          "internalType": "bytes32",
          "name": "docHash",
          "type": "bytes32"
        },
        {
          "internalType": "uint48",
          "name": "updatedAt",
          "type": "uint48"
        }
      ],
      "stateMutability": "view",
      "type": "function"
    },
    {
      "inputs": [
        {
          "internalType": "uint256",
          "name": "index",
          "type": "uint256"
        }
      ],
      "name": "getInvestorAt",
      "outputs": [
        {
          "internalType": "address",
          "name": "",
          "type": "address"
        }
      ],
      "stateMutability": "view",
      "type": "function"
    },
    {
      "inputs": [
        {
          "internalType": "bytes32",
          "name": "role",
          "type": "bytes32"
        }
      ],
      "name": "getRoleAdmin",
      "outputs": [
        {
          "internalType": "bytes32",
          "name": "",
          "type": "bytes32"
        }
      ],
      "stateMutability": "view",
      "type": "function"
    },
    {
      "inputs": [
        {
          "internalType": "bytes32",
          "name": "role",
          "type": "bytes32"
        },
        {
          "internalType": "address",
          "name": "account",
          "type": "address"
        }
      ],
      "name": "grantRole",
      "outputs": [],
      "stateMutability": "nonpayable",
      "type": "function"
    },
    {
      "inputs": [
        {
          "internalType": "bytes32",
          "name": "role",
          "type": "bytes32"
        },
        {
          "internalType": "address",
          "name": "account",
          "type": "address"
        }
      ],
      "name": "hasRole",
      "outputs": [
        {
          "internalType": "bool",
          "name": "",
          "type": "bool"
        }
      ],
      "stateMutability": "view",
      "type": "function"
    },
    {
      "inputs": [],
      "name": "identityRegistry",
      "outputs": [
        {
          "internalType": "contract IIdentityRegistry",
          "name": "",
          "type": "address"
        }
      ],
      "stateMutability": "view",
      "type": "function"
    },
    {
      "inputs": [
        {
          "internalType": "address",
          "name": "investor",
          "type": "address"
        },
        {
          "internalType": "uint256",
          "name": "usdcAmount",
          "type": "uint256"
        }
      ],
      "name": "invest",
      "outputs": [],
      "stateMutability": "nonpayable",
      "type": "function"
    },
    {
      "inputs": [],
      "name": "investorCount",
      "outputs": [
        {
          "internalType": "uint256",
          "name": "",
          "type": "uint256"
        }
      ],
      "stateMutability": "view",
      "type": "function"
    },
    {
      "inputs": [
        {
          "internalType": "address",
          "name": "i",
          "type": "address"
        }
      ],
      "name": "isFrozen",
      "outputs": [
        {
          "internalType": "bool",
          "name": "",
          "type": "bool"
        }
      ],
      "stateMutability": "view",
      "type": "function"
    },
    {
      "inputs": [
        {
          "internalType": "address",
          "name": "operator",
          "type": "address"
        },
        {
          "internalType": "address",
          "name": "tokenHolder",
          "type": "address"
        }
      ],
      "name": "isOperator",
      "outputs": [
        {
          "internalType": "bool",
          "name": "",
          "type": "bool"
        }
      ],
      "stateMutability": "view",
      "type": "function"
    },
    {
      "inputs": [
        {
          "internalType": "bytes32",
          "name": "partition",
          "type": "bytes32"
        },
        {
          "internalType": "address",
          "name": "operator",
          "type": "address"
        },
        {
          "internalType": "address",
          "name": "tokenHolder",
          "type": "address"
        }
      ],
      "name": "isOperatorForPartition",
      "outputs": [
        {
          "internalType": "bool",
          "name": "",
          "type": "bool"
        }
      ],
      "stateMutability": "view",
      "type": "function"
    },
    {
      "inputs": [
        {
          "internalType": "address",
          "name": "investor",
          "type": "address"
        }
      ],
      "name": "lockupExpiry",
      "outputs": [
        {
          "internalType": "uint48",
          "name": "",
          "type": "uint48"
        }
      ],
      "stateMutability": "view",
      "type": "function"
    },
    {
      "inputs": [],
      "name": "name",
      "outputs": [
        {
          "internalType": "string",
          "name": "",
          "type": "string"
        }
      ],
      "stateMutability": "view",
      "type": "function"
    },
    {
      "inputs": [],
      "name": "offeringClosed",
      "outputs": [
        {
          "internalType": "bool",
          "name": "",
          "type": "bool"
        }
      ],
      "stateMutability": "view",
      "type": "function"
    },
    {
      "inputs": [
        {
          "internalType": "bytes32",
          "name": "partition",
          "type": "bytes32"
        },
        {
          "internalType": "address",
          "name": "from",
          "type": "address"
        },
        {
          "internalType": "address",
          "name": "to",
          "type": "address"
        },
        {
          "internalType": "uint256",
          "name": "value",
          "type": "uint256"
        },
        {
          "internalType": "bytes",
          "name": "",
          "type": "bytes"
        },
        {
          "internalType": "bytes",
          "name": "",
          "type": "bytes"
        }
      ],
      "name": "operatorTransferByPartition",
      "outputs": [
        {
          "internalType": "bytes32",
          "name": "",
          "type": "bytes32"
        }
      ],
      "stateMutability": "nonpayable",
      "type": "function"
    },
    {
      "inputs": [
        {
          "internalType": "address",
          "name": "tokenHolder",
          "type": "address"
        }
      ],
      "name": "partitionsOf",
      "outputs": [
        {
          "internalType": "bytes32[]",
          "name": "partitions",
          "type": "bytes32[]"
        },
        {
          "internalType": "uint256[]",
          "name": "amounts",
          "type": "uint256[]"
        }
      ],
      "stateMutability": "view",
      "type": "function"
    },
    {
      "inputs": [
        {
          "internalType": "string",
          "name": "reason",
          "type": "string"
        }
      ],
      "name": "pause",
      "outputs": [],
      "stateMutability": "nonpayable",
      "type": "function"
    },
    {
      "inputs": [],
      "name": "pauseReason",
      "outputs": [
        {
          "internalType": "string",
          "name": "",
          "type": "string"
        }
      ],
      "stateMutability": "view",
      "type": "function"
    },
    {
      "inputs": [],
      "name": "paused",
      "outputs": [
        {
          "internalType": "bool",
          "name": "",
          "type": "bool"
        }
      ],
      "stateMutability": "view",
      "type": "function"
    },
    {
      "inputs": [
        {
          "internalType": "address",
          "name": "investor",
          "type": "address"
        }
      ],
      "name": "pendingDistribution",
      "outputs": [
        {
          "internalType": "uint256",
          "name": "",
          "type": "uint256"
        }
      ],
      "stateMutability": "view",
      "type": "function"
    },
    {
      "inputs": [
        {
          "internalType": "uint256",
          "name": "totalUSDC",
          "type": "uint256"
        }
      ],
      "name": "processDistribution",
      "outputs": [],
      "stateMutability": "nonpayable",
      "type": "function"
    },
    {
      "inputs": [
        {
          "internalType": "address",
          "name": "lostWallet",
          "type": "address"
        },
        {
          "internalType": "address",
          "name": "newWallet",
          "type": "address"
        }
      ],
      "name": "recoverTokens",
      "outputs": [],
      "stateMutability": "nonpayable",
      "type": "function"
    },
    {
      "inputs": [
        {
          "internalType": "uint256",
          "name": "amount",
          "type": "uint256"
        }
      ],
      "name": "redeem",
      "outputs": [],
      "stateMutability": "nonpayable",
      "type": "function"
    },
    {
      "inputs": [],
      "name": "redemptionEnabled",
      "outputs": [
        {
          "internalType": "bool",
          "name": "",
          "type": "bool"
        }
      ],
      "stateMutability": "view",
      "type": "function"
    },
    {
      "inputs": [
        {
          "internalType": "bytes32",
          "name": "role",
          "type": "bytes32"
        },
        {
          "internalType": "address",
          "name": "callerConfirmation",
          "type": "address"
        }
      ],
      "name": "renounceRole",
      "outputs": [],
      "stateMutability": "nonpayable",
      "type": "function"
    },
    {
      "inputs": [
        {
          "internalType": "address",
          "name": "operator",
          "type": "address"
        }
      ],
      "name": "revokeOperator",
      "outputs": [],
      "stateMutability": "nonpayable",
      "type": "function"
    },
    {
      "inputs": [
        {
          "internalType": "bytes32",
          "name": "role",
          "type": "bytes32"
        },
        {
          "internalType": "address",
          "name": "account",
          "type": "address"
        }
      ],
      "name": "revokeRole",
      "outputs": [],
      "stateMutability": "nonpayable",
      "type": "function"
    },
    {
      "inputs": [
        {
          "internalType": "bytes32",
          "name": "docName",
          "type": "bytes32"
        },
        {
          "internalType": "string",
          "name": "uri",
          "type": "string"
        },
        {
          "internalType": "bytes32",
          "name": "docHash",
          "type": "bytes32"
        }
      ],
      "name": "setDocument",
      "outputs": [],
      "stateMutability": "nonpayable",
      "type": "function"
    },
    {
      "inputs": [
        {
          "internalType": "bytes4",
          "name": "interfaceId",
          "type": "bytes4"
        }
      ],
      "name": "supportsInterface",
      "outputs": [
        {
          "internalType": "bool",
          "name": "",
          "type": "bool"
        }
      ],
      "stateMutability": "view",
      "type": "function"
    },
    {
      "inputs": [
        {
          "internalType": "address",
          "name": "to",
          "type": "address"
        }
      ],
      "name": "sweepDust",
      "outputs": [],
      "stateMutability": "nonpayable",
      "type": "function"
    },
    {
      "inputs": [],
      "name": "symbol",
      "outputs": [
        {
          "internalType": "string",
          "name": "",
          "type": "string"
        }
      ],
      "stateMutability": "view",
      "type": "function"
    },
    {
      "inputs": [],
      "name": "totalRaised",
      "outputs": [
        {
          "internalType": "uint256",
          "name": "",
          "type": "uint256"
        }
      ],
      "stateMutability": "view",
      "type": "function"
    },
    {
      "inputs": [],
      "name": "totalSupply",
      "outputs": [
        {
          "internalType": "uint256",
          "name": "",
          "type": "uint256"
        }
      ],
      "stateMutability": "view",
      "type": "function"
    },
    {
      "inputs": [
        {
          "internalType": "bytes32",
          "name": "partition",
          "type": "bytes32"
        }
      ],
      "name": "totalSupplyByPartition",
      "outputs": [
        {
          "internalType": "uint256",
          "name": "",
          "type": "uint256"
        }
      ],
      "stateMutability": "view",
      "type": "function"
    },
    {
      "inputs": [
        {
          "internalType": "address",
          "name": "to",
          "type": "address"
        },
        {
          "internalType": "uint256",
          "name": "value",
          "type": "uint256"
        }
      ],
      "name": "transfer",
      "outputs": [
        {
          "internalType": "bool",
          "name": "",
          "type": "bool"
        }
      ],
      "stateMutability": "nonpayable",
      "type": "function"
    },
    {
      "inputs": [
        {
          "internalType": "bytes32",
          "name": "partition",
          "type": "bytes32"
        },
        {
          "internalType": "address",
          "name": "to",
          "type": "address"
        },
        {
          "internalType": "uint256",
          "name": "value",
          "type": "uint256"
        },
        {
          "internalType": "bytes",
          "name": "",
          "type": "bytes"
        }
      ],
      "name": "transferByPartition",
      "outputs": [
        {
          "internalType": "bytes32",
          "name": "",
          "type": "bytes32"
        }
      ],
      "stateMutability": "nonpayable",
      "type": "function"
    },
    {
      "inputs": [
        {
          "internalType": "address",
          "name": "from",
          "type": "address"
        },
        {
          "internalType": "address",
          "name": "to",
          "type": "address"
        },
        {
          "internalType": "uint256",
          "name": "value",
          "type": "uint256"
        }
      ],
      "name": "transferFrom",
      "outputs": [
        {
          "internalType": "bool",
          "name": "",
          "type": "bool"
        }
      ],
      "stateMutability": "nonpayable",
      "type": "function"
    },
    {
      "inputs": [
        {
          "internalType": "address",
          "name": "investor",
          "type": "address"
        },
        {
          "internalType": "uint256",
          "name": "amount",
          "type": "uint256"
        }
      ],
      "name": "unfreezeTokens",
      "outputs": [],
      "stateMutability": "nonpayable",
      "type": "function"
    },
    {
      "inputs": [
        {
          "internalType": "address",
          "name": "investor",
          "type": "address"
        }
      ],
      "name": "unlockTokens",
      "outputs": [],
      "stateMutability": "nonpayable",
      "type": "function"
    },
    {
      "inputs": [],
      "name": "unpause",
      "outputs": [],
      "stateMutability": "nonpayable",
      "type": "function"
    },
    {
      "inputs": [],
      "name": "usdc",
      "outputs": [
        {
          "internalType": "contract IERC20",
          "name": "",
          "type": "address"
        }
      ],
      "stateMutability": "view",
      "type": "function"
    }
  ],
  "bytecode": "0x60c06040523462000db15762005c59803803806200001d8162000db6565b92833981019060a08183031262000db15780516001600160401b03811162000db1576101c0928382840182031262000db1576040519384016001600160401b03811185821017620007cb57604052828201516001600160401b03811162000db157816200008e918486010162000ddc565b8452828201602001516001600160401b03811162000db15781620000b6918486010162000ddc565b6020850152828201604001516001600160401b03811162000db15781620000e1918486010162000ddc565b6040850152828201606001516001600160401b03811162000db157816200010c918486010162000ddc565b60608501528282016080818101519086015260a0808201519086015260c0808201519086015260e0808201519086015261010001516001600160401b03811162000db15781601f828587010101121562000db157838301810151916001600160401b038311620007cb578260051b60206200018981830162000db6565b80958152019160208285888a010101011162000db1576020838688010101915b60208285888a01010101831062000d91578787620002306101a08989610100860152620001dc6101208286010162000e5e565b610120860152620001f36101408286010162000e5e565b6101408601526200020a6101608286010162000e72565b610160860152620002216101808286010162000e72565b61018086015283010162000e4e565b6101a0830152620002446020820162000e72565b91620002536040830162000e72565b90620002706080620002686060860162000e72565b940162000e72565b81516020830151815190916001600160401b038211620007cb5760035490600182811c9216801562000d86575b6020831014620008b55781601f84931162000d33575b50602090601f831160011462000ca45760009262000c98575b50508160011b916000199060031b1c1916176003555b8051906001600160401b038211620007cb5760045490600182811c9216801562000c8d575b6020831014620008b55781601f84931162000c3a575b50602090601f831160011462000bab5760009262000b9f575b50508160011b916000199060031b1c1916176004555b600160075581518051906001600160401b038211620007cb57600a5490600182811c9216801562000b94575b6020831014620008b55781601f84931162000b52575b50602090601f831160011462000ad45760009262000ac8575b50508160011b916000199060031b1c191617600a555b60208201518051906001600160401b038211620007cb57600b5490600182811c9216801562000abd575b6020831014620008b55781601f84931162000a6a575b50602090601f8311600114620009db57600092620009cf575b50508160011b916000199060031b1c191617600b555b60408201518051906001600160401b038211620007cb57600c5490600182811c92168015620009c4575b6020831014620008b55781601f84931162000971575b50602090601f8311600114620008e257600092620008d6575b50508160011b916000199060031b1c191617600c555b60608201518051906001600160401b038211620007cb57600d5490600182811c92168015620008cb575b6020831014620008b55781601f84931162000867575b50602090601f8311600114620007ed57600092620007e1575b50508160011b916000199060031b1c191617600d555b6080820151600e5560a0820151600f5560c0820151601090815560e083015160115561010083015180519691906001600160401b038811620007cb57680100000000000000008811620007cb57602090601254896012558981811062000774575b5050019660126000526020600020908060041c9260005b84811062000727575050600f198116900380620006c7575b620006578862000650896101608a620006468b8b65ffffffffffff610120850151166bffffffffffff00000000000061014086015160301b169060018060601b03198787015160601b1691171760135560018060a01b039586809281610180880151166014549061ffff60a01b6101a08a015160a01b169160018060b01b0319161717601455166080521660a052620006338762000ea0565b506200063f8762000f21565b5062000f21565b5001511662000fc4565b5062001062565b50604051614af89081620011018239608051818181610717015281816116dd01528181613412015281816135d70152818161444a015261474f015260a05181818161076801528181610b350152818161178901528181611ed30152818161265001528181612c190152612e7a0152f35b9760009860005b818110620006f257505050019590955562000657946200064682620006506200059a565b90919960206200071c60019261ffff8e51169085851b60031b9161ffff809116831b921b19161790565b9b01929101620006ce565b6000805b8381106200074157508482015560010162000582565b9b9060206200076a8e60019361ffff86511691851b60031b9161ffff809116831b921b19161790565b92019c016200072b565b620007a8916012600052600f8560002091601e82850160041c84019460011b1680620007b0575b500160041c019062000e87565b89896200056b565b60001990818601918254918a0360031b1c1690558e6200079b565b634e487b7160e01b600052604160045260246000fd5b015190508780620004f4565b600d600090815260008051602062005c398339815191529350601f198516905b8181106200084e575090846001959493921062000834575b505050811b01600d556200050a565b015160001960f88460031b161c1916905587808062000825565b929360206001819287860151815501950193016200080d565b600d600052620008a39060008051602062005c39833981519152601f850160051c81019160208610620008aa575b601f0160051c019062000e87565b88620004db565b909150819062000895565b634e487b7160e01b600052602260045260246000fd5b91607f1691620004c5565b01519050878062000485565b600c600090815293507fdf6966c971051c3d54ec59162606531493a51404a002842f56009d7e5cf4a8c791905b601f198416851062000955576001945083601f198116106200093b575b505050811b01600c556200049b565b015160001960f88460031b161c191690558780806200092c565b818101518355602094850194600190930192909101906200090f565b600c600052620009bd907fdf6966c971051c3d54ec59162606531493a51404a002842f56009d7e5cf4a8c7601f850160051c81019160208610620008aa57601f0160051c019062000e87565b886200046c565b91607f169162000456565b01519050878062000416565b600b600090815293507f0175b7a638427703f0dbe7bb9bbf987a2551717b34e79f33b5b1008d1fa01db991905b601f198416851062000a4e576001945083601f1981161062000a34575b505050811b01600b556200042c565b015160001960f88460031b161c1916905587808062000a25565b8181015183556020948501946001909301929091019062000a08565b600b60005262000ab6907f0175b7a638427703f0dbe7bb9bbf987a2551717b34e79f33b5b1008d1fa01db9601f850160051c81019160208610620008aa57601f0160051c019062000e87565b88620003fd565b91607f1691620003e7565b015190508780620003a7565b600a6000908152935060008051602062005c1983398151915291905b601f198416851062000b36576001945083601f1981161062000b1c575b505050811b01600a55620003bd565b015160001960f88460031b161c1916905587808062000b0d565b8181015183556020948501946001909301929091019062000af0565b600a60005262000b8d9060008051602062005c19833981519152601f850160051c81019160208610620008aa57601f0160051c019062000e87565b886200038e565b91607f169162000378565b01519050878062000336565b6004600090815293507f8a35acfbc15ff81a39ae7d344fd709f28e8600b4aa8c65c6b64bfe7fe36bd19b91905b601f198416851062000c1e576001945083601f1981161062000c04575b505050811b016004556200034c565b015160001960f88460031b161c1916905587808062000bf5565b8181015183556020948501946001909301929091019062000bd8565b600460005262000c86907f8a35acfbc15ff81a39ae7d344fd709f28e8600b4aa8c65c6b64bfe7fe36bd19b601f850160051c81019160208610620008aa57601f0160051c019062000e87565b886200031d565b91607f169162000307565b015190508880620002cc565b6003600090815293507fc2575a0e9e593c00f959f8c92f12db2869c3395a3b0502d05e2516446f71f85b91905b601f198416851062000d17576001945083601f1981161062000cfd575b505050811b01600355620002e2565b015160001960f88460031b161c1916905588808062000cee565b8181015183556020948501946001909301929091019062000cd1565b600360005262000d7f907fc2575a0e9e593c00f959f8c92f12db2869c3395a3b0502d05e2516446f71f85b601f850160051c81019160208610620008aa57601f0160051c019062000e87565b89620002b3565b91607f16916200029d565b90602080809362000da28662000e4e565b815201930192909150620001a9565b600080fd5b6040519190601f01601f191682016001600160401b03811183821017620007cb57604052565b919080601f8401121562000db15782516001600160401b038111620007cb5760209062000e12601f8201601f1916830162000db6565b9281845282828701011162000db15760005b81811062000e3a57508260009394955001015290565b858101830151848201840152820162000e24565b519061ffff8216820362000db157565b519065ffffffffffff8216820362000db157565b51906001600160a01b038216820362000db157565b81811062000e93575050565b6000815560010162000e87565b6001600160a01b031660008181527f54cdd369e4e8a8515e52ca72ec816c2101831ad1f18bf44102ed171459c9b4f8602052604081205490919060ff1662000f1d5781805260066020526040822081835260205260408220600160ff19825416179055339160008051602062005bf98339815191528180a4600190565b5090565b6001600160a01b031660008181527f84103e4942d70d0389ab910bdcdf181c3e028bc1897fe6797bb191ac79d8088260205260408120549091907f442a94f1a1fac79af32856af2a64f63648cfa2ef3b98610a5bb7cbec4cee69859060ff1662000fbf5780835260066020526040832082845260205260408320600160ff1982541617905560008051602062005bf9833981519152339380a4600190565b505090565b6001600160a01b031660008181527f702fe919a6a7971e34c596917a48306a624527a41d0aa0fcf43050b6a305324860205260408120549091907f114e74f6ea3bd819998f78687bfcb11b140da08e9b7d222fa9c1f1ba1f2aa1229060ff1662000fbf5780835260066020526040832082845260205260408320600160ff1982541617905560008051602062005bf9833981519152339380a4600190565b6001600160a01b031660008181527f4448119502453e295a09f7d4e8a6a0575d3624c233f99f59abf0835bf259780a60205260408120549091907fcab5a0bfe0b79d2c4b1c2e02599fa044d115b7511f9659307cb42769509677099060ff1662000fbf5780835260066020526040832082845260205260408320600160ff1982541617905560008051602062005bf9833981519152339380a460019056fe6080604052600436101561001257600080fd5b60003560e01c8063010648ca1461397e57806301ffc9a71461392857806304caa6dd14613897578063056097ac14613581578063062d3bd71461355857806306fdde03146134c7578063095ea7b314613441578063134e18f4146133fc57806317c9efb0146133dc57806318160ddd146133be5780631eac4c8c1461339e578063221322d51461335c57806322459e181461333357806323b872dd1461324a578063248a9ca31461321b578063266565a9146131e157806328b1c4631461319057806328b73110146131675780632927c818146130f65780632f2ff15d146130b757806330e828031461306f578063313ce5671461305357806336568abe1461300c5780633ad8b2d714612ec95780633d31adba14612ea95780633e413bee14612e645780633f4ba83a14612d7c5780633f89797e14612bc15780634721ed6f14612b72578063559d3d4b14612b4f5780635b91dafa14612b2f5780635c975abb14612b0c57806365880d1614612aec5780636d77cad614612abd5780636da66355146128f457806370a08231146128ba578063740ab8f41461275c57806382aefa2414612733578063884a41be146125db5780638c0dee9c1461249657806391d148541461244957806395d89b4114612383578063985ffec0146123085780639fa5f50b1461228d578063a217fddf14612271578063a26734dc14612245578063a2ccd6081461221c578063a4df6c6a14612188578063a7688b971461215f578063a9059cbb1461212e578063ab7294f01461208d578063ac7ad47814611e9b578063b10d6b4114611da7578063b234de8214611d81578063b6363cf214611d4b578063b895abc614611d2b578063b9b8c2461461162e578063c3f909d414610e06578063c5c4744c14610de8578063cb67f94814610c2d578063ce08095414610aec578063d547741f14610aab578063d7e64c0014610a8d578063db006a7514610691578063dd62ed3e14610640578063e583983614610604578063e9b2f0ad14610539578063ef9ba955146104b7578063f3d490db146103d3578063f64502931461039c5763fad8b32a1461032957600080fd5b3461039757602036600319011261039757610342613d5a565b33600052601f60205260406000209060018060a01b03169081600052602052604060002060ff19815416905533907fa8082fae8d1bd57faeb4dde45721b46afb72c45e72e5deb2a355bd997f6251a9600080a3005b600080fd5b346103975760203660031901126103975760206103ba600435613dd0565b905460405160039290921b1c6001600160a01b03168152f35b34610397576080366003190112610397576004356103ef613d70565b6064359190604435906001600160401b038411610397576104166020943690600401613c3e565b505061042061470a565b6104286146e7565b610441600080516020614a438339815191528414613fce565b61046561044f838333614728565b906001600160f81b031916605160f81b14614011565b61046e33614257565b61047781614257565b610483828233866143a9565b6040519182526001600160a01b03169033908390600080516020614983833981519152908690a46001600755604051908152f35b346103975760a0366003190112610397576104d0613d70565b6104d8613d86565b90608435906001600160401b038211610397576105359261050061050e933690600401613c3e565b50506064359160043561409f565b60409391935193849360ff60f81b1684526020840152606060408401526060830190613d1a565b0390f35b3461039757604036600319011261039757610552613d5a565b6024359061055e6141ad565b60018060a01b03169081600052601a60205280604060002054106105c35760207f9bed35cb62ad0dba04f9d5bfee4b5bc91443e77da8a65c4c84834c51bb08b0d69183600052601a825260406000206105b8828254613e91565b9055604051908152a2005b60405162461bcd60e51b815260206004820152601960248201527829aaa9209d1034b739bab33334b1b4b2b73a10333937bd32b760391b6044820152606490fd5b34610397576020366003190112610397576001600160a01b03610625613d5a565b16600052601a60205260206040600020541515604051908152f35b3461039757604036600319011261039757610659613d5a565b610661613d70565b9060018060a01b038091166000526001602052604060002091166000526020526020604060002054604051908152f35b346103975760208060031936011261039757600435906106af6146e7565b6106b761470a565b60ff60155460081c1615610a4a5733600052601781526040600020600080516020614a43833981519152908160005282528260406000205410610a065760405163b9209e3360e01b81523360048201526001600160a01b039083816024817f000000000000000000000000000000000000000000000000000000000000000086165afa9081156108f9576000916109e9575b50156109af57670de0b6b3a7640000610764600f5486613f09565b04907f000000000000000000000000000000000000000000000000000000000000000016916040516370a0823160e01b81523060048201528481602481875afa80156108f957839160009161097e575b501061093f576107c333614257565b3315610926576107d161470a565b336000526000845284604060002054818110610905579261087592600095928795338852878752036040872055876002540360025585604051898152600080516020614a63833981519152873392a3338652601785526040862081875285526040862061083f898254613e91565b905585526018845260408520610856888254613e91565b905560405194858094819363a9059cbb60e01b83523360048401613fb3565b03925af180156108f957610891916000916108cc575b50613ec0565b60006040519180835282015233907fb7d0d6b60740753e9f16692a2f479472a1385aec2420fa43225b02f2ffa1afe760403392a46001600755005b6108ec9150833d85116108f2575b6108e48183613cf7565b810190613e23565b8461088b565b503d6108da565b6040513d6000823e3d90fd5b61092260405192839263391434e360e21b845233600485016143e7565b0390fd5b604051634b637e8f60e11b815260006004820152602490fd5b60405162461bcd60e51b8152600481018590526017602482015276535552413a20696e73756666696369656e74205553444360481b6044820152606490fd5b809250868092503d83116109a8575b6109978183613cf7565b8101031261039757829051876107b4565b503d61098d565b60405162461bcd60e51b815260048101849052601260248201527114d554904e881b9bdd081d995c9a599a595960721b6044820152606490fd5b610a009150843d86116108f2576108e48183613cf7565b85610749565b60405162461bcd60e51b815260048101839052601c60248201527b535552413a20696e73756666696369656e7420747261646561626c6560201b6044820152606490fd5b6064906040519062461bcd60e51b82526004820152601c60248201527b14d554904e881c9959195b5c1d1a5bdb881b9bdd08195b98589b195960221b6044820152fd5b34610397576000366003190112610397576020601d54604051908152f35b3461039757604036600319011261039757610aea600435610aca613d70565b90806000526006602052610ae5600160406000200154614231565b614670565b005b34610397576020806003193601126103975760043590610b0a614145565b8115610bf5576040516323b872dd60e01b8152818180610b2f86303360048501613e9e565b038160007f00000000000000000000000000000000000000000000000000000000000000006001600160a01b03165af19081156108f957600091610bd8575b5015610b9d5750337f28cbb7b0d1ddb247c338645e13898d3f1cc22268880f19aae4745b89da8b4523600080a3005b6064906040519062461bcd60e51b82526004820152601460248201527314d554904e8819195c1bdcda5d0819985a5b195960621b6044820152fd5b610bef9150823d84116108f2576108e48183613cf7565b83610b6e565b6064906040519062461bcd60e51b82526004820152601160248201527014d554904e881e995c9bc8185b5bdd5b9d607a1b6044820152fd5b3461039757602080600319360112610397576001600160a01b03610c4f613d5a565b16806000526019825265ffffffffffff604060002054164210610da857806000526017825260406000206000805160206149a3833981519152908160005283526040600020548015610d6a57829360008051602061498383398151915291846000526017825260406000208460005282526040600020610cd0828254613e91565b905583600052601882526040600020610cea828254613e91565b905584600052601782526040600020600080516020614a43833981519152908160005283526040600020610d1f838254613e3b565b9055600052601882526040600020610d38828254613e3b565b90556040519080867fe7b379c6c1fa169e9079c25e9143b127637eef8ec8c9d5c06ddb4ab3e1195888600080a38152a4005b60405162461bcd60e51b8152600481018590526016602482015275535552413a206e6f206c6f636b656420746f6b656e7360501b6044820152606490fd5b60405162461bcd60e51b815260048101839052601860248201527714d554904e881b1bd8dadd5c081b9bdd08195e1c1a5c995960421b6044820152606490fd5b34610397576000366003190112610397576020601e54604051908152f35b346103975760003660031901126103975760006101a0604051610e2881613ca5565b6060815260606020820152606060408201526060808201528260808201528260a08201528260c08201528260e08201526060610100820152826101208201528261014082015282610160820152826101808201520152604051610e8a81613ca5565b604051600a54816000610e9c83613c6b565b808352926001811690811561160f57506001146115af575b610ec092500382613cf7565b8152604051600b54816000610ed483613c6b565b80835292600181169081156115905750600114611530575b610ef892500382613cf7565b6020820152604051600c54816000610f0f83613c6b565b808352926001811690811561151157506001146114b1575b610f3392500382613cf7565b6040820152604051600081600d5491610f4b83613c6b565b80835292600181169081156114925750600114611432575b610f6f92500382613cf7565b6060820152600e546080820152600f5460a082015260105460c082015260115460e082015260405180816020601254928381520160126000526020600020926000905b80600f83011061134a57611048945491818110611335575b81811061131d575b818110611306575b8181106112ee575b8181106112d6575b8181106112be575b8181106112a6575b81811061128e575b818110611276575b81811061125e575b818110611246575b81811061122e575b818110611216575b8181106111fe575b8181106111e6575b106111d8575b500382613cf7565b61010082015260135465ffffffffffff811661012083015265ffffffffffff8160301c1661014083015260601c61016082015261ffff60145460018060a01b03811661018084015260a01c166101a0820152604051602081526111046110ee6110d86110c285516101c060208701526101e0860190613d1a565b6020860151858203601f19016040870152613d1a565b6040850151848203601f19016060860152613d1a565b6060840151838203601f19016080850152613d1a565b608083015160a083015260a083015160c083015260c083015160e083015260e083015161010083015261010083015190601f19838203016101208401526020808351928381520192019060005b8181106111be5750505061ffff6101a08465ffffffffffff610120869701511661014086015265ffffffffffff6101408201511661016086015260018060a01b036101608201511661018086015260018060a01b0361018082015116828601520151166101c08301520390f35b825161ffff16845260209384019390920191600101611151565b60f01c815260200185611040565b92602060019161ffff8560e01c16815201930161103a565b92602060019161ffff8560d01c168152019301611032565b92602060019161ffff8560c01c16815201930161102a565b92602060019161ffff8560b01c168152019301611022565b92602060019161ffff8560a01c16815201930161101a565b92602060019161ffff8560901c168152019301611012565b92602060019161ffff8560801c16815201930161100a565b92602060019161ffff8560701c168152019301611002565b92602060019161ffff8560601c168152019301610ffa565b92602060019161ffff8560501c168152019301610ff2565b92602060019161ffff8560401c168152019301610fea565b92602060019161ffff8560301c168152019301610fe2565b92602060019161ffff85831c168152019301610fda565b92602060019161ffff8560101c168152019301610fd2565b92602060019161ffff85168152019301610fca565b916010919350610200600191865461ffff8116825261ffff81861c16602083015261ffff8160201c16604083015261ffff8160301c16606083015261ffff8160401c16608083015261ffff8160501c1660a083015261ffff8160601c1660c083015261ffff8160701c1660e083015261ffff8160801c1661010083015261ffff8160901c1661012083015261ffff8160a01c1661014083015261ffff8160b01c1661016083015261ffff8160c01c1661018083015261ffff8160d01c166101a083015261ffff8160e01c166101c083015260f01c6101e0820152019401920184929391610fb2565b50600d600090815290917fd7b6990105719101dabeb77144f2a3385c8033acd3af97e9423a695e81ad1eb55b818310611476575050906020610f6f92820101610f63565b602091935080600191548385880101520191019091839261145e565b60209250610f6f94915060ff191682840152151560051b820101610f63565b50600c600090815290917fdf6966c971051c3d54ec59162606531493a51404a002842f56009d7e5cf4a8c75b8183106114f5575050906020610f3392820101610f27565b60209193508060019154838588010152019101909183926114dd565b60209250610f3394915060ff191682840152151560051b820101610f27565b50600b600090815290917f0175b7a638427703f0dbe7bb9bbf987a2551717b34e79f33b5b1008d1fa01db95b818310611574575050906020610ef892820101610eec565b602091935080600191548385880101520191019091839261155c565b60209250610ef894915060ff191682840152151560051b820101610eec565b50600a600090815290917fc65a7bb8d6351c1cf70c95a316cc6a92839c986682d98bc35f958f4883f9d2a85b8183106115f3575050906020610ec092820101610eb4565b60209193508060019154838588010152019101909183926115db565b60209250610ec094915060ff191682840152151560051b820101610eb4565b3461039757604036600319011261039757611647613d5a565b60248035916000805160206149e38339815191528060005260209060068252604060002033600052825260ff6040600020541615611d0e575061168861470a565b6116906146e7565b60ff60155416611cd35765ffffffffffff9384601354164211611c965760018060a01b039160405194636c85cf6760e01b86526000600487015283851694858288015260449683818981897f0000000000000000000000000000000000000000000000000000000000000000165afa9081156108f957600091611c79575b5015611c3857670de0b6b3a7640000808502908582041485151715611a8457600f5461173991613f1c565b966011548810611c005761174f88600254613e3b565b60105410611bc35761271061176d61ffff60145460a01c1687613f09565b046117788187613e91565b6040516323b872dd60e01b815290917f00000000000000000000000000000000000000000000000000000000000000008916918781806117bd8c303360048501613e9e565b03816000875af19081156108f957600091611ba6575b5015611b6a576117ff878a60145416926040518093819263a9059cbb60e01b9687845260048401613fb3565b03816000875af19081156108f957600091611b4d575b5015611b0e5791869161184093600060135460601c9160405196879586948593845260048401613fb3565b03925af19081156108f957600091611af1575b5015611aaf575061186390614257565b8415611a995761187161470a565b61187d86600254613e3b565b60025584600052600082526040600020868154019055846000600080516020614a63833981519152846040518a8152a384600052601782526040600020936000805160206149a38339815191529485600052835260406000206118e1888254613e3b565b9055846000526018835260406000206118fb888254613e3b565b90558760135460301c168842160197808911611a8457918795939187959386600052601984526040600020908082549c169b8c8092821610611a70575b50505061194784601e54613e3b565b601e5585600052601b83526040600020805460ff8116156119d0575b505050506000805160206149438339815191528491604051878152a37f1dbbe618f2c7a9f1debd8e797e1577d775be2ca6a03382b04be5648e68c78104600080a47fbd98336ea73e8cfc7545bd4e9ec9c268e8c8b6f434742d875649a3fae244476a600080a46001600755005b60ff19166001179055601c549496509294509092909190600160401b811015611a5b57806001611a039201601c55613dd0565b819291549060031b9188831b921b1916179055601d54906000198214611a475750600101601d55849284929091600080516020614943833981519152848a80611963565b634e487b7160e01b60009081526011600452fd5b82634e487b7160e01b60005260416004526000fd5b65ffffffffffff19161790558a8a81611938565b82634e487b7160e01b60005260116004526000fd5b60405163ec442f0560e01b815260006004820152fd5b837f535552413a2070726f6365656473207472616e73666572206661696c65640000606492601e866040519462461bcd60e51b86526004860152840152820152fd5b611b089150853d87116108f2576108e48183613cf7565b8a611853565b60405162461bcd60e51b8152600481018890526019818801527814d554904e88199959481d1c985b9cd9995c8819985a5b1959603a1b81860152606490fd5b611b649150883d8a116108f2576108e48183613cf7565b8d611815565b60405162461bcd60e51b8152600481018890526016818801527514d554904e881554d110c81c1d5b1b0819985a5b195960521b81860152606490fd5b611bbd9150883d8a116108f2576108e48183613cf7565b8d6117d3565b8377535552413a2065786365656473206d617820737570706c7960401b6064926018866040519462461bcd60e51b86526004860152840152820152fd5b8372535552413a2062656c6f77206d696e696d756d60681b6064926013866040519462461bcd60e51b86526004860152840152820152fd5b60405162461bcd60e51b815260048101849052601b818401527a14d554904e881a5b9d995cdd1bdc881b9bdd081d995c9a599a5959602a1b81890152606490fd5b611c909150843d86116108f2576108e48183613cf7565b8961170e565b60405162461bcd60e51b8152600481018390526016818601527514d554904e881bd999995c9a5b99c8195e1c1a5c995960521b6044820152606490fd5b6064906015846040519262461bcd60e51b845260048401528201527414d554904e881bd999995c9a5b99c818db1bdcd959605a1b6044820152fd5b836044916040519163e2517d3f60e01b8352336004840152820152fd5b3461039757600036600319011261039757604051602b60f91b8152602090f35b34610397576040366003190112610397576020611d77611d69613d5a565b611d71613d70565b9061403d565b6040519015158152f35b3461039757600036600319011261039757602060ff60155460081c166040519015158152f35b34610397576020806003193601126103975760043560005260088152604060002090600190600183019165ffffffffffff60028554950154169060405193600091815491611df483613c6b565b8088529260018116908115611e795750600114611e40575b50505093611e1f84611e33960385613cf7565b604051948594606086526060860190613d1a565b9284015260408301520390f35b60009081528581209093505b828410611e665750505083018201611e1f84611e33611e0c565b8054878501870152928501928101611e4c565b60ff191687890152505050151560051b840183019050611e1f84611e33611e0c565b346103975760208060031936011261039757611eb5613d5a565b90611ebe6141f7565b6001600160a01b0382811692908315612053577f000000000000000000000000000000000000000000000000000000000000000016604051916370a0823160e01b83523060048401528383602481855afa9283156108f957600093612024575b508215611fe65782611f4a928592600060405180968195829463a9059cbb60e01b845260048401613fb3565b03925af19081156108f957600091611fc9575b5015611f8f57907fa4e6799a53d037c8e49217233616ac11a98bf48a7f8a9f9c53d318febcbb1b6891604051908152a2005b60405162461bcd60e51b815260048101839052601260248201527114d554904e881cddd9595c0819985a5b195960721b6044820152606490fd5b611fe09150833d85116108f2576108e48183613cf7565b84611f5d565b60405162461bcd60e51b81526004810185905260166024820152750535552413a206e6f7468696e6720746f2073776565760541b6044820152606490fd5b9092508381813d831161204c575b61203c8183613cf7565b8101031261039757519185611f1e565b503d612032565b60405162461bcd60e51b8152600481018490526012602482015271535552413a207a65726f206164647265737360701b6044820152606490fd5b34610397576000366003190112610397576120a6614145565b60155460ff81166120f25760019060ff1916176015557fc566557ce4cb9ae8e7b1ebb1215c266fb3ef7b87e5a726107e9188fd256423fb6040601e5460025482519182526020820152a1005b60405162461bcd60e51b815260206004820152601460248201527314d554904e88185b1c9958591e4818db1bdcd95960621b6044820152606490fd5b346103975760403660031901126103975761215461214a613d5a565b6024359033614405565b602060405160018152f35b34610397576000366003190112610397576020604051600080516020614a438339815191528152f35b34610397576040366003190112610397576121a1613d5a565b7fa065e63c631c86f1b9f66a4a2f63f2093bf1c2168d23290259dbd969e0222a456020602435926121d06141ad565b60018060a01b0316928360005260008252612204604060002054601a84526121fd83604060002054613e3b565b1115613e48565b83600052601a825260406000206105b8828254613e3b565b346103975760003660031901126103975760206040516000805160206149a38339815191528152f35b346103975760203660031901126103975760043560005260186020526020604060002054604051908152f35b3461039757600036600319011261039757602060405160008152f35b346103975760003660031901126103975760405160098054808352600091825260208084019392600080516020614a8383398151915292915b8282106122f157610535856122dd81890382613cf7565b604051918291602083526020830190613d9c565b8354865294850194600193840193909101906122c6565b3461039757602036600319011261039757602061237b612326613d5a565b61234a6021549160018060a01b031691826000526022855260406000205490613e91565b9060005260238352670de0b6b3a76400006123746040600020549260008652604060002054613f09565b0490613e3b565b604051908152f35b34610397576000366003190112610397576040516004546000826123a683613c6b565b91828252602093600190856001821691826000146124295750506001146123e9575b506123d592500383613cf7565b610535604051928284938452830190613d1a565b849150600460005281600020906000915b8583106124115750506123d59350820101856123c8565b805483890185015287945086939092019181016123fa565b60ff1916858201526123d595151560051b85010192508791506123c89050565b3461039757604036600319011261039757612462613d70565b600435600052600660205260406000209060018060a01b0316600052602052602060ff604060002054166040519015158152f35b346103975760c0366003190112610397576004356124b2613d70565b906124bb613d86565b916064356001600160401b03608435818111610397576124df903690600401613c3e565b505060a435908111610397576124f9903690600401613c3e565b505061250361470a565b61250b6146e7565b612516823385613f3c565b15612596578260008051602061498383398151915260208096612548600080516020614a438339815191528514613fce565b61255661044f868389614728565b61255f86614257565b61256881614257565b612574858288876143a9565b6040519485526001600160a01b03908116951693a46001600755604051908152f35b60405162461bcd60e51b815260206004820152601d60248201527f535552413a206e6f7420617574686f7269736564206f70657261746f720000006044820152606490fd5b34610397576000366003190112610397576125f46146e7565b6125fc61470a565b61260533614257565b3360005260206023815260406000205480156126f5578161264a913360005260238252600060408120556040518093819263a9059cbb60e01b83523360048401613fb3565b038160007f00000000000000000000000000000000000000000000000000000000000000006001600160a01b03165af19081156108f9576000916126d8575b5015612696576001600755005b6064906040519062461bcd60e51b82526004820152601b60248201527a14d554904e8818db185a5b481d1c985b9cd9995c8819985a5b1959602a1b6044820152fd5b6126ef9150823d84116108f2576108e48183613cf7565b82612689565b60405162461bcd60e51b8152600481018390526016602482015275535552413a206e6f7468696e6720746f20636c61696d60501b6044820152606490fd5b34610397576000366003190112610397576020604051600080516020614a038339815191528152f35b3461039757602080600319360112610397576128819061277a613d5a565b6040519161278783613cc1565b600383526060368285013760405161279e81613cc1565b600381528181019260603685376000805160206149a383398151915290816127c587613f86565b526001600160a01b0316600081815260178552604080822093825292855291909120546127f183613f86565b52600080516020614a238339815191528061280b87613f93565b528160005260178452604060002090600052835260406000205461282e83613f93565b52600080516020614a43833981519152908161284987613fa3565b5260005260178352604060002090600052825260406000205461286b82613fa3565b5281604051958695604087526040870190613d9c565b9185830382870152519182815201929160005b8281106128a357505050500390f35b835185528695509381019392810192600101612894565b34610397576020366003190112610397576001600160a01b036128db613d5a565b1660005260006020526020604060002054604051908152f35b3461039757602080600319360112610397576001600160401b039060043582811161039757612927903690600401613c3e565b9190926129326141ad565b8211612aa757612943601654613c6b565b601f8111612a6b575b506000601f83116001146129f257600080516020614aa38339815191529361298f84806129e2946000916129e7575b508160011b916000199060031b1c19161790565b6016555b61299b61470a565b600160ff1960055416176005557f62e78cea01bee320cd4e420270b5ea74000d11b0c9f74754ebdbfc544b05a25883604051338152a1604051938385948552840191613e02565b0390a1005b90508301358861297b565b601f198316906016600052826000209160005b818110612a54575091600080516020614aa38339815191529591856129e29410612a3a575b5050600184811b01601655612993565b820135600019600387901b60f8161c191690558580612a2a565b91928460018192868a013581550194019201612a05565b612a9790601660005282600020601f850160051c810191848610612a9d575b601f0160051c0190613deb565b8361294c565b9091508190612a8a565b634e487b7160e01b600052604160045260246000fd5b34610397576060366003190112610397576020611d77612adb613d70565b612ae3613d86565b90600435613f3c565b3461039757600036600319011261039757604051605560f81b8152602090f35b3461039757600036600319011261039757602060ff600554166040519015158152f35b3461039757600036600319011261039757604051600560fc1b8152602090f35b3461039757600036600319011261039757602060ff601554166040519015158152f35b3461039757600036600319011261039757612b8b6141f7565b61010061ff001960155416176015557fe6bb2bbdbe50ba7ec5c0a39299abfd7e6e664f7191f21f458f9091a59113f3f5600080a1005b346103975760208060031936011261039757600435612bde614145565b612be66146e7565b60025415612d39578015612cfa576040516323b872dd60e01b8152828180612c1385303360048501613e9e565b038160007f00000000000000000000000000000000000000000000000000000000000000006001600160a01b03165af180156108f957612c5a91600091612ce35750613ec0565b670de0b6b3a76400008102670de0b6b3a763ffff1982820401612ccd57612ca57f34fed24cebff9f2f4a855b41130e3120797d67a70a0695599980f6e8321576059160025490613f1c565b92612cb284602154613e3b565b60215560405193845265ffffffffffff421693a36001600755005b634e487b7160e01b600052601160045260246000fd5b6108ec9150843d86116108f2576108e48183613cf7565b60405162461bcd60e51b815260048101839052601760248201527629aaa9209d103d32b937903234b9ba3934b13aba34b7b760491b6044820152606490fd5b60405162461bcd60e51b815260048101839052601b60248201527a535552413a206e6f20746f6b656e73206f75747374616e64696e6760281b6044820152606490fd5b3461039757600036600319011261039757612d956141f7565b612da0601654613c6b565b601f8111612e25575b50600060165560055460ff811615612e135760ff19166005557f5db9ee0a495bf2e6ff9c91a7834c1ba4fdd244a5e8aa4e537bd38aeae4b073aa6020604051338152a17f3cd348ff56b5e60ffb00b5cc262c0dff28e4741cdf0375413cd4ab8fe440e6aa600080a1005b604051638dfc202b60e01b8152600490fd5b6016600052612e5e90601f0160051c7fd833147d7dc355ba459fc788f669e58cfaf9dc25ddcd0702e87d69c7b512428990810190613deb565b80612da9565b34610397576000366003190112610397576040517f00000000000000000000000000000000000000000000000000000000000000006001600160a01b03168152602090f35b3461039757600036600319011261039757604051601560fa1b8152602090f35b3461039757608036600319011261039757612ee2613d5a565b612eea613d70565b6044359190606435906001600160401b03821161039757612fd193612f347fbb53097141337c38a36fed7fae913304cd0c540e1200dbb4c8c1cee707f9f2c2933690600401613c3e565b9590612f3e6141ad565b60018060a01b0380871696876000526000602052612f63856040600020541015613e48565b612f6c81614257565b612f7586614257565b87600052601760205260406000206000805160206149a383398151915260005260205284866040600020549282841015600014612fd657612fb693506142ef565b60405194859485526040602086015216966040840191613e02565b0390a3005b9183156130015750612ff683612ff0612ffc9584866142ef565b88613e91565b9161435c565b612fb6565b91612ffc935061435c565b3461039757604036600319011261039757613025613d70565b336001600160a01b0382160361304157610aea90600435614670565b60405163334bd91960e11b8152600490fd5b3461039757600036600319011261039757602060405160128152f35b34610397576040366003190112610397576001600160a01b03613090613d70565b16600052601760205260406000206004356000526020526020604060002054604051908152f35b3461039757604036600319011261039757610aea6004356130d6613d70565b908060005260066020526130f1600160406000200154614231565b6145f0565b346103975760203660031901126103975761310f613d5a565b33600052601f60205260406000209060018060a01b031690816000526020526040600020600160ff1982541617905533907f53259f2856b419867f664440d2c08c733cf9c3f57f715f6cbc2c298e093283a6600080a3005b34610397576000366003190112610397576020604051600080516020614a238339815191528152f35b34610397576040366003190112610397576131a9613d70565b60043560009081526020808052604080832033845282528083206001600160a01b03909416835292905220805460ff19166001179055005b34610397576020366003190112610397576001600160a01b03613202613d5a565b16600052601a6020526020604060002054604051908152f35b346103975760203660031901126103975760043560005260066020526020600160406000200154604051908152f35b3461039757606036600319011261039757613263613d5a565b61326b613d70565b6001600160a01b038216600081815260016020908152604080832033845290915290205492604435929160001985106132aa575b506121549350614405565b8385106133165780156132fd5733156132e4576121549484916000526001602052604060002033600052602052036040600020558461329f565b604051634a1406b160e11b815260006004820152602490fd5b60405163e602df0560e01b815260006004820152602490fd5b604051637dc7a0d960e11b815280610922868833600485016143e7565b346103975760003660031901126103975760206040516000805160206149e38339815191528152f35b34610397576020366003190112610397576001600160a01b0361337d613d5a565b166000526019602052602065ffffffffffff60406000205416604051908152f35b3461039757600036600319011261039757604051602960f91b8152602090f35b34610397576000366003190112610397576020600254604051908152f35b3461039757600036600319011261039757604051605160f81b8152602090f35b34610397576000366003190112610397576040517f00000000000000000000000000000000000000000000000000000000000000006001600160a01b03168152602090f35b346103975760403660031901126103975761345a613d5a565b6024359033156132fd576001600160a01b03169081156132e457336000526001602052604060002082600052602052806040600020556040519081527f8c5be1e5ebec7d5bd14f71427d1e84f3dd0314c0f7b2291e5b200ac8c7c3b92560203392a3602060405160018152f35b34610397576000366003190112610397576040516003546000826134ea83613c6b565b918282526020936001908560018216918260001461242957505060011461351857506123d592500383613cf7565b849150600360005281600020906000915b8583106135405750506123d59350820101856123c8565b80548389018501528794508693909201918101613529565b346103975760003660031901126103975760206040516000805160206149c38339815191528152f35b346103975760403660031901126103975761359a613d5a565b6135a2613d70565b906135ab6141ad565b60405163b9209e3360e01b81526001600160a01b038381166004830181905292916020919082816024817f000000000000000000000000000000000000000000000000000000000000000086165afa9081156108f95760009161387a575b50156138355782169182600052600082526040600020549081156137f3577f401f439d865a766757ec78675925bd67198d5e78805aa41691b34b5d6a6cbbe693949561365482614257565b61365d81614257565b856000526017845260406000206000805160206149a383398151915260005284526040600020549086600052601785526040600020600080516020614a23833981519152908160005286526040600020549088600052601787526040600020600080516020614a43833981519152600052875260406000205493806137e2575b5081613786575b505081613775575b505050846000526019825265ffffffffffff8060406000205416908560005260406000205416809110613757575b5083600052602382526040600020548560005261373d6040600020918254613e3b565b9055836000526023825260006040812055604051908152a3005b8560005260406000209065ffffffffffff198254161790558561371a565b61377e9261435c565b8580806136ec565b613791828487614405565b8860005260178752604060002081600052875260406000206137b4838254613e91565b9055896000526017875260406000209060005286526137d96040600020918254613e3b565b905588806136e4565b6137ed9084876142ef565b8a6136dd565b60405162461bcd60e51b815260048101849052601a60248201527929aaa9209d103737903a37b5b2b739903a37903932b1b7bb32b960311b6044820152606490fd5b60405162461bcd60e51b815260048101839052601d60248201527f535552413a206e65772077616c6c6574206e6f742076657269666965640000006044820152606490fd5b6138919150833d85116108f2576108e48183613cf7565b86613609565b34610397576000366003190112610397576040516016546000826138ba83613c6b565b91828252602093600190856001821691826000146124295750506001146138e857506123d592500383613cf7565b849150601660005281600020906000915b8583106139105750506123d59350820101856123c8565b805483890185015287945086939092019181016138f9565b346103975760203660031901126103975760043563ffffffff60e01b811680910361039757602090637965db0b60e01b811490811561396d575b506040519015158152f35b6301ffc9a760e01b14905082613962565b34610397576060366003190112610397576024356001600160401b038111610397576139ae903690600401613c3e565b906139b7614145565b600435600052600860205265ffffffffffff6002604060002001541615613bea575b604051606081016001600160401b03811182821017612aa75760405260443581526001600160401b038311612aa757604051613a1f601f8501601f191660200182613cf7565b83815236848401116103975783836020830137600060208583010152602082015265ffffffffffff42166040820152600435600052600860205260406000208151815560018082019060208401519081519160018060401b038311612aa757613a888454613c6b565b601f8111613bb8575b50602091601f8411600114613b2c57506000805160206149638339815191529694613b0e9694613ae68565ffffffffffff96604096600296600092613b21575b50508160011b916000199060031b1c19161790565b90555b019201511665ffffffffffff1982541617905560405193604085526040850191613e02565b91604435602082015280600435930390a2005b015190508d80613ad1565b9190601f198416856000526020600020936000905b828210613b9f575050946001856040956002956000805160206149638339815191529c9a9565ffffffffffff99613b0e9d9b10613b86575b505050811b019055613ae9565b015160001960f88460031b161c191690558c8080613b79565b9093946020828192888701518155019601940190613b41565b613be490856000526020600020601f860160051c81019160208710612a9d57601f0160051c0190613deb565b88613a91565b600954600160401b811015612aa7576001810180600955811015613c28576009600052600435600080516020614a83833981519152909101556139d9565b634e487b7160e01b600052603260045260246000fd5b9181601f84011215610397578235916001600160401b038311610397576020838186019501011161039757565b90600182811c92168015613c9b575b6020831014613c8557565b634e487b7160e01b600052602260045260246000fd5b91607f1691613c7a565b6101c081019081106001600160401b03821117612aa757604052565b608081019081106001600160401b03821117612aa757604052565b604081019081106001600160401b03821117612aa757604052565b601f909101601f19168101906001600160401b03821190821017612aa757604052565b919082519283825260005b848110613d46575050826000602080949584010152601f8019910116010190565b602081830181015184830182015201613d25565b600435906001600160a01b038216820361039757565b602435906001600160a01b038216820361039757565b604435906001600160a01b038216820361039757565b90815180825260208080930193019160005b828110613dbc575050505090565b835185529381019392810192600101613dae565b601c54811015613c2857601c60005260206000200190600090565b818110613df6575050565b60008155600101613deb565b908060209392818452848401376000828201840152601f01601f1916010190565b90816020910312610397575180151581036103975790565b91908201809211612ccd57565b15613e4f57565b60405162461bcd60e51b815260206004820152601a602482015279535552413a20696e73756666696369656e742062616c616e636560301b6044820152606490fd5b91908203918211612ccd57565b6001600160a01b03918216815291166020820152604081019190915260600190565b15613ec757565b60405162461bcd60e51b815260206004820152601a60248201527914d554904e881554d110c81d1c985b9cd9995c8819985a5b195960321b6044820152606490fd5b81810292918115918404141715612ccd57565b8115613f26570490565b634e487b7160e01b600052601260045260246000fd5b6000908152602080805260408083206001600160a01b038087168552908352818420908516845290915290205460ff1691908215613f7957505090565b613f83925061403d565b90565b805115613c285760200190565b805160011015613c285760400190565b805160021015613c285760600190565b6001600160a01b039091168152602081019190915260400190565b15613fd557565b60405162461bcd60e51b8152602060048201526014602482015273535552413a206f6e6c7920545241444541424c4560601b6044820152606490fd5b156140195750565b60405162461bcd60e51b815260206004820152908190610922906024830190613d1a565b9060018060a01b0380600092168252601f6020526040822092169182825260205260ff60408220541691821561407257505090565b60ff9250906040916000805160206149e38339815191528252600660205282822090825260205220541690565b9392909160ff6005541661411157600080516020614a4383398151915285036140d0576140cb92614728565b909291565b5050604051605560f81b939291506140e781613cdc565b601a8152792737ba1034b7102a2920a222a0a12622903830b93a34ba34b7b760311b602082015290565b5050604051601560fa1b9392915061412881613cdc565b600d81526c14d513c81a5cc81c185d5cd959609a1b602082015290565b3360009081527f702fe919a6a7971e34c596917a48306a624527a41d0aa0fcf43050b6a30532486020526040902054600080516020614a038339815191529060ff161561418f5750565b6044906040519063e2517d3f60e01b82523360048301526024820152fd5b3360009081527f84103e4942d70d0389ab910bdcdf181c3e028bc1897fe6797bb191ac79d8088260205260409020546000805160206149c38339815191529060ff161561418f5750565b3360009081527f54cdd369e4e8a8515e52ca72ec816c2101831ad1f18bf44102ed171459c9b4f8602052604081205460ff161561418f5750565b80600052600660205260406000203360005260205260ff604060002054161561418f5750565b6021546001600160a01b03909116600081815260226020526040808220549293909261428291613e91565b801515806142dc575b6142a0575b5060215492815260226020522055565b6142bd670de0b6b3a7640000918584528360205284842054613f09565b0483825260236020526142d4838320918254613e3b565b905538614290565b508382528160205282822054151561428b565b60409061435892614301858284614405565b60018060a01b03806000931683526017602052838320916000805160206149a38339815191529283855260205284842061433c888254613e91565b9055168252601760205282822090825260205220918254613e3b565b9055565b6040906143589261436e858284614405565b60018060a01b0380600093168352601760205283832091600080516020614a438339815191529283855260205284842061433c888254613e91565b90604091614358936143bc868285614405565b60018060a01b039081600094168452601760205284842083855260205284842061433c888254613e91565b604091949392606082019560018060a01b0316825260208201520152565b92916001600160a01b03808516918215610926578184169384156145d75760409081518094636c85cf6760e01b825286600483015287602483015281604460209788937f0000000000000000000000000000000000000000000000000000000000000000165afa9081156145cc576000916145af575b501561456c578460005260008452826144a18360002054601a8752846000205490613e91565b1061452a576144b8906144b389614257565b614257565b6144c061470a565b836000526000835280600020549682881061450d57508184959697600080516020614a638339815191529560005260008552038160002055856000528060002082815401905551908152a3565b6109228389935193849363391434e360e21b8552600485016143e7565b815162461bcd60e51b815260048101859052601b60248201527a29aaa9209d1034b739bab33334b1b4b2b73a103ab7333937bd32b760291b6044820152606490fd5b815162461bcd60e51b815260048101859052601c60248201527b14d554904e881d1c985b9cd9995c881b9bdd0818dbdb5c1b1a585b9d60221b6044820152606490fd5b6145c69150853d87116108f2576108e48183613cf7565b3861447b565b83513d6000823e3d90fd5b60405163ec442f0560e01b815260006004820152602490fd5b906000918083526006602052604083209160018060a01b03169182845260205260ff6040842054161560001461466b5780835260066020526040832082845260205260408320600160ff198254161790557f2f8788117e7eff1d82e926ec794901d17c78024a50270940304540a733656f0d339380a4600190565b505090565b906000918083526006602052604083209160018060a01b03169182845260205260ff60408420541660001461466b578083526006602052604083208284526020526040832060ff1981541690557ff6391f5c32d9c69d2a47ea670b442974b53935d1edc7fd64eb21e047a839171b339380a4600190565b6002600754146146f8576002600755565b604051633ee5aeb560e01b8152600490fd5b60ff6005541661471657565b60405163d93c066560e01b8152600490fd5b6040805163b9209e3360e01b8082526001600160a01b0394851660048301529195946020947f00000000000000000000000000000000000000000000000000000000000000008116949193929091908681602481895afa9081156149375760009161491a575b50156148dd571692848415159283614886575b50505061484d576147e490826000526017845285600020600080516020614a438339815191526000528452856000205492600052601a8452856000205490613e3b565b11614810578251605160f81b9390918201906001600160401b03821183831017612aa757526000815290565b9151602960f91b927f496e73756666696369656e7420747261646561626c652062616c616e636500009061484383613cdc565b601e835282015290565b50509151602b60f91b927614d95b99195c881b9bdd0812d650c81d995c9a599a5959604a1b9061487c83613cdc565b6017835282015290565b90919250602488518094819382528760048301525afa9081156148d2576000916148b5575b50153884816147a1565b6148cc9150843d86116108f2576108e48183613cf7565b386148ab565b86513d6000823e3d90fd5b505050505078149958d95a5d995c881b9bdd0812d650c81d995c9a599a5959603a1b602b60f91b93519161491083613cdc565b6019835282015290565b6149319150873d89116108f2576108e48183613cf7565b3861478e565b89513d6000823e3d90fdfe8514357b17ccbde354811f827b94585a7ab01b4034aa86a807b7cc2c100b7be8b4c22d60cd550a815744f04e3ff5278bf19684565ee00e2b084041b6024bd6f60f527c5f31fde91835354ad82e863e96d8637df7a0254bfb42879978fc047e56eb4a01a12a4bbfa1bc780c16c5b2b6720cdf4f3c29cabd8c0f76fec3a575096b442a94f1a1fac79af32856af2a64f63648cfa2ef3b98610a5bb7cbec4cee6985cab5a0bfe0b79d2c4b1c2e02599fa044d115b7511f9659307cb4276950967709114e74f6ea3bd819998f78687bfcb11b140da08e9b7d222fa9c1f1ba1f2aa1224f48b64f9dac9cbbd4a1df08b0c86d62dbc80df4a3f7f61f557138d3ab608f791d0c4b9d73472a65487dbdaa65a709d08d07b56ae78c49d36d4d9be4521eff57ddf252ad1be2c89b69c2b068fc378daa952ba7f163c4a11628f55a4df523b3ef6e1540171b6c0c960b71a7020d9f60077f6af931a8bbf590da0223dacf75c7af5ae146d76690e2b2fbd484f0af43653eb5fb3983df5b239a0a30422d030a7fa7a26469706673582212207618f65dce789bdf365219a46cc5593cf8d96ce36d564e1710687560cd92debe64736f6c634300081800332f8788117e7eff1d82e926ec794901d17c78024a50270940304540a733656f0dc65a7bb8d6351c1cf70c95a316cc6a92839c986682d98bc35f958f4883f9d2a8d7b6990105719101dabeb77144f2a3385c8033acd3af97e9423a695e81ad1eb5",
  "linkReferences": {},
  "deployedLinkReferences": {}
}