{
  "_format": "hh-sol-artifact-1",
  "contractName": "SURAToken",
  "sourceName": "contracts/tokens/SURAToken.sol",
  "abi": [
    {
      "inputs": [
        {
          "components": [
            {
              "internalType": "string",
              "name": "name",
              "type": "string"
            },
            {
              "internalType": "string",
              "name": "symbol",
              "type": "string"
            },
            {
              "internalType": "string",
              "name": "assetType",
              "type": "string"
            },
            {
              "internalType": "string",
              "name": "assetDescription",
              "type": "string"
            },
            {
              "internalType": "uint256",
              "name": "targetRaise",
              "type": "uint256"
            },
            {
              "internalType": "uint256",
              "name": "tokenPrice",
              "type": "uint256"
            },
            {
              "internalType": "uint256",
              "name": "maxSupply",
              "type": "uint256"
            },
            {
              "internalType": "uint256",
              "name": "minInvestment",
              "type": "uint256"
            },
            {
              "internalType": "uint16[]",
              "name": "allowedCountries",
              "type": "uint16[]"
            },
            {
              "internalType": "uint48",
              "name": "closingDate",
              "type": "uint48"
            },
            {
              "internalType": "uint48",
              "name": "lockupPeriod",
              "type": "uint48"
            },
            {
              "internalType": "address",
              "name": "issuer",
              "type": "address"
            },
            {
              "internalType": "address",
              "name": "treasury",
              "type": "address"
            },
            {
              "internalType": "uint16",
              "name": "feeBps",
              "type": "uint16"
            }
          ],
          "internalType": "struct SURAToken.STOConfig",
          "name": "config",
          "type": "tuple"
        },
        {
          "internalType": "address",
          "name": "identityRegistry_",
          "type": "address"
        },
        {
          "internalType": "address",
          "name": "usdc_",
          "type": "address"
        },
        {
          "internalType": "address",
          "name": "admin",
          "type": "address"
        },
        {
          "internalType": "address",
          "name": "complianceOfficer",
          "type": "address"
        }
      ],
      "stateMutability": "nonpayable",
      "type": "constructor"
    },
    {
      "inputs": [],
      "name": "AccessControlBadConfirmation",
      "type": "error"
    },
    {
      "inputs": [
        {
          "internalType": "address",
          "name": "account",
          "type": "address"
        },
        {
          "internalType": "bytes32",
          "name": "neededRole",
          "type": "bytes32"
        }
      ],
      "name": "AccessControlUnauthorizedAccount",
      "type": "error"
    },
    {
      "inputs": [
        {
          "internalType": "address",
          "name": "spender",
          "type": "address"
        },
        {
          "internalType": "uint256",
          "name": "allowance",
          "type": "uint256"
        },
        {
          "internalType": "uint256",
          "name": "needed",
          "type": "uint256"
        }
      ],
      "name": "ERC20InsufficientAllowance",
      "type": "error"
    },
    {
      "inputs": [
        {
          "internalType": "address",
          "name": "sender",
          "type": "address"
        },
        {
          "internalType": "uint256",
          "name": "balance",
          "type": "uint256"
        },
        {
          "internalType": "uint256",
          "name": "needed",
          "type": "uint256"
        }
      ],
      "name": "ERC20InsufficientBalance",
      "type": "error"
    },
    {
      "inputs": [
        {
          "internalType": "address",
          "name": "approver",
          "type": "address"
        }
      ],
      "name": "ERC20InvalidApprover",
      "type": "error"
    },
    {
      "inputs": [
        {
          "internalType": "address",
          "name": "receiver",
          "type": "address"
        }
      ],
      "name": "ERC20InvalidReceiver",
      "type": "error"
    },
    {
      "inputs": [
        {
          "internalType": "address",
          "name": "sender",
          "type": "address"
        }
      ],
      "name": "ERC20InvalidSender",
      "type": "error"
    },
    {
      "inputs": [
        {
          "internalType": "address",
          "name": "spender",
          "type": "address"
        }
      ],
      "name": "ERC20InvalidSpender",
      "type": "error"
    },
    {
      "inputs": [],
      "name": "EnforcedPause",
      "type": "error"
    },
    {
      "inputs": [],
      "name": "ExpectedPause",
      "type": "error"
    },
    {
      "inputs": [],
      "name": "ReentrancyGuardReentrantCall",
      "type": "error"
    },
    {
      "anonymous": false,
      "inputs": [
        {
          "indexed": true,
          "internalType": "address",
          "name": "owner",
          "type": "address"
        },
        {
          "indexed": true,
          "internalType": "address",
          "name": "spender",
          "type": "address"
        },
        {
          "indexed": false,
          "internalType": "uint256",
          "name": "value",
          "type": "uint256"
        }
      ],
      "name": "Approval",
      "type": "event"
    },
    {
      "anonymous": false,
      "inputs": [
        {
          "indexed": true,
          "internalType": "uint256",
          "name": "totalAmount",
          "type": "uint256"
        },
        {
          "indexed": false,
          "internalType": "uint256",
          "name": "perToken",
          "type": "uint256"
        },
        {
          "indexed": true,
          "internalType": "uint48",
          "name": "timestamp",
          "type": "uint48"
        }
      ],
      "name": "DistributionProcessed",
      "type": "event"
    },
    {
      "anonymous": false,
      "inputs": [
        {
          "indexed": true,
          "internalType": "bytes32",
          "name": "name",
          "type": "bytes32"
        },
        {
          "indexed": false,
          "internalType": "string",
          "name": "uri",
          "type": "string"
        },
        {
          "indexed": false,
          "internalType": "bytes32",
          "name": "docHash",
          "type": "bytes32"
        }
      ],
      "name": "DocumentUpdated",
      "type": "event"
    },
    {
      "anonymous": false,
      "inputs": [
        {
          "indexed": true,
          "internalType": "address",
          "name": "to",
          "type": "address"
        },
        {
          "indexed": false,
          "internalType": "uint256",
          "name": "amount",
          "type": "uint256"
        }
      ],
      "name": "DustSwept",
      "type": "event"
    },
    {
      "anonymous": false,
      "inputs": [
        {
          "indexed": true,
          "internalType": "address",
          "name": "from",
          "type": "address"
        },
        {
          "indexed": true,
          "internalType": "address",
          "name": "to",
          "type": "address"
        },
        {
          "indexed": false,
          "internalType": "uint256",
          "name": "amount",
          "type": "uint256"
        },
        {
          "indexed": false,
          "internalType": "string",
          "name": "reason",
          "type": "string"
        }
      ],
      "name": "ForcedTransfer",
      "type": "event"
    },
    {
      "anonymous": false,
      "inputs": [
        {
          "indexed": true,
          "internalType": "address",
          "name": "investor",
          "type": "address"
        },
        {
          "indexed": true,
          "internalType": "uint256",
          "name": "usdcAmount",
          "type": "uint256"
        },
        {
          "indexed": false,
          "internalType": "uint256",
          "name": "tokens",
          "type": "uint256"
        }
      ],
      "name": "Investment",
      "type": "event"
    },
    {
      "anonymous": false,
      "inputs": [
        {
          "indexed": true,
          "internalType": "address",
          "name": "operator",
          "type": "address"
        },
        {
          "indexed": true,
          "internalType": "address",
          "name": "to",
          "type": "address"
        },
        {
          "indexed": false,
          "internalType": "uint256",
          "name": "value",
          "type": "uint256"
        },
        {
          "indexed": false,
          "internalType": "bytes",
          "name": "data",
          "type": "bytes"
        }
      ],
      "name": "Issued",
      "type": "event"
    },
    {
      "anonymous": false,
      "inputs": [
        {
          "indexed": true,
          "internalType": "bytes32",
          "name": "partition",
          "type": "bytes32"
        },
        {
          "indexed": true,
          "internalType": "address",
          "name": "to",
          "type": "address"
        },
        {
          "indexed": false,
          "internalType": "uint256",
          "name": "value",
          "type": "uint256"
        }
      ],
      "name": "IssuedByPartition",
      "type": "event"
    },
    {
      "anonymous": false,
      "inputs": [
        {
          "indexed": false,
          "internalType": "uint256",
          "name": "totalRaised",
          "type": "uint256"
        },
        {
          "indexed": false,
          "internalType": "uint256",
          "name": "totalTokens",
          "type": "uint256"
        }
      ],
      "name": "OfferingClosed",
      "type": "event"
    },
    {
      "anonymous": false,
      "inputs": [
        {
          "indexed": true,
          "internalType": "address",
          "name": "operator",
          "type": "address"
        },
        {
          "indexed": true,
          "internalType": "address",
          "name": "tokenHolder",
          "type": "address"
        }
      ],
      "name": "OperatorAuthorised",
      "type": "event"
    },
    {
      "anonymous": false,
      "inputs": [
        {
          "indexed": true,
          "internalType": "address",
          "name": "operator",
          "type": "address"
        },
        {
          "indexed": true,
          "internalType": "address",
          "name": "tokenHolder",
          "type": "address"
        }
      ],
      "name": "OperatorRevoked",
      "type": "event"
    },
    {
      "anonymous": false,
      "inputs": [
        {
          "indexed": false,
          "internalType": "address",
          "name": "account",
          "type": "address"
        }
      ],
      "name": "Paused",
      "type": "event"
    },
    {
      "anonymous": false,
      "inputs": [
        {
          "indexed": true,
          "internalType": "address",
          "name": "operator",
          "type": "address"
        },
        {
          "indexed": true,
          "internalType": "address",
          "name": "from",
          "type": "address"
        },
        {
          "indexed": false,
          "internalType": "uint256",
          "name": "value",
          "type": "uint256"
        },
        {
          "indexed": false,
          "internalType": "bytes",
          "name": "data",
          "type": "bytes"
        }
      ],
      "name": "Redeemed",
      "type": "event"
    },
    {
      "anonymous": false,
      "inputs": [],
      "name": "RedemptionEnabled",
      "type": "event"
    },
    {
      "anonymous": false,
      "inputs": [
        {
          "indexed": true,
          "internalType": "address",
          "name": "depositor",
          "type": "address"
        },
        {
          "indexed": false,
          "internalType": "uint256",
          "name": "amount",
          "type": "uint256"
        }
      ],
      "name": "RedemptionFundDeposited",
      "type": "event"
    },
    {
      "anonymous": false,
      "inputs": [
        {
          "indexed": true,
          "internalType": "bytes32",
          "name": "role",
          "type": "bytes32"
        },
        {
          "indexed": true,
          "internalType": "bytes32",
          "name": "previousAdminRole",
          "type": "bytes32"
        },
        {
          "indexed": true,
          "internalType": "bytes32",
          "name": "newAdminRole",
          "type": "bytes32"
        }
      ],
      "name": "RoleAdminChanged",
      "type": "event"
    },
    {
      "anonymous": false,
      "inputs": [
        {
          "indexed": true,
          "internalType": "bytes32",
          "name": "role",
          "type": "bytes32"
        },
        {
          "indexed": true,
          "internalType": "address",
          "name": "account",
          "type": "address"
        },
        {
          "indexed": true,
          "internalType": "address",
          "name": "sender",
          "type": "address"
        }
      ],
      "name": "RoleGranted",
      "type": "event"
    },
    {
      "anonymous": false,
      "inputs": [
        {
          "indexed": true,
          "internalType": "bytes32",
          "name": "role",
          "type": "bytes32"
        },
        {
          "indexed": true,
          "internalType": "address",
          "name": "account",
          "type": "address"
        },
        {
          "indexed": true,
          "internalType": "address",
          "name": "sender",
          "type": "address"
        }
      ],
      "name": "RoleRevoked",
      "type": "event"
    },
    {
      "anonymous": false,
      "inputs": [
        {
          "indexed": false,
          "internalType": "string",
          "name": "reason",
          "type": "string"
        }
      ],
      "name": "STOPaused",
      "type": "event"
    },
    {
      "anonymous": false,
      "inputs": [],
      "name": "STOResumed",
      "type": "event"
    },
    {
      "anonymous": false,
      "inputs": [
        {
          "indexed": true,
          "internalType": "address",
          "name": "investor",
          "type": "address"
        },
        {
          "indexed": false,
          "internalType": "uint256",
          "name": "amount",
          "type": "uint256"
        }
      ],
      "name": "TokensFrozen",
      "type": "event"
    },
    {
      "anonymous": false,
      "inputs": [
        {
          "indexed": true,
          "internalType": "address",
          "name": "investor",
          "type": "address"
        },
        {
          "indexed": false,
          "internalType": "uint256",
          "name": "amount",
          "type": "uint256"
        },
        {
          "indexed": false,
          "internalType": "uint48",
          "name": "until",
          "type": "uint48"
        }
      ],
      "name": "TokensLocked",
      "type": "event"
    },
    {
      "anonymous": false,
      "inputs": [
        {
          "indexed": true,
          "internalType": "address",
          "name": "lostWallet",
          "type": "address"
        },
        {
          "indexed": true,
          "internalType": "address",
          "name": "newWallet",
          "type": "address"
        },
        {
          "indexed": false,
          "internalType": "uint256",
          "name": "amount",
          "type": "uint256"
        }
      ],
      "name": "TokensRecovered",
      "type": "event"
    },
    {
      "anonymous": false,
      "inputs": [
        {
          "indexed": true,
          "internalType": "address",
          "name": "investor",
          "type": "address"
        },
        {
          "indexed": false,
          "internalType": "uint256",
          "name": "amount",
          "type": "uint256"
        }
      ],
      "name": "TokensUnfrozen",
      "type": "event"
    },
    {
      "anonymous": false,
      "inputs": [
        {
          "indexed": true,
          "internalType": "address",
          "name": "investor",
          "type": "address"
        },
        {
          "indexed": false,
          "internalType": "uint256",
          "name": "amount",
          "type": "uint256"
        }
      ],
      "name": "TokensUnlocked",
      "type": "event"
    },
    {
      "anonymous": false,
      "inputs": [
        {
          "indexed": true,
          "internalType": "address",
          "name": "from",
          "type": "address"
        },
        {
          "indexed": true,
          "internalType": "address",
          "name": "to",
          "type": "address"
        },
        {
          "indexed": false,
          "internalType": "uint256",
          "name": "value",
          "type": "uint256"
        }
      ],
      "name": "Transfer",
      "type": "event"
    },
    {
      "anonymous": false,
      "inputs": [
        {
          "indexed": true,
          "internalType": "bytes32",
          "name": "fromPartition",
          "type": "bytes32"
        },
        {
          "indexed": true,
          "internalType": "address",
          "name": "from",
          "type": "address"
        },
        {
          "indexed": true,
          "internalType": "address",
          "name": "to",
          "type": "address"
        },
        {
          "indexed": false,
          "internalType": "uint256",
          "name": "value",
          "type": "uint256"
        }
      ],
      "name": "TransferByPartition",
      "type": "event"
    },
    {
      "anonymous": false,
      "inputs": [
        {
          "indexed": false,
          "internalType": "address",
          "name": "account",
          "type": "address"
        }
      ],
      "name": "Unpaused",
      "type": "event"
    },
    {
      "inputs": [],
      "name": "AGENT_ROLE",
      "outputs": [
        {
          "internalType": "bytes32",
          "name": "",
          "type": "bytes32"
        }
      ],
      "stateMutability": "view",
      "type": "function"
    },
    {
      "inputs": [],
      "name": "CODE_COMPLIANCE_FAIL",
      "outputs": [
        {
          "internalType": "bytes1",
          "name": "",
          "type": "bytes1"
        }
      ],
      "stateMutability": "view",
      "type": "function"
    },
    {
      "inputs": [],
      "name": "CODE_INSUFFICIENT",
      "outputs": [
        {
          "internalType": "bytes1",
          "name": "",
          "type": "bytes1"
        }
      ],
      "stateMutability": "view",
      "type": "function"
    },
    {
      "inputs": [],
      "name": "CODE_NOT_VERIFIED",
      "outputs": [
        {
          "internalType": "bytes1",
          "name": "",
          "type": "bytes1"
        }
      ],
      "stateMutability": "view",
      "type": "function"
    },
    {
      "inputs": [],
      "name": "CODE_PAUSED",
      "outputs": [
        {
          "internalType": "bytes1",
          "name": "",
          "type": "bytes1"
        }
      ],
      "stateMutability": "view",
      "type": "function"
    },
    {
      "inputs": [],
      "name": "CODE_SUCCESS",
      "outputs": [
        {
          "internalType": "bytes1",
          "name": "",
          "type": "bytes1"
        }
      ],
      "stateMutability": "view",
      "type": "function"
    },
    {
      "inputs": [],
      "name": "CODE_TOKENS_LOCKED",
      "outputs": [
        {
          "internalType": "bytes1",
          "name": "",
          "type": "bytes1"
        }
      ],
      "stateMutability": "view",
      "type": "function"
    },
    {
      "inputs": [],
      "name": "COMPLIANCE_ROLE",
      "outputs": [
        {
          "internalType": "bytes32",
          "name": "",
          "type": "bytes32"
        }
      ],
      "stateMutability": "view",
      "type": "function"
    },
    {
      "inputs": [],
      "name": "DEFAULT_ADMIN_ROLE",
      "outputs": [
        {
          "internalType": "bytes32",
          "name": "",
          "type": "bytes32"
        }
      ],
      "stateMutability": "view",
      "type": "function"
    },
    {
      "inputs": [],
      "name": "ISSUER_ROLE",
      "outputs": [
        {
          "internalType": "bytes32",
          "name": "",
          "type": "bytes32"
        }
      ],
      "stateMutability": "view",
      "type": "function"
    },
    {
      "inputs": [],
      "name": "PARTITION_LOCKED",
      "outputs": [
        {
          "internalType": "bytes32",
          "name": "",
          "type": "bytes32"
        }
      ],
      "stateMutability": "view",
      "type": "function"
    },
    {
      "inputs": [],
      "name": "PARTITION_TRADEABLE",
      "outputs": [
        {
          "internalType": "bytes32",
          "name": "",
          "type": "bytes32"
        }
      ],
      "stateMutability": "view",
      "type": "function"
    },
    {
      "inputs": [],
      "name": "PARTITION_VESTING",
      "outputs": [
        {
          "internalType": "bytes32",
          "name": "",
          "type": "bytes32"
        }
      ],
      "stateMutability": "view",
      "type": "function"
    },
    {
      "inputs": [
        {
          "internalType": "address",
          "name": "owner",
          "type": "address"
        },
        {
          "internalType": "address",
          "name": "spender",
          "type": "address"
        }
      ],
      "name": "allowance",
      "outputs": [
        {
          "internalType": "uint256",
          "name": "",
          "type": "uint256"
        }
      ],
      "stateMutability": "view",
      "type": "function"
    },
    {
      "inputs": [
        {
          "internalType": "address",
          "name": "spender",
          "type": "address"
        },
        {
          "internalType": "uint256",
          "name": "value",
          "type": "uint256"
        }
      ],
      "name": "approve",
      "outputs": [
        {
          "internalType": "bool",
          "name": "",
          "type": "bool"
        }
      ],
      "stateMutability": "nonpayable",
      "type": "function"
    },
    {
      "inputs": [
        {
          "internalType": "address",
          "name": "operator",
          "type": "address"
        }
      ],
      "name": "authoriseOperator",
      "outputs": [],
      "stateMutability": "nonpayable",
      "type": "function"
    },
    {
      "inputs": [
        {
          "internalType": "bytes32",
          "name": "partition",
          "type": "bytes32"
        },
        {
          "internalType": "address",
          "name": "operator",
          "type": "address"
        }
      ],
      "name": "authoriseOperatorByPartition",
      "outputs": [],
      "stateMutability": "nonpayable",
      "type": "function"
    },
    {
      "inputs": [
        {
          "internalType": "address",
          "name": "account",
          "type": "address"
        }
      ],
      "name": "balanceOf",
      "outputs": [
        {
          "internalType": "uint256",
          "name": "",
          "type": "uint256"
        }
      ],
      "stateMutability": "view",
      "type": "function"
    },
    {
      "inputs": [
        {
          "internalType": "bytes32",
          "name": "partition",
          "type": "bytes32"
        },
        {
          "internalType": "address",
          "name": "tokenHolder",
          "type": "address"
        }
      ],
      "name": "balanceOfByPartition",
      "outputs": [
        {
          "internalType": "uint256",
          "name": "",
          "type": "uint256"
        }
      ],
      "stateMutability": "view",
      "type": "function"
    },
    {
      "inputs": [
        {
          "internalType": "bytes32",
          "name": "partition",
          "type": "bytes32"
        },
        {
          "internalType": "address",
          "name": "from",
          "type": "address"
        },
        {
          "internalType": "address",
          "name": "to",
          "type": "address"
        },
        {
          "internalType": "uint256",
          "name": "value",
          "type": "uint256"
        },
        {
          "internalType": "bytes",
          "name": "",
          "type": "bytes"
        }
      ],
      "name": "canTransferByPartition",
      "outputs": [
        {
          "internalType": "bytes1",
          "name": "code",
          "type": "bytes1"
        },
        {
          "internalType": "bytes32",
          "name": "",
          "type": "bytes32"
        },
        {
          "internalType": "string",
          "name": "reason",
          "type": "string"
        }
      ],
      "stateMutability": "view",
      "type": "function"
    },
    {
      "inputs": [],
      "name": "claimDistribution",
      "outputs": [],
      "stateMutability": "nonpayable",
      "type": "function"
    },
    {
      "inputs": [],
      "name": "closeOffering",
      "outputs": [],
      "stateMutability": "nonpayable",
      "type": "function"
    },
    {
      "inputs": [],
      "name": "decimals",
      "outputs": [
        {
          "internalType": "uint8",
          "name": "",
          "type": "uint8"
        }
      ],
      "stateMutability": "pure",
      "type": "function"
    },
    {
      "inputs": [
        {
          "internalType": "uint256",
          "name": "amount",
          "type": "uint256"
        }
      ],
      "name": "depositRedemptionFund",
      "outputs": [],
      "stateMutability": "nonpayable",
      "type": "function"
    },
    {
      "inputs": [],
      "name": "enableRedemption",
      "outputs": [],
      "stateMutability": "nonpayable",
      "type": "function"
    },
    {
      "inputs": [
        {
          "internalType": "address",
          "name": "from",
          "type": "address"
        },
        {
          "internalType": "address",
          "name": "to",
          "type": "address"
        },
        {
          "internalType": "uint256",
          "name": "amount",
          "type": "uint256"
        },
        {
          "internalType": "string",
          "name": "reason",
          "type": "string"
        }
      ],
      "name": "forcedTransfer",
      "outputs": [],
      "stateMutability": "nonpayable",
      "type": "function"
    },
    {
      "inputs": [
        {
          "internalType": "address",
          "name": "investor",
          "type": "address"
        },
        {
          "internalType": "uint256",
          "name": "amount",
          "type": "uint256"
        }
      ],
      "name": "freezeTokens",
      "outputs": [],
      "stateMutability": "nonpayable",
      "type": "function"
    },
    {
      "inputs": [
        {
          "internalType": "address",
          "name": "i",
          "type": "address"
        }
      ],
      "name": "frozenBalance",
      "outputs": [
        {
          "internalType": "uint256",
          "name": "",
          "type": "uint256"
        }
      ],
      "stateMutability": "view",
      "type": "function"
    },
    {
      "inputs": [],
      "name": "getAllDocuments",
      "outputs": [
        {
          "internalType": "bytes32[]",
          "name": "",
          "type": "bytes32[]"
        }
      ],
      "stateMutability": "view",
      "type": "function"
    },
    {
      "inputs": [],
      "name": "getConfig",
      "outputs": [
        {
          "components": [
            {
              "internalType": "string",
              "name": "name",
              "type": "string"
            },
            {
              "internalType": "string",
              "name": "symbol",
              "type": "string"
            },
            {
              "internalType": "string",
              "name": "assetType",
              "type": "string"
            },
            {
              "internalType": "string",
              "name": "assetDescription",
              "type": "string"
            },
            {
              "internalType": "uint256",
              "name": "targetRaise",
              "type": "uint256"
            },
            {
              "internalType": "uint256",
              "name": "tokenPrice",
              "type": "uint256"
            },
            {
              "internalType": "uint256",
              "name": "maxSupply",
              "type": "uint256"
            },
            {
              "internalType": "uint256",
              "name": "minInvestment",
              "type": "uint256"
            },
            {
              "internalType": "uint16[]",
              "name": "allowedCountries",
              "type": "uint16[]"
            },
            {
              "internalType": "uint48",
              "name": "closingDate",
              "type": "uint48"
            },
            {
              "internalType": "uint48",
              "name": "lockupPeriod",
              "type": "uint48"
            },
            {
              "internalType": "address",
              "name": "issuer",
              "type": "address"
            },
            {
              "internalType": "address",
              "name": "treasury",
              "type": "address"
            },
            {
              "internalType": "uint16",
              "name": "feeBps",
              "type": "uint16"
            }
          ],
          "internalType": "struct SURAToken.STOConfig",
          "name": "",
          "type": "tuple"
        }
      ],
      "stateMutability": "view",
      "type": "function"
    },
    {
      "inputs": [
        {
          "internalType": "bytes32",
          "name": "name",
          "type": "bytes32"
        }
      ],
      "name": "getDocument",
      "outputs": [
        {
          "internalType": "string",
          "name": "uri",
          "type": "string"
        },
        {
          "internalType": "bytes32",
          "name": "docHash",
          "type": "bytes32"
        },
        {
          "internalType": "uint48",
          "name": "updatedAt",
          "type": "uint48"
        }
      ],
      "stateMutability": "view",
      "type": "function"
    },
    {
      "inputs": [
        {
          "internalType": "uint256",
          "name": "index",
          "type": "uint256"
        }
      ],
      "name": "getInvestorAt",
      "outputs": [
        {
          "internalType": "address",
          "name": "",
          "type": "address"
        }
      ],
      "stateMutability": "view",
      "type": "function"
    },
    {
      "inputs": [
        {
          "internalType": "bytes32",
          "name": "role",
          "type": "bytes32"
        }
      ],
      "name": "getRoleAdmin",
      "outputs": [
        {
          "internalType": "bytes32",
          "name": "",
          "type": "bytes32"
        }
      ],
      "stateMutability": "view",
      "type": "function"
    },
    {
      "inputs": [
        {
          "internalType": "bytes32",
          "name": "role",
          "type": "bytes32"
        },
        {
          "internalType": "address",
          "name": "account",
          "type": "address"
        }
      ],
      "name": "grantRole",
      "outputs": [],
      "stateMutability": "nonpayable",
      "type": "function"
    },
    {
      "inputs": [
        {
          "internalType": "bytes32",
          "name": "role",
          "type": "bytes32"
        },
        {
          "internalType": "address",
          "name": "account",
          "type": "address"
        }
      ],
      "name": "hasRole",
      "outputs": [
        {
          "internalType": "bool",
          "name": "",
          "type": "bool"
        }
      ],
      "stateMutability": "view",
      "type": "function"
    },
    {
      "inputs": [],
      "name": "identityRegistry",
      "outputs": [
        {
          "internalType": "contract IIdentityRegistry",
          "name": "",
          "type": "address"
        }
      ],
      "stateMutability": "view",
      "type": "function"
    },
    {
      "inputs": [
        {
          "internalType": "address",
          "name": "investor",
          "type": "address"
        },
        {
          "internalType": "uint256",
          "name": "usdcAmount",
          "type": "uint256"
        }
      ],
      "name": "invest",
      "outputs": [],
      "stateMutability": "nonpayable",
      "type": "function"
    },
    {
      "inputs": [],
      "name": "investorCount",
      "outputs": [
        {
          "internalType": "uint256",
          "name": "",
          "type": "uint256"
        }
      ],
      "stateMutability": "view",
      "type": "function"
    },
    {
      "inputs": [
        {
          "internalType": "address",
          "name": "i",
          "type": "address"
        }
      ],
      "name": "isFrozen",
      "outputs": [
        {
          "internalType": "bool",
          "name": "",
          "type": "bool"
        }
      ],
      "stateMutability": "view",
      "type": "function"
    },
    {
      "inputs": [
        {
          "internalType": "address",
          "name": "operator",
          "type": "address"
        },
        {
          "internalType": "address",
          "name": "tokenHolder",
          "type": "address"
        }
      ],
      "name": "isOperator",
      "outputs": [
        {
          "internalType": "bool",
          "name": "",
          "type": "bool"
        }
      ],
      "stateMutability": "view",
      "type": "function"
    },
    {
      "inputs": [
        {
          "internalType": "bytes32",
          "name": "partition",
          "type": "bytes32"
        },
        {
          "internalType": "address",
          "name": "operator",
          "type": "address"
        },
        {
          "internalType": "address",
          "name": "tokenHolder",
          "type": "address"
        }
      ],
      "name": "isOperatorForPartition",
      "outputs": [
        {
          "internalType": "bool",
          "name": "",
          "type": "bool"
        }
      ],
      "stateMutability": "view",
      "type": "function"
    },
    {
      "inputs": [
        {
          "internalType": "address",
          "name": "investor",
          "type": "address"
        }
      ],
      "name": "lockupExpiry",
      "outputs": [
        {
          "internalType": "uint48",
          "name": "",
          "type": "uint48"
        }
      ],
      "stateMutability": "view",
      "type": "function"
    },
    {
      "inputs": [],
      "name": "name",
      "outputs": [
        {
          "internalType": "string",
          "name": "",
          "type": "string"
        }
      ],
      "stateMutability": "view",
      "type": "function"
    },
    {
      "inputs": [],
      "name": "offeringClosed",
      "outputs": [
        {
          "internalType": "bool",
          "name": "",
          "type": "bool"
        }
      ],
      "stateMutability": "view",
      "type": "function"
    },
    {
      "inputs": [
        {
          "internalType": "bytes32",
          "name": "partition",
          "type": "bytes32"
        },
        {
          "internalType": "address",
          "name": "from",
          "type": "address"
        },
        {
          "internalType": "address",
          "name": "to",
          "type": "address"
        },
        {
          "internalType": "uint256",
          "name": "value",
          "type": "uint256"
        },
        {
          "internalType": "bytes",
          "name": "",
          "type": "bytes"
        },
        {
          "internalType": "bytes",
          "name": "",
          "type": "bytes"
        }
      ],
      "name": "operatorTransferByPartition",
      "outputs": [
        {
          "internalType": "bytes32",
          "name": "",
          "type": "bytes32"
        }
      ],
      "stateMutability": "nonpayable",
      "type": "function"
    },
    {
      "inputs": [
        {
          "internalType": "address",
          "name": "tokenHolder",
          "type": "address"
        }
      ],
      "name": "partitionsOf",
      "outputs": [
        {
          "internalType": "bytes32[]",
          "name": "partitions",
          "type": "bytes32[]"
        },
        {
          "internalType": "uint256[]",
          "name": "amounts",
          "type": "uint256[]"
        }
      ],
      "stateMutability": "view",
      "type": "function"
    },
    {
      "inputs": [
        {
          "internalType": "string",
          "name": "reason",
          "type": "string"
        }
      ],
      "name": "pause",
      "outputs": [],
      "stateMutability": "nonpayable",
      "type": "function"
    },
    {
      "inputs": [],
      "name": "pauseReason",
      "outputs": [
        {
          "internalType": "string",
          "name": "",
          "type": "string"
        }
      ],
      "stateMutability": "view",
      "type": "function"
    },
    {
      "inputs": [],
      "name": "paused",
      "outputs": [
        {
          "internalType": "bool",
          "name": "",
          "type": "bool"
        }
      ],
      "stateMutability": "view",
      "type": "function"
    },
    {
      "inputs": [
        {
          "internalType": "address",
          "name": "investor",
          "type": "address"
        }
      ],
      "name": "pendingDistribution",
      "outputs": [
        {
          "internalType": "uint256",
          "name": "",
          "type": "uint256"
        }
      ],
      "stateMutability": "view",
      "type": "function"
    },
    {
      "inputs": [
        {
          "internalType": "uint256",
          "name": "totalUSDC",
          "type": "uint256"
        }
      ],
      "name": "processDistribution",
      "outputs": [],
      "stateMutability": "nonpayable",
      "type": "function"
    },
    {
      "inputs": [
        {
          "internalType": "address",
          "name": "lostWallet",
          "type": "address"
        },
        {
          "internalType": "address",
          "name": "newWallet",
          "type": "address"
        }
      ],
      "name": "recoverTokens",
      "outputs": [],
      "stateMutability": "nonpayable",
      "type": "function"
    },
    {
      "inputs": [
        {
          "internalType": "uint256",
          "name": "amount",
          "type": "uint256"
        }
      ],
      "name": "redeem",
      "outputs": [],
      "stateMutability": "nonpayable",
      "type": "function"
    },
    {
      "inputs": [],
      "name": "redemptionEnabled",
      "outputs": [
        {
          "internalType": "bool",
          "name": "",
          "type": "bool"
        }
      ],
      "stateMutability": "view",
      "type": "function"
    },
    {
      "inputs": [
        {
          "internalType": "bytes32",
          "name": "role",
          "type": "bytes32"
        },
        {
          "internalType": "address",
          "name": "callerConfirmation",
          "type": "address"
        }
      ],
      "name": "renounceRole",
      "outputs": [],
      "stateMutability": "nonpayable",
      "type": "function"
    },
    {
      "inputs": [
        {
          "internalType": "address",
          "name": "operator",
          "type": "address"
        }
      ],
      "name": "revokeOperator",
      "outputs": [],
      "stateMutability": "nonpayable",
      "type": "function"
    },
    {
      "inputs": [
        {
          "internalType": "bytes32",
          "name": "role",
          "type": "bytes32"
        },
        {
          "internalType": "address",
          "name": "account",
          "type": "address"
        }
      ],
      "name": "revokeRole",
      "outputs": [],
      "stateMutability": "nonpayable",
      "type": "function"
    },
    {
      "inputs": [
        {
          "internalType": "bytes32",
          "name": "name",
          "type": "bytes32"
        },
        {
          "internalType": "string",
          "name": "uri",
          "type": "string"
        },
        {
          "internalType": "bytes32",
          "name": "docHash",
          "type": "bytes32"
        }
      ],
      "name": "setDocument",
      "outputs": [],
      "stateMutability": "nonpayable",
      "type": "function"
    },
    {
      "inputs": [
        {
          "internalType": "bytes4",
          "name": "interfaceId",
          "type": "bytes4"
        }
      ],
      "name": "supportsInterface",
      "outputs": [
        {
          "internalType": "bool",
          "name": "",
          "type": "bool"
        }
      ],
      "stateMutability": "view",
      "type": "function"
    },
    {
      "inputs": [
        {
          "internalType": "address",
          "name": "to",
          "type": "address"
        }
      ],
      "name": "sweepDust",
      "outputs": [],
      "stateMutability": "nonpayable",
      "type": "function"
    },
    {
      "inputs": [],
      "name": "symbol",
      "outputs": [
        {
          "internalType": "string",
          "name": "",
          "type": "string"
        }
      ],
      "stateMutability": "view",
      "type": "function"
    },
    {
      "inputs": [],
      "name": "totalRaised",
      "outputs": [
        {
          "internalType": "uint256",
          "name": "",
          "type": "uint256"
        }
      ],
      "stateMutability": "view",
      "type": "function"
    },
    {
      "inputs": [],
      "name": "totalSupply",
      "outputs": [
        {
          "internalType": "uint256",
          "name": "",
          "type": "uint256"
        }
      ],
      "stateMutability": "view",
      "type": "function"
    },
    {
      "inputs": [
        {
          "internalType": "bytes32",
          "name": "partition",
          "type": "bytes32"
        }
      ],
      "name": "totalSupplyByPartition",
      "outputs": [
        {
          "internalType": "uint256",
          "name": "",
          "type": "uint256"
        }
      ],
      "stateMutability": "view",
      "type": "function"
    },
    {
      "inputs": [
        {
          "internalType": "address",
          "name": "to",
          "type": "address"
        },
        {
          "internalType": "uint256",
          "name": "value",
          "type": "uint256"
        }
      ],
      "name": "transfer",
      "outputs": [
        {
          "internalType": "bool",
          "name": "",
          "type": "bool"
        }
      ],
      "stateMutability": "nonpayable",
      "type": "function"
    },
    {
      "inputs": [
        {
          "internalType": "bytes32",
          "name": "partition",
          "type": "bytes32"
        },
        {
          "internalType": "address",
          "name": "to",
          "type": "address"
        },
        {
          "internalType": "uint256",
          "name": "value",
          "type": "uint256"
        },
        {
          "internalType": "bytes",
          "name": "",
          "type": "bytes"
        }
      ],
      "name": "transferByPartition",
      "outputs": [
        {
          "internalType": "bytes32",
          "name": "",
          "type": "bytes32"
        }
      ],
      "stateMutability": "nonpayable",
      "type": "function"
    },
    {
      "inputs": [
        {
          "internalType": "address",
          "name": "from",
          "type": "address"
        },
        {
          "internalType": "address",
          "name": "to",
          "type": "address"
        },
        {
          "internalType": "uint256",
          "name": "value",
          "type": "uint256"
        }
      ],
      "name": "transferFrom",
      "outputs": [
        {
          "internalType": "bool",
          "name": "",
          "type": "bool"
        }
      ],
      "stateMutability": "nonpayable",
      "type": "function"
    },
    {
      "inputs": [
        {
          "internalType": "address",
          "name": "investor",
          "type": "address"
        },
        {
          "internalType": "uint256",
          "name": "amount",
          "type": "uint256"
        }
      ],
      "name": "unfreezeTokens",
      "outputs": [],
      "stateMutability": "nonpayable",
      "type": "function"
    },
    {
      "inputs": [
        {
          "internalType": "address",
          "name": "investor",
          "type": "address"
        }
      ],
      "name": "unlockTokens",
      "outputs": [],
      "stateMutability": "nonpayable",
      "type": "function"
    },
    {
      "inputs": [],
      "name": "unpause",
      "outputs": [],
      "stateMutability": "nonpayable",
      "type": "function"
    },
    {
      "inputs": [],
      "name": "usdc",
      "outputs": [
        {
          "internalType": "contract IERC20",
          "name": "",
          "type": "address"
        }
      ],
      "stateMutability": "view",
      "type": "function"
    }
  ],
  "bytecode": "0x60c06040523462000db15762005de3803803806200001d8162000db6565b92833981019060a08183031262000db15780516001600160401b03811162000db1576101c0928382840182031262000db1576040519384016001600160401b03811185821017620007cb57604052828201516001600160401b03811162000db157816200008e918486010162000ddc565b8452828201602001516001600160401b03811162000db15781620000b6918486010162000ddc565b6020850152828201604001516001600160401b03811162000db15781620000e1918486010162000ddc565b6040850152828201606001516001600160401b03811162000db157816200010c918486010162000ddc565b60608501528282016080818101519086015260a0808201519086015260c0808201519086015260e0808201519086015261010001516001600160401b03811162000db15781601f828587010101121562000db157838301810151916001600160401b038311620007cb578260051b60206200018981830162000db6565b80958152019160208285888a010101011162000db1576020838688010101915b60208285888a01010101831062000d91578787620002306101a08989610100860152620001dc6101208286010162000e5e565b610120860152620001f36101408286010162000e5e565b6101408601526200020a6101608286010162000e72565b610160860152620002216101808286010162000e72565b61018086015283010162000e4e565b6101a0830152620002446020820162000e72565b91620002536040830162000e72565b90620002706080620002686060860162000e72565b940162000e72565b81516020830151815190916001600160401b038211620007cb5760035490600182811c9216801562000d86575b6020831014620008b55781601f84931162000d33575b50602090601f831160011462000ca45760009262000c98575b50508160011b916000199060031b1c1916176003555b8051906001600160401b038211620007cb5760045490600182811c9216801562000c8d575b6020831014620008b55781601f84931162000c3a575b50602090601f831160011462000bab5760009262000b9f575b50508160011b916000199060031b1c1916176004555b600160075581518051906001600160401b038211620007cb57600a5490600182811c9216801562000b94575b6020831014620008b55781601f84931162000b52575b50602090601f831160011462000ad45760009262000ac8575b50508160011b916000199060031b1c191617600a555b60208201518051906001600160401b038211620007cb57600b5490600182811c9216801562000abd575b6020831014620008b55781601f84931162000a6a575b50602090601f8311600114620009db57600092620009cf575b50508160011b916000199060031b1c191617600b555b60408201518051906001600160401b038211620007cb57600c5490600182811c92168015620009c4575b6020831014620008b55781601f84931162000971575b50602090601f8311600114620008e257600092620008d6575b50508160011b916000199060031b1c191617600c555b60608201518051906001600160401b038211620007cb57600d5490600182811c92168015620008cb575b6020831014620008b55781601f84931162000867575b50602090601f8311600114620007ed57600092620007e1575b50508160011b916000199060031b1c191617600d555b6080820151600e5560a0820151600f5560c0820151601090815560e083015160115561010083015180519691906001600160401b038811620007cb57680100000000000000008811620007cb57602090601254896012558981811062000774575b5050019660126000526020600020908060041c9260005b84811062000727575050600f198116900380620006c7575b620006578862000650896101608a620006468b8b65ffffffffffff610120850151166bffffffffffff00000000000061014086015160301b169060018060601b03198787015160601b1691171760135560018060a01b039586809281610180880151166014549061ffff60a01b6101a08a015160a01b169160018060b01b0319161717601455166080521660a052620006338762000ea0565b506200063f8762000f21565b5062000f21565b5001511662000fc4565b5062001062565b50604051614c82908162001101823960805181818161072d0152818161179901528181613608015281816137fc015281816146c301526149ef015260a05181818161077e01528181610b8f0152818161185901528181611fdf015281816127b601528181612de301526130430152f35b9760009860005b818110620006f257505050019590955562000657946200064682620006506200059a565b90919960206200071c60019261ffff8e51169085851b60031b9161ffff809116831b921b19161790565b9b01929101620006ce565b6000805b8381106200074157508482015560010162000582565b9b9060206200076a8e60019361ffff86511691851b60031b9161ffff809116831b921b19161790565b92019c016200072b565b620007a8916012600052600f8560002091601e82850160041c84019460011b1680620007b0575b500160041c019062000e87565b89896200056b565b60001990818601918254918a0360031b1c1690558e6200079b565b634e487b7160e01b600052604160045260246000fd5b015190508780620004f4565b600d600090815260008051602062005dc38339815191529350601f198516905b8181106200084e575090846001959493921062000834575b505050811b01600d556200050a565b015160001960f88460031b161c1916905587808062000825565b929360206001819287860151815501950193016200080d565b600d600052620008a39060008051602062005dc3833981519152601f850160051c81019160208610620008aa575b601f0160051c019062000e87565b88620004db565b909150819062000895565b634e487b7160e01b600052602260045260246000fd5b91607f1691620004c5565b01519050878062000485565b600c600090815293507fdf6966c971051c3d54ec59162606531493a51404a002842f56009d7e5cf4a8c791905b601f198416851062000955576001945083601f198116106200093b575b505050811b01600c556200049b565b015160001960f88460031b161c191690558780806200092c565b818101518355602094850194600190930192909101906200090f565b600c600052620009bd907fdf6966c971051c3d54ec59162606531493a51404a002842f56009d7e5cf4a8c7601f850160051c81019160208610620008aa57601f0160051c019062000e87565b886200046c565b91607f169162000456565b01519050878062000416565b600b600090815293507f0175b7a638427703f0dbe7bb9bbf987a2551717b34e79f33b5b1008d1fa01db991905b601f198416851062000a4e576001945083601f1981161062000a34575b505050811b01600b556200042c565b015160001960f88460031b161c1916905587808062000a25565b8181015183556020948501946001909301929091019062000a08565b600b60005262000ab6907f0175b7a638427703f0dbe7bb9bbf987a2551717b34e79f33b5b1008d1fa01db9601f850160051c81019160208610620008aa57601f0160051c019062000e87565b88620003fd565b91607f1691620003e7565b015190508780620003a7565b600a6000908152935060008051602062005da383398151915291905b601f198416851062000b36576001945083601f1981161062000b1c575b505050811b01600a55620003bd565b015160001960f88460031b161c1916905587808062000b0d565b8181015183556020948501946001909301929091019062000af0565b600a60005262000b8d9060008051602062005da3833981519152601f850160051c81019160208610620008aa57601f0160051c019062000e87565b886200038e565b91607f169162000378565b01519050878062000336565b6004600090815293507f8a35acfbc15ff81a39ae7d344fd709f28e8600b4aa8c65c6b64bfe7fe36bd19b91905b601f198416851062000c1e576001945083601f1981161062000c04575b505050811b016004556200034c565b015160001960f88460031b161c1916905587808062000bf5565b8181015183556020948501946001909301929091019062000bd8565b600460005262000c86907f8a35acfbc15ff81a39ae7d344fd709f28e8600b4aa8c65c6b64bfe7fe36bd19b601f850160051c81019160208610620008aa57601f0160051c019062000e87565b886200031d565b91607f169162000307565b015190508880620002cc565b6003600090815293507fc2575a0e9e593c00f959f8c92f12db2869c3395a3b0502d05e2516446f71f85b91905b601f198416851062000d17576001945083601f1981161062000cfd575b505050811b01600355620002e2565b015160001960f88460031b161c1916905588808062000cee565b8181015183556020948501946001909301929091019062000cd1565b600360005262000d7f907fc2575a0e9e593c00f959f8c92f12db2869c3395a3b0502d05e2516446f71f85b601f850160051c81019160208610620008aa57601f0160051c019062000e87565b89620002b3565b91607f16916200029d565b90602080809362000da28662000e4e565b815201930192909150620001a9565b600080fd5b6040519190601f01601f191682016001600160401b03811183821017620007cb57604052565b919080601f8401121562000db15782516001600160401b038111620007cb5760209062000e12601f8201601f1916830162000db6565b9281845282828701011162000db15760005b81811062000e3a57508260009394955001015290565b858101830151848201840152820162000e24565b519061ffff8216820362000db157565b519065ffffffffffff8216820362000db157565b51906001600160a01b038216820362000db157565b81811062000e93575050565b6000815560010162000e87565b6001600160a01b031660008181527f54cdd369e4e8a8515e52ca72ec816c2101831ad1f18bf44102ed171459c9b4f8602052604081205490919060ff1662000f1d5781805260066020526040822081835260205260408220600160ff19825416179055339160008051602062005d838339815191528180a4600190565b5090565b6001600160a01b031660008181527f84103e4942d70d0389ab910bdcdf181c3e028bc1897fe6797bb191ac79d8088260205260408120549091907f442a94f1a1fac79af32856af2a64f63648cfa2ef3b98610a5bb7cbec4cee69859060ff1662000fbf5780835260066020526040832082845260205260408320600160ff1982541617905560008051602062005d83833981519152339380a4600190565b505090565b6001600160a01b031660008181527f702fe919a6a7971e34c596917a48306a624527a41d0aa0fcf43050b6a305324860205260408120549091907f114e74f6ea3bd819998f78687bfcb11b140da08e9b7d222fa9c1f1ba1f2aa1229060ff1662000fbf5780835260066020526040832082845260205260408320600160ff1982541617905560008051602062005d83833981519152339380a4600190565b6001600160a01b031660008181527f4448119502453e295a09f7d4e8a6a0575d3624c233f99f59abf0835bf259780a60205260408120549091907fcab5a0bfe0b79d2c4b1c2e02599fa044d115b7511f9659307cb42769509677099060ff1662000fbf5780835260066020526040832082845260205260408320600160ff1982541617905560008051602062005d83833981519152339380a460019056fe6080604052600436101561001257600080fd5b60003560e01c8063010648ca14613bc357806301ffc9a714613b6d57806304caa6dd14613ad1578063056097ac146137a6578063062d3bd71461376b57806306fdde03146136bd578063095ea7b314613637578063134e18f4146135f257806317c9efb0146135d257806318160ddd146135b45780631eac4c8c14613594578063221322d51461355257806322459e181461351757806323b872dd14613425578063248a9ca3146133f6578063266565a9146133bc57806328b1c4631461336b57806328b73110146133305780632927c818146132bf5780632f2ff15d1461328057806330e8280314613238578063313ce5671461321c57806336568abe146131d55780633ad8b2d7146130925780633d31adba146130725780633e413bee1461302d5780633f4ba83a14612f4c5780633f89797e14612d7f5780634721ed6f14612d30578063559d3d4b14612d0d5780635b91dafa14612ced5780635c975abb14612cca57806365880d1614612caa5780636d77cad614612c7b5780636da6635514612a7857806370a0823114612a3e578063740ab8f4146128ce57806382aefa2414612893578063884a41be146127355780638c0dee9c146125de57806391d148541461259157806395d89b41146124ae578063985ffec0146124335780639fa5f50b146123a4578063a217fddf14612388578063a26734dc1461235c578063a2ccd60814612333578063a4df6c6a1461229f578063a7688b9714612276578063a9059cbb14612245578063ab7294f0146121a4578063ac7ad47814611fa7578063b10d6b4114611eb3578063b234de8214611e8d578063b6363cf214611e57578063b895abc614611e37578063b9b8c246146116be578063c3f909d414610e76578063c5c4744c14610e58578063cb67f94814610c83578063ce08095414610b3a578063d547741f14610af9578063d7e64c0014610adb578063db006a75146106a6578063dd62ed3e14610655578063e583983614610619578063e9b2f0ad1461054a578063ef9ba955146104c8578063f3d490db146103d3578063f64502931461039c5763fad8b32a1461032957600080fd5b3461039757602036600319011261039757610342613fd3565b33600052601f60205260406000209060018060a01b03169081600052602052604060002060ff19815416905533907fa8082fae8d1bd57faeb4dde45721b46afb72c45e72e5deb2a355bd997f6251a9600080a3005b600080fd5b346103975760203660031901126103975760206103ba600435614049565b905460405160039290921b1c6001600160a01b03168152f35b34610397576080366003190112610397576004356103ef613fe9565b90604435606435926001600160401b038411610397576104156020943690600401613eb9565b505061041f6149aa565b610427614987565b610440600080516020614c0d833981519152841461422c565b61046461044e8383336149c8565b906001600160f81b031916605160f81b1461426f565b61046d336144ee565b610476816144ee565b61048282823386614640565b6040519182526001600160a01b031690339083907f0f527c5f31fde91835354ad82e863e96d8637df7a0254bfb42879978fc047e56908690a46001600755604051908152f35b346103975760a0366003190112610397576104e1613fe9565b6104e9613fff565b90608435906001600160401b038211610397576105469261051161051f933690600401613eb9565b50506064359160043561430f565b60409391935193849360ff60f81b1684526020840152606060408401526060830190613f93565b0390f35b3461039757604036600319011261039757610563613fd3565b6024359061056f614432565b60018060a01b03169081600052601a60205280604060002054106105d45760207f9bed35cb62ad0dba04f9d5bfee4b5bc91443e77da8a65c4c84834c51bb08b0d69183600052601a825260406000206105c9828254614129565b9055604051908152a2005b60405162461bcd60e51b815260206004820152601960248201527f535552413a20696e73756666696369656e742066726f7a656e000000000000006044820152606490fd5b34610397576020366003190112610397576001600160a01b0361063a613fd3565b16600052601a60205260206040600020541515604051908152f35b346103975760403660031901126103975761066e613fd3565b610676613fe9565b9060018060a01b038091166000526001602052604060002091166000526020526020604060002054604051908152f35b346103975760208060031936011261039757600435906106c4614987565b6106cc6149aa565b60ff60155460081c1615610a97573360005260178152604060002090600080516020614c0d833981519152918260005281528260406000205410610a535760405163b9209e3360e01b81523360048201526001600160a01b039082816024817f000000000000000000000000000000000000000000000000000000000000000086165afa90811561093657600091610a36575b50156109fc57670de0b6b3a764000061077a600f5486614182565b04907f000000000000000000000000000000000000000000000000000000000000000016906040516370a0823160e01b81523060048201528381602481865afa80156109365782916000916109cb575b5010610986576107d9336144ee565b331561096d576107e76149aa565b3360005260008352604060002054938580861061094257918493916108ab936000973389528887520360408820558760025403600255866040518981527fddf252ad1be2c89b69c2b068fc378daa952ba7f163c4a11628f55a4df523b3ef873392a33387526017855260408720818852855260408720610868898254614129565b90558652601884526040862061087f888254614129565b905560405163a9059cbb60e01b8152336004820152602481019190915294859283919082906044820190565b03925af1918215610936576040926108cb91600091610909575b50614136565b81519283528201526000604082015233907fb7d0d6b60740753e9f16692a2f479472a1385aec2420fa43225b02f2ffa1afe760603392a36001600755005b6109299150833d851161092f575b6109218183613f72565b8101906140b8565b856108c5565b503d610917565b6040513d6000823e3d90fd5b60405163391434e360e21b8152336004820152602481018790526044810191909152606490fd5b0390fd5b604051634b637e8f60e11b815260006004820152602490fd5b60405162461bcd60e51b815260048101849052601760248201527f535552413a20696e73756666696369656e7420555344430000000000000000006044820152606490fd5b809250858092503d83116109f5575b6109e48183613f72565b8101031261039757819051876107ca565b503d6109da565b60405162461bcd60e51b815260048101839052601260248201527114d554904e881b9bdd081d995c9a599a595960721b6044820152606490fd5b610a4d9150833d851161092f576109218183613f72565b8561075f565b6064906040519062461bcd60e51b82526004820152601c60248201527f535552413a20696e73756666696369656e7420747261646561626c65000000006044820152fd5b6064906040519062461bcd60e51b82526004820152601c60248201527f535552413a20726564656d7074696f6e206e6f7420656e61626c6564000000006044820152fd5b34610397576000366003190112610397576020601d54604051908152f35b3461039757604036600319011261039757610b38600435610b18613fe9565b90806000526006602052610b336001604060002001546144c8565b614910565b005b34610397576020806003193601126103975760043590610b586143b8565b8115610c4b576040516323b872dd60e01b815233600482015230602482015260448101839052818160648160006001600160a01b037f0000000000000000000000000000000000000000000000000000000000000000165af190811561093657600091610c2e575b5015610bf3577f28cbb7b0d1ddb247c338645e13898d3f1cc22268880f19aae4745b89da8b4523906040519283523392a2005b6064906040519062461bcd60e51b82526004820152601460248201527314d554904e8819195c1bdcda5d0819985a5b195960621b6044820152fd5b610c459150823d841161092f576109218183613f72565b83610bc0565b6064906040519062461bcd60e51b82526004820152601160248201527014d554904e881e995c9bc8185b5bdd5b9d607a1b6044820152fd5b3461039757602080600319360112610397576001600160a01b03610ca5613fd3565b16806000526019825265ffffffffffff604060002054164210610e135780600052601782526040600020600080516020614bed833981519152908160005283526040600020548015610dd55782937f0f527c5f31fde91835354ad82e863e96d8637df7a0254bfb42879978fc047e5691846000526017825260406000208460005282526040600020610d38828254614129565b905583600052601882526040600020610d52828254614129565b905584600052601782526040600020600080516020614c0d833981519152908160005283526040600020610d878382546140d0565b9055600052601882526040600020610da08282546140d0565b9055847fe7b379c6c1fa169e9079c25e9143b127637eef8ec8c9d5c06ddb4ab3e119588883604051848152a2604051908152a4005b60405162461bcd60e51b8152600481018590526016602482015275535552413a206e6f206c6f636b656420746f6b656e7360501b6044820152606490fd5b60405162461bcd60e51b815260048101839052601860248201527f535552413a206c6f636b7570206e6f74206578706972656400000000000000006044820152606490fd5b34610397576000366003190112610397576020601e54604051908152f35b346103975760003660031901126103975760006101a0604051610e9881613f20565b6060815260606020820152606060408201526060808201528260808201528260a08201528260c08201528260e08201526060610100820152826101208201528261014082015282610160820152826101808201520152604051610efa81613f20565b604051600a54816000610f0c83613ee6565b808352926001811690811561169f575060011461163e575b610f3092500382613f72565b8152604051600b54816000610f4483613ee6565b808352926001811690811561161f57506001146115be575b610f6892500382613f72565b6020820152604051600c54816000610f7f83613ee6565b808352926001811690811561159f575060011461153e575b610fa392500382613f72565b6040820152604051600081600d5491610fbb83613ee6565b808352926001811690811561151f57506001146114be575b610fdf92500382613f72565b6060820152600e546080820152600f5460a082015260105460c082015260115460e082015260405180816020601254928381520160126000527fbb8a6a4669ba250d26cd7a459eca9d215f8307e33aebe50379bc5a3617ec3444926000905b80600f8301106113d6576110d49454918181106113c1575b8181106113a9575b818110611392575b81811061137a575b818110611362575b81811061134a575b818110611332575b81811061131a575b818110611302575b8181106112ea575b8181106112d2575b8181106112ba575b8181106112a2575b81811061128a575b818110611272575b10611264575b500382613f72565b61010082015260135465ffffffffffff811661012083015265ffffffffffff8160301c1661014083015260601c61016082015261ffff60145460018060a01b03811661018084015260a01c166101a08201526040516020815261119061117a61116461114e85516101c060208701526101e0860190613f93565b6020860151858203601f19016040870152613f93565b6040850151848203601f19016060860152613f93565b6060840151838203601f19016080850152613f93565b608083015160a083015260a083015160c083015260c083015160e083015260e083015161010083015261010083015190601f19838203016101208401526020808351928381520192019060005b81811061124a5750505061ffff6101a08465ffffffffffff610120869701511661014086015265ffffffffffff6101408201511661016086015260018060a01b036101608201511661018086015260018060a01b0361018082015116828601520151166101c08301520390f35b825161ffff168452602093840193909201916001016111dd565b60f01c8152602001856110cc565b92602060019161ffff8560e01c1681520193016110c6565b92602060019161ffff8560d01c1681520193016110be565b92602060019161ffff8560c01c1681520193016110b6565b92602060019161ffff8560b01c1681520193016110ae565b92602060019161ffff8560a01c1681520193016110a6565b92602060019161ffff8560901c16815201930161109e565b92602060019161ffff8560801c168152019301611096565b92602060019161ffff8560701c16815201930161108e565b92602060019161ffff8560601c168152019301611086565b92602060019161ffff8560501c16815201930161107e565b92602060019161ffff8560401c168152019301611076565b92602060019161ffff8560301c16815201930161106e565b92602060019161ffff85831c168152019301611066565b92602060019161ffff8560101c16815201930161105e565b92602060019161ffff85168152019301611056565b916010919350610200600191865461ffff8116825261ffff81861c16602083015261ffff8160201c16604083015261ffff8160301c16606083015261ffff8160401c16608083015261ffff8160501c1660a083015261ffff8160601c1660c083015261ffff8160701c1660e083015261ffff8160801c1661010083015261ffff8160901c1661012083015261ffff8160a01c1661014083015261ffff8160b01c1661016083015261ffff8160c01c1661018083015261ffff8160d01c166101a083015261ffff8160e01c166101c083015260f01c6101e082015201940192018492939161103e565b5090600d6000527fd7b6990105719101dabeb77144f2a3385c8033acd3af97e9423a695e81ad1eb5906000915b818310611503575050906020610fdf92820101610fd3565b60209193508060019154838588010152019101909183926114eb565b60209250610fdf94915060ff191682840152151560051b820101610fd3565b5090600c6000527fdf6966c971051c3d54ec59162606531493a51404a002842f56009d7e5cf4a8c7906000915b818310611583575050906020610fa392820101610f97565b602091935080600191548385880101520191019091839261156b565b60209250610fa394915060ff191682840152151560051b820101610f97565b5090600b6000527f0175b7a638427703f0dbe7bb9bbf987a2551717b34e79f33b5b1008d1fa01db9906000915b818310611603575050906020610f6892820101610f5c565b60209193508060019154838588010152019101909183926115eb565b60209250610f6894915060ff191682840152151560051b820101610f5c565b5090600a6000527fc65a7bb8d6351c1cf70c95a316cc6a92839c986682d98bc35f958f4883f9d2a8906000915b818310611683575050906020610f3092820101610f24565b602091935080600191548385880101520191019091839261166b565b60209250610f3094915060ff191682840152151560051b820101610f24565b34610397576040366003190112610397576116d7613fd3565b3360009081527f4448119502453e295a09f7d4e8a6a0575d3624c233f99f59abf0835bf259780a60209081526040909120546024918235917fcab5a0bfe0b79d2c4b1c2e02599fa044d115b7511f9659307cb42769509677099060ff1615611e1a57506117426149aa565b61174a614987565b60ff60155416611ddf5765ffffffffffff9182601354164211611da257604051636c85cf6760e01b8152600060048201526001600160a01b0386811686830181905296604496919392858189817f000000000000000000000000000000000000000000000000000000000000000089165afa90811561093657600091611d85575b5015611d4257670de0b6b3a7640000808402908482041484151715611b8557600f546117f691614195565b966011548810611d0a5761180c886002546140d0565b60105410611cc85761271061182a61ffff60145460a01c1686614182565b046118358186614129565b6040516323b872dd60e01b81523360048201523060248201526044810187905290917f000000000000000000000000000000000000000000000000000000000000000088169189816064816000875af190811561093657600091611cab575b5015611c6f5760145460405163a9059cbb60e01b808252918a166001600160a01b0316600482015260248101929092529089816044816000875af190811561093657600091611c52575b5015611c0f5760135460405191825260601c600482015260248101929092528790829060449082906000905af190811561093657600091611bf2575b5015611bb0575061192a906144ee565b8615611b9a576119386149aa565b611944866002546140d0565b600255866000526000845260406000208681540190558660007fddf252ad1be2c89b69c2b068fc378daa952ba7f163c4a11628f55a4df523b3ef866040518a8152a38660005260178452604060002092600080516020614bed8339815191529384600052855260406000206119ba8882546140d0565b9055836000526018855260406000206119d48882546140d0565b90558560135460301c168642160195808711611b85579088949392918560005260198752604060002090808254991698898092821610611b71575b505050611a1e83601e546140d0565b601e5584600052601b86526040600020805460ff811615611ac5575b867fbd98336ea73e8cfc7545bd4e9ec9c268e8c8b6f434742d875649a3fae244476a60408c8c8c858c8c827f8514357b17ccbde354811f827b94585a7ab01b4034aa86a807b7cc2c100b7be8858951898152a37f1dbbe618f2c7a9f1debd8e797e1577d775be2ca6a03382b04be5648e68c78104838751878152a38351928352820152a26001600755005b60019192939495965060ff1916179055601c54600160401b811015611b5c57806001611af49201601c55614049565b819291549060031b918a831b921b1916179055601d54906000198214611b485750600101601d558591908160407fbd98336ea73e8cfc7545bd4e9ec9c268e8c8b6f434742d875649a3fae244476a8a611a3a565b634e487b7160e01b60009081526011600452fd5b82634e487b7160e01b60005260416004526000fd5b65ffffffffffff1916179055898781611a0f565b82634e487b7160e01b60005260116004526000fd5b60405163ec442f0560e01b815260006004820152fd5b857f535552413a2070726f6365656473207472616e73666572206661696c65640000606492601e866040519462461bcd60e51b86526004860152840152820152fd5b611c099150873d891161092f576109218183613f72565b8a61191a565b60405162461bcd60e51b8152600481018a90526019818801527f535552413a20666565207472616e73666572206661696c65640000000000000081860152606490fd5b611c6991508a3d8c1161092f576109218183613f72565b8d6118de565b60405162461bcd60e51b8152600481018a90526016818801527514d554904e881554d110c81c1d5b1b0819985a5b195960521b81860152606490fd5b611cc291508a3d8c1161092f576109218183613f72565b8d611894565b857f535552413a2065786365656473206d617820737570706c7900000000000000006064926018866040519462461bcd60e51b86526004860152840152820152fd5b8572535552413a2062656c6f77206d696e696d756d60681b6064926013866040519462461bcd60e51b86526004860152840152820152fd5b60405162461bcd60e51b815260048101869052601b818401527f535552413a20696e766573746f72206e6f74207665726966696564000000000081890152606490fd5b611d9c9150863d881161092f576109218183613f72565b896117cb565b60405162461bcd60e51b8152600481018390526016818601527514d554904e881bd999995c9a5b99c8195e1c1a5c995960521b6044820152606490fd5b6064906015846040519262461bcd60e51b845260048401528201527414d554904e881bd999995c9a5b99c818db1bdcd959605a1b6044820152fd5b836044916040519163e2517d3f60e01b8352336004840152820152fd5b3461039757600036600319011261039757604051602b60f91b8152602090f35b34610397576040366003190112610397576020611e83611e75613fd3565b611e7d613fe9565b9061429b565b6040519015158152f35b3461039757600036600319011261039757602060ff60155460081c166040519015158152f35b34610397576020806003193601126103975760043560005260088152604060002090600190600183019165ffffffffffff60028554950154169060405193600091815491611f0083613ee6565b8088529260018116908115611f855750600114611f4c575b50505093611f2b84611f3f960385613f72565b604051948594606086526060860190613f93565b9284015260408301520390f35b60009081528581209093505b828410611f725750505083018201611f2b84611f3f611f18565b8054878501870152928501928101611f58565b60ff191687890152505050151560051b840183019050611f2b84611f3f611f18565b346103975760208060031936011261039757611fc1613fd3565b90611fca61448e565b6001600160a01b038281169290831561216a577f000000000000000000000000000000000000000000000000000000000000000016604051916370a0823160e01b83523060048401528383602481855afa9283156109365760009361213b575b5082156120fd5760405163a9059cbb60e01b81526001600160a01b0391909116600482015260248101839052908390829060449082906000905af1908115610936576000916120e0575b50156120a657907fa4e6799a53d037c8e49217233616ac11a98bf48a7f8a9f9c53d318febcbb1b6891604051908152a2005b60405162461bcd60e51b815260048101839052601260248201527114d554904e881cddd9595c0819985a5b195960721b6044820152606490fd5b6120f79150833d851161092f576109218183613f72565b84612074565b60405162461bcd60e51b81526004810185905260166024820152750535552413a206e6f7468696e6720746f2073776565760541b6044820152606490fd5b9092508381813d8311612163575b6121538183613f72565b810103126103975751918561202a565b503d612149565b60405162461bcd60e51b8152600481018490526012602482015271535552413a207a65726f206164647265737360701b6044820152606490fd5b34610397576000366003190112610397576121bd6143b8565b60155460ff81166122095760019060ff1916176015557fc566557ce4cb9ae8e7b1ebb1215c266fb3ef7b87e5a726107e9188fd256423fb6040601e5460025482519182526020820152a1005b60405162461bcd60e51b815260206004820152601460248201527314d554904e88185b1c9958591e4818db1bdcd95960621b6044820152606490fd5b346103975760403660031901126103975761226b612261613fd3565b602435903361467e565b602060405160018152f35b34610397576000366003190112610397576020604051600080516020614c0d8339815191528152f35b34610397576040366003190112610397576122b8613fd3565b7fa065e63c631c86f1b9f66a4a2f63f2093bf1c2168d23290259dbd969e0222a456020602435926122e7614432565b60018060a01b031692836000526000825261231b604060002054601a8452612314836040600020546140d0565b11156140dd565b83600052601a825260406000206105c98282546140d0565b34610397576000366003190112610397576020604051600080516020614bed8339815191528152f35b346103975760203660031901126103975760043560005260186020526020604060002054604051908152f35b3461039757600036600319011261039757602060405160008152f35b3461039757600036600319011261039757604051806009549182815260208091019260096000527f6e1540171b6c0c960b71a7020d9f60077f6af931a8bbf590da0223dacf75c7af916000905b82821061241c576105468561240881890382613f72565b604051918291602083526020830190614015565b8354865294850194600193840193909101906123f1565b346103975760203660031901126103975760206124a6612451613fd3565b6124756021549160018060a01b031691826000526022855260406000205490614129565b9060005260238352670de0b6b3a764000061249f6040600020549260008652604060002054614182565b04906140d0565b604051908152f35b34610397576000366003190112610397576040516004546000826124d183613ee6565b9182825260209360019085600182169182600014612571575050600114612514575b5061250092500383613f72565b610546604051928284938452830190613f93565b84915060046000527f8a35acfbc15ff81a39ae7d344fd709f28e8600b4aa8c65c6b64bfe7fe36bd19b906000915b8583106125595750506125009350820101856124f3565b80548389018501528794508693909201918101612542565b60ff19168582015261250095151560051b85010192508791506124f39050565b34610397576040366003190112610397576125aa613fe9565b600435600052600660205260406000209060018060a01b0316600052602052602060ff604060002054166040519015158152f35b346103975760c0366003190112610397576004356125fa613fe9565b90612603613fff565b916064356001600160401b0360843581811161039757612627903690600401613eb9565b505060a43590811161039757612641903690600401613eb9565b505061264b6149aa565b612653614987565b61265e8233856141b5565b156126f057827f0f527c5f31fde91835354ad82e863e96d8637df7a0254bfb42879978fc047e56602080966126a2600080516020614c0d833981519152851461422c565b6126b061044e8683896149c8565b6126b9866144ee565b6126c2816144ee565b6126ce85828887614640565b6040519485526001600160a01b03908116951693a46001600755604051908152f35b60405162461bcd60e51b815260206004820152601d60248201527f535552413a206e6f7420617574686f7269736564206f70657261746f720000006044820152606490fd5b346103975760003660031901126103975761274e614987565b6127566149aa565b61275f336144ee565b336000526020602381526040600020548015612855573360008181526023845260408082208290555163a9059cbb60e01b815260048101929092526024820192909252908290829060449082906001600160a01b037f0000000000000000000000000000000000000000000000000000000000000000165af190811561093657600091612838575b50156127f4576001600755005b6064906040519062461bcd60e51b82526004820152601b60248201527f535552413a20636c61696d207472616e73666572206661696c656400000000006044820152fd5b61284f9150823d841161092f576109218183613f72565b826127e7565b60405162461bcd60e51b8152600481018390526016602482015275535552413a206e6f7468696e6720746f20636c61696d60501b6044820152606490fd5b346103975760003660031901126103975760206040517f114e74f6ea3bd819998f78687bfcb11b140da08e9b7d222fa9c1f1ba1f2aa1228152f35b346103975760208060031936011261039757612a05906128ec613fd3565b604051916128f983613f3c565b600383526060368285013760405161291081613f3c565b60038152818101926060368537600080516020614bed8339815191529081612937876141ff565b526001600160a01b031660008181526017855260408082209382529285529190912054612963836141ff565b527f4f48b64f9dac9cbbd4a1df08b0c86d62dbc80df4a3f7f61f557138d3ab608f798061298f8761420c565b52816000526017845260406000209060005283526040600020546129b28361420c565b52600080516020614c0d83398151915290816129cd8761421c565b526000526017835260406000209060005282526040600020546129ef8261421c565b5281604051958695604087526040870190614015565b9185830382870152519182815201929160005b828110612a2757505050500390f35b835185528695509381019392810192600101612a18565b34610397576020366003190112610397576001600160a01b03612a5f613fd3565b1660005260006020526020604060002054604051908152f35b3461039757602080600319360112610397576001600160401b039060043582811161039757612aab903690600401613eb9565b919092612ab6614432565b8211612c6557612ac7601654613ee6565b601f8111612c1e575b506000601f8311600114612b88577f5ae146d76690e2b2fbd484f0af43653eb5fb3983df5b239a0a30422d030a7fa793612b258480612b7894600091612b7d575b508160011b916000199060031b1c19161790565b6016555b612b316149aa565b600160ff1960055416176005557f62e78cea01bee320cd4e420270b5ea74000d11b0c9f74754ebdbfc544b05a25883604051338152a1604051938385948552840191614097565b0390a1005b905083013588612b11565b601f198316906016600052600080516020614c2d8339815191529160005b818110612c075750917f5ae146d76690e2b2fbd484f0af43653eb5fb3983df5b239a0a30422d030a7fa7959185612b789410612bed575b5050600184811b01601655612b29565b820135600019600387901b60f8161c191690558580612bdd565b91928460018192868a013581550194019201612ba6565b612c55906016600052600080516020614c2d833981519152601f850160051c810191848610612c5b575b601f0160051c0190614080565b83612ad0565b9091508190612c48565b634e487b7160e01b600052604160045260246000fd5b34610397576060366003190112610397576020611e83612c99613fe9565b612ca1613fff565b906004356141b5565b3461039757600036600319011261039757604051605560f81b8152602090f35b3461039757600036600319011261039757602060ff600554166040519015158152f35b3461039757600036600319011261039757604051600560fc1b8152602090f35b3461039757600036600319011261039757602060ff601554166040519015158152f35b3461039757600036600319011261039757612d4961448e565b61010061ff001960155416176015557fe6bb2bbdbe50ba7ec5c0a39299abfd7e6e664f7191f21f458f9091a59113f3f5600080a1005b346103975760208060031936011261039757600435612d9c6143b8565b612da4614987565b60025415612f07578015612ec2576040516323b872dd60e01b815233600482015230602482015260448101829052828160648160006001600160a01b037f0000000000000000000000000000000000000000000000000000000000000000165af1801561093657612e1c91600091612ea55750614136565b670de0b6b3a76400008102670de0b6b3a763ffff1982820401612e8f57612e677f34fed24cebff9f2f4a855b41130e3120797d67a70a0695599980f6e8321576059160025490614195565b92612e74846021546140d0565b60215560405193845265ffffffffffff421693a36001600755005b634e487b7160e01b600052601160045260246000fd5b612ebc9150843d861161092f576109218183613f72565b846108c5565b60405162461bcd60e51b815260048101839052601760248201527f535552413a207a65726f20646973747269627574696f6e0000000000000000006044820152606490fd5b60405162461bcd60e51b815260048101839052601b60248201527f535552413a206e6f20746f6b656e73206f75747374616e64696e6700000000006044820152606490fd5b3461039757600036600319011261039757612f6561448e565b612f70601654613ee6565b601f8111612ff5575b50600060165560055460ff811615612fe35760ff19166005557f5db9ee0a495bf2e6ff9c91a7834c1ba4fdd244a5e8aa4e537bd38aeae4b073aa6020604051338152a17f3cd348ff56b5e60ffb00b5cc262c0dff28e4741cdf0375413cd4ab8fe440e6aa600080a1005b604051638dfc202b60e01b8152600490fd5b6016600052601f600080516020614c2d833981519152910160051c8101905b8181106130215750612f79565b60008155600101613014565b34610397576000366003190112610397576040517f00000000000000000000000000000000000000000000000000000000000000006001600160a01b03168152602090f35b3461039757600036600319011261039757604051601560fa1b8152602090f35b34610397576080366003190112610397576130ab613fd3565b6130b3613fe9565b9060443591606435906001600160401b0382116103975761319a936130fd7fbb53097141337c38a36fed7fae913304cd0c540e1200dbb4c8c1cee707f9f2c2933690600401613eb9565b9590613107614432565b60018060a01b038087169687600052600060205261312c8560406000205410156140dd565b613135816144ee565b61313e866144ee565b8760005260176020526040600020600080516020614bed8339815191526000526020528486604060002054928284101560001461319f5761317f9350614586565b60405194859485526040602086015216966040840191614097565b0390a3005b9183156131ca57506131bf836131b96131c5958486614586565b88614129565b916145f3565b61317f565b916131c593506145f3565b34610397576040366003190112610397576131ee613fe9565b336001600160a01b0382160361320a57610b3890600435614910565b60405163334bd91960e11b8152600490fd5b3461039757600036600319011261039757602060405160128152f35b34610397576040366003190112610397576001600160a01b03613259613fe9565b16600052601760205260406000206004356000526020526020604060002054604051908152f35b3461039757604036600319011261039757610b3860043561329f613fe9565b908060005260066020526132ba6001604060002001546144c8565b614890565b34610397576020366003190112610397576132d8613fd3565b33600052601f60205260406000209060018060a01b031690816000526020526040600020600160ff1982541617905533907f53259f2856b419867f664440d2c08c733cf9c3f57f715f6cbc2c298e093283a6600080a3005b346103975760003660031901126103975760206040517f4f48b64f9dac9cbbd4a1df08b0c86d62dbc80df4a3f7f61f557138d3ab608f798152f35b3461039757604036600319011261039757613384613fe9565b60043560009081526020808052604080832033845282528083206001600160a01b03909416835292905220805460ff19166001179055005b34610397576020366003190112610397576001600160a01b036133dd613fd3565b16600052601a6020526020604060002054604051908152f35b346103975760203660031901126103975760043560005260066020526020600160406000200154604051908152f35b346103975760603660031901126103975761343e613fd3565b613446613fe9565b6001600160a01b03821660008181526001602090815260408083203384529091529020549260443592916000198510613485575b5061226b935061467e565b8385106134f15780156134d85733156134bf5761226b9484916000526001602052604060002033600052602052036040600020558461347a565b604051634a1406b160e11b815260006004820152602490fd5b60405163e602df0560e01b815260006004820152602490fd5b604051637dc7a0d960e11b81523360048201526024810186905260448101859052606490fd5b346103975760003660031901126103975760206040517fcab5a0bfe0b79d2c4b1c2e02599fa044d115b7511f9659307cb42769509677098152f35b34610397576020366003190112610397576001600160a01b03613573613fd3565b166000526019602052602065ffffffffffff60406000205416604051908152f35b3461039757600036600319011261039757604051602960f91b8152602090f35b34610397576000366003190112610397576020600254604051908152f35b3461039757600036600319011261039757604051605160f81b8152602090f35b34610397576000366003190112610397576040517f00000000000000000000000000000000000000000000000000000000000000006001600160a01b03168152602090f35b3461039757604036600319011261039757613650613fd3565b6024359033156134d8576001600160a01b03169081156134bf57336000526001602052604060002082600052602052806040600020556040519081527f8c5be1e5ebec7d5bd14f71427d1e84f3dd0314c0f7b2291e5b200ac8c7c3b92560203392a3602060405160018152f35b34610397576000366003190112610397576040516003546000826136e083613ee6565b918282526020936001908560018216918260001461257157505060011461370e575061250092500383613f72565b84915060036000527fc2575a0e9e593c00f959f8c92f12db2869c3395a3b0502d05e2516446f71f85b906000915b8583106137535750506125009350820101856124f3565b8054838901850152879450869390920191810161373c565b346103975760003660031901126103975760206040517f442a94f1a1fac79af32856af2a64f63648cfa2ef3b98610a5bb7cbec4cee69858152f35b34610397576040366003190112610397576137bf613fd3565b6137c7613fe9565b906137d0614432565b60405163b9209e3360e01b81526001600160a01b038381166004830181905292916020919082816024817f000000000000000000000000000000000000000000000000000000000000000086165afa90811561093657600091613ab4575b5015613a6f578216918260005260008252604060002054908115613a2a577f401f439d865a766757ec78675925bd67198d5e78805aa41691b34b5d6a6cbbe6939495613879826144ee565b613882816144ee565b85600052601784526040600020600080516020614bed833981519152600052845260406000205490866000526017855260406000207f4f48b64f9dac9cbbd4a1df08b0c86d62dbc80df4a3f7f61f557138d3ab608f79908160005286526040600020549088600052601787526040600020600080516020614c0d83398151915260005287526040600020549380613a19575b50816139bd575b5050816139ac575b505050846000526019825265ffffffffffff806040600020541690856000526040600020541680911061398e575b5083600052602382526040600020548560005261397460406000209182546140d0565b9055836000526023825260006040812055604051908152a3005b8560005260406000209065ffffffffffff1982541617905585613951565b6139b5926145f3565b858080613923565b6139c882848761467e565b8860005260178752604060002081600052875260406000206139eb838254614129565b905589600052601787526040600020906000528652613a1060406000209182546140d0565b9055888061391b565b613a24908487614586565b8a613914565b60405162461bcd60e51b815260048101849052601a60248201527f535552413a206e6f20746f6b656e7320746f207265636f7665720000000000006044820152606490fd5b60405162461bcd60e51b815260048101839052601d60248201527f535552413a206e65772077616c6c6574206e6f742076657269666965640000006044820152606490fd5b613acb9150833d851161092f576109218183613f72565b8661382e565b3461039757600036600319011261039757604051601654600082613af483613ee6565b9182825260209360019085600182169182600014612571575050600114613b22575061250092500383613f72565b8491506016600052600080516020614c2d833981519152906000915b858310613b555750506125009350820101856124f3565b80548389018501528794508693909201918101613b3e565b346103975760203660031901126103975760043563ffffffff60e01b811680910361039757602090637965db0b60e01b8114908115613bb2575b506040519015158152f35b6301ffc9a760e01b14905082613ba7565b34610397576060366003190112610397576024356001600160401b03811161039757613bf3903690600401613eb9565b90613bfc6143b8565b600435600052600860205265ffffffffffff6002604060002001541615613e54575b604051606081018181106001600160401b03821117612c655760405260443581526001600160401b038311612c6557604051613c64601f8501601f191660200182613f72565b83815236848401116103975783836020830137600060208583010152602082015265ffffffffffff4216604082015260043560005260086020526040600020815181556001808201906020840151908151916001600160401b038311612c6557613cce8454613ee6565b601f8111613e22575b50602091601f8411600114613d8457507fb4c22d60cd550a815744f04e3ff5278bf19684565ee00e2b084041b6024bd6f69694613d669694613d3e8565ffffffffffff96604096600296600092613d79575b50508160011b916000199060031b1c19161790565b90555b019201511665ffffffffffff1982541617905560405193604085526040850191614097565b91604435602082015280600435930390a2005b015190508d80613d29565b9190601f198416856000526020600020936000905b828210613e09575050946001856040956002957fb4c22d60cd550a815744f04e3ff5278bf19684565ee00e2b084041b6024bd6f69c9a9565ffffffffffff99613d669d9b10613df0575b505050811b019055613d41565b015160001960f88460031b161c191690558c8080613de3565b9093946020828192888701518155019601940190613d99565b613e4e90856000526020600020601f860160051c81019160208710612c5b57601f0160051c0190614080565b88613cd7565b600954600160401b811015612c65576001810180600955811015613ea3576009600052600435907f6e1540171b6c0c960b71a7020d9f60077f6af931a8bbf590da0223dacf75c7af0155613c1e565b634e487b7160e01b600052603260045260246000fd5b9181601f84011215610397578235916001600160401b038311610397576020838186019501011161039757565b90600182811c92168015613f16575b6020831014613f0057565b634e487b7160e01b600052602260045260246000fd5b91607f1691613ef5565b6101c081019081106001600160401b03821117612c6557604052565b608081019081106001600160401b03821117612c6557604052565b604081019081106001600160401b03821117612c6557604052565b90601f801991011681019081106001600160401b03821117612c6557604052565b919082519283825260005b848110613fbf575050826000602080949584010152601f8019910116010190565b602081830181015184830182015201613f9e565b600435906001600160a01b038216820361039757565b602435906001600160a01b038216820361039757565b604435906001600160a01b038216820361039757565b90815180825260208080930193019160005b828110614035575050505090565b835185529381019392810192600101614027565b601c54811015613ea357601c6000527f0e4562a10381dec21b205ed72637e6b1b523bdd0e4d4d50af5cd23dd4500a2110190600090565b81811061408b575050565b60008155600101614080565b908060209392818452848401376000828201840152601f01601f1916010190565b90816020910312610397575180151581036103975790565b91908201809211612e8f57565b156140e457565b60405162461bcd60e51b815260206004820152601a60248201527f535552413a20696e73756666696369656e742062616c616e63650000000000006044820152606490fd5b91908203918211612e8f57565b1561413d57565b60405162461bcd60e51b815260206004820152601a60248201527f535552413a2055534443207472616e73666572206661696c65640000000000006044820152606490fd5b81810292918115918404141715612e8f57565b811561419f570490565b634e487b7160e01b600052601260045260246000fd5b6000908152602080805260408083206001600160a01b038087168552908352818420908516845290915290205460ff16919082156141f257505090565b6141fc925061429b565b90565b805115613ea35760200190565b805160011015613ea35760400190565b805160021015613ea35760600190565b1561423357565b60405162461bcd60e51b8152602060048201526014602482015273535552413a206f6e6c7920545241444541424c4560601b6044820152606490fd5b156142775750565b60405162461bcd60e51b815260206004820152908190610969906024830190613f93565b9060018060a01b0380600092168252601f6020526040822092169182825260205260ff6040822054169182156142d057505090565b60ff9250906040917fcab5a0bfe0b79d2c4b1c2e02599fa044d115b7511f9659307cb42769509677098252600660205282822090825260205220541690565b9392909160ff6005541661438457600080516020614c0d83398151915285036143405761433b926149c8565b909291565b5050604051605560f81b9392915061435781613f57565b601a81527f4e6f7420696e20545241444541424c4520706172746974696f6e000000000000602082015290565b5050604051601560fa1b9392915061439b81613f57565b600d81526c14d513c81a5cc81c185d5cd959609a1b602082015290565b3360009081527f702fe919a6a7971e34c596917a48306a624527a41d0aa0fcf43050b6a305324860205260409020547f114e74f6ea3bd819998f78687bfcb11b140da08e9b7d222fa9c1f1ba1f2aa1229060ff16156144145750565b6044906040519063e2517d3f60e01b82523360048301526024820152fd5b3360009081527f84103e4942d70d0389ab910bdcdf181c3e028bc1897fe6797bb191ac79d8088260205260409020547f442a94f1a1fac79af32856af2a64f63648cfa2ef3b98610a5bb7cbec4cee69859060ff16156144145750565b3360009081527f54cdd369e4e8a8515e52ca72ec816c2101831ad1f18bf44102ed171459c9b4f8602052604081205460ff16156144145750565b80600052600660205260406000203360005260205260ff60406000205416156144145750565b6021546001600160a01b03909116600081815260226020526040808220549293909261451991614129565b80151580614573575b614537575b5060215492815260226020522055565b614554670de0b6b3a7640000918584528360205284842054614182565b04838252602360205261456b8383209182546140d0565b905538614527565b5083825281602052828220541515614522565b6040906145ef9261459885828461467e565b60018060a01b0380600093168352601760205283832091600080516020614bed833981519152928385526020528484206145d3888254614129565b90551682526017602052828220908252602052209182546140d0565b9055565b6040906145ef9261460585828461467e565b60018060a01b0380600093168352601760205283832091600080516020614c0d833981519152928385526020528484206145d3888254614129565b906040916145ef9361465386828561467e565b60018060a01b03908160009416845260176020528484208385526020528484206145d3888254614129565b92916001600160a01b0380851691821561096d578184169384156148775760409081518094636c85cf6760e01b825286600483015287602483015281604460209788937f0000000000000000000000000000000000000000000000000000000000000000165afa90811561486c5760009161484f575b501561480b5784600052600084528261471a8360002054601a8752846000205490614129565b106147c7576147319061472c896144ee565b6144ee565b6147396149aa565b8360005260008352806000205496828810614798575081849596977fddf252ad1be2c89b69c2b068fc378daa952ba7f163c4a11628f55a4df523b3ef9560005260008552038160002055856000528060002082815401905551908152a3565b905163391434e360e21b81526001600160a01b0390911660048201526024810187905260448101829052606490fd5b815162461bcd60e51b815260048101859052601b60248201527f535552413a20696e73756666696369656e7420756e66726f7a656e00000000006044820152606490fd5b815162461bcd60e51b815260048101859052601c60248201527f535552413a207472616e73666572206e6f7420636f6d706c69616e74000000006044820152606490fd5b6148669150853d871161092f576109218183613f72565b386146f4565b83513d6000823e3d90fd5b60405163ec442f0560e01b815260006004820152602490fd5b906000918083526006602052604083209160018060a01b03169182845260205260ff6040842054161560001461490b5780835260066020526040832082845260205260408320600160ff198254161790557f2f8788117e7eff1d82e926ec794901d17c78024a50270940304540a733656f0d339380a4600190565b505090565b906000918083526006602052604083209160018060a01b03169182845260205260ff60408420541660001461490b578083526006602052604083208284526020526040832060ff1981541690557ff6391f5c32d9c69d2a47ea670b442974b53935d1edc7fd64eb21e047a839171b339380a4600190565b600260075414614998576002600755565b604051633ee5aeb560e01b8152600490fd5b60ff600554166149b657565b60405163d93c066560e01b8152600490fd5b6040805163b9209e3360e01b8082526001600160a01b0394851660048301529195946020947f00000000000000000000000000000000000000000000000000000000000000008116949193929091908681602481895afa908115614be157600091614bc4575b5015614b83571692848415159283614b2c575b505050614aed57614a8490826000526017845285600020600080516020614c0d8339815191526000528452856000205492600052601a84528560002054906140d0565b11614ab0578251605160f81b9390918201906001600160401b03821183831017612c6557526000815290565b9151602960f91b927f496e73756666696369656e7420747261646561626c652062616c616e6365000090614ae383613f57565b601e835282015290565b50509151602b60f91b927f53656e646572206e6f74204b594320766572696669656400000000000000000090614b2283613f57565b6017835282015290565b90919250602488518094819382528760048301525afa908115614b7857600091614b5b575b5015388481614a41565b614b729150843d861161092f576109218183613f72565b38614b51565b86513d6000823e3d90fd5b50505050507f5265636569766572206e6f74204b594320766572696669656400000000000000602b60f91b935191614bba83613f57565b6019835282015290565b614bdb9150873d891161092f576109218183613f72565b38614a2e565b89513d6000823e3d90fdfeeb4a01a12a4bbfa1bc780c16c5b2b6720cdf4f3c29cabd8c0f76fec3a575096b1d0c4b9d73472a65487dbdaa65a709d08d07b56ae78c49d36d4d9be4521eff57d833147d7dc355ba459fc788f669e58cfaf9dc25ddcd0702e87d69c7b5124289a2646970667358221220456993f5d73c4e696165217f7712c50a38e5483dd44d1fc82dcfc38a898830e964736f6c634300081800332f8788117e7eff1d82e926ec794901d17c78024a50270940304540a733656f0dc65a7bb8d6351c1cf70c95a316cc6a92839c986682d98bc35f958f4883f9d2a8d7b6990105719101dabeb77144f2a3385c8033acd3af97e9423a695e81ad1eb5",
  "linkReferences": {},
  "deployedLinkReferences": {}
}