{
  "_format": "hh-sol-artifact-1",
  "contractName": "IssuraTimelock",
  "sourceName": "contracts/IssuraTimelock.sol",
  "abi": [
    {
      "inputs": [
        {
          "internalType": "address[]",
          "name": "proposers",
          "type": "address[]"
        },
        {
          "internalType": "address[]",
          "name": "executors",
          "type": "address[]"
        },
        {
          "internalType": "address",
          "name": "admin",
          "type": "address"
        }
      ],
      "stateMutability": "nonpayable",
      "type": "constructor"
    },
    {
      "inputs": [],
      "name": "AccessControlBadConfirmation",
      "type": "error"
    },
    {
      "inputs": [
        {
          "internalType": "address",
          "name": "account",
          "type": "address"
        },
        {
          "internalType": "bytes32",
          "name": "neededRole",
          "type": "bytes32"
        }
      ],
      "name": "AccessControlUnauthorizedAccount",
      "type": "error"
    },
    {
      "inputs": [],
      "name": "FailedCall",
      "type": "error"
    },
    {
      "inputs": [
        {
          "internalType": "uint256",
          "name": "delay",
          "type": "uint256"
        },
        {
          "internalType": "uint256",
          "name": "minDelay",
          "type": "uint256"
        }
      ],
      "name": "TimelockInsufficientDelay",
      "type": "error"
    },
    {
      "inputs": [
        {
          "internalType": "uint256",
          "name": "targets",
          "type": "uint256"
        },
        {
          "internalType": "uint256",
          "name": "payloads",
          "type": "uint256"
        },
        {
          "internalType": "uint256",
          "name": "values",
          "type": "uint256"
        }
      ],
      "name": "TimelockInvalidOperationLength",
      "type": "error"
    },
    {
      "inputs": [
        {
          "internalType": "address",
          "name": "caller",
          "type": "address"
        }
      ],
      "name": "TimelockUnauthorizedCaller",
      "type": "error"
    },
    {
      "inputs": [
        {
          "internalType": "bytes32",
          "name": "predecessorId",
          "type": "bytes32"
        }
      ],
      "name": "TimelockUnexecutedPredecessor",
      "type": "error"
    },
    {
      "inputs": [
        {
          "internalType": "bytes32",
          "name": "operationId",
          "type": "bytes32"
        },
        {
          "internalType": "bytes32",
          "name": "expectedStates",
          "type": "bytes32"
        }
      ],
      "name": "TimelockUnexpectedOperationState",
      "type": "error"
    },
    {
      "anonymous": false,
      "inputs": [
        {
          "indexed": true,
          "internalType": "bytes32",
          "name": "id",
          "type": "bytes32"
        },
        {
          "indexed": true,
          "internalType": "uint256",
          "name": "index",
          "type": "uint256"
        },
        {
          "indexed": false,
          "internalType": "address",
          "name": "target",
          "type": "address"
        },
        {
          "indexed": false,
          "internalType": "uint256",
          "name": "value",
          "type": "uint256"
        },
        {
          "indexed": false,
          "internalType": "bytes",
          "name": "data",
          "type": "bytes"
        }
      ],
      "name": "CallExecuted",
      "type": "event"
    },
    {
      "anonymous": false,
      "inputs": [
        {
          "indexed": true,
          "internalType": "bytes32",
          "name": "id",
          "type": "bytes32"
        },
        {
          "indexed": false,
          "internalType": "bytes32",
          "name": "salt",
          "type": "bytes32"
        }
      ],
      "name": "CallSalt",
      "type": "event"
    },
    {
      "anonymous": false,
      "inputs": [
        {
          "indexed": true,
          "internalType": "bytes32",
          "name": "id",
          "type": "bytes32"
        },
        {
          "indexed": true,
          "internalType": "uint256",
          "name": "index",
          "type": "uint256"
        },
        {
          "indexed": false,
          "internalType": "address",
          "name": "target",
          "type": "address"
        },
        {
          "indexed": false,
          "internalType": "uint256",
          "name": "value",
          "type": "uint256"
        },
        {
          "indexed": false,
          "internalType": "bytes",
          "name": "data",
          "type": "bytes"
        },
        {
          "indexed": false,
          "internalType": "bytes32",
          "name": "predecessor",
          "type": "bytes32"
        },
        {
          "indexed": false,
          "internalType": "uint256",
          "name": "delay",
          "type": "uint256"
        }
      ],
      "name": "CallScheduled",
      "type": "event"
    },
    {
      "anonymous": false,
      "inputs": [
        {
          "indexed": true,
          "internalType": "bytes32",
          "name": "id",
          "type": "bytes32"
        }
      ],
      "name": "Cancelled",
      "type": "event"
    },
    {
      "anonymous": false,
      "inputs": [
        {
          "indexed": false,
          "internalType": "uint256",
          "name": "oldDuration",
          "type": "uint256"
        },
        {
          "indexed": false,
          "internalType": "uint256",
          "name": "newDuration",
          "type": "uint256"
        }
      ],
      "name": "MinDelayChange",
      "type": "event"
    },
    {
      "anonymous": false,
      "inputs": [
        {
          "indexed": true,
          "internalType": "bytes32",
          "name": "role",
          "type": "bytes32"
        },
        {
          "indexed": true,
          "internalType": "bytes32",
          "name": "previousAdminRole",
          "type": "bytes32"
        },
        {
          "indexed": true,
          "internalType": "bytes32",
          "name": "newAdminRole",
          "type": "bytes32"
        }
      ],
      "name": "RoleAdminChanged",
      "type": "event"
    },
    {
      "anonymous": false,
      "inputs": [
        {
          "indexed": true,
          "internalType": "bytes32",
          "name": "role",
          "type": "bytes32"
        },
        {
          "indexed": true,
          "internalType": "address",
          "name": "account",
          "type": "address"
        },
        {
          "indexed": true,
          "internalType": "address",
          "name": "sender",
          "type": "address"
        }
      ],
      "name": "RoleGranted",
      "type": "event"
    },
    {
      "anonymous": false,
      "inputs": [
        {
          "indexed": true,
          "internalType": "bytes32",
          "name": "role",
          "type": "bytes32"
        },
        {
          "indexed": true,
          "internalType": "address",
          "name": "account",
          "type": "address"
        },
        {
          "indexed": true,
          "internalType": "address",
          "name": "sender",
          "type": "address"
        }
      ],
      "name": "RoleRevoked",
      "type": "event"
    },
    {
      "inputs": [],
      "name": "CANCELLER_ROLE",
      "outputs": [
        {
          "internalType": "bytes32",
          "name": "",
          "type": "bytes32"
        }
      ],
      "stateMutability": "view",
      "type": "function"
    },
    {
      "inputs": [],
      "name": "DEFAULT_ADMIN_ROLE",
      "outputs": [
        {
          "internalType": "bytes32",
          "name": "",
          "type": "bytes32"
        }
      ],
      "stateMutability": "view",
      "type": "function"
    },
    {
      "inputs": [],
      "name": "EXECUTOR_ROLE",
      "outputs": [
        {
          "internalType": "bytes32",
          "name": "",
          "type": "bytes32"
        }
      ],
      "stateMutability": "view",
      "type": "function"
    },
    {
      "inputs": [],
      "name": "MIN_DELAY",
      "outputs": [
        {
          "internalType": "uint256",
          "name": "",
          "type": "uint256"
        }
      ],
      "stateMutability": "view",
      "type": "function"
    },
    {
      "inputs": [],
      "name": "PROPOSER_ROLE",
      "outputs": [
        {
          "internalType": "bytes32",
          "name": "",
          "type": "bytes32"
        }
      ],
      "stateMutability": "view",
      "type": "function"
    },
    {
      "inputs": [
        {
          "internalType": "bytes32",
          "name": "id",
          "type": "bytes32"
        }
      ],
      "name": "cancel",
      "outputs": [],
      "stateMutability": "nonpayable",
      "type": "function"
    },
    {
      "inputs": [
        {
          "internalType": "address",
          "name": "target",
          "type": "address"
        },
        {
          "internalType": "uint256",
          "name": "value",
          "type": "uint256"
        },
        {
          "internalType": "bytes",
          "name": "payload",
          "type": "bytes"
        },
        {
          "internalType": "bytes32",
          "name": "predecessor",
          "type": "bytes32"
        },
        {
          "internalType": "bytes32",
          "name": "salt",
          "type": "bytes32"
        }
      ],
      "name": "execute",
      "outputs": [],
      "stateMutability": "payable",
      "type": "function"
    },
    {
      "inputs": [
        {
          "internalType": "address[]",
          "name": "targets",
          "type": "address[]"
        },
        {
          "internalType": "uint256[]",
          "name": "values",
          "type": "uint256[]"
        },
        {
          "internalType": "bytes[]",
          "name": "payloads",
          "type": "bytes[]"
        },
        {
          "internalType": "bytes32",
          "name": "predecessor",
          "type": "bytes32"
        },
        {
          "internalType": "bytes32",
          "name": "salt",
          "type": "bytes32"
        }
      ],
      "name": "executeBatch",
      "outputs": [],
      "stateMutability": "payable",
      "type": "function"
    },
    {
      "inputs": [],
      "name": "getMinDelay",
      "outputs": [
        {
          "internalType": "uint256",
          "name": "",
          "type": "uint256"
        }
      ],
      "stateMutability": "view",
      "type": "function"
    },
    {
      "inputs": [
        {
          "internalType": "bytes32",
          "name": "id",
          "type": "bytes32"
        }
      ],
      "name": "getOperationState",
      "outputs": [
        {
          "internalType": "enum TimelockController.OperationState",
          "name": "",
          "type": "uint8"
        }
      ],
      "stateMutability": "view",
      "type": "function"
    },
    {
      "inputs": [
        {
          "internalType": "bytes32",
          "name": "role",
          "type": "bytes32"
        }
      ],
      "name": "getRoleAdmin",
      "outputs": [
        {
          "internalType": "bytes32",
          "name": "",
          "type": "bytes32"
        }
      ],
      "stateMutability": "view",
      "type": "function"
    },
    {
      "inputs": [
        {
          "internalType": "bytes32",
          "name": "id",
          "type": "bytes32"
        }
      ],
      "name": "getTimestamp",
      "outputs": [
        {
          "internalType": "uint256",
          "name": "",
          "type": "uint256"
        }
      ],
      "stateMutability": "view",
      "type": "function"
    },
    {
      "inputs": [
        {
          "internalType": "bytes32",
          "name": "role",
          "type": "bytes32"
        },
        {
          "internalType": "address",
          "name": "account",
          "type": "address"
        }
      ],
      "name": "grantRole",
      "outputs": [],
      "stateMutability": "nonpayable",
      "type": "function"
    },
    {
      "inputs": [
        {
          "internalType": "bytes32",
          "name": "role",
          "type": "bytes32"
        },
        {
          "internalType": "address",
          "name": "account",
          "type": "address"
        }
      ],
      "name": "hasRole",
      "outputs": [
        {
          "internalType": "bool",
          "name": "",
          "type": "bool"
        }
      ],
      "stateMutability": "view",
      "type": "function"
    },
    {
      "inputs": [
        {
          "internalType": "address",
          "name": "target",
          "type": "address"
        },
        {
          "internalType": "uint256",
          "name": "value",
          "type": "uint256"
        },
        {
          "internalType": "bytes",
          "name": "data",
          "type": "bytes"
        },
        {
          "internalType": "bytes32",
          "name": "predecessor",
          "type": "bytes32"
        },
        {
          "internalType": "bytes32",
          "name": "salt",
          "type": "bytes32"
        }
      ],
      "name": "hashOperation",
      "outputs": [
        {
          "internalType": "bytes32",
          "name": "",
          "type": "bytes32"
        }
      ],
      "stateMutability": "pure",
      "type": "function"
    },
    {
      "inputs": [
        {
          "internalType": "address[]",
          "name": "targets",
          "type": "address[]"
        },
        {
          "internalType": "uint256[]",
          "name": "values",
          "type": "uint256[]"
        },
        {
          "internalType": "bytes[]",
          "name": "payloads",
          "type": "bytes[]"
        },
        {
          "internalType": "bytes32",
          "name": "predecessor",
          "type": "bytes32"
        },
        {
          "internalType": "bytes32",
          "name": "salt",
          "type": "bytes32"
        }
      ],
      "name": "hashOperationBatch",
      "outputs": [
        {
          "internalType": "bytes32",
          "name": "",
          "type": "bytes32"
        }
      ],
      "stateMutability": "pure",
      "type": "function"
    },
    {
      "inputs": [
        {
          "internalType": "bytes32",
          "name": "id",
          "type": "bytes32"
        }
      ],
      "name": "isOperation",
      "outputs": [
        {
          "internalType": "bool",
          "name": "",
          "type": "bool"
        }
      ],
      "stateMutability": "view",
      "type": "function"
    },
    {
      "inputs": [
        {
          "internalType": "bytes32",
          "name": "id",
          "type": "bytes32"
        }
      ],
      "name": "isOperationDone",
      "outputs": [
        {
          "internalType": "bool",
          "name": "",
          "type": "bool"
        }
      ],
      "stateMutability": "view",
      "type": "function"
    },
    {
      "inputs": [
        {
          "internalType": "bytes32",
          "name": "id",
          "type": "bytes32"
        }
      ],
      "name": "isOperationPending",
      "outputs": [
        {
          "internalType": "bool",
          "name": "",
          "type": "bool"
        }
      ],
      "stateMutability": "view",
      "type": "function"
    },
    {
      "inputs": [
        {
          "internalType": "bytes32",
          "name": "id",
          "type": "bytes32"
        }
      ],
      "name": "isOperationReady",
      "outputs": [
        {
          "internalType": "bool",
          "name": "",
          "type": "bool"
        }
      ],
      "stateMutability": "view",
      "type": "function"
    },
    {
      "inputs": [
        {
          "internalType": "address",
          "name": "",
          "type": "address"
        },
        {
          "internalType": "address",
          "name": "",
          "type": "address"
        },
        {
          "internalType": "uint256[]",
          "name": "",
          "type": "uint256[]"
        },
        {
          "internalType": "uint256[]",
          "name": "",
          "type": "uint256[]"
        },
        {
          "internalType": "bytes",
          "name": "",
          "type": "bytes"
        }
      ],
      "name": "onERC1155BatchReceived",
      "outputs": [
        {
          "internalType": "bytes4",
          "name": "",
          "type": "bytes4"
        }
      ],
      "stateMutability": "nonpayable",
      "type": "function"
    },
    {
      "inputs": [
        {
          "internalType": "address",
          "name": "",
          "type": "address"
        },
        {
          "internalType": "address",
          "name": "",
          "type": "address"
        },
        {
          "internalType": "uint256",
          "name": "",
          "type": "uint256"
        },
        {
          "internalType": "uint256",
          "name": "",
          "type": "uint256"
        },
        {
          "internalType": "bytes",
          "name": "",
          "type": "bytes"
        }
      ],
      "name": "onERC1155Received",
      "outputs": [
        {
          "internalType": "bytes4",
          "name": "",
          "type": "bytes4"
        }
      ],
      "stateMutability": "nonpayable",
      "type": "function"
    },
    {
      "inputs": [
        {
          "internalType": "address",
          "name": "",
          "type": "address"
        },
        {
          "internalType": "address",
          "name": "",
          "type": "address"
        },
        {
          "internalType": "uint256",
          "name": "",
          "type": "uint256"
        },
        {
          "internalType": "bytes",
          "name": "",
          "type": "bytes"
        }
      ],
      "name": "onERC721Received",
      "outputs": [
        {
          "internalType": "bytes4",
          "name": "",
          "type": "bytes4"
        }
      ],
      "stateMutability": "nonpayable",
      "type": "function"
    },
    {
      "inputs": [
        {
          "internalType": "bytes32",
          "name": "role",
          "type": "bytes32"
        },
        {
          "internalType": "address",
          "name": "callerConfirmation",
          "type": "address"
        }
      ],
      "name": "renounceRole",
      "outputs": [],
      "stateMutability": "nonpayable",
      "type": "function"
    },
    {
      "inputs": [
        {
          "internalType": "bytes32",
          "name": "role",
          "type": "bytes32"
        },
        {
          "internalType": "address",
          "name": "account",
          "type": "address"
        }
      ],
      "name": "revokeRole",
      "outputs": [],
      "stateMutability": "nonpayable",
      "type": "function"
    },
    {
      "inputs": [
        {
          "internalType": "address",
          "name": "target",
          "type": "address"
        },
        {
          "internalType": "uint256",
          "name": "value",
          "type": "uint256"
        },
        {
          "internalType": "bytes",
          "name": "data",
          "type": "bytes"
        },
        {
          "internalType": "bytes32",
          "name": "predecessor",
          "type": "bytes32"
        },
        {
          "internalType": "bytes32",
          "name": "salt",
          "type": "bytes32"
        },
        {
          "internalType": "uint256",
          "name": "delay",
          "type": "uint256"
        }
      ],
      "name": "schedule",
      "outputs": [],
      "stateMutability": "nonpayable",
      "type": "function"
    },
    {
      "inputs": [
        {
          "internalType": "address[]",
          "name": "targets",
          "type": "address[]"
        },
        {
          "internalType": "uint256[]",
          "name": "values",
          "type": "uint256[]"
        },
        {
          "internalType": "bytes[]",
          "name": "payloads",
          "type": "bytes[]"
        },
        {
          "internalType": "bytes32",
          "name": "predecessor",
          "type": "bytes32"
        },
        {
          "internalType": "bytes32",
          "name": "salt",
          "type": "bytes32"
        },
        {
          "internalType": "uint256",
          "name": "delay",
          "type": "uint256"
        }
      ],
      "name": "scheduleBatch",
      "outputs": [],
      "stateMutability": "nonpayable",
      "type": "function"
    },
    {
      "inputs": [
        {
          "internalType": "bytes4",
          "name": "interfaceId",
          "type": "bytes4"
        }
      ],
      "name": "supportsInterface",
      "outputs": [
        {
          "internalType": "bool",
          "name": "",
          "type": "bool"
        }
      ],
      "stateMutability": "view",
      "type": "function"
    },
    {
      "inputs": [
        {
          "internalType": "uint256",
          "name": "newDelay",
          "type": "uint256"
        }
      ],
      "name": "updateDelay",
      "outputs": [],
      "stateMutability": "nonpayable",
      "type": "function"
    },
    {
      "stateMutability": "payable",
      "type": "receive"
    }
  ],
  "bytecode": "0x608060405234620001725762001a42803803806200001d8162000177565b928339810190606081830312620001725780516001600160401b03908181116200017257836200004f918401620001c8565b92602083015191821162000172576200007160409162000079938501620001c8565b9201620001b3565b91620000853062000266565b506001600160a01b03928084166200015f575b5060005b8151811015620000e45780620000c285620000ba600194866200023b565b5116620002e6565b50620000dc85620000d483866200023b565b511662000388565b50016200009c565b505060005b81518110156200011757806200010f8462000107600194866200023b565b511662000425565b5001620000e9565b7f11c24f4ead16507c69ac467fbd5e4eed5fb5c699626d2cc6d66421df253886d560406202a30080600255815190600082526020820152a160405161155f9081620004c38239f35b6200016a9062000266565b503862000098565b600080fd5b6040519190601f01601f191682016001600160401b038111838210176200019d57604052565b634e487b7160e01b600052604160045260246000fd5b51906001600160a01b03821682036200017257565b81601f8201121562000172578051916020916001600160401b0384116200019d578360051b908380620001fd81850162000177565b80978152019282010192831162000172578301905b82821062000221575050505090565b8380916200022f84620001b3565b81520191019062000212565b8051821015620002505760209160051b010190565b634e487b7160e01b600052603260045260246000fd5b6001600160a01b031660008181527fad3228b676f7d3cd4284a5443f17f1962b36e491b30a40b2405849e597ba5fb5602052604081205490919060ff16620002e257818052816020526040822081835260205260408220600160ff19825416179055339160008051602062001a228339815191528180a4600190565b5090565b6001600160a01b031660008181527f3412d5605ac6cd444957cedb533e5dacad6378b4bc819ebe3652188a665066d560205260408120549091907fb09aa5aeb3702cfd50b6b62bc4532604938f21248a27a1d5ca736082b6819cc19060ff166200038357808352826020526040832082845260205260408320600160ff1982541617905560008051602062001a22833981519152339380a4600190565b505090565b6001600160a01b031660008181527fc3ad33e20b0c56a223ad5104fff154aa010f8715b9c981fd38fdc60a4d1a52fb60205260408120549091907ffd643c72710c63c0180259aba6b2d05451e3591a24e58b62239378085726f7839060ff166200038357808352826020526040832082845260205260408320600160ff1982541617905560008051602062001a22833981519152339380a4600190565b6001600160a01b031660008181527fdae2aa361dfd1ca020a396615627d436107c35eff9fe7738a3512819782d706960205260408120549091907fd8aa0f3194971a2a116679f7c2090f6939c8d4e01a2a8d7e41d55e5351469e639060ff166200038357808352826020526040832082845260205260408320600160ff1982541617905560008051602062001a22833981519152339380a460019056fe60406080815260049081361015610020575b5050361561001e57600080fd5b005b600091823560e01c90816301d5062a14610a9657816301ffc9a714610a2357816307bd0265146109fa57838263134008d3146109625750816313bc9f2014610942578163150b7a02146108ed578163248a9ca3146108c35781632ab0f529146108a35781632f2ff15d1461087957816331d507501461085957816336568abe14610813578163584b153e146107ea57816364d623531461077e5781637958004c1461073b5781638065657f146107195781638f2a0bb0146105af5781638f61f4f51461058657816391d14854146105405781639f81aed714610522578163a217fddf14610507578163b08e51c0146104de578163b1c5f427146104b2578163bc197c811461042c578163c4d252f51461036f578163d45c443514610347578163d547741f14610302578163e38335e5146101e3578163f23a6e611461018b575063f27a0c920361001157346101875781600319360112610187576020906002549051908152f35b5080fd5b8284346101e05760a03660031901126101e0576101a6610b50565b506101af610b6b565b50608435906001600160401b0382116101e057506020926101d291369101610c50565b505163f23a6e6160e01b8152f35b80fd5b90506101ee36610cc7565b9098949591939296976000805160206114aa8339815191528b528a602052858b208b805260205260ff868c205416156102f4575b8383148015906102ea575b6102c9575061024561024c918a868a878b888f610fb6565b9889611270565b885b818110610262578961025f8a61132b565b80f35b80808a60008051602061146a8339815191528a8a6102c06102a88f988c6102a1828e61029b8f60019f610296918591610f3b565b610f61565b97610f3b565b3595610f75565b906102b5828287876112d6565b8d5194859485610de7565b0390a30161024e565b90506102e68385875194859463ffb0321160e01b86528501610f25565b0390fd5b508483141561022d565b6102fd336111ec565b610222565b9190503461034357806003193601126103435761033f913561033a6001610327610b6b565b938387528660205286200154339061123f565b6113c9565b5080f35b8280fd5b9050346103435760203660031901126103435760209282913581526001845220549051908152f35b91905034610343576020366003190112610343578135916000805160206114ea8339815191528085528460205282852033865260205260ff83862054161561041157506103bb83610e6b565b156103f55750829082825260016020528120557fbaa1eb22f2a492ba1a5fea61b8df4d27c6c8b5f3971e63bb58fa14ff72eedb708280a280f35b826044925191635ead8eb560e01b835282015260066024820152fd5b604492519163e2517d3f60e01b835233908301526024820152fd5b8284346101e05760a03660031901126101e057610447610b50565b50610450610b6b565b506001600160401b0390604435828111610187576104719036908601610d28565b50606435828111610187576104899036908601610d28565b506084359182116101e057506020926104a491369101610c50565b505163bc197c8160e01b8152f35b505034610187576020906104d76104c836610cc7565b96959095949194939293610fb6565b9051908152f35b505034610187578160031936011261018757602090516000805160206114ea8339815191528152f35b50503461018757816003193601126101875751908152602090f35b505034610187578160031936011261018757602090516202a3008152f35b9050346103435781600319360112610343578160209360ff92610561610b6b565b903582528186528282206001600160a01b039091168252855220549151911615158152f35b5050346101875781600319360112610187576020905160008051602061148a8339815191528152f35b919050346103435760c0366003190112610343576001600160401b03908235828111610715576105e29036908501610c97565b93602435848111610711576105fa9036908301610c97565b9460443590811161070d576106129036908401610c97565b606493919335906084359760a4359361062a3361117b565b818b14801590610703575b6106e7575061064b89848489858f8b908e610fb6565b99610656858c6110f4565b8a8c5b8a83821061068d578e838e838161066e578380f35b60008051602061150a8339815191529160209151908152a28180808380f35b6001926000805160206114ca8339815191528b8b6106dc8f8c88978f92898f8f8f6106ca916106c46102968680946106d199610f3b565b9a610f3b565b3598610f75565b915196879687610daf565b0390a3018b90610659565b6102e68b92848b5194859463ffb0321160e01b86528501610f25565b50828b1415610635565b8780fd5b8680fd5b8480fd5b505034610187576020906104d761072f36610bae565b94939093929192610ed0565b838334610187576020366003190112610187576107588335610e94565b9051918382101561076b57602083838152f35b634e487b7160e01b815260218452602490fd5b91905034610343576020366003190112610343578135913033036107d457507f11c24f4ead16507c69ac467fbd5e4eed5fb5c699626d2cc6d66421df253886d5906002548151908152836020820152a160025580f35b602491519063e2850c5960e01b82523390820152fd5b8284346101e05760203660031901126101e0575061080a60209235610e6b565b90519015158152f35b83833461018757806003193601126101875761082d610b6b565b90336001600160a01b0383160361084a575061033f9192356113c9565b5163334bd91960e11b81528390fd5b8284346101e05760203660031901126101e0575061080a60209235610e54565b9190503461034357806003193601126103435761033f913561089e6001610327610b6b565b61134b565b8284346101e05760203660031901126101e0575061080a60209235610e3c565b90503461034357602036600319011261034357816020936001923581528085522001549051908152f35b8284346101e05760803660031901126101e057610908610b50565b50610911610b6b565b50606435906001600160401b0382116101e0575060209261093491369101610c50565b5051630a85bd0160e11b8152f35b8284346101e05760203660031901126101e0575061080a60209235610e0e565b61025f6109ce826109e460008051602061146a8339815191526109c58961098836610bae565b6000805160206114aa8339815191528b9a9697939598929a528a602052828b208b805260205260ff838c205416156109ec575b8985858a8a610ed0565b998a9889611270565b6109da838388886112d6565b5194859485610de7565b0390a361132b565b6109f5336111ec565b6109bb565b505034610187578160031936011261018757602090516000805160206114aa8339815191528152f35b90503461034357602036600319011261034357359063ffffffff60e01b82168092036103435760209250630271189760e51b8214918215610a68575b50519015158152f35b909150637965db0b60e01b8114908115610a85575b509038610a5f565b6301ffc9a760e01b14905038610a7d565b919050346103435760c036600319011261034357610ab2610b50565b90836024356044356001600160401b038111610343576000805160206114ca83398151915295610ae491369101610b81565b95909160643595610b256084359760a43590610aff3361117b565b610b0d8a828d8a8989610ed0565b9a8b97610b1a848a6110f4565b8a5196879687610daf565b0390a381610b31578380f35b60008051602061150a8339815191529160209151908152a23880808380f35b600435906001600160a01b0382168203610b6657565b600080fd5b602435906001600160a01b0382168203610b6657565b9181601f84011215610b66578235916001600160401b038311610b665760208381860195010111610b6657565b60a0600319820112610b66576004356001600160a01b0381168103610b66579160243591604435906001600160401b038211610b6657610bf091600401610b81565b90916064359060843590565b601f909101601f19168101906001600160401b03821190821017610c1f57604052565b634e487b7160e01b600052604160045260246000fd5b6001600160401b038111610c1f57601f01601f191660200190565b81601f82011215610b6657803590610c6782610c35565b92610c756040519485610bfc565b82845260208383010111610b6657816000926020809301838601378301015290565b9181601f84011215610b66578235916001600160401b038311610b66576020808501948460051b010111610b6657565b9060a0600319830112610b66576001600160401b03600435818111610b665783610cf391600401610c97565b93909392602435838111610b665782610d0e91600401610c97565b93909392604435918211610b6657610bf091600401610c97565b81601f82011215610b66578035916020916001600160401b038411610c1f578360051b9060405194610d5c85840187610bfc565b85528380860192820101928311610b66578301905b828210610d7f575050505090565b81358152908301908301610d71565b908060209392818452848401376000828201840152601f01601f1916010190565b929093610ddd926080959897969860018060a01b03168552602085015260a0604085015260a0840191610d8e565b9460608201520152565b610e0b949260609260018060a01b0316825260208201528160408201520191610d8e565b90565b610e1790610e94565b6004811015610e265760021490565b634e487b7160e01b600052602160045260246000fd5b610e4590610e94565b6004811015610e265760031490565b610e5d90610e94565b6004811015610e2657151590565b610e7490610e94565b6004811015610e265760018114908115610e8c575090565b600291501490565b60005260016020526040600020548015600014610eb15750600090565b60018103610ebf5750600390565b421015610ecb57600190565b600290565b94610f06610f1f94959293604051968795602087019960018060a01b03168a52604087015260a0606087015260c0860191610d8e565b91608084015260a083015203601f198101835282610bfc565b51902090565b6040919493926060820195825260208201520152565b9190811015610f4b5760051b0190565b634e487b7160e01b600052603260045260246000fd5b356001600160a01b0381168103610b665790565b9190811015610f4b5760051b81013590601e1981360301821215610b665701803591906001600160401b038311610b66576020018236038113610b66579190565b969294909695919560405196602091828901998060c08b0160a08d525260e08a01919060005b8181106110cc57505050601f19898203810160408b0152888252976001600160fb1b038111610b66579089969495939897929160051b80928a830137019380888601878703606089015252604085019460408260051b82010195836000925b84841061106357505050505050610f1f9550608084015260a083015203908101835282610bfc565b9193969850919398999496603f198282030184528935601e1984360301811215610b665783018681019190356001600160401b038111610b66578036038313610b66576110b588928392600195610d8e565b9b0194019401918b98969394919a9997959a61103b565b90919283359060018060a01b038216809203610b665790815285019285019190600101610fdc565b906110fe82610e54565b61115b5760025480821061113d5750420190814211611127576000526001602052604060002055565b634e487b7160e01b600052601160045260246000fd5b6044925060405191635433660960e01b835260048301526024820152fd5b604051635ead8eb560e01b81526004810183905260016024820152604490fd5b6001600160a01b031660008181527f3412d5605ac6cd444957cedb533e5dacad6378b4bc819ebe3652188a665066d5602052604090205460008051602061148a8339815191529060ff16156111ce575050565b604492506040519163e2517d3f60e01b835260048301526024820152fd5b6001600160a01b031660008181527fdae2aa361dfd1ca020a396615627d436107c35eff9fe7738a3512819782d706960205260409020546000805160206114aa8339815191529060ff16156111ce575050565b80600052600060205260406000209160018060a01b0316918260005260205260ff60406000205416156111ce575050565b61127981610e0e565b156112b75750801515806112a7575b61128f5750565b6024906040519063121534c360e31b82526004820152fd5b506112b181610e3c565b15611288565b60449060405190635ead8eb560e01b8252600482015260046024820152fd5b61132093600093928493826040519384928337810185815203925af13d15611323573d9061130382610c35565b916113116040519384610bfc565b82523d6000602084013e61143e565b50565b60609061143e565b61133481610e0e565b156112b75760005260016020526001604060002055565b9060009180835282602052604083209160018060a01b03169182845260205260ff604084205416156000146113c457808352826020526040832082845260205260408320600160ff198254161790557f2f8788117e7eff1d82e926ec794901d17c78024a50270940304540a733656f0d339380a4600190565b505090565b9060009180835282602052604083209160018060a01b03169182845260205260ff6040842054166000146113c45780835282602052604083208284526020526040832060ff1981541690557ff6391f5c32d9c69d2a47ea670b442974b53935d1edc7fd64eb21e047a839171b339380a4600190565b909190611467575080511561145557602081519101fd5b60405163d6bda27560e01b8152600490fd5b56fec2617efa69bab66782fa219543714338489c4e9e178271560a91b82c3f612b58b09aa5aeb3702cfd50b6b62bc4532604938f21248a27a1d5ca736082b6819cc1d8aa0f3194971a2a116679f7c2090f6939c8d4e01a2a8d7e41d55e5351469e634cf4410cc57040e44862ef0f45f3dd5a5e02db8eb8add648d4b0e236f1d07dcafd643c72710c63c0180259aba6b2d05451e3591a24e58b62239378085726f78320fda5fd27a1ea7bf5b9567f143ac5470bb059374a27e8f67cb44f946f6d0387a2646970667358221220b941e3a7db04f28bf9881cbb0333e6fef38d3ccb41e8961e257272e498862fd764736f6c634300081800332f8788117e7eff1d82e926ec794901d17c78024a50270940304540a733656f0d",
  "linkReferences": {},
  "deployedLinkReferences": {}
}